:100000000030022011500200F96C0200F96C02006D
:10001000F96C0200F96C0200F96C0200F96C020044
:10002000F96C0200F96C0200F96C0200F96C020034
:0C003000F96C0200F96C0200A9F6000057
:10003C002DE9F04F99B0054680780224532800F240
:10004C00CF85DFE810F054009900A800B800C80074
:10005C00DA00EA000C011B01CD052A013801590117
:10006C00CD05CD05CD05CD05CD05CD05CD05CD05F4
:10007C00CD05CD05CD05CD05CD05CD05CD05CD05E4
:10008C00CD05CD05CD0565018A019601A201AD0115
:10009C00BC01D601ED0109023C02CD05CD05CD0513
:1000AC00CD05CD05CD05620278028E02A402BA02FE
:1000BC00CF02E0020503CD05CD05CD05CD05CD055F
:1000CC00CD053A034E036203CD056F037903970305
:1000DC00A003AC03B803C703D103F4031104360423
:1000EC003E0450045D0469048D0494049704EC1CD4
:1000FC00E97A2A7B002320461EF040F88DF8180080
:10010C0006AB65200021012222F05CFADFF8280BF7
:10011C000078012800F26385204629F0E3FC0028D2
:10012C0000F05D8505460079012840F0588529F0DE
:10013C005DFA00274FF400018DF83F008DF8380070
:10014C00000ACDF83A108DF841708DF83E708DF89C
:10015C0040008DF839000EAE214606F10A0029F058
:10016C0042FD2978152233460170697887704170F9
:10017C004520FF2100F031BD29F0E7FC6979AA790F
:10018C000023002425F08AFA8DF838000EAB652088
:10019C00012100F05ABC29F05FFA29F0E1FB01467D
:1001AC000EA8022229F071FC8DF8180006AB652010
:1001BC00022100F04ABC29F04FFA29F0D1FB01468C
:1001CC000EA8032229F061FC8DF8180006AB6520FF
:1001DC00032100F03ABC29F03FFA29F0C1FBEA797F
:1001EC0001460EA80023002427F08AF88DF8180089
:1001FC0006AB6520042100F028BC29F02DFA29F06B
:10020C00AFFB01460EA8052229F03FFC8DF8180023
:10021C0006AB6520052100F018BC0020DFF8404A31
:10022C0029F001F9ADF85800681DA0478046E81D7B
:10023C00A04795F809A0814605F10A07BAF1100FFD
:10024C0000F2B2830EAC5546002D00F0B083384658
:10025C0029F01AFD24F8020B013D0237F4E729F0CE
:10026C00FBF929F07DFB01460EA8102229F00DFCAC
:10027C008DF8180006AB65200721E6E329F0ECF9B0
:10028C0029F06EFB01460EA8112229F0FEFB8DF819
:10029C00180006AB65200821D7E329F056FC6A7BD1
:1002AC00691D0023002423F079FE8DF838000EAB75
:1002BC0065200A21C9E302208DF8200029F045FCB5
:1002CC00ADF81800681D29F0DFFCEA79064605F147
:1002DC0008018DF838200EAF781C28F07BFF06A89B
:1002EC0031463A460023002420F056FB8DF8580086
:1002FC0016AB65200B21A8E329F027FC0021002474
:10030C0023F06EF88DF838000EAB65200C219CE3C1
:10031C000020DFF84C4929F086F8ADF85800681D2C
:10032C00A047814695F80FA005F11000A04795F85D
:10033C0012B0074605F11304BBF10F0F00F249830D
:10034C000EAE5D46002D00F04783204629F09CFC44
:10035C0026F8020B013D0234F4E729F07DF929F06F
:10036C0069F828F027FF40F04B8306A829F03BFCE6
:10037C004BE329F071F929F05DF828F01BFF40F0F0
:10038C00528306A829F02FFC52E329F0DEFB29F05A
:10039C00C4FA8DF838000EAB6520232100F01CBC8C
:1003AC00DFF89418C8208DF81800E81C097800298B
:1003BC0000F0878328F09DFB8DF81800A9E368797D
:1003CC00EE1CFE280BD1A879FF2808D12878082824
:1003DC0005D3304629F058FC314625F087FB0EA991
:1003EC00304628F071F8002800F097830546002469
:1003FC00A5E3E81C042126F0ABF8E97929F066FCAA
:10040C00DFF850188DF83800022028F0A7FCDFF830
:10041C004818032028F0A2FC0EAB65202621DBE354
:10042C0029F08DFB044605F10E0029F02DFC297CEA
:10043C006A7C0346E878CDE90012AA1D214625F016
:10044C00B1FDDFF80C188DF83800042028F086FC7C
:10045C000EAB65202721BFE34FF00208E81C8DF896
:10046C00408029F011FCADF8380068798DF85800FF
:10047C00A81D29F009FC2E7A044600270935CDE980
:10048C00005716A80EA92246334621F04DF829F044
:10049C000DF910D1DFF89C078DF84080CDE900579D
:1004AC0022463346C08AADF8380016A80EA921F0B2
:1004BC003BF88DF8180006AB652028218CE302264A
:1004CC00E81C8DF8406029F0DFFB29F049FAED7942
:1004DC0004460EA8002321462A4627F097FE29F051
:1004EC00E5F80ED1DFF84C078DF8406021462A461E
:1004FC000023C08AADF838000EA827F087FE8DF8CF
:10050C00180006AB6520292166E329F0A5F8ADF8A3
:10051C003800681D042126F01BF86A7AAB7A002497
:10052C00014600940EA825F069FD8DF8180006AB65
:10053C006520302189E229F08FF829F0F3F9312276
:10054C0001238DF8580016A8CDE90004DFF8FC064D
:10055C000EA920F0E9FF8DF8180006AB65203121BB
:10056C0073E229F079F829F0DDF9322201238DF8B4
:10057C00580016A8CDE90004DFF8D0060EA920F02B
:10058C00D3FF8DF8180006AB652032215DE229F00F
:10059C0063F829F0C7F9332201238DF8580016A807
:1005AC00CDE90004DFF8A4060EA920F0BDFF8DF8FC
:1005BC00180006AB6520332147E229F04DF8ADF861
:1005CC003800687B0024691D0094C0F3400200F0E1
:1005DC0001030EA822F0E6FE8DF8180006AB65208C
:1005EC00342132E229F038F86A7BADF83800691D05
:1005FC000EA80023002426F025FA8DF8180006AB6F
:10060C006520352121E22C4614F8030B04281ABF6F
:10061C00E8782C1D02208DF84000204629F034FB90
:10062C00DFF82466A5780121E278ADF838000023C4
:10063C00002431700EA829461EF012FE8DF8180009
:10064C002846347026F03AFA06AB65203621FCE1D8
:10065C0029F07BFAADF83800687904218DF8400058
:10066C00A81D25F075FF0446AE7AEF7A05F10C0053
:10067C0029F00AFBDFF8BC850546214632463B468D
:10068C0028F0DFFE0EA820F02BFF29F00FF810D178
:10069C000220214632463B468DF84000B8F8160041
:1006AC00ADF8380028F0CDFE0EA820F019FF8DF81B
:1006BC00180006AB652037218EE26C7829F045FADC
:1006CC000146DFF88005007820F040F98DF83800FD
:1006DC0004F0E000202840F082820EAB65203E2121
:1006EC007AE26C7829F031FA0146DFF85805007887
:1006FC0021F024FC8DF8380004F0E000202840F0B4
:10070C006E820EAB65203F2166E200206C788DF87E
:10071C003800DFF824050078411E022980F0998109
:10072C0002209AE129F011FA29F0F7F88DF8380037
:10073C000EAB652042214FE2002006908DF83D0063
:10074C00CDF83900E81C06A926F0ECFD8DF8380030
:10075C00069850B128F04BFE81788DF83B10C1788B
:10076C008DF83C1000798DF83D000EAB65204321CF
:10077C00062232E2E81C28F0BCF98DF838000EABEA
:10078C006520442128E229F0E0F96979AA790EF074
:10079C00D7F88DF838000EAB652045211CE229F006
:1007AC00D4F96979AA791AF0BDFB8DF838000EAB33
:1007BC006520462110E2EC7829F0C1F9014620466B
:1007CC0022F000F9B0FA80F0472140098DF838008A
:1007DC000EABC7E1E87800248DF8384023F04EFCCE
:1007EC000EAB6520472130E1E8780EA926F0BEFD5E
:1007FC0006468DF8180040000130C5B2284629F095
:10080C0047FA002800F0A981044600F8016B00218A
:10081C009DF81820914280F0C0809DF8383001314D
:10082C0000F8023B9DF8393000F8013CF2E70EACC1
:10083C001321204629F036F9EE7829F080F901468B
:10084C00304626F063F9002800F08E810021231D2C
:10085C008DF8381028F0CBFDC11C827818468DF825
:10086C003B2028F0B7FC82E10020EC78CDF8460064
:10087C00CDF84200CDF83E00CDF83A0029F05FF9F2
:10088C00AA79ADF838000F2A28BF0F228DF83A202C
:10089C0022B10EA8E91D033028F09CFC0EA92046BD
:1008AC0001221DF00BF88DF8180006AB65204B21CA
:1008BC0092E127F0D7FF8DF838000EAB65204C2164
:1008CC008AE1E87829798DF838100EA9032800F010
:1008DC006581022800F06881012840F06C8152206B
:1008EC0021F070FB6AE129F030F969790246A81D04
:1008FC001BF02FFA8DF838000EAB65204E216BE102
:10090C0029F023F90146687919F03CFF8DF838007D
:10091C000EAB65204F215FE1C64D0822E88A05F138
:10092C003901ADF83800C54800788DF83A00A88C2C
:10093C00ADF83B00688BADF83D000EACE01D28F027
:10094C0049FC04F10F0005F11C01082228F042FCBF
:10095C00287E5021182223468DF84F0065203CE15B
:10096C00B5480078002800F00781122010E11FF034
:10097C007BFF34E100208DF83800E87841B2B1F10A
:10098C00FF3F06DC10F07F00AA4918BF012081F858
:10099C0068000EAB652053211EE1652049212A46D3
:1009AC00234621F00FFE3DE180208DF8630097F87F
:1009BC0000B0BBF1100F53D87E1C4FEA4B0500243E
:1009CC0006AFA5424ED0301929F05EF938530234E7
:1009DC00F7E780208DF8630026780F2E58D80597FE
:1009EC00671C75004FF0000806AC454552D007EB6C
:1009FC00080029F049F924F8080008F10208F4E786
:100A0C00084629F041F9ADF81800687E06A928F0CF
:100A1C00D9FB0EA921201BF0EDFA8DF8580016AB6E
:100A2C006520212111E0084629F02EF9ADF81800B7
:100A3C00687E06A928F0C6FB0EA922201BF0DAFA64
:100A4C008DF8580016AB65202221012221F0BAFD49
:100A5C00C6E0002840F0B680042009F001F8B4E0AC
:100A6C0080200EE0BAF1100F0DD80EA900204A46D6
:100A7C005346CDE9001BCDE9027016A8414615F08E
:100A8C006FF98DF863000DF1630365200621A3E077
:100A9C0080200FE0BBF10F0F0ED80EA90020CDE97E
:100AAC0002645246CDE900B1049016A8059B494654
:100ABC0015F0FEF88DF863000DF16303652020211D
:100ACC008AE016A90EAD2A4618F0D0FD04469DF812
:100ADC005800F0B1614904EB4400002641F8206055
:100AEC0001EB800046609DF94B00B0F1FF3F03DC49
:100AFC0005F1130022F05EFF0EAD1421284628F0FC
:100B0C00D1FF0420214614222B4625F087FC8DF8BA
:100B1C00186006AB652024215EE0182029F0B8F897
:100B2C00002800F083800446BDF83800002118220C
:100B3C00234628F0E5F90546002818BFC8251920DA
:100B4C0029F0A6F8002867D007460130002D4BD0BD
:100B5C001821FF2228F050FF50E0002049218DF889
:100B6C00180006AB652037E001208DF838000EAB7D
:100B7C0065204A21132230E028F0E7FF044605F1F6
:100B8C000D0029F081F80246691D204625F04CFA2B
:100B9C008DF838000EAB652051211DE0522021F05C
:100BAC0011FA2748002104E0522021F00BFA2448C6
:100BBC000121017002E0522025F08EFA0EAB652067
:100BCC004D2109E001208DF8380004F0E0002028C8
:100BDC0005D10EAB65204021012221F0F3FC00244D
:100BEC00204619B0BDE8F08F3146082228F0F2FA01
:100BFC0007F109002146102228F0ECFA6520252186
:100C0C0019223B463D7021F0DDFC3846192128F0B5
:100C1C0049FF384629F03AF8002CE0D0204618213C
:100C2C0028F040FF204629F031F8D8E7C825FFF717
:100C3C00DEBB00BF306D0020AC2500205426002008
:100C4C006A270020227A00202A2700201026002064
:100C5C00996802000F6E0200454F010078330020A6
:100C6C00959C02002DE9F04F99B080466FF007007B
:100C7C00DFF8DCA80630ADF852009AF80000022824
:100C8C0014D1DFF8C808007880B9B8F8080010B1A2
:100C9C001020012101E0302000210AF0E5FD0020A8
:100CAC008DF81C0007A9522021F08CF90DF11C09BC
:100CBC0098F80810D8F804004A4610F089FAE8B100
:100CCC009DF81E609DF81F409DF82050BDF82670C1
:100CDC0028F086FC844211D127F003004FF6F871FE
:100CEC0080B288420AD0012D08D8022E06D29AF87A
:100CFC000000022808D19DF84D0028B1D32019F02E
:100D0C000AFC19B0BDE8F08FB8F82800ADF848001F
:100D1C00B8F83200ADF82A009DF82200D0B1D8F80E
:100D2C0004109DF81D209DF83830012027F00CFA96
:100D3C0008B1CF20E3E7DFF81C08C078012809D1FF
:100D4C00B8F8280028F071FE20B1417901F0E701D4
:100D5C00083141719DF8210068B1BDF82610FF20C3
:100D6C0025F0D4FE9DF82110E0B141F001012C26B4
:100D7C008DF8211017E09DF83900002800F0EB8069
:100D8C009DF83D10FF2902D0002940F02681DFF8A4
:100D9C00C807BDF82620C18A8A4240F0278101206D
:100DAC00222607E0082601F00300012808BF46F0C0
:100DBC00110601209AF800104FF6F877012908D88F
:100DCC00B207344658BF64F07F04002808BF34468D
:100DDC0000E034469DF82200DFF87C575FFA84FB74
:100DEC0030B9E87A20B10BF02200222840F0808044
:100DFC001BF0400004901CD0012903D8A87B80076D
:100E0C0000F1D880119801780C2900F2DB800122C6
:100E1C0041F298438A401A4200F0D480032902D14F
:100E2C0040780D2805D007A822F018F901283FF4C6
:100E3C0068AFA88CB8F8441081420AD198F84620C3
:100E4C00B8F84210B8F8280000230093002307F0EC
:100E5C0001FE9DF82200F8B1B8F84210B8F828004D
:100E6C0022F008FC002800F08F800646D8F8040019
:100E7C009DF81D10F2780844417B8A421EBF002267
:100E8C007260F1700130042125F062FB71688842B8
:100E9C00FFF437AF013070609AF80000022834D2AA
:100EAC00A87B80077FF52DAF9DF84D004FF6F876A7
:100EBC0060B1BDF8280027F085FB002800F0078101
:100ECC00D8F80400417801F0DF0141709DF82E0044
:100EDC00002800F0DF80D8F8040081790139817195
:100EEC008DF82E1004F07F00090640F0D680D3E078
:100EFC000BF0420042287FF41CAF1198007800F0F0
:100F0C00FE0006287FF415AF72E77FF4FAAE95F871
:100F1C002600092802D004287FF4F3AE5FEA8B6028
:100F2C0000F19E80049800283FF4EBAE11989DF8D8
:100F3C0038100078042808BF022900F045810728E2
:100F4C0008BF042900F009810C2840F04D8107A846
:100F5C0015F014FBD5E6BDF8260022F0EFFD0238A3
:100F6C00DFF8F415B0FA80F0CA8A4109BDF8260002
:100F7C00904208BF023100293FD09DF81E20002A64
:100F8C0056D001F1400455E09DF84D00B8B3042053
:100F9C0026F096F800283FF4B4AE01464FF4B27038
:100FAC000880B8F828004880DFF8B00500781EF0FB
:100FBC0023F8A6E611980178A1F10C0212F10C0F9E
:100FCC003FF62CAFE88ABDF8262082427FF496AE1D
:100FDC00BDF8280024F0B2F990E6109A9DF83C0078
:100FEC0020F002FF30B101200026E3E690F8260045
:100FFC000428F8D100260020DCE600241AE095F83D
:10100C006C0001287FF448AF11980078062803D1B2
:10101C00049800287FF440AFF81DBDF82A1080B268
:10102C0081423FF46EAE07A841461EF079FA68E69D
:10103C0001F1200422F082FD0138B0FA80F0400961
:10104C0044EA00069DF81E0000283FF4B2AE119849
:10105C00007827F00BFB012818BF04F07E06A8E6E9
:10106C0098F8460028F0A0F99DF82E00012840F0D1
:10107C00B480B8F82800BDF82810814240F0AD804B
:10108C00BDF8260022F05AFD022804BF00208DF87E
:10109C002E00A2E004F07F000446210702D44FF09A
:1010AC00000A34E0E1B24A0722D4C9069DF82110A7
:1010BC0028D5C1F3820212B1072A18BF013A002ABF
:1010CC0008BF044601F0E30040EA820118E0D32097
:1010DC0019F021FADFF888040078002800F09F80CE
:1010EC00DFF8801451F82000C0EB0010810098E06C
:1010FC009DF8210000F0E00100F0E30040EAD1018E
:10110C008DF82110D8F804004FF4805A017295F82C
:10111C002600092801D0042823D1E98ABDF826002D
:10112C0088420AD022F00AFD022806D09DF8210040
:10113C0000F0030001287FF4E4AD9DF81E000028A8
:10114C0047D011989DF838100078042808BF022960
:10115C003AD0072848D1042946D107A817F056FFE2
:10116C00CFE5E7B214F0610F46D0F80709D0B8F814
:10117C00281007A8A94615F049FC002864D004F0F3
:10118C009F040025E7B2A00609D598F84600D8F8C8
:10119C003C2028F009F907A815A905F06BFC780686
:1011AC0040F12681B8F8281007A80DF152022B4601
:1011BC0010F08AF800286FD00546119800780128A5
:1011CC0008BF4AF0100A13E107A9002010F09CFE9A
:1011DC0097E598F8460028F0E7F8D8F83C2007A8DF
:1011EC0015A905F047FC8CE503287FF48AAD07A808
:1011FC0000210FF079FC84E59DF81E0001285AD1DE
:10120C0011980078032849D0052854D1B8F8281033
:10121C0007A80DF15202002310F056F871E5D148E1
:10122C000168D1480268BDF82800904701287FF476
:10123C0068ADCE480168BDF828008847CC480168E5
:10124C00BDF8280088475CE526F0FCFA9DF82E10C6
:10125C000546BDF8280019B9B8F82810884291D075
:10126C00B9F81610814204D1BA48807800283FF4AE
:10127C0089AFB8F8281007A82A460AF0B9F8002850
:10128C0000F09B8038074AF0040ABDF8260048BFDE
:10129C00F01DADF8520075E70025A9E0BDF8260059
:1012AC0027F090F938B1B8F8281007A80DF15202C0
:1012BC00002310F009F89DF82E0088B323F0D2FD1E
:1012CC0000287FF41EAD9DF83900A0B3109A9DF84C
:1012DC003C009DF83D1020F087FD002870D09DF853
:1012EC003D00002875D0109928F062FB9DF8243041
:1012FC00ADF8520011209DF823209DF821104AF0E2
:10130C00400A002B08BF0920002A18BF083000290A
:10131C0018BF0130D8F804100A5C013A0A5462E094
:10132C009DF81E0001287FF47EAE119800780328EA
:10133C003FF4E7AC77E69DF82010BDF826000029B5
:10134C00ADF8520000F0D3804020BDF8261009F112
:10135C001D0200EAC4059DF820002B4618F0DCFDA8
:10136C0038B1D8F804004AF0200A017801F03F01A6
:10137C0001709DF8390048B1BDF8261009F1200024
:10138C0021F04EFE4AF0400AADF852009DF81E00C6
:10139C00012806D0BDF82810BDF82600002214F054
:1013AC00E9FEBDF82810BDF826002A4612F068FBAD
:1013BC00002818BF4AF0200A15E004F0DF04E0E62C
:1013CC00BDF82610BDF828000B2200231AF04FFCA4
:1013DC0097E4BDF82600ADF8520028F026FB002853
:1013EC0008BF4AF0400A26F02DFA05464FF6F8766B
:1013FC00B01DBDF8521080B20F1A5E4818BF2F46B0
:10140C000078012805D1F01DB8F8321080B2814265
:10141C002FD160B2B0F1FF3F3FF773AC002F3FF418
:10142C0070ACB8F8080028F033FC00283FF469AC25
:10143C00B8F80820D8F80410054627F0CBFE9DF824
:10144C001E10002098F80830B8F8282016908DF857
:10145C005410BDF8521015ACCDE9007ACDE9020458
:10146C00284610F0DDFC70B3284628F00FFCFFF77F
:10147C0048BCB8F828108142CBD0701CBDF826208F
:10148C0080B28242C5D2BDF828008142C1D028F07A
:10149C00CCFA0028BDD0017901390129B9D840888E
:1014AC0001218DF85410ADF8600015AD28461EF0E2
:1014BC00A7FC0028ADD0281D1DF096FC0028A8D054
:1014CC0021F0F8FEA5E72348407800283FF419AC3A
:1014DC0000208DF81870ADF81900DDF826004FEAE1
:1014EC003040059005A827F001FDFFF70ABC39072D
:1014FC003FF52AAF9DF81E1001293FF425AF0021BE
:10150C0018F0CAFC20B1407901380228FFF41CAF56
:10151C00B8F84410BDF8520022F0ACF830B1807825
:10152C0026F0D0FB01380728FFF40EAFBDF82800D9
:10153C0027F048F818B104208DF8200004E7BDF816
:10154C002610BDF8280002223FE700BF6A270020C2
:10155C00AC25002070250020306D0020247A00205E
:10156C005C27002028B202004C23002054230020CA
:10157C0050230020682700202DE9F0438DB005464C
:10158C0080780224252800F27380DFE810F0260012
:10159C00A400C400D700EA00F8000601B602B602A7
:1015AC001D012E01B602B602B602B602B602460103
:1015BC004B01B602B602540158016101B602B602E3
:1015CC00B602B602B602B602B602B602B6026B019B
:1015DC006E017101740178017F01DFF8D47500246C
:1015EC000E258DF804403878012807D801A81DF085
:1015FC00C1F804469DF8040005EB4005EEB23046F8
:10160C0028F046FB002800F087824FF000080546C2
:10161C00431C0021082280F80080012027F070FC78
:10162C0027F0E4FF6872000A0721A872DFF884052E
:10163C00E972007828733878012800F262829DF8EC
:10164C000420002A6A7300F05E8205F10E0000216E
:10165C002346914280F0578213F8022B013100F897
:10166C00022B13F8012C00F8012C9DF80420F0E754
:10167C00A0F140010D291FD8DFE811F00E00100178
:10168C003F023F021E012E013F023F023A0145017B
:10169C00500165013F02740101ACE91C0822201DB8
:1016AC0027F098FD204619F009FFBDF806004021EF
:1016BC00ADF828000AABEEE0632800F069816428DD
:1016CC0000F07681E02840F0188200244720E021C9
:1016DC00002200230FE2202028F0DAFA002800F084
:1016EC00C1812021FF22044628F086F9631C0120C9
:1016FC000021082227F004FC0546002818BF01250C
:10170C0001AB84200021042227F0FAFB002800F012
:10171C000582023506E2E81C28F0B6FAADF80400A2
:10172C00832028F0CBF9014601AA832028F090F8F9
:10173C008DF828000AAB6720022190E1E81C0421F7
:10174C0024F006FF0190842028F0B8F9014601AA84
:10175C00842028F07DF88DF828000AAB672003213F
:10176C007DE1612028F0AAF90146EA1C612028F0ED
:10177C006FF88DF8040001AB672004216FE1622043
:10178C0028F09CF90146EA1C622028F061F88DF8DB
:10179C00040001AB6720052161E100208DF80400F5
:1017AC00E81C28F071FA6A7900F4F851002A00F06C
:1017BC004981B1F5A06F04D04FF6FF71884240F01B
:1017CC004B814FF0FF3045E128F034FA044628F005
:1017DC002FFAD949604301ACB0FBF1F1204628F057
:1017EC00C0F9672009210422ABE0DFF8B4632D793E
:1017FC00306840B901AC204627F0BAFD01202146E3
:10180C000EF03AFB3060052D00F06981002D00F0E0
:10181C006981642122F022F966E115F8032B672017
:10182C0010216EE0E87823F019FE8DF8040001AB6E
:10183C006720112113E100246720142102E0002409
:10184C0067201521ADF80840019401AB062252E146
:10185C0000246720162109228DF80C40CDE90144A3
:10186C0001AB48E1F52020210BE0F520212108E017
:10187C00F520222105E04FF6F570232108E0F52034
:10188C0024218DF8040001AB6720E8E0F520252128
:10189C00ADF8040001AB67200222E1E0E81C28F05F
:1018AC00F3F9ADF8060001AC204617F06BFB231DD5
:1018BC00672041210822D3E0E81C0AA926F004FE87
:1018CC0000288DF8040000F0CF8001A81821FF2219
:1018DC00013028F091F8F4E0E81C0AA926F0F4FD98
:1018EC0000288DF8040000F0F1804FF0FF30EFE09D
:1018FC0015F8030F697822F095F8288067204821A5
:10190C0002222B46ACE0E87824F070FF01AC0146D3
:10191C00204618F001FD6720492111E0EC1C2046FF
:10192C0026F09EFA002818BF2046B5F80B1019F0C7
:10193C00CDF901AC0146204618F0EEFC67204A2197
:10194C00242223468CE001ACE91C0822204627F017
:10195C0041FC204627F016FA8DF828000AAB6720C8
:10196C004B217CE04FF0FF3095F80380691D01900E
:10197C00ADF81000CDE90200FE208DF806002879A4
:10198C0003288DF8300020D10AA828F02CF921E08A
:10199C000024E91C08228DF8284001AD284627F0C8
:1019AC0019FC28461DF020FA0AAB67206321A1E040
:1019BC00B5F80B006A7B0024E91C8DF804400AF092
:1019CC0085F901AB6720642194E0084628F05CF9A6
:1019DC00ADF82800AF7B002F00F0DD807E0095F87D
:1019EC000D90304628F054F9002800F0D48005F111
:1019FC000F013246044627F0EDFB00940AA940463D
:101A0C004A463B460DF07EFA002800F0BA808378F7
:101A1C0001784278057946798DF806308DF80410F6
:101A2C008DF80520C3788DF809608DF808508DF875
:101A3C00073001A98B1D811D40794200184627F003
:101A4C00C9FBA5E0B1F5A06F03D04FF6FF7188423A
:101A5C0002D100205549086001AB67200621012204
:101A6C0020F0B0FD002448E0182028F011F940B314
:101A7C00BDF828100446009006200022182324F0FC
:101A8C00B7FCB8B9BDF8285001AE21461022701C25
:101A9C0027F0A0FB444F05EB450506F1110057F864
:101AAC00251028F05EF807EB8500416806F115005B
:101ABC0028F057F82046182127F0F4FF204628F08C
:101ACC00E5F801AB672044211922C9E7BDF82800CD
:101ADC00ADF8050001AB672045210322C0E7314971
:101AEC0001220A7021F06DF9002467200A218DF87B
:101AFC00044001AB012220F065FD20460DB0BDE88D
:101B0C00F08385F80D806720002132462B4620F0AB
:101B1C0059FD284628F0BAF87CBBA3E7019800BA17
:101B2C00C4F809000AAB83200021022227F0E8F94F
:101B3C0020B1043506E000BF40420F00BDF828007C
:101B4C00A4F80D0004F10F0361200021012227F0FD
:101B5C00D7F9002804F1100318BF083562200021C2
:101B6C00102227F0CDF90028234618BF1035672026
:101B7C0001212022257020F025FD204628F086F832
:101B8C0070E74FF6FF70ADF808006FF480300190ED
:101B9C00204628F07BF801AB67204D210E225FE731
:101BAC00B079002027270020B874002090790020FD
:101BBC00AC250020542600202DE9F04F85B0847808
:101BCC000226362C00F2BF820546DFE814F06B01CA
:101BDC00730172007B017800BC02BC0281003700EB
:101BEC004C008C009F00AD00BC02B5008F01BC0204
:101BFC00BC029901AC01BA01BC02BC02BC02BC0221
:101C0C00BC02BC02BC0237004C00BC02BC02BC02D1
:101C1C00BC02BC02BC02BC02BC02BC02BC02BC02C8
:101C2C00BC02BC02BC02BC02BC02BC02BC02BD00B9
:101C3C00EB00CA01FF005B005B00DA0127F079FFC3
:101C4C00242840F0A98102AB352000210422002475
:101C5C0027F056F9002800F0FB81012002228DF8B4
:101C6C0010000020FBE100208DF8100027F061FF30
:101C7C000646092C40F0EC8095F8059095F8068006
:101C8C000720EEE0DFF82465306880B1406A70B15F
:101C9C0002A927F057FF0546342C40F02A8228462B
:101CAC0027F0F2FF002800F02382042042E20320F8
:101CBC0040E2DFF80835612002210A2240E202AC42
:101CCC00E220214624F008FA61200421082287E151
:101CDC0027F02FFF0446681D27F0D6FF242C40F078
:101CEC0086810020F9E1E878032800F29681281D0E
:101CFC0027F0CAFF0246E878DFF8B81431F8101064
:101D0C00DFF8B404007827F029FF87E1E87803288E
:101D1C0000F28881DFF89C1431F81010DFF8980479
:101D2C0000781DF0A7FD7EE127F038FEADF8080025
:101D3C0002AB61200C2102E1002661200E21012260
:101D4C008DF8086002AB1CE2DFF8606401208DF8AE
:101D5C0010003068002800F02B810069002800F08A
:101D6C00278102A927F0EEFE042124F0F1FB0028C4
:101D7C0000F0ED81044627F08BFF002800F01B815A
:101D8C002146054627F08EFE3068BDF80C10224621
:101D9C002B4606690298B0478DF81000284627F0AC
:101DAC0075FF08E1DFF804442068002800F0078183
:101DBC008069002800F0038102A927F0C3FE206887
:101DCC00BDF80C10826902989047F9E0DFF8DC73DB
:101DDC003868002800F0FA80C069002800F0F6800E
:101DEC0002A927F0AFFE9DF80850BDF80AB0BDF867
:101DFC000C90044627F048FFA6788046F72E28BFA3
:101E0C00F726B01C5FFA80FA504627F041FF0028F5
:101E1C0000F09F81012D044608BFBBF1000F00F0BC
:101E2C009C813868A11C42463346C56902980091D2
:101E3C004946A8470746002840F0958100276120B5
:101E4C003321524623466670277020F0BBFB8AE193
:101E5C00681D27F019FF8146E81D27F015FF804605
:101E6C00092002AF242E18BF2F1809EB080508BF54
:101E7C003526304627F022FE854201D9022059E151
:101E8C00B9F1000F04D1304641463A4623F0A0F890
:101E9C00304641463A4627F0DBFC002800F0E5804E
:101EAC000A2047E1E878012802D0002840F04A8156
:101EBC0027F0F8F940F259600121ADF8080002ABA7
:101ECC0061203CE00120EC1C8DF80800E22021464A
:101EDC0020F078F830B901200821224627F0B8FC10
:101EEC008DF8080002AB6120032128E1E878291D58
:101EFC00012800F0E080002840F0E480E020DEE0E3
:101F0C0027F017FE0446681D27F0BEFE242C0FBFD9
:101F1C0000200146204627F079FD8DF8080002AB21
:101F2C00612012210BE127F004FE24280CBF0020B5
:101F3C0027F0C4FDADF8080002AB6120132102228A
:101F4C00FEE0E8788DF8080099488068D0F83024D5
:101F5C0002A9E02090478DF8100004AB61201421F9
:101F6C00EDE0924C206898B3806A88B302A927F000
:101F7C00E9FD2068BDF80C10826A02989047014672
:101F8C0027E08A4C206868B3C06858B327F0D1FDAD
:101F9C002168C968884726E083466938002680B2E4
:101FAC00032838BF0126681D082C40D1057841E074
:101FBC0003208DF8100004AB61203021BFE003201A
:101FCC008DF8100004AB61203121B8E00327CFE07D
:101FDC00002102AC204627F0C4FD612032210422EE
:101FEC002346ADE0032027F0B6FC3621A7E005F12F
:101FFC000806ED790146A8426BD92046002227F04D
:10200C0021FC09288DF8080069D1002D67D02046E5
:10201C002946324627F01CFC61E0022027F09BFC8D
:10202C000A218CE0022027F096FC0B2187E027F098
:10203C002BFE0546584627F041FD0227A84288BFD3
:10204C007700CFB100268DF808706120214694E00E
:10205C0002988DF810400422ADF8120002208DF881
:10206C00110004AB612008216AE0012E64D1E2204A
:10207C0039461FF0A7FF5DE0401B87B2F72F28BF42
:10208C00F727B81C5FFA80F8404627F001FE0028BD
:10209C0061D000F1020A81463946504627F002FD14
:1020AC00584629463A46534626F02AFF054600284C
:1020BC006AD00A2773E00878022814D252201FF045
:1020CC0081FF00E002208DF8080002AB61200F2197
:1020DC0035E02046324627F0B5FB8DF8080002AB00
:1020EC00612007212BE002A9522023F0F5FFECE739
:1020FC0002359DF8080015F8018B012811D1BDF8A7
:10210C000A0070B9BDF80C7041462A46384622F0D8
:10211C005FFF012F07D1E22029461FF053FF012753
:10212C0001E0BDF80C703068394642462B46466AD1
:10213C000298B0478DF8100004AB612021460122B3
:10214C0020F040FA0026304605B0BDE8F08F05209F
:10215C002FE710270CE0102774E7A9F1690003287A
:10216C00BFF45FAE0227204627F090FD002FE9D088
:10217C0000268DF80870612033218DF8096002ABC0
:10218C00022220F01FFADEE789F801700027612097
:10219C00214642464B4689F8007020F013FA484617
:1021AC0027F074FD002D7FF44DAFCBE7EC2600201B
:1021BC000C010020E4B70200227A002080B7020054
:1021CC002DE9F04F9DB00446DFF89C05406818B12E
:1021DC008047002800F05682DFF890A5DFF890B514
:1021EC000D940DF138099AF80000411E002C0B914A
:1021FC000BF1180418BF01219BF802800027002561
:10220C008BF80F109BF801100C91C0B287421ED2B4
:10221C00B84517D0FEB200214A460423304626F0BA
:10222C00A1FF0E9810F4403F40F00400C0B218BF5C
:10223C0001357C2806D130460621F82225F014FF02
:10224C00F82020709AF800000C340137DDE7E9B271
:10225C0001380024884204D19BF80500002800F0C6
:10226C007F82DDF83490CDF82880DFF8FC84B9F15A
:10227C00000F484608BF1020059015AD00200190B6
:10228C00DDE90B740026380400F0FE819BF80F008A
:10229C0010B901208BF80F00E0B200210EAA042324
:1022AC0026F060FF0E98B9F1000F19D010F4403FE2
:1022BC0019D04FF400509AF800100136013FABF8DA
:1022CC0010009BF80F0001388BF80F00012050FA1A
:1022DC0084F0B0FBF1F202FB11048BF80D40D2E755
:1022EC000021049102E0CDE90B740496C0B20A9E61
:1022FC004FF0000A702804D00C987021C0B222F064
:10230C0023FA5FFA86F900210EAA0423484626F028
:10231C0029FF9DF83800FE2803D04846FE2122F004
:10232C0013FA48460621FE2225F09EFE4FF400507B
:10233C000C9F0BF11601ABF814A000228BF80C606B
:10234C00ABF81000FF2088F800208BF80E00F8B2D4
:10235C008BF80D70400050FA87F001EB8000B0F85C
:10236C0006A04FEA490050FA86F09BF80F6001EB8B
:10237C008002FE20ABF812A0114601F8020F32F8D1
:10238C00060F03910890DFF8E4030292047814A876
:10239C0021F098FC56FA87F0CDF82490013890FB88
:1023AC00F4F101FB140000905FFA87FB0C97CB450E
:1023BC0000F06281ABEB0900B0FA80F040090790A5
:1023CC00002006900020DDF83490C00740F09E807D
:1023DC001FFA8AF4162C6ED998F80000002840F0E9
:1023EC007381AAF1070758460FAAB9B218F054F82E
:1023FC00BDF84A6006F11000A0423BD89DF846009B
:10240C00962837D1A7EB06099DF8452031465B4647
:10241C001FFA89F840461BF091FD58BB9DF8470008
:10242C00C10701D1800704D40020CA46DFF83883E5
:10243C00C9E7F01D83B2089813FA80F4B4F5005F75
:10244C0001D90120F2E780B2CC4918440A1A584647
:10245C00414626F087FE06980130B4F5005F0690E1
:10246C0004D101204FF400510891DEE70020CA4648
:10247C000894DBE7AAF1010ADFF8EC825446A0B21B
:10248C00172836D33628A4F1160658462A4688BF94
:10249C002026A41BB3B2A1B226F064FE3004EED009
:1024AC0015FA86F010F8010C962801D0013EF5E7DC
:1024BC0006EB040A86E7069810B1AD4926F0A5FF95
:1024CC000098C0B2834500F0DB800C990120DDF848
:1024DC00249050FA81F0A5490978B0FBF1F202FB87
:1024EC001107A34907EB470001EB8000B0F81CA0D3
:1024FC005AE7A0481499006842689F48904700200A
:10250C0007900C980A90DDF8349008E0069810B10A
:10251C00974926F07AFF002007900C980A9098F8BB
:10252C000000002840F0D08008981021C0F500521F
:10253C00103883B20998C1F2001221F0DFFB98F831
:10254C0000100843149988F800008A480068426813
:10255C008948904707980A9A88B1844800780BEB11
:10256C000001013991FBF0F202FB10128049D0B24C
:10257C00400050FA82F001EB8000B0F81CA0DFF8AC
:10258C00F0B108990298099C01238BF80E20018068
:10259C00ABF81010BBF912209BF80D102046ABF8CD
:1025AC0014A023F04FFCBBF914209BF80E1020460E
:1025BC00022323F047FCBBF81000049CB9F1000F78
:1025CC00C0F5005007D00599DFF8A0A18842A4BF40
:1025DC000121019101E0DFF894A1059988424FF0A7
:1025EC007C01B8BF7821099E304622F0ADF80DF081
:1025FC00E3FE07469BF80F000621FC22C01B8BF85C
:10260C000F00304625F030FD0399FC209BF80E306E
:10261C0008709BF8021017FA84F00C9301449AF896
:10262C000000B1FBF0F202FB10118BF802100A91C2
:10263C000131CAB2B2FBF0F202FB10118BF801109F
:10264C0003EB43010BEB8101898B102906D10C990B
:10265C000131B1FBF0F202FB10100C900B98C01B77
:10266C00B9F1000F0B903FF40BAE019880F0010014
:10267C00C0077FF405AE07E00120CB46079042E788
:10268C0000984BE700246BE07C2022F077F804469E
:10269C00FF284ED17E2022F071F80446FF2848D145
:1026AC009BF8014004EB44000BEB8000807DFF287D
:1026BC003BD09AF800009BF802100144013991FBC1
:1026CC00F0F202FB101434E02A48149900684268B6
:1026DC0029489047264E254F00253878854213D23D
:1026EC00ECB2204615F062F898F80010084388F810
:1026FC0000003DB138780138854203D020467E2158
:10270C0022F022F80135E8E7B18B01380024B070D3
:10271C00C0B2F4707470F180FE2122F015F8002024
:10272C007C2122F011F874711AE020467E2122F0EF
:10273C000BF8E0B2FE218BF80340400050FA84F015
:10274C000BEB8000808BABF806009BF8020021F0AD
:10275C00FBFF00208BF80500BBF81000C0F50054FF
:10276C0020B21DB0BDE8F08F58230020237A002042
:10277C0040720020D80100100040034000200011DE
:10278C002DE9F04F8FB00C4648070FD4200441D4EC
:10279C00E00400F19781200600F1C081A00700F150
:1027AC00D481200500F1F3810020B4E1DFF820058D
:1027BC000178062900F2AD81DFE811F007009401E1
:1027CC00AB01AB019901AB01A001DFF81055DFF8AB
:1027DC0004152A7891F82B30022A02D19E0600F1BA
:1027EC0098815E0700F19D819B0740F19281042343
:1027FC00037091F82C30DB0700F08B8191F82E30B0
:10280C00002B00F0528225F076FB0420012101F010
:10281C00EFFF57E2DFF8C8040394DFF8BCB4DFF82D
:10282C00B094DFF8C474DFF8AC44DFF8B054DFF8D0
:10283C00BCA448F20208008802909BF800001CF02F
:10284C007FF8002800F03A8106460078D3282DD175
:10285C00F089404540F019813878002800F0158146
:10286C0099F80000012840F0108126F0FBFB0028AD
:10287C0040F00B817088002840F00781A24604AC20
:10288C001221204627F00EF926F0E0FE30462146B4
:10289C0018F02AF9BDF81C00B0F5285FC0F088804C
:1028AC00012002211EF018FF54462AE099F800106E
:1028BC00884217D1012834D0032840F0E6802878CC
:1028CC000138012800F2E180B078012851D00028AD
:1028DC0040F0DB807078002800F0BF8000201DF0F5
:1028EC00A7FBD2E00A2811D194F82B00BA46B71CEA
:1028FC003071A16909B138468847384624F072FF17
:10290C005746DFF8D853DFF8E4A3BEE02978002956
:10291C0040F0BB80092840F0B880A168B01C884703
:10292C00B3E028780138012800F2AF80707860B1EC
:10293C0094F8330094F83410013084F83300C0B2AA
:10294C00884202D9012000219DE099F8010003285A
:10295C0058D0022871D0012840F097803878002890
:10296C0000F08C8026F07EFB002800F09280012085
:10297C0085E07078002875D026F038FE4FF6FE7191
:10298C00884203D1BAF81600884207D0AAF816106C
:10299C00ADF8281053200AA91FF014FB1EF010FAF2
:1029AC0024F080FF00208AF826001DF089F86CE0E6
:1029BC00CF48006809A90AAA16F058FE07460298E3
:1029CC005446C64DDFF824A3874212D29DF8380036
:1029DC0010B1FD208DF838000420394614220AABC2
:1029EC0023F01CFDC34907EB470001EB80000121DC
:1029FC0041720020012184F83200012001F0F8FE20
:102A0C00B94F42E0A2460AACAB20002122461CF092
:102A1C00BFF9042004945446DFF8D0A2AF4D8DF8D2
:102A2C00140004A80FF0CCFB26F010FE9BF800005D
:102A3C004FF4805141F288321DE0012020714FF497
:102A4C008060ADF828000AA818F0FEFC26F0FEFD08
:102A5C00A4484FF4805102680BE010F08FF86069C5
:102A6C0098B9A2E702204FF4805140F6B83289F8A9
:102A7C0002009BF8000027F071F806E0002084F8B3
:102A8C0032000120012101F0B3FE304625F006FA98
:102A9C00D3E694F8350020B1E0690028F5D08047E2
:102AAC00F3E70020002102220023ADF828000220C9
:102ABC008DF830000AA825F0A9FBB5E7039880F43F
:102ACC00004028E0854800780138012859D8804812
:102ADC00017803294DD0012953D1417800201EF0F3
:102AEC00FBFD4EE0012001211EF0F6FD11E025F06A
:102AFC0002FA0420012101F07BFE0AE000213222BF
:102B0C000170744880F82A1073480421007827F06B
:102B1C0025F884F004000FB0BDE8F08F84F080003D
:102B2C00F9E70522027091F82C2092072CD591F828
:102B3C002E204ABB052202600120487000201BF0A9
:102B4C00E5FF022024F024FCE3E764480078013818
:102B5C0001280BD80020CDE90A000AA811F0BAFF11
:102B6C0020B15D48022100781BF018FA84F00200B5
:102B7C00D1E78178022904D10121817000201EF057
:102B8C0087FD84F48050C6E705200021B3E7534845
:102B9C000078002840F08680DFF838A1DAF80C5075
:102BAC00002D79D004A80DF1280B01300BF104068F
:102BBC000390002D6DD0A87A18B10138A8720006C8
:102BCC0046D19AF83180B8F1000F11D00020A91C21
:102BDC0008228DF82800304626F0FCFA584618F0EA
:102BEC006DFC28B12A88BDF82A00314623F01CFA66
:102BFC00AF1C0DF127015A46384616F037FD8146B9
:102C0C00384609A922F089FFB8F1000F05D09DF8CC
:102C1C00380040F0020002281CD1DAF80800A0B1FC
:102C2C0003983946082226F0D5FA022000220C23FC
:102C3C008DF81000BDF82400ADF81A002648007875
:102C4C0004A90091092120F0FAF828461DF03CFF58
:102C5C00ED68AEE7384623F0BAFC9DF82700012852
:102C6C00DBD15846142126F01DFF224A09EB4900FE
:102C7C0000215B4642F8201002EB800014224160D8
:102C8C004172FF2049468DF83800042023F0C6FB22
:102C9C00C3E7DAF80C0028B90F484FF4006100784C
:102CAC001CF0E8FD84F4006035E7013A012A09D8EC
:102CBC00032202600120487001201BF027FF012035
:102CCC0024F066FB287800287FF423AF04205CE70F
:102CDC0094790020642200202B7A0020AC2500205F
:102CEC0050B80200F42600203F270020306D002051
:102CFC0074580020783300202DE9F04F89B021F072
:102D0C0081FADFF810158122DFF81485DFF814A59D
:102D1C00DFF82045DFF814E50A70DFF8FC140860D2
:102D2C00DFF8F804FF2101700020DFF80415A8F883
:102D3C0000008AF80000DFF8F0040968007891F8C8
:102D4C0008B04FF6FE718EF8000059448AB2A168A3
:102D5C00D1F80031DB899A4200F267810422DFF856
:102D6C00DC54A8F80020DFF8D02412689668330EE3
:102D7C00CEF80C60C6F301592B706FF0FF0303EA19
:102D8C001627B3B2D1F8B86047EA1327AEF804702F
:102D9C0036781EB9B9F1020F00F04781B9F1030F73
:102DAC0000F043811B0A03F0070316B1002B00F05F
:102DBC003C81DFF88CC4042B9CF800C008BFBCF12C
:102DCC00000F00F032813EB1DFF878643678862E41
:102DDC0002D1022B40F02981BB0416D4BBB203F004
:102DEC000703022B08BFBCF1000F20D0DFF85414EE
:102DFC000978862909D10020764621F057FADFF8A8
:102E0C004004B64690F800C0307800284ED0BCF193
:102E1C00000F4BD1012800F0088103283FD0022875
:102E2C0044D1BEF80400400740F0FF803EE0D1F8EA
:102E3C00D40090F88300022800F0808027460520FB
:102E4C00147BF246A946A8F8000026F099FB05462B
:102E5C00DFF8F003007886286DD1B868016C09683A
:102E6C0011B9D0F84C05804760B20021002623F040
:102E7C0002FCB9680A6C12685077086C0068867797
:102E8C00086C0068C477284626F035FEBAF80410A2
:102E9C0099F8000001F010011CF066FE4EE0BEF83F
:102EAC00040000F00700032840F0BF80BEF80400C7
:102EBC00010700F1BA80810402D4810500F1B580CC
:102ECC009EF80E20C2F38107012F00F0AE80960908
:102EDC00012E00F0AA80B9F1010F11D840F00201C7
:102EEC0001F0070103290BD117B93F2A40F29D804D
:102EFC0037B9A168D1F8AC100978002900F0958099
:102F0C004FF6FB71B9F1020F0BEB010C19D1CF4B42
:102F1C00D95D9B5D03EB01090023402AB7FA87F2C8
:102F2C0038BF012352091A40430616D4002A08BFA1
:102F3C0009F1020915E0284626F0DDFD25F046FAD8
:102F4C0075E0C14B402AD95D9B5D03EB010908D3A9
:102F5C00420648BFA9F1020903E0002A18BF4FF04E
:102F6C000209C0F300205FFA89F11FFA8CF30A1AE8
:102F7C008EF801009A4258DC60440391B346401A23
:102F8C00A168AEF806007430D1F8501280B28847B0
:102F9C00A6490028886048D07421CDE9019726F015
:102FAC0081FDA24F0020B870A548007820B938796F
:102FBC0000F020008AF8000078789AF80010DFF80A
:102FCC0078C24FF000092E4600299A493DD00028BE
:102FDC004FF000003AD1B88800F00700032807D062
:102FEC00012832D18868D0F8D40090F8820060B300
:102FFC00C8684069007818B125F038FEFE280DD05D
:10300C008C488068D0F84C02804738B98948806871
:10301C00D0F844028047002800F0F780834F01204D
:10302C00B870DFF814C22E4610E025F07BFC26F0B9
:10303C00A7FA814900240A6813681C7112680A6097
:10304C0026F059FD09B0BDE8F08F0020BC6804F1F2
:10305C00740184F830B06160A1657978BB88FA8816
:10306C000029A381029B228184F83A30337808BF6F
:10307C009946B8F8003097F80EB0019DA4F85C2082
:10308C00FF2284F84990A2735E1A797BCBF3011965
:10309C00A8F8006001F0780160F3820101EB0900EF
:1030AC002074280600F0AE80DCF8000004AF039A10
:1030BC0010FA86F000F10801384626F00FFE56FA99
:1030CC0085F0CBF38105A8F80000207C00F04008C7
:1030DC00CDB3B9F1020F06D1B8F1000F03D0B4F89B
:1030EC00440004AF06E0BDF810000237A4F8440019
:1030FC00A4F84200564EF189884203D04FF6FF7176
:10310C0088425ED1032D11D104F13200394626F0EC
:10311C006AFD464CF11CA068323024F0E0FA4549B7
:10312C0000284ED094F80EB008370EE037F8020B9A
:10313C00B1898842608606D04FF6FF713B4C8842BD
:10314C003C493ED101E03B49384CBBF1400F20D308
:10315C00B9F1020F06D16DB9B8F1000F0AD133489D
:10316C00806803E0A068017C490603D439880237E3
:10317C00A0F84210BBF1C00F06D32C4C3946A06806
:10318C00283026F030FD03E0284C3888A1680885EB
:10319C0028498968A088D1F8AC201278B2B1B9F16D
:1031AC00020F13D200F00700012802D003282FD100
:1031BC001E4C6DB9264AA368D289B3F842309342AB
:1031CC0006D01FF03EF919F02DF830E700F007009B
:1031DC00032806D0012815D1D1F8D40090F882002C
:1031EC0080B1A068D1F848128847104A50B9002025
:1031FC00D17B9070907BC1F3011100F078000844F2
:10320C009168087408F0ECFB11E7084FB87808E7F0
:10321C00064CDDE7387A0020C07900203D7A00208A
:10322C00467800203B7A00203A7A0020BC2400200B
:10323C00007A00200C010020607900204B7A0020DD
:10324C004A7A0020407A0020D8B70200D4B7020096
:10325C00887800202DE9F04F97B0DFF80C850546F3
:10326C00DFF8086598F800000328307040F04981B9
:10327C00002088F8000030700DAC204626F0BFFC12
:10328C002046002125F0B0F8DFF8E494B0603A2134
:10329C00484626F007FC4FF0FF30A9F81400C9F897
:1032AC001000C9F80C0022F0E3FD002029461DF0A7
:1032BC0067FF06F11001F06026F02FFCD6E905023D
:1032CC00DFF8B074B0FBF2F1C9B2032928BF0321B7
:1032DC00B2F5005F89F80010397040F00F81B0EB47
:1032EC00413FC0F00B81F068002800F007814FF4DB
:1032FC000050FF224FF000084FF0885BA9F8060041
:10330C00FF2089F8032089F805800590002008909B
:10331C0000200B90002009900020079000200690C0
:10332C0000200A9000200C90FF200290FF200490B7
:10333C00FF200390CCB2A04580F0E6805FFA88F6BF
:10334C00002116AA0423304625F00CFFDFF82C448C
:10335C003046002115AAA0473046012114AAA047E7
:10336C003046022113AAA04716996FF06F0050FA4D
:10337C0081F2C8B20E2A06D8012303FA02F245F2F2
:10338C0001131A4203D1A0F1FE02022A04D242F226
:10339C008352B2EB914F1ED0304614F007FADFF88F
:1033AC00CC130028087040F0CF803046002116AABC
:1033BC00042325F0D7FEDFF8C4433046002115AABC
:1033CC00A0473046012114AAA0473046022113AA77
:1033DC00A0471699C8B208EB48023D46CA4609EB0D
:1033EC008204C1F30142090AE1759DF8561004F1FB
:1033FC001609FD28627689F80000217601D9102182
:10340C0036E0BDF854104FF6FF72914230D10EA841
:10341C0020F058FC304600214FF088524FF40053F6
:10342C004FF4005725F09EFE6FF0030313FA87F755
:10343C00B8B250F80B104A1C01D10328F6D801225F
:10344C000126D3B2042B06D8CBB2FF2B18BF1646DD
:10345C000132090AF5E740F80B10C9480E990068CB
:10346C004268C848904757FA86F081B299F8000034
:10347C00A1839DF852107028A176BDF85010E183FD
:10348C009DF84E10E176BDF84C10218411D07828AF
:10349C00D14614D07C282F4616D07E281AD0FE2870
:1034AC001FD0FF2823D10898CDF80C80013008904C
:1034BC0020E00A98D1462F4601300A901AE006986F
:1034CC002F460130069015E00798CDF8108001309A
:1034DC0007900FE00998013009901FFA88F00290CC
:1034EC0008E00B98CDF8148001300B9002E00C989A
:1034FC0001300C90397808F101081BE7012088F89D
:10350C00000017B0BDE8F08F0C98984E00060BD158
:10351C000B98C0B2012807D80A98C0B2012803D86A
:10352C000998C0B2012811D99348042200240270D2
:10353C00CAB2E0B2904210D214F038F931780134AA
:10354C00084339783070F3E7884E1BE0089BD8B2FB
:10355C00A04219D1884800220270002089F803008B
:10356C0089F80100481E7E2189F80200B9F81C0078
:10357C00A9F80600002021F0E7F899F80200FE21D6
:10358C0021F0E2F83078BCE70A98000624D00B98BA
:10359C00059A000603D1039A180600F08480764839
:1035AC0002210127D5B289F80220017017FA82F0A6
:1035BC00B0FBF4F101FB140089F80100284614F06B
:1035CC00F5F830702846FE2121F0BEF889F8057018
:1035DC000020FEF7F5FDD5E70B98059A000621D0E3
:1035EC006548012189F80220017011FA82F0049AD1
:1035FC00B0FBF4F101FB140091B2FF2989F8010032
:10360C001FD10299FF2919BF89F8031001EB410062
:10361C0089F8030000EB400009EB8000808BA9F8CF
:10362C000600AFE7DDE90620104300063FF47CAF4F
:10363C0022F0F2FBA04280F085804F4803210170FC
:10364C003EE0480089F8032010FA82F009EB800074
:10365C00818B1829A9F8061094D30739D0B20EAA79
:10366C0089B216F019FF9DF843004007B0D5B9F8A0
:10367C000610BDF84620002399F80300009303239D
:10368C00891A0EAA073989B206F0B0FF00287FF418
:10369C0079AFBDF8441000293FF474AF9DF8480091
:1036AC001CF0FEFF6EE722F0B7FB0621A042324869
:1036BC0038BF03210329017002D0062952D061E7DB
:1036CC0022F0AAFB054689F80C0000EB400009EB40
:1036DC008000408BA9F80D000CF06EFE3978284460
:1036EC00B0FBF1F202FB110089F802000130C2B20A
:1036FC00B2FBF1F202FB110089F801007C2021F0F1
:10370C003DF8FF2812D17E2021F038F8FF280DD18A
:10371C00FF2021F033F8FF2808D1782021F02EF873
:10372C00014699F80100FF2918BF0846C1B289F873
:10373C000300490051FA80F009EB8000808BA9F856
:10374C0006001AE70898000609D099F80200FE2135
:10375C003C46374620F0F8FF2478039A40E70648A9
:10376C0006210170FEE700BF1D2700205823002012
:10377C0040720020237A00202F7A00208B930200C5
:10378C00D8010010004003402DE9F84305460C46D3
:10379C00480413D4A00024D4A0075CD460057ED4C4
:1037AC00200500F10681200700F13B81600040F10B
:1037BC00F68019F057FF24F08044F0E025F0E0FE8D
:1037CC00DFF81C140F6D3FB1D7E90A1202F0E0428A
:1037DC0001F00A01891849D026F08DF924F48044AF
:1037EC00DDE0BB48DFF8FC73016841F0800101604B
:1037FC00B878012804D1042021F028F80020B870F2
:10380C0025F0BEFE0646042025F062FFDFF8D81333
:10381C000A68904219D12A7EBAB1FA68AAB1DFF8C7
:10382C00C003806C002800F09780C16840F603024A
:10383C000988914206D0C06840F60401008888428D
:10384C0040F08A8005F1140088E040F6C41208604C
:10385C00C5E9042284E009F0ABFBDFF88403006CBB
:10386C00002840F09D8024F0020498E0D7E90A6516
:10387C00D7E90A12AA43B143C7E90A1226F03BF969
:10388C00B8680028AAD056EA0500A7D0D7F808C017
:10389C003869B7F9301032462B46E0479EE725F0E1
:1038AC006FFE054623F0AEFC002800F0B780CC4834
:1038BC00876B002F00F0B280DFF828830420CB49FF
:1038CC00002288F81800C64825F0C6F826F040F902
:1038DC00C74826F00AF9C7480068006B8047C8F84B
:1038EC0010000125042088F8025021F0E7FD38690A
:1038FC0090F82810C8F80400490703D5436A04213E
:10390C000022984701201BF0A3FBD8F80400457651
:10391C0013F02AF8D8F8040081680B461A465B6845
:10392C004BB11E88A6F60306072EF7D805FA06F645
:10393C0016F0830FF2D0537B03F0F0030133537373
:10394C000023FD6853602D88A5F60305012D00F2B8
:10395C008A80C8F810309FE005F110001EF022FAA2
:10396C00304626F0C8F821F0C1FD78B12E6A284601
:10397C006FF4807100224FF00073B0479848806B51
:10398C0010B119F06FFE01E044F00204EE69284614
:10399C00002100224FF08063B04724F0005434B172
:1039AC00974821462830BDE8F84326F087B9BDE892
:1039BC00F8838C4EB078012804D1042020F046FF07
:1039CC000020B07021F092FD38B170686FF48071F6
:1039DC0000224FF00073056AA847306950B1854842
:1039EC000068006B804732697168801A000BC860F0
:1039FC00002030617A4D81490022284625F02CF8B0
:103A0C0002203076286C20B17D480221283026F027
:103A1C0055F919F027FE24F40064C0E726F098F855
:103A2C0041E025F0ADFD054623F0ECFBA0B1DFF83D
:103A3C00B48198F8000000070ED498F90000002813
:103A4C000AD4684613F0CCF908B1009820B1DFF81D
:103A5C00B49199F8610048B326F07AF819F002FE97
:103A6C0024F008049BE7034633F8385FA5B190F8BF
:103A7C00445090F8456005F0F00580F8445006F08D
:103A8C00F005013580F8455000255360C563458726
:103A9C00507B00F0F000507357480022C261016067
:103AAC00012023F0FFFF24F4806478E7002601272F
:103ABC00602E0FD009EB0600817A31B18772407A03
:103ACC0007FA00F0C0B220F0DBFE2036F0E700BFB2
:103ADC00CC210840032088F81800454826F005F84A
:103AEC0026F036F8444F3E4D00227869002078616C
:103AFC00F968F8602846444924F0AEFF3D48006858
:103B0C00006B8047D8F80C10D8F82020411A02EB33
:103B1C001130B0EB113F38BF4FF0FF3098F8241044
:103B2C00C8F8200021B1D8F80810B0EBC12F20D96B
:103B3C0023F0C8FFB8B140F60900414621F83C0F0C
:103B4C00002048804A7B02F0F00201324A730A7B63
:103B5C0002F0F0020A734860F8613960B8F83E0070
:103B6C0010F4406FFAD00020C8F82000012088F82B
:103B7C0024001DF0BDFA254800210160022000211F
:103B8C0023F090FF022020F061FE102012F046FA84
:103B9C0098F8010020B9D8F80400503026F08AF8C3
:103BAC001B48807810B90D2012F038FA98F82500CF
:103BBC0028B1002088F82500052020F047FE0020C1
:103BCC0088F818001348C8F81C000220B5F85610E5
:103BDC00B5F85420914208BF072018F093FE3DE73A
:103BEC0098200020341E002064260020ED71020075
:103BFC00C07000208C01001000100440F50C010076
:103C0C00D81F0020A86D0020D5D60100000004604C
:103C1C002CB70200D50501002DE9F04F8DB084784A
:103C2C000226142C00F21F820546DFE814F029004E
:103C3C00150015004A0085001C021C021C021C0207
:103C4C001C021C021C021C021C021C021C028E0008
:103C5C009C00AF00BE00CC0001206A78022C8DF8CD
:103C6C003100089240F0C080E878291D03288DF8B7
:103C7C002C0040F0E18009A8082225F0ABFAE0E026
:103C8C0010208DF82400102026F002F898B104467C
:103C9C00DFF8E00321466060E81C10F0ADFB8DF806
:103CAC00240028B9204623F04FFB8DF8240010B1D6
:103CBC00204625F0EBFF002609AB642000210122F1
:103CCC00C2E10020CDF82A00ADF82E00CDF8260078
:103CDC0002208DF82C00E81C25F0D6FFADF824004E
:103CEC006979A8798DF82D1025F004FB8346E81D21
:103CFC0025F0CAFF95F80C908046687AAC7A95F856
:103D0C000BA04FEA49078DF83100384625F0C0FF6B
:103D1C00002800F01081CDE9074806464FF0000856
:103D2C0005EB0800474570D00D3025F0ADFF26F8A7
:103D3C00080008F10208F3E7E87820F08BFE8DF814
:103D4C00240009AB6420042189E1E978032900F2FD
:103D5C005281281DDFE811F00400510155015D016D
:103D6C0018F072FE76E1E81C25F08EFFC04C6668F8
:103D7C00002E00F0E4806A79002A00F0E4803368B9
:103D8C00A91D184425F026FA0020D9E0B84EEC1CE9
:103D9C0004212046376822F0DBFB002F4AD0B9689B
:103DAC00814200F0A0803F68F7E7A888ADF82400B6
:103DBC00E87809A924F054FA8DF832000DF1320399
:103DCC00642013214BE10026E878ADF8246009A9A2
:103DDC0023F052FCBDF824000DF132031421022211
:103DEC00ADF8320064202FE1E81C02218DF82C1074
:103DFC0025F04AFFADF82400002005F10608ADF8C7
:103E0C002E0068798DF82D0026E0BBF1000F00F034
:103E1C00B580437B0DF131010E30CDE90496CDE92F
:103E2C00000107985946CDE9020A09A8089A1DF025
:103E3C00DDFDA4E0012000E1084625F025FFADF8EA
:103E4C002400287B8DF82D0005F10D0025F01CFFBA
:103E5C00ADF82E0005F10F0898F8000025F04AFA8D
:103E6C00054608F1010025F00FFF98F8036098F85B
:103E7C0004A098F805B08146022C8DF8326009D167
:103E8C0008F1060025F000FF074608F1080007F1CD
:103E9C000A0104E098F8067008F1070039464DB1A4
:103EAC000A3189B2FB2907D3DFF8C481D8F80400A2
:103EBC0000286ED0022009E00DF132018DE8030CD0
:103ECC0009A84A463B46294603F012FD089E8DF888
:103EDC00310006F0E000202840F0C4800DF13103E1
:103EEC0064202146BBE0EC1D204625F0CDFE6D7A0A
:103EFC00002D00F0978005F102098246484625F016
:103F0C00C7FE002800F098800026457080462A469F
:103F1C000670786800EB0A0108F1020025F05AF9E6
:103F2C005FFA89F26420122143461EF04BFB404697
:103F3C0025F0ACFE97E010208DF8320024E0102024
:103F4C008DF8240016E0D6F800C0F38AB28A3169E5
:103F5C00757EB77E06F11800CDE900C0301DCDE9A5
:103F6C00025703F0C5FC8DF82400606825F08EFE26
:103F7C000020606009AB6420112170E002208DF8F4
:103F8C003200304625F082FE0DF13203642003210D
:103F9C0065E007F11C0025F07BFE0028C8F8040042
:103FAC0055D000F11C010C22016000208DF831006D
:103FBC00D8F8040009A9043025F00CF9D8F804004D
:103FCC000F214FF47A7205612A4DC17680F81AB030
:103FDC0080F819A00676C782A0F8149008212878DA
:103FEC0025F0BCFD089E00283FF473AF287808210B
:103FFC0019F0D4FF6DE702202CE0007819F0FEFFD9
:10400C0028E0007825F076F918B324F075FE00202E
:10401C0020E025F039FEA97925F08AFBB0FA80F072
:10402C00400917E03068B84201D138683060384632
:10403C0025F02CFE002000E01020002620706420CB
:10404C0012210222234666701EF0BCFA0BE01020EF
:10405C003CE701208DF8240009AB642010210122DB
:10406C001EF0B0FA002630460DB0BDE8F08F00BF50
:10407C00F0250020227A00202DE9F04F8FB00C465D
:10408C0008040CD4A00426D4DFF88853287802281E
:10409C002DD1E10740F00381A10641D558E0DFF8AE
:1040AC006C0300781AF04CFC90B10178DFF86023B7
:1040BC0005460020602808D0135C08308B42F9D1EB
:1040CC00104450F8041C28468847284623F0E6FE86
:1040DC0084F4004595E11DF08FFB28B10546FCF7F3
:1040EC00C1FD284623F0DAFE84F4005589E1A106CF
:1040FC002ED4012814D8E10600F11781610600F1D5
:10410C002F81210600F13D81E10500F13F81210560
:10411C0000F14181E10400F15481610400F15B8103
:10412C00A10700F1E280A10500F1FA80210700F15E
:10413C001181610500F11981E0034FF0000540F198
:10414C0060811BF085FEB648C57084F4803558E15B
:10415C00AE4F202138781FF053F8DFF8C4824FF0AF
:10416C000109D8F80810084317D025F063FD05465F
:10417C0025F05EFD68434FF47A71B0FBF1F0D8F88E
:10418C000810401A4FEA500938BF6FF0004900255B
:10419C00002964D0B9F1000F61D000200421002265
:1041AC0022F054FD06464FF0060A4FF0FF0B4FF677
:1041BC00FF7802AD002E4ED0304604210022374647
:1041CC0022F044FD06463889B0EB090038BF0020C8
:1041DC0038810004EED1B87BD0B301280AD178899C
:1041EC00400707D4386887F80DA0B721407B1DF035
:1041FC00BBFADFE739682A468DF806B0ADF80480C3
:10420C00086AC97F0CF0E4FF01281BD1B87BB97A8E
:10421C008DF838000907788A40F08002ADF8362016
:10422C0006D540F4C070ADF83600387B8DF83A00F6
:10423C00786910B1007BADF81800284601A900225E
:10424C0002F018FC387B87F80DA016F025F8B1E7C2
:10425C0001207873AEE7DFF8C8816C4F4D4622F031
:10426C0042FE00200121002222F0F0FC18B1387827
:10427C00202119F093FE002004210022002622F0B8
:10428C00E5FC002847D006890421002222F0DEFC40
:10429C00A0B1B1B20689B14238BF0E46F4E764480A
:1042AC0090F82C100F2906D190F82600022802D382
:1042BC00002021F0D3F884F00105A2E0A8B2B1B23D
:1042CC00814223D9D6FA55F0202180B242003878A9
:1042DC0025F044FC25F0AEFC054625F0A9FC68430E
:1042EC004FF47A71B0FBF1F615E05248007808B340
:1042FC0002AD284625F09DFB25F066F94E490B785A
:10430C004E490A7829461AF01FFE20E03878202101
:10431C0019F044FE0026C8F8086084F0200570E00F
:10432C0015F0F6FB84F400756BE008F04FFA84F09E
:10433C00100566E03E48418B012025F09FFC287853
:10434C00022804D13148012100781BF093FA84F043
:10435C00020556E03248012184F00805817050E0D6
:10436C000CF0B6F984F040054BE0022808BF15F0BC
:10437C0093FE2F480121808C25F072FC84F480651B
:10438C003FE024F07FF984F080053AE022F0A6FAB1
:10439C0084F4807535E01BF0C1FA204800780128C0
:1043AC000CD11D48007848B14FF47A7100FB01F232
:1043BC0016484FF40061007825F0CDFB84F40065BD
:1043CC001FE01748017819B1002101701BF0A6FA03
:1043DC0084F4805515E01448006880B111490978BF
:1043EC0001290CD180471148006800B1804707486B
:1043FC004FF480414FF47A72007825F0ACFB84F4D2
:10440C00804528460FB0BDE8F08F00BF247A00200D
:10441C0054B00200AC250020512700205227002068
:10442C00702500204F2700203C230020482300202B
:10443C00306D00202C270020552700205727002006
:10444C002DE9FE4F8846080426D45FEAC87004BFE5
:10445C000020BDE8FE8FE548056825F0EBFB04461F
:10446C0025F0E6FB60434FF47A714FF6FF72B0FB18
:10447C00F1F14FF6FF70002D00F01A812B886C883B
:10448C00CB1A9BB29C4240F21C81E31A94B2A34219
:10449C00B8BF1A46ED68EEE7DFF840A3CDF804800C
:1044AC009AF800001AF04CFA002800F0FC8006463E
:1044BC000078012840F0EC80DAF8041096F833907C
:1044CC00D6F814B096F8138021B1484688470028D6
:1044DC0040F0DE80718896F83100022222F04AF911
:1044EC000546002842D0287A297CA0F10108FF2932
:1044FC0000F0BB80707F4F46C00718BF0027E97CD7
:10450C00287D0144B94204D8E974FF2101FA00F076
:10451C006874A969A87C96F83020896A10FB07108A
:10452C00F16A24F057FE287D697CB7FBF0F202FBA0
:10453C00107001228240D2B20A436A74C8457CD101
:10454C0096F83010AB7C13FB0713A9698B844FF4DE
:10455C00FF7303FA00F0C0B21043FF2868746CD1EB
:10456C00287C1AF049FDFF2028747FE0707FC0077B
:10457C0000F08E80B07F24F0BDFE002800F0888013
:10458C0004461C2025F084FB002800F081801C21AF
:10459C00054625F087FAB07F02A923F06DF89DF847
:1045AC00090002212875284623F0BCF8708896F87B
:1045BC00312096F8301096F83330A880287DEA71B7
:1045CC00FF2202FA00F0687460680078A9742874FD
:1045DC00302013FB010080B222F072FD0028A8618C
:1045EC005DD004461A20B11C2060708CA080A01DE8
:1045FC0023F044FEF27F04F13000B17F96F82830AE
:10460C00C4F81CB084F81980A062307CE273744A40
:10461C00217563750121A075928C2282F28EA28580
:10462C00F28C6282B6F81100A4F817009AF8000018
:10463C0085F8089019F0B2FC55E725F0FBFA044612
:10464C0025F0F6FA60434FF47A71B0FBF1F065494E
:10465C0028806348097800794843642148436249BB
:10466C00097800FB0100688000E04F46E87C297D5A
:10467C006A7C01440139B94218BFFF2A0CD186F873
:10468C003300708806F11C0186F8342016F0A1FE68
:10469C00304623F003FC03E7C845F9D1EFE7284681
:1046AC0023F050F8F4E7019880F40040BDE8FE8F49
:1046BC0092B282424BD049480121007825F04EFA43
:1046CC0045E0A879022806D1287CFF2837D0A869B4
:1046DC0023F0E4FB33E025F0ADFA044625F0A8FA0C
:1046EC0060434FF47A71B0FBF1F03F49288095F8A4
:1046FC003800097888421BD295F83620FF2A06D15B
:10470C0095F83720013085F8380085F8362095F873
:10471C00351095F8394082F0FF0300200126C7B20E
:10472C00A7421DD206FA07F71F4214D10130F6E753
:10473C00EA8BA87E95F82A10E9231EF0ABFE2846DA
:10474C0023F000F825480121007819F027FC88F0A7
:10475C000100BDE8FE8FFBB201441A4385F83620F8
:10476C00AB8F95F83440C8B204FB10339EB2A6420E
:10477C0003D2FF2285F8362002E0FF2A08D1234617
:10478C00184A174E1278367972436426724302E047
:10479C0095F83A2023466A802A8D0E0606D022F020
:1047AC00200244432A852A6C224404E042F0200172
:1047BC002A6C2985297A85F82E10E9796A6285F8A0
:1047CC002D10D9B269840549496811B18847002870
:1047DC00B8D105F1100004F011FBB3E7D02500208F
:1047EC00306D0020452700204B270020F45200207C
:1047FC007FB50138072800F24C810C46DFE810F039
:10480C0008002C0054006E0089004901A600C90064
:10481C00CB4800780138012800F23B81002C00F0D5
:10482C0047810020032100241FF050F8C64DC74ECD
:10483C000420042132222870307825F08FF90820CA
:10484C00002107F011F830786C704FF4805104B0EF
:10485C00BDE870401BF00EB80020002524F052FD7E
:10486C00BB480121017004208DF80D0074B1B548CE
:10487C00B34C45852078012803D1072023F062F939
:10488C002078022802D1062023F05CF9AE480421DE
:10489C0032220570AD48007825F060F9A94890F8EF
:1048AC002B1001F0FE01F2E0A54800780138012838
:1048BC0000F2EF80A54804213222007825F04EF951
:1048CC00002C00F00F819F4C9F4801210170206942
:1048DC00002800F0EC801FF0EDFBF8E70120002C25
:1048EC008DF80D007BD0974800219B4A80F82A1048
:1048FC00984824F0C9FE924C2078012803D1072057
:10490C0023F020F92078022870D1062023F01AF920
:10491C006CE002208DF80D008A48002C73D0002129
:10492C008D4A80F82A108B4824F0AEFE002003211B
:10493C001EF0CCFF824C2078012803D1072023F0F5
:10494C0001F92078002877D1092073E07C4D0020F4
:10495C008DF80D00002C28787BD018B9092023F095
:10496C00F1F82878022806D10820002106F07CFFF7
:10497C00042023F0E7F810F02BFF73480021C82225
:10498C00017070480D2180F82A10704825F06DF8E0
:10499C0078E005208DF80D0069480078022878D160
:1049AC00002C00F0C38068480022C178C2700170EE
:1049BC0042F20800002106F057FF62480D2190F8E2
:1049CC002B2080F82A10C17802F0DF02002980F831
:1049DC002B200CBF04200D2023F0B4F859E05848CC
:1049EC00007818B95748022180F82A10564800213F
:1049FC0032220170554825F038F8524890F82B10A7
:104A0C0001F0FD0143E0082180F82A104C49097897
:104A1C00012911D890F82E0070B900200DF10A016F
:104A2C008DF80A0052201DF0CDFA24F0FBF91EF08F
:104A3C0051FB002023F086F84348002132220170FC
:104A4C00424825F012F83F4890F82B1001F0FB017A
:104A5C001DE03C4C022812D194F82E0078B194F849
:104A6C002B00002140F0200084F82B0005208DF84D
:104A7C000D00082006F0F8FE0A2023F063F802204F
:104A8C0084F82A002F4890F82B1001F0EF0180F8E1
:104A9C002B102C480022032390F82A008DF80C00D0
:104AAC002A48007803A900910A211EF0C8F97FBD9D
:104ABC00244C0720254D4FF4805184F82A00012006
:104ACC008DF80D0028781AF0D5FE0020002622F073
:104ADC0031F82878022141F2883284F82B6025F0D5
:104AEC003DF8D6E7174C022000218DF80B1084F806
:104AFC002A001548017094F82B000DF10B0100F001
:104B0C00FD0084F82B0001208DF80D0052201DF0C3
:104B1C0059FA24F087F91EF0DDFA002023F012F880
:104B2C0020690028B5D01FF0C5FAF9E70548022125
:104B3C0080F82A1090F82B1041F02001A7E700BF55
:104B4C00AC25002064220020947900202B7A0020D0
:104B5C0042270020306D00201427002092B0DFF88F
:104B6C00EC92D9F8000010B1002180F845104830C3
:104B7C0020F084FE24F004FD8046072011F040F85C
:104B8C0017F0F6FE10B1B24824F09EFE1AF0B8FAF7
:104B9C0001AD284624F08EFB0427002029468DF811
:104BAC00047024F08FFBAB4C206023F0FBFF0AADAC
:104BBC00284624F02FFA002029468DF8287024F07E
:104BCC0031FAA54E306023F0F7FF06AD284624F0ED
:104BDC0031FA002029468DF8187024F033FA316828
:104BEC009E4D286019B99E4824F06EFE286810B9B5
:104BFC009C4824F069FE206810B99B4824F064FEA0
:104C0C001CF0DAFCD9F800004FF0FF3438B1CDE9D4
:104C1C00104410A9082223F035FA01281BD1CDE944
:104C2C001044082025F034F8002846D0054600260C
:104C3C00052E04D824F0B2FEA8530236F8E74FF63E
:104C4C00300029460822E880884824F0C3FA284618
:104C5C0025F01CF809E0D9F80010CDE91044002922
:104C6C00DFD08248082224F0B5FA10AA01200821CE
:104C7C0024F0E8FD092800D0D8B921F065FD8007A3
:104C8C0012D4CDE91044CDE90E440EAB0120002125
:104C9C00082224F035F960B90EA810A9082223F0D7
:104CAC00F1F9002800F0CB80704A0120082124F093
:104CBC00CFFD6E49E2201DF085F912F05FFB282034
:104CCC0024F0E6FF6A4E0028306055D0694F6A4CDC
:104CDC0007F10C0524F0C5FE24F00CFA30680560D1
:104CEC0007F1100524F0BDFE64498968D1F84C1316
:104CFC0088473068456007F1140524F0B2FE1CF0BB
:104D0C0085F83068856007F1180524F0AAFE19F0C3
:104D1C0003FD3068C56007F11C0524F0A2FE1FF0EE
:104D2C000FFC3068056107F1200524F09AFE1EF097
:104D3C00A3FA3068456107F1240524F092FE1DF0BA
:104D4C00B9F83068856107F1280524F08AFE23F054
:104D5C001DFD3068C56107F12C0524F082FE20F0A2
:104D6C0015FD3068056207F1300524F07AFE3870C5
:104D7C0024F026F83068456218F004FE404841499A
:104D8C004FF00009CDF8409001603F48032111908D
:104D9C0010A820F04BFB24F085FB404624F0ABFE22
:104DAC0017F008FA24F022FE01201DF0EBFD19F09B
:104DBC007FFE37480078022808D134480078012853
:104DCC0004D14FF40040012106F04EFD294F4FF461
:104DDC008041387824F070FC2E484FF0FF31006889
:104DEC000DF028FCDFF8B08078684FF0FF310DF043
:104DFC0021FC3068002550F82510096821B9691C80
:104E0C00092D0D46F7D3EFE724F0C3FD316851F8B7
:104E1C0025100C68C1F8009024F0A9FE58F8252044
:104E2C00002021469047044624F0B3FD316851F828
:104E3C0025100A6822430A6024F099FED4E70B4837
:104E4C000EA9082224F0C6F933E700BFEC26002097
:104E5C002CB402007C790020807900208479002019
:104E6C00F8B502000BB6020042B602003E790020F3
:104E7C00F8790020F0200020F14702000C010020FE
:104E8C005423002039C80100008D15006A2700202A
:104E9C00AC250020D47900203CB302002DE9F04F62
:104EAC0089B08A4608040DD45FEACA7040F01F81AD
:104EBC005FEA8A7000F12D815FEA0A7000F135819A
:104ECC00002044E1A34F387819F03AFDDFF88C92BA
:104EDC00A64DA14C06464FF0000B48F21508002ECB
:104EEC0000F00281307831283AD032284BD0D328C8
:104EFC0040F0B480F089404574D0382840F0AE8042
:104F0C00CDF820B0CDE906BB304606A920F096FBC3
:104F1C009DF81C10052969D8307B002840F09E8034
:104F2C009DF81D00002800F09980052800F296805D
:104F3C00069823F0B2FD002840F09080707C8849E0
:104F4C00AC467870708808809DF81D0021460138A9
:104F5C008DF81D0006A890E82C002CC165467DE05C
:104F6C00B87803287AD899F82E10284623F095FDA6
:104F7C00002873D1FF207C49607170880880B0884C
:104F8C00784908806AE06079FF2814D0002016F078
:104F9C006DF90246B9F8701078783346CDF800B048
:104FAC0012F034FD6079002858D03878082132226C
:104FBC0024F0D4FD52E099F81810706820FA01F230
:104FCC00D2071ABF3144097A002100221B2A43D090
:104FDC0020FA02F3DB0703D0B3181B7A99421ED8D0
:104FEC000132F3E7304621F005FD37E0FF293DD0D3
:104FFC00FE2956D199F872109DF81E00884202D8ED
:10500C0060BBFF292AD11CF0BDFD069900201B288E
:10501C0059D021FA00F2D20757D10130F7E7B9F88D
:10502C006E004F49334608804E4802884E4801882E
:10503C0010200090002012F0E9FC0120F870B878E4
:10504C0040B93C2002214EF66022B880387824F01A
:10505C0085FDB8780130B87084F805B0304622F080
:10506C001DFF387819F06CFC064638E799F8721079
:10507C009DF81E00884203D80028EFD1FF29EDD1FE
:10508C001CF080FD069838B1D9F82810814203D065
:10509C00C9F8280022F066FDBDF8200023F0A6FB1D
:1050AC00DCE7307B0028D9D170882D498022002381
:1050BC000880707CCDE900BBCDE902BBCDE904BB17
:1050CC0011F0B0FACAE71B2000E0C0B299F8181032
:1050DC008142C3D02649087099F80700642100FB6F
:1050EC0001F23878012163E78AF400402FE020496F
:1050FC001A4C08782076E1201CF064FF22F032FD77
:10510C000020A4F87000012016F0B0F88AF001001D
:10511C001DE010488188B1B101394EF660228180C2
:10512C000078022124F01AFD0FE00B4C607938B1A5
:10513C002179206823F0B1FC10B9607901386071D5
:10514C008AF0080003E0002181708AF0020009B0A7
:10515C00BDE8F08F54240020E0780020306D002052
:10516C001A790020FE7500207A72002000F8FF07E3
:10517C00277A00202DE9F04F85B08846080418D412
:10518C00AA480078012802D85FEAC87156D15FEAB4
:10519C0088714DD4022807D1A5480078012803D185
:1051AC005FEA487000F18A805FEA087059D40020E9
:1051BC002DE1DFF860A29AF8000019F0C1FB00287D
:1051CC0000F023810546807FD0B9688C132817D155
:1051DC00DFF844926E880021D9F81C000F1D0029BD
:1051EC0008BF09F11C0758B101884468B14204D1C9
:1051FC003C6024F04BFD2046F5E701462046EDE7E8
:10520C00A87A05F1020B022840F0E580DFF808923D
:10521C0095F83170BBF8006009F11C000068A0B172
:10522C000188B14202D18178B94243D00430F5E70C
:10523C0079480121017088F00200E8E07648406965
:10524C0000B1804788F00100E1E0D9F81C0000288B
:10525C0058D0012204464068114601320028F9D189
:10526C0052E07048DFF8B091807BD9F81C600007E1
:10527C0060D424F0DFFC044624F0DAFC6A4A604374
:10528C004FF47A71B0FBF1F0D9F818101288411A6A
:10529C0091427AD3B1FBF2FB0BFB02F2511A084498
:1052AC005E49C9F818001FFA8BF00978884288BF4C
:1052BC008B4641E059490978C170A3E05E495D48CD
:1052CC0000224FF6FE7300240978023079B130F8D1
:1052DC00025C9D4208D04588013D45802D0406BFE7
:1052EC00027020F8023C012401390630EEE734B19B
:1052FC00484804214FF4FA72007824F02FFC88F00F
:10530C00040084E000240021454889B200888142D1
:10531C0061D2082024F0BCFC00285CD0002106805F
:10532C00877041603D490978C170D9F81C1079B378
:10533C0060603FE04FF0010B00205FFA8BF44FF000
:10534C00000A071D002808BF09F11C0796B1F07868
:10535C00C0FA5BF1A042F17006D8756830463D602A
:10536C0024F094FC2E46F1E7716830460AF1010AEC
:10537C000E46E6E75FEA0A4007D100200821C9F88B
:10538C001800244800781AF075FA88F008003EE0FE
:10539C00C9F81C002348807B00070BD424F04AFC7E
:1053AC00044624F045FC60434FF47A71B0FBF1F0F5
:1053BC00C9F818001B48807B00070CD59AF8000030
:1053CC0008211DF01DFF30B91748082102889AF8F2
:1053DC00000024F0C0FB2878022810D0012811D13D
:1053EC00297EAA89EB7C05F11C006C696E7E8DE828
:1053FC005A0005F11003594605F08EFA02E02846D2
:10540C0015F0B0FB284622F049FD88F4004005B0A9
:10541C00BDE8F08F217A0020E42300204A270020E9
:10542C000E270020306D002012270020AC25002014
:10543C006A2700203C5F0020262700202DE9FE4F24
:10544C00074608680024B0B1D7E9018A0E4624F05B
:10545C0097F88146D8F8E800082888BF0124B0687E
:10546C00204202D17068204208D003203074484694
:10547C0024F041FB00242046BDE8FE8FD8F8C01074
:10548C0069B198F8F8100029EFD006213174D8F8DA
:10549C00C410C8F8C4604E6198F8FC100DE00021EF
:1054AC000522C8E93066C8E93411C8E9361198F804
:1054BC00FC10002908BF01223274002201297261FC
:1054CC0009D102204FF4E02188F8FC0098F8FB0089
:1054DC001FF0BCFE706889490138884205D8042049
:1054EC001FF0ECFF06201FF0E9FF02201FF0E6FF83
:1054FC0098F8F80040B9DAF83C003168814203D2E0
:10550C0098F8FC0000286CD0D8E9361009B118B90D
:10551C0000E028B324F0ADFADAF80000416941F05C
:10552C0001014161484624F0E6FA98F8F80008B108
:10553C000124A0E708F16C05D8F8EC10284624F0FB
:10554C0041FA0028F4D0D8F8C00003210174384681
:10555C0012F046FF28460021002424F033FA8AE793
:10556C009AF8040024F072FB654CDAF81010022251
:10557C00206991FAA1F1B1FA81F14368D8F8CC0015
:10558C004068006898472069DAF8141002224368D2
:10559C00D8F8CC0091FAA1F1B1FA81F14068006819
:1055AC0098479AF8040022F00DF99AF8040024F0B8
:1055BC004FFB24F05EFA0020C8F8E000D8F8C000D9
:1055CC000068B0F5806F01D924F053FA98F8FE000A
:1055DC000028A1D1DAF80000416841F002014160D5
:1055EC009AE798F8F90020B1D8F8EC0001307FF474
:1055FC008BAF484624F07FFAB2683AB1D8F8E8008D
:10560C000221092838BF0121009103E008F1F402BE
:10561C0000200090746834B1D8F8E80002270928FB
:10562C0038BF012702E008F1F6040027DAF8000081
:10563C00334D416841F002014160D6F800B0D946C3
:10564C00BBF1000F40D0D8F8E800019209284FF0C8
:10565C00010011D22A68B9F1000F1FD0C0071DD06C
:10566C002178DAF800009268904700281EBF3C446D
:10567C00A9F101090120EDE72A68B9F1000F16D054
:10568C00C00714D02188DAF80000926890470028EF
:10569C001EBF3C44A9F101090120EDE7DAF8000036
:1056AC00D26802A99047DDE90120107007E0DAF812
:1056BC000000D26802A99047DDE901201080009813
:1056CC00ABF1010B0244BBE7D8F8F000DAF800109C
:1056DC00CA680240102802D1002AF9D101E0002A40
:1056EC00F6D0706821F008FFD8F8C0100020C8F878
:1056FC00C400C8F8C00008741AE700BFFEFFFF0F13
:10570C00C40100102DE9F04F87B0851C8346284654
:10571C0024F0E8F901AC06461821204624F0C2F921
:10572C009BF801A004F10B002946009524F05BFACC
:10573C006FF001009BF80A1002240122ADF818004A
:10574C0000208DF81A408DF80C0001F00800C1F310
:10575C00C007890782EAD00507D40028B946A846B5
:10576C0008BF01240027002507E004244FF000099E
:10577C004FF00008002808BF03248548007850EA41
:10578C000A000BD0834890F82600082809D123F092
:10579C0069FC00285AD0BAF1010F57D14FF0C30958
:1057AC0001E04FF0C2090025BAF1000F10D07F487C
:1057BC00007890B9BAF1010F0FD1002E63D0002000
:1057CC00214601228DF81A0001A814F065FA0AE0AE
:1057DC0001A81BF007F986B91CE001A82146524626
:1057EC0014F05AFAB6B17179BAF1020F41F04002D5
:1057FC00727104BF41F0600171719BF80A10490687
:10580C0003D5717941F080017171B17900240131B6
:10581C00B17100E00124B0FA80F149090D423AD18E
:10582C0007D1002D18BF814641F20100494621F0F5
:10583C0078FF14B9009819F0D7FABDF818004FF694
:10584C00FE71884218BF24F02DFA24E0DEB33279C1
:10585C00A24218BFBAF1020F20D1D01EC0B201284B
:10586C0002D857EA050006D1501EC0B2012822D832
:10587C0059EA08011FD0308821F0C0F920BB3088CC
:10588C00ADF8180022E00220214601228DF81A0002
:10589C0001A814F001FA07B0BDE8F08F4FF0000931
:1058AC00009953468DF81A903088ADF8180024F002
:1058BC00D9F9012578E7012802D8308824F0F2F9CB
:1058CC00009819F091FA0026BDF818004FF6FE71F9
:1058DC0088421ED120F076FF10B1BDF8180011E0FF
:1058EC00BAF1000F04D02C4D288821F087F930B183
:1058FC009BF80A0000F002001FF010FE00E0288860
:10590C00ADF818004FF6FE71884202D14FF0C7096E
:10591C0049E79BF80A200099534624F0A3F910B1EB
:10592C004FF001093FE71D48016811B1BDF818009F
:10593C008847BDF818000099224606F0C7F90646BC
:10594C00174818490A6800784FF4803124F006F99A
:10595C0001211548C17096B1AAF10100C0B201280D
:10596C0007D81020BAF1020F08BF0820717908433C
:10597C0070714FF0000901258DF81A9014E74FF65D
:10598C00FE7000254FF001090026ADF818000BE75A
:10599C008C240020306D0020042700205023002090
:1059AC00247A00203CB8020070250020AC25002091
:1059BC002DE9F04F8DB0044600209A4616460F464E
:1059CC00CDE90B00CDE909008A488568804617F0BF
:1059DC004FFD1C2803D017F04BFD1B281BD1308822
:1059EC0040F60201884218BFB0F5C15F03D1F07BCD
:1059FC00022810D93EE043F6070188420BD196F8F5
:105A0C002400032807D330697B4940F0806020F0E4
:105A1C00604088422ED100206FB366B3387825FAE7
:105A2C0000F0C00726D03046002124F02BF9734833
:105A3C00C4E90176006880B109A800900CA90BAAF2
:105A4C000AAB304609F0D6FE0B980B214FF6FF72CD
:105A5C00502321F057FFFF280CD023F091FD684F05
:105A6C0006467878012802D840B1012070E0304613
:105A7C0024F041F800200DB0BDE8F08F09F02EFEA7
:105A8C0060480DF10409016841F0020101605E48B3
:105A9C00C8F80000484623F0FDFBDFF870B15D4903
:105AAC004A469BF801009BF8005003905848283058
:105ABC001EF0DBFC584859494A461EF0D6FC4846B5
:105ACC0023F0F8FADFF85881564A19214B46029513
