:1000000000300120015D02002D7A02002D7A0200ED
:100010002D7A02002D7A02002D7A02002D7A02003C
:100020002D7A02002D7A02002D7A02002D7A02002C
:0C0030002D7A02002D7A0200A1F90000D8
:10003C002DE9F04F99B0054680780224532800F240
:10004C00D185DFE810F05400DC0235025A03750349
:10005C008D02EA020C03A003CF0592036D019C02F2
:10006C00CF05CF05CF05CF05CF05CF05CF05CF05E4
:10007C00CF05CF05CF05CF05CF05CF05CF05CF05D4
:10008C00CF05CF05CF05F401350128033403E50373
:10009C00AF03F60019021A040E01CF05CF05CF05E8
:1000AC00CF05CF05CF05DE015701A80241015D0444
:1000BC004C0499014402CF05CF05CF05CF05CF05E0
:1000CC00CF05460379027B04CF058E01C903720468
:1000DC00D6008603C600BB00BE01BE02F403990025
:1000EC00E3001B03690387043E03B700A200EC1C6A
:1000FC00E97A2A7B002320461EF0A6F88DF818001A
:10010C0006AB65200021012223F012F8DFF8280B42
:10011C000078012800F2658520462AF0E7FB0028CC
:10012C0000F05F8505460079012840F05A852AF0D9
:10013C004DF900274FF400018DF84B008DF8440069
:10014C00000ACDF846108DF84D708DF84A708DF878
:10015C004C008DF8450011AE214606F10A002AF03C
:10016C0049FC2978152233460170697887704170F3
:10017C004520FF2100F033BD29F05AFA8DF84400D8
:10018C0011AB65204C2100F029BD00208DF84400F6
:10019C00E87841B2B1F1FF3F07DC10F07F00DFF8E7
:1001AC00941A18BF012081F8680011AB6520532107
:1001BC0000F014BD21F0C4F800F013BDE878002461
:1001CC008DF8444024F068FD11AB6520472100F008
:1001DC006FBCEC782AF0B7FB0146204623F0E8F917
:1001EC00B0FA80F0472140098DF8440011AB00F0C3
:1001FC006FBC2AF0B1FB6979AA790EF041FE8DF83B
:10020C00440011AB6520452100F0E8BCE878297961
:10021C008DF8441011A9032800F0C884022800F0BE
:10022C00BF84012840F0C984522022F081FC00F0E8
:10023C00C7BCE81C042126F0FFFFE9792AF04DFC2D
:10024C00DFF8101A8DF84400022029F05FFCDFF86B
:10025C00081A032029F05AFC11AB6520262100F066
:10026C00BDBC0226E81C8DF84C602AF014FC2AF068
:10027C0077FAED79044611A8002321462A4628F086
:10028C008FFE2AF003F90ED1DFF8A8098DF84C6027
:10029C0021462A460023C08AADF8440011A828F054
:1002AC007FFE8DF8180006AB6520292100F096BC66
:1002BC002AF0C2F829F0B5FF29F07AFE40F07683D7
:1002CC0006A82AF097FB76E32AF0B6F82AF020FA73
:1002DC00332201238DF838000EA8CDE90004DFF895
:1002EC006C0911A921F08CFE8DF8180006AB652065
:1002FC003321DDE32AF0A0F82AF00AFA3122012397
:10030C008DF838000EA8CDE90004DFF8400911A9DA
:10031C0021F076FE8DF8180006AB65203121C7E37D
:10032C0002208DF820002AF017FBADF81800681D8C
:10033C002AF0B1FBEA79064605F108018DF8442054
:10034C0011AF781C29F044FE06A831463A4600232A
:10035C00002421F0B3F88DF838000EAB65200B218A
:10036C00A6E32AF0F9FA2AF0D8F98DF8440011AB7B
:10037C006520422100F032BC2C4614F8030B0428F3
:10038C001ABFE8782C1D02208DF84C0020462AF06C
:10039C0082FBDFF8B468A5780121E278ADF844005F
:1003AC0000230024317011A829461FF01FFC8DF882
:1003BC0018002846347028F08FFA06AB65203621D9
:1003CC0076E3E87811AC214627F06AFE0746400038
:1003DC000130C6B230462AF062FB002800F073836D
:1003EC00054607700020874200F0D88214F81010E0
:1003FC0005EB4002517004EB4001013049789170DB
:10040C00F1E72AF019F8ADF84400681D042126F034
:10041C0013FF6A7AAB7A00240146009411A826F0E7
:10042C0077FC8DF8180006AB6520302140E30020E6
:10043C00DFF82C4829F0E7FEADF83800681DA0471E
:10044C00814695F80FA005F11000A04795F812B061
:10045C00074605F11304BBF10F0F00F2BA8211AE7F
:10046C005D46002D00F0B88220462AF014FB26F8D9
:10047C00020B013D0234F4E72AF065FA044605F15B
:10048C000E002AF008FB297C6A7C0346E878CDE94B
:10049C000012AA1D214626F00FFCDFF8B4178DF8C8
:1004AC004400042029F032FB11AB6520272195E391
:1004BC0029F0C2FF2AF054F9014611A802222AF0B1
:1004CC00E8F98DF8180006AB65200221F0E22AF05D
:1004DC0043FAADF84400687904218DF84C00A81D4E
:1004EC0026F0AAFE0446AE7AEF7A05F10C002AF04B
:1004FC00D2FADFF840870546214632463B4629F0C2
:10050C006DFE11A821F058FD29F0C0FF10D102207A
:10051C00214632463B468DF84C00B8F81600ADF833
:10052C00440029F05BFE11A821F046FD8DF818005F
:10053C0006AB6520372151E36C782AF00DFA0146A1
:10054C00DFF80007007822F0AFFA8DF8440004F0D1
:10055C00E000202840F0458311AB65203F213DE3AE
:10056C0029F06AFF2AF0FCF8014611A805222AF0AE
:10057C0090F98DF8180006AB6520052198E22AF059
:10058C00EBF90021002422F073FF8DF8440011AB2D
:10059C0065200C218CE229F04FFF2AF0B9F83222A9
:1005AC0001238DF838000EA8CDE90004DFF89C0675
:1005BC0011A921F025FD8DF8180006AB652032211C
:1005CC0076E211AC132120462AF070F9EE782AF06D
:1005DC00BAF90146304627F01FF9002800F07A825C
:1005EC000021231D8DF844100188ADF84510C11C65
:1005FC00827818468DF8472029F0EAFC6DE22AF043
:10060C00ABF96979AA790023002425F077FE8DF8DF
:10061C00440011AB652001214AE20020DFF840467E
:10062C0029F0F1FDADF83800681DA0478046E81DA3
:10063C00A04795F809A0814605F10A07BAF1100FF9
:10064C0000F2F78111AC5546002D00F0F5813846CB
:10065C002AF021FA24F8020B013D0237F4E729F0C5
:10066C00EBFE2AF07DF8014611A810222AF011F9B0
:10067C008DF8180006AB6520072119E22AF06CF9F9
:10068C0069790246A81D1BF0B7FD8DF8440011AB2B
:10069C0065204E21A2E229F0CFFE29F0C2FD29F0FF
:1006AC0087FC40F0F38106A82AF0A4F9F3E12AF0C4
:1006BC0053F92AF032F88DF8440011AB6520232150
:1006CC008CE2DFF874050078002800F00B82122011
:1006DC0014E26C782AF040F90146DFF868050078DE
:1006EC0020F0C6FE8DF8440004F0E000202840F015
:1006FC00788211AB65203E2170E229F09DFE2AF034
:10070C002FF8014611A803222AF0C3F88DF818001F
:10071C0006AB65200321CBE12AF01EF9014668796E
:10072C0019F0DCFF8DF8440011AB65204F2155E228
:10073C0029F082FE2AF014F8EA79014611A8002368
:10074C00002427F077FC8DF8180006AB65200421F7
:10075C00AEE12AF001F96979AA791BF03BF88DF822
:10076C00440011AB6520462138E22AF0F5F86A7B8B
:10077C00691D0023002423F0AFFB8DF8440011AB5E
:10078C0065200A2194E129F057FE29F0E9FF014682
:10079C0011A811222AF07DF88DF8180006AB6520FF
:1007AC00082185E16879EE1CFE280BD1A879FF2879
:1007BC0008D12878082805D330462AF06CF9314640
:1007CC0025F0C4FF11A9304628F064FD002800F084
:1007DC009B8105460024A9E1002006908DF8490074
:1007EC00CDF84500E81C06A927F036FC8DF844002E
:1007FC00069840B10188ADF845104188ADF8471016
:10080C0000798DF8490011AB652043210622E6E101
:10081C00DFF82414C8208DF81800E81C097800298A
:10082C0000F0928129F034F88DF81800B4E1002022
:10083C00EC78CDF85200CDF84E00CDF84A00CDF84A
:10084C0046002AF080F8ADF84400A8790F2802463B
:10085C0028BF0F228DF8462020B111A8E91D0330C6
:10086C0029F0B6FB11A9204601221DF01FFD8DF8C1
:10087C00180006AB65204B21B0E14FF00208E81CD4
:10088C008DF84C802AF007F9ADF8440068798DF8A2
:10089C003800A81D2AF0FFF82E7A044600270935E7
:1008AC00CDE900570EA811A92246334621F0A8FB2A
:1008BC0029F0ECFD0FD1DF488DF84C80CDE90057C5
:1008CC0022463346C08AADF844000EA811A921F087
:1008DC0097FB8DF8180006AB652028217EE129F0E6
:1008EC00ABFD6A7BADF84400691D11A80023002400
:1008FC0026F042FF8DF8180006AB65203521D7E0B5
:10090C0029F09AFDADF84400687B0024691D009421
:10091C00C0F3400200F0010311A823F0FBFA8DF89C
:10092C00180006AB65203421C2E0E81C28F0B0FFAB
:10093C008DF8440011AB652044214FE100206C7808
:10094C008DF84400BC480078411E022980F0B48028
:10095C000220B5E0B74D0822E88A05F13901ADF85F
:10096C004400B64800788DF84600A88CADF84700D6
:10097C00688BADF8490011ACE01D29F029FB04F19E
:10098C000F0005F11C01082229F022FB287E5021C2
:10099C00182223468DF85B00652020E16520492153
:1009AC0032462B4622F0C4FB28463EE108462AF08C
:1009BC0072F8ADF81800687E06A929F001FB11A9A0
:1009CC0021201CF007FD8DF838000EAB652021218D
:1009DC006EE080208DF8430026780F2E10D80597F6
:1009EC00671C75004FF0000806AC45450AD007EBB4
:1009FC0008002AF050F824F8080008F10208F4E77F
:100A0C0080200FE0BBF10F0F0ED811A90020CDE90B
:100A1C0002645246CDE900B104900EA8059B4946EC
:100A2C0015F09AFC8DF843000DF14303652020214D
:100A3C00D4E080208DF8430097F800B0BBF1100F84
:100A4C000CD87E1C4FEA4B05002406AFA54207D0FC
:100A5C0030192AF020F838530234F7E780200EE0E2
:100A6C00BAF1100F0DD811A900204A465346CDE912
:100A7C00001BCDE902700EA8414615F0C5FC8DF89F
:100A8C0043000DF1430365200621A7E008462AF038
:100A9C0002F8ADF81800687E06A929F091FA11A9A0
:100AAC0022201CF097FC8DF838000EAB652022211B
:100ABC00012222F03DFB95E0002840F085800420C7
:100ACC0009F0B2FA83E0002049218DF8180006AB3A
:100ADC00652083E001208DF8440011AB65204A218C
:100AEC0013227CE029F038FF044605F10D0029F0B3
:100AFC00D2FF0246691D204626F020F98DF84400ED
:100B0C0011AB6520512169E0182029F0C8FF00289D
:100B1C0000F08E800446BDF84400002118222346C4
:100B2C0029F0E4F80546002818BFC825192029F03B
:100B3C00B6FF002872D007460130002D56D0182180
:100B4C00FF2229F05DFE5BE00EA911AD2A4619F0DB
:100B5C006BF804469DF83800F0B1404904EB4400B2
:100B6C00002641F8206001EB800046609DF957009B
:100B7C00B0F1FF3F03DC05F1130023F0F1FC11ADE4
:100B8C001421284629F092FE0420214614222B46DB
:100B9C0026F0B8FA8DF8186006AB652024211DE00C
:100BAC00522021F0C5FF2648012104E0522021F0FB
:100BBC00BFFF23480021017002E0522026F018FEEE
:100BCC0011AB65204D2109E001208DF8440004F0A3
:100BDC00E000202805D111AB65204021012222F034
:100BEC00A7FA0024204619B0BDE8F08F3146082240
:100BFC0029F0EEF907F109002146102229F0E8F955
:100C0C006520252119223B463D7022F091FA384689
:100C1C00192129F04BFE384629F03FFF002CE0D07B
:100C2C002046182129F042FE204629F036FFD8E74D
:100C3C00C825CFE588750020B42500206426002047
:100C4C007C270020D08200203A2700201826002084
:100C5C0055750200437B0200115B0100383E0020F9
:100C6C00A3AA02002DE9F04F99B080466FF007005F
:100C7C00DFF8DCA80630ADF852009AF80000022824
:100C8C0014D1DFF8C808007880B9B8F8080010B1A2
:100C9C001020012101E0302000210AF0F3FF002098
:100CAC008DF81C0007A9522021F042FF0DF11C0900
:100CBC0098F80810D8F804004A4610F08DFCE8B1FA
:100CCC009DF81E609DF81F409DF82050BDF82670C1
:100CDC0029F076FB844211D127F003004FF6F8710E
:100CEC0080B288420AD0012D08D8022E06D29AF87A
:100CFC000000022808D19DF84D0028B1D32017F030
:100D0C0056FB19B0BDE8F08FB8F82800ADF84800D4
:100D1C00B8F83200ADF82A009DF82200D0B1D8F80E
:100D2C0004109DF81D209DF83830012028F0E4F8BF
:100D3C0008B1CF20E3E7DFF81C08C078012809D1FF
:100D4C00B8F8280029F075FD20B1417901F0E701D0
:100D5C00083141719DF8210068B1BDF82610FF20C3
:100D6C0026F05AFD9DF82110E0B141F001012C262E
:100D7C008DF8211017E09DF83900002800F0EB8069
:100D8C009DF83D10FF2902D0002940F02681DFF8A4
:100D9C00C807BDF82620C18A8A4240F0278101206D
:100DAC00222607E0082601F00300012808BF46F0C0
:100DBC00110601209AF800104FF6F877012908D88F
:100DCC00B207344658BF64F07F04002808BF34468D
:100DDC0000E034469DF82200DFF87C575FFA84FB74
:100DEC0030B9E87A20B10BF02200222840F0808044
:100DFC001BF0400004901CD0012903D8A87B80076D
:100E0C0000F1D880119801780C2900F2DB800122C6
:100E1C0041F298438A401A4200F0D480032902D14F
:100E2C0040780D2805D007A822F0D0FE01283FF409
:100E3C0068AFA88CB8F8441081420AD198F84620C3
:100E4C00B8F84210B8F8280000230093002308F0EB
:100E5C000BF89DF82200F8B1B8F84210B8F8280049
:100E6C0023F0C0F9002800F08F800646D8F8040063
:100E7C009DF81D10F2780844417B8A421EBF002267
:100E8C007260F1700130042126F0D6F97168884245
:100E9C00FFF437AF013070609AF80000022834D2AA
:100EAC00A87B80077FF52DAF9DF84D004FF6F876A7
:100EBC0060B1BDF8280028F06BFA002800F007811B
:100ECC00D8F80400417801F0DF0141709DF82E0044
:100EDC00002800F0DF80D8F8040081790139817195
:100EEC008DF82E1004F07F00090640F0D680D3E078
:100EFC000BF0420042287FF41CAF1198007800F0F0
:100F0C00FE0006287FF415AF72E77FF4FAAE95F871
:100F1C002600092802D004287FF4F3AE5FEA8B6028
:100F2C0000F19E80049800283FF4EBAE11989DF8D8
:100F3C0038100078042808BF022900F045810728E2
:100F4C0008BF042900F009810C2840F04D8107A846
:100F5C0015F0BEFDD5E6BDF8260023F0FDFB0238EA
:100F6C00DFF8F415B0FA80F0CA8A4109BDF8260002
:100F7C00904208BF023100293FD09DF81E20002A64
:100F8C0056D001F1400455E09DF84D00B8B3042053
:100F9C0026F030FF00283FF4B4AE01464FF4B27097
:100FAC000880B8F828004880DFF8B00500781EF0FB
:100FBC0015FDA6E611980178A1F10C0212F10C0FA7
:100FCC003FF62CAFE88ABDF8262082427FF496AE1D
:100FDC00BDF8280024F0FAFF90E6109A9DF83C002A
:100FEC0021F0B8FC30B101200026E3E690F8260091
:100FFC000428F8D100260020DCE600241AE095F83D
:10100C006C0001287FF448AF11980078062803D1B2
:10101C00049800287FF440AFF81DBDF82A1080B268
:10102C0081423FF46EAE07A841461EF06BFF68E6A6
:10103C0001F1200423F090FB0138B0FA80F0400954
:10104C0044EA00069DF81E0000283FF4B2AE119849
:10105C00007828F0F1F9012818BF04F07E06A8E604
:10106C0098F8460029F097F89DF82E00012840F0DA
:10107C00B480B8F82800BDF82810814240F0AD804B
:10108C00BDF8260023F068FB022804BF00208DF871
:10109C002E00A2E004F07F000446210702D44FF09A
:1010AC00000A34E0E1B24A0722D4C9069DF82110A7
:1010BC0028D5C1F3820212B1072A18BF013A002ABF
:1010CC0008BF044601F0E30040EA820118E0D32097
:1010DC0017F06DF9DFF888040078002800F09F8085
:1010EC00DFF8801451F82000C0EB0010810098E06C
:1010FC009DF8210000F0E00100F0E30040EAD1018E
:10110C008DF82110D8F804004FF4805A017295F82C
:10111C002600092801D0042823D1E98ABDF826002D
:10112C0088420AD023F018FB022806D09DF8210033
:10113C0000F0030001287FF4E4AD9DF81E000028A8
:10114C0047D011989DF838100078042808BF022960
:10115C003AD0072848D1042946D107A818F000FB3B
:10116C00CFE5E7B214F0610F46D0F80709D0B8F814
:10117C00281007A8A94615F047FF002864D004F0F2
:10118C009F040025E7B2A00609D598F84600D8F8C8
:10119C003C2029F000F807A815A905F089FE78066F
:1011AC0040F12681B8F8281007A80DF152022B4601
:1011BC0010F08EFA00286FD005461198007801289F
:1011CC0008BF4AF0100A13E107A9002011F026F815
:1011DC0097E598F8460028F0DEFFD8F83C2007A8E1
:1011EC0015A905F065FE8CE503287FF48AAD07A8E8
:1011FC0000210FF0FBFE84E59DF81E0001285AD15A
:10120C0011980078032849D0052854D1B8F8281033
:10121C0007A80DF15202002310F05AFA71E5D148DB
:10122C000168D1480268BDF82800904701287FF476
:10123C0068ADCE480168BDF828008847CC480168E5
:10124C00BDF8280088475CE527F0A6F99DF82E101C
:10125C000546BDF8280019B9B8F82810884291D075
:10126C00B9F81610814204D1BA48807800283FF4AE
:10127C0089AFB8F8281007A82A460AF0C7FA002840
:10128C0000F09B8038074AF0040ABDF8260048BFDE
:10129C00F01DADF8520075E70025A9E0BDF8260059
:1012AC0028F076F838B1B8F8281007A80DF15202DA
:1012BC00002310F00DFA9DF82E0088B324F016FCD4
:1012CC0000287FF41EAD9DF83900A0B3109A9DF84C
:1012DC003C009DF83D1021F03DFB002870D09DF89E
:1012EC003D00002875D0109929F067FA9DF824303C
:1012FC00ADF8520011209DF823209DF821104AF0E2
:10130C00400A002B08BF0920002A18BF083000290A
:10131C0018BF0130D8F804100A5C013A0A5462E094
:10132C009DF81E0001287FF47EAE119800780328EA
:10133C003FF4E7AC77E69DF82010BDF826000029B5
:10134C00ADF8520000F0D3804020BDF8261009F112
:10135C001D0200EAC4059DF820002B4619F03EF949
:10136C0038B1D8F804004AF0200A017801F03F01A6
:10137C0001709DF8390048B1BDF8261009F1200024
:10138C0022F006FC4AF0400AADF852009DF81E000F
:10139C00012806D0BDF82810BDF82600002215F053
:1013AC0095FABDF82810BDF826002A4612F0C4FDA7
:1013BC00002818BF4AF0200A15E004F0DF04E0E62C
:1013CC00BDF82610BDF828000B2200231BF0AAF84C
:1013DC0097E4BDF82600ADF8520029F02AFA00284F
:1013EC0008BF4AF0400A27F0D7F805464FF6F876C2
:1013FC00B01DBDF8521080B20F1A5E4818BF2F46B0
:10140C000078012805D1F01DB8F8321080B2814265
:10141C002FD160B2B0F1FF3F3FF773AC002F3FF418
:10142C0070ACB8F8080029F03AFB00283FF469AC1E
:10143C00B8F80820D8F80410054628F0C9FD9DF826
:10144C001E10002098F80830B8F8282016908DF857
:10145C005410BDF8521015ACCDE9007ACDE9020458
:10146C00284610F067FE70B3284629F016FBFFF7EC
:10147C0048BCB8F828108142CBD0701CBDF826208F
:10148C0080B28242C5D2BDF828008142C1D029F079
:10149C00D0F90028BDD0017901390129B9D840888B
:1014AC0001218DF85410ADF8600015AD28461FF0E1
:1014BC00EDF90028ADD0281D1EF05CF90028A8D04D
:1014CC0022F0B0FCA5E72348407800283FF419AC83
:1014DC0000208DF81870ADF81900DDF826004FEAE1
:1014EC003040059005A828F0F7FBFFF70ABC390738
:1014FC003FF52AAF9DF81E1001293FF425AF0021BE
:10150C0019F02CF820B1407901380228FFF41CAFF7
:10151C00B8F84410BDF8520022F064FE30B1807867
:10152C0027F09AFA01380728FFF40EAFBDF828000F
:10153C0027F02EFF18B104208DF8200004E7BDF829
:10154C002610BDF8280002223FE700BF7C270020B0
:10155C00B42500209025002088750020D282002020
:10156C006E270020A0C0020028230020302300207A
:10157C002C2300207A2700202DE9F0438DB005465E
:10158C0080780224252800F27380DFE810F0260012
:10159C004F011301ED0030016F01AD00BE02BE0220
:1015AC003E01C700BE02BE02BE02BE02BE02A800C1
:1015BC002701BE02BE02DF000A01E300BE02BE022A
:1015CC00BE02BE02BE02BE02BE02BE02BE02C4000B
:1015DC007D01800101018301A500DFF8EC75002479
:1015EC000E258DF804403878012807D801A81DF085
:1015FC002BFD04469DF8040005EB4005EEB2304689
:10160C0029F04DFA002800F08F824FF000080546B3
:10161C00431C0021082280F80080012028F066FB82
:10162C0028F0D4FE6872000A0721A872DFF89C0526
:10163C00E972007828733878012800F26A829DF8E4
:10164C000420002A6A7300F0668205F10E00002166
:10165C002346914280F05F8213F8022B013100F88F
:10166C00022B13F8012C00F8012C9DF80420F0E754
:10167C00A0F140010D2920D8DFE811F00E002F0158
:10168C0047024702130148014702470224013D016A
:10169C006C0181014702550101ACE91C0822201D97
:1016AC0028F096FC20461AF09DFBBDF806000DF1C3
:1016BC002A034021ADF82A0070E0632800F07C81F9
:1016CC00642800F06C81E02840F01F820024472041
:1016DC00E0210022002316E2F52025215BE015F81D
:1016EC00032B67201021F6E000208DF80400E81C85
:1016FC0029F0D1F96A7900F4F851002A00F0AA8196
:10170C00B1F5A06F04D04FF6FF71884240F0AC8168
:10171C004FF0FF30A6E1F5202021BDE0DFF8946406
:10172C002D79306840B901AC204628F01FFD01200E
:10173C0021460EF0A9FD3060052D00F0D881002D5A
:10174C0000F0D881642122F097FFD5E100246720B6
:10175C00142129E000246720162109228DF80C4061
:10176C00CDE9014401ABCEE1E81C042125F064FD78
:10177C000190842029F0A6F8014601AA842028F0C3
:10178C0057FF8DF82A000DF12A03672003216EE123
:10179C004FF6F5702321ADF8040001AB672002224F
:1017AC0066E1002467201521ADF80840019401ABD7
:1017BC000622A8E1E81C29F06EF9ADF8040083209C
:1017CC0029F080F8014601AA832028F031FF8DF81A
:1017DC002A000DF12A036720022148E1E87824F061
:1017EC006DFC8DF8040001AB672011213FE16120F5
:1017FC0029F068F80146EA1C612028F019FF8DF8E1
:10180C00040001AB6720042131E129F01AF90446E8
:10181C0029F015F9EA49604301ACB0FBF1F120461F
:10182C0029F0A6F8672009210422A6E0202029F03F
:10183C0036F9002800F01E812021FF22044628F0F2
:10184C00DFFF631C01200021082228F04FFA054617
:10185C0001AB84200021042228F048FA002800F073
:10186C006581002D18BF0125023566E1622029F043
:10187C0029F80146EA1C622028F0DAFE8DF80400F3
:10188C0001AB67200521F2E0F520212104E0F520D1
:10189C00222101E0F52024218DF8040001AB672002
:1018AC00E5E0E81C0DF12A0127F0F4FC00288DF886
:1018BC00040000F0E18001A81821FF22013028F07B
:1018CC009FFF06E115F8030F697822F081FE28804E
:1018DC006720482102222B46CAE0E81C29F0DBF8DD
:1018EC00ADF8060001AC204617F0F6FE231D67206C
:1018FC0041210822BCE0E87825F0C2FD01AC01468C
:10190C00204619F06BF86720492135E0E81C0DF1F1
:10191C002A0127F0BFFC00288DF8040000F0DE80BF
:10192C004FF0FF30DCE04FF0FF3095F80380691D7D
:10193C000190ADF81000CDE90200FE208DF80600F4
:10194C00287903288DF8320047D10DF12A0029F0AF
:10195C0051F847E0EC1C204627F03CF9002818BF52
:10196C002046B5F80B1019F091FD01AC014620464C
:10197C0019F034F867204A212422234678E001AC80
:10198C00E91C0822204628F023FB204628F0D2F838
:10199C008DF82A000DF12A0367204B2167E0B5F87A
:1019AC000B006A7B0024E91C8DF804400AF026FA2F
:1019BC0001AB67206421A5E00024E91C08228DF806
:1019CC002A4001AD284628F003FB28461DF0D2FE24
:1019DC000DF12A036720632194E0084629F05BF897
:1019EC00ADF82A00AF7B002F00F0DE807E0095F86A
:1019FC000D90304629F053F8002800F0D58005F101
:101A0C000F013246044628F0E3FA0DF12A01404654
:101A1C004A463B4600940DF081FC002800F0BA8049
:101A2C0083780178427805798DF806308DF80410AA
:101A3C008DF805204279C1788DF808508DF8092071
:101A4C0052008DF8071001A98B1D811D184628F036
:101A5C00BFFAA6E0B1F5A06F03D04FF6FF71884234
:101A6C0002D100205749086001AB672006210122F2
:101A7C0021F05EFB002448E0182029F010F840B358
:101A8C00BDF82A100446009006200022182325F0E9
:101A9C0023FBB8B9BDF82A5001AE21461022701CA8
:101AAC0028F096FA454F05EB450506F1110057F85D
:101ABC00251028F05DFF07EB8500416806F1150045
:101ACC0028F056FF2046182128F0F0FE204628F07A
:101ADC00E4FF01AB672044211922C9E7BDF82A00B5
:101AEC00ADF8050001AB672045210322C0E7324960
:101AFC0001220A7021F03BFF002467200A218DF897
:101B0C00044001AB012221F013FB20460DB0BDE8CF
:101B1C00F08385F80D806720002132462B4621F09A
:101B2C0007FB284628F0B9FF84BBA3E70198002DDA
:101B3C0000BAC4F8090018BF01250DF12A0383204F
:101B4C000021022228F0D2F808B1043503E0BDF8D8
:101B5C002A00A4F80D0004F10F03612000210122DA
:101B6C0028F0C4F8002804F1100318BF08356220CF
:101B7C000021102228F0BAF80028234618BF10358F
:101B8C00672001212022257021F0D2FA204628F06E
:101B9C0084FF6FE74FF6FF70ADF808006FF48030EC
:101BAC000190204628F079FF01AB67204D210E22D1
:101BBC005EE700BF6082002037270020487D0020B0
:101BCC0040420F0040820020B425002064260020F3
:101BDC002DE9F04F85B084780226362C00F2C882AD
:101BEC000546DFE814F0660191014D017D015201BB
:101BFC00C502C5025B0137005F00E8004101FB0034
:101C0C00C502E0009901C502C502A301D201C201BF
:101C1C00C502C502C502C502C502C502C502370010
:101C2C005F00C502C502C502C502C502C502C502D8
:101C3C00C502C502C502C502C502C502C502C50260
:101C4C00C502C502C50270002D01E0019E004900CD
:101C5C0049006E0128F071FE242840F07A8102AB15
:101C6C00352000210422002428F040F8002800F040
:101C7C0004820222012006E2DFF85485D8F8000025
:101C8C00F8B1406AE8B102A928F063FE0646342C8C
:101C9C0040F0E981304628F0FEFE002800F03B823F
:101CAC0004205CE200208DF8100028F046FE064669
:101CBC00092C40F09B8095F8059095F8068007203C
:101CCC009DE003204BE2DFF8086501208DF8100041
:101CDC003068002800F077810069002800F07381DB
:101CEC0002A928F036FE042125F0A6FA002800F0FF
:101CFC000E82044628F0D3FE002800F067812146AE
:101D0C00054628F0D3FD3068BDF80C1022462B4652
:101D1C0006690298B0478DF81000284628F0BDFEE1
:101D2C0054E1DFF8AC743868002800F05381C069C6
:101D3C00002800F04F8102A928F00BFE9DF80850F6
:101D4C00BDF80AB0BDF80C90044628F0A4FEA678A5
:101D5C008046F72E28BFF726B01C5FFA80FA504653
:101D6C0028F09DFE002800F0D481012D044608BF08
:101D7C00BBF1000F00F002823868A11C42463346CA
:101D8C00C569029800914946A8470746002840F0CB
:101D9C00FB81002761203321524623466670277051
:101DAC0021F0C6F9F0E1002661200E2101228DF808
:101DBC00086002ABF6E1E878032800F22381281DC5
:101DCC0028F069FE0246E878DFF80C1431F81010A0
:101DDC00DFF80804007828F0C8FD14E128F0E3FCD3
:101DEC00ADF8080002AB61200C21DAE0681D28F088
:101DFC0052FE8146E81D28F04EFE8046092002AFB7
:101E0C00242E18BF2F1809EB080508BF35263046BD
:101E1C0028F058FD854201D90220A0E1B9F1000F4C
:101E2C0004D1304641463A4623F04AFF30464146FB
:101E3C003A4628F0FDFB002800F018810A208EE1BC
:101E4C00DFF88C432068002800F0C68080690028E9
:101E5C0000F0C28002A928F07CFD2068BDF80C10AF
:101E6C00826902989047B8E0E878032800F2CF80A6
:101E7C00D94931F81010D94800781EF0EDF9C7E0B7
:101E8C00D74B612002210A226FE102ACE2202146ED
:101E9C0025F0AEFC612004210822B1E028F04DFDB4
:101EAC000446681D28F0F7FD242C40F0B580002076
:101EBC0022E1E878012802D0002840F0588128F06F
:101ECC00EFF8C34C2068002800F08D80C068002813
:101EDC0000F0898028F031FD2168C968884783E0CB
:101EEC000120EC1C8DF80800E220214620F020FE99
:101EFC0030B901200821224628F09AFB8DF8080001
:101F0C0002AB612003212FE140F259600121ADF8B1
:101F1C00080002AB612044E0E878291D012800F09C
:101F2C00D980002840F0DD80E020D7E028F005FDC6
:101F3C000446681D28F0AFFD242C0FBF002001467D
:101F4C00204628F067FC8DF8080002AB61201221B6
:101F5C000AE183466938002680B2032838BF01267F
:101F6C00681D082C6ED105786FE0E8788DF80800B4
:101F7C0098488068D0F8302402A9E02090478DF86A
:101F8C00100004AB61201421EEE028F0D6FC2428CC
:101F9C000CBF002028F096FCADF8080002AB6120C5
:101FAC0013210222E1E08A4C206808B3806AF8B160
:101FBC0002A928F0CEFC2068BDF80C10826A0298A9
:101FCC009047014615E003208DF8100004AB61200A
:101FDC003021C9E00327DCE003208DF8100004ABAE
:101FEC0061203121C0E0032028F0B5FB3621BBE095
:101FFC00002102AC204628F0BBFC612032210422D7
:10200C002346B2E0022028F0A6FB0A21ACE0022015
:10201C0028F0A1FB0B21A7E005F10806ED7901469C
:10202C00A84265D92046002228F0FCFA09288DF830
:10203C00080063D1002D61D020462946324628F095
:10204C00F7FA5BE028F027FD0546584628F03AFCE5
:10205C000227A84288BF7700EFB100268DF80870E0
:10206C00612021469AE006F1010957E0012E78D152
:10207C00E220394620F05CFD71E002980422022433
:10208C00ADF8120000208DF810008DF8114004AB53
:10209C006120082169E0401B87B2F72F28BFF72782
:1020AC00B81C5FFA80F8404628F0F9FC002863D091
:1020BC0000F1020A81463946504628F0F7FB584693
:1020CC0029463A46534627F011FE054600286CD0A7
:1020DC000A2775E00878022814D2522020F028FD37
:1020EC0000E002208DF8080002AB61200F213BE0DC
:1020FC002046324628F096FA8DF8080002AB612093
:10210C00072131E002A9522025F072FBECE70520F3
:10211C005AE710273DE006F1030902369DF8080046
:10212C003678012811D1BDF80A0070B9BDF80C70D1
:10213C0031464A46384623F0C3FD012F07D1E22031
:10214C00494620F0F5FC012701E0BDF80C70D8F8E9
:10215C000000394632464B46456A0298A8478DF82E
:10216C00100004AB61202146012220F0E1FF002683
:10217C00304605B0BDE8F08F10276EE7A9F1690075
:10218C000328BFF4F9AD0227204628F086FC002F67
:10219C00EDD000268DF80870612033218DF8096090
:1021AC0002AB022220F0C4FFE2E789F8017000279D
:1021BC006120214642464B4689F8007020F0B8FF5A
:1021CC00484628F06AFC002D7FF447AFCFE700BFEC
:1021DC00FC2600200C0100205CC60200D0820020EE
:1021EC00F8C502002DE9F04F9FB00446DFF89405C6
:1021FC00406818B18047002800F05182DFF888054C
:10220C00DFF888B50F940DF1400A4FF0F80800780C
:10221C000BF11807411E002C0C9118BF01219BF8E3
:10222C000290002400258BF80F109BF801100E91E2
:10223C0084421FD2A14517D0E6B200215246042396
:10224C00304627F08DFE109810F4403F40F004000B
:10225C00C0B218BF01357C2806D130460621F822C1
:10226C0026F0CCFD87F80080DFF81C050C37013414
:10227C000078DDE7E9B201380024884204D19BF8EC
:10228C000500002800F07A820F9DCDF83490DFF81D
:10229C00F4840DF15C09C5F50050002D0190284621
:1022AC0008BF1020C0F500500490002003900E9E33
:1022BC000C9F0024380400F0F4819BF80F0010B937
:1022CC0001208BF80F00F0B2002110AA042327F094
:1022DC0047FE1098D5B110F4403F1AD04FF400507F
:1022EC00DFF8A4140134013FABF810009BF80F0089
:1022FC00097801388BF80F00012050FA86F0B0FBFA
:10230C00F1F202FB11068BF80D60D3E70021069168
:10231C0002E00E960C970694C0B20E9F0024702813
:10232C0003D0F8B2702123F087F80D98002110AA81
:10233C0004235FFA80FA504627F012FE9DF8400005
:10234C00FE2803D05046FE2123F076F85046062195
:10235C00FE2226F053FD4FF400500D9B0BF116019D
:10236C005A468BF80D70ABF8144088F80040ABF867
:10237C001000FF20D67B8BF80E00F8B28BF80C30D7
:10238C00400050FA87F001EB8000B0F806B04FEA3D
:10239C004A0050FA83F001EB8001FE20A2F812B043
:1023AC000D4605F8020F31F8060F0890DFF8D80338
:1023BC000591047816A822F093FA56FA87F0CDF816
:1023CC002CA0013890FBF4F101FB1400029016983C
:1023DC0009900E97FFB2574500F05B81A7EB0A00FE
:1023EC00B0FA80F040090A90002007900F9EC007B9
:1023FC0040F09F801FFA8BF4162C70D998F80000CF
:10240C00002840F06E81ABF10706384611AAB1B234
:10241C0018F0E4FBBDF8528008F11000A0420FD870
:10242C009DF84E0096280BD1A6EB08049DF84D2084
:10243C0041463B461FFA84FA50461CF0A9FA08B3F1
:10244C00ABF1010BDFF83C835C46A0B2172864D3D8
:10245C003628A4F1160638464A4688BF2026A41B07
:10246C00B3B2A1B227F07CFD3004EED019FA86F09D
:10247C0010F8010C962801D0013EF5E706EB040B91
:10248C000020B3E79DF84F00C10701D1800704D4A9
:10249C000020A346DFF8EC82A8E708F1070083B21E
:1024AC00089813FA80F6B6F5005F01D90120F1E720
:1024BC0080B2B94918440A1A3846514627F050FDE3
:1024CC0007980130B6F5005F079004D101204FF456
:1024DC0000510891DDE70020A3460896DAE707983B
:1024EC0010B1AA4927F088FE0298C0B2874200F0CA
:1024FC00D4800E990120DDF82CA050FA81F0A2496D
:10250C000978B0FBF1F202FB1107A04907EB470079
:10251C0001EB8000B0F81CB05BE79D48099900689E
:10252C0042689C48904700200A900E980D900F9E90
:10253C0008E0079810B1954927F05EFE00200A903C
:10254C000E980D9098F80000002840F0CA80089C66
:10255C0010210E95A4F11000C4F5005283B20B9813
:10256C00C1F2001222F0D8F998F80010084309992A
:10257C0088F80000864800684268864890470A98A8
:10258C0088B1814800783918013991FBF0F202FBCF
:10259C001011C8B20D91400050FA81F07B4901EB4B
:1025AC008000B0F81CB079480123A0F814B0834621
:1025BC0004820D98BBF912209BF80D108BF80E00BD
:1025CC00059804800B9C204624F09AFABBF9142041
:1025DC009BF80E102046022324F092FABBF8100050
:1025EC00354656B10199DDF80CA0069E8142A2BF7A
:1025FC004FF0010A0121039102E0069E4FF0000A00
:10260C00049981424FF07C01B8BF78210B9C204685
:10261C0022F012FF0EF0E4FA07469BF80F00062199
:10262C00FC22C01B8BF80F00204626F0E7FB0E990E
:10263C00FC209BF80E3008709BF8021017FA86F0FD
:10264C000E93014450480078B1FBF0F202FB1011DC
:10265C008BF802100D910131CAB2B2FBF0F202FB01
:10266C0010118BF8011003EB43010BEB8101898BEB
:10267C00102906D10E990131B1FBF0F202FB1010BA
:10268C000E900C98C01B0C905FEACA703FF40FAE12
:10269C0007E0012057460A9049E7029851E70024C9
:1026AC006CE07C2022F0E2FE0446FF284FD17E2015
:1026BC0022F0DCFE0446FF2849D19BF8014004EBD4
:1026CC0044000BEB8000807DFF283CD02E489BF80B
:1026DC00021000780144013991FBF0F202FB101456
:1026EC0035E02B480999006842682A489047274EE4
:1026FC00002525480078854214D2ECB2204615F00E
:10270C00F7FB98F80010084388F8000045B11E4804
:10271C0000780138854203D020467E2122F08CFEC1
:10272C000135E6E7B18B01380024B070C0B2F4700B
:10273C007470F180FE2122F07FFE00207C2122F0BB
:10274C007BFE74711AE020467E2122F075FEE0B209
:10275C00FE218BF80340400050FA84F00BEB800014
:10276C00808BABF806009BF8020022F065FE00207F
:10277C008BF80500BBF81000C0F5005420B21FB058
:10278C00BDE8F08F34230020D1820020987A0020FD
:10279C00D801001000400340002000112DE9F04F3B
:1027AC0089B022F075FBDFF810158122DFF8148553
:1027BC00DFF814A5DFF82045DFF814E50A70DFF820
:1027CC00FC140860DFF8F804FF2101700020DFF82A
:1027DC000415A8F800008AF80000DFF8F004096876
:1027EC00007891F808B04FF6FE718EF8000059444D
:1027FC008AB2A168D1F80031DB899A4200F2678174
:10280C000422DFF8DC54A8F80020DFF8D02412688A
:10281C009668330ECEF80C60C6F301592B706FF02E
:10282C00FF0303EA1627B3B2D1F8B86047EA1327BF
:10283C00AEF8047036781EB9B9F1020F00F047817A
:10284C00B9F1030F00F043811B0A03F0070316B123
:10285C00002B00F03C81DFF88CC4042B9CF800C0EA
:10286C0008BFBCF1000F00F032813EB1DFF8786494
:10287C003678862E02D1022B40F02981BB0416D467
:10288C00BBB203F00703022B08BFBCF1000F20D032
:10289C00DFF854140978862909D10020764622F0F5
:1028AC004BFBDFF84004B64690F800C030780028A7
:1028BC004ED0BCF1000F4BD1012800F00881032849
:1028CC003FD0022844D1BEF80400400740F0FF80FE
:1028DC003EE0D1F8D40090F88300022800F080800C
:1028EC0027460520147BF246A946A8F8000027F0DD
:1028FC0037FD0546DFF8F003007886286DD1B868FF
:10290C00016C096811B9D0F84C05804760B2002100
:10291C00002628F00BF9B9680A6C12685077086C1D
:10292C0000688677086C0068C477284627F0E7FFB4
:10293C00BAF8041099F8000001F010011DF05AFECD
:10294C004EE0BEF8040000F00700032840F0BF8002
:10295C00BEF80400010700F1BA80810402D481059D
:10296C0000F1B5809EF80E20C2F38107012F00F014
:10297C00AE809609012E00F0AA80B9F1010F11D892
:10298C0040F0020101F0070103290BD117B93F2ACE
:10299C0040F29D8037B9A168D1F8AC1009780029B4
:1029AC0000F095804FF6FB71B9F1020F0BEB010CA7
:1029BC0019D1CF4BD95D9B5D03EB01090023402A54
:1029CC00B7FA87F238BF012352091A40430616D4CE
:1029DC00002A08BF09F1020915E0284627F08FFFED
:1029EC0026F0CCFB75E0C14B402AD95D9B5D03EB17
:1029FC00010908D3420648BFA9F1020903E0002AE5
:102A0C0018BF4FF00209C0F300205FFA89F11FFADA
:102A1C008CF30A1A8EF801009A4258DC6044039138
:102A2C00B346401AA168AEF806007430D1F85012C3
:102A3C0080B28847A6490028886048D07421CDE927
:102A4C00019727F033FFA24F0020B870A5480078FB
:102A5C0020B9387900F020008AF8000078789AF8CC
:102A6C000010DFF878C24FF000092E4600299A4971
:102A7C003DD000284FF000003AD1B88800F0070094
:102A8C00032807D0012832D18868D0F8D40090F8F8
:102A9C00820060B3C8684069007818B126F0B4FFB2
:102AAC00FE280DD08C488068D0F84C02804738B98D
:102ABC0089488068D0F844028047002800F0F780ED
:102ACC00834F0120B870DFF814C22E4610E026F0B8
:102ADC000FFE27F045FC814900240A6813681C711D
:102AEC0012680A6027F00BFF09B0BDE8F08F0020D8
:102AFC00BC6804F1740184F830B06160A165797828
:102B0C00BB88FA880029A381029B228184F83A3081
:102B1C00337808BF994697F80EB084F84990019D18
:102B2C00A4F85C20FF22B8F80030A273CBF3011993
:102B3C005E1A797BA8F8006001F0780160F38201DD
:102B4C0001EB09002074280600F0AE80DCF80000D0
:102B5C0004AF039A10FA86F000F10801384627F00A
:102B6C00C5FF56FA85F0CBF38105A8F80000207C50
:102B7C0000F04008CDB3B9F1020F06D1B8F1000F47
:102B8C0003D0B4F8440004AF06E0BDF810000237DF
:102B9C00A4F84400A4F84200564EF189884203D0B0
:102BAC004FF6FF7188425ED1032D11D104F1320032
:102BBC00394627F01FFF464CF11CA068323025F037
:102BCC0039FC454900284ED094F80EB008370EE079
:102BDC0037F8020BB1898842608606D04FF6FF7138
:102BEC003B4C88423C493ED101E03B49384CBBF15F
:102BFC00400F20D3B9F1020F06D16DB9B8F1000F17
:102C0C000AD13348806803E0A068017C490603D4EC
:102C1C0039880237A0F84210BBF1C00F06D32C4CF8
:102C2C003946A068283027F0E5FE03E0284C3888A8
:102C3C00A168088528498968A088D1F8AC20127849
:102C4C00B2B1B9F1020F13D200F00700012802D083
:102C5C0003282FD11E4C6DB9264AA368D289B3F82C
:102C6C004230934206D01CF0C0F919F035FF30E722
:102C7C0000F00700032806D0012815D1D1F8D400A4
:102C8C0090F8820080B1A068D1F848128847104AA9
:102C9C0050B90020D17B9070907BC1F3011100F0F2
:102CAC00780008449168087407F0E2F811E7084FBF
:102CBC00B87808E7064CDDE7E68200207082002039
:102CCC00EB820020F2800020E9820020E8820020C4
:102CDC00C0240020B08200200C01002008820020BB
:102CEC00F9820020F8820020EE82002050C60200FB
:102CFC004CC60200348100202DE9F04F8DB00C46FB
:102D0C0048070FD4200441D4E00400F17E81200652
:102D1C0000F1A581A00700F1B981200500F1DC814B
:102D2C000020D3E1DFF8F0040178062900F2948149
:102D3C00DFE811F007008201920192017B01920100
:102D4C008701DFF8E054DFF8D4142A7891F82B309F
:102D5C00022A02D19E0600F17F815E0700F182817A
:102D6C009B0740F179810423037091F82C30DB0729
:102D7C0000F0728191F82E30002B00F03B8225F090
:102D8C00CBFD0420012101F005FD3FE2DFF89804A2
:102D9C00DFF88C54DFF88094DFF880B4DFF884A47B
:102DAC0048F202080088019028781CF0EBFD0028FE
:102DBC0000F0288106460078D3282DD1F0894045B3
:102DCC0040F00681DFF868040078002800F00081EC
:102DDC0099F80000012840F0FB8027F041F800280A
:102DEC0040F0F6807088002840F0F28002AF12218B
:102DFC00384627F05BFD27F077FC3046394618F053
:102E0C0053FABDF81400B0F5285FC0F0868001209D
:102E1C0002211FF0CDF9DBE099F80010884218D19F
:102E2C00012833D0032840F0D3809AF800000138F1
:102E3C00012800F2CD80B078012850D0002840F055
:102E4C00C7807078002800F0B38000201DF036FE9B
:102E5C00BEE00A2806F102070BD19BF82B0030715B
:102E6C00DBF8181009B138468847384625F064FB62
:102E7C00AEE0092840F0AC809AF80000002840F041
:102E8C00A780DBF8081038468847A1E09AF80000C4
:102E9C000138012800F29C80707860B19BF83300F7
:102EAC009BF8341001308BF83300C0B2884202D941
:102EBC000120002153E099F80100032863D0022877
:102ECC0050D0012840F08480DFF86403007800289B
:102EDC0040D026F0C5FF00287ED001203BE0707862
:102EEC0000286BD027F072FA4FF6FE71D14F884252
:102EFC0002D1F88A884206D0F982ADF8201053200E
:102F0C0008A91FF015FE1EF0C7FC25F075FB00206C
:102F1C0087F826001DF01AFB5AE0C748006807A97D
:102F2C0008AA16F081FE07460198874212D29DF836
:102F3C00300010B1FD208DF83000042039461422E9
:102F4C0008AB24F0DFF8BD4907EB470001EB80002C
:102F5C000121417200208BF832000120012101F087
:102F6C0019FC35E001208BF804004FF48060ADF8BB
:102F7C00200008A818F0FCFE27F0B6FBAB484FF475
:102F8C008051026821E008AFAB2000213A461CF0CA
:102F9C00C5FB042002978DF80C0002A80FF09AFADA
:102FAC0027F0A2FB28784FF4805141F288320DE0D3
:102FBC000FF06CFFDBF8140050B9ABE702204FF4B4
:102FCC00805140F6B83289F80200287827F0CDFC01
:102FDC00304625F01DFEE7E69BF8350028B1DBF8FE
:102FEC001C000028F4D08047F2E7002000210222C8
:102FFC000023ADF8200002208DF8280008A825F049
:10300C00CFFFCDE748F204005EE086480078013837
:10301C00012857D88048017803294BD0012951D178
:10302C00417800201FF0C4F84CE025F075FC04201A
:10303C00012101F0AFFB0FE0012001211FF0B8F8D6
:10304C000AE0002132220170744880F82A1074487A
:10305C000421007827F089FC24F0040036E049F2C2
:10306C00840031E00522027091F82C20920730D5B3
:10307C0091F82E206ABB05220260012048700020C6
:10308C001CF0DCF9022024F0DBFBE5E76548007856
:10309C00013801280BD80020CDE9080008A811F050
:1030AC0069FF20B15E48022100781BF0A1FC49F2B7
:1030BC00860009E08178022904D101218170002069
:1030CC001FF052F849F2040024EA00000DB0BDE8EC
:1030DC00F08F05200021ACE752480078002840F022
:1030EC008680DFF838A1DAF80C50002D79D002A8D0
:1030FC000DF1200B01300BF104060190002D6DD069
:10310C00A87A18B10138A872000646D19AF8318015
:10311C00B8F1000F11D00020A91C08228DF8200056
:10312C00304626F055FF584618F05CFE28B12A8828
:10313C00BDF82200314623F001FEAF1C0DF11F013A
:10314C005A46384616F070FD8146384607A923F0DA
:10315C0014FBB8F1000F05D09DF8300040F00200D0
:10316C0002281CD1DAF80800A0B1019839460822CF
:10317C0026F02EFF022000220C238DF80800BDF84B
:10318C001C00ADF812002648007802A90091092114
:10319C0020F02BFC28461EF029FAED68AEE73846E5
:1031AC0024F089F89DF81F000128DBD15846142122
:1031BC0027F07CFB214A09EB490000215B4642F8D1
:1031CC00201002EB8000142241604172FF2049461E
:1031DC008DF83000042023F095FFC3E7DAF80C00DB
:1031EC0028B90F484FF4006100781DF035F849F606
:1031FC00860069E7013A012A08D8032202600120FF
:10320C0048701CF01BF9012024F01AFB28780028C8
:10321C007FF422AF04205DE7448200206C22002062
:10322C00D9820020B4250020C8C602000427002043
:10323C00512700208875002018820020383E00207D
:10324C002DE9F04F97B0DFF8DC640546DFF8D87451
:10325C0030780328387040F03C8100203070387092
:10326C000DAC204627F0D2FB2046002126F046F874
:10327C00DFF8B894B8603A21484627F017FB4FF0B6
:10328C00FF30A9F81400C9F81000C9F80C0023F09D
:10329C004DFC002029461EF0DFFC07F11001F86000
:1032AC0027F03FFBD7E90502DFF884B4B0FBF2F15D
:1032BC00C9B2032928BF0321B2F5005F89F80010B9
:1032CC008BF8001040F00381B0EB413FC0F0FF8061
:1032DC00F868002800F0FB804FF40050FF224FF0FC
:1032EC00000845F201174FF08855A9F80600FF2099
:1032FC0089F8032089F8058005900020CDE90800A5
:10330C00CDE90600CDE90A000C90FF200490CDE930
:10331C000200CCB2A04580F0DF805FFA88F6002175
:10332C0016AA0423304626F01BFEDFF80C44304668
:10333C00002115AAA0473046012114AAA047304607
:10334C00022113AAA04716996FF06F0050FA81F270
:10335C00C8B20E2A04D8012303FA02F23A4203D16E
:10336C00A0F1FE02022A04D242F28352B2EB914F38
:10337C001ED0304614F0BCFDDFF8AC1300280870EA
:10338C0040F0CB803046002116AA042326F0E8FD3D
:10339C00DFF8A4433046002115AAA047304601218E
:1033AC0014AAA0473046022113AAA0471699C8B206
:1033BC0008EB4802CA4609EB8204C1F30142090A30
:1033CC00E1759DF8561004F11609FD28627689F80E
:1033DC000000217601D9102135E0BDF854104FF6CC
:1033EC00FF7291422FD10EA821F07AFA30460021BB
:1033FC004FF088524FF400534FF4005726F0B0FDB5
:10340C006FF0030313FA87F7B8B241594A1C01D184
:10341C000328F7D801220126D3B2042B06D8CBB24D
:10342C00FF2B18BF16460132090AF5E74151C34874
:10343C000E9900684268C248904799F8000057FA04
:10344C0086F145F20117A1839DF852107028A176E0
:10345C00BDF85010E1839DF84E10E176BDF84C108C
:10346C0021842BD07828D14624D07C280BD07E28E0
:10347C0015D0FE280DD0FF2818D10898CDF80C8057
:10348C00013008901EE00798CDF8108001300790AD
:10349C0018E00B98CDF8148001300B9012E00998CD
:1034AC00013009901FFA88F002900BE00C98013063
:1034BC000C9007E006980130069003E00A98D1467C
:1034CC0001300A909BF8001008F1010821E7012057
:1034DC00307017B0BDE8F08F0C98934E00060BD1EE
:1034EC000B98C0B2012807D80A98C0B2012803D89B
:1034FC000998C0B2012812D98E4804220024027007
:10350C00CAB2E0B2904211D214F0F2FC317801341C
:10351C0008439BF800103070F2E7834E18E0089ACD
:10352C00D0B2A04216D1834800220270002089F844
:10353C00030089F80100481E7E2189F80200B9F8C1
:10354C001C00A9F80600002021F076FF27F0F9F8FE
:10355C003078BEE70A98000624D00B98059B00062D
:10356C0003D1039B100600F0858072480222DDB265
:10357C0089F802300270581C82B2B2FBF4F202FBE2
:10358C00110089F80100284614F0B2FC307028466E
:10359C00FE2121F051FF012089F805000020FEF7E3
:1035AC0021FED5E70B98000605981DD0034661480F
:1035BC00012289F802300270C8B2591C89B2B1FBE1
:1035CC00F0F202FB1010049A91B289F80100FF2965
:1035DC001ED10299FF2940F0978081B289F803002F
:1035EC00490011FA80F093E0DDE906201043000653
:1035FC003FF482AF23F06EFAA0423FD30898000646
:10360C0000F08C8027F09DF89BF80010039BCEE710
:10361C00480089F8032010FA82F009EB8000818BB6
:10362C001829A9F8061093D30739D0B20EAA89B27B
:10363C0017F0D4FA9DF843004007AFD5B9F806103F
:10364C00BDF84620002399F8030000930323891A40
:10365C000EAA073989B207F0DBF900287FF478AF9E
:10366C00BDF8441000293FF473AF9DF848001DF0DD
:10367C0083FD6DE723F02EFAA0424FD22D48032193
:10368C00017023F027FA044689F80C0000EB400087
:10369C0009EB8000408BA9F80D000DF0A1FA9BF806
:1036AC0000102044B0FBF1F202FB110089F802007B
:1036BC000130C2B2B2FBF1F202FB110089F8010039
:1036CC007C2021F0D3FEFF2812D17E2021F0CEFEEB
:1036DC00FF280DD1FF2021F0C9FEFF2808D178204A
:1036EC0021F0C4FE014699F80100FF2918BF0846D5
:1036FC00C1B289F80300490051FA80F009EB80004F
:10370C00808BA9F8060021E701EB410089F8031032
:10371C0009EB8000808BA9F8060019E70548062103
:10372C000170FEE72D27002034230020987A00201A
:10373C00D1820020DD82002021A40200D8010010DB
:10374C00004003402DE9F84305460C46480413D4C9
:10375C00A00024D4A0075CD460057ED4200500F121
:10376C000681200700F13B81600040F1F6801AF0E1
:10377C0071FC24F08044F0E026F0F2FDDFF81C141C
:10378C000F6D3FB1D7E90A1202F0E04201F00A01D5
:10379C00891849D027F0B3F824F48044DDE0BB4805
:1037AC00DFF8FC73016841F080010160B8780128F2
:1037BC0004D1042021F0C2FE0020B87026F0D0FD08
:1037CC000646042026F074FEDFF8D8130A689042EF
:1037DC0019D12A7EBAB1FA68AAB1DFF8C003806C9D
:1037EC00002800F09780C16840F6030209889142D6
:1037FC0006D0C06840F604010088884240F08A80F8
:10380C0005F1140088E040F6C4120860C5E90422F2
:10381C0084E009F0CBFDDFF88403006C002840F055
:10382C009D8024F0020498E0D7E90A65D7E90A12D2
:10383C00AA43B143C7E90A1227F061F8B868002817
:10384C00AAD056EA0500A7D0D7F808C03869B7F94E
:10385C00301032462B46E0479EE726F081FD0546A8
:10386C0024F06AFB002800F0B780CC48876B002F4F
:10387C0000F0B280DFF828830420CB49002288F8BE
:10388C001800C64825F0B7FF27F069F8C74827F09D
:10389C0030F8C7480068006B8047C8F81000012555
:1038AC00042088F8025022F039FC386990F828106E
:1038BC00C8F80400490703D5436A0421002298473D
:1038CC0001201CF0B7F8D8F80400457613F04AFB39
:1038DC00D8F8040081680B461A465B684BB11E8809
:1038EC00A6F60306072EF7D805FA06F616F0830F90
:1038FC00F2D0537B03F0F003013353730023FD68C4
:10390C0053602D88A5F60305012D00F28A80C8F8B6
:10391C0010309FE005F110001EF0FAFF304626F043
:10392C00EEFF22F013FC78B12E6A28466FF48071FA
:10393C0000224FF00073B0479848806B10B11AF01A
:10394C0089FB01E044F00204EE69284600210022C4
:10395C004FF08063B04724F0005434B197482146AF
:10396C002830BDE8F84327F0B0B8BDE8F8838C4E9A
:10397C00B078012804D1042021F0E0FD0020B070C3
:10398C0022F0E4FB38B170686FF4807100224FF0C4
:10399C000073056AA847306950B185480068006B10
:1039AC00804732697168801A000BC8600020306152
:1039BC007A4D81490022284625F01DFF02203076E1
:1039CC00286C20B17D480221283027F07EF81AF0AF
:1039DC0041FB24F40064C0E726F0C1FF41E026F06F
:1039EC00BFFC054624F0A8FAA0B1DFF8B48198F822
:1039FC00000000070ED498F9000000280AD468468D
:103A0C0013F090FD08B1009820B1DFF8B49199F84B
:103A1C00610048B326F0A3FF1AF01CFB24F0080445
:103A2C009BE7034633F8385FA5B190F8445090F803
:103A3C00456005F0F00580F8445006F0F0050135BE
:103A4C0080F8455000255360C5634587507B00F0D6
:103A5C00F000507357480022C2610160012024F02D
:103A6C00BBFE24F4806478E700260127602E0FD07B
:103A7C0009EB0600817A31B18772407A07FA00F0BF
:103A8C00C0B221F075FD2036F0E700BFCC21084014
:103A9C00032088F81800454826F02BFF26F05FFF1E
:103AAC00444F3E4D0022786900207861F968F86037
:103ABC002846444925F09FFE3D480068006B80472E
:103ACC00D8F80C10D8F82020411A02EB1130B0EBCA
:103ADC00113F38BF4FF0FF3098F82410C8F8200081
:103AEC0021B1D8F80810B0EBC12F20D924F084FEF6
:103AFC00B8B140F60900414621F83C0F002048803F
:103B0C004A7B02F0F00201324A730A7B02F0F002A7
:103B1C000A734860F8613960B8F83E0010F4406FE1
:103B2C00FAD00020C8F82000012088F824001EF0EC
:103B3C004BF82548002101600220002124F04CFEA6
:103B4C00022021F0FBFC102012F014FE98F801006A
:103B5C0020B9D8F80400503026F0B3FF1B48807809
:103B6C0010B90D2012F006FE98F8250028B100209F
:103B7C0088F82500052021F0E1FC002088F81800C9
:103B8C001348C8F81C000220B5F85610B5F854209C
:103B9C00914208BF072019F00FFB3DE7A020002041
:103BAC00A41E002074260020217F0200187900201A
:103BBC008C01001000100440F9110100E01F0020DE
:103BCC0000760020C5E0010000000460A4C50200DE
:103BDC00CD0701002DE9F04F8DB084780226142C0E
:103BEC0000F214820546DFE814F0360015001500CB
:103BFC008900C700110211021102110211021102F7
:103C0C001102110211021102110228006600790042
:103C1C00E100D000012095F80180022C8DF83100D4
:103C2C0039D1E878291D03288DF82C0040F0E38069
:103C3C0009A8082226F0CCF9E2E0E978032900F281
:103C4C00C281281DDFE811F00400BB01AA01B201FA
:103C5C0019F054FBD1E110208DF8240026F01FFF41
:103C6C0098B10446DFF8B00321466060E81C10F000
:103C7C00EFFC8DF8240028B9204624F0FFF98DF8CC
:103C8C00240010B1204626F008FF002609AB642062
:103C9C0000210122ABE1E81C02218DF82C1026F04A
:103CAC00FAFEADF824000020AE1DADF82E006879A8
:103CBC008DF82D00AFE0E81C26F0EDFED54C6668C3
:103CCC00002E00F00E816A79002A00F041813368E1
:103CDC00A91D184426F07CF9002003E1CD4EEC1C04
:103CEC0004212046376823F0A7FA002F00F08180CA
:103CFC00B968814200F0CD803F68F6E701208DF86D
:103D0C0032000020CDF82A00ADF82E00CDF82600A8
:103D1C0002208DF82C00E81C26F0BDFEADF8240026
:103D2C006979A8798DF82D1026F0E2F98346E81D03
:103D3C0026F0B1FE95F80C908046687AAC7A95F82E
:103D4C000BA04FEA49078DF83100384626F0A7FE44
:103D5C00002800F0CA80CDE9074806464FF000085D
:103D6C0005EB080047452FD00D3026F094FE26F8C1
:103D7C00080008F10208F3E7E87821F0E3FC8DF87D
:103D8C00240009AB642004213CE10026E878ADF85E
:103D9C00246009A924F00AFBBDF824000DF13203BC
:103DAC0014210222ADF83200642020E1A888ADF87D
:103DBC002400E87809A925F01DF98DF832000DF1E1
:103DCC003203642013211DE1BBF1000F00F0DB80F6
:103DDC00437B0DF131010E30CDE90496CDE90001A4
:103DEC0007985946CDE9020A09A8089A1EF0D6FB95
:103DFC00CAE00120F4E0084626F04DFEADF82400A0
:103E0C00287B8DF82D0005F10D0026F044FEADF851
:103E1C002E0005F10F06307826F06AF90546701C65
:103E2C0026F039FE8146F07896F804A096F805B095
:103E3C00022C8DF8320008D1B01D26F02CFE07465E
:103E4C0006F1080007F1140103E0B779F01D07F142
:103E5C000A0135B189B2FB2905D36E4E7068002872
:103E6C0047D0022009E00DF132018DE8030C09A8BE
:103E7C004A463B46294603F04BFE8DF8310008F0CC
:103E8C00E000202840F0C1800DF131036420214670
:103E9C00B8E0EC1D204626F0FEFD6D7A002D00F0FA
:103EAC00948005F102098246484626F0F8FD002868
:103EBC0000F095800026457080462A46067078688A
:103ECC0000EB0A0108F1020026F082F85FFA89F291
:103EDC006420122143461FF02BF9404626F0DDFDED
:103EEC0094E010208DF8240049E010208DF8320069
:103EFC004FE007F11C0026F0D2FD0028706079D04D
:103F0C0000F11C010C22016000208DF8310070685A
:103F1C0009A9043026F05CF870680F214FF47A720E
:103F2C000561C1769DF832103B4DC782A0F8149004
:103F3C0080F81AB080F819A001762878082126F0AC
:103F4C0014FD00289BD0287808211AF051FD96E723
:103F5C00D6F800C0F38AB28A3169757EB77E06F155
:103F6C001800CDE900C0301DCDE9025703F0D0FD9B
:103F7C008DF82400606826F090FD0020606009AB8D
:103F8C00642011213EE002208DF83200304626F0EC
:103F9C0084FD0DF132036420032133E0007826F018
:103FAC00A7F848B325F076FD002026E026F073FD37
:103FBC00A97926F0ADFAB0FA80F040091DE000783E
:103FCC001BF084F919E0022017E03068B84201D1E7
:103FDC0038683060384626F060FD002000E0102084
:103FEC0000262070642012210222234666701FF0E6
:103FFC009FF80BE0102040E701208DF8240009AB5E
:10400C006420102101221FF093F8002630460DB0D9
:10401C00BDE8F08FF8250020D08200202DE9F04F6C
:10402C008FB00C4608040CD4A00426D4DFF88853B7
:10403C00287802282DD1E10740F00381A10641D553
:10404C0058E0DFF86C0300781BF09CFC90B1017811
:10405C00DFF8602305460020602808D0135C083088
:10406C008B42F9D1104450F8041C28468847284646
:10407C0024F0CEFD84F4004595E11EF04DF928B1F5
:10408C000546FCF7EFFD284624F0C2FD84F40055EC
:10409C0089E1A1062ED4012814D8E10600F117817C
:1040AC00610600F12F81210600F13D81E10500F14F
:1040BC003F81210500F14181E10400F1548161044B
:1040CC0000F15B81A10700F1E280A10500F1FA800B
:1040DC00210700F11181610500F11981E0034FF016
:1040EC00000540F160811CF0F9FBB648C57084F402
:1040FC00803558E1AE4F202138781FF039FEDFF8BB
:10410C00C4824FF00109D8F80810084317D026F0E4
:10411C0098FC054626F093FC68434FF47A71B0FB8B
:10412C00F1F0D8F80810401A4FEA500938BF6FF078
:10413C0000490025002964D0B9F1000F61D000209E
:10414C000421002223F01CFC06464FF0060A4FF017
:10415C00FF0B4FF6FF7802AD002E4ED030460421F7
:10416C000022374623F00CFC06463889B0EB0900D8
:10417C0038BF002038810004EED1B87BD0B30128C1
:10418C000AD17889400707D4386887F80DA0B72181
:10419C00407B1EF079F8DFE739682A468DF806B0C7
:1041AC00ADF80480086AC97F0DF016FA01281BD1FE
:1041BC00B87BB97A8DF838000907788A40F080020C
:1041CC00ADF8362006D540F4C070ADF83600387B1B
:1041DC008DF83A00786910B1007BADF818002846CC
:1041EC0001A9002202F064FE387B87F80DA016F0BE
:1041FC00B5FBB1E701207873AEE7DFF8C8816C4FEF
:10420C004D4623F00AFD00200121002223F0B8FBCB
:10421C0018B1387820211AF0EBFB00200421002281
:10422C00002623F0ADFB002847D00689042100228C
:10423C0023F0A6FBA0B1B1B20689B14238BF0E463D
:10424C00F4E7644890F82C100F2906D190F826005A
:10425C00022802D3002021F031FF84F00105A2E0F6
:10426C00A8B2B1B2814223D9D6FA55F0202180B23E
:10427C004200387826F079FB26F0E3FB054626F061
:10428C00DEFB68434FF47A71B0FBF1F615E052484F
:10429C00007808B302AD284626F0CFFA26F084F851
:1042AC004E490B784E490A7829461BF013FB20E047
:1042BC00387820211AF09CFB0026C8F8086084F09E
:1042CC00200570E015F086FF84F400756BE008F0B3
:1042DC00D1FB84F0100566E03E48418B012026F0AE
:1042EC00D4FB2878022804D13148012100781BF036
:1042FC00B3FF84F0020556E03248012184F0080532
:10430C00817050E00CF0E0FA84F040054BE002289C
:10431C0008BF16F023FA2F480121808C26F0A7FB4A
:10432C0084F480653FE025F093F884F080053AE052
:10433C0023F032F984F4807535E01BF0E1FF20485E
:10434C00007801280CD11D48007848B14FF47A71DF
:10435C0000FB01F216484FF40061007826F002FBD6
:10436C0084F400651FE01748017819B10021017031
:10437C001BF0C6FF84F4805515E01448006880B12A
:10438C001149097801290CD180471148006800B106
:10439C00804707484FF480414FF47A72007826F03A
:1043AC00E1FA84F4804528460FB0BDE8F08F00BFD9
:1043BC00D2820020CCBE0200B4250020632700204E
:1043CC00642700209025002061270020182300205E
:1043DC0024230020887500203C270020672700201C
:1043EC00692700202DE9FE4F8846080426D45FEA91
:1043FC00C87004BF0020BDE8FE8FE548056826F0B4
:10440C0020FB044626F01BFB60434FF47A714FF6F9
:10441C00FF72B0FBF1F14FF6FF70002D00F01A8126
:10442C002B886C88CB1A9BB29C4240F21C81E31AFD
:10443C0094B2A342B8BF1A46ED68EEE7DFF840A38A
:10444C00CDF804809AF800001BF09CFA002800F0CC
:10445C00FC8006460078012840F0EC80DAF8041065
:10446C0096F83390D6F814B096F8138021B14846DC
:10447C008847002840F0DE80718896F831000222CF
:10448C0022F0C2FF0546002842D0287A297CA0F1F0
:10449C000108FF2900F0BB80707F4F46C00718BF92
:1044AC000027E97C287D0144B94204D8E974FF2136
:1044BC0001FA00F06874A969A87C96F83020896A22
:1044CC0010FB0710F16A25F083FD287D697CB7FB92
:1044DC00F0F202FB107001228240D2B20A436A74DD
:1044EC00C8457CD196F83010AB7C13FB0713A96937
:1044FC008B844FF4FF7303FA00F0C0B21043FF2813
:10450C0068746CD1287C1BF069FAFF2028747FE05A
:10451C00707FC00700F08E80B07F25F0E9FD002889
:10452C0000F0888004461C2026F0B9FA002800F020
:10453C0081801C21054626F0B9F9B07F02A923F031
:10454C0035FF9DF8090002212875284623F094FFB9
:10455C00708896F8312096F8301096F83330A88091
:10456C00287DEA71FF2202FA00F068746068007816
:10457C00A9742874302013FB010080B223F03AFC9C
:10458C000028A8615DD004461A20B11C2060708CF4
:10459C00A080A01D24F03CFDF27F04F13000B17F1F
:1045AC0096F82830C4F81CB084F81980A062307CCE
:1045BC00E273744A217563750121A075928C228275
:1045CC00F28EA285F28C6282B6F81100A4F8170064
:1045DC009AF8000085F808901AF00AFA55E726F0C8
:1045EC0030FA044626F02BFA60434FF47A71B0FB94
:1045FC00F1F06549288063480978007948436421C3
:10460C0048436249097800FB0100688000E04F468E
:10461C00E87C297D6A7C01440139B94218BFFF2A24
:10462C000CD186F83300708806F11C0186F8342012
:10463C0017F063FB304624F0EBFA03E7C845F9D1D9
:10464C00EFE7284623F028FFF4E7019880F40040B8
:10465C00BDE8FE8F92B282424BD0494801210078CE
:10466C0026F083F945E0A879022806D1287CFF289A
:10467C0037D0A86924F0CCFA33E026F0E2F90446EE
:10468C0026F0DDF960434FF47A71B0FBF1F03F494D
:10469C00288095F83800097888421BD295F8362086
:1046AC00FF2A06D195F83720013085F8380085F8B7
:1046BC00362095F8351095F8394082F0FF0300202C
:1046CC000126C7B2A7421DD206FA07F71F4214D122
:1046DC000130F6E7EA8BA87E95F82A10E9231FF043
:1046EC0091FC284623F0D8FE2548012100781AF0C9
:1046FC007FF988F00100BDE8FE8FFBB201441A433C
:10470C0085F83620AB8F95F83440C8B204FB1033D3
:10471C009EB2A64203D2FF2285F8362002E0FF2A81
:10472C0008D12346184A174E1278367972436426FC
:10473C00724302E095F83A2023466A802A8D0E06D1
:10474C0006D022F0200244432A852A6C224404E03D
:10475C0042F020012A6C2985297A85F82E10E979F6
:10476C006A6285F82D10D9B269840549496811B17E
:10477C0088470028B8D105F1100004F049FDB3E7D3
:10478C00D825002088750020572700205D270020A1
:10479C00FC7500207FB50138072800F24E810C46CD
:1047AC00DFE810F0080050009F00B900D4004B0166
:1047BC002C007800CC4800780138012800F23D81AB
:1047CC00002C00F04A810020032100241FF054FE2D
:1047DC00C74DC84E0420042132222870307826F0B0
:1047EC00C4F80820002107F04DFA30786C704FF4B3
:1047FC00805104B0BDE870401BF02EBDBA4D0020B6
:10480C008DF80E00002C287800F0BD8018B9092016
:10481C0024F032F82878022806D10820002107F06D
:10482C0031FA042024F028F811F03EFDB0480021A4
:10483C00C8220170AD480D2180F82A10AD4826F031
:10484C0018F8B9E00020002525F05AFCAA480121EF
:10485C00017004208DF80E0074B1A448A24C45855B
:10486C002078012803D1072024F006F820780228AC
:10487C0002D1062024F000F89D4804213222057054
:10488C009C48007826F071F8984890F82B1001F0AD
:10489C00FE01D0E005208DF80E0093480078022828
:1048AC0040F0CB80002C00F0F28091480022C178BF
:1048BC00C270017042F20800002107F0E3F98B4846
:1048CC000D2190F82B2080F82A10C17802F0DF021D
:1048DC00002980F82B200CBF04200D2023F0CCFFE6
:1048EC00ABE0814800780138012800F2A6808148AD
:1048FC0004213222007826F038F8002C00F0D08009
:10490C007A4C7B48012101702069002800F0A480BA
:10491C0020F0DEF9F8E70120002C8DF80E0051D0C4
:10492C0072480021764A80F82A10744825F09CFDC4
:10493C006D4C2078012803D1072023F09DFF2078AF
:10494C00022846D1062023F097FF42E002208DF882
:10495C000E006648002C49D00021694A80F82A10C4
:10496C00664825F081FD002003211FF085FD5E4C7B
:10497C002078012803D1072023F07EFF207800281F
:10498C004DD1092049E0594C022812D194F82E003F
:10499C0078B194F82B00002140F0200084F82B0013
:1049AC0005208DF80E00082007F06CF90A2023F082
:1049BC0063FF022084F82A004C4890F82B1001F079
:1049CC00EF0138E04848007818B94848022180F8CF
:1049DC002A104748002132220170464825F049FF31
:1049EC00424890F82B1001F0FD0124E0082180F8DA
:1049FC002A103D490978012911D890F82E0070B978
:104A0C0000200DF10B018DF80B0052201EF090F8D8
:104A1C0025F0EAF81FF016F9002023F02DFF34489A
:104A2C00002132220170334825F023FF2F4890F8E3
:104A3C002B1001F0FB0180F82B102C480DF10D010F
:104A4C000022032390F82A008DF80D0029480078E5
:104A5C0000910A211EF0C9FF7FBD244C0720254D73
:104A6C004FF4805184F82A0001208DF80E0028782C
:104A7C001BF0F2FB0020002622F0F6FE2878022123
:104A8C0041F2883284F82B6025F06FFFD5E7174888
:104A9C00022180F82A1090F82B1041F02001CAE76F
:104AAC00124C022000218DF80C1084F82A001048BA
:104ABC00017094F82B0000F0FD0084F82B0001200D
:104ACC008DF80E0003A952201EF032F825F08CF858
:104ADC001FF0B8F8002023F0CFFE20690028ACD0DE
:104AEC0020F0F6F8F9E700BFB42500206C22002076
:104AFC0044820020D9820020542700208875002091
:104B0C002427002092B0DFF8EC92D9F8000010B105
:104B1C00002180F84510483021F0E0FC25F020FC05
:104B2C008046072011F010FB18F07CFB10B1B24846
:104B3C0025F0C0FD1AF0D6FF01AD284625F0B8FAD5
:104B4C000427002029468DF8047025F0B9FAAB4CE7
:104B5C00206024F0F5FE0AAD284625F059F9002016
:104B6C0029468DF8287025F05BF9A54E306024F0AD
:104B7C00F1FE06AD284625F05BF9002029468DF89C
:104B8C00187025F05DF931689E4D286019B99E4862
:104B9C0025F090FD286810B99C4825F08BFD206805
:104BAC0010B99B4825F086FD1DF072FAD9F800006B
:104BBC004FF0FF3438B1CDE9104410A9082224F08D
:104BCC002BF901281BD1CDE91044082025F067FFF3
:104BDC00002846D005460026052E04D825F0E3FD16
:104BEC00A8530236F8E74FF6300029460822E88031
:104BFC00884825F0EDF9284625F04FFF09E0D9F853
:104C0C000010CDE910440029DFD08248082225F09D
:104C1C00DFF910AA0120082125F004FD092800D095
:104C2C00D8B922F0DBFB800712D4CDE91044CDE9D2
:104C3C000E440EAB01200021082225F057F860B974
:104C4C000EA810A9082224F0E7F8002800F0CB8069
:104C5C00704A0120082125F0EBFC6E49E2201DF082
:104C6C0067FF12F02DFF282025F019FF6A4E00284F
:104C7C00306055D0694F6A4C07F10C0525F0F5FDF5
:104C8C0025F036F93068056007F1100525F0EDFDCB
:104C9C0064498968D1F84C1388473068456007F13E
:104CAC00140525F0E2FD1CF01DFE3068856007F14F
:104CBC00180525F0DAFD1AF099F93068C56007F18E
:104CCC001C0525F0D2FD20F065FA3068056107F16E
:104CDC00200525F0CAFD1FF087F83068456107F103
:104CEC00240525F0C2FD1DF09BFE3068856107F19F
:104CFC00280525F0BAFD24F02FFC3068C56107F1BA
:104D0C002C0525F0B2FD21F071FB3068056207F12E
:104D1C00300525F0AAFD387024F02AFF3068456272
:104D2C0019F08CFB404841494FF00009CDF84090F8
:104D3C0001603F480321119010A821F0A7F925F03C
:104D4C00A1FA404625F0DBFD17F08EFE25F053FD51
:104D5C0001201EF00DFC1AF043FB374800780228A6
:104D6C0008D134480078012804D14FF400400121C7
:104D7C0006F088FF294F4FF48041387825F08CFBE2
:104D8C002E484FF0FF3100680DF06CFDDFF8B0805D
:104D9C0078684FF0FF310DF065FD3068002550F854
:104DAC002510096821B9691C092D0D46F7D3EFE7C9
:104DBC0025F0F4FC316851F825100C68C1F800900E
:104DCC0025F0DCFD58F825200020214690470446AC
:104DDC0025F0E4FC316851F825100A6822430A607A
:104DEC0025F0CCFDD4E70B480EA9082225F0F0F8ED
:104DFC0033E700BFFC260020A4C202002C82002056
:104E0C00308200203482002083C4020070C402006F
:104E1C00BAC40200E8810020A8820020F8200020FB
:104E2C00E15402000C01002030230020EDD00100E1
:104E3C00008D15007C270020B425002084820020E2
:104E4C00B4C102002DE9F04F89B08A4608040DD494
:104E5C005FEACA7040F01E815FEA8A7000F12C8113
:104E6C005FEA0A7000F13481002045E1A44F3878E4
:104E7C001AF088FDDFF89092A74DA24C06464FF031
:104E8C00000B48F21508002E00F001813078312813
:104E9C0052D0322838D0D32840F0B480F089404525
:104EAC0074D0382840F0AE80CDF820B0CDE906BBE8
:104EBC00304606A921F0F2F99DF81C10052969D895
:104ECC00307B002840F09E809DF81D00002800F0EB
:104EDC009980052800F29680069824F0ADFC0028F5
:104EEC0040F09080707C8949AC467870708808805E
:104EFC009DF81D00214601388DF81D0006A890E88C
:104F0C002C002CC165467DE06079FF2827D000205D
:104F1C0016F040FE0246B9F8701078783346CDF89A
:104F2C0000B013F015F9607900286BD0387808219F
:104F3C00322225F01AFD65E0B878032862D899F87A
:104F4C002E10284624F078FC00285BD1FF207149F4
:104F5C00607170880880B0886D49088052E099F8BB
:104F6C001810706820FA01F2D2071ABF3144097A7E
:104F7C00002100221B2A43D020FA02F3DB0703D0C6
:104F8C00B3181B7A99421ED80132F3E7304622F04F
:104F9C00CBFB37E0FF293DD0FE2956D199F8721092
:104FAC009DF81E00884202D860BBFF292AD11DF053
:104FBC00C1FB069900201B2859D021FA00F2D20718
:104FCC0056D10130F7E7B9F86E00504933460880E6
:104FDC004F4802884F48018810200090002013F0A1
:104FEC00B7F80120F870B87840B93C2002214EF691
:104FFC006022B880387825F0B8FCB8780130B870E9
:10500C0084F805B0304623F003FE38781AF0BAFC69
:10501C00064638E799F872109DF81E00884203D8AE
:10502C000028EFD1FF29EDD11DF084FB069838B193
:10503C00D9F82810814203D0C9F8280023F02CFCA1
:10504C00BDF8200024F0B8FADCE7307B0028D9D179
:10505C0070882E49802200230880707CCDE900BB2B
:10506C00CDE902BBCDE904BB11F086FDCAE71B20DC
:10507C0099F81820C1B28A42C4D02849087099F80E
:10508C000700642100FB01F23878012151E72AF472
:10509C00004031E021491C4C08782076E1201DF0BD
:1050AC0047FD23F0F9FB0020A4F87000012016F056
:1050BC0071FD48F201001DE011488188B1B1013940
:1050CC004EF6602281800078022125F04EFC0FE024
:1050DC000C4C607938B12179206824F0ADFB10B903
:1050EC0060790138607148F20B0003E00021817097
:1050FC0048F203002AEA000009B0BDE8F08F00BFB7
:10510C00582400208081002088750020BA8100205E
:10511C008E7E00200A7B002000F8FF07D58200203D
:10512C002DE9F04F85B08846080418D4AA480078B9
:10513C00012802D85FEAC87156D15FEA88714DD454
:10514C00022807D1A5480078012803D15FEA4870EE
:10515C0000F18A805FEA087059D400202DE1DFF855
:10516C0060A29AF800001AF00DFC002800F02381D0
:10517C000546807FD0B9688C132817D1DFF844928C
:10518C006E880021D9F81C000F1D002908BF09F1F9
:10519C001C0758B101884468B14204D13C6025F029
:1051AC007CFC2046F5E701462046EDE7A87A05F1A0
:1051BC00020B022840F0E580DFF8089295F8317078
:1051CC00BBF8006009F11C000068A0B10188B14275
:1051DC0002D18178B94243D00430F5E779480121F6
:1051EC00017088F00200E8E07648406900B1804721
:1051FC0088F00100E1E0D9F81C00002858D0012209
:10520C0004464068114601320028F9D152E070483A
:10521C00DFF8B091807BD9F81C60000760D425F0D2
:10522C0010FC044625F00BFC6A4A60434FF47A717B
:10523C00B0FBF1F0D9F818101288411A91427AD3C8
:10524C00B1FBF2FB0BFB02F2511A08445E49C9F8A0
:10525C0018001FFA8BF00978884288BF8B4641E012
:10526C0059490978C170A3E05E495D4800224FF6A8
:10527C00FE7300240978023079B130F8025C9D424B
:10528C0008D04588013D45802D0406BF027020F8EA
:10529C00023C012401390630EEE734B148480421C0
:1052AC004FF4FA72007825F060FB88F0040084E07B
:1052BC0000240021454889B20088814261D208202F
:1052CC0025F0EDFB00285CD0002106808770416042
:1052DC003D490978C170D9F81C1079B360603FE082
:1052EC004FF0010B00205FFA8BF44FF0000A071D02
:1052FC00002808BF09F11C0796B1F078C0FA5BF1E1
:10530C00A042F17006D8756830463D6025F0C5FBAB
:10531C002E46F1E7716830460AF1010A0E46E6E7BF
:10532C005FEA0A4007D100200821C9F81800244878
:10533C0000781AF091FF88F008003EE0C9F81C00D4
:10534C002348807B00070BD425F07BFB044625F01B
:10535C0076FB60434FF47A71B0FBF1F0C9F818009A
:10536C001B48807B00070CD59AF8000008211EF022
:10537C00FFFC30B91748082102889AF8000025F084
:10538C00F1FA2878022810D0012811D1297EAA8997
:10539C00EB7C05F11C006C696E7E8DE85A0005F102
:1053AC001003594605F0E4FF02E0284615F0BAFF59
:1053BC00284623F02DFC88F4004005B0BDE8F08FA2
:1053CC00CF820020C02300205C2700201E27002055
:1053DC008875002022270020B42500207C2700207F
:1053EC0014670020362700202DE9FE4F0746086879
:1053FC000024B0B1D7E9018A0E4624F0B1FF8146F2
:10540C00D8F8E800082888BF0124B068204202D1EF
:10541C007068204208D003203074484625F06FFA9B
:10542C0000242046BDE8FE8FD8F8C01069B198F86A
:10543C00F8100029EFD006213174D8F8C410C8F840
:10544C00C4604E6198F8FC100DE000210522C8E9FB
:10545C003066C8E93411C8E9361198F8FC100029F7
:10546C0008BF0122327400220129726109D1022085
:10547C004FF4E02188F8FC0098F8FB0020F046FD82
:10548C00706889490138884205D8042020F046FE0E
:10549C00062020F043FE022020F040FE98F8F80091
:1054AC0040B9DAF83C003168814203D298F8FC002C
:1054BC0000286CD0D8E9361009B118B900E028B32F
:1054CC0025F0DBF9DAF80000416941F00101416196
:1054DC00484625F014FA98F8F80008B10124A0E722
:1054EC0008F16C05D8F8EC10284625F070F9002866
:1054FC00F4D0D8F8C00003210174384613F0A8FB8F
:10550C0028460021002425F062F98AE79AF8040065
:10551C0025F0A3FA654CDAF810100222206991FAF2
:10552C00A1F1B1FA81F14368D8F8CC004068006869
:10553C0098472069DAF8141002224368D8F8CC0096
:10554C0091FAA1F1B1FA81F14068006898479AF894
:10555C00040022F0E1FF9AF8040025F080FA25F00F
:10556C008CF90020C8F8E000D8F8C0000068B0F54D
:10557C00806F01D925F081F998F8FE000028A1D19F
:10558C00DAF80000416841F0020141609AE798F8AE
:10559C00F90020B1D8F8EC0001307FF48BAF48460D
:1055AC0025F0ADF9B2683AB1D8F8E8000221092823
:1055BC0038BF0121009103E008F1F40200200090B3
:1055CC00746834B1D8F8E8000227092838BF0127DD
:1055DC0002E008F1F6040027DAF80000334D4168C8
:1055EC0041F002014160D6F800B0D946BBF1000F82
:1055FC0040D0D8F8E800019209284FF0010011D2F0
:10560C002A68B9F1000F1FD0C0071DD02178DAF835
:10561C0000009268904700281EBF3C44A9F1010984
:10562C000120EDE72A68B9F1000F16D0C00714D09D
:10563C002188DAF800009268904700281EBF3C448D
:10564C00A9F101090120EDE7DAF80000D26802A9FE
:10565C009047DDE90120107007E0DAF80000D2680D
:10566C0002A99047DDE9012010800098ABF1010BF5
:10567C000244BBE7D8F8F000DAF80010CA68024020
:10568C00102802D1002AF9D101E0002AF6D0706866
:10569C0022F0CCFDD8F8C0100020C8F8C400C8F81F
:1056AC00C00008741AE700BFFEFFFF0FC401001012
:1056BC002DE9F04F87B0851C8346284625F016F956
:1056CC0001AC06461821204625F0F0F89BF801A005
:1056DC0004F10B002946009525F08CF96FF00100C0
:1056EC009BF80A1002240122ADF8180000208DF856
:1056FC001A408DF80C0001F00800C1F3C0078907AF
:10570C0082EAD00507D40028B946A84608BF012470
:10571C000027002507E004244FF000094FF0000893
:10572C00002808BF03248548007850EA0A000BD0F3
:10573C00834890F82600082809D124F091FB002812
:10574C005AD0BAF1010F57D14FF0C30901E04FF015
:10575C00C2090025BAF1000F10D07F48007890B92B
:10576C00BAF1010F0FD1002E63D000202146012287
:10577C008DF81A0001A814F0F1FD0AE001A81BF045
:10578C00C3FE86B91CE001A82146524614F0E6FD82
:10579C00B6B17179BAF1020F41F04002727104BFD7
:1057AC0041F0600171719BF80A10490603D57179BB
:1057BC0041F080017171B17900240131B17100E0C7
:1057CC000124B0FA80F149090D423AD107D1002DDC
:1057DC0018BF814641F20100494621F02CFD14B955
:1057EC00009819F0C7FFBDF818004FF6FE718842FB
:1057FC0018BF25F05EF924E0DEB33279A24218BF5F
:10580C00BAF1020F20D1D01EC0B2012802D857EA3B
:10581C00050006D1501EC0B2012822D859EA080151
:10582C001FD0308822F084F820BB3088ADF81800E7
:10583C0022E00220214601228DF81A0001A814F062
:10584C008DFD07B0BDE8F08F4FF00009009953466D
:10585C008DF81A903088ADF8180025F00AF901255A
:10586C0078E7012802D8308825F023F9009819F040
:10587C0081FF0026BDF818004FF6FE7188421ED13C
:10588C0021F0EAFD10B1BDF8180011E0BAF1000FDB
:10589C0004D02C4D288822F04BF830B19BF80A002C
:1058AC0000F0020020F06AFC00E02888ADF8180037
:1058BC004FF6FE71884202D14FF0C70949E79BF8B9
:1058CC000A200099534625F0D4F810B14FF0010985
:1058DC003FE71D48016811B1BDF818008847BDF8B5
:1058EC0018000099224606F089FA0646174818490E
:1058FC000A6800784FF4803125F037F801211548FB
:10590C00C17096B1AAF10100C0B2012807D81020CD
:10591C00BAF1020F08BF08207179084370714FF07B
:10592C00000901258DF81A9014E74FF6FE7000253A
:10593C004FF001090026ADF818000BE79024002069
:10594C0088750020142700202C230020D2820020F0
:10595C00B4C6020090250020B42500202DE9F04F9C
:10596C008DB0044600209A4616460F46CDE90B0032
:10597C00CDE909008A488568804615F0C3FD1C28CE
:10598C0003D015F0BFFD1B281BD1308840F6020157
:10599C00884218BFB0F5C15F03D1F07B022810D943
:1059AC003EE043F6070188420BD196F82400032809
:1059BC0007D330697B4940F0806020F0604088421A
:1059CC002ED100206FB366B3387825FA00F0C007EB
:1059DC0026D03046002125F05CF87348C4E90176E6
:1059EC00006880B109A800900CA90BAA0AAB30463C
:1059FC000AF07CF80B980B214FF6FF72502322F023
:105A0C002BFEFF280CD024F0ABFC684F06467878B0
:105A1C00012802D840B1012070E0304624F06FFF1D
:105A2C0000200DB0BDE8F08F09F0D4FF60480DF1F7
:105A3C000409016841F0020101605E48C8F80000E9
:105A4C00484624F025FBDFF870B15D494A469BF8C7
:105A5C0001009BF800500390584828301FF02FFB92
:105A6C00584859494A461FF02AFB484624F020FA68
:105A7C00DFF85881564A19214B46029540461EF0D4
:105A8C004BF8544A08F11C001A214B461EF044F8FE
:105A9C005148524924F001FF5148524924F0FDFE6F
:105AAC005148006810F4402F06D0504A07F12800E6
:105ABC000421002322F00AFA9BF8020010B10D20F9
:105ACC0010F042FB08F1400023F0A0FE08F1380072
