:1000000000200120BD590200097802000978020091
:1000100009780200097802000978020009780200D4
:1000200009780200097802000978020009780200C4
:0C003000097802000978020091FB000032
:10003C002DE9F04F99B0054680780224532800F240
:10004C00C785DFE810F054009900A800B800C8007C
:10005C00DA00EA000C011B01C5052A01380159011F
:10006C00C505C505C505C505C505C505C505C50534
:10007C00C505C505C505C505C505C505C505C50524
:10008C00C505C505C505650188019401A001AB0135
:10009C00BA01D401EB0107023A02C505C505C50535
:1000AC00C505C505C505600276028C02A202B80220
:1000BC00CD02DE020303C505C505C505C505C5058D
:1000CC00C50538034C036003C5056D037703950321
:1000DC009E03AA03B603C503CF03F2030F04340433
:1000EC003C044E045B0467048B0492049504EC1CE2
:1000FC00E97A2A7B002320461EF022FD8DF8180099
:10010C0006AB65200021012222F0D8FFDFF8180B86
:10011C000078012800F25B8520462AF080FA00283E
:10012C0000F0558505460079012840F050852AF0ED
:10013C0009F800274FF400018DF83F008DF83800C6
:10014C00000ACDF83A108DF841708DF83E708DF89C
:10015C0040008DF839000EAE214606F10A002AF057
:10016C00DCFA297815223346017069788770417062
:10017C004520FF2100F029BD2AF081FA6979AA797E
:10018C000023002425F078FF8DF838000EAB652095
:10019C00012100F053BC2AF017F82AF08DF9014622
:1001AC000EA802222AF017FA8DF8180006AB65206B
:1001BC00022100F043BC2AF007F82AF07DF9014631
:1001CC000EA803222AF007FA8DF8180006AB65205A
:1001DC00032100F033BC29F0F7FF2AF06DF9EA791E
:1001EC0001460EA80023002427F014FE8DF81800F9
:1001FC0006AB6520042100F021BC29F0E5FF2AF0B4
:10020C005BF901460EA805222AF0E5F98DF81800D5
:10021C0006AB6520052100F011BC0020DFF8304A48
:10022C0029F0B4FEADF85800681DA0478046E81DC3
:10023C00A04795F809B0824605F10A07BBF1100FEB
:10024C0000F2AE830EAC5E46002E00F0AC83384656
:10025C002AF0B4FA24F8020B013E0237F4E729F035
:10026C00B3FF2AF029F901460EA810222AF0B3F99F
:10027C008DF8180006AB65200721DFE329F0A4FFF9
:10028C002AF01AF901460EA811222AF0A4F98DF8C9
:10029C00180006AB65200821D0E32AF0F0F96A7B40
:1002AC00691D0023002424F083FB8DF838000EAB6D
:1002BC0065200A21C2E302208DF820002AF0DFF924
:1002CC00ADF81800681D2AF079FAEA79064605F1AE
:1002DC0008018DF838200EAF781C29F027FD06A8F0
:1002EC0031463A460023002421F068F88DF8580076
:1002FC0016AB65200B21A1E32AF0C1F900210024E3
:10030C0023F08EFD8DF838000EAB65200C2195E3A3
:10031C000020DFF83C4929F039FEADF85800681D83
:10032C00A047804695F80F9005F11000A04705F105
:10033C001304AD7C83460F2D00F247830EAE2F467F
:10034C00002F00F0458320462AF038FA26F8020BDD
:10035C00013F0234F4E729F037FF29F01EFE29F0A3
:10036C00D5FC40F0468306A82AF0D7F946E329F0DD
:10037C002BFF29F012FE29F0C9FC40F04D8306A892
:10038C002AF0CBF94DE32AF07AF92AF072F88DF8BD
:10039C0038000EAB6520232100F016BCDFF888185E
:1003AC00C8208DF81800E81C0978002900F081831A
:1003BC0029F024F98DF81800A3E36879EE1CFE28C7
:1003CC000BD1A879FF2808D12878082805D3304606
:1003DC002AF0F4F9314626F077F80EA9304628F0C9
:1003EC001BFE002800F09183054600249FE3E81CC7
:1003FC00042126F035FEE9792AF002FADFF84418D8
:10040C008DF83800022029F02DFADFF83C18032073
:10041C0029F028FA0EAB65202621D5E32AF029F91C
:10042C00044605F10E002AF0C9F9297C6A7C0346C2
:10043C00E878CDE90012AA1D214626F0E5FADFF88E
:10044C0000188DF83800042029F00CFA0EAB65204A
:10045C002721B9E34FF00208E81C8DF840802AF000
:10046C00ADF9ADF8380068798DF85800A81D2AF060
:10047C00A5F92E7A044600270935CDE9005716A8B0
:10048C000EA92246334621F0A9FD29F0BBFE10D15E
:10049C00DFF890078DF84080CDE9005722463346AF
:1004AC00C08AADF8380016A80EA921F097FD8DF87A
:1004BC00180006AB6520282186E30226E81C8DF87F
:1004CC0040602AF07BF929F0F7FFED7904460EA87D
:1004DC00002321462A4628F025FC29F093FE0ED154
:1004EC00DFF840078DF8406021462A460023C08A79
:1004FC00ADF838000EA828F015FC8DF8180006ABE6
:10050C006520292160E329F05FFEADF83800681DF5
:10051C00042126F0A5FD6A7AAB7A002401460094EA
:10052C000EA826F09DFA8DF8180006AB6520302138
:10053C0084E229F049FE29F0A1FF312201238DF834
:10054C00580016A8CDE90004DFF8F0060EA921F03A
:10055C0045FD8DF8180006AB652031216EE229F0BF
:10056C0033FE29F08BFF322201238DF8580016A898
:10057C00CDE90004DFF8C4060EA921F02FFD8DF89B
:10058C00180006AB6520322158E229F01DFE29F037
:10059C0075FF332201238DF8580016A8CDE900040D
:1005AC00DFF898060EA921F019FD8DF8180006AB9E
:1005BC006520332142E229F007FEADF83800687B54
:1005CC000024691D0094C0F3400200F001030EA842
:1005DC0023F008FC8DF8180006AB652034212DE2C1
:1005EC0029F0F2FD6A7BADF83800691D0EA80023D6
:1005FC00002426F0AFFF8DF8180006AB65203521DE
:10060C001CE22C4614F8030B04281ABFE8782C1DA6
:10061C0002208DF8400020462AF0D0F8DFF818664A
:10062C00A5780121E278ADF8380000230024317060
:10063C000EA829461FF022FB8DF8180028463470AE
:10064C0026F0C4FF06AB65203621F7E12AF017F837
:10065C00ADF83800687904218DF84000A81D26F00B
:10066C00FFFC0446AE7AEF7A05F10C002AF0A6F8EE
:10067C00DFF8B0850546214632463B4629F063FC3F
:10068C000EA821F087FC29F0BDFD10D102202146D7
:10069C0032463B468DF84000B8F81600ADF83800ED
:1006AC0029F051FC0EA821F075FC8DF8180006AB52
:1006BC006520372188E26C7829F0E1FF0146DFF8EC
:1006CC007405007820F054FE8DF8380004F0E0003A
:1006DC00202840F07C820EAB65203E2174E26C78C1
:1006EC0029F0CDFF0146DFF84C05007822F05EF9C9
:1006FC008DF8380004F0E000202840F068820EAB42
:10070C0065203F2160E200206C788DF83800DFF81E
:10071C0018050078411E022980F09481022095E191
:10072C0029F0ADFF29F0A5FE8DF838000EAB652041
:10073C00422149E2002006908DF83D00CDF83900A9
:10074C00E81C06A927F078FB8DF83800069850B104
:10075C0029F000FC81788DF83B10C1788DF83C10A5
:10076C0000798DF83D000EAB6520432106222CE26A
:10077C00E81C28F043FF8DF838000EAB65204421AF
:10078C0022E229F07CFF6979AA790EF04BFB8DF8F7
:10079C0038000EAB6520452116E229F070FF69790F
:1007AC00AA791BF0E5F88DF838000EAB65204621D0
:1007BC000AE2EC7829F05DFF0146204623F0C6FBE7
:1007CC00B0FA80F0472140098DF838000EABC1E13A
:1007DC00E87800248DF8384024F05AF90EAB6520E7
:1007EC0047212BE1E8780EA927F04AFB06468DF845
:1007FC00180040000130C5B2284629F0E3FF00285C
:10080C0000F0A381044600F8016B00219DF818202C
:10081C00914280F0BE809DF83830013100F8023BE7
:10082C009DF8393000F8013CF2E70EAC132120465C
:10083C0029F018F9EE7829F01CFF0146304626F015
:10084C00EDFE002800F088810021231D8DF8381062
:10085C0029F080FBC11C827818468DF83B2029F0CA
:10086C0065FA7CE10020EC78CDF84600CDF842002A
:10087C00CDF83E00CDF83A0029F0FBFEAA79ADF890
:10088C0038000F2A28BF0F228DF83A2022B10EA86B
:10089C00E91D033029F04AFA0EA9204601221DF069
:1008AC0059FC8DF8180006AB65204B218CE129F022
:1008BC0033F88DF838000EAB65204C2184E1E878D4
:1008CC0029798DF838100EA9032800F05F810228D1
:1008DC0000F06281012840F06681522022F0AAF8D3
:1008EC0064E129F0CCFE69790246A81D1BF0E3FEF9
:1008FC008DF838000EAB65204E2165E129F0BFFE66
:10090C00014668791AF0B0FB8DF838000EAB652003
:10091C004F2159E1C34D0822E88A05F13901ADF8A0
:10092C003800C24800788DF83A00A88CADF83B002E
:10093C00688BADF83D000EACE01D29F0F7F904F121
:10094C000F0005F11C01082229F0F0F9287E502136
:10095C00182223468DF84F00652036E1B248007806
:10096C00002800F0018112200AE121F05FFA2EE14B
:10097C0000208DF83800E878010606D5A94910F05A
:10098C007F0018BF012081F868000EAB6520532151
:10099C001AE1652049212A46234622F08FFB39E1D2
:1009AC0080208DF863003E78102E52D80DF1180976
:1009BC00013734464D46002C4DD0384629F0FEFE0A
:1009CC0025F8020B013C0237F5E780208DF8630017
:1009DC0027780F2F54D801340DF1180A3E46002EFB
:1009EC0050D0204629F0EAFE2AF8020B013E0234D0
:1009FC00F5E7084629F0E2FEADF81800687E06A976
:100A0C0029F08CF90EA921201BF0A6FF8DF85800B7
:100A1C0016AB6520212111E0084629F0CFFEADF878
:100A2C001800687E06A929F079F90EA922201BF07E
:100A3C0093FF8DF8580016AB65202221012222F07D
:100A4C003DFBC5E0002840F0B580042009F0F8F823
:100A5C00B3E080200DE0BBF1100F0CD80EA90020E4
:100A6C0052465B468DE84202039016A8414615F0AB
:100A7C0083FD8DF863000DF1630365200621A3E06F
:100A8C0080200FE00F2D0FD80EA9002002974A46A8
:100A9C005B46CDE9005106A9CDE9031016A84146E5
:100AAC0015F012FD8DF863000DF163036520202114
:100ABC008AE016A90EAD2A4619F08EF904469DF867
:100ACC005800F0B1614904EB4400002641F8206065
:100ADC0001EB800046609DF94B00B0F1FF3F03DC59
:100AEC0005F1130023F0E0FC0EAD1421284628F08C
:100AFC00B9FF0420214614222B4626F003FA8DF868
:100B0C00186006AB652024215EE0182029F05AFEFF
:100B1C00002800F083800446BDF83800002118221C
:100B2C00234628F07BFF0546002818BFC82519204E
:100B3C0029F048FE002867D007460130002D4BD025
:100B4C001821FF2228F088FF50E0002049218DF861
:100B5C00180006AB652037E001208DF838000EAB8D
:100B6C0065204A21132230E029F089FD044605F165
:100B7C000D0029F023FE0246691D204625F086FF54
:100B8C008DF838000EAB652051211DE0522021F06C
:100B9C0051FF2748002104E0522021F04BFF24484C
:100BAC000121017002E0522025F0C8FF0EAB652038
:100BBC004D2109E001208DF8380004F0E0002028D8
:100BCC0005D10EAB65204021012222F077FA0024DA
:100BDC00204619B0BDE8F08F3146082229F0A6F85E
:100BEC0007F109002146102229F0A0F865202521E3
:100BFC0019223B463D7022F061FA3846192128F043
:100C0C0031FF384629F0DCFD002CE0D020461821BD
:100C1C0028F028FF204629F0D3FDD8E7C825FFF798
:100C2C00E4BB00BFE87A0020BC2500206826002029
:100C3C007B270020628800203A27002020260020F5
:100C4C00D17302004579020085540100284300202D
:100C5C00C9A702002DE9F04F99B080466FF007004C
:100C6C00DFF8DCA80630ADF852009AF80000022834
:100C7C0014D1DFF8C808007880B9B8F8080010B1B2
:100C8C001020012101E0302000210BF035F900206B
:100C9C008DF81C0007A9522021F0CCFE0DF11C0987
:100CAC0098F80810D8F804004A4610F091FDE8B105
:100CBC009DF81E609DF81F409DF82050BDF82670D1
:100CCC0029F03AFA844211D127F003004FF6F8715B
:100CDC0080B288420AD0012D08D8022E06D29AF88A
:100CEC000000022808D19DF84D0028B1D32015F042
:100CFC0012F819B0BDE8F08FB8F82800ADF848002C
:100D0C00B8F83200ADF82A009DF82200D0B1D8F81E
:100D1C0004109DF81D209DF83830012027F0A0FF0D
:100D2C0008B1CF20E3E7DFF81C08C078012809D10F
:100D3C00B8F8280029F01FFC20B1417901F0E70137
:100D4C00083141719DF8210068B1BDF82610FF20D3
:100D5C0026F064FC9DF82110E0B141F001012C2635
:100D6C008DF8211017E09DF83900002800F0EB8079
:100D7C009DF83D10FF2902D0002940F02681DFF8B4
:100D8C00C807BDF82620C18A8A4240F0278101207D
:100D9C00222607E0082601F00300012808BF46F0D0
:100DAC00110601209AF800104FF6F877012908D89F
:100DBC003446B20758BF64F07F04002808BF34469D
:100DCC0000E034469DF82200DFF87C575FFA84FB84
:100DDC0030B9E87A20B10BF02200222840F0808054
:100DEC001BF0400004901CD0012903D8A87B80077D
:100DFC0000F1D880119801780C2900F2DB800122D7
:100E0C0041F298438A401A4200F0D480032902D15F
:100E1C0040780D2805D007A822F07CFE01283FF46D
:100E2C0068AFA88CB8F8441081420AD198F84620D3
:100E3C00B8F84210B8F8280000230093002307F0FC
:100E4C00DBFF9DF82200F8B1B8F84210B8F8280082
:100E5C0023F030F9002800F08F800646D8F8040003
:100E6C009DF81D10F2780844417B8A421EBF002277
:100E7C007260F1700130042126F0F2F8716888423A
:100E8C00FFF437AF013070609AF80000022834D2BA
:100E9C00A87B80077FF52DAF9DF84D004FF6F876B7
:100EAC0060B1BDF8280028F035F9002800F0078162
:100EBC00D8F80400417801F0DF0141709DF82E0054
:100ECC00002800F0DF80D8F80400817901398171A5
:100EDC008DF82E1004F07F00090640F0D680D3E088
:100EEC000BF0420042287FF41CAF1198007800F000
:100EFC00FE0006287FF415AF72E77FF4FAAE95F882
:100F0C002600092802D004287FF4F3AE5FEA8B6038
:100F1C0000F19E80049800283FF4EBAE11989DF8E8
:100F2C0038100078042808BF022900F045810728F2
:100F3C0008BF042900F009810C2840F04D8107A856
:100F4C0015F028FED5E6BDF8260023F071FB02381B
:100F5C00DFF8F415B0FA80F0CA8A4109BDF8260012
:100F6C00904208BF023100293FD09DF81E20002A74
:100F7C0056D001F1400455E09DF84D00B8B3042063
:100F8C0026F028FE00283FF4B4AE01464FF4B270B0
:100F9C000880B8F828004880DFF8B00500781EF00B
:100FAC0039FDA6E611980178A1F10C0212F10C0F93
:100FBC003FF62CAFE88ABDF8262082427FF496AE2D
:100FCC00BDF8280024F090FE90E6109A9DF83C00A5
:100FDC0021F042FC30B101200026E3E690F8260017
:100FEC000428F8D100260020DCE600241AE095F84D
:100FFC006C0001287FF448AF11980078062803D1C3
:10100C00049800287FF440AFF81DBDF82A1080B278
:10101C0081423FF46EAE07A841461EF0BBFF68E666
:10102C0001F1200423F004FB0138B0FA80F04009F0
:10103C0044EA00069DF81E0000283FF4B2AE119859
:10104C00007828F0BBF8012818BF04F07E06A8E64B
:10105C0098F8460028F054FF9DF82E00012840F027
:10106C00B480B8F82800BDF82810814240F0AD805B
:10107C00BDF8260023F0DCFA022804BF00208DF80E
:10108C002E00A2E004F07F000446210702D44FF0AA
:10109C00000A34E0E1B24A0722D4C9069DF82110B7
:1010AC0028D5C1F3820212B1072A18BF013A002ACF
:1010BC0008BF044601F0E30040EA820118E0D320A7
:1010CC0014F029FEDFF888040078002800F09F80D7
:1010DC00DFF8801451F82000C0EB0010810098E07C
:1010EC009DF8210000F0E00100F0E30040EAD1019E
:1010FC008DF82110D8F804004FF4805A017295F83D
:10110C002600092801D0042823D1E98ABDF826003D
:10111C0088420AD023F08CFA022806D09DF82100D0
:10112C0000F0030001287FF4E4AD9DF81E000028B8
:10113C0047D011989DF838100078042808BF022970
:10114C003AD0072848D1042946D107A818F058FBF3
:10115C00CFE5E7B214F0610F46D0F80709D0B8F824
:10116C00281007A8A94615F0B1FF002864D004F098
:10117C009F040025E7B2A00609D598F84600D8F8D8
:10118C003C2028F0BDFE07A815A905F043FF780602
:10119C0040F12681B8F8281007A80DF152022B4611
:1011AC0010F092FB00286FD00546119800780128AA
:1011BC0008BF4AF0100A13E107A9002011F0F8FA51
:1011CC0097E598F8460028F09BFED8F83C2007A835
:1011DC0015A905F01FFF8CE503287FF48AAD07A83D
:1011EC00002110F07FF884E59DF81E0001285AD1EB
:1011FC0011980078032849D0052854D1B8F8281044
:10120C0007A80DF15202002310F05EFB71E5D148E6
:10121C000168D1480268BDF82800904701287FF486
:10122C0068ADCE480168BDF828008847CC480168F5
:10123C00BDF8280088475CE527F0A0F89DF82E1033
:10124C000546BDF8280019B9B8F82810884291D085
:10125C00B9F81610814204D1BA48807800283FF4BE
:10126C0089AFB8F8281007A82A4609F01DFD0028F8
:10127C0000F09B8038074AF0040ABDF8260048BFEE
:10128C00F01DADF8520075E70025A9E0BDF8260069
:10129C0027F040FF38B1B8F8281007A80DF152021A
:1012AC00002310F011FB9DF82E0088B324F0CAFA2D
:1012BC0000287FF41EAD9DF83900A0B3109A9DF85C
:1012CC003C009DF83D1021F0C7FA002870D09DF825
:1012DC003D00002875D0109929F016F99DF824309E
:1012EC00ADF8520011209DF823209DF821104AF0F2
:1012FC00400A002B08BF0920002A18BF083000291B
:10130C0018BF0130D8F804100A5C013A0A5462E0A4
:10131C009DF81E0001287FF47EAE119800780328FA
:10132C003FF4E7AC77E69DF82010BDF826000029C5
:10133C00ADF8520000F0D3804020BDF8261009F122
:10134C001D0200EAC4059DF820002B4619F0DAF9BD
:10135C0038B1D8F804004AF0200A017801F03F01B6
:10136C0001709DF8390048B1BDF8261009F1200034
:10137C0022F0B2FB4AF0400AADF852009DF81E0074
:10138C00012806D0BDF82810BDF82600002215F063
:10139C00FFFABDF82810BDF826002A4612F0DCFE34
:1013AC00002818BF4AF0200A15E004F0DF04E0E63C
:1013BC00BDF82610BDF828000B2200231BF0D0F836
:1013CC0097E4BDF82600ADF8520029F0D4F80028B7
:1013DC0008BF4AF0400A26F0D1FF05464FF6F876D2
:1013EC00B01DBDF8521080B20F1A5E4818BF2F46C0
:1013FC000078012805D1F01DB8F8321080B2814276
:10140C002FD160B2B0F1FF3F3FF773AC002F3FF428
:10141C0070ACB8F8080029F0D5F900283FF469AC95
:10142C00B8F80820D8F80410054628F07FFC9DF881
:10143C001E10002098F80830B8F8282016908DF867
:10144C005410BDF8521015ACCDE9007ACDE9020468
:10145C00284610F06DFF70B3284629F0B1F9FFF75C
:10146C0048BCB8F828108142CBD0701CBDF826209F
:10147C0080B28242C5D2BDF828008142C1D029F089
:10148C007AF80028BDD0017901390129B9D84088F2
:10149C0001218DF85410ADF8600015AD28461FF0F1
:1014AC00E9F90028ADD0281D1EF0ACF90028A8D011
:1014BC0022F020FCA5E72348407800283FF419AC23
:1014CC0000208DF81870ADF81900DDF826004FEAF1
:1014DC003040059005A828F097FAFFF70ABC3907A9
:1014EC003FF52AAF9DF81E1001293FF425AF0021CE
:1014FC0019F0C8F820B1407901380228FFF41CAF6C
:10150C00B8F84410BDF8520022F0D4FD30B1807808
:10151C0027F074F901380728FFF40EAFBDF8280046
:10152C0027F0F8FD18B104208DF8200004E7BDF871
:10153C002610BDF8280002223FE700BF7B270020C1
:10154C00BC25002098250020E87A00206488002023
:10155C006D27002040C302004C23002054230020A0
:10156C0050230020792700202DE9F0438DB005464B
:10157C0080780224252800F27380DFE810F0260022
:10158C00A400C400D700EA00F8000601B602B602B7
:10159C001D012E01B602B602B602B602B602460113
:1015AC004B01B602B602540158016101B602B602F3
:1015BC00B602B602B602B602B602B602B6026B01AB
:1015CC006E017101740178017F01DFF8D47500247C
:1015DC000E258DF804403878012807D801A81DF095
:1015EC007BFD04469DF8040005EB4005EEB2304649
:1015FC0029F0E8F8002800F087824FF00008054633
:10160C00431C0021082280F80080012028F006FAF3
:10161C0028F098FD6872000A0721A872DFF884058B
:10162C00E972007828733878012800F262829DF8FC
:10163C000420002A6A7300F05E8205F10E0000217E
:10164C002346914280F0578213F8022B013100F8A7
:10165C00022B13F8012C00F8012C9DF80420F0E764
:10166C00A0F140010D291FD8DFE811F00E00100188
:10167C003F023F021E012E013F023F023A0145018B
:10168C00500165013F02740101ACE91C0822201DC8
:10169C0028F04CFB20461AF037FCBDF80600402120
:1016AC00ADF828000AABEEE0632800F069816428ED
:1016BC0000F07681E02840F0188200244720E021D9
:1016CC00002200230FE2202029F07CF8002800F0F3
:1016DC00C1812021FF22044628F0BEF9631C0120A1
:1016EC000021082228F09AF90546002818BF012588
:1016FC0001AB84200021042228F090F9002800F08E
:10170C000582023506E2E81C29F058F8ADF8040011
:10171C00832028F070FF014601AA832028F044FEA4
:10172C008DF828000AAB6720022190E1E81C042107
:10173C0025F096FC0190842028F05DFF014601AA5B
:10174C00842028F031FE8DF828000AAB6720032195
:10175C007DE1612028F04FFF0146EA1C612028F052
:10176C0023FE8DF8040001AB672004216FE1622099
:10177C0028F041FF0146EA1C622028F015FE8DF886
:10178C00040001AB6720052161E100208DF8040005
:10179C00E81C29F013F86A7900F4F851002A00F0DB
:1017AC004981B1F5A06F04D04FF6FF71884240F02B
:1017BC004B814FF0FF3045E128F0D6FF044628F06E
:1017CC00D1FFD949604301ACB0FBF1F1204628F0C0
:1017DC0062FF672009210422ABE0DFF8B4632D79A6
:1017EC00306840B901AC204628F06EFB0120214640
:1017FC000EF0B8FD3060052D00F06981002D00F071
:10180C006981642122F0A4FE66E115F8032B6720A0
:10181C0010216EE0E87824F0F7FA8DF8040001ABA3
:10182C006720112113E100246720142102E0002419
:10183C0067201521ADF80840019401AB062252E156
:10184C0000246720162109228DF80C40CDE90144B3
:10185C0001AB48E1F52020210BE0F520212108E027
:10186C00F520222105E04FF6F570232108E0F52044
:10187C0024218DF8040001AB6720E8E0F520252138
:10188C00ADF8040001AB67200222E1E0E81C28F06F
:10189C0095FFADF8060001AC204617F06DFF231D37
:1018AC00672041210822D3E0E81C0AA927F0B4FBE9
:1018BC0000288DF8040000F0CF8001A81821FF2229
:1018CC00013028F0C9F8F4E0E81C0AA927F0A4FBC1
:1018DC0000288DF8040000F0F1804FF0FF30EFE0AD
:1018EC0015F8030F697822F017FE2880672048212D
:1018FC0002222B46ACE0E87825F000FD01AC014655
:10190C00204619F0FFF86720492111E0EC1C204615
:10191C0027F022F8002818BF2046B5F80B1019F054
:10192C0047FE01AC0146204619F0ECF867204A212D
:10193C00242223468CE001ACE91C0822204628F026
:10194C00F5F9204627F0A2FF8DF828000AAB672096
:10195C004B217CE04FF0FF3095F80380691D01901E
:10196C00ADF81000CDE90200FE208DF806002879B4
:10197C0003288DF8300020D10AA828F0CEFE21E0F3
:10198C000024E91C08228DF8284001AD284628F0D7
:10199C00CDF928461DF036FF0AAB67206321A1E084
:1019AC00B5F80B006A7B0024E91C8DF804400AF0A2
:1019BC005DFB01AB6720642194E0084628F0FEFE35
:1019CC00ADF82800AF7B002F00F0DD807E0095F88D
:1019DC000D90304628F0F6FE002800F0D48005F17A
:1019EC000F013246044628F0A1F900940AA940469A
:1019FC004A463B460DF088FD002800F0BA808378FB
:101A0C0001784278057946798DF806308DF8041006
:101A1C008DF80520C3788DF809608DF808508DF885
:101A2C00073001A98B1D811D40794200184628F012
:101A3C007DF9A5E0B1F5A06F03D04FF6FF71884298
:101A4C0002D100205549086001AB67200621012214
:101A5C0021F034FB002448E0182028F0B3FE40B3FA
:101A6C00BDF828100446009006200022182325F00B
:101A7C0033FAB8B9BDF8285001AE21461022701CBB
:101A8C0028F054F9444F05EB450506F1110057F8C1
:101A9C00251028F000FE07EB8500416806F11500C3
:101AAC0028F0F9FD2046182127F0DCFF204628F00D
:101ABC0087FE01AB672044211922C9E7BDF8280035
:101ACC00ADF8050001AB672045210322C0E7314981
:101ADC0001220A7021F0D1FE002467200A218DF822
:101AEC00044001AB012221F0E9FA20460DB0BDE81B
:101AFC00F08385F80D806720002132462B4621F0BB
:101B0C00DDFA284628F05CFE7CBBA3E7019800BAFE
:101B1C00C4F809000AAB83200021022227F07EFFC3
:101B2C0020B1043506E000BF40420F00BDF828008C
:101B3C00A4F80D0004F10F0361200021012227F00D
:101B4C006DFF002818BF083504F110036220002136
:101B5C00102227F063FF002818BF1035234625708C
:101B6C0067200121202221F0A9FA204628F028FE26
:101B7C0070E74FF6FF70ADF808006FF480300190FD
:101B8C00204628F01DFE01AB67204D210E225FE799
:101B9C00F087002037270020C0820020D08700204B
:101BAC00BC250020682600202DE9F04F85B08478F4
:101BBC000226362C00F2BE820546DFE814F06C01DA
:101BCC00740172007C017800BB02BB0281003700FB
:101BDC004C008C009F00AD00BB02B5009001BB0215
:101BEC00BB029A01AD01BB01BB02BB02BB02BB0233
:101BFC00BB02BB02BB0237004C00BB02BB02BB02E8
:101C0C00BB02BB02BB02BB02BB02BB02BB02BB02E0
:101C1C00BB02BB02BB02BB02BB02BB02BB02BD00D0
:101C2C00EB00CB01FF005B005B00DB0128F01BFD30
:101C3C00242840F0AA8102AB352000210422002484
:101C4C0027F0ECFE002800F0FC81012002228DF828
:101C5C0010000020FCE100208DF8100028F003FD9E
:101C6C000646092C40F0ED8095F8059095F8068015
:101C7C000720EFE0DFF82465306880B1406A70B16E
:101C8C0002A928F0F9FC0546342C40F02C82284699
:101C9C0028F094FD002800F02582042041E2032066
:101CAC003FE2DFF80835612002210A223FE202AC54
:101CBC00E220214624F042FF61200421082288E121
:101CCC0028F0D1FC0446681D28F078FD242C40F047
:101CDC0087810020FBE1E878032800F29781281D1A
:101CEC0028F06CFD0246E878DFF8B81431F81010D3
:101CFC00DFF8B404007828F0CBFC88E1E8780328FE
:101D0C0000F28981DFF89C1431F81010DFF8980488
:101D1C0000781DF0F5FA7FE128F0ECFBADF8080037
:101D2C0002AB61200C2103E1002661200E2101226F
:101D3C008DF8086002AB1BE2DFF8606401208DF8BF
:101D4C0010003068002800F02C810069002800F099
:101D5C00288102A928F090FC042125F081F90028A3
:101D6C0000F0EC81044628F02DFD002800F01C81C9
:101D7C002146054627F076FE3068BDF80C10224649
:101D8C002B4606690298B0478DF81000284628F0BB
:101D9C0017FD09E1DFF804442068002800F00881F1
:101DAC008069002800F0048102A928F065FC2068F5
:101DBC00BDF80C10826902989047FAE0DFF8DC73EA
:101DCC003868002800F0FB80C069002800F0F7801C
:101DDC0002A928F051FC9DF80850BDF80AB0BDF8D6
:101DEC000C90044628F0EAFCA6788046F72E28BF13
:101DFC006FF00806B01C5FFA80FA504628F0E2FC3F
:101E0C00002800F09D81012D044608BFBBF1000F96
:101E1C0000F09A813868A11CF3B24246C569029859
:101E2C0000914946A8470746002840F093810027B7
:101E3C0061203321524623466670277021F03EF90B
:101E4C0088E1681D28F0BAFC8146E81D28F0B6FC34
:101E5C008046092002AF242E18BF2F1808BF352644
:101E6C00304609EB080528F0C6FB854201D9022053
:101E7C0057E1B9F1000F04D1304641463A4622F001
:101E8C00ABFF304641463A4628F08EFA002800F067
:101E9C00E5800A2045E1E878012802D0002840F0CE
:101EAC00488127F0ABFF40F259600121ADF80800E2
:101EBC0002AB61203CE00120EC1C8DF80800E22014
:101ECC00214620F0B7FD30B901200821224628F028
:101EDC006BFA8DF8080002AB6120032126E1E8784B
:101EEC00291D012800F0E180002840F0E580E02069
:101EFC00DFE028F0B8FB0446681D28F05FFC242CBA
:101F0C000FBF00200146204628F026FB8DF8080064
:101F1C0002AB6120122109E128F0A5FB24280CBF9B
:101F2C00002028F068FBADF8080002AB61201321FB
:101F3C000222FCE0E8788DF8080099488068D0F817
:101F4C00302402A9E02090478DF8100004AB6120EA
:101F5C001421EBE0914C206898B3806A88B302A9F5
:101F6C0028F08AFB2068BDF80C10826A0298904712
:101F7C00014627E0894C206868B3C06858B328F044
:101F8C0072FB2168C968884726E0804669380026BC
:101F9C0080B2032838BF0126681D082C40D1057873
:101FAC0041E003208DF8100004AB61203021BDE02E
:101FBC0003208DF8100004AB61203121B6E003271B
:101FCC00CDE0002102AC204628F065FB61203221D7
:101FDC0004222346ABE0032028F069FA3621A5E061
:101FEC0005F10806ED790146A8426CD9204600227D
:101FFC0028F0D4F909288DF808006AD1002D68D092
:10200C0020462946324628F0CFF962E0022028F01B
:10201C004EFA0A218AE0022028F049FA0B2185E0C9
:10202C0028F0CCFB0546404628F0E5FA0227A842EA
:10203C0088BF7700CFB100268DF80870612021464B
:10204C0092E002988DF810400422ADF812000220A4
:10205C008DF8110004AB6120082168E0012E62D1DB
:10206C00E220394620F0E6FC5BE0471BB8B2F728CB
:10207C0028BFF727B81CC6B2304628F0A3FB0028AF
:10208C0060D01FFA87FB00F1020982464846594688
:10209C0027F0E8FC404629465A464B4627F0BEFC42
:1020AC000546002867D00A2770E00878022814D269
:1020BC00522020F0BFFC00E002208DF8080002AB9B
:1020CC0061200F2132E02046324628F067F98DF866
:1020DC00080002AB6120072128E002A9522024F05D
:1020EC002DFDECE702359DF8080015F8018BBDF8C5
:1020FC000C7001280ED1BDF80A0058B9384641467B
:10210C002A4622F069FE012F04D1E220294620F054
:10211C0091FC01273068394642462B46466A0298A4
:10212C00B0478DF8100004AB61202146012220F04D
:10213C00C5FF0026304605B0BDE8F08F052031E71D
:10214C0010270CE0102776E7A9F169000328BFF4EB
:10215C0061AE0227204628F033FB002FE9D0002681
:10216C008DF80870612033218DF8096002AB0222D2
:10217C0020F0A4FFDEE78AF80170002761202146D9
:10218C00324653468AF8007020F098FF504628F0EB
:10219C0017FB002D7FF44FAFCBE700BF00270020CB
:1021AC000C0100203CC8020062880020D8C7020045
:1021BC002DE9F04FA7B047F66014002ACFF6FE7455
:1021CC0000F041829846002724AE169150F8275013
:1021DC00254446F827500137032FF7D1D2E9020ED8
:1021EC00D8F810501469D8F808601168A5FB003CA9
:1021FC00D8F800701E93A6FB043A814620461D9326
:10220C00A1FB05341F941B93A7FB0034229123944C
:10221C000446A1FB060111911890A7FB0901179028
:10222C0050691C93334613911A9003FB00AAD8F8FB
:10223C000C101E9820977746CDF834E005FB0ECC99
:10224C00D8F814E02195850A01FB04AB08460991E6
:10225C001D9907964E460EFB09C9890A45EA895510
:10226C0041EA8B51691AA24619941291229C119938
:10227C00CDE90AE604FB00111F98556804FB0E0E0D
:10228C00209A139805FB031102FB0700D8F8047081
:10229C002C460C95189B179D07FB060C4FEA9323B5
:1022AC004FEA95254FEAA92643EA815345EA8C5516
:1022BC0066EBAB20CDF85090884610910F90B3EBA5
:1022CC000509219B23981A9904FB03E602FB0103E1
:1022DC001B981C9A4FEA902507FB0A31089745EA90
:1022EC008650354604964FEA92264FEAA827169B4D
:1022FC0046EA815667EBAC22CDF854B00E92B6EBA1
:10230C00000BD3E900E2129E1F69A6FB0E4A139242
:10231C0006FB02AA5A690F9ECDF800C09868039478
:10232C00A9FB074C119206FB0EAA09FB02C6DA6840
:10233C000294ABFB008412920E9B0BFB02444FEAFF
:10234C00A12262EBA522CDF88CE0CDF8048003FB32
:10235C00076E02FB00438046DDE90220059114184C
:10236C0001984EEB0A020019039042EB0300DDE9E1
:10237C001D320290D41ADDE91420009962EB0000A2
:10238C00DDE917321E901098D31A88411D90DDE9B3
:10239C001B10DDF898E0421ADDE924C0CDF83CE0D2
:1023AC00A4FB0C161B91A3FB0E191C914FEAEC71AC
:1023BC00189104FB01644FEAEE71179103FB019134
:1023CC001E9BCDF840C003FB0C441D9BA2FB00BA26
:1023DC0003FB0E1C4FEAE071169102FB01A1DDE933
:1023EC0004320E9062EB030303FB00111B98039A5B
:1023FC001BEB00031C986141C018029B4FEA125260
:10240C0041EB0C0142EA03321B151592149327F091
:10241C0019FBDDF884E04646CDF81880A8FB0EB217
:10242C00DDF81C80239D0492A7FB0829209C0592B3
:10243C00A5FB0E321E931C92A7FB04321B92A5FB2C
:10244C00082C1D930392C246A6FB0423A046099CAC
:10245C001F97CDE9013207FB049205FB04C7119CC1
:10246C00DDF8209004FB0A2C139A019D02FB0A73E1
:10247C00DDF828A00793049B06FB095506FB0A37D9
:10248C00059BBBEB030B129B03FB0E7E03FB08535C
:10249C006EEB0C060996DDE90256079FB6EB0508B4
:1024AC0067EB03030793DDE91D53DDF840C0ED1A1C
:1024BC00ABFB0C73CDE903730F9BDDF838E0A8FB85
:1024CC000376CDE91D1023981C9901960597A5FB61
:1024DC000E67029700FB0A101B991F9F009607FBC3
:1024EC000911219F079E02FB0700209A04FB021191
:1024FC00189A049C61EB00000BFB0247179A019C95
:10250C00039908FB0242099C04FB0C7706FB032C85
:10251C00169A029B05FB023200FB0E20009A8918CA
:10252C0040EB07020598401842EB0C01DDE9143230
:10253C0027F088FADDF864C0069CDDF82CE0A4FBDB
:10254C000C371F9E0797239F0A93A6FB0E38229ADF
:10255C0040420893A7FB0C531C904FF00000CDE9B0
:10256C002053A6FB025388410D9905950993A7FBAF
:10257C000E531B9006FB018007FB0131DDF84490E4
:10258C00DDF84C80049509FB0E0508FB0E171A9913
:10259C000798A4FB02BA04FB01030C98089E04FBE9
:1025AC0000AE129C04FB0C3304FB02E40A9ADDF827
:1025BC0038C0B2EB060E63EB05021292049A0F9D23
:1025CC00B2EB0B0367EB04020B92209A059FBA1A2D
:1025DC00109FAEFB076A2096A3FB05640894A2FB30
:1025EC000C4B0D960A94219E239C04FB0164099EBE
:1025FC001F9901FB0060199908FB01482299089C5E
:10260C0009FB0106189817990EFB00A003FB01416A
:10261C00129B03FB07000B9B0A9F03FB0511169BE8
:10262C0002FB03B266EB080303FB0C22209BDB19B5
:10263C0042410D98C0185141DDE9143227F002FADD
:10264C00CDE9191015E000682044C217920742EA40
:10265C009007D1E900238007394627F0F3F9CDE93B
:10266C001D1000201C9000201B9000201A900020B0
:10267C00199042F24450C2F20000DDF868800C3030
:10268C0000214FF000091F903098209100EB010AB7
:10269C00DAE90CE01C99DAE904C71E9CAEFB0125B3
:1026AC00CDE921521D9D2390ACFB04300CFB0500A1
:1026BC00DDF8C0C007FB04001CF80950DAE9146B04
:1026CC00A5F11407C5F13404FB4000FA04F42343CC
:1026DC0040FA07F7343D58BFC717002D58BF40FAD2
:1026EC0005F31B98219CCC440EFB004523989CF8C9
:1026FC00044000FB01552299A4F1140021FA00FEBC
:10270C00C4F1340105FA01F141EA0E0145FA00F079
:10271C00343C58BFE817002C58BF45FA04F1C918CF
:10272C00199BA6FB08A206FB03229CF808300BFBA6
:10273C0008227841A3F11407C3F134052AFA07F6ED
:10274C0002FA05F52E4342FA07F5343B58BFD5176C
:10275C00002B58BF42FA03F68F1940EB0503B9F171
:10276C00030F0BD0B80A1F9940EA835041F80409B3
:10277C001F91209909F10109083185E7B80B40EA4E
:10278C00834000F1004042F2445100F1D460C2F2A7
:10279C000001086027B0BDE8F08F70472DE9F04FBD
:1027AC008FB00C4648070FD4200441D4E00400F14C
:1027BC009781200600F1C081A00700F1D48120058B
:1027CC0000F1F3810020B4E1DFF82005017806293F
:1027DC0000F2AD81DFE811F007009401AB01AB0111
:1027EC009901AB01A001DFF81055DFF804152A7828
:1027FC0091F82B30022A02D19E0600F198815E07D7
:10280C0000F19D819B0740F192810423037091F8A4
:10281C002C30DB0700F08B8191F82E30002B00F070
:10282C00528226F002F90420012102F0A3FA57E2A9
:10283C00DFF8C8040394DFF8BCB4DFF8B094DFF819
:10284C00C474DFF8AC44DFF8B054DFF8BCA448F231
:10285C000208008802909BF800001CF07FFD002805
:10286C0000F03A8106460078D3282DD1F0894045F6
:10287C0040F019813878002800F0158199F8000093
:10288C00012840F0108127F099F9002840F00B81C5
:10289C007088002840F00781A24604AC1221204623
:1028AC0027F0E0F827F08AFC3046214618F08EFD20
:1028BC00BDF81C00B0F5285FC0F088800120022113
:1028CC001FF064FC54462AE099F80010884217D196
:1028DC00012834D0032840F0E680287801380128FC
:1028EC0000F2E180B078012851D0002840F0DB8064
:1028FC007078002800F0BF8000201EF0FBF8D2E0BA
:10290C000A2811D194F82B00BA46B71C3071A16972
:10291C0009B138468847384625F000FD5746DFF8A0
:10292C00D853DFF8E4A3BEE02978002940F0BB803F
:10293C00092840F0B880A168B01C8847B3E028781B
:10294C000138012800F2AF80707860B194F8330040
:10295C0094F83410013084F83300C0B2884202D9A4
:10296C00012000219DE099F80100032858D002288D
:10297C0071D0012840F097803878002800F08C80C6
:10298C0027F01CF9002800F09280012085E0707877
:10299C00002875D027F0D6FB4FF6FE71884203D184
:1029AC00BAF81600884207D0AAF81610ADF828100D
:1029BC0053200AA920F03EF81EF014FF25F00EFD5E
:1029CC0000208AF826001DF08BFD6CE0CF480068D3
:1029DC0009A90AAA17F000FA074602985446C64DF0
:1029EC00DFF824A3874212D29DF8380010B1FD20E5
:1029FC008DF838000420394614220AAB24F082FAF0
:102A0C00C34907EB470001EB800001214172002014
:102A1C00012184F83200012002F0ACF9B94F42E0F8
:102A2C00A2460AACAB20002122461CF0BFFE0420BB
:102A3C0004945446DFF8D0A2AF4D8DF8140004A8CE
:102A4C000FF0D2FD27F0BAFB9BF800004FF4805139
:102A5C0041F288321DE0012020714FF48060ADF806
:102A6C0028000AA819F016FA27F0A8FBA4484FF47E
:102A7C00805102680BE010F0E9FB606998B9A2E79D
:102A8C0002204FF4805140F6B83289F802009BF8CE
:102A9C00000027F0FDFD06E0002084F83200012044
:102AAC00012102F067F9304625F092FFD3E694F845
:102ABC00350020B1E0690028F5D08047F3E700200D
:102ACC00002102220023ADF8280002208DF83000EE
:102ADC000AA826F027F9B5E7039880F4004028E00F
:102AEC00854800780138012859D880480178032995
:102AFC004DD0012953D1417800201FF047FB4EE007
:102B0C00012001211FF042FB11E025F08EFF042073
:102B1C00012102F02FF90AE00021322201707448E1
:102B2C0080F82A1073480421007827F0B1FD84F056
:102B3C0004000FB0BDE8F08F84F08000F9E70522A7
:102B4C00027091F82C2092072CD591F82E204ABBBC
:102B5C00052202600120487000201CF013FD0220A9
:102B6C0025F0A0F9E3E764480078013801280BD878
:102B7C000020CDE90A000AA812F036FD20B15D480C
:102B8C00022100781BF0ECFE84F00200D1E7817882
:102B9C00022904D10121817000201FF0D3FA84F4A2
:102BAC008050C6E705200021B3E753480078002881
:102BBC0040F08680DFF838A1DAF80C50002D79D07F
:102BCC0004A80DF1280B01300BF104060390002D25
:102BDC006DD0A87A18B10138A872000646D19AF8BF
:102BEC003180B8F1000F11D00020A91C08228DF8FB
:102BFC002800304627F09AF8584619F085F928B184
:102C0C002A88BDF82A00314623F040FFAF1C0DF195
:102C1C0027015A46384617F0DFF88146384609A98D
:102C2C0023F069FCB8F1000F05D09DF8380040F096
:102C3C00020002281CD1DAF80800A0B1039839462A
:102C4C00082227F073F8022000220C238DF81000C4
:102C5C00BDF82400ADF81A002648007804A90091AC
:102C6C00092120F048FE28461EF040FCED68AEE736
:102C7C00384624F049FA9DF827000128DBD1584644
:102C8C00142126F0EFFE224A09EB490000215B4695
:102C9C0042F8201002EB8000142241604172FF20A8
:102CAC0049468DF83800042024F02CF9C3E7DAF8F3
:102CBC000C0028B90F484FF4006100781CF020FB81
:102CCC0084F4006035E7013A012A09D80322026036
:102CDC000120487001201CF055FC012025F0E2F881
:102CEC00287800287FF423AF04205CE7D4870020E9
:102CFC00642200206B880020BC250020A0C80200A4
:102D0C000827002050270020E87A0020A887002000
:102D1C00284300202DE9F04F9DB00446DFF8400514
:102D2C00406818B18047002800F07982DFF834A59C
:102D3C00DFF834B50D940DF138099AF80000411EF6
:102D4C00002C0B9118BF01218BF80F109BF80280FF
:102D5C000BF118049BF80110002700250C91C0B250
:102D6C0087421ED2B84517D0FEB200214A46042332
:102D7C00304626F0A3FF0E9810F4403F40F00400BC
:102D8C0018BF0135C0B27C2806D130460621F82286
:102D9C0025F0E8FEF82020709AF800000C3401377A
:102DAC00DDE7E9B201380022884204D19BF8050026
:102DBC00002800F05182CDF82880DDF834804FF0E7
:102DCC0001094046B8F1000F08BF1020059015AD61
:102DDC0000200190DDE90B740026380400F0F98125
:102DEC009BF80F0008B98BF80F90E0B200210EAAE7
:102DFC00042326F063FF0E98B8F1000F18D010F4DE
:102E0C00403F18D04FF400509AF800100136013FA3
:102E1C00ABF810009BF80F0001388BF80F0059FA33
:102E2C0084F0B0FBF1F202FB11048BF80D40D4E7F7
:102E3C000021049102E0CDE90B740496C0B20A9E05
:102E4C004FF00009702804D00C987021C0B222F009
:102E5C006BF9F4B200210EAA0423204626F02EFFB3
:102E6C009DF83800FE2803D02046FE2122F05CF9A4
:102E7C0020460621FE2225F075FE4FF400500C9FD3
:102E8C000BF116010022ABF814908BF80C60A146E4
:102E9C00ABF81000FF208BF80E00F8B28BF80D7019
:102EAC00400050FA87F001EB8000B0F806A0DFF884
:102EBC00B00302706000ABF812A050FA86F09BF8D9
:102ECC000F6001EB8002FE20114601F8020F32F870
:102EDC00060F03910890E3480292047814A821F09D
:102EEC0017FC56FA87F0CDF82490013890FBF4F1DA
:102EFC0001FB140000905FFA87FB0C97CB4500F0A8
:102F0C006081ABEB0900B0FA80F04009079000201B
:102F1C00069000204FF00109C00740F09D801FFA79
:102F2C008AF4162C71D9CE480078002840F07181B3
:102F3C00AAF1070758460FAAB9B216F0D1FFBDF88F
:102F4C004A6006F11000A0420FD89DF84600962862
:102F5C000BD1A7EB06099DF8452031465B461FFABD
:102F6C0089F840461AF062FB18B3AAF1010A4FF037
:102F7C0001095446A0B2172864D33628A4F11606CA
:102F8C0058462A4688BF2026A41BB3B2A1B226F00D
:102F9C0095FE3004EED015FA86F010F8010C962848
:102FAC0001D0013EF5E7DDF8348006EB040A002081
:102FBC00B2E79DF84700C10701D1800704D4002077
:102FCC00CA46DDF83480A5E7F01D83B2089813FAE1
:102FDC0080F4B4F5005F01D90120F2E780B2A54975
:102FEC0018440A1A5846414626F068FE06980130E5
:102FFC00B4F5005F069004D101204FF40051089104
:10300C00DEE70020CA460894DBE7069810B1964923
:10301C0026F0AEFF0098C0B2834500F0D8809149ED
:10302C000C98097859FA80F0DDF82490B0FBF1F295
:10303C0002FB11078C4907EB470001EB8000B0F84D
:10304C001CA058E789481499006842688848904742
:10305C000020DDF8348005E0069810B1824926F096
:10306C0087FF002007900C980A907D480078002874
:10307C0040F0CF8008981021C0F50052103883B270
:10308C000998C1F2001221F05FFB754A11780843D0
:10309C0014991070754800684268754890470798F5
:1030AC000A9A88B16F4800780BEB0001013991FB4B
:1030BC00F0F202FB10126C49D0B2400050FA82F0D0
:1030CC0001EB8000B0F81CA0DFF89CB108990298C5
:1030DC00099C01238BF80E200180ABF81010BBF972
:1030EC0012209BF80D102046ABF814A023F0C6FB61
:1030FC00BBF914209BF80E102046022323F0BEFBD4
:10310C00BBF81000049CB8F1000FC0F5005007D0BC
:10311C000599DFF850A18842A4BF0121019101E07B
:10312C00DFF840A1059988424FF07C01B8BF7821A7
:10313C00099E304621F0F8FF0DF0B8FB07469BF8CE
:10314C000F000621FC22C01B8BF80F00304625F027
:10315C0009FD0399FC209BF80E3008709BF80210B7
:10316C0017FA84F00C9301449AF80000B1FBF0F2CA
:10317C0002FB10118BF802100A910131CAB2B2FB9A
:10318C00F0F202FB10118BF8011003EB43010BEB77
:10319C008101898B102906D10C990131B1FBF0F218
:1031AC0002FB10100C900B98C01BB8F1000F0B9089
:1031BC003FF410AE019880F00100C0077FF40AAE16
:1031CC0007E00120CB464FF0010907904DE700982E
:1031DC004AE77C2021F0C2FF0446FF2825D17E203F
:1031EC0021F0BCFF0446FF281FD19BF8014004EBE3
:1031FC0044000BEB8000807DFF2812D09AF8000071
:10320C009BF802100144013991FBF0F202FB1014FF
:10321C000BE0164814990068426815489047002244
:10322C001AE020467E2121F07FFFE0B2FE218BF8D0
:10323C000340400050FA84F00BEB8000808BABF81D
:10324C0006009BF8020021F06FFF00208BF80500B0
:10325C00BBF81000C0F5005210B21DB0BDE8F08FE5
:10326C00582300206388002048800020D8010010DB
:10327C0000400340002000112DE9F04F89B021F0EF
:10328C00CBFCDFF810158122DFF81485DFF814A5CC
:10329C00DFF82045DFF814E50A70DFF8FC1408604D
:1032AC00DFF8F804FF2101700020DFF80415A8F8FE
:1032BC0000008AF80000DFF8F0040968007891F843
:1032CC0008B04FF6FE718EF8000059448AB2A1681E
:1032DC00D1F80031DB899A4200F267810422DFF8D1
:1032EC00DC54A8F80020DFF8D02412689668330E5E
:1032FC00CEF80C60C6F301592B706FF0FF0303EA94
:10330C001627B3B2D1F8B86047EA1327AEF80470A9
:10331C0036781EB9B9F1020F00F04781B9F1030FED
:10332C0000F043811B0A03F0070316B1002B00F0D9
:10333C003C81DFF88CC4042B9CF800C008BFBCF1A6
:10334C00000F00F032813EB1DFF878643678862EBB
:10335C0002D1022B40F02981BB0416D4BBB203F07E
:10336C000703022B08BFBCF1000F20D0DFF8541468
:10337C000978862909D10020764621F085FCDFF8F2
:10338C004004B64690F800C0307800284ED0BCF10E
:10339C00000F4BD1012800F0088103283FD00228F0
:1033AC0044D1BEF80400400740F0FF803EE0D1F865
:1033BC00D40090F88300022800F080802746052076
:1033CC00147BF246A946A8F8000026F085FE0546B7
:1033DC00DFF8F003007886286DD1B868016C0968B5
:1033EC0011B9D0F84C05804760B20021002627F0B7
:1033FC002DFAB9680A6C12685077086C00688677E9
:10340C00086C0068C477284627F012F9BAF8041043
:10341C0099F8000001F010011DF0B6F84EE0BEF86E
:10342C00040000F00700032840F0BF80BEF8040041
:10343C00010700F1BA80810402D4810500F1B58046
:10344C009EF80E20C2F38107012F00F0AE80960982
:10345C00012E00F0AA80B9F1010F11D840F0020141
:10346C0001F0070103290BD117B93F2A40F29D80C7
:10347C0037B9A168D1F8AC100978002900F0958013
:10348C004FF6FB71B9F1020F0BEB010C19D1CF4BBD
:10349C00D95D9B5D03EB01090023402AB7FA87F243
:1034AC0038BF012352091A40430616D4002A08BF1C
:1034BC0009F1020915E0284627F0BAF825F012FDAB
:1034CC0075E0C14B402AD95D9B5D03EB010908D324
:1034DC00420648BFA9F1020903E0002A18BF4FF0C9
:1034EC000209C0F300205FFA89F11FFA8CF30A1A63
:1034FC008EF801009A4258DC60440391B346401A9E
:10350C00A168AEF806007430D1F8501280B288472A
:10351C00A6490028886048D07421CDE9019726F08F
:10352C00A1FAA24F0020B870A548007820B93879CC
:10353C0000F020008AF8000078789AF80010DFF884
:10354C0078C24FF000092E4600299A493DD0002838
:10355C004FF000003AD1B88800F00700032807D0DC
:10356C00012832D18868D0F8D40090F8820060B37A
:10357C00C8684069007818B126F0F2F8FE280DD022
:10358C008C488068D0F84C02804738B989488068EC
:10359C00D0F844028047002800F0F780834F0120C8
:1035AC00B870DFF814C22E4610E025F04BFF26F061
:1035BC0093FD814900240A6813681C7112680A6023
:1035CC0027F036F809B0BDE8F08F0020BC6804F194
:1035DC00740184F830B06160A1657978BB88FA8891
:1035EC000029A381029B228184F83A30337808BFEA
:1035FC00994697F80EB084F84990019DA4F85C2088
:10360C00FF22B8F80030A273CBF301195E1A797B54
:10361C00A8F8006001F0780160F3820101EB090069
:10362C002074280600F0AE80DCF8000004AF039A8A
:10363C0010FA86F000F10801384627F02FF956FAF7
:10364C0085F0CBF38105A8F80000207C00F0400841
:10365C00CDB3B9F1020F06D1B8F1000F03D0B4F815
:10366C00440004AF06E0BDF810000237A4F8440093
:10367C00A4F84200564EF189884203D04FF6FF71F0
:10368C0088425ED1032D11D104F13200394627F066
:10369C0044F8464CF11CA068323024F0BCFD45497E
:1036AC0000284ED094F80EB008370EE037F8020B15
:1036BC00B1898842608606D04FF6FF713B4C884238
:1036CC003C493ED101E03B49384CBBF1400F20D383
:1036DC00B9F1020F06D16DB9B8F1000F0AD1334818
:1036EC00806803E0A068017C490603D4398802375E
:1036FC00A0F84210BBF1C00F06D32C4C3946A06881
:10370C00283027F00AF803E0284C3888A16808858F
:10371C0028498968A088D1F8AC201278B2B1B9F1E7
:10372C00020F13D200F00700012802D003282FD17A
:10373C001E4C6DB9264AA368D289B3F84230934225
:10374C0006D016F018F819F0E7F930E700F007008A
:10375C00032806D0012815D1D1F8D40090F88200A6
:10376C0080B1A068D1F848128847104A50B900209F
:10377C00D17B9070907BC1F3011100F0780008446C
:10378C009168087408F042FA11E7084FB87808E716
:10379C00064CDDE778880020008800207D8800201A
:1037AC006A8600207B8800207A880020C4240020B0
:1037BC00408800200C0100208C8700208B88002082
:1037CC008A8800208088002030C802002CC80200A3
:1037DC00AC8600202DE9F04F97B0DFF81085054638
:1037EC00DFF80C6598F800000328307040F04C812D
:1037FC00002088F8000030700DAC204626F099FFB0
:10380C002046002125F02FF9DFF8E894B0603A212A
:10381C00484626F027F94FF0FF30A9F81400C9F8F4
:10382C001000C9F80C0023F03FF8002029461EF0C8
:10383C00B9F906F11001F06026F009FFD6E905028E
:10384C00DFF8B474B0FBF2F1C9B2032928BF03212D
:10385C0089F800103970B2F5005F40F01281B0EBBE
:10386C00413FC0F00E81F068002800F00A814FF44F
:10387C000050FF224FF000084FF0885BA9F80600BB
:10388C00FF2089F8032089F8058005900020089016
:10389C0000200B900020099000200790002006903B
:1038AC0000200A9000200C90FF200290FF20049032
:1038BC00FF200390CCB2A04580F0E9805FFA88F637
:1038CC00002116AA0423304626F0F8F9DFF830441C
:1038DC003046002115AAA0473046012114AAA04762
:1038EC003046022113AAA04716996FF06F0050FAC8
:1038FC0081F2C8B20E2A06D8012303FA02F245F26D
:10390C0001131A4203D1A0F1FE02022A04D242F2A0
:10391C008352B2EB914F1ED0304614F0F9FADFF817
:10392C00D0130028087040F0D2803046002116AA2F
:10393C00042326F0C3F9DFF8C8433046002115AA4A
:10394C00A0473046012114AAA0473046022113AAF1
:10395C00A0471699C8B208EB4802CA463D4609EB87
:10396C008209C1F30142090A4C46FD2804F8160FDE
:10397C0061709DF85610E270A17001D9102135E0EC
:10398C00BDF854104FF6FF7291422FD10EA820F0C3
:10399C00BFFE304600214FF088524FF400534FF4D5
:1039AC00005726F08BF96FF0030313FA87F7B8B2C0
:1039BC0050F80B104A1C01D10328F6D8012201261D
:1039CC00D3B2042B06D8CBB2FF2B18BF164601324C
:1039DC00090AF5E740F80B10CA480E9900684268CE
:1039EC00C948904757FA86F081B22078A9F81C1084
:1039FC009DF85210702889F81A10BDF85010A9F8CB
:103A0C001E109DF84E1089F81B10BDF84C10A9F82B
:103A1C00201011D07828D14614D07C282F4616D0EF
:103A2C007E281AD0FE281FD0FF2823D10898CDF865
:103A3C000C800130089020E00A98D1462F460130C6
:103A4C000A901AE006982F460130069015E0079868
:103A5C00CDF81080013007900FE0099801300990E3
:103A6C001FFA88F0029008E00B98CDF81480013012
:103A7C000B9002E00C9801300C90397808F1010899
:103A8C0018E7012088F8000017B0BDE8F08F0C98FB
:103A9C00974E00060BD10B98C0B2012807D80A9894
:103AAC00C0B2012803D80998C0B2012811D9934893
:103ABC00042200240270CAB2E0B2904210D214F078
:103ACC0027FA31780134084339783070F3E7884E9F
:103ADC001BE0089BD8B2A04219D188480022027082
:103AEC00002089F8030089F80100481E7E2189F81E
:103AFC000200B9F81C00A9F80600002021F014FB04
:103B0C0099F80200FE2121F00FFB3078BCE70A98EF
:103B1C00000624D00B98059A000603D1039A1806C8
:103B2C0000F08480754802210127D5B289F8022063
:103B3C00017017FA82F0B0FBF4F101FB140089F864
:103B4C000100284614F0E4F930702846FE2121F0DB
:103B5C00EBFA89F805700020FFF7DCF8D5E70B9835
:103B6C00059A000621D06548012189F802200170D0
:103B7C0011FA82F0049AB0FBF4F101FB140091B23B
:103B8C00FF2989F801001FD10299FF2919BF89F873
:103B9C00031001EB410089F8030000EB400009EB36
:103BAC008000808BA9F80600AFE7DDE90620104302
:103BBC0000063FF47CAF22F04BFEA04280F08580E3
:103BCC004E48032101703EE0480089F8032010FAAA
:103BDC0082F009EB8000818B1829A9F8061094D388
:103BEC000739D0B20EAA89B216F07AF99DF84300C3
:103BFC004007B0D5B9F80610BDF84620002399F857
:103C0C00030000930323891A0EAA073989B206F020
:103C1C00B5FE00287FF479AFBDF8441000293FF4BD
:103C2C0074AF9DF848001DF073FA6EE722F010FE99
:103C3C000621A042314838BF03210329017002D06C
:103C4C00062952D061E722F003FE054689F80C00E4
:103C5C0000EB400009EB8000408BA9F80D000CF044
:103C6C0025FE39782844B0FBF1F202FB110089F8EB
:103C7C0002000130C2B2B2FBF1F202FB110089F872
:103C8C0001007C2021F06AFAFF2812D17E2021F05D
:103C9C0065FAFF280DD1FF2021F060FAFF2808D12A
:103CAC00782021F05BFA014699F80100FF2918BF32
:103CBC000846C1B289F80300490051FA80F009EBBB
:103CCC008000808BA9F806001AE70898000609D036
:103CDC0099F80200FE213C46374621F025FA24785B
:103CEC00039A40E7054806210170FEE72D270020C6
:103CFC005823002048800020638800206F88002013
:103D0C00E39E0200D8010010004003402DE9F84367
:103D1C0005460C46480413D4A00024D4A0075CD458
:103D2C0060057ED4200500F10681200700F13B815F
:103D3C00600040F1F6801AF0E1F824F08044F0E0E5
:103D4C0026F0CAF9DFF81C140F6D3FB1D7E90A123F
:103D5C0002F0E04201F00A01891849D026F068FC13
:103D6C0024F48044DDE0BB48DFF8FC73016841F0CB
:103D7C0080010160B878012804D1042021F056FAA2
:103D8C000020B87026F0A8F90646042026F04CFA5C
:103D9C00DFF8D8130A68904219D12A7EBAB1FA68B2
:103DAC00AAB1DFF8C003806C002800F09780C168CE
:103DBC0040F603020988914206D0C06840F604011F
:103DCC000088884240F08A8005F1140088E040F6B3
:103DDC00C4120860C5E9042284E009F061FBDFF835
:103DEC008403006C002840F09D8024F0020498E0CD
:103DFC00D7E90A65D7E90A12AA43B143C7E90A12FF
:103E0C0026F016FCB8680028AAD056EA0500A7D000
:103E1C00D7F808C03869B7F9301032462B46E0475E
:103E2C009EE726F059F9054623F076FF002800F0AE
:103E3C00B780CC48876B002F00F0B280DFF8288366
:103E4C000420CB49002288F81800C64825F089FBCD
:103E5C0026F018FCC74826F0E5FBC7480068006B45
:103E6C008047C8F810000125042088F8025022F081
:103E7C0013F8386990F82810C8F80400490703D5DE
:103E8C00436A04210022984701201BF0EFFDD8F86B
:103E9C000400457613F0C8F8D8F8040081680B4686
:103EAC001A465B684BB11E88A6F60306072EF7D898
:103EBC0005FA06F616F0830FF2D0537B03F0F003ED
:103ECC00013353730023FD6853602D88A5F6030559
:103EDC00012D00F28A80C8F810309FE005F1100027
:103EEC001EF098FC304626F0A3FB21F0EDFF78B1D4
:103EFC002E6A28466FF4807100224FF00073B04791
:103F0C009848806B10B119F0F9FF01E044F00204FD
:103F1C00EE692846002100224FF08063B04724F060
:103F2C00005434B1974821462830BDE8F84326F0B8
:103F3C005FBCBDE8F8838C4EB078012804D1042016
:103F4C0021F074F90020B07021F0BEFF38B1706818
:103F5C006FF4807100224FF00073056AA847306936
:103F6C0050B185480068006B804732697168801ACF
:103F7C00000BC860002030617A4D81490022284630
:103F8C0025F0EFFA02203076286C20B17D48022112
:103F9C00283026F02DFC19F0B1FF24F40064C0E7A2
:103FAC0026F070FB41E026F097F8054623F0B4FEAE
:103FBC00A0B1DFF8B48198F8000000070ED498F98E
:103FCC00000000280AD4684613F0BCFA08B1009827
:103FDC0020B1DFF8B49199F8610048B326F052FB98
:103FEC0019F08CFF24F008049BE7034633F8385F84
:103FFC00A5B190F8445090F8456005F0F00580F8B4
:10400C00445006F0F005013580F84550002553600A
:10401C00C5634587507B00F0F00050735748002271
:10402C00C2610160012024F0C9FA24F4806478E7AD
:10403C0000260127602E0FD009EB0600817A31B1E2
:10404C008772407A07FA00F0C0B221F009F92036E5
:10405C00F0E700BFCC210840032088F81800454841
:10406C0026F0E0FA26F00EFB444F3E4D0022786914
:10407C0000207861F968F8602846444925F071FA07
:10408C003D480068006B8047D8F80C10D8F8202009
:10409C00411A02EB1130B0EB113F38BF4FF0FF303B
:1040AC0098F82410C8F8200021B1D8F80810B0EB0B
:1040BC00C12F20D924F092FAB8B140F6090041463C
:1040CC0021F83C0F002048804A7B02F0F0020132BC
:1040DC004A730A7B02F0F0020A734860F861396097
:1040EC00B8F83E0010F4406FFAD00020C8F8200059
:1040FC00012088F824001DF00DFD254800210160E9
:10410C000220002124F05AFA022021F08FF810200E
:10411C0011F010FF98F8010020B9D8F804005030C5
:10412C0026F062FB1B48807810B90D2011F002FFBD
:10413C0098F8250028B1002088F82500052021F0EA
:10414C0075F8002088F818001348C8F81C000220E5
:10415C00B5F85610B5F85420914208BF072019F055
:10416C0015F83DE798200020341E0020782600200A
:10417C00017D0200C87E00208C010010001004405C
:10418C00F1130100D81F0020607B00206DDF0100BF
:10419C000000046084C70200C90A01002DE9F04F39
:1041AC008DB084780226142C00F21F820546DFE8BD
:1041BC0014F02900150015004A0085001C021C0291
:1041CC001C021C021C021C021C021C021C021C02F3
:1041DC001C028E009C00AF00BE00CC0001206A784F
:1041EC00022C8DF83100089240F0C080E878291D2F
:1041FC0003288DF82C0040F0E18009A8082225F056
:10420C0095FDE0E010208DF82400102026F0DAFA5D
:10421C0098B10446DFF8E00321466060E81C10F01A
:10422C0027FB8DF8240028B9204623F017FE8DF8C3
:10423C00240010B1204626F0C3FA002609AB6420F6
:10424C0000210122C2E10020CDF82A00ADF82E0099
:10425C00CDF8260002208DF82C00E81C26F0AEFAD2
:10426C00ADF824006979A8798DF82D1025F0EEFDB4
:10427C008346E81D26F0A2FA95F80C908046687AE1
:10428C00AC7A95F80BA04FEA49078DF83100384607
:10429C0026F098FA002800F01081CDE90748064670
:1042AC004FF0000805EB0800474570D00D3026F0A4
:1042BC0085FA26F8080008F10208F3E7E87821F0FF
:1042CC00D3F88DF8240009AB6420042189E1E97846
:1042DC00032900F25281281DDFE811F0040051017E
:1042EC0055015D0118F0F4FF76E1E81C26F066FA42
:1042FC00C04C6668002E00F0E4806A79002A00F059
:10430C00E4803368A91D184425F010FD0020D9E085
:10431C00B84EEC1C04212046376822F0A1FE002F79
:10432C004AD0B968814200F0A0803F68F7E7A888BE
:10433C00ADF82400E87809A924F01EFD8DF83200B0
:10434C000DF13203642013214BE10026E878ADF81F
:10435C00246009A923F02CFFBDF824000DF13203D1
:10436C0014210222ADF8320064202FE1E81C022156
:10437C008DF82C1026F022FAADF82400002005F15F
:10438C000608ADF82E0068798DF82D0026E0BBF1FB
:10439C00000F00F0B580437B0DF131010E30CDE9FB
:1043AC000496CDE9000107985946CDE9020A09A8FF
:1043BC00089A1EF075F8A4E0012000E1084626F0EA
:1043CC00FDF9ADF82400287B8DF82D0005F10D00CA
:1043DC0026F0F4F9ADF82E0005F10F0898F800005E
:1043EC0025F034FD054608F1010026F0E7F998F8B0
:1043FC00036098F804A098F805B08146022C8DF85B
:10440C00326009D108F1060026F0D8F9074608F108
:10441C00080007F10A0104E098F8067008F107009B
:10442C0039464DB10A3189B2FB2907D3DFF8C48173
:10443C00D8F8040000286ED0022009E00DF13201FA
:10444C008DE8030C09A84A463B46294603F016FFA3
:10445C00089E8DF8310006F0E000202840F0C48062
:10446C000DF1310364202146BBE0EC1D204626F003
:10447C00A5F96D7A002D00F0978005F102098246AE
:10448C00484626F09FF9002800F0988000264570D9
:10449C0080462A460670786800EB0A0108F1020093
:1044AC0025F044FC5FFA89F26420122143461EF089
:1044BC0005FE404626F084F997E010208DF8320076
:1044CC0024E010208DF8240016E0D6F800C0F38A02
:1044DC00B28A3169757EB77E06F11800CDE900C04D
:1044EC00301DCDE9025703F0C9FE8DF82400606839
:1044FC0026F066F90020606009AB6420112170E0A1
:10450C0002208DF83200304626F05AF90DF13203B4
:10451C006420032165E007F11C0026F053F9002804
:10452C00C8F8040055D000F11C010C2201600020D9
:10453C008DF83100D8F8040009A9043025F0F6FBF9
:10454C00D8F804000F214FF47A7205612A4DC17618
:10455C0080F81AB080F819A00676C782A0F81490DB
:10456C000821287826F094F8089E00283FF473AFB1
:10457C00287808211AF0F4F96DE702202CE0007875
:10458C001AF01EFA28E0007825F060FC18B325F02C
:10459C002DF9002020E026F011F9A97925F074FE00
:1045AC00B0FA80F0400917E03068B84201D13868A1
:1045BC003060384626F004F9002000E01020002678
:1045CC002070642012210222234666701EF076FDB4
:1045DC000BE010203CE701208DF8240009AB64208F
:1045EC00102101221EF06AFD002630460DB0BDE8F8
:1045FC00F08F00BF00260020628800202DE9F04FCC
:10460C008FB00C4608040CD4A00426D4DFF88853D1
:10461C00287802282DD1E10740F00181A10641D56F
:10462C0058E0DFF86C0300781AF098FE90B101782E
:10463C00DFF8602305460020602808D0135C0830A2
:10464C008B42F9D1104450F8041C28468847284660
:10465C0024F0BEF984F4004595E11DF027FE28B145
:10466C000546FCF7F7FA284624F0B2F984F4005515
:10467C0089E1A1062ED4012814D8E10600F1178196
:10468C00610600F12F81210600F13D81E10500F169
:10469C003F81210500F14181E10400F15481610465
:1046AC0000F15B81A10700F1E080A10500F1FA8027
:1046BC00210700F11181610500F11981E0034FF030
:1046CC00000540F160811CF0FDF8B648C57084F41B
:1046DC00803558E1AE4F202138781FF0B1FADFF861
:1046EC00C4820125D8F80810084317D026F03CF8EE
:1046FC00054626F037F868434FF47A71B0FBF1F0B9
:10470C00D8F80810401A4FEA500538BF6FF0004532
:10471C00002908BF0D46002D00F0C28000200421A6
:10472C00002223F01BF806464FF0060A4FF0FF0953
:10473C004FF6FF780DF1080B002E4DD030460421BA
:10474C000022374623F00AF806463889401B38BF4A
:10475C00002038810004EFD1B87BD0B301280AD1F6
:10476C007889400707D4386887F80DA0B721407BBB
:10477C001DF054FDE0E739685A468DF80690ADF807
:10478C000480086AC97F0DF023F801281BD1B87B7F
:10479C00B97A8DF838000907788A40F08002ADF8B4
:1047AC00362006D540F4C070ADF83600387B8DF855
:1047BC003A00786910B1007BADF81800584601A991
:1047CC00002202F027FC387B87F80DA016F05AF96E
:1047DC00B2E701207873AFE7DFF8C8816C4F23F0A4
:1047EC001DF900200121002222F0B8FF18B1387801
:1047FC0020211AF0B5F8002004210022002622F016
:10480C00ADFF002847D006890421002222F0A6FF24
:10481C00A0B10289B1B2914228BF1646F4E76548AF
:10482C0090F82C100F2906D190F82600022802D3FC
:10483C00002021F0E9FA84F00105A4E0A8B2B1B29D
:10484C00814223D9D6FA55F0202180B24200387823
:10485C0025F01EFF25F088FF054625F083FF6843F1
:10486C004FF47A71B0FBF1F615E05348007818B3A9
:10487C0002AD284625F083FE25F052FC4F490B78FB
:10488C004F490A7829461BF06DF822E03878202130
:10489C001AF066F80026C8F8086084F0200572E06B
:1048AC0000259CE715F0EAFC84F400756BE008F039
:1048BC005DF984F0100566E03E48418B012025F03F
:1048CC0077FF2878022804D13148012100781AF0AA
:1048DC0017FD84F0020556E03248012184F00805EA
:1048EC00817050E00CF06EF984F040054BE002282A
:1048FC0008BF15F0C7FF2F480121808C25F04AFF17
:10490C0084F480653FE024F065FC84F080053AE097
:10491C0022F080FD84F4807535E01BF00FFD2048FB
:10492C00007801280CD11D48007848B14FF47A71F9
:10493C0000FB01F216484FF40061007825F0A5FE4B
:10494C0084F400651FE01748017819B1002101704B
:10495C001BF0F4FC84F4805515E01448006880B119
:10496C001149097801290CD180471148006800B120
:10497C00804707484FF480414FF47A72007825F055
:10498C0084FE84F4804528460FB0BDE8F08F00BF4C
:10499C006488002014C10200BC250020622700207E
:1049AC006327002098250020602700203C2300204E
:1049BC0048230020E87A00203C27002066270020AE
:1049CC00682700202DE9FE4F8846080426D45FEAAC
:1049DC00C87004BF0020BDE8FE8FE548056825F0CF
:1049EC00C3FE044625F0BEFE60434FF47A714FF6C9
:1049FC00FF72B0FBF1F14FF6FF70002D00F01A8141
:104A0C002B886C88CB1A9BB29C4240F21C81E31A17
:104A1C0094B2A342B8BF1A46ED68EEE7DFF840A3A4
:104A2C00CDF804809AF800001AF098FC002800F0E9
:104A3C00FC8006460078012840F0EC80DAF804107F
:104A4C0096F83390D6F814B096F8138021B14846F6
:104A5C008847002840F0DE80718896F831000222E9
:104A6C0022F010FC0546002842D0287A297CA0F1BF
:104A7C000108FF2900F0BB80707F4F46C00718BFAC
:104A8C000027E97C287D0144B94204D8E974FF2150
:104A9C0001FA00F06874A969A87C96F83020896A3C
:104AAC0010FB0710F16A25F041F9287D697CB7FBF2
:104ABC00F0F202FB107001228240D2B20A436A74F7
:104ACC00C8457CD196F83010AB7C13FB0713A96951
:104ADC008B844FF4FF7303FA00F0C0B21043FF282D
:104AEC0068746CD1287C1AF095FFFF2028747FE045
:104AFC00707FC00700F08E80B07F25F0A7F90028EA
:104B0C0000F0888004461C2025F05CFE002800F094
:104B1C0081801C21054624F0A5FFB07F02A923F05B
:104B2C0047FB9DF8090002212875284623F096FBC7
:104B3C00708896F8312096F8301096F83330A880AB
:104B4C00287DEA71FF2202FA00F068746068007830
:104B5C00A9742874302013FB010080B223F03AF8BA
:104B6C000028A8615DD004461A20B11C2060708C0E
:104B7C00A080A01D24F00EF9F27F04F13000B17F6B
:104B8C0096F82830C4F81CB084F81980A062307CE8
:104B9C00E273744A217563750121A075928C22828F
:104BAC00F28EA285F28C6282B6F81100A4F817007E
:104BBC009AF8000085F8089019F0D2FE55E725F018
:104BCC00D3FD044625F0CEFD60434FF47A71B0FB63
:104BDC00F1F06549288063480978007948436421DD
:104BEC0048436249097800FB0100688000E04F46A9
:104BFC00E87C297D6A7C01440139B94218BFFF2A3F
:104C0C000CD186F83300708806F11C0186F834202C
:104C1C0017F005F9304623F0DBFE03E7C845F9D160
:104C2C00EFE7284623F02AFBF4E7019880F40040D4
:104C3C00BDE8FE8F92B282424BD0494801210078E8
:104C4C0025F026FD45E0A879022806D1287CFF280E
:104C5C0037D0A86923F0BCFE33E025F085FD04466F
:104C6C0025F080FD60434FF47A71B0FBF1F03F49C1
:104C7C00288095F83800097888421BD295F83620A0
:104C8C00FF2A06D195F83720013085F8380085F8D1
:104C9C00362095F8351095F8394082F0FF03002046
:104CAC000126C7B2A7421DD206FA07F71F4214D13C
:104CBC000130F6E7EA8BA87E95F82A10E9231FF05D
:104CCC0009F9284623F0DAFA25480121007819F071
:104CDC0047FE88F00100BDE8FE8FFBB201441A4389
:104CEC0085F83620AB8F95F83440C8B204FB1033EE
:104CFC009EB2A64203D2FF2285F8362002E0FF2A9C
:104D0C0008D12346184A174E127836797243642616
:104D1C00724302E095F83A2023466A802A8D0E06EB
:104D2C0006D022F0200244432A852A6C224404E057
:104D3C0042F020012A6C2985297A85F82E10E97910
:104D4C006A6285F82D10D9B269840549496811B198
:104D5C0088470028B8D105F1100004F021FAB3E718
:104D6C00E0250020E87A0020562700205C27002050
:104D7C00FC6400207FB50138072800F24C810C46FA
:104D8C00DFE810F008002C0054006E008900490187
:104D9C00A600C900CB4800780138012800F23B81FD
:104DAC00002C00F047810020032100241FF0EAFAB8
:104DBC00C64DC74E0420042132222870307825F0CD
:104DCC0067FC0820002107F097F830786C704FF4DE
:104DDC00805104B0BDE870401AF092BA0020002552
:104DEC0025F03CF8BB480121017004208DF80D0022
:104DFC0074B1B548B34C45852078012803D1072000
:104E0C0023F02CFC2078022802D1062023F026FC6B
:104E1C00AE48042132220570AD48007825F038FCEC
:104E2C00A94890F82B1001F0FE01F2E0A54800789B
:104E3C000138012800F2EF80A548042132220078C5
:104E4C0025F026FC002C00F00F819F4C9F4801217F
:104E5C0001702069002800F0EC801FF035FEF8E7A7
:104E6C000120002C8DF80D007BD0974800219B4A27
:104E7C0080F82A10984825F0B9F9924C207801282E
:104E8C0003D1072023F0EAFB2078022870D10620FA
:104E9C0023F0E4FB6CE002208DF80D008A48002C16
:104EAC0073D000218D4A80F82A108B4825F09EF98A
:104EBC00002003211FF066FA824C2078012803D1D0
:104ECC00072023F0CBFB2078002877D1092073E052
:104EDC007C4D00208DF80D00002C28787BD018B963
:104EEC00092023F0BBFB2878022806D108200021DA
:104EFC0007F002F8042023F0B1FB11F075F87348A9
:104F0C000021C822017070480D2180F82A107048C9
:104F1C0025F04DFB78E005208DF80D0069480078F0
:104F2C00022878D1002C00F0C38068480022C17898
:104F3C00C270017042F20800002106F0DDFF6248E9
:104F4C000D2190F82B2080F82A10C17802F0DF0296
:104F5C00002980F82B200CBF04200D2023F07EFBB1
:104F6C0059E05848007818B95748022180F82A109F
:104F7C005648002132220170554825F018FB524842
:104F8C0090F82B1001F0FD0143E0082180F82A1065
:104F9C004C490978012911D890F82E0070B90020DD
:104FAC000DF10A018DF80A0052201DF043FD24F08A
:104FBC00C7FC1EF0EBFD002023F050FB4348002102
:104FCC0032220170424825F0F2FA3F4890F82B103B
:104FDC0001F0FB011DE03C4C022812D194F82E008C
:104FEC0078B194F82B00002140F0200084F82B00BD
:104FFC0005208DF80D00082006F07EFF0A2023F016
:10500C002DFB022084F82A002F4890F82B1001F079
:10501C00EF0180F82B102C480022032390F82A0073
:10502C008DF80C002A48007803A900910A211EF083
:10503C0062FC7FBD244C0720254D4FF4805184F831
:10504C002A0001208DF80D0028781AF059F900205B
:10505C00002622F0F7FA2878022141F2883284F8EF
:10506C002B6025F015FBD6E7174C022000218DF89C
:10507C000B1084F82A001548017094F82B000DF1E0
:10508C000B0100F0FD0084F82B0001208DF80D00C1
:10509C0052201DF0CFFC24F053FC1EF077FD0020B5
:1050AC0023F0DCFA20690028B5D01FF00DFDF9E7DC
:1050BC000548022180F82A1090F82B1041F02001AD
:1050CC00A7E700BFBC25002064220020D487002065
:1050DC006B88002053270020E87A0020242700202A
:1050EC0092B0DFF8EC92D9F8000010B1002180F8F2
:1050FC004510483021F0B0F824F0EEFF8046072030
:10510C0011F08AF918F078F810B1B24825F088F946
:10511C001AF004FD01AD284624F078FE0427002087
:10512C0029468DF8047024F079FEAB4C206024F0F5
:10513C00B3FA0AAD284624F019FD002029468DF853
:10514C00287024F01BFDA54E306024F0AFFA06AD9C
:10515C00284624F01BFD002029468DF8187024F0F9
:10516C001DFD31689E4D286019B99E4825F058F9EF
:10517C00286810B99C4825F053F9206810B99B4851
:10518C0025F04EF91CF072FFD9F800004FF0FF34F7
:10519C0038B1CDE9104410A9082223F0F1FC012804
:1051AC001BD1CDE91044082025F00CFB002846D07B
:1051BC0005460026052E04D825F09CF9A853023686
:1051CC00F8E74FF6300029460822E880884824F09A
:1051DC00ADFD284625F0F4FA09E0D9F80010CDE928
:1051EC0010440029DFD08248082224F09FFD10AA29
:1051FC000120082125F0D2F8092800D0D8B922F0D6
:10520C002BF8800712D4CDE91044CDE90E440EAB37
:10521C0001200021082224F001FC60B90EA810A97D
:10522C00082223F0ADFC002800F0CB80704A01204E
:10523C00082125F0B9F86E49E2201DF0FBFB12F0B5
:10524C004FFC282025F0BEFA6A4E0028306055D05D
:10525C00694F6A4C07F10C0525F0A5F924F0F6FC12
:10526C003068056007F1100525F09DF964498968DF
:10527C00D1F84C1388473068456007F1140525F0C8
:10528C0092F91CF0D5FA3068856007F1180525F005
:10529C008AF919F0F3FE3068C56007F11C0525F09A
:1052AC0082F91FF03DFE3068056107F1200525F0FD
:1052BC007AF91EF001FD3068456107F1240525F0EF
:1052CC0072F91DF02FFB3068856107F1280525F078
:1052DC006AF924F003F83068C56107F12C0525F054
:1052EC0062F920F041FF3068056207F1300525F0C6
:1052FC005AF9387024F0E8FA3068456219F024F84D
:10530C00404841494FF00009CDF8409001603F48BA
:10531C000321119010A820F05FFD24F06FFE404691
:10532C0025F086F918F076F825F00CF901201EF01E
:10533C00E5F81AF0CBF837480078022808D1344841
:10534C000078012804D14FF40040012106F0D4FD6F
:10535C00294F4FF48041387824F05AFF2E484FF0F3
:10536C00FF3100680DF05EFCDFF8B08078684FF01C
:10537C00FF310DF057FC3068002550F825100968F6
:10538C0021B9691C092D0D46F7D3EFE725F0ADF8CF
:10539C00316851F825100C68C1F8009025F081F99E
:1053AC0058F82520002021469047044625F09DF80A
:1053BC00316851F825100A6822430A6025F071F90A
:1053CC00D4E70B480EA9082224F0B0FC33E700BF49
:1053DC0000270020D4C10200BC870020C087002019
:1053EC00C4870020F2C1020005C2020018C20200EC
:1053FC006C87002038880020F0200020D15102005A
:10540C000C01002054230020C1D00100008D150098
:10541C007B270020BC2500201488002054C40200E7
:10542C002DE9F04F89B08A4608040DD45FEACA70A2
:10543C0040F01D815FEA8A7000F12B815FEA0A70EF
:10544C0000F13381002042E1A24F387819F086FF39
:10545C00DFF88892A04C06464FF0000B48F2150876
:10546C00002E00F001813078312838D0322849D014
:10547C00D32840F0B380F089404573D0382840F0F1
:10548C00AD80CDF820B0CDE906BB304606A920F0A2
:10549C00C3FD9DF81C10052968D8307B002840F00E
:1054AC009D809DF81D00002800F09880052800F2D2
:1054BC009580069824F076F8002840F08F80707C58
:1054CC0087497870708808809DF81D002146013846
:1054DC008DF81D0006A890E82C002CC17EE0B87851
:1054EC0003287BD899F82E10804824F05BF800280C
:1054FC0074D1FF207C49607170880880B08879492C
:10550C0008806BE06079FF2814D0002016F0D4FBE3
:10551C000246B9F8701078783346CDF800B012F026
:10552C0027FE6079002859D038780821322225F0DE
:10553C00AFF853E099F81810706820FA01F2D2070E
:10554C001ABF3144097A002106F1080200231B2BF3
:10555C0042D020FA03F5ED0702D0D55CA9421ED843
:10556C000133F4E7304621F0CDFF37E0FF293DD081
:10557C00FE2956D199F872109DF81E00884202D867
:10558C0060BBFF292AD11DF057F8069900201B2873
:10559C0059D021FA00F2D20757D10130F7E7B9F808
:1055AC006E004F49334608804E4802884E480188A9
:1055BC0010200090002012F0DBFD0120F870B8786C
:1055CC0040B93C2002214EF66022B880387825F094
:1055DC005FF8B8780130B87084F805B0304623F025
:1055EC00F7F9387819F0BAFE064639E799F87210CF
:1055FC009DF81E00884203D80028EFD1FF29EDD179
:10560C001DF01AF8069838B1D9F82810814203D049
:10561C00C9F8280023F032F8BDF8200023F08EFEE4
:10562C00DCE7307B0028D9D170882D4980220023FB
:10563C000880707CCDE900BBCDE902BBCDE904BB91
:10564C0011F0F8FBCAE71B2000E0C0B299F8181063
:10565C008142C3D02649087099F80700642100FBE9
:10566C0001F23878012162E78AF400402FE02049EA
:10567C001A4C08782076E1201DF0DCF922F0FEFFB0
:10568C000020A4F87000012016F016FB8AF001002F
:10569C001DE010488188B1B101394EF6602281803D
:1056AC000078022124F0F4FF0FE00B4C607938B144
:1056BC002179206823F076FF10B960790138607188
:1056CC008AF0080003E0002181708AF0020009B022
:1056DC00BDE8F08F6C24002004870020E87A0020BD
:1056EC003E870020068400208280002000F8FF07FF
:1056FC00678800202DE9FE4F074608680024B0B1EA
:10570C00D7E9018A0E4624F0E7FC8146D8F8E80078
:10571C00082888BF0124B068204202D1706820425A
:10572C0008D003203074484624F082FF0024204621
:10573C00BDE8FE8FD8F8C01069B198F8F8100029B0
:10574C00EFD006213174D8F8C410C8F8C4604E618B
:10575C0098F8FC100DE000210522C8E93066C8E974
:10576C003411C8E9361198F8FC10002908BF012241
:10577C00327400220129726109D102204FF4E02118
:10578C0088F8FC0098F8FB0020F036FA706889491C
:10579C000138884205D8042020F07EFB062020F03A
:1057AC007BFB022020F078FB98F8F80040B9DAF87F
:1057BC003C003168814203D298F8FC0000286CD080
:1057CC00D8E9361009B118B900E028B324F0F3FE7B
:1057DC00DAF80000416941F001014161484624F0CA
:1057EC0027FF98F8F80008B10124A0E708F16C0530
:1057FC00D8F8EC10284624F091FE0028F4D0D8F804
:10580C00C00003210174384613F00CF9284600211E
:10581C00002424F083FE8AE79AF8040024F0B0FFF9
:10582C00654CDAF810100222206991FAA1F1B1FA54
:10583C0081F14368D8F8CC0040680068984720692B
:10584C00DAF8141002224368D8F8CC0091FAA1F1CE
:10585C00B1FA81F14068006898479AF8040022F088
:10586C004DFD9AF8040024F08DFF24F0A4FE0020D6
:10587C00C8F8E000D8F8C0000068B0F5806F01D916
:10588C0024F099FE98F8FE000028A1D1DAF8000067
:10589C00416841F0020141609AE798F8F90020B1A3
:1058AC00D8F8EC0001307FF48BAF484624F0C0FEF2
:1058BC00B2683AB1D8F8E8000221092838BF0121B2
:1058CC00009103E008F1F40200200090746834B1F8
:1058DC00D8F8E8000227092838BF012702E008F1B0
:1058EC00F6040027DAF80000334D416841F002015C
:1058FC004160D6F800B0D946BBF1000F40D0D8F8C3
:10590C00E800019209284FF0010011D22A68B9F180
:10591C00000F1FD0C0071DD02178DAF80000926864
:10592C00904700281EBF3C44A9F101090120EDE776
:10593C002A68B9F1000F16D0C00714D02188DAF804
:10594C0000009268904700281EBF3C44A9F1010951
:10595C000120EDE7DAF80000D26802A99047DDE9F2
:10596C000120107007E0DAF80000D26802A9904715
:10597C00DDE9012010800098ABF1010B0244BBE77C
:10598C00D8F8F000DAF80010CA680240102802D1EA
:10599C00002AF9D101E0002AF6D0706822F036FB1B
:1059AC00D8F8C0100020C8F8C400C8F8C0000874AB
:1059BC001AE700BFFEFFFF0FC40100102DE9F04FE6
:1059CC0085B08846080418D4A9480078012802D864
:1059DC005FEAC87155D15FEA88714CD4022807D1AF
:1059EC00A4480078012803D15FEA487000F1888050
:1059FC005FEA087057D400202BE1DFF85CA29AF81C
:105A0C00000019F0ABFC002800F021810546807FD6
:105A1C00C8B9688C132816D190486E8800F11C09FF
:105A2C00002049464F46002818BF071D086850B192
:105A3C00014631F8042BB242F4D144683C6024F0A6
:105A4C00BFFE2046F3E7A87A05F1020B022840F0CE
:105A5C00E480DFF8089295F83170BBF8006009F12A
:105A6C001C000068A0B10188B14202D18178B94212
:105A7C0042D00430F5E779480121017088F002002A
:105A8C00E7E07648406900B1804788F00100E0E02B
:105A9C00D9F81C40002C57D001206168002955D042
:105AAC0001300C46F9E77048DFF8B091807BD9F8EB
:105ABC001C60000760D424F057FE044624F052FE0C
:105ACC006A4A60434FF47A71B0FBF1F0D9F81810C0
