:100000000030012091590200A5770200A577020077
:10001000A5770200A5770200A5770200A577020068
:10002000A5770200A5770200A5770200A577020058
:0C003000A5770200A577020009F9000086
:10003C002DE9F04F99B0054680780224532800F240
:10004C00CF85DFE810F054009900A800B800C80074
:10005C00DA00EA000C011B01CD052A013801590117
:10006C00CD05CD05CD05CD05CD05CD05CD05CD05F4
:10007C00CD05CD05CD05CD05CD05CD05CD05CD05E4
:10008C00CD05CD05CD0565018A019601A201AD0115
:10009C00BC01D601ED0109023C02CD05CD05CD0513
:1000AC00CD05CD05CD05620278028E02A402BA02FE
:1000BC00CF02E0020503CD05CD05CD05CD05CD055F
:1000CC00CD053A034E036203CD056F037903970305
:1000DC00A003AC03B803C703D103F4031104360423
:1000EC003E0450045D0469048D0494049704EC1CD4
:1000FC00E97A2A7B002320461EF0E2FB8DF81800DB
:10010C0006AB65200021012222F0C2FEDFF8280B8D
:10011C000078012800F2638520462AF073FA002843
:10012C0000F05D8505460079012840F0588529F0DE
:10013C00EDFF00274FF400018DF83F008DF83800DB
:10014C00000ACDF83A108DF841708DF83E708DF89C
:10015C0040008DF839000EAE214606F10A002AF057
:10016C00D2FA29781522334601706978877041706C
:10017C004520FF2100F031BD2AF077FA6979AA7980
:10018C000023002425F062FF8DF838000EAB6520AB
:10019C00012100F05ABC29F0EFFF2AF071F9014659
:1001AC000EA802222AF001FA8DF8180006AB652081
:1001BC00022100F04ABC29F0DFFF2AF061F9014668
:1001CC000EA803222AF0F1F98DF8180006AB652071
:1001DC00032100F03ABC29F0CFFF2AF051F9EA795B
:1001EC0001460EA80023002427F0E0FD8DF818002E
:1001FC0006AB6520042100F028BC29F0BDFF2AF0D5
:10020C003FF901460EA805222AF0CFF98DF8180007
:10021C0006AB6520052100F018BC0020DFF8404A31
:10022C0029F091FEADF85800681DA0478046E81DE6
:10023C00A04795F809A0814605F10A07BAF1100FFD
:10024C0000F2B2830EAC5546002D00F0B083384658
:10025C002AF0AAFA24F8020B013D0237F4E729F040
:10026C008BFF2AF00DF901460EA810222AF09DF9F9
:10027C008DF8180006AB65200721E6E329F07CFF1A
:10028C002AF0FEF801460EA811222AF08EF98DF8FC
:10029C00180006AB65200821D7E32AF0E6F96A7B43
:1002AC00691D0023002424F039FB8DF838000EABB7
:1002BC0065200A21C9E302208DF820002AF0D5F927
:1002CC00ADF81800681D2AF06FFAEA79064605F1B8
:1002DC0008018DF838200EAF781C29F00BFD06A80C
:1002EC0031463A460023002420F074FF8DF8580064
:1002FC0016AB65200B21A8E32AF0B7F900210024E6
:10030C0023F0F4FC8DF838000EAB65200C219CE337
:10031C000020DFF84C4929F016FEADF85800681D96
:10032C00A047814695F80FA005F11000A04795F85D
:10033C0012B0074605F11304BBF10F0F00F249830D
:10034C000EAE5D46002D00F0478320462AF02CFAB5
:10035C0026F8020B013D0234F4E729F00DFF29F0D9
:10036C00F9FD29F0B7FC40F04B8306A82AF0CBF935
:10037C004BE329F001FF29F0EDFD29F0ABFC40F037
:10038C00528306A82AF0BFF952E32AF06EF92AF03C
:10039C0054F88DF838000EAB6520232100F01CBCFE
:1003AC00DFF89418C8208DF81800E81C097800298B
:1003BC0000F0878329F012F98DF81800A9E3687909
:1003CC00EE1CFE280BD1A879FF2808D12878082824
:1003DC0005D330462AF0E8F9314626F05FF80EA92D
:1003EC00304628F0F1FD002800F0978305460024E4
:1003FC00A5E3E81C042126F0C5FDE9792AF0F6F9FD
:10040C00DFF850188DF83800022029F025FADFF8B3
:10041C004818032029F020FA0EAB65202621DBE3D7
:10042C002AF01DF9044605F10E002AF0BDF9297CCD
:10043C006A7C0346E878CDE90012AA1D214626F015
:10044C00B5FADFF80C188DF83800042029F004FAFE
:10045C000EAB65202721BFE34FF00208E81C8DF896
:10046C0040802AF0A1F9ADF8380068798DF8580071
:10047C00A81D2AF099F92E7A044600270935CDE9F2
:10048C00005716A80EA92246334621F08FFC29F0FE
:10049C009DFE10D1DFF89C078DF84080CDE9005708
:1004AC0022463346C08AADF8380016A80EA921F0B2
:1004BC007DFC8DF8180006AB652028218CE3022604
:1004CC00E81C8DF840602AF06FF929F0D9FFED791E
:1004DC0004460EA8002321462A4628F0FBFB29F0EF
:1004EC0075FE0ED1DFF84C078DF8406021462A4688
:1004FC000023C08AADF838000EA828F0EBFB8DF86D
:10050C00180006AB6520292166E329F035FEADF80D
:10051C003800681D042126F035FD6A7AAB7A002478
:10052C00014600940EA826F06DFA8DF8180006AB63
:10053C006520302189E229F01FFE29F083FF31224A
:10054C0001238DF8580016A8CDE90004DFF8FC064D
:10055C000EA921F02BFC8DF8180006AB652031217B
:10056C0073E229F009FE29F06DFF322201238DF888
:10057C00580016A8CDE90004DFF8D0060EA921F02A
:10058C0015FC8DF8180006AB652032215DE229F0D0
:10059C00F3FD29F057FF332201238DF8580016A8DC
:1005AC00CDE90004DFF8A4060EA921F0FFFB8DF8BD
:1005BC00180006AB6520332147E229F0DDFDADF8CC
:1005CC003800687B0024691D0094C0F3400200F0E1
:1005DC0001030EA823F06CFB8DF8180006AB652008
:1005EC00342132E229F0C8FD6A7BADF83800691D70
:1005FC000EA80023002426F07BFF8DF8180006AB14
:10060C006520352121E22C4614F8030B04281ABF6F
:10061C00E8782C1D02208DF8400020462AF0C4F802
:10062C00DFF82466A5780121E278ADF838000023C4
:10063C00002431700EA829461FF0E2F98DF818003D
:10064C002846347026F090FF06AB65203621FCE17D
:10065C002AF00BF8ADF83800687904218DF84000C9
:10066C00A81D26F08FFC0446AE7AEF7A05F10C003B
:10067C002AF09AF8DFF8BC850546214632463B46FF
:10068C0029F06FFC0EA821F06DFB29F09FFD10D115
:10069C000220214632463B468DF84000B8F8160041
:1006AC00ADF8380029F05DFC0EA821F05BFB8DF84D
:1006BC00180006AB652037218EE26C7829F0D5FF47
:1006CC000146DFF88005007820F05EFD8DF83800DB
:1006DC0004F0E000202840F082820EAB65203E2121
:1006EC007AE26C7829F0C1FF0146DFF858050078F2
:1006FC0022F068F88DF8380004F0E000202840F073
:10070C006E820EAB65203F2166E200206C788DF87E
:10071C003800DFF824050078411E022980F0998109
:10072C0002209AE129F0A1FF29F087FE8DF838000C
:10073C000EAB652042214FE2002006908DF83D0063
:10074C00CDF83900E81C06A927F042FB8DF83800DB
:10075C00069850B129F0DBFB81788DF83B10C178FD
:10076C008DF83C1000798DF83D000EAB65204321CF
:10077C00062232E2E81C28F031FF8DF838000EAB6F
:10078C006520442128E229F070FF6979AA790EF0DE
:10079C0007FA8DF838000EAB652045211CE229F0D4
:1007AC0064FF6979AA791AF0EDFE8DF838000EAB6A
:1007BC006520462110E2EC7829F051FF01462046D5
:1007CC0022F086FDB0FA80F0472140098DF8380000
:1007DC000EABC7E1E87800248DF8384024F00EF910
:1007EC000EAB6520472130E1E8780EA927F014FB09
:1007FC0006468DF8180040000130C5B2284629F095
:10080C00D7FF002800F0A981044600F8016B0021F5
:10081C009DF81820914280F0C0809DF8383001314D
:10082C0000F8023B9DF8393000F8013CF2E70EACC1
:10083C001321204629F0C6FEEE7829F010FF014660
:10084C00304626F0B9FE002800F08E810021231DD1
:10085C008DF8381029F05BFBC11C827818468DF896
:10086C003B2029F047FA82E10020EC78CDF84600D5
:10087C00CDF84200CDF83E00CDF83A0029F0EFFE5D
:10088C00AA79ADF838000F2A28BF0F228DF83A202C
:10089C0022B10EA8E91D033029F02CFA0EA920462E
:1008AC0001221DF0ADFB8DF8180006AB65204B2125
:1008BC0092E128F057FD8DF838000EAB65204C21E5
:1008CC008AE1E87829798DF838100EA9032800F010
:1008DC006581022800F06881012840F06C8152206B
:1008EC0021F0B4FF6AE129F0C0FE69790246A81D27
:1008FC001BF05FFD8DF838000EAB65204E216BE1CF
:10090C0029F0B3FE014668791AF0F4F98DF8380035
:10091C000EAB65204F215FE1C64D0822E88A05F138
:10092C003901ADF83800C54800788DF83A00A88C2C
:10093C00ADF83B00688BADF83D000EACE01D29F026
:10094C00D9F904F10F0005F11C01082229F0D2F9A4
:10095C00287E5021182223468DF84F0065203CE15B
:10096C00B5480078002800F00781122010E120F033
:10097C0099FB34E100208DF83800E87841B2B1F1F0
:10098C00FF3F06DC10F07F00AA4918BF012081F858
:10099C0068000EAB652053211EE1652049212A46D3
:1009AC00234622F075FA3DE180208DF8630097F81C
:1009BC0000B0BBF1100F53D87E1C4FEA4B0500243E
:1009CC0006AFA5424ED0301929F0EEFE3853023452
:1009DC00F7E780208DF8630026780F2E58D80597FE
:1009EC00671C75004FF0000806AC454552D007EB6C
:1009FC00080029F0D9FE24F8080008F10208F4E7F1
:100A0C00084629F0D1FEADF81800687E06A929F039
:100A1C0069F90EA921201BF01DFE8DF8580016ABAC
:100A2C006520212111E0084629F0BEFEADF8180022
:100A3C00687E06A929F056F90EA922201BF00AFEA1
:100A4C008DF8580016AB65202221012222F020FAE5
:100A5C00C6E0002840F0B680042009F031F9B4E07B
:100A6C0080200EE0BAF1100F0DD80EA900204A46D6
:100A7C005346CDE9001BCDE9027016A8414615F08E
:100A8C00A1FB8DF863000DF1630365200621A3E043
:100A9C0080200FE0BBF10F0F0ED80EA90020CDE97E
:100AAC0002645246CDE900B1049016A8059B494654
:100ABC0015F030FB8DF863000DF1630365202021E8
:100ACC008AE016A90EAD2A4619F04AF804469DF89C
:100ADC005800F0B1614904EB4400002641F8206055
:100AEC0001EB800046609DF94B00B0F1FF3F03DC49
:100AFC0005F1130023F002FC0EAD1421284629F059
:100B0C0061FD0420214614222B4626F0A1F98DF814
:100B1C00186006AB652024215EE0182029F048FE01
:100B2C00002800F083800446BDF83800002118220C
:100B3C00234628F06DFF0546002818BFC82519204C
:100B4C0029F036FE002867D007460130002D4BD027
:100B5C001821FF2229F0E0FC50E0002049218DF8FB
:100B6C00180006AB652037E001208DF838000EAB7D
:100B7C0065204A21132230E029F077FD044605F167
:100B8C000D0029F011FE0246691D204625F050FF8C
:100B9C008DF838000EAB652051211DE0522021F05C
:100BAC0055FE2748002104E0522021F04FFE244836
:100BBC000121017002E0522025F092FF0EAB65205E
:100BCC004D2109E001208DF8380004F0E0002028C8
:100BDC0005D10EAB65204021012222F059F90024E9
:100BEC00204619B0BDE8F08F3146082229F082F872
:100BFC0007F109002146102229F07CF865202521F7
:100C0C0019223B463D7022F043F93846192129F050
:100C1C00D9FC384629F0CAFD002CE0D0204618211A
:100C2C0029F0D0FC204629F0C1FDD8E7C825FFF7F4
:100C3C00DEBB00BF506D0020C825002074260020AC
:100C4C008B270020667A00204A2700202C260020C3
:100C5C00F5720200BB780200955101009833002018
:100C6C00B5A702002DE9F04F99B080466FF0070050
:100C7C00DFF8DCA80630ADF852009AF80000022824
:100C8C0014D1DFF8C808007880B9B8F8080010B1A2
:100C9C001020012101E0302000210AF015FF002076
:100CAC008DF81C0007A9522021F0D0FD0DF11C0974
:100CBC0098F80810D8F804004A4610F0B9FBE8B1CF
:100CCC009DF81E609DF81F409DF82050BDF82670C1
:100CDC0029F016FA844211D127F003004FF6F8716F
:100CEC0080B288420AD0012D08D8022E06D29AF87A
:100CFC000000022808D19DF84D0028B1D32018F02F
:100D0C00BAFB19B0BDE8F08FB8F82800ADF8480070
:100D1C00B8F83200ADF82A009DF82200D0B1D8F80E
:100D2C0004109DF81D209DF83830012027F070FF2D
:100D3C0008B1CF20E3E7DFF81C08C078012809D1FF
:100D4C00B8F8280029F001FC20B1417901F0E70145
:100D5C00083141719DF8210068B1BDF82610FF20C3
:100D6C0026F02AFC9DF82110E0B141F001012C265F
:100D7C008DF8211017E09DF83900002800F0EB8069
:100D8C009DF83D10FF2902D0002940F02681DFF8A4
:100D9C00C807BDF82620C18A8A4240F0278101206D
:100DAC00222607E0082601F00300012808BF46F0C0
:100DBC00110601209AF800104FF6F877012908D88F
:100DCC00B207344658BF64F07F04002808BF34468D
:100DDC0000E034469DF82200DFF87C575FFA84FB74
:100DEC0030B9E87A20B10BF02200222840F0808044
:100DFC001BF0400004901CD0012903D8A87B80076D
:100E0C0000F1D880119801780C2900F2DB800122C6
:100E1C0041F298438A401A4200F0D480032902D14F
:100E2C0040780D2805D007A822F09EFD01283FF43C
:100E3C0068AFA88CB8F8441081420AD198F84620C3
:100E4C00B8F84210B8F8280000230093002307F0EC
:100E5C0031FF9DF82200F8B1B8F84210B8F828001C
:100E6C0023F08EF8002800F08F800646D8F8040096
:100E7C009DF81D10F2780844417B8A421EBF002267
:100E8C007260F1700130042126F07CF871688842A0
:100E9C00FFF437AF013070609AF80000022834D2AA
:100EAC00A87B80077FF52DAF9DF84D004FF6F876A7
:100EBC0060B1BDF8280028F005F9002800F0078182
:100ECC00D8F80400417801F0DF0141709DF82E0044
:100EDC00002800F0DF80D8F8040081790139817195
:100EEC008DF82E1004F07F00090640F0D680D3E078
:100EFC000BF0420042287FF41CAF1198007800F0F0
:100F0C00FE0006287FF415AF72E77FF4FAAE95F871
:100F1C002600092802D004287FF4F3AE5FEA8B6028
:100F2C0000F19E80049800283FF4EBAE11989DF8D8
:100F3C0038100078042808BF022900F045810728E2
:100F4C0008BF042900F009810C2840F04D8107A846
:100F5C0015F0F0FCD5E6BDF8260023F0AFFA023808
:100F6C00DFF8F415B0FA80F0CA8A4109BDF8260002
:100F7C00904208BF023100293FD09DF81E20002A64
:100F8C0056D001F1400455E09DF84D00B8B3042053
:100F9C0026F0ECFD00283FF4B4AE01464FF4B270DD
:100FAC000880B8F828004880DFF8B00500781EF0FB
:100FBC00F3FBA6E611980178A1F10C0212F10C0FCB
:100FCC003FF62CAFE88ABDF8262082427FF496AE1D
:100FDC00BDF8280024F072FE90E6109A9DF83C00B3
:100FEC0021F046FB30B101200026E3E690F8260004
:100FFC000428F8D100260020DCE600241AE095F83D
:10100C006C0001287FF448AF11980078062803D1B2
:10101C00049800287FF440AFF81DBDF82A1080B268
:10102C0081423FF46EAE07A841461EF049FE68E6C9
:10103C0001F1200423F042FA0138B0FA80F04009A3
:10104C0044EA00069DF81E0000283FF4B2AE119849
:10105C00007828F08BF8012818BF04F07E06A8E66B
:10106C0098F8460028F030FF9DF82E00012840F03B
:10107C00B480B8F82800BDF82810814240F0AD804B
:10108C00BDF8260023F01AFA022804BF00208DF8C0
:10109C002E00A2E004F07F000446210702D44FF09A
:1010AC00000A34E0E1B24A0722D4C9069DF82110A7
:1010BC0028D5C1F3820212B1072A18BF013A002ABF
:1010CC0008BF044601F0E30040EA820118E0D32097
:1010DC0018F0D1F9DFF888040078002800F09F8020
:1010EC00DFF8801451F82000C0EB0010810098E06C
:1010FC009DF8210000F0E00100F0E30040EAD1018E
:10110C008DF82110D8F804004FF4805A017295F82C
:10111C002600092801D0042823D1E98ABDF826002D
:10112C0088420AD023F0CAF9022806D09DF8210083
:10113C0000F0030001287FF4E4AD9DF81E000028A8
:10114C0047D011989DF838100078042808BF022960
:10115C003AD0072848D1042946D107A818F0D0F96D
:10116C00CFE5E7B214F0610F46D0F80709D0B8F814
:10117C00281007A8A94615F079FE002864D004F0C1
:10118C009F040025E7B2A00609D598F84600D8F8C8
:10119C003C2028F099FE07A815A905F09BFD7806C0
:1011AC0040F12681B8F8281007A80DF152022B4601
:1011BC0010F0BAF900286FD0054611980078012874
:1011CC0008BF4AF0100A13E107A9002010F054FFE1
:1011DC0097E598F8460028F077FED8F83C2007A849
:1011EC0015A905F077FD8CE503287FF48AAD07A8D7
:1011FC0000210FF0A9FD84E59DF81E0001285AD1AD
:10120C0011980078032849D0052854D1B8F8281033
:10121C0007A80DF15202002310F086F971E5D148B0
:10122C000168D1480268BDF82800904701287FF476
:10123C0068ADCE480168BDF828008847CC480168E5
:10124C00BDF8280088475CE527F052F89DF82E1071
:10125C000546BDF8280019B9B8F82810884291D075
:10126C00B9F81610814204D1BA48807800283FF4AE
:10127C0089AFB8F8281007A82A460AF0E9F900281F
:10128C0000F09B8038074AF0040ABDF8260048BFDE
:10129C00F01DADF8520075E70025A9E0BDF8260059
:1012AC0027F010FF38B1B8F8281007A80DF152023A
:1012BC00002310F039F99DF82E0088B324F092FA2F
:1012CC0000287FF41EAD9DF83900A0B3109A9DF84C
:1012DC003C009DF83D1021F0CBF9002870D09DF812
:1012EC003D00002875D0109929F0F2F89DF82430B3
:1012FC00ADF8520011209DF823209DF821104AF0E2
:10130C00400A002B08BF0920002A18BF083000290A
:10131C0018BF0130D8F804100A5C013A0A5462E094
:10132C009DF81E0001287FF47EAE119800780328EA
:10133C003FF4E7AC77E69DF82010BDF826000029B5
:10134C00ADF8520000F0D3804020BDF8261009F112
:10135C001D0200EAC4059DF820002B4619F056F832
:10136C0038B1D8F804004AF0200A017801F03F01A6
:10137C0001709DF8390048B1BDF8261009F1200024
:10138C0022F0D4FA4AF0400AADF852009DF81E0043
:10139C00012806D0BDF82810BDF82600002215F053
:1013AC001BF9BDF82810BDF826002A4612F090FC57
:1013BC00002818BF4AF0200A15E004F0DF04E0E62C
:1013CC00BDF82610BDF828000B2200231AF07FFF71
:1013DC0097E4BDF82600ADF8520029F0B6F80028C5
:1013EC0008BF4AF0400A26F083FF05464FF6F87610
:1013FC00B01DBDF8521080B20F1A5E4818BF2F46B0
:10140C000078012805D1F01DB8F8321080B2814265
:10141C002FD160B2B0F1FF3F3FF773AC002F3FF418
:10142C0070ACB8F8080029F0C3F900283FF469AC97
:10143C00B8F80820D8F80410054628F05BFC9DF895
:10144C001E10002098F80830B8F8282016908DF857
:10145C005410BDF8521015ACCDE9007ACDE9020458
:10146C00284610F095FD70B3284629F09FF9FFF738
:10147C0048BCB8F828108142CBD0701CBDF826208F
:10148C0080B28242C5D2BDF828008142C1D029F079
:10149C005CF80028BDD0017901390129B9D8408800
:1014AC0001218DF85410ADF8600015AD28461FF0E1
:1014BC0077F80028ADD0281D1EF066F80028A8D0BB
:1014CC0022F07EFBA5E72348407800283FF419ACB6
:1014DC0000208DF81870ADF81900DDF826004FEAE1
:1014EC003040059005A828F089FAFFF70ABC3907A7
:1014FC003FF52AAF9DF81E1001293FF425AF0021BE
:10150C0018F044FF20B1407901380228FFF41CAFD9
:10151C00B8F84410BDF8520022F032FD30B180789A
:10152C0027F016F901380728FFF40EAFBDF8280094
:10153C0027F0C8FD18B104208DF8200004E7BDF891
:10154C002610BDF8280002223FE700BF8B270020A1
:10155C00C825002098250020506D0020687A0020B6
:10156C007D270020B8BD02004C230020542300200E
:10157C0050230020892700202DE9F0438DB005462B
:10158C0080780224252800F27380DFE810F0260012
:10159C00A400C400D700EA00F8000601B602B602A7
:1015AC001D012E01B602B602B602B602B602460103
:1015BC004B01B602B602540158016101B602B602E3
:1015CC00B602B602B602B602B602B602B6026B019B
:1015DC006E017101740178017F01DFF8D47500246C
:1015EC000E258DF804403878012807D801A81DF085
:1015FC0063FC04469DF8040005EB4005EEB2304652
:10160C0029F0D6F8002800F087824FF00008054634
:10161C00431C0021082280F80080012028F0F8F9F2
:10162C0028F074FD6872000A0721A872DFF884059F
:10163C00E972007828733878012800F262829DF8EC
:10164C000420002A6A7300F05E8205F10E0000216E
:10165C002346914280F0578213F8022B013100F897
:10166C00022B13F8012C00F8012C9DF80420F0E754
:10167C00A0F140010D291FD8DFE811F00E00100178
:10168C003F023F021E012E013F023F023A0145017B
:10169C00500165013F02740101ACE91C0822201DB8
:1016AC0028F028FB20461AF039FABDF80600402134
:1016BC00ADF828000AABEEE0632800F069816428DD
:1016CC0000F07681E02840F0188200244720E021C9
:1016DC00002200230FE2202029F06AF8002800F0F5
:1016EC00C1812021FF22044628F016FF631C012033
:1016FC000021082228F08CF90546002818BF012586
:10170C0001AB84200021042228F082F9002800F08B
:10171C000582023506E2E81C29F046F8ADF8040013
:10172C00832028F05BFF014601AA832028F020FECD
:10173C008DF828000AAB6720022190E1E81C0421F7
:10174C0025F020FC0190842028F048FF014601AAD6
:10175C00842028F00DFE8DF828000AAB67200321A9
:10176C007DE1612028F03AFF0146EA1C612028F057
:10177C00FFFD8DF8040001AB672004216FE16220AE
:10178C0028F02CFF0146EA1C622028F0F1FD8DF8B0
:10179C00040001AB6720052161E100208DF80400F5
:1017AC00E81C29F001F86A7900F4F851002A00F0DD
:1017BC004981B1F5A06F04D04FF6FF71884240F01B
:1017CC004B814FF0FF3045E128F0C4FF044628F070
:1017DC00BFFFD949604301ACB0FBF1F1204628F0C2
:1017EC0050FF672009210422ABE0DFF8B4632D79A8
:1017FC00306840B901AC204628F04AFB0120214654
:10180C000EF06AFC3060052D00F06981002D00F0AF
:10181C006981642122F0E2FD66E115F8032B672053
:10182C0010216EE0E87824F0D9FA8DF8040001ABB1
:10183C006720112113E100246720142102E0002409
:10184C0067201521ADF80840019401AB062252E146
:10185C0000246720162109228DF80C40CDE90144A3
:10186C0001AB48E1F52020210BE0F520212108E017
:10187C00F520222105E04FF6F570232108E0F52034
:10188C0024218DF8040001AB6720E8E0F520252128
:10189C00ADF8040001AB67200222E1E0E81C28F05F
:1018AC0083FFADF8060001AC204617F0E5FD231DC3
:1018BC00672041210822D3E0E81C0AA927F084FB09
:1018CC0000288DF8040000F0CF8001A81821FF2219
:1018DC00013028F021FEF4E0E81C0AA927F074FB83
:1018EC0000288DF8040000F0F1804FF0FF30EFE09D
:1018FC0015F8030F697822F039FD288067204821FC
:10190C0002222B46ACE0E87825F08AFC01AC0146BB
:10191C00204618F07BFF6720492111E0EC1C204683
:10192C0026F0E4FF002818BF2046B5F80B1019F07C
:10193C0085FC01AC0146204618F068FF67204A215F
:10194C00242223468CE001ACE91C0822204628F016
:10195C00D1F9204627F094FF8DF828000AAB6720B8
:10196C004B217CE04FF0FF3095F80380691D01900E
:10197C00ADF81000CDE90200FE208DF806002879A4
:10198C0003288DF8300020D10AA828F0BCFE21E0F5
:10199C000024E91C08228DF8284001AD284628F0C7
:1019AC00A9F928461DF0F0FD0AAB67206321A1E0E0
:1019BC00B5F80B006A7B0024E91C8DF804400AF092
:1019CC00B5FA01AB6720642194E0084628F0ECFEE0
:1019DC00ADF82800AF7B002F00F0DD807E0095F87D
:1019EC000D90304628F0E4FE002800F0D48005F17C
:1019FC000F013246044628F07DF900940AA94046AE
:101A0C004A463B460DF0AEFB002800F0BA808378C6
:101A1C0001784278057946798DF806308DF80410F6
:101A2C008DF80520C3788DF809608DF808508DF875
:101A3C00073001A98B1D811D40794200184628F002
:101A4C0059F9A5E0B1F5A06F03D04FF6FF718842AC
:101A5C0002D100205549086001AB67200621012204
:101A6C0021F016FA002448E0182028F0A1FE40B31B
:101A7C00BDF828100446009006200022182325F0FB
:101A8C00D1F9B8B9BDF8285001AE21461022701C0E
:101A9C0028F030F9444F05EB450506F1110057F8D5
:101AAC00251028F0EEFD07EB8500416806F11500C6
:101ABC0028F0E7FD2046182128F084FD204628F068
:101ACC0075FE01AB672044211922C9E7BDF8280037
:101ADC00ADF8050001AB672045210322C0E7314971
:101AEC0001220A7021F0F3FD002467200A218DF8F1
:101AFC00044001AB012221F0CBF920460DB0BDE82A
:101B0C00F08385F80D806720002132462B4621F0AA
:101B1C00BFF9284628F04AFE7CBBA3E7019800BA1F
:101B2C00C4F809000AAB83200021022227F070FFC1
:101B3C0020B1043506E000BF40420F00BDF828007C
:101B4C00A4F80D0004F10F0361200021012227F0FD
:101B5C005FFF002804F1100318BF08356220002134
:101B6C00102227F055FF0028234618BF1035672098
:101B7C0001212022257021F08BF9204628F016FE39
:101B8C0070E74FF6FF70ADF808006FF480300190ED
:101B9C00204628F00BFE01AB67204D210E225FE79B
:101BAC00F479002047270020D8740020D479002035
:101BBC00C8250020742600202DE9F04F85B08478CC
:101BCC000226362C00F2BF820546DFE814F06B01CA
:101BDC00730172007B017800BC02BC0281003700EB
:101BEC004C008C009F00AD00BC02B5008F01BC0204
:101BFC00BC029901AC01BA01BC02BC02BC02BC0221
:101C0C00BC02BC02BC0237004C00BC02BC02BC02D1
:101C1C00BC02BC02BC02BC02BC02BC02BC02BC02C8
:101C2C00BC02BC02BC02BC02BC02BC02BC02BD00B9
:101C3C00EB00CA01FF005B005B00DA0128F009FD34
:101C4C00242840F0A98102AB352000210422002475
:101C5C0027F0DEFE002800F0FB81012002228DF827
:101C6C0010000020FBE100208DF8100028F0F1FCA2
:101C7C000646092C40F0EC8095F8059095F8068006
:101C8C000720EEE0DFF82465306880B1406A70B15F
:101C9C0002A928F0E7FC0546342C40F02A8228469D
:101CAC0028F082FD002800F02382042042E2032069
:101CBC0040E2DFF80835612002210A2240E202AC42
:101CCC00E220214624F00CFF61200421082287E148
:101CDC0028F0BFFC0446681D28F066FD242C40F05B
:101CEC0086810020F9E1E878032800F29681281D0E
:101CFC0028F05AFD0246E878DFF8B81431F81010D5
:101D0C00DFF8B404007828F0B9FC87E1E878032800
:101D1C0000F28881DFF89C1431F81010DFF8980479
:101D2C0000781EF077F97EE128F0C8FBADF80800CA
:101D3C0002AB61200C2102E1002661200E21012260
:101D4C008DF8086002AB1CE2DFF8606401208DF8AE
:101D5C0010003068002800F02B810069002800F08A
:101D6C00278102A928F07EFC042125F00BF900281C
:101D7C0000F0ED81044628F01BFD002800F01B81CB
:101D8C002146054628F01EFC3068BDF80C10224692
:101D9C002B4606690298B0478DF81000284628F0AB
:101DAC0005FD08E1DFF804442068002800F00781F5
:101DBC008069002800F0038102A928F053FC2068F8
:101DCC00BDF80C10826902989047F9E0DFF8DC73DB
:101DDC003868002800F0FA80C069002800F0F6800E
:101DEC0002A928F03FFC9DF80850BDF80AB0BDF8D8
:101DFC000C90044628F0D8FCA6788046F72E28BF15
:101E0C00F726B01C5FFA80FA504628F0D1FC002867
:101E1C0000F09F81012D044608BFBBF1000F00F0BC
:101E2C009C813868A11C42463346C56902980091D2
:101E3C004946A8470746002840F0958100276120B5
:101E4C003321524623466670277021F021F88AE12F
:101E5C00681D28F0A9FC8146E81D28F0A5FC8046E9
:101E6C00092002AF242E18BF2F1809EB080508BF54
:101E7C003526304628F0B2FB854201D9022059E1C3
:101E8C00B9F1000F04D1304641463A4623F060FDCB
:101E9C00304641463A4628F06BFA002800F0E580BF
:101EAC000A2047E1E878012802D0002840F04A8156
:101EBC0027F088FF40F259600121ADF8080002AB11
:101ECC0061203CE00120EC1C8DF80800E22021464A
:101EDC0020F0BCFC30B901200821224628F048FA39
:101EEC008DF8080002AB6120032128E1E878291D58
:101EFC00012800F0E080002840F0E480E020DEE0E3
:101F0C0028F0A7FB0446681D28F04EFC242C0FBFBC
:101F1C0000200146204628F009FB8DF8080002AB92
:101F2C00612012210BE128F094FB24280CBF002027
:101F3C0028F054FBADF8080002AB612013210222FB
:101F4C00FEE0E8788DF8080099488068D0F83024D5
:101F5C0002A9E02090478DF8100004AB61201421F9
:101F6C00EDE0924C206898B3806A88B302A928F0FF
:101F7C0079FB2068BDF80C10826A029890470146E4
:101F8C0027E08A4C206868B3C06858B328F061FB1E
:101F9C002168C968884726E083466938002680B2E4
:101FAC00032838BF0126681D082C40D1057841E074
:101FBC0003208DF8100004AB61203021BFE003201A
:101FCC008DF8100004AB61203121B8E00327CFE07D
:101FDC00002102AC204628F054FB6120322104225F
:101FEC002346ADE0032028F046FA3621A7E005F1A0
:101FFC000806ED790146A8426BD92046002228F04C
:10200C00B1F909288DF8080069D1002D67D0204658
:10201C002946324628F0ACF961E0022028F02BFA70
:10202C000A218CE0022028F026FA0B2187E028F008
:10203C00BBFB0546584628F0D1FA0227A84288BFB8
:10204C007700CFB100268DF808706120214694E00E
:10205C0002988DF810400422ADF8120002208DF881
:10206C00110004AB612008216AE0012E64D1E2204A
:10207C00394620F0EBFB5DE0401B87B2F72F28BF01
:10208C00F727B81C5FFA80F8404628F091FB00282F
:10209C0061D000F1020A81463946504628F092FA86
:1020AC00584629463A46534627F0B2FC05460028C6
:1020BC006AD00A2773E00878022814D2522020F044
:1020CC00C5FB00E002208DF8080002AB61200F2157
:1020DC0035E02046324628F045F98DF8080002AB71
:1020EC00612007212BE002A9522024F0F9FCECE737
:1020FC0002359DF8080015F8018B012811D1BDF8A7
:10210C000A0070B9BDF80C7041462A46384623F0D7
:10211C001FFC012F07D1E220294620F097FB012755
:10212C0001E0BDF80C703068394642462B46466AD1
:10213C000298B0478DF8100004AB612021460122B3
:10214C0020F0A6FE0026304605B0BDE8F08F052035
:10215C002FE710270CE0102774E7A9F1690003287A
:10216C00BFF45FAE0227204628F020FB002FE9D0F9
:10217C0000268DF80870612033218DF8096002ABC0
:10218C00022220F085FEDEE789F80170002761202D
:10219C00214642464B4689F8007020F079FE4846AD
:1021AC0028F004FB002D7FF44DAFCBE70C2700206B
:1021BC000C01002074C30200667A002010C30200D8
:1021CC002DE9F04F9DB00446DFF89C05406818B12E
:1021DC008047002800F05682DFF890A5DFF890B514
:1021EC000D940DF138099AF80000411E002C0B914A
:1021FC000BF1180418BF01219BF802800027002561
:10220C008BF80F109BF801100C91C0B287421ED2B4
:10221C00B84517D0FEB200214A460423304627F0B9
:10222C0031FD0E9810F4403F40F00400C0B218BFCE
:10223C0001357C2806D130460621F82226F06AFCAE
:10224C00F82020709AF800000C340137DDE7E9B271
:10225C0001380024884204D19BF80500002800F0C6
:10226C007F82DDF83490CDF82880DFF8FC84B9F15A
:10227C00000F484608BF1020059015AD00200190B6
:10228C00DDE90B740026380400F0FE819BF80F008A
:10229C0010B901208BF80F00E0B200210EAA042324
:1022AC0027F0F0FC0E98B9F1000F19D010F4403F54
:1022BC0019D04FF400509AF800100136013FABF8DA
:1022CC0010009BF80F0001388BF80F00012050FA1A
:1022DC0084F0B0FBF1F202FB11048BF80D40D2E755
:1022EC000021049102E0CDE90B740496C0B20A9E61
:1022FC004FF0000A702804D00C987021C0B222F064
:10230C00E3FE5FFA86F900210EAA0423484627F063
:10231C00B9FC9DF83800FE2803D04846FE2122F077
:10232C00D3FE48460621FE2226F0F4FB4FF4005063
:10233C000C9F0BF11601ABF814A000228BF80C606B
:10234C00ABF81000FF2088F800208BF80E00F8B2D4
:10235C008BF80D70400050FA87F001EB8000B0F85C
:10236C0006A04FEA490050FA86F09BF80F6001EB8B
:10237C008002FE20ABF812A0114601F8020F32F8D1
:10238C00060F03910890DFF8E4030292047814A876
:10239C0022F058F956FA87F0CDF82490013890FBCA
:1023AC00F4F101FB140000905FFA87FB0C97CB450E
:1023BC0000F06281ABEB0900B0FA80F040090790A5
:1023CC00002006900020DDF83490C00740F09E807D
:1023DC001FFA8AF4162C6ED998F80000002840F0E9
:1023EC007381AAF1070758460FAAB9B218F0CEFAB2
:1023FC00BDF84A6006F11000A0423BD89DF846009B
:10240C00962837D1A7EB06099DF8452031465B4647
:10241C001FFA89F840461CF033F958BB9DF8470069
:10242C00C10701D1800704D40020CA46DFF83883E5
:10243C00C9E7F01D83B2089813FA80F4B4F5005F75
:10244C0001D90120F2E780B2CC4918440A1A584647
:10245C00414627F017FC06980130B4F5005F069052
:10246C0004D101204FF400510891DEE70020CA4648
:10247C000894DBE7AAF1010ADFF8EC825446A0B21B
:10248C00172836D33628A4F1160658462A4688BF94
:10249C002026A41BB3B2A1B227F0F4FB3004EED07B
:1024AC0015FA86F010F8010C962801D0013EF5E7DC
:1024BC0006EB040A86E7069810B1AD4927F035FD06
:1024CC000098C0B2834500F0DB800C990120DDF848
:1024DC00249050FA81F0A5490978B0FBF1F202FB87
:1024EC001107A34907EB470001EB8000B0F81CA0D3
:1024FC005AE7A0481499006842689F48904700200A
:10250C0007900C980A90DDF8349008E0069810B10A
:10251C00974927F00AFD002007900C980A9098F82C
:10252C000000002840F0D08008981021C0F500521F
:10253C00103883B20998C1F2001222F09FF898F873
:10254C0000100843149988F800008A480068426813
:10255C008948904707980A9A88B1844800780BEB11
:10256C000001013991FBF0F202FB10128049D0B24C
:10257C00400050FA82F001EB8000B0F81CA0DFF8AC
:10258C00F0B108990298099C01238BF80E20018068
:10259C00ABF81010BBF912209BF80D102046ABF8CD
:1025AC0014A024F027F9BBF914209BF80E10204638
:1025BC00022324F01FF9BBF81000049CB9F1000FA2
:1025CC00C0F5005007D00599DFF8A0A18842A4BF40
:1025DC000121019101E0DFF894A1059988424FF0A7
:1025EC007C01B8BF7821099E304622F06DFD0EF0BB
:1025FC0013F807469BF80F000621FC22C01B8BF832
:10260C000F00304626F086FA0399FC209BF80E301A
:10261C0008709BF8021017FA84F00C9301449AF896
:10262C000000B1FBF0F202FB10118BF802100A91C2
:10263C000131CAB2B2FBF0F202FB10118BF801109F
:10264C0003EB43010BEB8101898B102906D10C990B
:10265C000131B1FBF0F202FB10100C900B98C01B77
:10266C00B9F1000F0B903FF40BAE019880F0010014
:10267C00C0077FF405AE07E00120CB46079042E788
:10268C0000984BE700246BE07C2022F037FD0446D9
:10269C00FF284ED17E2022F031FD0446FF2848D180
:1026AC009BF8014004EB44000BEB8000807DFF287D
:1026BC003BD09AF800009BF802100144013991FBC1
:1026CC00F0F202FB101434E02A48149900684268B6
:1026DC0029489047264E254F00253878854213D23D
:1026EC00ECB2204615F092FA98F80010084388F8DE
:1026FC0000003DB138780138854203D020467E2158
:10270C0022F0E2FC0135E8E7B18B01380024B0700F
:10271C00C0B2F4707470F180FE2122F0D5FC002060
:10272C007C2122F0D1FC74711AE020467E2122F02B
:10273C00CBFCE0B2FE218BF80340400050FA84F051
:10274C000BEB8000808BABF806009BF8020022F0AC
:10275C00BBFC00208BF80500BBF81000C0F5005442
:10276C0020B21DB0BDE8F08F58230020677A0020FE
:10277C0060720020D80100100040034000200011BE
:10278C002DE9F04F8FB00C4648070FD4200441D4EC
:10279C00E00400F19781200600F1C081A00700F150
:1027AC00D481200500F1F3810020B4E1DFF820058D
:1027BC000178062900F2AD81DFE811F007009401E1
:1027CC00AB01AB019901AB01A001DFF81055DFF8AB
:1027DC0004152A7891F82B30022A02D19E0600F1BA
:1027EC0098815E0700F19D819B0740F19281042343
:1027FC00037091F82C30DB0700F08B8191F82E30B0
:10280C00002B00F0528226F0CCF80420012101F0BC
:10281C00EFFF57E2DFF8C8040394DFF8BCB4DFF82D
:10282C00B094DFF8C474DFF8AC44DFF8B054DFF8D0
:10283C00BCA448F20208008802909BF800001CF02F
:10284C0021FC002800F03A8106460078D3282DD1CF
:10285C00F089404540F019813878002800F0158146
:10286C0099F80000012840F0108127F08BF900281E
:10287C0040F00B817088002840F00781A24604AC20
:10288C001221204627F09EFE27F070FC3046214690
:10289C0018F0E2FBBDF81C00B0F5285FC0F0888092
:1028AC00012002211FF05AFB54462AE099F800102F
:1028BC00884217D1012834D0032840F0E6802878CC
:1028CC000138012800F2E180B078012851D00028AD
:1028DC0040F0DB807078002800F0BF8000201DF0F5
:1028EC009FFFD2E00A2811D194F82B00BA46B71CEE
:1028FC003071A16909B138468847384625F0C8FCC3
:10290C005746DFF8D853DFF8E4A3BEE02978002956
:10291C0040F0BB80092840F0B880A168B01C884703
:10292C00B3E028780138012800F2AF80707860B1EC
:10293C0094F8330094F83410013084F83300C0B2AA
:10294C00884202D9012000219DE099F8010003285A
:10295C0058D0022871D0012840F097803878002890
:10296C0000F08C8027F00EF9002800F092800120F6
:10297C0085E07078002875D027F0C8FB4FF6FE7103
:10298C00884203D1BAF81600884207D0AAF816106C
:10299C00ADF8281053200AA91FF058FF1EF02EFE88
:1029AC0025F0D6FC00208AF826001DF059FC6CE0BE
:1029BC00CF48006809A90AAA17F0D2F8074602986E
:1029CC005446C64DDFF824A3874212D29DF8380036
:1029DC0010B1FD208DF838000420394614220AABC2
:1029EC0024F036FAC34907EB470001EB80000121C4
:1029FC0041720020012184F83200012001F0F8FE20
:102A0C00B94F42E0A2460AACAB20002122461CF092
:102A1C008FFD042004945446DFF8D0A2AF4D8DF8FE
:102A2C00140004A80FF084FC27F0A0FB9BF8000016
:102A3C004FF4805141F288321DE0012020714FF497
:102A4C008060ADF828000AA819F02EF827F08EFB4C
:102A5C00A4484FF4805102680BE010F0B7F960699C
:102A6C0098B9A2E702204FF4805140F6B83289F8A9
:102A7C0002009BF8000027F001FE06E0002084F81D
:102A8C0032000120012101F0B3FE304625F04CFF4D
:102A9C00D3E694F8350020B1E0690028F5D08047E2
:102AAC00F3E70020002102220023ADF828000220C9
:102ABC008DF830000AA826F00DF9B5E7039880F4DC
:102ACC00004028E0854800780138012859D8804812
:102ADC00017803294DD0012953D1417800201FF0F2
:102AEC003DFA4EE0012001211FF038FA11E025F0EB
:102AFC0058FF0420012101F07BFE0AE00021322264
:102B0C000170744880F82A1073480421007827F06B
:102B1C00B5FD84F004000FB0BDE8F08F84F08000A8
:102B2C00F9E70522027091F82C2092072CD591F828
:102B3C002E204ABB052202600120487000201CF0A8
:102B4C00B5FB022025F07AF9E3E7644800780138F8
:102B5C0001280BD80020CDE90A000AA812F0E2F8EF
:102B6C0020B15D48022100781BF0BAFD84F0020010
:102B7C00D1E78178022904D10121817000201FF056
:102B8C00C9F984F48050C6E705200021B3E7534807
:102B9C000078002840F08680DFF838A1DAF80C5075
:102BAC00002D79D004A80DF1280B01300BF104068F
:102BBC000390002D6DD0A87A18B10138A8720006C8
:102BCC0046D19AF83180B8F1000F11D00020A91C21
:102BDC0008228DF82800304627F08CF8584618F05B
:102BEC009DFF28B12A88BDF82A00314623F020FF2A
:102BFC00AF1C0DF127015A46384616F0B1FF81463D
:102C0C00384609A923F061FCB8F1000F05D09DF8F6
:102C1C00380040F0020002281CD1DAF80800A0B1FC
:102C2C0003983946082227F065F8022000220C236D
:102C3C008DF81000BDF82400ADF81A002648007875
:102C4C0004A90091092120F080FD28461EF05AFBB2
:102C5C00ED68AEE7384624F0D4F99DF8270001283A
:102C6C00DBD15846142127F0ADFC224A09EB490070
:102C7C0000215B4642F8201002EB800014224160D8
:102C8C004172FF2049468DF83800042024F0E0F80A
:102C9C00C3E7DAF80C0028B90F484FF4006100784C
:102CAC001DF0B8F984F4006035E7013A012A09D81F
:102CBC00032202600120487001201CF0F7FA012069
:102CCC0025F0BCF8287800287FF423AF04205CE7BB
:102CDC00D8790020642200206F7A0020C8250020BB
:102CEC00E0C302001427002060270020506D002054
:102CFC0094580020983300202DE9F04F89B021F032
:102D0C0041FFDFF810158122DFF81485DFF814A5D8
:102D1C00DFF82045DFF814E50A70DFF8FC140860D2
:102D2C00DFF8F804FF2101700020DFF80415A8F883
:102D3C0000008AF80000DFF8F0040968007891F8C8
:102D4C0008B04FF6FE718EF8000059448AB2A168A3
:102D5C00D1F80031DB899A4200F267810422DFF856
:102D6C00DC54A8F80020DFF8D02412689668330EE3
:102D7C00CEF80C60C6F301592B706FF0FF0303EA19
:102D8C001627B3B2D1F8B86047EA1327AEF804702F
:102D9C0036781EB9B9F1020F00F04781B9F1030F73
:102DAC0000F043811B0A03F0070316B1002B00F05F
:102DBC003C81DFF88CC4042B9CF800C008BFBCF12C
:102DCC00000F00F032813EB1DFF878643678862E41
:102DDC0002D1022B40F02981BB0416D4BBB203F004
:102DEC000703022B08BFBCF1000F20D0DFF85414EE
:102DFC000978862909D10020764621F017FFDFF8E3
:102E0C004004B64690F800C0307800284ED0BCF193
:102E1C00000F4BD1012800F0088103283FD0022875
:102E2C0044D1BEF80400400740F0FF803EE0D1F8EA
:102E3C00D40090F88300022800F0808027460520FB
:102E4C00147BF246A946A8F8000027F029F905469C
:102E5C00DFF8F003007886286DD1B868016C09683A
:102E6C0011B9D0F84C05804760B20021002624F03F
:102E7C001CF9B9680A6C12685077086C0068867780
:102E8C00086C0068C477284627F0C5FBBAF8041014
:102E9C0099F8000001F010011DF036FA4EE0BEF872
:102EAC00040000F00700032840F0BF80BEF80400C7
:102EBC00010700F1BA80810402D4810500F1B580CC
:102ECC009EF80E20C2F38107012F00F0AE80960908
:102EDC00012E00F0AA80B9F1010F11D840F00201C7
:102EEC0001F0070103290BD117B93F2A40F29D804D
:102EFC0037B9A168D1F8AC100978002900F0958099
:102F0C004FF6FB71B9F1020F0BEB010C19D1CF4B42
:102F1C00D95D9B5D03EB01090023402AB7FA87F2C8
:102F2C0038BF012352091A40430616D4002A08BFA1
:102F3C0009F1020915E0284627F06DFB25F0AAFFE0
:102F4C0075E0C14B402AD95D9B5D03EB010908D3A9
:102F5C00420648BFA9F1020903E0002A18BF4FF04E
:102F6C000209C0F300205FFA89F11FFA8CF30A1AE8
:102F7C008EF801009A4258DC60440391B346401A23
:102F8C00A168AEF806007430D1F8501280B28847B0
:102F9C00A6490028886048D07421CDE9019727F014
:102FAC0011FBA24F0020B870A548007820B93879E1
:102FBC0000F020008AF8000078789AF80010DFF80A
:102FCC0078C24FF000092E4600299A493DD00028BE
:102FDC004FF000003AD1B88800F00700032807D062
:102FEC00012832D18868D0F8D40090F8820060B300
:102FFC00C8684069007818B126F0ACFBFE280DD0EB
:10300C008C488068D0F84C02804738B98948806871
:10301C00D0F844028047002800F0F780834F01204D
:10302C00B870DFF814C22E4610E026F0FBF927F03A
:10303C0037F8814900240A6813681C7112680A6009
:10304C0027F0E9FA09B0BDE8F08F0020BC6804F164
:10305C00740184F830B06160A1657978BB88FA8816
:10306C000029A381029B228184F83A30337808BF6F
:10307C009946B8F8003097F80EB0019DA4F85C2082
:10308C00FF2284F84990A2735E1A797BCBF3011965
:10309C00A8F8006001F0780160F3820101EB0900EF
:1030AC002074280600F0AE80DCF8000004AF039A10
:1030BC0010FA86F000F10801384627F09FFB56FA0B
:1030CC0085F0CBF38105A8F80000207C00F04008C7
:1030DC00CDB3B9F1020F06D1B8F1000F03D0B4F89B
:1030EC00440004AF06E0BDF810000237A4F8440019
:1030FC00A4F84200564EF189884203D04FF6FF7176
:10310C0088425ED1032D11D104F13200394627F0EB
:10311C00FAFA464CF11CA068323025F036F84549D5
:10312C0000284ED094F80EB008370EE037F8020B9A
:10313C00B1898842608606D04FF6FF713B4C8842BD
:10314C003C493ED101E03B49384CBBF1400F20D308
:10315C00B9F1020F06D16DB9B8F1000F0AD133489D
:10316C00806803E0A068017C490603D439880237E3
:10317C00A0F84210BBF1C00F06D32C4C3946A06806
:10318C00283027F0C0FA03E0284C3888A16808855D
:10319C0028498968A088D1F8AC201278B2B1B9F16D
:1031AC00020F13D200F00700012802D003282FD100
:1031BC001E4C6DB9264AA368D289B3F842309342AB
:1031CC0006D01BF04AFE19F05DFB30E700F007005B
:1031DC00032806D0012815D1D1F8D40090F882002C
:1031EC0080B1A068D1F848128847104A50B9002025
:1031FC00D17B9070907BC1F3011100F078000844F2
:10320C009168087408F01CFD11E7084FB87808E7BE
:10321C00064CDDE77C7A0020047A0020817A0020BD
:10322C00827800207F7A00207E7A0020D42400202F
:10323C00447A00200C010020A47900208F7A002011
:10324C008E7A0020847A002068C3020064C30200D6
:10325C00C47800202DE9F04F97B0DFF80C850546B7
:10326C00DFF8086598F800000328307040F04981B9
:10327C00002088F8000030700DAC204627F04FFA83
:10328C002046002125F030FEDFF8E494B0603A21AE
:10329C00484627F097F94FF0FF30A9F81400C9F809
:1032AC001000C9F80C0023F0BBFA002029461EF0D0
:1032BC0085FB06F11001F06027F0BFF9D6E9050295
:1032CC00DFF8B074B0FBF2F1C9B2032928BF0321B7
:1032DC00B2F5005F89F80010397040F00F81B0EB47
:1032EC00413FC0F00B81F068002800F007814FF4DB
:1032FC000050FF224FF000084FF0885BA9F8060041
:10330C00FF2089F8032089F805800590002008909B
:10331C0000200B90002009900020079000200690C0
:10332C0000200A9000200C90FF200290FF200490B7
:10333C00FF200390CCB2A04580F0E6805FFA88F6BF
:10334C00002116AA0423304626F09CFCDFF82C44FE
:10335C003046002115AAA0473046012114AAA047E7
:10336C003046022113AAA04716996FF06F0050FA4D
:10337C0081F2C8B20E2A06D8012303FA02F245F2F2
:10338C0001131A4203D1A0F1FE02022A04D242F226
:10339C008352B2EB914F1ED0304614F037FCDFF85D
:1033AC00CC130028087040F0CF803046002116AABC
:1033BC00042326F067FCDFF8C4433046002115AA2D
:1033CC00A0473046012114AAA0473046022113AA77
:1033DC00A0471699C8B208EB48023D46CA4609EB0D
:1033EC008204C1F30142090AE1759DF8561004F1FB
:1033FC001609FD28627689F80000217601D9102182
:10340C0036E0BDF854104FF6FF72914230D10EA841
:10341C0021F018F9304600214FF088524FF4005338
:10342C004FF4005726F02EFC6FF0030313FA87F7C6
:10343C00B8B250F80B104A1C01D10328F6D801225F
:10344C000126D3B2042B06D8CBB2FF2B18BF1646DD
:10345C000132090AF5E740F80B10C9480E990068CB
:10346C004268C848904757FA86F081B299F8000034
:10347C00A1839DF852107028A176BDF85010E183FD
:10348C009DF84E10E176BDF84C10218411D07828AF
:10349C00D14614D07C282F4616D07E281AD0FE2870
:1034AC001FD0FF2823D10898CDF80C80013008904C
:1034BC0020E00A98D1462F4601300A901AE006986F
:1034CC002F460130069015E00798CDF8108001309A
:1034DC0007900FE00998013009901FFA88F00290CC
:1034EC0008E00B98CDF8148001300B9002E00C989A
:1034FC0001300C90397808F101081BE7012088F89D
:10350C00000017B0BDE8F08F0C98984E00060BD158
:10351C000B98C0B2012807D80A98C0B2012803D86A
:10352C000998C0B2012811D99348042200240270D2
:10353C00CAB2E0B2904210D214F068FB3178013478
:10354C00084339783070F3E7884E1BE0089BD8B2FB
:10355C00A04219D1884800220270002089F803008B
:10356C0089F80100481E7E2189F80200B9F81C0078
:10357C00A9F80600002021F0A7FD99F80200FE2111
:10358C0021F0A2FD3078BCE70A98000624D00B98F5
:10359C00059A000603D1039A180600F08480764839
:1035AC0002210127D5B289F80220017017FA82F0A6
:1035BC00B0FBF4F101FB140089F80100284614F06B
:1035CC0025FB30702846FE2121F07EFD89F8057020
:1035DC000020FEF7F5FDD5E70B98059A000621D0E3
:1035EC006548012189F80220017011FA82F0049AD1
:1035FC00B0FBF4F101FB140091B2FF2989F8010032
:10360C001FD10299FF2919BF89F8031001EB410062
:10361C0089F8030000EB400009EB8000808BA9F8CF
:10362C000600AFE7DDE90620104300063FF47CAF4F
:10363C0023F0CAF8A04280F085804F480321017026
:10364C003EE0480089F8032010FA82F009EB800074
:10365C00818B1829A9F8061094D30739D0B20EAA79
:10366C0089B217F093F99DF843004007B0D5B9F82B
:10367C000610BDF84620002399F80300009303239D
:10368C00891A0EAA073989B207F0E0F800287FF4EE
:10369C0079AFBDF8441000293FF474AF9DF8480091
:1036AC001DF01CFC6EE723F08FF80621A042324877
:1036BC0038BF03210329017002D0062952D061E7DB
:1036CC0023F082F8054689F80C0000EB400009EB6A
:1036DC008000408BA9F80D000CF09EFF397828442F
:1036EC00B0FBF1F202FB110089F802000130C2B20A
:1036FC00B2FBF1F202FB110089F801007C2021F0F1
:10370C00FDFCFF2812D17E2021F0F8FCFF280DD102
:10371C00FF2021F0F3FCFF2808D1782021F0EEFCEB
:10372C00014699F80100FF2918BF0846C1B289F873
:10373C000300490051FA80F009EB8000808BA9F856
:10374C0006001AE70898000609D099F80200FE2135
:10375C003C46374621F0B8FC2478039A40E70648EB
:10376C0006210170FEE700BF3D27002058230020F2
:10377C0060720020677A0020737A0020AB9E0200F2
:10378C00D8010010004003402DE9F84305460C46D3
:10379C00480413D4A00024D4A0075CD460057ED4C4
:1037AC00200500F10681200700F13B81600040F10B
:1037BC00F6801AF0F9FA24F08044F0E026F070FC60
:1037CC00DFF81C140F6D3FB1D7E90A1202F0E0428A
:1037DC0001F00A01891849D026F01DFF24F4804419
:1037EC00DDE0BB48DFF8FC73016841F0800101604B
:1037FC00B878012804D1042021F0E8FC0020B8702E
:10380C0026F04EFC0646042026F0F2FCDFF8D81316
:10381C000A68904219D12A7EBAB1FA68AAB1DFF8C7
:10382C00C003806C002800F09780C16840F603024A
:10383C000988914206D0C06840F60401008888428D
:10384C0040F08A8005F1140088E040F6C41208604C
:10385C00C5E9042284E009F0DBFCDFF88403006C8A
:10386C00002840F09D8024F0020498E0D7E90A6516
:10387C00D7E90A12AA43B143C7E90A1226F0CBFED4
:10388C00B8680028AAD056EA0500A7D0D7F808C017
:10389C003869B7F9301032462B46E0479EE726F0E0
:1038AC00FFFB054624F004FA002800F0B780CC4852
:1038BC00876B002F00F0B280DFF828830420CB49FF
:1038CC00002288F81800C64825F03BFE26F0D0FEF2
:1038DC00C74826F09AFEC7480068006B8047C8F8B6
:1038EC0010000125042088F8025022F0A7FA38694C
:1038FC0090F82810C8F80400490703D5436A04213E
:10390C000022984701201BF073FFD8F8040045767D
:10391C0013F05AFAD8F8040081680B461A465B6813
:10392C004BB11E88A6F60306072EF7D805FA06F645
:10393C0016F0830FF2D0537B03F0F0030133537373
:10394C000023FD6853602D88A5F60305012D00F2B8
:10395C008A80C8F810309FE005F110001EF066FE5A
:10396C00304626F058FE22F081FA78B12E6A2846AD
:10397C006FF4807100224FF00073B0479848806B51
:10398C0010B11AF011FA01E044F00204EE69284675
:10399C00002100224FF08063B04724F0005434B172
:1039AC00974821462830BDE8F84326F017BFBDE8FC
:1039BC00F8838C4EB078012804D1042021F006FC49
:1039CC000020B07022F052FA38B170686FF4807138
:1039DC0000224FF00073056AA847306950B1854842
:1039EC000068006B804732697168801A000BC860F0
:1039FC00002030617A4D81490022284625F0A1FD36
:103A0C0002203076286C20B17D480221283026F027
:103A1C00E5FE1AF0C9F924F40064C0E726F028FE8C
:103A2C0041E026F03DFB054624F042F9A0B1DFF859
:103A3C00B48198F8000000070ED498F90000002813
:103A4C000AD4684613F0FCFB08B1009820B1DFF8EB
:103A5C00B49199F8610048B326F00AFE1AF0A4F963
:103A6C0024F008049BE7034633F8385FA5B190F8BF
:103A7C00445090F8456005F0F00580F8445006F08D
:103A8C00F005013580F8455000255360C563458726
:103A9C00507B00F0F000507357480022C261016067
:103AAC00012024F045FD24F4806478E700260127EA
:103ABC00602E0FD009EB0600817A31B18772407A03
:103ACC0007FA00F0C0B221F09BFB2036F0E700BFF4
:103ADC00CC210840032088F81800454826F095FDB5
:103AEC0026F0C6FD444F3E4D0022786900207861D7
:103AFC00F968F8602846444925F023FD3D480068E4
:103B0C00006B8047D8F80C10D8F82020411A02EB33
:103B1C001130B0EB113F38BF4FF0FF3098F8241044
:103B2C00C8F8200021B1D8F80810B0EBC12F20D96B
:103B3C0024F00EFDB8B140F60900414621F83C0FC7
:103B4C00002048804A7B02F0F00201324A730A7B63
:103B5C0002F0F0020A734860F8613960B8F83E0070
:103B6C0010F4406FFAD00020C8F82000012088F82B
:103B7C0024001DF0DBFE25480021016002200021FD
:103B8C0024F0D6FC022021F021FB102012F078FC4E
:103B9C0098F8010020B9D8F80400503026F01AFE2D
:103BAC001B48807810B90D2012F06AFC98F825009B
:103BBC0028B1002088F82500052021F007FB002003
:103BCC0088F818001348C8F81C000220B5F85610E5
:103BDC00B5F85420914208BF072019F033FA3DE79D
:103BEC0098200020341E002084260020997C02009E
:103BFC00E07000208C01001000100440550F0100F3
:103C0C00D81F0020C86D002019DE010000000460E0
:103C1C00BCC20200350801002DE9F04F8DB084784C
:103C2C000226142C00F21F820546DFE814F029004E
:103C3C00150015004A0085001C021C021C021C0207
:103C4C001C021C021C021C021C021C021C028E0008
:103C5C009C00AF00BE00CC0001206A78022C8DF8CD
:103C6C003100089240F0C080E878291D03288DF8B7
:103C7C002C0040F0E18009A8082226F03BF8E0E097
:103C8C0010208DF82400102026F092FD98B10446E7
:103C9C00DFF8E00321466060E81C10F0D5FC8DF8DD
:103CAC00240028B9204624F0A5F88DF8240010B182
:103CBC00204626F07BFD002609AB64200021012262
:103CCC00C2E10020CDF82A00ADF82E00CDF8260078
:103CDC0002208DF82C00E81C26F066FDADF82400BF
:103CEC006979A8798DF82D1026F094F88346E81D93
:103CFC0026F05AFD95F80C908046687AAC7A95F8C7
:103D0C000BA04FEA49078DF83100384626F050FDDC
:103D1C00002800F01081CDE9074806464FF0000856
:103D2C0005EB0800474570D00D3026F03DFD26F818
:103D3C00080008F10208F3E7E87821F04BFB8DF856
:103D4C00240009AB6420042189E1E978032900F2FD
:103D5C005281281DDFE811F00400510155015D016D
:103D6C0019F012FA76E1E81C26F01EFDC04C6668CC
:103D7C00002E00F0E4806A79002A00F0E4803368B9
:103D8C00A91D184425F0B6FF0020D9E0B84EEC1C54
:103D9C0004212046376823F0F5F8002F4AD0B96883
:103DAC00814200F0A0803F68F7E7A888ADF82400B6
:103DBC00E87809A924F0B8FF8DF832000DF1320330
:103DCC00642013214BE10026E878ADF8246009A9A2
:103DDC0024F0A8F9BDF824000DF1320314210222BD
:103DEC00ADF8320064202FE1E81C02218DF82C1074
:103DFC0026F0DAFCADF82400002005F10608ADF839
:103E0C002E0068798DF82D0026E0BBF1000F00F034
:103E1C00B580437B0DF131010E30CDE90496CDE92F
:103E2C00000107985946CDE9020A09A8089A1EF024
:103E3C0043FAA4E0012000E1084626F0B5FCADF8F9
:103E4C002400287B8DF82D0005F10D0026F0ACFC2C
:103E5C00ADF82E0005F10F0898F8000025F0DAFFF8
:103E6C00054608F1010026F09FFC98F8036098F8CD
:103E7C0004A098F805B08146022C8DF8326009D167
:103E8C0008F1060026F090FC074608F1080007F13F
:103E9C000A0104E098F8067008F1070039464DB1A4
:103EAC000A3189B2FB2907D3DFF8C481D8F80400A2
:103EBC0000286ED0022009E00DF132018DE8030CD0
:103ECC0009A84A463B46294603F042FE089E8DF857
:103EDC00310006F0E000202840F0C4800DF13103E1
:103EEC0064202146BBE0EC1D204626F05DFC6D7A7B
:103EFC00002D00F0978005F102098246484626F015
:103F0C0057FC002800F098800026457080462A4611
:103F1C000670786800EB0A0108F1020025F0EAFE51
:103F2C005FFA89F26420122143461EF0B1FF40462D
:103F3C0026F03CFC97E010208DF8320024E0102095
:103F4C008DF8240016E0D6F800C0F38AB28A3169E5
:103F5C00757EB77E06F11800CDE900C0301DCDE9A5
:103F6C00025703F0F5FD8DF82400606826F01EFC66
:103F7C000020606009AB6420112170E002208DF8F4
:103F8C003200304626F012FC0DF13203642003217E
:103F9C0065E007F11C0026F00BFC0028C8F80400B3
:103FAC0055D000F11C010C22016000208DF831006D
:103FBC00D8F8040009A9043025F09CFED8F80400B8
:103FCC000F214FF47A7205612A4DC17680F81AB030
:103FDC0080F819A00676C782A0F8149008212878DA
:103FEC0026F04CFB089E00283FF473AF287808217C
:103FFC001AF076FB6DE702202CE000781AF0A0FB9B
:10400C0028E0007825F006FF18B325F0E9FB002026
:10401C0020E026F0C9FBA97926F01AF9B0FA80F055
:10402C00400917E03068B84201D138683060384632
:10403C0026F0BCFB002000E010200026207064203D
:10404C0012210222234666701EF022FF0BE0102084
:10405C003CE701208DF8240009AB642010210122DB
:10406C001EF016FF002630460DB0BDE8F08F00BFE5
:10407C000C260020667A00202DE9F04F8FB00C46FC
:10408C0008040CD4A00426D4DFF88853287802281E
:10409C002DD1E10740F00381A10641D558E0DFF8AE
:1040AC006C0300781AF0EEFF90B10178DFF8602312
:1040BC0005460020602808D0135C08308B42F9D1EB
:1040CC00104450F8041C28468847284624F02CFC41
:1040DC0084F4004595E11DF0D1FF28B10546FCF7AD
:1040EC00C1FD284624F020FC84F4005589E1A1068A
:1040FC002ED4012814D8E10600F11781610600F1D5
:10410C002F81210600F13D81E10500F13F81210560
:10411C0000F14181E10400F15481610400F15B8103
:10412C00A10700F1E280A10500F1FA80210700F15E
:10413C001181610500F11981E0034FF0000540F198
:10414C0060811CF055FAB648C57084F4803558E18E
:10415C00AE4F202138781FF0D9FCDFF8C4824FF025
:10416C000109D8F80810084317D026F0F3FA0546D1
:10417C0026F0EEFA68434FF47A71B0FBF1F0D8F800
:10418C000810401A4FEA500938BF6FF0004900255B
:10419C00002964D0B9F1000F61D000200421002265
:1041AC0023F0AAFA06464FF0060A4FF0FF0B4FF623
:1041BC00FF7802AD002E4ED0304604210022374647
:1041CC0023F09AFA06463889B0EB090038BF002074
:1041DC0038810004EED1B87BD0B301280AD178899C
:1041EC00400707D4386887F80DA0B721407B1DF035
:1041FC00FDFEDFE739682A468DF806B0ADF804807D
:10420C00086AC97F0DF014F901281BD1B87BB97A63
:10421C008DF838000907788A40F08002ADF8362016
:10422C0006D540F4C070ADF83600387B8DF83A00F6
:10423C00786910B1007BADF81800284601A900225E
:10424C0002F048FD387B87F80DA016F09FFAB1E715
:10425C0001207873AEE7DFF8C8816C4F4D4623F030
:10426C0098FB00200121002223F046FA18B138787F
:10427C0020211AF035FA002004210022002623F018
:10428C003BFA002847D006890421002223F034FA97
:10429C00A0B1B1B20689B14238BF0E46F4E764480A
:1042AC0090F82C100F2906D190F82600022802D382
:1042BC00002021F093FD84F00105A2E0A8B2B1B278
:1042CC00814223D9D6FA55F0202180B242003878A9
:1042DC0026F0D4F926F03EFA054626F039FA684362
:1042EC004FF47A71B0FBF1F615E05248007808B340
:1042FC0002AD284626F02DF925F0F6FE4E490B7836
:10430C004E490A7829461BF0EFF920E03878202135
:10431C001AF0E6F90026C8F8086084F0200570E071
:10432C0015F070FE84F400756BE008F07FFB84F0F0
:10433C00100566E03E48418B012026F02FFA2878C4
:10434C00022804D13148012100781BF063FE84F06F
:10435C00020556E03248012184F00805817050E0D6
:10436C000CF0E6FA84F040054BE0022808BF16F08A
:10437C000DF92F480121808C26F002FA84F4806517
:10438C003FE024F0FFFE84F080053AE022F0D4FFF9
:10439C0084F4807535E01BF091FE204800780128EC
:1043AC000CD11D48007848B14FF47A7100FB01F232
:1043BC0016484FF40061007826F05DF984F400652E
:1043CC001FE01748017819B1002101701BF076FE2F
:1043DC0084F4805515E01448006880B111490978BF
:1043EC0001290CD180471148006800B1804707486B
:1043FC004FF480414FF47A72007826F03CF984F443
:10440C00804528460FB0BDE8F08F00BF687A0020C9
:10441C00E4BB0200C825002072270020732700206F
:10442C0098250020702700203C23002048230020E2
:10443C00506D00204C270020762700207827002084
:10444C002DE9FE4F8846080426D45FEAC87004BFE5
:10445C000020BDE8FE8FE548056826F07BF9044690
:10446C0026F076F960434FF47A714FF6FF72B0FB89
:10447C00F1F14FF6FF70002D00F01A812B886C883B
:10448C00CB1A9BB29C4240F21C81E31A94B2A34219
:10449C00B8BF1A46ED68EEE7DFF840A3CDF804800C
:1044AC009AF800001AF0EEFD002800F0FC80064699
:1044BC000078012840F0EC80DAF8041096F833907C
:1044CC00D6F814B096F8138021B1484688470028D6
:1044DC0040F0DE80718896F83100022222F064FEF2
:1044EC000546002842D0287A297CA0F10108FF2932
:1044FC0000F0BB80707F4F46C00718BF0027E97CD7
:10450C00287D0144B94204D8E974FF2101FA00F076
:10451C006874A969A87C96F83020896A10FB07108A
:10452C00F16A25F0E7FB287D697CB7FBF0F202FB12
:10453C00107001228240D2B20A436A74C8457CD101
:10454C0096F83010AB7C13FB0713A9698B844FF4DE
:10455C00FF7303FA00F0C0B21043FF2868746CD1EB
:10456C00287C1BF019F9FF2028747FE0707FC007AE
:10457C0000F08E80B07F25F04DFC002800F0888084
:10458C0004461C2026F014F9002800F081801C2120
:10459C00054626F017F8B07F02A923F0C3FD9DF85D
:1045AC00090002212875284623F012FE708896F81F
:1045BC00312096F8301096F83330A880287DEA71B7
:1045CC00FF2202FA00F0687460680078A9742874FD
:1045DC00302013FB010080B223F0C8FA0028A86138
:1045EC005DD004461A20B11C2060708CA080A01DE8
:1045FC0024F0A8FBF27F04F13000B17F96F828304C
:10460C00C4F81CB084F81980A062307CE273744A40
:10461C00217563750121A075928C2282F28EA28580
:10462C00F28C6282B6F81100A4F817009AF8000018
:10463C0085F808901AF054F855E726F08BF80446E4
:10464C0026F086F860434FF47A71B0FBF1F06549BF
:10465C0028806348097800794843642148436249BB
:10466C00097800FB0100688000E04F46E87C297D5A
:10467C006A7C01440139B94218BFFF2A0CD186F873
:10468C003300708806F11C0186F8342017F0D1F93C
:10469C00304624F049F903E7C845F9D1EFE728463D
:1046AC0023F0A6FDF4E7019880F40040BDE8FE8FEE
:1046BC0092B282424BD049480121007825F0DEFFAE
:1046CC0045E0A879022806D1287CFF2837D0A869B4
:1046DC0024F02AF933E026F03DF8044626F038F8A9
:1046EC0060434FF47A71B0FBF1F03F49288095F8A4
:1046FC003800097888421BD295F83620FF2A06D15B
:10470C0095F83720013085F8380085F8362095F873
:10471C00351095F8394082F0FF0300200126C7B20E
:10472C00A7421DD206FA07F71F4214D10130F6E753
:10473C00EA8BA87E95F82A10E9231FF031FB284656
:10474C0023F056FD25480121007819F0C9FF88F0A7
:10475C000100BDE8FE8FFBB201441A4385F83620F8
:10476C00AB8F95F83440C8B204FB10339EB2A6420E
:10477C0003D2FF2285F8362002E0FF2A08D1234617
:10478C00184A174E1278367972436426724302E047
:10479C0095F83A2023466A802A8D0E0606D022F020
:1047AC00200244432A852A6C224404E042F0200172
:1047BC002A6C2985297A85F82E10E9796A6285F8A0
:1047CC002D10D9B269840549496811B18847002870
:1047DC00B8D105F1100004F041FCB3E7EC25002042
:1047EC00506D0020662700206C27002014530020F9
:1047FC007FB50138072800F24C810C46DFE810F039
:10480C0008002C0054006E0089004901A600C90064
:10481C00CB4800780138012800F23B81002C00F0D5
:10482C0047810020032100241FF0F4FCC64DC74E25
:10483C000420042132222870307825F01FFF082034
:10484C00002107F041F930786C704FF4805104B0BE
:10485C00BDE870401BF0DEBB0020002525F0E2FA1D
:10486C00BB480121017004208DF80D0074B1B548CE
:10487C00B34C45852078012803D1072023F0A8FEEE
:10488C002078022802D1062023F0A2FEAE48042193
:10489C0032220570AD48007825F0F0FEA94890F85A
:1048AC002B1001F0FE01F2E0A54800780138012838
:1048BC0000F2EF80A54804213222007825F0DEFEBC
:1048CC00002C00F00F819F4C9F4801210170206942
:1048DC00002800F0EC8020F0ADF8F8E70120002C67
:1048EC008DF80D007BD0974800219B4A80F82A1048
:1048FC00984825F059FC924C2078012803D10720C8
:10490C0023F066FE2078022870D1062023F060FE8A
:10491C006CE002208DF80D008A48002C73D0002129
:10492C008D4A80F82A108B4825F03EFC002003218C
:10493C001FF070FC824C2078012803D1072023F053
:10494C0047FE2078002877D1092073E07C4D0020A9
:10495C008DF80D00002C28787BD018B9092023F095
:10496C0037FE2878022806D10820002107F0ACF881
:10497C00042023F02DFE11F053F873480021C822B7
:10498C00017070480D2180F82A10704825F0FDFD4B
:10499C0078E005208DF80D0069480078022878D160
:1049AC00002C00F0C38068480022C178C2700170EE
:1049BC0042F20800002107F087F862480D2190F8B8
:1049CC002B2080F82A10C17802F0DF02002980F831
:1049DC002B200CBF04200D2023F0FAFD59E0584881
:1049EC00007818B95748022180F82A10564800213F
:1049FC0032220170554825F0C8FD524890F82B1012
:104A0C0001F0FD0143E0082180F82A104C49097897
:104A1C00012911D890F82E0070B900200DF10A016F
:104A2C008DF80A0052201DF011FF24F083FF1EF0B8
:104A3C00D7FF002023F0CCFD434800213222017027
:104A4C00424825F0A2FD3F4890F82B1001F0FB01E5
:104A5C001DE03C4C022812D194F82E0078B194F849
:104A6C002B00002140F0200084F82B0005208DF84D
:104A7C000D00082007F028F80A2023F0A9FD0220D9
:104A8C0084F82A002F4890F82B1001F0EF0180F8E1
:104A9C002B102C480022032390F82A008DF80C00D0
:104AAC002A48007803A900910A211EF04EFE7FBD12
:104ABC00244C0720254D4FF4805184F82A00012006
:104ACC008DF80D0028781BF0A5FA0020002622F0A6
:104ADC0087FD2878022141F2883284F82B6025F07A
:104AEC00CDFDD6E7174C022000218DF80B1084F871
:104AFC002A001548017094F82B000DF10B0100F001
:104B0C00FD0084F82B0001208DF80D0052201DF0C3
:104B1C009DFE24F00FFF1EF063FF002023F058FDD4
:104B2C0020690028B5D01FF085FFF9E70548022160
:104B3C0080F82A1090F82B1041F02001A7E700BF55
:104B4C00C825002064220020D87900206F7A00202C
:104B5C0063270020506D00203427002092B0DFF82E
:104B6C00EC92D9F8000010B1002180F845104830C3
:104B7C0021F05CFB25F094FA8046072011F01AFA1C
:104B8C0018F096FA10B1B24825F02EFC1AF088FEF7
:104B9C0001AD284625F01EF90427002029468DF882
:104BAC00047025F01FF9AB4C206024F06FFD0AADAA
:104BBC00284624F0BFFF002029468DF8287024F0E9
:104BCC00C1FFA54E306024F06BFD06AD284624F0E5
:104BDC00C1FF002029468DF8187024F0C3FF3168FE
:104BEC009E4D286019B99E4825F0FEFB286810B927
:104BFC009C4825F0F9FB206810B99B4825F0F4FB84
:104C0C001DF01CF9D9F800004FF0FF3438B1CDE994
:104C1C00104410A9082223F08BFF01281BD1CDE9E9
:104C2C001044082025F0C4FD002846D00546002677
:104C3C00052E04D825F042FCA8530236F8E74FF6AF
:104C4C00300029460822E880884825F053F8284689
:104C5C0025F0ACFD09E0D9F80010CDE9104400298D
:104C6C00DFD08248082225F045F810AA012008213F
:104C7C0025F078FB092800D0D8B922F07FFA8007FC
:104C8C0012D4CDE91044CDE90E440EAB0120002125
:104C9C00082224F0BDFE60B90EA810A9082223F04A
:104CAC0047FF002800F0CB80704A0120082125F036
:104CBC005FFB6E49E2201DF0C9FD12F08FFD28202C
:104CCC0025F076FD6A4E0028306055D0694F6A4C4D
:104CDC0007F10C0525F055FC24F09CFF30680560AD
:104CEC0007F1100525F04DFC64498968D1F84C1387
:104CFC0088473068456007F1140525F042FC1CF02C
:104D0C00A3FC3068856007F1180525F03AFC1AF011
:104D1C00A5F83068C56007F11C0525F032FC20F0C1
:104D2C00CFF83068056107F1200525F02AFC1EF04C
:104D3C0029FF3068456107F1240525F022FC1DF0A0
:104D4C00FDFC3068856107F1280525F01AFC24F07C
:104D5C009DFA3068C56107F12C0525F012FC21F095
:104D6C00EDF93068056207F1300525F00AFC387062
:104D7C0024F0A4FD3068456219F0A6F94048414979
:104D8C004FF00009CDF8409001603F48032111908D
:104D9C0010A821F00BF825F015F9404625F03BFC46
:104DAC0017F038FD25F0B2FB01201EF071FA1AF055
:104DBC0021FA37480078022808D1344800780128B5
:104DCC0004D14FF40040012106F07EFE294F4FF430
:104DDC008041387825F000FA2E484FF0FF310068FA
:104DEC000DF0E0FCDFF8B08078684FF0FF310DF08B
:104DFC00D9FC3068002550F82510096821B9691CC8
:104E0C00092D0D46F7D3EFE725F053FB316851F828
:104E1C0025100C68C1F8009025F039FC58F82520B5
:104E2C00002021469047044625F043FB316851F899
:104E3C0025100A6822430A6025F029FCD4E70B48A8
:104E4C000EA9082224F056FF33E700BF0C270020E0
:104E5C00BCBF0200C0790020C4790020C8790020B2
:104E6C0088C102009BC10200D2C1020084790020DB
:104E7C003C7A0020F0200020715102000C0100202F
:104E8C005423002079CF0100008D15008B270020C2
:104E9C00C8250020187A0020CCBE02002DE9F04F66
:104EAC0089B08A4608040DD45FEACA7040F01F81AD
:104EBC005FEA8A7000F12D815FEA0A7000F135819A
:104ECC00002044E1A34F38781AF0DCF8DFF88C921C
:104EDC00A64DA14C06464FF0000B48F21508002ECB
:104EEC0000F00281307831283AD032284BD0D328C8
:104EFC0040F0B480F089404574D0382840F0AE8042
:104F0C00CDF820B0CDE906BB304606A921F06EF8ED
:104F1C009DF81C10052969D8307B002840F09E8034
:104F2C009DF81D00002800F09980052800F296805D
:104F3C00069824F027FB002840F09080707C88496C
:104F4C00AC467870708808809DF81D0021460138A9
:104F5C008DF81D0006A890E82C002CC165467DE05C
:104F6C00B87803287AD899F82E10284624F00AFB32
:104F7C00002873D1FF207C49607170880880B0884C
:104F8C00784908806AE06079FF2814D0002016F078
:104F9C009DFC0246B9F8701078783346CDF800B015
:104FAC0012F064FF6079002858D03878082132223A
:104FBC0025F064FB52E099F81810706820FA01F2A1
:104FCC00D2071ABF3144097A002100221B2A43D090
:104FDC0020FA02F3DB0703D0B3181B7A99421ED8D0
:104FEC000132F3E7304622F05BFA37E0FF293DD07F
:104FFC00FE2956D199F872109DF81E00884202D8ED
:10500C0060BBFF292AD11DF023FA069900201B282A
:10501C0059D021FA00F2D20757D10130F7E7B9F88D
:10502C006E004F49334608804E4802884E4801882E
:10503C0010200090002012F019FF0120F870B878B1
:10504C0040B93C2002214EF66022B880387825F019
:10505C0015FBB8780130B87084F805B0304623F0F1
:10506C0063FC38781AF00EF8064638E799F8721097
:10507C009DF81E00884203D80028EFD1FF29EDD1FE
:10508C001DF0E6F9069838B1D9F82810814203D002
:10509C00C9F8280023F0ACFABDF8200024F026F95A
:1050AC00DCE7307B0028D9D170882D498022002381
:1050BC000880707CCDE900BBCDE902BBCDE904BB17
:1050CC0011F08CFCCAE71B2000E0C0B299F8181054
:1050DC008142C3D02649087099F80700642100FB6F
:1050EC0001F23878012163E78AF400402FE020496F
:1050FC001A4C08782076E1201DF0A8FB23F078FAF2
:10510C000020A4F87000012016F0E0FB8AF00100EA
:10511C001DE010488188B1B101394EF660228180C2
:10512C000078022125F0AAFA0FE00B4C607938B117
:10513C002179206824F026FA10B960790138607161
:10514C008AF0080003E0002181708AF0020009B0A7
:10515C00BDE8F08F6C2400201C790020506D0020DD
:10516C00567900201E7600209A72002000F8FF0766
:10517C006B7A00202DE9F04F85B08846080418D4CE
:10518C00AA480078012802D85FEAC87156D15FEAB4
:10519C0088714DD4022807D1A5480078012803D185
:1051AC005FEA487000F18A805FEA087059D40020E9
:1051BC002DE1DFF860A29AF8000019F063FF0028D7
:1051CC0000F023810546807FD0B9688C132817D155
:1051DC00DFF844926E880021D9F81C000F1D0029BD
:1051EC0008BF09F11C0758B101884468B14204D1C9
:1051FC003C6025F0DBFA2046F5E701462046EDE75A
:10520C00A87A05F1020B022840F0E580DFF808923D
:10521C0095F83170BBF8006009F11C000068A0B172
:10522C000188B14202D18178B94243D00430F5E70C
:10523C0079480121017088F00200E8E07648406965
:10524C0000B1804788F00100E1E0D9F81C0000288B
:10525C0058D0012204464068114601320028F9D189
:10526C0052E07048DFF8B091807BD9F81C600007E1
:10527C0060D425F06FFA044625F06AFA6A4A604356
:10528C004FF47A71B0FBF1F0D9F818101288411A6A
:10529C0091427AD3B1FBF2FB0BFB02F2511A084498
:1052AC005E49C9F818001FFA8BF00978884288BF4C
:1052BC008B4641E059490978C170A3E05E495D48CD
:1052CC0000224FF6FE7300240978023079B130F8D1
:1052DC00025C9D4208D04588013D45802D0406BFE7
:1052EC00027020F8023C012401390630EEE734B19B
:1052FC00484804214FF4FA72007825F0BFF988F081
:10530C00040084E000240021454889B200888142D1
:10531C0061D2082025F04CFA00285CD000210680D0
:10532C00877041603D490978C170D9F81C1079B378
:10533C0060603FE04FF0010B00205FFA8BF44FF000
:10534C00000A071D002808BF09F11C0796B1F07868
:10535C00C0FA5BF1A042F17006D8756830463D602A
:10536C0025F024FA2E46F1E7716830460AF1010A5D
:10537C000E46E6E75FEA0A4007D100200821C9F88B
:10538C001800244800781AF045FE88F008003EE02A
:10539C00C9F81C002348807B00070BD425F0DAF9F0
:1053AC00044625F0D5F960434FF47A71B0FBF1F067
:1053BC00C9F818001B48807B00070CD59AF8000030
:1053CC0008211EF0A3FB30B91748082102889AF86F
:1053DC00000025F050F92878022810D0012811D1AE
:1053EC00297EAA89EB7C05F11C006C696E7E8DE828
:1053FC005A0005F11003594605F0BEFB02E02846A1
:10540C0015F068FE284623F08FFA88F4004005B0AA
:10541C00BDE8F08F657A0020E42300206B27002084
:10542C002E270020506D002032270020C825002098
:10543C008B2700205C5F0020462700202DE9FE4FC3
:10544C00074608680024B0B1D7E9018A0E4624F05B
:10545C0027FE8146D8F8E800082888BF0124B068E8
:10546C00204202D17068204208D003203074484694
:10547C0025F0D1F800242046BDE8FE8FD8F8C010E6
:10548C0069B198F8F8100029EFD006213174D8F8DA
:10549C00C410C8F8C4604E6198F8FC100DE00021EF
:1054AC000522C8E93066C8E93411C8E9361198F804
:1054BC00FC10002908BF01223274002201297261FC
:1054CC0009D102204FF4E02188F8FC0098F8FB0089
:1054DC0020F07CFB706889490138884205D804208B
:1054EC0020F0ACFC062020F0A9FC022020F0A6FC49
:1054FC0098F8F80040B9DAF83C003168814203D2E0
:10550C0098F8FC0000286CD0D8E9361009B118B90D
:10551C0000E028B325F03DF8DAF80000416941F0CD
:10552C0001014161484625F076F898F8F80008B179
:10553C000124A0E708F16C05D8F8EC10284624F0FB
:10554C00D1FF0028F4D0D8F8C000032101743846EC
:10555C0013F0C0F928460021002424F0C3FF8AE789
:10556C009AF8040025F002F9654CDAF810100222C2
:10557C00206991FAA1F1B1FA81F14368D8F8CC0015
:10558C004068006898472069DAF8141002224368D2
:10559C00D8F8CC0091FAA1F1B1FA81F14068006819
:1055AC0098479AF8040022F063FE9AF8040025F05C
:1055BC00DFF824F0EEFF0020C8F8E000D8F8C000B7
:1055CC000068B0F5806F01D924F0E3FF98F8FE0075
:1055DC000028A1D1DAF80000416841F002014160D5
:1055EC009AE798F8F90020B1D8F8EC0001307FF474
:1055FC008BAF484625F00FF8B2683AB1D8F8E800FE
:10560C000221092838BF0121009103E008F1F402BE
:10561C0000200090746834B1D8F8E80002270928FB
:10562C0038BF012702E008F1F6040027DAF8000081
:10563C00334D416841F002014160D6F800B0D946C3
:10564C00BBF1000F40D0D8F8E800019209284FF0C8
:10565C00010011D22A68B9F1000F1FD0C0071DD06C
:10566C002178DAF800009268904700281EBF3C446D
:10567C00A9F101090120EDE72A68B9F1000F16D054
:10568C00C00714D02188DAF80000926890470028EF
:10569C001EBF3C44A9F101090120EDE7DAF8000036
:1056AC00D26802A99047DDE90120107007E0DAF812
:1056BC000000D26802A99047DDE901201080009813
:1056CC00ABF1010B0244BBE7D8F8F000DAF800109C
:1056DC00CA680240102802D1002AF9D101E0002A40
:1056EC00F6D0706822F05EFCD8F8C0100020C8F824
:1056FC00C400C8F8C00008741AE700BFFEFFFF0F13
:10570C00C40100102DE9F04F87B0851C8346284654
:10571C0024F078FF01AC06461821204624F052FFF5
:10572C009BF801A004F10B002946009524F0EBFF37
:10573C006FF001009BF80A1002240122ADF818004A
:10574C0000208DF81A408DF80C0001F00800C1F310
:10575C00C007890782EAD00507D40028B946A846B5
:10576C0008BF01240027002507E004244FF000099E
:10577C004FF00008002808BF03248548007850EA41
:10578C000A000BD0834890F82600082809D124F091
:10579C00F9F900285AD0BAF1010F57D14FF0C309CB
:1057AC0001E04FF0C2090025BAF1000F10D07F487C
:1057BC00007890B9BAF1010F0FD1002E63D0002000
:1057CC00214601228DF81A0001A814F0DFFC0AE032
:1057DC0001A81BF025FD86B91CE001A82146524604
:1057EC0014F0D4FCB6B17179BAF1020F41F0400259
:1057FC00727104BF41F0600171719BF80A10490687
:10580C0003D5717941F080017171B17900240131B6
:10581C00B17100E00124B0FA80F149090D423AD18E
:10582C0007D1002D18BF814641F20100494621F0F5
:10583C00A8FB14B9009819F0A7FEBDF818004FF694
:10584C00FE71884218BF24F0BDFF24E0DEB332792C
:10585C00A24218BFBAF1020F20D1D01EC0B201284B
:10586C0002D857EA050006D1501EC0B2012822D832
:10587C0059EA08011FD0308821F016FF20BB308870
:10588C00ADF8180022E00220214601228DF81A0002
:10589C0001A814F07BFC07B0BDE8F08F4FF00009B5
:1058AC00009953468DF81A903088ADF8180024F002
:1058BC0069FF012578E7012802D8308824F082FF9F
:1058CC00009819F061FE0026BDF818004FF6FE7125
:1058DC0088421ED121F090FC10B1BDF8180011E0E7
:1058EC00BAF1000F04D02C4D288821F0DDFE30B128
:1058FC009BF80A0000F0020020F0D0FA00E02888A3
:10590C00ADF818004FF6FE71884202D14FF0C7096E
:10591C0049E79BF80A200099534624F033FF10B155
:10592C004FF001093FE71D48016811B1BDF818009F
:10593C008847BDF818000099224606F0F7FA06468B
:10594C00174818490A6800784FF4803124F096FE05
:10595C0001211548C17096B1AAF10100C0B201280D
:10596C0007D81020BAF1020F08BF0820717908433C
:10597C0070714FF0000901258DF81A9014E74FF65D
:10598C00FE7000254FF001090026ADF818000BE75A
:10599C00A4240020506D0020242700205023002038
:1059AC00687A0020CCC3020098250020C82500206E
:1059BC002DE9F04F8DB0044600209A4616460F464E
:1059CC00CDE90B00CDE909008A488568804615F0C1
:1059DC00ADFC1C2803D015F0A9FC1B281BD130886A
:1059EC0040F60201884218BFB0F5C15F03D1F07BCD
:1059FC00022810D93EE043F6070188420BD196F8F5
:105A0C002400032807D330697B4940F0806020F0E4
:105A1C00604088422ED100206FB366B3387825FAE7
:105A2C0000F0C00726D03046002124F0BBFE73489E
:105A3C00C4E90176006880B109A800900CA90BAAF2
:105A4C000AAB30460AF006F80B980B214FF6FF72A2
:105A5C00502322F0ADFCFF280CD024F021FB684F22
:105A6C0006467878012802D840B1012070E0304613
:105A7C0024F0D1FD00200DB0BDE8F08F09F05EFFE1
:105A8C0060480DF10409016841F0020101605E48B3
:105A9C00C8F80000484624F08DF9DFF870B15D4974
:105AAC004A469BF801009BF8005003905848283058
:105ABC001FF09BF9584859494A461FF096F9484639
:105ACC0024F088F8DFF85881564A19214B46029584
