:020000040020DA
:1000000088730020D51D2200051E2200091E220033
:100010000D1E22000D1E22000D1E220000000000F9
:100020000000000000000000000000000D1E220083
:100030000D1E2200000000000D1E2200A516220049
:100040000D1E22000D1E22000D1E22000D1E22007C
:10005000000000000D1E22000D1E22000D1E2200B9
:100060000D1E220000000000000000000000000043
:1000700000000000000000000D1E22000000000033
:1000800000000000000000000D1E22000D1E2200D6
:100090000D1E22000D1E22000D1E22000D1E22002C
:1000A0000D1E22000D1E2200B74820001D49200011
:1000B0000D1E22000D1E22000D1E22000D1E22000C
:1000C000351F2200714820000D1E22000D1E220047
:1000D0000D1E2200000000000000000000000000D3
:1000E0000000000000000000000000000000000010
:1000F0000D1E2200000000000D1E22000000000066
:1001000010B5DFF8B80B0FF2B961C84C41650FF2BA
:10011000F97181650FF27551E1620FF2355121637A
:100120000FF6290161630FF65501A1630FF2F97112
:10013000E1630FF2C13121640FF2B55141640FF256
:100140000D6181640FF27551C1640FF6A90101655B
:10015000206908B102F091FBDFF8B40B0B49A060F5
:100160000B22082020730020206181F820002075D8
:10017000002104F1150002F0C9FB04F12000BDE8E4
:1001800010400B22002102F0C1BB00004C030020F4
:100190003EB504460520E082032020756068401EBD
:1001A0006060411E616094F83A10017094F83A0062
:1001B00010B14FF6FF7121876068411E6160218F89
:1001C000090A01706168208F087004F12F01207AFC
:1001D000C01C2072684602F0D4FDDFF8F809C38C19
:1001E00003228DF8082003216A46204601F0DEFC38
:1001F000050004BF204600F0B2FE28463EBD70B5A3
:100200000D46044661680498160A01F8016D01F86C
:10021000020C01F8012CDFF8BC09428D120A01F82A
:10022000032C408D01F8040C180A01F8050C01F8A4
:10023000063D227A606861608218521A2272287A1A
:10024000DFF82C1C03280CBF01200020E0820B22C9
:100250000920207504F1240002F040FB4FF6FF73E3
:100260002A460321204601F0A1FC050004BF2046D8
:1002700000F075FE284670BDDFF8F81B897A082962
:1002800081B0A8BF072101700078C006000E01B040
:10029000704700002DE9F04706460F46904602F0F1
:1002A00077FD0025DFF8CC9BD9F80040B0F1010ABA
:1002B0006AEB0A0A4FEADA7A09E0F61F411D304676
:1002C00002F05FFD54F8084C761E10357F1EF8B220
:1002D00068B10AE0607E410605D560684178C1F3E7
:1002E00081010329E9D054F8084C002CF2D1BAF16D
:1002F000000F18BF02F048FD02F04AFD421E924175
:10030000D9F80000D20F2C46E8B143685D78C5F3F8
:100310008105022D14D1457E690609D59B7906F821
:100320000139641C43685D7906F801597F1E07E0B6
:10033000037E9D0604D5012588F80050FBB213B159
:1003400050F8080CE0E70AB102F01EFD3470701E90
:10035000BDE8F0872DE9F84384B00D4600218046C2
:100360008DF8001091460DF10100FFF785FFDFF8D1
:1003700064783E7B86194136F6B2304602F0F6FAD2
:1003800004004ED0A0196060002020723A7B6068A3
:10039000114649424618B968304602F09FFA9DF866
:1003A00001106A46701EFFF775FF00217E4A01703A
:1003B000137879789B0143EAC11343EA091343F0A8
:1003C0000F0300F8013C48EA051100F8021D227AEB
:1003D000616860608A18121A00202272E08220751B
:1003E0008DF80C000B22DFF8E81B04F1240002F06A
:1003F00075FA9DF8000018B1E18A41F00801E18228
:100400004FF6FE71788D8842ACBF03210221002394
:1004100001AA204601F0CAFB0028204602D002F0C3
:10042000B7FA002005B0BDE8F08300007436002064
:10043000F8B5074602F0ACFC461EDFF8380A04683F
:10044000B641F60F00250EE0617E080609D57968F1
:10045000606801F057FB20B1607E00F0BF0060765D
:10046000254654F8084C002CEED11DB1687E40F0B2
:10047000400068761EB1BDE8F14002F085BCF1BDD8
:100480002DE9F8438046894602F082FC0026471E8B
:10049000DFF8E0090568BF41FF0F00240AE02C46A1
:1004A000617E207E41F0100140F080006176207670
:1004B00055F8085C9DB1687E0106F9D56A68494621
:1004C000404601F03BFB0028F2D0002CE7D0207D15
:1004D000012804D16068017841F0100101700FB16A
:1004E00002F052FC14B100F0C7FC01263046BDE812
:1004F000F28300002DE9FC410025009502F048FC44
:1005000000F04BF80EE054F8088C2A462146384695
:1005100002F00AFB2146684602F0C2FAB87A411E90
:100520004446B972CCB1607E010605D5608A401E92
:10053000608280B20028E6D0254654F8084CF1E7E6
:10054000FFF776FF607E410759BFF0206070E92118
:100550006170204600F0E3FB18E00EB102F014FCDD
:10056000B87A98B1DFF86C16487B0F281EBFDFF809
:10057000281B91F82000002808D1DFF83C4C2046C9
:1005800002F0B5F83021204602F098F8684602F0F3
:10059000A2FA0400D4D1BDE8F381DFF8007B3C6807
:1005A000461EB641F60F70472836002070B5054646
:1005B000FFF73EFFDFF8BC48DFF81866A06C804705
:1005C0000128F08D08BF401C6882A07A002804BF73
:1005D000717B0F2908D1DFF8E05B284602F087F82D
:1005E0003021284602F06AF802F0D2FBA17A00F02E
:1005F0002AF8A17218B1BDE8704002F0C5BB70BD09
:1006000038B50446DFF86C58607E00F0EF00607685
:100610002046FFF70DFF2146284602F074FA02F04B
:10062000B7FBA97A00F00FF8A97208B102F0ACFB91
:10063000DFF8A005417B0F2904D1BDE83240082036
:1006400001F0A8B831BD401E8041491CC00F704761
:1006500010B5DFF880150446487886B0A0B10121B6
:1006600000208DF800108DF8010000F03AF8616864
:1006700008788DF80A0004F10F010DF10B0001F06C
:10068000EBFB684602F0A8FC06B010BD10B50446AE
:10069000FFF77EFDDC2818BFDD2808D0E42818BF4E
:1006A000F32804D0DE281CBFDF28DB2805D1014653
:1006B0002046BDE8104001F073B810BD10B586B0FB
:1006C000044606208DF8000000F00BF804F10F013D
:1006D0000DF10A0001F0C0FB684602F07DFC06B097
:1006E00010BD04F11C010DF1020002F04ABB000034
:1006F00038B5044604F1380584B0A87820B304F175
:100700002F0101A802F03DFB6248017D03880091A2
:1007100003228DF80C2001A92A882046FFF76FFDDF
:100720000146DC2918BFDD290BD0E42918BFF329C5
:1007300007D0DE2918BFDF2903D0E82918BFDB293D
:1007400002D1204601F02CF805B030BD2DE9F84368
:10075000804602F01DFBE725DFF840793C68461E25
:10076000B6414FF00009F60F02E0A14654F8084CDC
:100770009CB1607E0106F8D5207D012802BF94F867
:100780003D1098F804008142EFD14A462146384690
:1007900002F0CAF9B87A411EB9720EB102F0F4FA49
:1007A0003CB12046FFF744FEF021204600F0F8FF60
:1007B000002529464046BDE8F44300F0F1BF0000A3
:1007C00038B5054684B06878F32818BFDF2822D0F2
:1007D000E82818BFDB281ED0284600F029F80400BE
:1007E00018D1287CB0B105F11101092000F087F97A
:1007F00080B100F015F8A97A009101A92B89FFF7C3
:10080000FEFC0446F32C18BFDF2C03D0E82C18BFE5
:10081000DB2C03D16C70284600F076F805B030BDB3
:1008200002218DF80C104FF6FF72ADF804207047CE
:1008300038B504460025A07A0B381328207B28BF42
:10084000E8251028A8BFE82501DA0F2805D0DFF831
:100850006C140A7A110758BFE825617B884202D2DE
:100860000F2918BFE825DFF86C03418D4FF6FF72A2
:10087000914208BFEC25242001F092FFDFF89C1C78
:10088000086120B12422211D02F028F800E01A2579
:10089000284632BDDA33002070B50446CD4D207AAB
:1008A000DFF8706B6873607A85F82C00E07AE87086
:1008B000A07A307002F0D8FC307838B1211D502079
:1008C00002F024FEA11DE12002F020FEDFF8C8178F
:1008D000012081F8200004F10D01687BDFF83C5C09
:1008E0000F2814BF0120002028750B2205F11500E8
:1008F00001F0F4FF04F1180105F12000BDE870409B
:100900000B2201F0EBBF000010B50446607820B95F
:10091000DFF8081C0869FFF7BFFF2C212170204673
:10092000BDE8104000F08CBF10B5DFF8F01B0446A6
:10093000086918B100220A6101F09FFF08202070A9
:100940002046BDE8104002F047BB0000DFF8481722
:1009500091F82000002800D1704780B5DFF85818C2
:10096000087D50B99B48C27890F82C10407BFFF767
:10097000F1FC10B1BDE80240F1E201BD30B5054621
:1009800089B0A87B0124410721D5E98E05F11C001F
:10099000FFF776FDD8B9DFF8A41C4879012808BF15
:1009A000002414D00B2205F10F0106A801F096FFD8
:1009B00000F08EFDACBF0321022106A83022019079
:1009C000009205F11C02EB8E012001F0A1F910202C
:1009D0008DF8080005F11C010DF10A0002F0B9F9CB
:1009E000E88EADF814008DF8164002A802F0F4FA73
:1009F00009B030BDDFF81C1A0878002818BF01F0D4
:100A00006EBB7047AD4800F154010162DFF8301C45
:100A1000416200F1440181620FF220010164DFF8BC
:100A2000241C0166DFF8581C8167DFF8581CC16779
:100A3000018941F002010181704700000304710443
:100A4000020460041104700402040204010402049C
:100A50001004610400041404630473047204620447
:100A600043040004130406040004000404041204F4
:100A700000040004000400045104640000040004A5
:100A8000000444040004000400040004650400049D
:100A9000350481046400050400048304000400009C
:100AA00002461146032000F010BF0146082000F066
:100AB000EEBE1CB5DFF8E4450FF2592060640FF27A
:100AC0003D20A06406E0204602F005F8009068464C
:100AD00000F0BFFF21680029F5D1606838B1201D02
:100AE00001F0F9FF0090684600F0B3FFF5E72060E1
:100AF000A072E07220730FF2C950E06213BD38B5E6
:100B000004460FF2C050055D284601F02FFF20B1CA
:100B1000411941600021017232BD022001F026FF1F
:100B200058B10FF2C451095D01701A21417001469C
:100B3000DFF86805007C01F03AFF002032BD831D1C
:100B4000C907DBB20DD50A2193FBF1F10A2202FBA2
:100B50001131C9B229B10A335B1A0529A8BF0A337A
:100B60000B331328ACBF14200620C318DBB20933A3
:100B70000A2093FBF0F0C0B2704780B54F48017A6D
:100B8000880704D502F023FB10B1012002BD00202C
:100B900002BD4A48017A880781B00CD5B54A907ADF
:100BA00038B9DFF8F414C86F28B1407E10F0800027
:100BB00002D0012000E0002001B07047AD49DFF80D
:100BC0007C3A0A7B99788A4238BF01F0CFBE002078
:100BD00070470000B433002080B500F03AFF0020D9
:100BE00002BD31B582B0017BA24C21B1012926D0D2
:100BF000032926D037E0DFF8445C687B0F281EBF4E
:100C00002E498A7A032A02D00298E16B884702991A
:100C100095F83A008873142002990870201D0299F3
:100C200001F03EFF02F0B4F8217BFFF70CFD2173C9
:100C300008B102F0A9F8202000F0ACFD37BD152066
:100C4000EAE70146087A70B14868401C486002999A
:100C500010F8012D4A73029AD07D0028507B06D0EF
:100C600008B10A2813DB02A800F0F3FE37BD48B133
:100C70000A2807DA0FF25845137A291811F8011CCF
:100C80008B4204D0082804BF117A0829EBD1104602
:100C9000017A4A1E02720299487B0A300870029853
:100CA000417B491C4173B9E7DFF8F003C06C82B0A7
:100CB00008B102B0004702B070470000CC0300202A
:100CC00038B504460120207504F13C004188638F4B
:100CD000E18204F130020179E17641792177C1792D
:100CE00084F820100178204600F060FF050004BF62
:100CF000204600F034F9284632BD0000DFF8440CED
:100D0000817A032901D1202070470120704700001B
:100D100095172000417E41F001014176704710B5E2
:100D2000027D017E012A06D10B0704D44178BDE87B
:100D3000104000F035BD4C06DFF8603304D5407834
:100D4000196CBDE810400847012A03D1090748BFC4
:100D500030210BD441781B2908BF222106D000295D
:100D60000CBF0FF278310FF28031895C01700146BF
:100D7000BDE81040187C01F01ABE70B5C64C06469E
:100D8000E06F002872D03100DFF8AC5C04D01B2E7D
:100D900005D1017D052953D00022427052E0E92E91
:100DA0002ED1807E30B902F01BFA18B1E06F817D40
:100DB00048072ED5EE2002F06DFCE16F887EE8B189
:100DC0008A7D530705D4401E8876BDE8704002F046
:100DD0001EBD087E00F07F000876E06F017D0329CC
:100DE00003D1427E42F004024276ED2002F052FC32
:100DF000DFF8501BE06FCA6F904726E04E7021E08D
:100E0000E12E15D102F0ECF9D0B1E06F817D4807F9
:100E100016D4E16FA87C8876E16F4A6828789070D4
:100E20002878401C28700120BDE8704002F04DBCBD
:100E30001C2E05D10F490A6D90470020E06770BD58
:100E4000E06F4670E06FFFF76AFFE06F817D080694
:100E500005D5287E02F057FAE87D02F01CFA002042
:100E6000E0671020BDE8704000F094BC70BD000049
:100E700089360020383500202DE9FC4101F088FF3B
:100E8000854E441EA441F06FE40F00284FF0000887
:100E90005FD1824FB86C80473D6840F0100002E09F
:100EA000A84655F8085C002D53D0697E0140814268
:100EB000F6D142462946384601F036FEF567697E8E
:100EC00008062CD4F87A411EF9720CB101F05CFFCF
:100ED000F46FE18A207AFFF732FE3881A07D0106A7
:100EE00006D5E07E02F00FFAF06F007F02F0D3F932
:100EF000F26FD08AC10520D5398900291CBF92F82C
:100F00002000002811D090FBF1F082F82100F06F52
:100F100010F8081F1329ACBF0221002103E0B87AA2
:100F2000411EB972D1E7817605E0012082F82100E7
:100F3000F16F81F82200032005E0107E400800F0E8
:100F4000010080F00100BDE8F64102F0BEBBBDE843
:100F5000F381002CFBD0BDE8F34101F015BF38B59B
:100F6000044600F06FFD217EDFF8D0060A0704D4A6
:100F7000217D012908BF027800D04278474D2146E3
:100F8000284601F0EDFDD8B1696C20468847A07D68
:100F900041070ED401F0FCFEE97AFFF754FBE97239
:100FA00008B101F0F1FEE08AC1050FD4BDE831407F
:100FB00062E7DFF890198A6F2046BDE8324010479B
:100FC000F12060702046BDE83240A8E631BD000047
:100FD0009436002050E738B50446DFF868090089E8
:100FE0000021820704F1380303D49A79550748BFDA
:100FF000E82110F0600F03D19879820748BFE821FB
:10100000DFF8A40B8279207A82421A7938BFE8216E
:10101000002A02BF18780028F52107D0080003D164
:101020002046FFF74DFE0146080000D038E031BDF4
:101030000D21017001F0D0BF38B5044600202070AA
:101040006070DFF8F815E08F0978144D420704D47A
:10105000EA7A8A4204D3F12122E0AA7A8A42FAD2B9
:10106000C10510D594F84210052912DB10F0050FC8
:101070000FD105F1240001F03AFB94F8421005F17C
:10108000240001F01BFB287C2146BDE8344001F020
:101090008EBCE821E0E700004C030020383500203A
:1010A0002046BDE834407BE310B504465C3080B296
:1010B00001F05CFC18B100F15C010472416010BDEC
:1010C000DAE6000000464A4C4449494339513A00A7
:1010D000020402010101010902000000303016186B
:1010E0001920231A1C1E3000303017181921301B0C
:1010F0001D1F3000DFF8080C0FF26511016000229F
:101100000FF2813141600FF2DD1181600FF2152184
:10111000C1600FF2113101610FF2C52141610FF27F
:101120009D2181610FF2B931C1610FF20941016264
:101130000FF2594141620FF2914181620FF2192180
:10114000C1620FF2E90101630FF2CD0141630FF2B9
:10115000C92181630FF25941C163DFF8A81B016403
:101160000FF27D4141640FF2ED418164DFF8980B8D
:1011700000F15C010A70CA7002220FF2196140F896
:101180003C1F01610271012101757047F8B502220F
:101190008DF800208DF8010008B14FF6FF71ADF811
:1011A00002100B22DFF8641B01A801F097FB6846D0
:1011B00001F012FF05B000BD7436002080B50A2290
:1011C0008DF801008DF800208DF80210684601F0BE
:1011D00003FF01BD3EB504460120E08204F1320167
:1011E00002202075684601F0B4FD6068A38F94F872
:1011F0003E10401E606001706A46207A401C2072DA
:101200008321204600F0D2FC050004BF2046FFF7F2
:10121000A6FE28463EBD0000DFF8202692F83510D5
:1012200030204143DFF8700C01F048BA30B5DFF8E8
:101230000C46607B0F2893B006D02E218DF800104D
:10124000684600F0FDFA09E000F0DEF8608E142137
:10125000B0FBF1F105F1340001F030FA13B030BD0C
:1012600038B504466078010032D104F13205297A9C
:1012700002291CBF0329E82094F82F100B391329E9
:1012800013D2010024D104F12F01E12002F03EF934
:1012900004F13C01502002F039F9297ADFF89C056D
:1012A000022904D12A88028408E0E82012E04FF6DF
:1012B000FE7101841630294601F063FD0B2204F112
:1012C0002401DFF8480A01F009FB2046FFF782FFFE
:1012D000010006D06070172020702046BDE8324023
:1012E000AEE231BD18B5DFF8204A94F85F0085B052
:1012F000A8B9012184F85F10012002F0A8FB02A820
:1013000000F0F1FBDFF8342504F1540001210190D5
:1013100000910321D38C02AA052000F0F9FC06B04D
:1013200010BD000010B500F0A9F82178202904BFF5
:10133000EB20607000F0ECF844BF01F0FB0180F896
:101340005F1000F0E1F800D5EAE02A202070204686
:10135000BDE8104074E200007CB500F08FF800F0AA
:1013600053F805F1440001F0C2F900F06DF9ADF851
:10137000001060688678300008D16946532002F07A
:10138000C5F804F11C014A2002F0C0F80B2204F158
:101390000F0105F1540001F0A1FABDF8001030462C
:1013A000FFF7F4FE95F85F00810703D56078002110
:1013B000FFF704FF002085F85F0073BD10B50446F9
:1013C000EB206070DFF8800B90F85F20900703D56A
:1013D0000021EB20FFF7F2FE4FEA0400BDE81040C9
:1013E00038B500F04BF800F00FF805F1440001F0BB
:1013F0007EF905F15C0000210170C1704FF6FF71AC
:101400006078BDE83440C1E6DFF83C5B05F13400AC
:1014100001F06DB92836002010B50446FFF7CEFF65
:10142000CCE0000010B500F029F8207A002814BFA5
:101430000020EB20607000F06BF844BF01F0FB016E
:1014400080F85F1000F060F80BD501F0FD0180F826
:101450005F1000F095F8ACBF01210021FFF7AEFE50
:1014600008E0C80706D52A202070EB2060702046CF
:1014700000F0E6F92046BDE81040D9E50446012019
:1014800002F0F6BA1CB50446DFF8BC0A90F85F100B
:1014900041F0020180F85F10012002F0D8FA617873
:1014A00079B900F015F8ACBF0321022104F1100056
:1014B000012201900092221DE389052000F028FC02
:1014C0006070607818B1BDE81C40002176E613BD5D
:1014D000DFF86803418D4FF6FE72914270470000BD
:1014E00010B5FFF7CBFF2178202904BFEB206070F7
:1014F00000F00EF844BF01F0FB0180F85F1000F02F
:1015000003F800D50CE010BD90F85F108A07704713
:10151000DFF8340A90F85F104A07704774360020ED
:1015200001F0FD0180F85F1000216078BDE81040F7
:1015300044E6000038B5FFF7A1FFFFF765FF207A0A
:10154000002814BF0020EB20607095F85F00410771
:1015500044BF00F0FB0085F85F0095F85F0081074D
:101560000AD500F0FD0085F85F0000F009F8ACBF77
:1015700001210021FFF722FE2046BDE8324057E559
:10158000A07B00F0100001286078704710B5FFF7CD
:1015900075FFEB216170FFF7BBFF44BF01F0FB015A
:1015A00080F85F10FFF7B0FF00D5B9E710BD00006D
:1015B00010B500F010F82046FFF7E8FF2046BDE820
:1015C000104000F01BBD000010B500F004F82046EC
:1015D000BDE81040DAE70446DFF8EC0B01F087B80D
:1015E00018B5044685B004F11C01DFF8E00B01F0EA
:1015F0009DFB08B3EF2009218DF801008DF8001044
:1016000000F022F8ADF80210606801798DF804103E
:10161000207A082804D16168C8798DF8050002E0B5
:1016200000218DF8051004F10F010DF1060000F006
:1016300013FC684601F0D0FC06B010BD2C1F220040
:10164000A03600200101200060680178407801EB9D
:101650000021704700F043BDBA48DFF8A41681614D
:101660003831C1610FF2200141630FF280018163C3
:10167000DFF8601BC165018941F0010101817047FC
:10168000AD052000010620000101710101010101E9
:10169000110101013101010101018001100161010C
:1016A0003B001400630173017201620143010001F8
:1016B000130106013D013500040112010001000182
:1016C0000001000104010401330133013C01440124
:1016D0003201360000010001650100013500810181
:1016E0000001050182018301000100000302710273
:1016F0003001600211027002010202020202800245
:10170000100261023A004100630273027202620237
:101710004302000213023800000200020402120217
:101720000002000200020002040204023700370037
:101730003C0244020002390000020002650200027D
:1017400035028102000205028202830200020000CB
:10175000024611460220B8E00146062097E01CB57B
:10176000784C206810B1204600F073F90021A17276
:10177000DFF8381B086858B102E0684600F069F9E4
:10178000DFF82C0B007C01F03FF900280090F4D129
:1017900013BD00000146DFF8180B007C01F002BA0F
:1017A00000B585B003780FF27C02D25C8DF8002082
:1017B0000B2A03D1417000F071FB31E082B30C2A97
:1017C00029D11A2902D10020019024E0019090F83B
:1017D0003D208DF80220C2680292028AADF80C20EA
:1017E000827DD30648BF002204D4144A92F83430D4
:1017F000827E9A1A8DF80E20427F8DF80F20827F0C
:101800008DF81020C27F8DF81120C08AC20544BF18
:1018100011228DF800208DF80110684601F0DCFBE4
:1018200005B000BD0C0E020B040B0A0708000F00E8
:101830009748817A481E8041C00F7047B43300201A
:1018400038B5934A937A02F1300102F1300551F82C
:101850002330017801F07F01017003EB41014C78E6
:10186000214655F8211001B19472047813F8143010
:10187000190902EB8102D16811B9BDE83240F0E2EA
:1018800003F00F0351F82310BDE8344008477CB53E
:1018900005460FF28400405D0E4601F067F8040033
:1018A0000CD0257000210FF27C0061703146425D42
:1018B000201D01F013F800F03BF873BD8DF80050C7
:1018C0001A216846FFF76CFF73BDF8B507460FF2A3
:1018D0004800C65D0D46304601F048F8040012D0BD
:1018E0002770002060702946A019606000202072D7
:1018F0000FF23000C25D04F1240000F0EFFF00F0B1
:1019000017F80020F2BD8DF800701A216846FFF725
:1019100047FF1A20F2BD000000055957515C1C20FA
:101920002807020000011C181A18181C24030000C4
:10193000DFF87C09007C214601F039B8DFF8701926
:1019400008747047CC030020F8B50E46B006504D21
:10195000DFF85C7919D41DE001F01AFA397B401EDA
:1019600080414A1EC00F3A7308B101F00DFA207889
:101970008DF800006C602046FFF762FF9DF80000C4
:1019800015281CBF281D00F064F8381D01F0A3F8CD
:101990000400E1D1300406D40AE06860FFF750FF8C
:1019A000281D00F056F8387C01F02EF80028F4D1FC
:1019B000F00602D52D2000F041F8F00702D52420D2
:1019C00000F03CF8B00702D5252000F037F870078A
:1019D00002D5262000F032F8300702D5282000F08A
:1019E0002DF8700607D500208DF801002C218DF808
:1019F000001000F025F8300607D500208DF8010012
:101A00002F218DF8001000F01BF8286888B101F034
:101A1000BFF9401E2C6880410021C00F296008B129
:101A200001F0B2F96C602046FFF70AFF281D00F0B4
:101A300010F80020F2BD0000D63300208DF8000021
:101A40006846FDE612494A68824204BF00204860A9
:101A5000704738B5040008BF02F0A8F801F098F903
:101A6000451EAD412168ED0F59B1094A5368A1F1F6
:101A700008008B4204BF002151600021216000F06A
:101A8000FCFE1DB1BDE8314001F07EB931BD000062
:101A9000CC030020DFF8600B0FF2C53141600FF27C
:101AA000D13181600FF2CD31C160DFF8501B01618F
:101AB0000FF2E9314161DFF8481B8161DFF8701BEB
:101AC000C1610FF20D7181630FF29141C1630FF299
:101AD000ED4101640FF2815141640FF221518164A3
:101AE000002101707047DFF8901B0A8C4FF6FE73DF
:101AF0009A4204BF163101F02CB902220272098CFD
:101B00000180704742784B78C2F38102C3F38103AE
:101B10009A4211D1022A09D142794B799A4202BFE5
:101B200080798979884207D101207047032A03D13F
:101B3000491D401D01F017B90020704738B5547891
:101B4000057A0023C4F38104AC4218D1022C10D1D1
:101B500054799579008804EB0524A4B2A0420ED1F3
:101B6000D078127900EB022080B2814207D10123A4
:101B700005E0032C03D1511D01F0F5F8034618468A
:101B800032BD017ADFF8F02A022907D1128C0088D1
:101B9000824201D10120704700207047014602F1C6
:101BA000160001F0C3B800002C1F22002DE9F84FE9
:101BB00090469946DFF8C02A98F8084002F11406CA
:101BC0000B064CBF4FF6FF77778A054601F07F0181
:101BD0008DF800104FF0000AA87D81064CBF082048
:101BE00000202876A87D41074CBF80201020687611
:101BF00002F13400A97DCB064CBF00210178A97603
:101C0000E98ACB0748BF4FF0200A090769682B7D96
:101C100048BF4AF0100A491E022B07DB0B2B1CBFE2
:101C20005B1E01F801394AF0030A01E043EA0A0A9F
:101C3000407D012804D12B7A672BA8BF4AF4805A33
:101C40009DF8000002284AEA803A07D1F08A000A8B
:101C50000870F28A01F8012C891E0AE0032808D1D5
:101C6000A1F1070B02F13C01584601F08AF8ABF1F3
:101C700001019DF8000050B124B14F4508BF4AF062
:101C8000400A04D03812087001F8017C891E022C29
:101C90004AEA842A09D1B8F80000000A01F80109CB
:101CA000B8F8002001F8012907E0032C05D1CF1F67
:101CB0004146384601F065F8791E2CB14FEA1920EB
:101CC000087001F8019C891E287D4A1E18B93078D9
:101CD000431C337002E0B07B431CB37308704FEABF
:101CE0000A40000E107002F801AD297A68686A6037
:101CF0004118891A297200206870BDE8F28F00002F
:101D0000DC3500204924200080340020D434002019
:101D10002DE9F047099D894607469246984629468F
:101D2000FEF7EDFE1A2604001AD00898E082277507
:101D30000B22294604F1240000F0D0FD4346524610
:101D400049462046FFF732FF064648B9FF1F012FDC
:101D500003D8607E40F0200060762046FFF7FFF851
:101D60003046BDE8F0873EB5044604F13C0501214C
:101D7000687800B105210420E182207504F130016A
:101D8000684600F0E6FF6068638F401E60606A4648
:101D9000297801700321207A401C20722046FFF729
:101DA00005FF050004BF2046FFF7D9F828463EBDD1
:101DB00070B504460D460520207005F13A06F0780E
:101DC000A0706068296B416105F11C0100F0C1FF42
:101DD0006068E98E41813178417400216068017644
:101DE000C17305F10F016068193000F035F86168C2
:101DF000A87B88736868626801789181437841EABA
:101E0000032191818178C01CCB0918BF0123137471
:101E100011F0070201F0070118BF012201EB410197
:101E20005118C9B2084410F8011B2172E060217AF0
:101E30004A00490802F00E0201F0380189180844EE
:101E40006061297A6A685318834227BF081A1018FC
:101E500000202072207470BD0B2200F03FBD0000F6
:101E6000704701780B29BCBF1821FFF799BC704758
:101E7000192195E438B5DFF8B0580446286828B130
:101E80001921FFF78DFC2846FFF7E3FD2046FFF7F9
:101E9000D9FD2C6031BD0000C434002030B50446AB
:101EA00089B02078DFF88458032808D0052812D09C
:101EB000182804D01E2818BF1F280CD01CE00020B2
:101EC0008DF8180004F12F0103A800F05AFF032138
:101ED0008DF814100AE001218DF8181003A804F100
:101EE0002F0100F04EFF03208DF8140000F02EF8B3
:101EF000E88CADF8160015E002218DF8181003A843
:101F000004F11C0100F03DFF03208DF8140000F0E7
:101F10001DF804F10F01E88CADF816000DF1190061
:101F2000FFF79AFF0B208DF800000DF11900617882
:101F30008DF8011004F10F01FFF78EFF684601F0E4
:101F40004BF809B030BD0000803400200221688DBC
:101F5000ADF802008DF80A107047000038B504464D
:101F60006578280014D1DFF81017608FCA8C904272
:101F700018BFE82504F13000FFF703FE90B10021FF
:101F800084F83D10280003D12046FFF7ECFE0546FB
:101F9000280006D06570192020702046BDE8324028
:101FA0004EE431BD94F83D000028EBD0DFF88017F7
:101FB00091F820000028E5D1E825EBE718B585B0B9
:101FC00004218DF8041000F1300142788DF80520CD
:101FD000428FADF810200DF1060000F0BAFE0DF1B1
:101FE0000600FFF7CEFD20B100F02DF8DFF83C072A
:101FF000048401A800F0F0FF06B010BD18B587B04A
:10200000044603208DF8040004F11C010DF10600C4
:1020100000F0B7FE616808788DF80E0004F10F013A
:102020000DF10F00FFF718FF04F11C00FFF7A9FDE9
:1020300020B100F008F8DFF8F406048401A800F0ED
:10204000CBFF08B010BD4FF6FF74ADF800406946F5
:10205000532001F05BBA000030B5054691B06868C6
:10206000DFF814464178480609D5E08CE98E8842AD
:1020700005D1DFF884150878D0B100F030F808A950
:10208000039102A82946FFF793FE2B208DF8080044
:1020900002A8FFF7D5FBA07810B19DF8180028B171
:1020A00005218DF8081002A800F096FF11B030BD90
:1020B00094F830000028E2D005F11C00FFF761FD24
:1020C0000028DCD105F10F0001210190009104F1FD
:1020D0001602E38C03210620FFF71AFEE6E700B59F
:1020E00085B009208DF80000EE218DF801106846BA
:1020F00000F072FF05B000BD2DE9F041054600F08B
:1021000047FE441EA441E40F0DB101F0C3F9DFF80E
:10211000685501F0A2FA05F1390600277078DFF85A
:10212000088601F0F0F83078DFF8CC6401F0B3F8FD
:10213000307801F099F8E88C01F09FF8688D01F093
:102140009EF805F13C0001F0A1F808F15C0050F8A0
:10215000270000B180477F1C072FF6DB00F0E5F970
:10216000FFF7FDFA00207070FEF7A3FCFFF792FC6A
:1021700005F12901522001F0C9F90CB100F004FE6B
:102180000020BDE8F081DFF870040FF26901016200
:10219000021D0FF23D3141620FF26D3181620FF28B
:1021A0001511C1620FF2052101630FF2BD114163E8
:1021B000DFF87415CA6000F13802203048610A6106
:1021C0000020088101F03ABAB4340020CA3300205C
:1021D00070470000F5102000072202700A7A827012
:1021E0008A7AC2704A68426000220272C969C1607C
:1021F0007047000038B50446DFF838550020687095
:10220000207A0628A4BFE8216970607A0E2804DDD0
:10221000217A032904D0E8206870207A032806D1A7
:10222000DFF80415087AC1075CBFE8216970214610
:102230002846FFF7D1FF6068800A286205F1240074
:10224000617A0170E17A4170217B8170617BC1709C
:10225000A17B01710A214171DFF81C1491F83A2029
:1022600082710B22DFF8D004A86104F10F01042071
:10227000287705F12B0000F031FB6978002904BFB5
:10228000607800280BD1A87808B1EA21697001F0C4
:102290007CF826202070042001F0C3FB01E02920F7
:1022A00020702046BDE83240FFF7CABAEC3A002061
:1022B0003835002078B5DFF87C440546A07885B035
:1022C00070B994F829100A290AD001F087F8E1685A
:1022D00094F82920114401F80B0C207A401C20723C
:1022E000216A94F8290049082162401CC90784F832
:1022F000290002D4C1B21E29F2DBC0B21E282CD0A4
:1023000004F12901E12001F001F902208DF810000B
:102310004FF6FF73A078ADF80830002818BF0228E8
:1023200003D1284600F020F81CE0012804F12B021C
:1023300007BF0820802107208321019200260096F4
:1023400002AAFFF7E5FCDB2818BFE52804D0F32834
:102350001CBFDF28E82805D1607029202870284696
:10236000FFF76EFA06B070BD38B5DFF8C843606895
:1023700004F1240101254A7905FA02F290436060D4
:102380003022A078032804D1DFF8A03393F8355029
:1023900002E009788D406D1C554308B901F01CF826
:1023A000294604F11000BDE8344087E1F0B5DFF8BC
:1023B00084530446A87802281CBF012805288FB042
:1023C0003CD1002006A96870019168462146FFF7BC
:1023D000EFFC2E7A95F8250086421BD2EF680BE0C1
:1023E0007889BDF82210884204D106A9384600F049
:1023F0009DFC78B9761E2437F0B20028F0D12E7AF1
:10240000EB682422564306A9981900F067FA297A46
:10241000491C2972DFF81423907828B19DF8101018
:1024200011B995F8250010B9684600F0D5FD95F86A
:10243000250038B1297A814204D101E0E820687092
:1024400000F040F80FB0F0BD7CB5044604F1240064
:10245000DFF8E0520178032904BF827A032A2CD1E5
:1024600004F11C014A2001F051F8606801784278BB
:1024700001EB0221ADF80010861C6946502001F0E6
:1024800045F83078717800EB0120ADF8000069461E
:102490004B2001F03BF8B61C3146E12001F036F844
:1024A000701C0178407801EB0021ADF8001053203A
:1024B000694601F02BF8002000E0E820687000F089
:1024C00001F873BD292020702046FFF7B9B900003C
:1024D00010B5DFF8604204F1100000F008F900F0D8
:1024E00071FF042001F0C4FAA178032904BF6078C9
:1024F000002804D004F12A01E12001F007F8204669
:10250000BDE8104000F068BDF8B501466846FFF729
:1025100063FEFC218DF80110684600F05DFD05B0FA
:1025200000BD01460720FFF7B2B9844800210160D1
:1025300041604FF47F018160C160002101617047FB
:1025400038B57E4C00202061206868B14068A168E1
:10255000884209DA01F067FB21684D68A842B8BFDC
:1025600028464860206820612069616831B118B14F
:102570004A684068824202DA216100E040B1206985
:10258000A1684068884203DABDE8324001F073BBBD
:10259000BDE8314001F095BBF8B500F0F9FB674D9F
:1025A000441EA4412869E40F10B3A9684068814221
:1025B00003DA01F0FBFA2869D0B101F034FB296994
:1025C0004968884214D3002948BF01F0EFFA2F6907
:1025D000384600F08CF83E7BBF680CB100F0D4FBAD
:1025E0003046B84700F0D4FB441EA441E40FE2E7B4
:1025F00004B195E0F1BD000028360020D70F20007F
:10260000D50F200070B505460C464C4E0DE06068B5
:10261000316928188C4202D1002848BF0020606030
:10262000002848BF01F0C2FA2468002CEFD170BD29
:102630003110200070B5414E00F0AAFB746831687B
:10264000451EB068AD414042FFF7DCFFB168ED0FB9
:1026500005E060688842A4BF401A60602468002CCE
:10266000F7D1F06881421CBFB06001F0C3FAFFF7F8
:1026700067FF05B11EE070BDB433002070B504469D
:102680000D4600F085FB461EB6412868F60F294628
:1026900030B1626843689A42A4BF01460068F7DA25
:1026A0000C6020602868A04208BFFFF749FF06B110
:1026B00000E070BDBDE8704000F066BB38B5044670
:1026C0000D4601F0B0FA451965602046BDE834407A
:1026D0001A49D3E70A6801E011461A462AB113687D
:1026E0008242F9D10B60012070470020704770B51D
:1026F000044600F04DFB114E451E31462046AD41CB
:10270000FFF7E8FFED0F18B9311D2046FFF7E2FF94
:102710003069844208BFFFF713FF05B1CAE770BDF7
:10272000BDE8F14000F030BBCC030020B433002002
:102730004C03002028370020951720004C0400206F
:1027400010B56248624B42F6FC720021815218605B
:102750004FF42774048000F5277048F2040142F614
:102760005C520180828010BD38B5012000F018F85D
:10277000050008BF01F01AFA00F00AFB5449441E94
:10278000A441281F0860E40F284600F076F851495C
:10279000012008701CB1BDE8314000F0F5BA31BD30
:1027A0002DE9F04100250026041D14F003001CBF94
:1027B000211D0C1A00F0ECFA464F454B421E924187
:1027C0003878D20F10B1A0B2112808D2186821466B
:1027D00004462068C0F3C03018B100262BE03E4804
:1027E000F5E788B206B3D5F800C0D4F800804FEA08
:1027F000DC3EC444CCF30E0C4CEACE3CC5F800C021
:10280000CCF30E0C844516DB2C465CB32568C5F36F
:102810000E06761A1FFA86FCBCF1080F14D3265256
:1028200041F40041218012E02568C5F30E05854280
:10283000EBDA012625462068C0F30E000444208808
:102840000028C6D100240DE045F400452560387805
:1028500038B11968A14204D12068C0F30E002518D0
:102860001D60241D0AB100F08FFA14F0030018BF98
:1028700001F09CF92046BDE8F08110B5134988426B
:10288000044603D301F54051884201D301F08EF98B
:1028900054F8040CC0F3C03008B901F087F900F017
:1028A00077FA54F8041C0A4A21F40041401E44F807
:1028B000041C80411368C00F211F994238BF11606A
:1028C00018B1BDE8104000F05FBA10BD883B002091
:1028D0008C750020703B0020283E002003E011F89A
:1028E000013B00F8013B13465A1E002BF7D17047FD
:1028F00010B513465A1E3BB110F8013B11F8014BBD
:10290000A342F6D0002010BD012010BD10B5044632
:1029100010460A460146204601F0E8F9204610BD5F
:1029200001460878497800EB012080B270470246E2
:102930000229107803D1517800EB01207047032958
:1029400006D15178927800EB012000EB02407047ED
:10295000042908D15178937800EB0120D17800EB5D
:10296000034000EB0160704701F01EBA10B504008F
:1029700001D1002010BD04F1080080B2FFF710FF64
:1029800028B100210160FF2284808271083010BDCF
:1029900080B508B9052002BD10F8021CFF2901D03E
:1029A000042002BD0838FFF768FF002002BD0022A6
:1029B000FFE738B50446A1B1DFF85C331D78A842C3
:1029C00004D30846FFF7E4FF032032BDA1F108035A
:1029D0001868002804BF9879FF2804D00846FFF73C
:1029E000D7FF052032BD012A9C71DFF8300302D1E8
:1029F00000F089F801E000F053F84FF40041204660
:102A000000F0D0F8002032BD2DE9F041804600F002
:102A1000BFF900260024DFF80453471EBF41286891
:102A2000FF0F05E014B9064600E0044650F8080C14
:102A300058B110F8021C4145F4D1002CF5D04FF4E8
:102A40000041404600F0AEF805E04FF4004140463A
:102A500000F0BFF824B132462146284600F064F861
:102A60000FB100F091F92046BDE8F08170B5054640
:102A70000E4600F08DF9A9490C68401E8041C00F38
:102A800001E054F8084C34B114F8021CA94204BF08
:102A90002378B342F5D108B100F076F9204670BD35
:102AA00038B500F014F8421E9241002045F8080C99
:102AB000D20F216811B9256006E0014651F8080CD3
:102AC0000028FAD141F8085C02B129E031BD044682
:102AD0000D4600F05DB938B5044600F059F90025FF
:102AE000411E89412068C90F40B10546A5F1080083
:102AF000002302682260FF240360847109B100F0A2
:102B000043F9284632BD38B5FFF7E1FF401E216882
:102B100045F8081C8041C00F256000D000E031BDA1
:102B2000BDE8314000F030B970B504460D46164698
:102B300000F02EF9401EA5F10801804123680A68C3
:102B4000C00F9D420CBF226046F8082C0022FF23D4
:102B50000A608B7118B1BDE8704000F015B970BD06
:102B6000F8B506460D46174600F012F90024431E3C
:102B70009B413168DB0F09B935600DE07A1E03E037
:102B8000D1B251B10146521E51F8080C0028F7D1BC
:102B9000D2B212B141F8085C01240BB100F0F4F894
:102BA0002046F2BD38B500F02CF810D200F0F0F855
:102BB0005B49096831F81420401E8041154321F813
:102BC0001450C00F08B100F0DFF8002032BD032020
:102BD00032BD38B500F015F811D200F0D9F85049DF
:102BE000096831F81420401E22EA0505804121F8C9
:102BF0001450C00F18BF00F0C7F8002032BD0320EA
:102C000032BD0D4644490A7890420446704780B56B
:102C1000FF2803D100F0B8F8002002BD072002BD54
:102C200080B5FF2803D100F0B3F8002002BD0720D3
:102C300002BD80B5FFF784FD38490020086001F02F
:102C4000B5F801F0A9F901F0B1F9FFF78DFD002009
:102C500002BD80B500F001F8FCE72DE9F04101F07C
:102C600003FA2D482E4C017800262268F3B232F880
:102C7000130018B9761CF2B28A42F6D3F0B2884239
:102C800029D200F085F82168F5B231F81580401E90
:102C90008041002221F81520C00F08B100F074F81F
:102CA000204F214A3E70414652F82530F0B29847F5
:102CB0000646FF20387000F06BF8216831F81520C7
:102CC000401E8041164321F81560C00F18B1BDE8C1
:102CD000F04100F059B8BDE8F08101700A0A0B0C10
:102CE000090E42708370C170001D704701700A0A9E
:102CF000090C42708170C01C704710B540B10023B0
:102D000000E05B1CDCB2944204D2045D8C42F8D03B
:102D1000002010BD012010BD511F2200E83A002004
:102D2000EC3A0020940400208C1E2200027A0B7AD8
:102D30009A420CD15AB1022A05D1008809888842EA
:102D400005D101207047032A08BF00F00CB800200D
:102D500070470A7A0272032A04BF0822FFF7BEBD39
:102D60000B880380704710B5082210F8013B11F85A
:102D7000014BA34203D1521EF7D1012010BD002008
:102D800010BD0822FFF7AABD80B501F073F902E07B
:102D900080B501F06BF900B10120C0B202BDF0B501
:102DA0004F4C504A256895420AD02568002605EB0D
:102DB00086073F6842F82670761C402EF7D32260C3
:102DC00042F82010F0BD10B50FF22C12830852F813
:102DD00023201368C00000F01800FF248440A343A0
:102DE00081401943116010BD04283F4903D1086890
:102DF00040F480300BE0052804D10A6842F4003228
:102E00000A607047062804D1086840F480200860F2
:102E100070470F2805D13548016841F00201016073
:102E200070470CD90FF27413A0F11001103840094B
:102E300053F82000012201F01F018A400260704710
:102E40000428294903D1086820F480300BE00528C4
:102E500004D10A6822F400320A607047062804D1BF
:102E6000086820F48020086070470F2805D11F48AB
:102E7000016821F00201016070470CD90FF2301394
:102E8000A0F110011038400953F82000012201F090
:102E90001F018A40026070470E28154904D1086856
:102EA00040F00060086070470F2804D10A6842F0C3
:102EB00000720A6070470CD90FF20813A0F11002DB
:102EC0001038400953F82000012102F01F02914000
:102ED000016070470748016841F0010101607047D7
:102EE00008ED00E00000002024ED00E010E000E02C
:102EF00004ED00E098200D400000000018ED00E017
:102F00001CED00E020ED00E000E400E004E400E05F
:102F100008E400E00CE400E010E400E014E400E069
:102F200018E400E01CE400E020E400E024E400E019
:102F300028E400E02CE400E030E400E034E400E0C9
:102F400038E400E03CE400E040E400E044E400E079
:102F500048E400E04CE400E050E400E054E400E029
:102F600058E400E05CE400E060E400E064E400E0D9
:102F700068E400E06CE400E070E400E074E400E089
:102F800078E400E07CE400E080E400E084E400E039
:102F900088E400E08CE400E090E400E000E100E080
:102FA00004E100E008E100E00CE100E010E100E0F5
:102FB00080E100E084E100E088E100E08CE100E0F5
:102FC00090E100E080E200E084E200E088E200E0DE
:102FD0008CE200E090E200E02DE9F14382B0067857
:102FE00094A18D5DADF80050002D4AD00D2E4FF606
:102FF000FF7911D16946532000F06AFABDF800004C
:103000004FF6FE7188421FBF48450299087A002892
:1030100000F0AE800C466DE0052E4FF0240804D180
:1030200002990A7C243250190AE0072E0AD102992B
:103030008878002828460EBF1B300A7A08FB020059
:10304000ADF80000BDF80000FFF790FC04001CD1B3
:103050000C2E16D102994868002812D0FFF798FE6E
:10306000471E0298BF41001DFEF7F3FCBDF80000AB
:10307000FFF77CFCFF0F040004D1002F01D0FFF705
:1030800083FE99E00FB1FFF77FFE02992A462046A2
:10309000FFF724FC052E12D16168242204F11800E8
:1030A000FFF71CFC04F118006060227C6169243089
:1030B000FFF714FC606800F1240161611AE0072E3B
:1030C00018D155480568ADB100210160A07828B934
:1030D00004F11001E1601B22E06805E0217A04F1AF
:1030E000100008FB01F2E0602946FFF7F7FB2846D5
:1030F000FFF7C3FB4948016819B1204688470028FB
:1031000050D10D2E464837D102994A681378029A59
:10311000C3F3830153685A781B7803F00303022B2F
:103120000ADA404B9D7CA94201BF12F0C00F029AFF
:1031300092F82430022B09D0032919D1029A0121D7
:10314000117000780299FFF732FC35E094F83B00EB
:1031500004F13A0100F046F80298C18C49451CD1AF
:1031600041688879022818DB204601F095F918B3E8
:1031700002A8FEF76EFC1FE00C2E1FD102984178CA
:103180001A291CBF6068002807D0807DC10704D5BC
:10319000207C04F10F0100F025F823480078214637
:1031A000FFF705FC0C2E18BF112E05D102994868B7
:1031B00010B1081DFEF74DFCBDE8F783112EECD1D0
:1031C0000021217021460078FFF7F1FBEEE7174858
:1031D0000078002814BF012801F0E3B800207047F0
:1031E00000207047124A1278A2B10B783228B8BF7B
:1031F000322002DB6F28A8BF6E20012A04D13238AA
:1032000058433C2290FBF2F398B2B0F5807FA8BF00
:10321000FF230B70704700009C3A0020103B0020F9
:10322000F43800203C330020B03A00200003002096
:10323000803B002000161000001815100200022428
:10324000144000001014000074480B218170FF210D
:103250004170C1700170704780B500F0B3F8BDE8EF
:103260000140BBE001F030BA6D490A6800B10220AC
:1032700022F0020202430A6070476A4900E06A498C
:1032800000F0FF020A60000A486070470146082209
:10329000664801F0BBBB38B5044665480568297827
:1032A00060B24AB28242A3BF69784BB298420C46E0
:1032B000FFF76EFD2978594B401E8041091B891C80
:1032C000C9B2C00F6A5CDA7008B1FFF75DFD00F0AB
:1032D00002F8204632BD38B5FFF75AFD4F4AD37881
:1032E0001478411E8941C90FA34209D0514D287855
:1032F00030B9514C2078050602D450481370036051
:1033000001B116E031BD38B504460B38122828BF8C
:1033100000F04CFCFFF73CFD4049474A8C70451ECD
:10332000AD411078ED0F08B900F007F805B100E0E5
:1033300031BDBDE83140FFF727BD10B53E490878E3
:1033400008B100F033FCFFF723FD344CA17862781C
:10335000401E8041C00F914211D0617008B1FFF74B
:1033600013FD00F0F1FB6078354900EB80002C384C
:10337000086001F0B0FBBDE8104000F0A6BB18B13A
:10338000BDE81040FFF700BD10BD38B52D4905461A
:10339000087808B100F00AFC2B4C207808B100F046
:1033A00005FC28000CBF0120032D09D0012D1CBFF6
:1033B000022D00F0FBFB1B49FF220A6002204A603D
:1033C000207031BD2049214A002008701549D08C59
:1033D00000F0FF030B6056E701F0C8BA80B501F0BA
:1033E000CFFA1B4A1B49137803F00F03C95C081876
:1033F000BDE80240493840B210F1570FB8BF6FF036
:10340000560002DB0B28A8BF0A205730C0EB002073
:10341000612190FBF1F0C0B270470000D83A002063
:1034200000860840C8850840D0850840A885084027
:103430003C1F2200B2380020C438002040860840DB
:103440003C86084091040020B1380020B4330020AD
:103450006C3B0020AE3B2000CEE730B4002513E0EB
:1034600050F8042BD30744BFA9F101039A18091F90
:10347000042942F8045BFAD213468C0744BF158036
:103480009B1CC90748BF1D7050F8041B0029E7D1D9
:1034900030BC704710B5654C654920466C2201F080
:1034A0006DFE1434FFF7DEFEA073FFF7DBFE207025
:1034B00010BDA0F140021E2A38BF403804D3A0F14D
:1034C000E0010F2902D23E30C0B270472D20704774
:1034D00070B50D46FFF7EDFF06462D2E01D1F42005
:1034E00070BDFFF755FC514B441E524800EB86015E
:1034F00010F826004A78A44119182846FFF7EEF97B
:10350000E40F0CB1FFF740FC002070BD2DE9F04145
:10351000F12805460E46DFF8148111D131780129D2
:103520000AD1022000F0A4FA2846FFF7C2FF2D2896
:10353000014612D1F42076E0022000F072FAF3E79F
:10354000F02805D130783C490870FFF78DFEEBE795
:103550004528E9D1C8F8086064E0364800EB8107E7
:10356000B978002904BFF878002815D0F87881428E
:1035700008BFFB2057D0582D05D130888F3846F230
:103580002241884206D23078B978884224BFFA783E
:10359000824201D2E82046E0FFF7FAFB7A78441E27
:1035A000387831464044A441FFF798F9E40F0CB154
:1035B000FFF7EAFB502D08F12A0010D0522D17D04A
:1035C000532D11D0E02D27D0E12D1CD0E22D1ED09F
:1035D000E52D25D0E62D04BF3278C27722E0B8F879
:1035E0002600FFF74AFE1DE00088FFF748FE19E0BD
:1035F00098F8290018B1022000F013FA12E0022016
:1036000000F036FA0EE0007CFFF77DFE0AE008F1DC
:103610003C00FFF73BFE05E0C07BFFF73CFE01E00E
:10362000317881770020BDE8F0810000B4330020BC
:103630002C1D2200E41A22002836002080B500F05C
:10364000A3FFFFF701FE00F0E7F901F015FA00F023
:1036500033F8BDE8014000F0ABBA80B5FFF798FB46
:1036600018B9FFF791FB00F0A1FA0849087818B9DA
:1036700001F027FAFFF7F0FD00F0B2FA01F08AFD41
:103680000349012081F8480001BD00009104002099
:10369000B43300201CB50446E73808280AD269462E
:1036A0002046FFF715FF0098401C00906946204611
:1036B000FFF72CFF13BD2100DFF834030FF2AD2319
:1036C000036100210170C171704738B5DFF82043F4
:1036D0000546207808B100F069FA0121C54A217039
:1036E000107818B1BDE832401D205AE165702846B7
:1036F0000228C14D02D101F012FE19E000281CBFC2
:10370000012800F053FA002020712A68BB49907DFF
:10371000420660784CBF91F8462091F8252020B9E8
:10372000C87810B1022AC8BF0222A27000F03BF88C
:10373000E179B1B9286808B900F038FA2868B04DC5
:103740004268117801F02001A171EE239178617136
:10375000017A501E8A1C02702B60491CC9B201F00C
:1037600069F9FFF715FBA7490A78451EA6480078B6
:10377000AD41ED0F024307D1832020700DB1FFF75B
:1037800003FBBDE8314023E0202804D10E2104F1E1
:103790000800FEF793FF022020701DB1BDE8314004
:1037A000FFF7F2BA31BD10B5FFF75CFD904B93F90E
:1037B000022001249440611E0840D870587818B93E
:1037C000BDE8104001F065BDBDE8104001F04EBD00
:1037D0008E488D4A01684908490001600020107038
:1037E00083494878022808BF01F0ADBD10B5804C70
:1037F000607840B9FDF758FAE178814203D3BDE81B
:1038000010401C20CDE0BDE8104001F05DBD10B5BA
:10381000774C0121E171ED20FFF73CFF6078BDE8B6
:10382000104052E780B57749774B0A781878024301
:1038300018BF00F0BBF9FFF7ABFA6D490A78401EDC
:103840008041C00F022A07D183230B7008B1FFF714
:103850009BFABDE80140BBE718B1BDE80140FFF7A6
:1038600093BA01BD10B5624C607800281CBF0128D6
:1038700000F09CF90420207000F039F921796448A7
:10388000491C2171C9B202788A4203D2BDE81040B6
:10389000E12086E0A178407B4A1C8242B8BF481CE8
:1038A000A070FFF780FF83202070BDE810409DE7E7
:1038B00010B5FFF76DFA4E49441EA4410878E40F95
:1038C00083280ED1887940B985220A700CB1FFF7A0
:1038D0005BFABDE81040002063E08620087001F02C
:1038E00091FD04B13DE010BDF8B504460D46FFF76B
:1038F0004FFA3F4F461EB6413878F60F862812D150
:103900008721397001F0F2FD0EB1FFF73DFA7879A9
:10391000844204D1002D0CBF00201B2000E0E920D0
:10392000BDE8F2403DE01EB1BDE8F140FFF72CBA22
:10393000F1BD10B5FFF72CFA441E2D480178A441C3
:10394000E40F86290AD18722027001F0CFFD0CB165
:10395000FFF71AFABDE81040E92022E004B100E0C8
:1039600010BDBDE81040FFF70FBA0000264810B5A3
:1039700001781F4C20290ED124490A6852085200B0
:103980000A60002101702078022801BF1D490878D3
:103990000028FFF747FF04F10800BDE81040FEF7DC
:1039A000A6BE10B50446124800211B2CC17101703F
:1039B00004D01848017801F0FE01017000F097F87A
:1039C000FFF789FCFFF7B9FC2046BDE81040FDF782
:1039D000D4B910B5084C206808B900F0E7F800F039
:1039E00036F92168C86000F088FE2168088210BDA1
:1039F000C438002091040020C8030020B433002004
:103A000038880840B0380020B2380020908608403E
:103A1000D8330020553B00205E48002141700170E2
:103A2000704738B5050008BF00F0C0F8FFF7B0F9DF
:103A3000441E58484178A4410D43457000F070F889
:103A4000E40F1CB1BDE83140FFF79EB931BD10B5A0
:103A5000040008BF00F0AAF8FFF79AF94D494A7828
:103A6000401E80411443C00F4C7000B13BE010BDBC
:103A700010B5040008BF00F099F8FFF789F945492F
:103A80004A78401E84F0FF0480411440C00F4C70FF
:103A900008B1FFF779F9BDE8104028E010B5FFF74D
:103AA00077F93C49401E804100224A700A70EF229B
:103AB00039490A60ED240C60C00F0C6008B1FFF7B3
:103AC00063F9BDE8104001F006B810B5FFF760F9E2
:103AD0003049441EA4414878E40F08B100F020F8B2
:103AE00004B100E010BDBDE81040FFF74DB910B5BE
:103AF000FFF74EF92749441EA4414878E40F60B906
:103B000026490878020608D42549087828B92549A5
:103B10000878020658BF00F017F804B1E3E710BDBB
:103B200080B5FFF735F91B4A411E89411078C90F4E
:103B300020B901231370E320174A106019B1BDE8C2
:103B40000140FFF721B901BD70B5FFF721F9114917
:103B5000451EAD410878ED0FA8B10022124E0A7043
:103B6000EF207060ED2171607160FFF711F9441E64
:103B7000A4412A20FFF790F96FF00400E40F3060B1
:103B80000CB1FFF701F91DB1BDE87040FFF7FCB8BB
:103B900070BD0000543B002038880840B038002039
:103BA000B2380020C4380020348808407047F4F848
:103BB00080B5002000F0E5FD4FF47F0000F01AF81A
:103BC00047486FF0080141606FF01001026842F051
:103BD000080202604160026842F01002026001BD0A
:103BE0003F48016821F010010160026822F00802DC
:103BF0000260DDE738B5054600F092FDA84228BF17
:103C0000FFF7D4FFFFF7C4F8441E36480560284686
:103C1000A44100F0F7FDE40F04B100E031BDBDE8C0
:103C20003140FFF7B1B838B5FFF7B2F8441EA441F0
:103C300000F076FDE40F05460CB1FFF7A5F8294822
:103C400001688D4201D3002032BD284632BD38B50F
:103C5000FFF79EF8441EA44100F078FDE40F0546EE
:103C60000CB1FFF791F81F4801688D4201D3002085
:103C700032BD284632BD70B51A4D044628688442CC
:103C800028BFFFF793FFFFF783F86C60461E2046BE
:103C9000B64100F096FD00F043FDF60F84420AD1D4
:103CA00011496FF0100008600EB1FFF76DF8BDE824
:103CB0007040FEF771BC1EB1BDE87040FFF764B8FC
:103CC00070BD7047FEF768BC80B500F062FEBDE8CD
:103CD0000140FEF7AFBC03480068704700000000D9
:103CE00008880840403A00200C8808404018491CC9
:103CF0001CBFB1F1010100F8012DF9D1704700009E
:103D000080B568B9FF20FEF78BFF0021002001F08D
:103D100035FC2049204B0020087001221A7001BD9B
:103D20001E4900200870BDE804400FF2390101F07F
:103D300025BC70B51A4E0D463178FF2904460DD0CA
:103D40000420FEF713FE38B1C02101708570C470E5
:103D500001463078FEF72BFE002070BD012070BDBB
:103D600000000000810801F00101E2E710B501F058
:103D700009FC53280CDA4F280A480168ACBF01241B
:103D8000002419B120460228B8BF8847200000D07F
:103D9000012010BD6C390020813B00206F3B0020CA
:103DA00093040020E43A002000F099BC79490020F7
:103DB0004860704770B504460D46164600F018F886
:103DC00008B1466070BD1020FEF7EAFC78B184723D
:103DD0000581466000210160C1606E490A6812B920
:103DE000086070BD0A4611680029FBD1106070BDE3
:103DF00020B502466748006828B103898B4204BF9A
:103E0000857A9542F7D120BDF8B505460E4617468E
:103E1000FEF7BEFF3A463146441E2846A441FFF74E
:103E2000C9FFE40F05460CB1FEF7AEFF0DB100204F
:103E3000F2BD0820F2BDF8B504460D461646FEF761
:103E4000A7FF471E324629462046BF41FFF7B2FF73
:103E5000FF0F040018BFE6600FB1FEF795FF0CB12D
:103E60000020F2BD0820F2BD70B504460D46FEF7F5
:103E70008FFF461E29462046B641FFF7B9FFF60FD1
:103E800004001CBF002020810EB1FEF77DFF0CB1A5
:103E9000002070BD062070BDF8B504460D46FEF743
:103EA00077FF0026471E29462046BF41FFF7A0FFA7
:103EB000FF0F00B146680FB1FEF766FF3046F2BD56
:103EC0002DE9FC410446334FFEF762FF7968401E3E
:103ED00080416118C00F796008B1FEF755FF3D6859
:103EE000002D52D04FF000080094FEF751FF00243F
:103EF000461EB641BDF80200F60F002804BF9DF82B
:103F00000100002807D128799DF80010884202D3CB
:103F1000401A287106E06868009981423ABF401A49
:103F200068606C60A88860B9E88860B9E8680028B3
:103F30001CBF298900290AD0A87AFEF733FEE86859
:103F40006860A88808B9E88808B1288940B9286855
:103F5000B8F1000F0CBF3860C8F800002C4600E034
:103F6000A8462D680EB1FEF70FFF64B1A0880028A7
:103F700004BFE088002803D12189A07AFEF712FE51
:103F80002046FEF77AFC002DAFD1BDE8F381014851
:103F900040687047703A0020034800218171018019
:103FA0007047014988717047683A002080B5182031
:103FB000FEF7F6FB1549086018220021FEF7A6FC63
:103FC000002001F0EBFA0120FDF7B8FC022001F01F
:103FD00039FC032003F070FD042003F0CDFE052022
:103FE00004F0D6FA062004F0C1FD072006F0E0F840
:103FF000082006F0D3FA092006F002FD0A2007F097
:10400000E7FFBDE802400B2000F002B8EC3A0020C8
:1040100014490870704780B508F01EF808F047F89A
:10402000BDE8014008F036BB38B50C4621040BD57D
:104030000C4D01E0FEF7ACFC2878FEF7E5FC00280B
:10404000F8D184F4004032BDA00604D508F0B5F8DC
:1040500084F0200032BDE00602D584F0100032BDAD
:10406000002032BD683B002008F01BBBEFF310803E
:1040700072B67047EFF3108062B6704740BF70476A
:10408000DFF8D81400200860704780B503F0A2F86C
:1040900060B90022012100F042F900281CBF01682C
:1040A000002903D0BDE8024001F0E9BD01BD80B5A3
:1040B000042000F024F9DFF8A8140A78824207D31C
:1040C000FF2000F01CF9DFF89C140A78824201D22C
:1040D000012002BD002002BD2DE9F04107468846BF
:1040E000387B00F02EF900250446012624BB7A898E
:1040F000397B386800F0BDF8040062D025810125C5
:10410000387C2074788A608207F1100009F0DDFAAB
:104110006061388B61892083B87EA0764FF67F403E
:104120000140618148074FBF41F08001DFF838044A
:10413000027841EAC21161816289D009B8F1000FA9
:1041400000F0070012D00221617321688B7B5907B0
:1041500003D5DFF818140B8A238120B34FF67F4173
:104160000A40401E42EAC01262811CE008B90026E3
:1041700019E0900605D5FEF7F7FB00F07F005F30F1
:1041800008E0D00605D5FEF7EFFB00F00F000A307F
:1041900000E001202081202104206073DFF8D0039B
:1041A0000078FEF7FFFC6DB12289617B204600F0AC
:1041B00073F838B1606908B1FEF75FFB2046FEF77F
:1041C0005CFB00263046BDE8F0817FB500F0B9F811
:1041D0000024B8B3417B062934D1016844890A7AA6
:1041E0008DF8082001680A88ADF8002000F0EDF88D
:1041F000200526D5BDF80010002000F026F800BBF1
:10420000DFF86853A98C68460AF044FE00210020BC
:1042100000F01BF804464FF6FF760DE02068018899
:10422000B1420ED0A98C0AF033FE1A2809D0002121
:10423000204600F00AF80446002CEFD100200AF0D6
:104240002BFE0124204604B070BD58B1406868B10F
:1042500042891305FAD50A001EBF026813888B42F3
:1042600004D0F3E7DFF8F4020068F0E770470120BC
:10427000704770B504460D4616461C20FEF790FAAE
:1042800048B1002141730573468101818173C17377
:1042900004604161416070BD70B504000E46154672
:1042A0002BD0012E304606D100F029F8B1490A780A
:1042B00082420CD207E0042E07D100F020F8A84972
:1042C0000A78824203D2112070BD022E15D100203F
:1042D000606066732581A148016831B100E0014644
:1042E00048680028FBD14C6000E00460A0480078DA
:1042F0002021FEF757FC002070BDC12070BD10B515
:10430000964909680246002005E04C7B49689442C2
:1043100014BFFF2A401C0029F7D1C0B210BD10B550
:1043200058B1406860B1437B8B42FAD1130007D08B
:1043300003689C7B630703D5F3E788480068F1E7CF
:1043400010BD01468548006800E0406800281CBF99
:10435000027B8A42F9D1704701468048006800E03C
:10436000406850B1026813888B42F9D1126A137801
:10437000527803EB0223DB05F2D47047F8B505460B
:10438000002728000E460AD07448046800E06468DC
:104390002CB131462046A8470128F8D12746384697
:1043A000F2BD0020704718B56C4A13681946002406
:1043B00001E00C46496839B18142FAD14868994216
:1043C00001D1106011BD606011BD10B5040011D0A5
:1043D000FFF7E9FF2068006AFEF74FFA2068FEF752
:1043E0004CFA606908B1FEF748FA2046BDE8104073
:1043F000FEF743BA10BD70B50168584B0A881968BA
:104400000023002409E04D7B052D01BF641C0E68CC
:1044100035889542496808BF5B1C0029F3D1564A8C
:1044200052491578DBB2AB423FBF544B1D78E4B222
:10443000AC422CBF01220A8A02814FF6FF7305228B
:104440004273428942F400624281006802889A42C3
:1044500004D0898C0AF01CFD1A2804D1BDE87040F4
:1044600001200AF019BD70BD70B53C4D2C68002CC0
:104470000EE021686668086AFEF7FFF92068FEF71B
:10448000FCF96069FEF7F9F92046FEF7F6F9340009
:10449000EFD10020286070BD10B501000AD0A1F155
:1044A00008021068002804BF9379FF2B04D0084647
:1044B000FEF76EFA052010BD2D4C20789071304823
:1044C00002783048FEF74CFB012806D120784FF4E3
:1044D0000051FEF767FB002010BD042010BD70B531
:1044E000FEF756FC274E3468451EAD41ED0F8CB1EA
:1044F0001F4854F8081C007800294FF4005102D0DE
:10450000FEF750FB01E0FEF764FB00222146304637
:10451000FEF70AFB0DB1FEF737FC204670BD70B503
:1045200005460E480468002614E021680A88AA425D
:104530000FD100202081A07A410744BF207B0BF0DF
:1045400057FE06216173F0212068407B01F0F8FBE3
:10455000761C6468002CE8D1F0B270BD483B0020A6
:1045600062B6210063B621009B0400203C3300208A
:10457000B03A0020D373210013E92100CAEE2100D4
:10458000761E22004C3B0020F8B5DFF8380488B0D6
:10459000142101603F2282605523DFF82C44C36060
:1045A0008521E167012242611521DFF82054416233
:1045B0000022AA67102101630E2242630321816356
:1045C0000920DFF80C74042378650B221A60FF269B
:1045D0003E6080212A20FEF7F6FB80212B20FEF78B
:1045E000F2FB2A20FEF700FC2B20FEF7FDFB8021CA
:1045F0003120FEF7E8FBDFF8DC03DFF8C463016875
:10460000090C3160FEF7C4FB401E80410221F967AE
:104610000022DFF8C4130A602823C00F4B6008B1E2
:10462000FEF7B2FBDFF8B40301680A03FAD5386F6E
:1046300040F003003867386F4107FCD5386F40F011
:104640000A0038673120FEF7CFFB48202060FFF7D3
:1046500067FA206CC107FCD500211020A26F530817
:104660004941401E89B2F9D1002914BFB1F5607FDC
:104670004BF6BE21DFF8680301F0FF020260091269
:104680000160716879B1002200230820A66F7708C5
:104690005B41401EFAD16846D6B2521C8355D3B254
:1046A000202BF1DB8847FFF74FFA402020600022E3
:1046B000216841F0200121602A606A60AA60EA60F6
:1046C0002A616A6109B0F0BDDFF81803016821F0C2
:1046D0000C0141F0040101608069C0B27047DFF84D
:1046E0000403016821F00C0141F0040101608169BB
:1046F000406900EB012080B2704710B5FEF748FB1F
:10470000DFF8E412401E804101220A60C00F8A686F
:104710004C6844EA022408B1FEF736FBA0B210BD93
:1047200080B5FEF735FB00F009F84B684A698DF853
:1047300000200B698DF80130002318E0DFF8A81283
:10474000401E804100220A60C00F704780B5FEF70E
:104750001FFBDFF89412401E804110220A60C00F38
:104760004B698DF8003000230A698DF80120CA6872
:104770008DF802208DF8033008B1FEF705FB009894
:1047800002BD01B5000E18BFFFF710FAFFF7C8FF12
:10479000964AD3680099C018401AD060FEF7F8FA1C
:1047A000FFF7CCFF9DF800304B619DF801200A61B6
:1047B0009DF80220CA6018B1BDE80140FEF7E4BAD6
:1047C00001BD11B5002481B0000E18BFFFF7EEF94E
:1047D000FEF7DEFA00F038F8D30604D50A6822F0B6
:1047E000100201240A6030238B606FF0100300F088
:1047F00031F84B601CB10A6842F010020A6000B147
:1048000032E013BD11B5002481B0000E18BFFFF7D0
:10481000CDF9FEF7BDFA00F017F8130704D50A68C2
:1048200022F0080201240A6020238B6000F012F8B5
:104830004B6823F008034B601CB10A6842F0080281
:104840000A6000B110E013BD69490A68401E80414A
:10485000C00F70479DF80420CA619DF805208A6149
:104860009DF806204A617047BDE81340FEF78CBAF8
:1048700038B55F4C256860680540E80604D5FFF749
:1048800021FA6FF010006060280704D5FFF71CFACA
:104890006FF008000DE0E8070CD556490868564946
:1048A00091F9003040B29842B8BF184608706FF0D6
:1048B0000100606031BD70B5504C514D666C2A20CE
:1048C000FEF7EAFA28683040010705D56FF00800C6
:1048D000286000F016FE13E029683140C80605D5AF
:1048E0006FF01001296000F013FE09E0286806400F
:1048F000F10705D5606C40084000606400F0B0FB33
:10490000206C69680840400707D500F024F96FF073
:104910000400686021684806F7D470BD10B53949B5
:104920000C682B20FEF7B8FA3748016821404A0688
:1049300003D56FF04001016010BD02682240D1072D
:1049400008D56FF001020260FFF7A8F8BDE810403B
:10495000FFF7E6B801680C40620706D56FF0040166
:104960000160BDE8104000F0C8BB10BD22496FF0E7
:104970007F0008701E48026842F001020260704722
:104980001B4801684908490001601B4890F9000074
:10499000704738B5FEF7FCF9144D441EA441287841
:1049A000E40F28B9FFF797F9E9684018E86001E0DB
:1049B000002028701CB1BDE83140FEF7E5B931BDDB
:1049C000483A0020A4860840248608409085084084
:1049D00094870840F80F28001488084004200D40F0
:1049E00014700D4000700D40108808404C390020B4
:1049F00008880840608608406B3B00204C860840D1
:104A000030880840948608402C88084004E011F85B
:104A1000013B40F8043B521ED3B2002BF7D1704744
:104A200004E050F8043B01F8013B521ED3B2002BC6
:104A3000F7D1704738B504460D0008BFFFF7B6F848
:104A40006D1E14F8010B0B49EAB2002A0860F7D179
:104A500031BD38B504460D0008BFFFF7A7F805487B
:104A6000016804F8011B6D1EEAB2002AF7D131BDBE
:104A700000000000288808400021DFF8B8064161E6
:104A800000220FF2F901C27282800161827182817B
:104A90008273704738B5DFF8A05605202860FEF70E
:104AA00077F900F053F8DFF894166FF00400E40F84
:104AB00008600CB1FEF768F9E86B40F00400E863A9
:104AC00031BD80B5FEF7EAFFDFF8681600204871B7
:104AD000BDE8024016E310B5DFF85846207B0121FF
:104AE000617318B900F003F80020607310BD38B589
:104AF000DFF84406DFF84456016C490849000164B8
:104B000005220260ED2068606860FEF741F900F060
:104B10001DF86FF00400E40F28600CB1FEF734F9C3
:104B2000DFF81046606918B104F11400FCF754F87E
:104B30000FF2490021792061A079014305D00021BD
:104B40002171A171BDE831409CE231BD441EA441F8
:104B50002A20FEF7A1B910B5DFF8D845607B58B917
:104B600001212173206980470021607B217318B1E6
:104B7000FFF7BDFF0020607310BD00002DE9F84F66
:104B8000DFF8B0753879002508B1FFF70FF88121FB
:104B9000DFF8AC253971107838B1DFF8A845606AC4
:104BA000010606D4606A410603D43D7100F06AFA3A
:104BB0005BE100F00EFCA06EDFF88C954008400031
:104BC000A066BD7104217879B8723846FFF741FFBD
:104BD000387800F07F00C01EF871C0B27D28BEBFDB
:104BE000787800F00701042972DA00F00700022843
:104BF00004BFF87A0028DFF8546540D100F084F94A
:104C0000FEF7C6F8B0F10108307868EB080886288E
:104C10004FEAD8742FD1DFF83855286808B9FEF765
:104C2000C5FF00F019FA9DF9001003F00F03C05CF6
:104C300041189DF80100A1F1490600F07F0949469D
:104C400070B2FEF709FC29684877286880F81E9042
:104C50002968CE770CB1FEF797F89DF801000106A0
:104C600006D57978F87801F01001FEF73DFE34E0C2
:104C7000FEF75FFE31E084B3FEF786F82DE0307872
:104C8000862808BFFEF755FEB97A81B1F87A70B967
:104C9000012939D07878022903D110F0070F33D1D8
:104CA00005E0032903D100F0070003282CD1B878D0
:104CB000DFF8A014C0F381000090B8784FEA901894
:104CC000086868B9B8F1010F1CBF0098012807D126
:104CD000ED21C9F80810C9F8081000F0A9F9C4E0DE
:104CE00000990FF29440465C10F808008619787815
:104CF000B8F1000FF6B203D0410644BFB61EF6B2BB
:104D0000F979B31C994202DA00F0C5F9ADE0891BCC
:104D1000891E7972000748BF2525C9B24D194C3547
:104D2000A8B2FBF74BFF786118B9E820C9F8080072
:104D3000EAE7F87A4FF0000A18B9787800F0200016
:104D4000B871B879A8B3FEF723F8B0F1010B787801
:104D500000F007006BEB0B0B03284FEADB7B0CD159
:104D6000FBF717FF002870D1DFF8EC130878002854
:104D700067D00BF027FEFE2867D0206820F00400E3
:104D80002060FEF705F8451EAD412A20FEF784F8A5
:104D90006FF00100ED0FC9F800000DB1FDF7F4FF51
:104DA000A06E40F00100A066BBF1000F18BFFDF738
:104DB000EBFF786900F14C0141600164797A01727E
:104DC0007869017A80F844107878010710D57969FC
:104DD000032081F84400791C78694030027900682A
:104DE000FDF77CFD786950F8401F02790A440260A3
:104DF000786980F824807869009980F82E10FFF790
:104E0000A5FC79690863FFF778FC7969888678786A
:104E100000F0070008737969F87881F83D00797827
:104E2000B878C0F3011001F0780108434AEA0001A4
:104E3000786981737EB90FF2FD00386100F067F880
:104E400013E0FBF79AFE002897D020684FF0040A81
:104E500040F0040094E73E727978387A0A0758BF28
:104E6000401EA0620FF209003861BDE8F18F00001A
:104E700030B5B04C207A85B008B9FEF797FE00F047
:104E800042F8A0786946C0F38100C8B162699DF814
:104E900000304D7803EB052313870328138FD38647
:104EA00008D10DF1020102F12600FDF76AFF0DF1B4
:104EB0000A0105E08878C97800EB0120D08401A9B7
:104EC000A078800915D06269937B5D0605D40B78C4
:104ED0004D7803EB0523D386891C032804D102F106
:104EE0001C00FDF74EFF04E00878497800EB012034
:104EF000908300206169C8750FF23900206100F0CD
:104F000006F805B030BD217A6846FFF7A2BD894991
:104F1000894A487A28B9012010600FF23D020A61DF
:104F200070471028A8BF10200872087A401E106031
:104F30007047000010B57F4C6269217A106CFFF752
:104F400088FD6169207A0A6C02440A64617A081A51
:104F50006072BDE81040DAE72DE9F843754D022193
:104F60002846FFF776FD6E78002406F080063000B4
:104F7000744F02D1E87A022845D1E720FEF78AFB78
:104F800002202871FEF7B3FD00F066F8295703F000
:104F90000F03C05C41186878A1F1490900F07F084F
:104FA00041464FFA89F0FEF757FA696981F83A00ED
:104FB000686980F83C90696981F83B80696991F87B
:104FC00044304A6801F14C000864087A1B1AD01872
:104FD0004860897B4A0706D50078042803D03968E1
:104FE00021F0040139605C4A107818B10BF0F2FC32
:104FF00000B104246869817B34430C43847368697D
:10500000FBF7EFFD0BE0E820FEF744FBB86E40082D
:105010004000B866AC7105F11400FBF7DDFD05201A
:10502000B86200204D4968612961BDE8F14300BFC5
:105030004B4801684A0606D50068010603D4494872
:10504000ED220260026000223A4802718079002855
:1050500008BF00F017B87047434A444813787047B8
:1050600010B5344C42480021A171FDF740FB207976
:1050700038B9FEF73CFDFEF72EF9BDE81040FEF70B
:10508000D1BB10BD80B5FEF732FDFEF724F9BDE8B7
:105090000140FEF7C7BB10B5264C30492069884255
:1050A00018BFFEF783FDE07910B9BDE81040BFE7F7
:1050B0001028A8BF102020721F49207A0FF2090281
:1050C000401E0860226110BD1FB51A4CFFF71BFF80
:1050D000E179207A081AE071C2B2174932B1102A78
:1050E0000ADA2072C0B2401E08601FBD05200860A9
:1050F0001A492161FFF79CFF1FBD0E48817B491CA7
:105100008173E8E410B50B491A4CC872010006D14E
:1051100000202060216841F00901216010BD0228B3
:105120001CBF0128FEF742FD2068400840002060B7
:1051300010BD0000AC38002050860840348808407C
:10514000543B00202886084030880840C43800209E
:10515000C8030020483A0020693B00207D4B200016
:105160004C860840388808406C3B0020AE3B20004D
:10517000CC3800200086084000BE040A4AB1000076
:1051800011F8013B521E00F8013B1CBF11F8013B16
:10519000F8E7704770B5134D2C780CB3124E306899
:1051A0000103FBD51148026842F003020260016866
:1051B0004A07FCD5022C04D10BF0AEFCFFF76AFCC9
:1051C00008E0012C18BFFEF7F1FC3068010358BF5E
:1051D000FEF7ECFC00202870BDE87040FEF775BCBF
:1051E00070BD00009104002004200D400488084098
:1051F00010B5FDF7CDFDDFF85813401E80410022A9
:105200000A60C00F4B688C6808B1FDF7BDFD24062D
:10521000600E10BD38B5DFF830030168CA0648BF1C
:10522000FEF7C4FCDFF82C03DFF82C5301210167E3
:105230000160E220A860FF21A960FDF7A9FD00F050
:1052400050F96FF01000E40F28600CB1FDF79CFDE1
:10525000FDF79EFD00F045F96FF00800E40F2860AF
:105260001CB1BDE83140FDF78FBD31BD10B5FFF772
:10527000D1FFB648BC210160B82202600F23036051
:10528000D0240460046004600460D221102404600F
:105290004AE010B5FFF7BEFFAC48BC210160172201
:1052A00002608123036010240460D2210160036046
:1052B000046001600122D921016000F07FF8D2234F
:1052C000C5220260036010BD38B500F07EF8A34C23
:1052D00011606FF002002060FDF75AFDA04B411EE7
:1052E000894100206060C90FA268E0681D68122D26
:1052F000C0B204D2D3B2002B04BF00280122032382
:105300006360D2B2A260E06009B1FDF73DFD8E4856
:1053100000F04BF8FEF704FCE120E06231BD10B56F
:10532000FFF778FF8948BC210160D9220260012380
:10533000036009240460BA2101600360D224C523FC
:105340000360046010BD2DE9F041814D7E48DFF817
:10535000148200F02AF8FDF71BFD441EA441002032
:105360002860E40F69686E69F6B206F00F07C7F1AE
:105370000F07FFB2C8F80070FEF790FB7A490120D2
:105380000870E122AA620020286069686869864284
:1053900004D0022FA4BF7F1EC8F800701CB1BDE866
:1053A000F041FDF7F1BCBDE8F081016841F010016A
:1053B0000160026842F0080202607047026009233F
:1053C0000360BA240460026070476848654A017847
:1053D000704760490868002800D0704780B55A4877
:1053E0000168CA060DD5016821F01001016002684C
:1053F000110705D5026822F008020260FEF7E9FAFB
:10540000B8E001BD2DE9F843DFF83C81D8F8000091
:10541000C10648BFFEF7CAFBFFF7EAFE81465448C3
:105420000478142CD8BFFEF7C1FB4C44143CE4B202
:10543000142194FBF1F7F9B2142000FB1144494DFB
:105440007F1C0221A960FFB2E0B22F601428C8BF00
:10545000FEF7ACFB414E6FF002003060FDF798FCA8
:105460003F4A401E80410321716024061168C00F2D
:10547000E40B122902D2A1B201B90124A1B201F0B8
:10548000FF012404B160240EF46008B1FDF77CFC38
:10549000E220F062FF21F162FDF77AFC00F021F8D2
:1054A0006FF01000E40F70620CB1FDF76DFCBC20D2
:1054B000F062B821F162D220F062E120D8F8001049
:1054C00041F01001C8F80010F062FFF791FE484566
:1054D00005DA2868B84202D12968491E2960BDE86A
:1054E000F183441EA4412A20FDF7D6BC164801686A
:1054F00021F010010160E22214480260FF210160E6
:1055000070471148016821F008010160FEF761BA97
:1055100080B50D48016821F0100101600D4908684F
:1055200000B927E00868012803D1BDE80140FEF773
:1055300099B90868022818BFFEF738FBBDE801409A
:10554000FEF7F7B900000000908608403888084050
:105550001088084090870840308808400C88084030
:10556000483A002088870840543B0020C738002074
:10557000B4330020BDE80140FEF79AB9704700003F
:105580000020704704480F21816002681106FCD595
:105590000069C0B27047000000700D40A649087055
:1055A0001021FDF7FFBA78B50D46A44908788BB0F5
:1055B00028B1642332220121082006F0B5FD280419
:1055C0009D4E15D4690433D50BF060FB18B10BF078
:1055D00095FB0BF043FB85F48045D3E020460BF0B0
:1055E000CFFE02E020460DF003F82046FDF7D0F98B
:1055F0003078FDF709FA040017D02078012808D088
:105600001A280AD0D1280CD0D328EBD0FD28E5D019
:10561000EBE760680BF072FBE7E720460BF0C1FE9A
:10562000E3E720460CF0A2FEDFE785F40045A9E0A1
:10563000A80407D50BF02AFB08B10BF05FFB85F43B
:1056400000559FE0E9047E4C23D5A06848B9201D91
:10565000FDF741FAA060E06018B14078401D60801D
:1056600001E0A06890B16288E168002007F024F8AA
:105670006188091A618089B229B9A068FDF788F9A3
:105680000020A06002E0E1680844E06085F48055F5
:1056900078E0280505D500200DF0BEFA85F40065F8
:1056A00070E0680505D501200DF0B6FA85F4806537
:1056B00068E0A80505D502200DF0AEFA85F4007566
:1056C00060E0E80505D503200DF0A6FA85F48075A5
:1056D00058E0E9064ED5207808BB01218DF800106E
:1056E00004228DF802108DF801204FF4806105220C
:1056F000ADF80C10ADF81810ADF804208DF80620A8
:1057000001220FF215110A918DF82020694606F04A
:10571000C2FF30780DF092FA162009F0C2FB002289
:10572000022140F601700DF050FF0022022140F6E8
:1057300002700DF04AFF0022022140F603700DF0C6
:1057400044FF0022022140F604700DF03EFF0022CB
:10575000102140F605700DF038FF0022102140F6B0
:1057600006700DF032FF0BF0E7FE0DF038FA85F011
:10577000100507E0280704D50BF084FB85F0080529
:1057800000E0002528460CB070BD80B52C4B1A787F
:1057900032B9491D88B2FDF7E9F870B1401C02BD6D
:1057A00000F0E0006028084603D1BDE802400BF09D
:1057B000EFB9BDE802400BF0FEB902BD70B5204D57
:1057C00004462878B0B92678F61CF1B220460DF0D0
:1057D00038FAF6B2FE22A05504F8012C611E281DED
:1057E000FDF75EF9BDE87040134800784FF4805132
:1057F000FDF7D8B9607800F0E000602804D12046B9
:10580000BDE870400BF0DBB92146281DFDF748F9D3
:10581000BDE870400BF00FBA074A127811F0070F7D
:105820001CBF11460DF01CBAC80604D54FF48051B8
:105830001046FDF7B7B970476D3B0020900400207B
:105840006C39002010B5DFF8F418DFF8F448087060
:10585000002084F826000EF04FF8FEF711FC00201F
:10586000606708F0CAFDDFF8DC080078002818BF80
:10587000012803D10EF0E2F809F048FB0EF051F8D0
:10588000DFF8C41800200860BDE8104009F0FBBA3A
:105890002DE9F047DFF8A4588EB00F462878390478
:1058A0001BD5FDF7B1F8040014D000200FF2F82149
:1058B00000E0401CC2B211F83230FF2B07D025782F
:1058C000AB42F6D1091D204651F8321088472046D8
:1058D000FDF75EF887F4004050E1B9040BD5FEF700
:1058E000FEFD040004D000F047FC2046FDF750F810
:1058F00087F4005042E1DFF84C48DFF85068217827
:10590000022921D1FB071FD5307A0F2819D1DFF8E2
:1059100040080188491C018040F2E93089B2814287
:1059200006DBDFF8300800784FF40041FDF73AF964
:10593000002000F072F920B1DFF81C08006800F0C8
:1059400022FA87F0010019E1BB0640F1998020217D
:10595000FEF7A2FA6968084308BF01240DD0FEF7DC
:1059600016FB01466868002428B1814232BF6FF0FF
:1059700000440C1A6408002C3ED000F049F90600DF
:105980000DF134094FF0FF3A36E0FF208DF80000AA
:105990008DF801008DF802A001AA3068C17F006A6D
:1059A00007F012F901281BD1708A40F08000ADF891
:1059B0003200B17B8DF83410B17A0A0706D540F475
:1059C0008070ADF83200307B89F80200706910B148
:1059D000007BADF814000022694601A80EF073FDAB
:1059E00006207073307BFEF7F0FB03E00028CCD17B
:1059F000012070735FEA080600F0C38000220421D2
:105A00003046FEF78CFC80463089A0422CBF001B3C
:105A10000020308130890028ECD1B07B0128E5D10D
:105A2000B17A4A07E2D406207073B7213068407B10
:105A300000F086F9DEE7B0F8088003E001898845C8
:105A400088BF884600220421FEF769FC0028F5D1B2
:105A5000A1B22878414503D2A8EB0404A1B221B930
:105A60002021FDF79FF8002006E02404E20B20210E
:105A7000FEF7CAF9FEF78BFA686087F020007DE038
:105A8000002918BF012959D1F80604D509F007FEED
:105A900087F0100072E0780604D50AF06FFA87F0FC
:105AA00040006BE0380604D50EF0EFFF87F0800071
:105AB00064E0F80504D508F080FA87F480705DE0B2
:105AC000380515D509F0F1FADFF8900601780129BB
:105AD0000BD1DFF88C2612783AB14FF47A7042433A
