:20000000003A01201DE9010039FB021039FB021039FB021039FB021039FB021039FB0210DA
:1C00200039FB021039FB021039FB021039FB021039FB021039FB021011FB021002
:20004000BA492DE9F04F0446B74ADFF8E8920E68A578507800279046ADF1540D29460C29B1
:2000600007D9DFF8CCB2DFF8D0A2203933290FD953E3DFE811F06D055E0543052D050D0506
:20008000F704F304DD04C7045203BA04B6049604DFE811F083047F047B046B046704EC0242
:2000A00051042F04B10287024303430343034303430343030B04F003D303B80359029D034A
:2000C0003402FC01430343034303430343034303E801B5019C0143038C03790183037703BE
:2000E0006A0354012A01E500660362035803C000480382004503670046003400E1788DF871
:200100002A7031F07F0006D011F07F0F0CBF381C0120CA49087053210DF12A0300F004BD25
:2001200008F1110332203946012224F017FD08F1120333203946012224F010FDC84898F8D2
:2001400011100078012905D04FF400611DF03EFD00F001BD4FF40061642225F050F800F0F6
:20016000FABC8DF82B7078B9E41C204624F016FF0546A01C0446083024F010FF024621468E
:20018000284622F020FF00E012208DF82B0051210DF12B0300F0C8BCE01C24F0FFFEE51CDE
:2001A000AE784FF6FF748DF80A600546ADF80850AC4218D0E01EA84215D0A01EA84212D0FD
:2001C00002208DF80C00ADF80E5003A81AF006FF012818BF4FF001090CD1BDF80E00ADF821
:2001E0000800012000E038468DF80B0002A81CF035FD8146E41EAC4204DC012088F82A009E
:2002000088F82B6020F03AFC8DF82C904F210BAB00F08ABC20798DF82E00E078012814D03F
:20022000022809D0032805D052200DF12E0123F087F80FE03C4600E0012452200DF12E0175
:2002400020F05CFC88F8004004E052200DF12E0120F054FC4D210DF12E0300F065BCE1788C
:2002600038465EB13279914205D1F2880DEB4003401CC0B21A813668002EF3D18DF830003A
:200280009DF83000012404EB4000C0B2054618F0DDFF5FEA000806D18DF830704921224685
:2002A0000CAB00F042BC02469DF8300002F8010B38469DF8301081420ADC652049212A462B
:2002C000434620F049FF404620F098FA00F043BC0DEB400108310B7813700988401CC0B24F
:2002E00009125170921CE4E7301CE4788DF8317013D03E4601798C420BD11EB905680B49B8
:200300000D6002E001683160056820F077FA284601E0064600680028ECD120F00FFC0DF1A5
:200320003103472100F000BC74040120F4080120A3190120B8030120AE000120E01C10F833
:20034000014B24F02BFE0146C7480068224650B13E4603799A4202D1C388994205D00646F7
:2003600000680028F5D1012008E006B9BE4E0168316020F043FA20F0E1FB38468DF83200EB
:200380000DF13203CDE739460DF12200062207911AF0EAFDE01C07A923F0C8FC8DF82200FC
:2003A000079870B101888DF8231046888DF8256009128DF8241031128DF8261000798DF894
:2003C0002700432106220DF12203AEE364788DF8377048B1012805D002281CBF01208DF80C
:2003E000370004D1022000E004200DF095FA24F01F04202C40F0AF830DF13703EEE22046EC
:2004000090F80180C01C24F0C9FD59460A7849468E6856B13C4633799A4202D1F38898423E
:2004200005D034463668002EF5D101200EE03CB9346804B93C468C6004E0C0460001012004
:2004400030682060304620F0D9F9384628F01F088DF83800B8F1200F40F07D830EABBDE252
:200460007400012020464478C01C24F097FD0146584600781EF0BEFE24F01F048DF8390025
:20048000202C40F068830DF13903A7E2E41C204624F084FDA41CADF8080014F8010B04218D
:2004A0008DF81000204623F03FFD0646201D10F8019B10F8018B24F071FD044631464A465E
:2004C000434602A800941CF0BBFA8DF83A009DF810000F280FD1022053468DF81000188829
:2004E00031464A46ADF80800434602A800941CF0A7FA8DF83A000DF13A036FE22078264685
:20050000042806F1030614BF16F8010B02208DF81000304624F042FDD54CADF80800B01CA8
:2005200010F8018B012626700278414602A81DF09BFE8DF83B002770404624F0C7F80DF16B
:200540003B0332464BE20220E41C8DF81000204624F024FD4E46A11CADF808000C7A70680A
:2005600024F071FE7168C4F3400804F00104B8F1010F0F7204D17268107A40F040001072C2
:20058000012C03D1087A40F080000872484602A9342209231CF0D4FD0DF13D038DF83D0016
:2005A000C1E20226E41C8DF81060204624F0F6FCA41CADF80800204624F0F0FCA27880465C
:2005C00002A84146144623F023FE8DF845009DF810000F280CD1504600888DF8106041463F
:2005E0002246ADF8080002A823F012FE8DF845000DF14503F2E10226E41C8DF810602046B3
:2006000024F0CCFCA41CADF8080014F8010B8DF84700204624F0C2FCA41C14F8019B804647
:2006200002A90DF14700424600944B4601971FF0D5FE8DF846009DF810000F2811D1504684
:2006400000888DF810603E4602A94246ADF808004B4600940DF1470001961FF0BFFE8DF867
:2006600046000DF14603B9E1F4080120A946E51CA878B846FE280BD1E878FF2808D120782E
:20068000082805DB284624F089FC294622F00BFF284608A923F08EFE041C0ED1182018F0BB
:2006A000D5FD5FEA000807D0BDF8200039461822434624F053FA00B1C824192018F0C6FD27
:2006C000061C20D05CB9701C2946082223F062FF06F109004146102223F05CFF04E0701CC3
:2006E000FF2118221AF040FC3470652049461922334620F031FD3046394619221AF034FC46
:20070000304620F07BF8B8F1000F00F024824046394618221AF028FCD5E502271BE21BF03A
:2007200017F818E2E01C24F039FCE51C0246A81C10F8011B1BF0FEFA4E210DF12D038DF815
:200740002D00F1E18DF82F7023F0D8FF0DF12F034C218DF82F00E7E120461AF0BFFFFAE16A
:2007600020461DF0E0F8F6E1E01C24F017FC6179A2791CF0A8FA46210DF133038DF833003E
:20078000D2E1E01C24F00AFC6179A27911F098F945210DAB8DF83400C6E1E01C10F0B2FEDF
:2007A00044210DF135038DF83500BDE1E01C24F0F5FBE51CA91C0B4608310A4619461EF039
:2007C00081F842210DF136038DF83600ACE10220E41C8DF81000204624F0E0FB4E46A11C61
:2007E000ADF808000C7A706824F02DFD706802A935220923047248461CF0A2FC0FAB8DF8BD
:200800003C00EBE00220E41C8DF81000204624F0C5FBADF80800A0780DF13F0602A93322D8
:200820008DF83F0001230096484601971FF0D6FD0DF13E038DF83E00D0E00220E41C8DF8D9
:200840001000204624F0AAFBADF80800A0780DF1410602A932228DF8410001230096484652
:2008600001971FF0BBFD10AB8DF840005BE1C046440A01200220E41C8DF81000204624F0B7
:200880008DFBADF80800A0780DF1430602A931228DF8430001230096484601971FF09EFD74
:2008A0000DF142038DF842003DE10220E41C8DF81000204624F072FBA41CADF808000421E0
:2008C000204623F031FB4E46221D014612F8018B7068137823F052FE02A900F8018B30227C
:2008E0000370484606231CF02BFC11AB8DF8440019E10126E41C8DF84860601C24F04EFBEF
:20090000814604F10B0024F049FB804694F800A0637BA07B21F052FA0093E01C49465246BA
:20092000434612F0CDFE12AB8D498DF84800042024F05EFB05E60126E41C04218DF849600B
:20094000204623F0F1FA21791DF0E0F885498DF84900022024F04CFB83490DF14903032062
:20096000E6E7204618F02CFFF5E0E41C204624F015FBA11C0B4608310A4619461DF0A2FF0E
:200980000DF14A038DF84A00CDE0204619F0CFFAE1E0204619F088FADDE020460FF036FB53
:2009A000D9E0E01C24F0FAFA4E464FF6FD740F22ADF8084071688DF8102002230412152212
:2009C00001F8010B48460C7002A9F7701CF0B8FB39468DF84B000DF14B03F17001222946A9
:2009E000A3E0204617F064FFB5E0E41C204624F0D5FAA11C0A7A3B4620F0B0FE13AB8DF803
:200A00004C0090E00220E41C8DF81000204624F0C5FAADF80800A01C24F0C0FA0146112279
:200A200002A823F0F5FB0DF14D038DF84D007AE00220E41C8DF81000204624F0AFFAADF810
:200A40000800A01C24F0AAFA0146102202A823F0DFFB0DF14E038DF84E0064E020460EF040
:200A60008FFD78E00220E41C8DF81000204624F095FAADF80800A01C24F090FA014605225D
:200A800002A823F0C5FB0DF14F038DF84F004AE00220E41C8DF81000204624F07FFAA41C21
:200AA000ADF80800204624F079FA4E467268A17810707268031253707068032304228170CE
:200AC00002A948461CF03CFB14AB8DF850002AE00220E41C8DF81000204624F05FFAADF8CD
:200AE0000800A01C24F05AFA0146032202A823F08FFB0DF151038DF8510014E00226E41CD3
:200B00008DF81060204624F049FAADF80800A01C24F044FA0146324602A823F079FB0DF17A
:200B200052038DF8520029460122652020F014FB11E0E41C204624F031FAA41C14F8011BD5
:200B4000227821F06FF90DF153038DF85300EAE7204616F08BFB384615B0BDE8F08FC04626
:200B60007B16020065350200954501002DE9F04F04464FF6FE70ADF15C0DADF85400A4482D
:200B800040784FF00008022812D1A148007878B92089002807BF30204146102001210EF0F9
:200BA000E9FA8DF8568052200DF156011FF0A6FF6068217A08AA11F0FBFC002800F0D984FA
:200BC0009DF822000228B4BF012747469DF824000228A8BF4746BDF82A104FF6FE7BABF1EC
:200BE000060B8B450ED04FF6FE70401F884209D04FF6FE70001F884204D04FF6FE70C01E80
:200C0000884200D1474624F099F99DF82310884240F0AF84002F00F0AC847D48407802281B
:200C200004D19DF85100002840F0A384208D9DF82660678EADF84C00ADF82E70D6B1616839
:200C40009DF821209DF83C30012023F0F7FC002840F08F84C448001D007801280AD1208DD9
:200C600024F095FA30B1417901F0EF01417141F0080141719DF82570DFF8E492DFF8E4A2E3
:200C80004646002F49D19DF83D00474658BBBDF82A0003461FF052FD4546022808BF0125E5
:200CA000002D9DF8225018BF012749460988994208BF47F0020727B1002D14BF4021202185
:200CC0000F4318461FF03AFD012808BF47F00107002D3BD01298007823F084FF012818BFFF
:200CE00027F0010732E09DF8411041B1FF2906D09DF84000119A21F047F850B126E052467E
:200D0000BDF82A10508F884205D092F84A0004281CD101261AE0222718E0BDF82A10FF2009
:200D200021F072FF002804BF3D1C082708D09DF8250047F001052C2740F001008DF82500C1
:200D400005F00305012D08BF47F0110730489DF82650407830F0010005D107F002010E43D5
:200D600008BF47F08007DFF8DCC295B961460E787EB107F0220122290BD007F042014229EA
:200D800040F0F78312990978062918BF072940F0F083F9094FEAA7155AD3BDF82A201299D6
:200DA00048B96046C01C0078800804D30878401E0A282FD909E00878C01E01282AD9001F2F
:200DC00028D0C01E26D0801E24D0B8F1000F21D148460088904240F0CC830D780520BDF845
:200DE0002C408DF8110004A822F070FE002800F0C0830269032313271370511C0F704C7074
:200E000022128A70CD70448009F09EF8B1E3C0467404012068081BD30878032802D1487845
:200E20000D2815D09DF8280038B1BDF82C000E990DF096FF012800F098839DF8270038B1FF
:200E4000BDF82A000D990DF08BFF012800F08A8309F10E00B4F844100088884209D1CDF867
:200E60000080208DB4F8421094F8462043460AF03BFE9DF82600002843D0208DB4F84210F8
:200E80001FF056FB061C25D19DF8510088B99AF89000012835D112980078062801D16808D0
:200EA0002FD2BDF82E100BF10700884240F0C5805FE3042022F084FD011C00F05A83642095
:200EC000087001274F70208D48809AF800001EF0DDFB4EE39DF821106068F3780A18527BAD
:200EE0009A4203D0F27040467060606840180421401C23F019F87168814200F23A83401C1F
:200F00007060B348DFF8C4B24078022800F08F8230F0010040F02D839AF832008008C0F0D9
:200F200028839DF8510030B3BDF82C0023F0DDFAE0B9A5495C46BDF82C000B686269990190
:200F4000A1EB83019047012840F01383A169BDF82C008847E168BDF82C00884709E3C04616
:200F6000AE00012074000120740001206168487800F0DF0048709DF8320038B161688879EE
:200F8000401E8871C0B28DF8320008B907F07F07380924D39DF82500F9084FF4805814D29F
:200FA00079091AD3811011F0070F01F0070604D0072E1CBF761EF6B20EB907F07F0700F0C8
:200FC000E30040EA8600C0B205E020F01C00C11021F0030108438DF82500616808729AF84B
:200FE0004A00042800F0E981092800F0E68117F0610F40F0EF809DF82200012811D1129817
:201000000078052800F0D88003280AD1BDF82A0023F06BFA28B1218D08A815AA002301F07C
:20102000CFFB9DF8320078B99DF82200012804D112980078032800F09C8208A821461DF0BA
:20104000C5FC96E2A300012022F0C8FF002840F090829DF83D0000286DD19DF82400BDF8AA
:201060002A10FD100028ADF854102ED13A0930D29DF82220012A28D0084600211AF038FD0C
:20108000002620B14079012816D0022814D0BDF85400B4F844101FF04BFA28B1807822F043
:2010A000C2FC08B1082807DBBDF82C0023F01DFA18B104208DF824000126BDF82A10002EC2
:2010C00008BF022272D09DF824006A0838BF002300D340230DF13D021AF044FD30B1616836
:2010E000087848F0200800F03F0008709DF83D0040B1BDF82A1010A81FF000FB48F0400875
:20110000ADF854009DF82200012806D0BDF82A00BDF82C10002217F0D3F868082CBF40229F
:201120000022BDF82C10BDF82A0014F0A9FA08B148F0200833E09DF840009DF84110119A84
:2011400020F022FE00282ED09DF8410038B9BDF82A00ADF8540024F01AF800BB1DE0119912
:201160009DF8286001EB400030F8020C002EADF854000CBF082110219DF8270008B10831F6
:20118000C9B29DF82500002200B1012266688918491CCAB2905D401E905548F0400822F012
:2011A0003DFA8146A8E0BDF82A100B22BDF82C0000231AF0E3F9DCE1218D08A815AA0023A6
:2011C00001F0FEFAD5E1C046E8690200080201207404012078084FF0000967D39DF8330089
:2011E000B4F828B0C04D494616901E20EA79169B934206D1BDF82C302A88934201D1AE789B
:201200002EB9401E05F1080501F10101EED11E2921D0AE79E6B1BAF84810584621F0A4FD83
:2012200008B1761EAE71BE4833210279FF2A02D00288934504D0491E00F12400F5D102E018
:20124000A879401EA871A8794828A4BF4E46AE7127F060072AE022F0E1F981469DF832004D
:2012600028B9BDF82C00218D814202D11EE0BDF82C00BAF83A10884202D19AF80600A8B1FF
:20128000218D08A84A460FF06FFF58B1380932BFBDF82A004FF6FE70401C48F00408ADF8E1
:2012A000540003E027F020074FF00009B8094FEAA71510D394F8460094F8476094F94830CE
:2012C0008DF81000E26B8DF8116004A98DF8123008A804F047FF68080ED3218D08A815AA6A
:2012E0004B4601F06DFA5FEA000905D012980078012808BF48F01008BDF854104FF6FE70B0
:20130000884208BF4FF000099C49C97E012927D1628E411C914223D0228D914220D0BDF86C
:201320002A10401F88421BDDBDF82C00904217D023F02DFFA0B10179012918BF02290FD1A2
:2013400001218DF810104088ADF81C0004A81DF0E9FD28B105A81DF0D9F908B11FF08EFBE8
:2013600037F07F0000F00581B9F1000F00F00181208917F06BFF071C00F0FB80616822890A
:2013800023F008F9002605969DF822008DF81000CDF80090CDF8048004AD0296BDF854102C
:2013A0000395228D237A384613F088FE002800F0E08038461FF022FADBE04946BDF82A00F8
:2013C000098881420AD01FF0B9F9022806D09DF8250000F00300012840F0CB809DF8220016
:2013E00098B112980178042904D19DF83C10022900F090800078072804D19DF83C100429E9
:2014000000F0848003287CD0B3E094F846008DF8100094F847708DF8117094F948608DF864
:201420001260E26B08A804A904F09CFEA1E09AF84A00042818BF092840F09B80B80971D222
:2014400012986908C0F095800178042903D19DF83C1002295ED00178072903D19DF83C208A
:20146000042A53D003294CD00C2940F08280401C424A10F8017B0578164601215120D21CA6
:20148000F57023F00FFE3D4B3B49012658465C79067057B9002C14BF4EF660204FF47A70AB
:2014A00051F8241000FB01F405E00846203000684EF6602444430320B4FBF0F441464FF405
:2014C00080400DF057FE9AF8000002211CF07EFB68080BD2A8084CD39AF800000221224687
:2014E00023F08AFE45E0C046C8C300204FF48040214615F011FE4FF4804031460DF03AFE4E
:2015000037E008A8002111F0F5FC32E008A819F0B5FB2EE0002008A90BF090FA29E0C04603
:20152000B0D1002094F8460094F847709DF832508DF8100094F948608DF81170012D8DF85B
:2015400012607FF46EAF208DBDF82C1088427FF468AFBDF82A001FF0F1F8022808BF8DF84A
:2015600032805EE7BDF82A0001E0BDF82C001DF0E1FE17B0BDE8F08FC46902007404012034
:20158000B94A2DE9F04F0846ADF14C0D11780F90000C80F067849246B44D0F9A6878920B20
:2015A00080F03184022813D10F9A520810D39AF850000F2807D19AF84A0020B1012802D079
:2015C00000201FF041FE0F9880F0010000F06ABC0F9A920980F04C83DFF89892DFF89882FA
:2015E00030F0010740F0BC820F9A520980F03D820F99C90980F0C4819D490F9F0A78390A9A
:2016000080F0AD813946490A43D23946090B2AD20F999AF80370490B1AD20F99C90BC0F09D
:201620009F824C46A06A70B1297D01290BD18047E06A00B180479AF800004FF480414FF4BE
:201640007A7223F0D9FD0F9880F4804000F02ABC27B100208AF803001EF038FE0F9880F428
:20166000805000F01FBC1EF031FE687C01280BD1A97C49B19AF800004FF47A7212FB01F2C9
:201680004FF4006123F0B8FD384680F4006000F009BC23F059FC4FF6FE7B834500F05B811D
:2016A0009AF832008008C0F0568100263446304621F06AFD071C19D03879012816D00228D3
:2016C00014D0F879411CF9719AF88B1081420DDABC727C72388820F0C9FE388801A921F0E9
:2016E000E2FE01A81DF012F81FF0C8F9761C332EDDDBA8F11C0614275D46119436F81C0F38
:2017000085420CD0307B9AF88B40411C8442317305DA1198B0747074308820F0A7FE7F1EBD
:20172000ECD14C46032104F13C0010F8047F0FB17F1E0770491EF8D1B04C332605F1010921
:2017400034F8240F81451FD001208DF804006788ADF8107001A81DF0E5FBA8B1A8F11C050E
:20176000142735F81C0F2188814208D0BDF80610814204D002A8A91C22F000FE10B1284682
:2017800022F08DFE7F1EECD1761ED9D1119D2C46284621F0F9FC48B1077937F0040705D1FF
:2017A000807A22F040F908B1641CE4B26D1C332DEEDB22F065F8119E5FEA00080ED035469B
:2017C000284621F0E7FA28B1807C22F02CF908B1761CF6B26D1CEDB2A845F1DCA019C7B296
:2017E000002F4BD0B80017F031FD1090002808BF119F45D0BA00FF2119F0B6FB119E3546A0
:20180000B44218DD284621F0BFFC031C10D0187930F004000CD1987A22F005F9011C07D0FC
:20182000009718885A7A109B18F0C4FB761CF6B26D1C332DE4DBB8F1000F21D0119C20468D
:2018400021F0A8FA061C0AD0B07C22F0ECF8011C05D00097109B3088727C18F0ABFB641CAF
:20186000E4B2A045EBDC0BE07400012074040120B60901200802012020C6002011981090B3
:201880009AF83000002808BF4FF0620805D022F0C9FEC0F154005FFA80F80320B8F1600F2F
:2018A00098FBF0FAA8BF4FF01F0ADDF84090ABF1020BB8F1000F0EBF119D2025DDF844807D
:2018C000BA45A6BF3C1C45F040055446032014FB00F0801C8DF8050001A822F0F7F84E46B2
:2018E000031C26D01869082104F01F02017045EA02014170801CA4B12246C01E361F16F826
:20190000041F00F8031F318809124170B17801F0070CF178521E01F0070141EA0C118170CD
:20192000EDD1A3F802B001209876184608F00CFB00E00120E90906D2641EE4B20CB109EB7C
:2019400084093F1BFFB205F040052843B1D0109808B11EF053FF0F9880F48070A2E2104326
:2019600008D1B3480179012902D10021C17001711EF022FE1DF0F2FD384680F0800091E24D
:20198000B44C1E2600214FF006084FF00409A778002F43D07F1EFBB26079A37022F0B6FCEE
:2019A000071C3AD06BB9787B022808BF87F80D8033D087F80D803868407BF0211EF0E4FA7F
:2019C0002BE0A3791BB9787B032812D025E023791BB3E078401EC3B2E370F3B99AF82500BC
:2019E000E0702079401EC3B22371787B032814D133B9204639461EF081FF0EE08CD10020CA
:201A000087F80D9023F07FFB00F00F00401C38819AF8000020211CF06FFB0121761E04F115
:201A20000804B4D19AF80000012910D040211CF0CDF895F82A00012813D1002085F82A00BC
:201A400095F82B0016F03CF81FF018F809E040211EF0B4FE28B99AF800004021642223F0FE
:201A6000CBFB0F9880F040001CE2084610211EF0A5FE30B99AF8000010214FF47A7223F02D
:201A8000BBFBBB48DFF8EC82417808F2AC54491ECFB217BB012141700020052122F0C6F9F1
:201AA000071C1BD006253846052122F0BFF90646388978B1401E80B2388158B97889C00826
:201AC00002D3387B20F0BAFC7D733868407BF0211EF05AFA371CE6D100E0477064274FF689
:201AE000FE7600252079A0B1FF2812D0401E2071C0B270B96079032805D160882188022241
:201B00001BF0B4FD6079012803D0268066806571A5717F1E04F10804E4D108F15A040827E3
:201B2000207A401E2072C0B230B9C048214620F0D5FD90B9668025707F1E04F10A04EFD14B
:201B4000BB4AC82112F8080F08B1401E1070491EF8D10F9880F01000A4E11DF0ABFFE4E781
:201B60004C460F992778890864D20F992289890A40D20F99090906D301200F9F8AF80600E3
:201B800087F008008EE10F99C90A26D20F98400C38BF0020C0F08681C44C332501262079FB
:201BA00080B105280EDA607900090BD28DF804606088ADF8100001A81DF0B4F910B102A8CC
:201BC0001CF0A4FD6D1E04F12404E8D100200F9F8AF8040087F4803064E1022801D119F02E
:201BE000A1FBBAF84800012118F038FC0F9880F4806057E1BAF8485004F108015020AAF864
:201C000048201EF07BFF2689142744466089854205D0864204D0204622F041FC00E06681C3
:201C20007F1E04F11C04F1D10F9880F4007039E1D4E5002087B9BAF83E10012020F0D8F871
:201C40006878022810D19AF8000001211BF0BEFF0AE0C046C8C3002001A823F09CFA23F01D
:201C600061F901A91CF090F90F9880F0020019E1084620211EF0A2FD28B9DAF81000002891
:201C800008BF012616D023F06FFC044623F038F94FF47A716043B0FBF1F1DAF810000028FC
:201CA00008BF002004D088428CBF4FF0FF30081A46086AD00020042122F0B8F8071C64D0DE
:201CC000FF254FF0FF3B06244FF001093846042122F0ACF810903889864204D8801B83B2C6
:201CE0003B8113B14EE000203881BB7B012B02D17889C00840D3002B36D08DF804508DF8BD
:201D000005508DF806B03968086AC97F02AA10F04FFC4FF00008012808BFC8465FEA08004B
:201D20001DD0788A40F08000ADF83600B87B8DF838007889000908D3BDF8360040F4807045
:201D4000ADF83600387B8DF83A007B6913B1187BADF8180001A9002202A804F003FA7C73E8
:201D6000387B18F00BFF0DE087F80D900AE0C0462C0F0120A4C200207C733868407BB721A1
:201D80001EF002F9109F002FA0D10BF037FC9AF800300020012122F049F818B118462021FE
:201DA0001CF0AAF90020042122F040F8B3B278B152460789147822F039F8F8B9BB42AEBF45
:201DC0000027FF1ABFB2204627B920211CF094F900200DE07A00202123F011FA23F0C4FB7A
:201DE000044623F08DF84FF47A716043B0FBF1F0CAF810000F9880F0200053E00289BA42E1
:201E0000D8BF171CD7E723F036FA294C0546201D00680746C0B157F80C1C9AF8000049B9C9
:201E20004FF400511BF0BEFB08E0C046ED00020068CB00204FF400511CF05EF9204639463E
:201E40000022001D20F0A6F9284623F089FB2FB13846FEF78BFE384621F0A8FE0F9880F463
:201E600000501FE008461CF019F9071C17D0114920310A78FF2A0FD03C780B46002094426D
:201E800007D0401CC0B2C200D1189A5CFF2AF6D102E0496838468847384621F087FE0F9871
:201EA00080F4004013B0BDE8F08FC046B0D10020A40A0120C46502002DE9F04FC14DC24C75
:201EC000DFF808A3C44E88465FEA1840ADF11C0D80F09E826F78DFF8F892DFF8F8B25FEA96
:201EE000580080F01B82384630F0010040F091805FEA980058D25FEA981044D25FEAD8303A
:201F0000C0F087800120022121F02AF9C5B20DB3E80017F09BF9071C1DD0C04C82464FF0B5
:201F2000010933262079012818BF02280DD18DF804906088ADF8100001A81CF0F3FF20B16F
:201F400002A9504623F07FF98246761E04F12404E8D100E0002797B175B10F204FF6FC7628
:201F60008DF80C001F24ADF8046001A92A463B46C248009414F0BEFD38461EF03FFC88F449
:201F8000804000F00DBC207A38B92078062802D1072022F083FB21F099FEE07910211CF0AF
:201FA000ABF888F02000FBE3207AE8B92178E079082917D122F022F8092022F06FFBBF48EA
:201FC0000078052806D0072809D10720012105F0EDFA04E0012021F0C7F91BF015F821F059
:201FE00075FE13E010210FE022F0A2FFEF2803DB002021F0B9F909E022F09AFF1030C0B28A
:2020000022F0A8FFE07901211CF076F888F00200C6E3CE48CE4B0668B3F900005FEA5811F4
:2020200080F04E815FEA181028BF88F0080080F0B7835FEA582080F0D1805FEAD80080F0CC
:20204000B78037F001001CD15FEAD81019D32069A0B115F0FDFA2069076820691EF0CEFBE9
:2020600027615FB1FA8802E0F888801AF8803F68002FF9D1E079402123F0C1F888F04000F4
:202080008EE35FEA182064D25FEA98205CD2C84C5FEA18302CD25FEAD82027D3142017F0D0
:2020A000D5F8071C1FD0002524342E46207A012812D1009704202946324614231FF04AFA7E
:2020C00050B9206838606068294614223B46786004201FF0C5FF26726D1C0C34C82DE5DB04
:2020E00038461EF08BFB88F4806059E3002057E3182017F0ABF8071C23D000252E46207AB1
:20210000012812D1009706202946324618231FF021FA50B9206838616068294618223B468E
:20212000786106201FF09CFF26726D1C0C34032DE5DB38463146182218F016FF38461EF0CD
:202140005DFB88F400602BE318F046F988F4007026E31AF059FF207805281DD1E07904216E
:202160001BF034FDE07904211BF01CFA062022F095FA687830F0010007D15046007800F0E6
:202180000700022801D022F0C3FD1EF077FC18F023F91DF007F801E01EF070FC012020F02E
:2021A0000DFA0320012105F001FA88F08000F7E2FF2003211FF05AFC22F0D2FEC24901205C
:2021C0000860FEE77404012054030120B818012074000120CC040120B41801204A4692F823
:2021E0004A00082818BF042845D124322120742122F058FFBF4E6878716832880024B1461C
:20220000A2423DDC30F001002DD1044CFF25002694F82100802822D102E0C046B0D1002037
:202220006788ADF8067023798DF80830A1798DF80A1062798DF809202088ADF80400E77948
:2022400084F82150237D8DF80B70A7698DF80C3031461022032001AB04971FF001FF761C6C
:202260002434332ED4DBBB48006800B18047002002211FF0FBFB88F4807091E2B803012010
:20228000A30003EBC403CF5C37F07F0C13D017F07F07CF540B4405D101A8FF210C2218F052
:2022A00063FE01AB012021460C221FF0D9FE6878D9F804103288641CA4B2A1E7FF05012073
:2022C000B0F1FF3F37465C4602D1B8480078A0805FB17968087818B14868007819F012FE1A
:2022E0003F68002FF5D1B4F90400B0F1FF3F02D0C0B219F007FE22F027FEAD49088022F099
:2023000019F9687C012806D14C4620784FF40061642222F074FF88F0100041E2012022F010
:20232000BDF93046677801793546122201F0070A11F0070F16D1022F0CD0012F12D1082021
:2023400022F0ACF922F0E4FC0BE0C046800A0120D0040120082022F0A1F90020014611F007
:2023600093FB0246BAF1010F18BFBAF1020F45D107B3032F1ED0012F40D1BAF1010F3DD13F
:202380000A2022F08BF94C4620784FF480611BF01DFC502005A920F0D3FFBDF81400A4F8A6
:2023A0004800BDF81400002118F058F82DE0C046ECE5002022F06CFC002818BF032F16D1FD
:2023C000022022F06BF9B749E06809781BF09EFB0246A879000911D28AB959464878401CA5
:2023E000C0B20428487004BFBB48E06006E022F08AFE0146012011F047FB02462AB1E079DA
:2024000001214FF47A7222F0FAFE88F00100C7E1DFF8CCB2BBE10646B04A33782778116846
:2024200068781A46521E00F08D81521E00F09480183A00F0A681B93A00F09F812A3A00F0BA
:2024400083801B1F77D05B1E6ED05B1E54D05B1E3CD05B1E2CD05B1E40F0968120BB707F20
:20246000DBF8109000BBB9F1000F06F1050A1BD0BAF1000F18D04F46B81C5146082221F0A7
:2024800085FB18B9FF68002FF6D104E038461CF01FFDDBF81090B9F1000F05D19BF800006F
:2024A0004FF400611BF092FB304621F02FFC6BE1012818BF022840F06781307915F000FBF7
:2024C0001EF0DCFA60E1C0467C052043002840F05B813079012800F05781022806D00428F3
:2024E00040F05281304617F047FB4DE1304612F0A1F949E19C0A0120012840F045817088D2
:20250000002840F04181301D01A91FF0BFFE012840F03A8122F018FDADF80C00361D029607
:2025200001A815F047FD2FE1002840F02D81304610F054FF28E1012818BF022840F02481C2
:20254000304608F0A3FB1FE1002900F01D813046884719E1F0080120012818BF022840F006
:2025600013815846C0795E46072818BF082805D1237A1BB9012105F019F82778032F00F0E6
:2025800093800A2F16D0042F1AD00D2F18D00E2F16D00C2F14D0002F00F0F6801CF002FEE5
:2025A000E07910211BF0A8FDEEE0C046A3190120700301208048007800F00700012873D0F9
:2025C000277A6078002F35D10020E0720746F7701DF0E2FEF8B120780D281CD00E281AD0B8
:2025E000062022F05BF870480078000904D34FF4004001210CF0BEFD687830F0010007D10B
:202600006E48007900F00700022801D022F080FB1CF0C8FDB8E06878022803D1082001217B
:202620000CF0A8FD052022F039F842F2107021F03DFBA9E0E17A01280BD003281ED16878B2
:2026400002281BD1594900260E7001270320677113E0491CC8B20428E07204DB54480078B8
:20266000012809D00AE0534800884FF6FF7181421CBF0426A672E8D10020607020F046F8BF
:202680001FF0B2FA48480078000902D3287D01287AD16078032877D1082001210CF06AFD88
:2026A00072E0C04629060120207A002848D1E07910211BF021FD1DF06FFE98B9687802280F
:2026C00003D1082001210CF055FD052021F0E6FF01201EF073FA57E000F8FF07B8060120C3
:2026E000F80501206F78207837F001070AD10A2808D13149097801F00701022902D02B4AC2
:202700000821117003280BD11CF04CFDF079022806D101201FF052FF0220012104F046FF4B
:20272000062021F0BBFF687830F001002CD12248007800F00700022826D022F0E9FA23E0B9
:202740000020C6E7022F1FD1012818BF02281BD122F066FC28B112F085FDA8B16878022841
:2027600008D022F093FC00280CBF002001201EF03DFE09E018F0D6FD06E0304605F0BCF89A
:2027800002E0304606F0FEFA069821F00FFAE0791BF084FC002806907FF43DAE88F400407F
:2027A00007B0BDE8F08FC046BA180120BE00012070060120BC000120B8180120B418012014
:2027C0002DE9F04F064693460020ADF13C0DABF80000B06A099303460078884622F002FA82
:2027E00048B1708904461DF0A9FF022804BFABF80040B36A01D0002009901878C84DDFF8F5
:202800002493401E0A2800F20B84DFE810F02F03B3020C04A0028D0151010904BE0088005D
:2028200066000B00BD4C207D012840F0F9835B1CB06913F8015B1F7822F0D5FC002800F023
:20284000F7830379002B00F0F383032B80F2F0830E2D1CDCDFB9D04907752DB901EB850126
:202860000A6BC261096B0AE001EB85010B6B9A01A2EB8302C2610A6B9101A1EB82018161B2
:20288000012180F820101EF0F9F8002500E001250320B689E4788DF8190006A821F016F91A
:2028A000071C00F0C58338690C2100F8011B00F8015B04700124BC7721F03CFE786204A9E9
:2028C000304620F0F0FD10B17C7704A838627E80BC76384607F038FBAAE35C1C207820F006
:2028E0001F0700F01F00012840F09A83641C04A8214622F0A8FC284604A95D3021F03EFDF0
:20290000002800F08D83002F40F08A830834A2786178207801EB02211FF01CF888E3688FC8
:202920007189884240F07C835C1C14F8016B04A8214622F088FC284604A95D3021F01EFD37
:2029400006F01F0726F01F06002800F07183002E40F06E83780016F079FC011C00F06883DA
:2029600067B184460834384663782278401E04F1020402EB03222CF8022BF5D1009110F033
:2029800024FE08461DF03AFF52E35C789A1C34F07F0704F01F0E40F04B83377F03201EFB07
:2029A00000F0801CC1B2B94240F04283002714F01F0F04BF4FF6FE7C614618D0D9789B785A
:2029C00070464D4603EB012C5378117812F802EF01EB03213EF0770340F02A832B888B422F
:2029E00008BF0EF00707521C401EEDD1BFB960464FF6FE72824212D004F06002602A0ED043
:202A00004D462A88A30907D2E30902D2904203DD0EE3904203DD0BE39142C0F20983B0899F
:202A200022F0B5FB002836D1B0894FF6FF7120F09BF9041C14D11FF0F9FA041C00F0F88282
:202A400000211C2218F090FAB0894D460E35208028886081AA23A3740622227401216174AC
:202A6000207C0C2805DB0620072F2074BCBF7F1CFFB2677400202073A01C21F046FA00282C
:202A800040F0D682307A002800F0D282B169A01C22F0D9FBCCE20021C171017A0C2905DB4B
:202AA0000621072F0172BCBF7F1CFFB24772BFE2484671890088884240F0B282307F02280E
:202AC00040F0AE82AA4CA01D00884FF6FE71814240F0AE82162020F073FF071C00F0A8828F
:202AE00001213970B07900280CBF081C02207870B06A4078B872000902D2B0891EF00CFD98
:202B0000B169B81C22F09FFB0020F874287839461CF0BCFDB089E0808AE2C0467404012007
:202B200074000120AE00012070891DF007FE002840F076825F78B94987B10C2F03F1020391
:202B400080F276828C463D465A7818786D1E03F1020300EB02202CF8020BF5D14846758940
:202B60000488DFF8D892AC4200F0B280B37C002B00F05E823B1C0A974FF0000811D0A74A3D
:202B800038464146921E32F8023F9C4206D0401E01F10101F7D104E0946902000A914FF08A
:202BA00001082846002118F0A3FF00280B907ED0407901287BD10B98807910F0180F76D08B
:202BC0000B984188384621F0AFFB10B9B8F1010F6DD109F55F794FF6FE704FF000080C971D
:202BE000B6F80CB0CDF820904FF0010A0D90C14611E0B8F1010F08BF4FF0010908D022F064
:202C000082FAC0B290FBF8F101FB08F1A0EB01094FF00008C246089D14271C3D35F81C4FA8
:202C20004FF6FE70A04213D0A34511D00C98214621F07AFB60B96B7C53B1072B08DA08F1B1
:202C40000100BAF1000F5FFA80F801D1C14521DD7F1EE3D1B34D332735F8244F0D98A04240
:202C60001AD0A34518D00C98214621F05DFB98B96B7A8BB1072B0FDA287901280CD00228C9
:202C80000AD008F10100BAF1000F5FFA80F803D1C14501DC0D9407E07F1EDDD1B8F1000F93
:202CA00002D0B9F1000FA4D00D980B994880B37C5A4C581EB074F77C00970A9D01950294B8
:202CC00001220392B189B269708914F0B7FDAFE1B4890C2F80F2AC818846ADF81040BD48C7
:202CE0008DF812700168CDF8148009B104A8884720461BF05DFAC82803D14FF6FE701BF08C
:202D000057FAC82880F2948109EBC00000F6CC05686808B11DF072FD2FB1780016F096FA7D
:202D2000686010B984E1002068606C80C2486F70007828706878002800F07A8168680028E5
:202D400000F076817A00414621F024FC70E1307F022840F06581099828B94D46718928885B
:202D6000884240F065810998314609F067FE5EE108020120B5F8481040461DF0D9FBA84639
:202D8000074608202FB17D781DB90621397007257D70B16A0A79CC788B794D7891F802A054
:202DA000CF7904EB02244A7902EB03296A0928BF1020AA0924BF0830C0B235F0700340F048
:202DC0003781327F904240F0338105F07005680938BF002006D306A8083122F034FA25F0CD
:202DE00010050820A90907D3B16A091804A8083122F029FA25F02005204651461FF03EFE32
:202E000008280DDA8D4B410001EBC001C9188879B84240F30D818F71002002E0C8C200208C
:202E20000420B8F83A10A14219D048B9B189484601222B460EF0FEF828B1F9E0A4C200201F
:202E4000042840F0F58006A804AE009049463A46534601962046029511F0B6FAE8E0B189C2
:202E6000484601222B460EF0E5F8E1E0B5F8481040461DF05DFB4FF00609041C03D060788B
:202E8000002800F0CD80B06A817847780891C378017900F1050A03EB0120099040461CF073
:202EA00041FC9AF8001009185FFA81FAB80928BF4FF00E0937F0780040F0B28007F0180030
:202EC000182800F0AD80307F814540F0A9804FF00009CDF800900899B0895246434618F027
:202EE0007BFE032800F09C80002807F078074DD117F0180F18D195F8310028B1B0894146F8
:202F000001223B460EF096F809984FF6FE714A463B460EF08FF8002838D14FF6FF70ABF80E
:202F2000000039E08CD1002047F00107780928BF47F00207B089394618F0DAFD90B1817942
:202F400011F0180F0ED0417901290BD154B14088B5F848101DF0ECFA20B1437813B16078BE
:202F600098425DDCB089414601223B460EF062F860B94FF6FF70347AABF80000002C0CBF6D
:202F80004946B169B089524621F034F9BBF800104FF6FF70884243D1012000900899B08999
:202FA0005246434618F018FE099839461CF0F0FE698F81422ED1099822F0E9F860B10079E0
:202FC000012818BF022807D1099804A920F06BFA08E0C0469403012021F0ACFA014604A8DC
:202FE00022F031F9307A012803D1B16906A822F02AF906A8009004AF0197B06A407840F066
:20300000300002900999089BB0894A4611F0DCF948460CE0B06A80F805A020F0FFFA06E06A
:203020004FF00009F4E7099930460FF063FF099009980FB0BDE8F08F8E040120FEC2002044
:203040002DE9F04FAD4C04F12C000768ADF1540D17B1002087F84500DFF89C82002517F1C5
:2030600048030BD0BF6DA34E73612FB940460068D0F84C05804773695868706022F0FBF812
:203080001390082013F06EFB19F070F9464610B181A022F061FA1BF0E9FB684621F018FDE9
:2030A0000427284669468DF8007021F071FE206421F06EFC09A821F0C3FD284609A98DF82D
:2030C000247021F0C5FDA06321F06CFC0DA821F0C7FD28460DA98DF8347021F0C9FDA16B53
:2030E000E06319B974A022F037FAE06B10B977A022F032FA206C10B979A022F02DFA3068BC
:20310000D0F8E00380473068D0F8180280473068D0F8F0028047404600682F460726A03083
:2031200001687B5823B11846804740460068A030761E07F10407F3D1D0F8B8028047EB20ED
:2031400021F008FFE06A2F4670B105A8FF21082217F00AFFE06A05A9082220F017FD04F135
:203160002C06012818BF3768654A0CCA05A8391C80E80C0021D1082016F068F85FEA0008B2
:2031800056D0A8F10206032721F0BDFF06F8020F7F1E4FEA20207070F6D13020F82706F838
:2031A000020F4146082204F1480088F8077021F0F1F940461DF022FB04E004F14800082223
:2031C00021F0E8F90120082105AA21F065FF04F14806002818BF092826D120F0D6F98008BE
:2031E0001DD205A8FF21082217F0BEFE07AFFF210822384617F0B8FE0120294608223B46B0
:2032000021F0ACFC80B9384605A9082220F0BEFC28B930463946082221F0BCF904E00120D1
:203220000821324621F03EFFE22031461DF066FC20F0ABF9400834BF2F1C0127314E552061
:20324000012106F1320221F027FF18B917B128461FF0B4F92C4EE22006F1400120F070F8FB
:2032600038461AF003FE05A82946102217F07CFE707830F001004ED1DFF8908005A9102207
:20328000404620F083FC002842D105A84146102221F080F93FE0C04652616E646F6D5F7396
:2032A0006565644175746F6D617469632829206661696C656400C04641455343434D206F22
:2032C00070656E206661696C656400C0414553454342206F70656E206661696C656400C0AC
:2032E00054524E47206F70656E206661696C656400C046C06405012014010020DCD80020E3
:20330000FC6B0200F805012074040120A469020005A81FF023F96220102105AA21F0BCFE79
:2033200028B927B16220102105AA21F0BBFE05A82946102217F018FE384611F029FF384618
:203340001DF0FAFF384612F06BFA7078A8B905A81FF004F940F20110102105AA21F09CFEB2
:2033600030B92FB140F20110102105AA21F09AFE05A82946102217F0F7FD1FB1284601210F
:203380001EF074FB282015F061FF0028606400F04081206B616B221D19F0CEFDCA49087071
:2033A00010211AF0A9FE616C201D0860206B616B04F1080219F0C0FDC2490968D1F84C13F9
:2033C0008847616C04F108004860206B616B04F10C0219F0B1FD0DF003F8616C04F10C00D5
:2033E0008860206B616B04F110094A4619F0A4FDB64F7870B18EBD70381D0180303006F1C0
:203400005001119007F1340021F01DFFDFF8C08296F8230006F148032946FB604FF4B47222
:20342000387008F5057017F09FFD04F1340B04F1300A626CDBF80010DAF800003C2308F58D
:20344000057C0C324FF6FE7E5B1E2CF806EBF9D1C2F8009004F1140219F06EFD9F4B9D49FB
:203460007B629D4A08709E4B606CBA6004F11802DBF80010BB6204F114030361DAF80000F0
:20348000129219F059FDDFF85C9289F80700022289F824204FF6FE70A9F81C0021F04AF830
:2034A000914811990560AF4821F0CDFE4046FF210E22801C17F058FD8C488E4B83608E4A1B
:2034C000C2608B49416005708C4B03618C4A42618E4939618B4B83618B4AC2618C4B7B6156
:2034E0008C4ABA618E488C4B8C4AFB618E4910618C4FD16009F1300097601CF091FF1CF0DF
:2035000029FF984809272C307F1E40F8045BFBD14F46F87948F201011BF06CFEF8794FF4AC
:2035200000411BF067FEF87948F221011BF062FEF87948F222011BF05DFEF87920211BF0B1
:2035400059FEF87921211BF055FEF87922211BF051FE606C12994161DAF80000DBF8001027
:2035600004F11C0219F0E8FC704F48F2150138701BF040FE387838211BF03CFE6D4B6E4A8D
:20358000FB606B483A61616C786102234FF6FE72DAF8000087F8283004F11C038B61DBF886
:2035A00000103A8404F1200219F0C6FC634904F12003634A0870634F606CDBF80010C361ED
:2035C000DAF80000176004F124073A4619F0B4FC65497378087023B991F833300BB1022191
:2035E000F17148F202011BF005FE606CDBF800100762DAF8000004F1280219F09DFC2070E3
:203600005149087021F088FC4870616C04F1280048621AF099FF12F09BF8139821F0A0FF25
:203620000EF0A4FD20F0C0F826480068D0F8D40090F8430020F0CAF822480068D0F85824FE
:2036400029460120904721F057FA40481D4F05707868C068007830B938460068D0F85824A5
:2036600028460146904716F097FB3A4F3D703848058145818581C581058245828582C5823C
:2036800005832B464583344C858307210360344A4360324825701FF003FE16F0CFFC1DF038
:2036A00087FE1CF06FF97078022807D13078012804D14FF4004001210BF05CFD15B0BDE81E
:2036C000F08FC04614010020A319012070060120A4C20020380A012055170100657401008C
:2036E000814C020054030120D8040120D4080120CDC20000612C0200ADCA0100DB1A0200FC
:20370000B131020035010200D9310200A55D010099390100D535020095A10000B40901208B
:20372000B5370100F1A60100D5290100AC060120251702002D2B0200F1320200840A0120C6
:20374000900A0120BD090200740A0120AC19012060170120A5190120A4190120EC00002000
:20376000F352020068030120F80501202DE9F04F0446B54DB5480021ADF14C0D001D2E68EF
:203780000768A0780C910146102910DC102900F0AC80002900F0AE82491E012940F2FD81BA
:2037A000891E00F05581491E00F0248144E3113966D0491E1ED0491E03D0491E00F042834E
:2037C0003AE3207967798DF81000E0788DF8117020F02CFD002808BF022005D00C3004A958
:2037E000022220F0D7FE0C988DF82000132108AB01223BE3204634460421C61C304620F0E2
:2038000093FB0C9F0121002C35D0A268904203D02468002CF9D12EE06CB3361D304621F0E4
:20382000BDFBB778804657B92868844218BF251C2068286020461CF0E1FF0C991BE0B81C87
:2038400015F004FD051C04BF10210C9F13D00C9828706F7061683A46A81C414420F09AFE6A
:20386000BE1C642012212B46F2B21DF075FC28461CF0C4FFFDE23170334612217770F4E2FE
:2038800020460126C41C8DF82160204621F086FB6F68A3780FB3B3B9386800906868183055
:2038A0000190787E0290B87E03903969BA8AFB8A381D08F017F88DF8210068681CF09EFF40
:2038C0000C9868600CE03968E41C1A4609180846214620F05FFE0C9800E010208DF82100F2
:2038E000112132460DF12103C0E22546BD4C89462D1DA07815F8011C002937D0491E10D014
:20390000491E02D0481E67D064E0287821F050FA002869D041680978E170007820710C9809
:2039200054E02D7800285FD1E1200DF123011FF007FD9DF8230085424AD00126A6703046D4
:2039400021F002F90C9809A98DF8240052201DF0D5F828461BF0D6FB002839D06570207828
:203960003146642221F04BFCBA202FE000283BD1E1200DF125011FF0E3FC9B4E06F13C079F
:203980009DF825103878884222D0DDF8308001255220A5700DF126018DF826801DF0AEF8BC
:2039A00096F83C000A2805DD1B2803DAE12039461DF0A4F88DF8265052200DF126011DF041
:2039C0009DF8404621F0C0F84046A07002460CE00C9A0AE00220F9E7284621F0DFFA0C9AA9
:2039E000A97821F0A4FB00B901228DF822200DF122031FE210218DF82710E1788046DFB193
:203A00007A681278384691420ED03F683FB17A681278914205D038463F68002FF7D1022022
:203A20000BE03968016002E0B1493868486038461CF0E4FE0C9800E001208DF827000DF1BA
:203A40002703CDF83480A5E0BC0A01207C0A012001218DF828100C990D900C2204A817F0AE
:203A600083FA25460224ED1C8DF81840284621F095FAAF1CADF8100017F8010B8DF819000B
:203A800017F8010B21F094F98146384621F086FABD1C0E9015F8010B15F801AB15F8018BB5
:203AA0002E788DF82900700015F0D0FB0F9000286CD06D1C4EB183463746284621F06EFABA
:203AC000AD1C7F1E2BF8020BF7D1B9F1000F57D0CDF8409015F8013BDDF83C903746AB46BB
:203AE0000C2FBDF8105011934ADA28461AF060FBC82815D14FF6FE701AF05AFBC8280FD123
:203B0000C34890F8CC38012100F6D40C0C981CF8082B9342C4BF131C081C491CC829F6DB59
:203B2000C74C4FF6FE7604EBC0046068668018B11CF064FE0C9860606FB17E00304615F0A4
:203B400085FB6060002808BF102419D060684946324620F01FFDC9486580007867700DF1DB
:203B6000290620701099CDF800B00E9A0196119BCDF808A004A8CDF80C8007F0B3FE044621
:203B80000F988DF828401CF039FE02E010208DF828000AAB0D9881464CE194F801B00121E2
:203BA0000228814604F103048DF82B101ED114F8010B03288DF8180005D0204621F0EEF956
:203BC000ADF8100004E004A82146082220F0E2FC083414F8010B8DF81900204621F0DEF9E1
:203BE000A41C11E0840A01207400012002208DF81800204621F0D2F9A41CADF8100014F84E
:203C0000010B8DF819000C98ADF81A0014F8010B21F0CEF88046204621F0C0F9A41C0D9055
:203C2000B9F1020F14F8010B14F801AB14F8017B8DF82A001CBF14F8016B06F10A0006D197
:203C4000204621F0ABF9A41C064606F11400B8F1000F80B240D0FA2830DD6C68002C3BD1FD
:203C600006F11C0015F0F2FA04466C6024B30C9804F11C0504A98DF82B000C222560201D4C
:203C800020F088FCC4F810800D98A082E6829DF82A50257684F819A0A7760F23E376784CCA
:203CA000207808214FF47A7221F0A9FAB8B1207808211AF021FA12E010200EE000940DF16F
:203CC0002A000D9A019041463346CDF808A004A8039707F007FE00E002208DF82B002BF006
:203CE0001F0BBBF1200F40F0C4800DF12B03A1E07C0A01204FF0100A89468DF82CA05046E8
:203D000015F0A4FA071C00F094805D48E41C7860207821F04DF800287CD120780C9E38700F
:203D2000B04687F80C80142015F090FA0028B8606BD014F8011B017062782178A61C01EB8A
:203D40000221418031787278B41C01EB02218180817914F8022B01F0F00102F00F020A43A7
:203D60008271B96814F8010BC871BD68EB79464673B1580015F06AFAA860B8688568002DA2
:203D800008BF564604D03046BA68D179814231DC2078B9680873BD682B7B73B1580015F0BA
:203DA00055FA2861BD682B69002B08BF564606D0641C4046297B814210DC102E2BD1A8686B
:203DC00010B11CF01BFDBD68287B18B128691CF015FDBD6828461CF011FD1CE062782178A2
:203DE0002B6901EB022123F81010BD68A41C421CD0B2DFE7637821789268451CA41C01EBDF
:203E0000032122F81010E8B2BEE7564603E0C046A4C20020B8268DF82C603EB938461CF08A
:203E2000FFFA8DF82C009DF82C0010B138461CF0E5FC0BAB4946DBE402200C9019E0C0462A
:203E400070CB00200C988DF810008DF81100E07804A91FF0D7FD9DF8117014219DF8100060
:203E60008DF81D7007AB8DF81C00022264201DF073F90C9813B0BDE8F08FC0468E04012078
:203E8000A31901202DE9F04FADF13C0DC54C0B90C3480C91002147780E919FB137F00106B8
:203EA00008D0022F12D1207900F0F80141F00201204605E02046017901F0F80141F0010118
:203EC000017103E0207900F0F8002071261D3078402537F00102657100F00700307005D1BE
:203EE0008E20A0716FB940F0010009E0022F08D1AB4980200978A071012902D140F008005C
:203F0000A0710E99F170317150256572A020B071F171B072F172A089099140F43050A0813A
:203F20002174BAB1022F1CD1012018F061FE28B9206820F00F0040F0020004E0206820F0A5
:203F40000F0040F001006FF30F1048F220210143216006E021684CF210106FF30F010843D6
:203F60002060924B9049A0791F780A9381F8320067B90E9819F07AFF8B4890F83200000935
:203F800011D30E9808A98DF8200009E0084690F83200000907D301200DF121018DF8210086
:203FA00052201CF0ABFD1AF0CFFA1FF0EEFA800838BF0E9803D30E981EF000FB012000281E
:203FC000DFF808A30D9040F0D8800FF00FF95FEA000B40F0C380744ADDF83880212074214B
:203FE0002432174621F058F8002859D12120414674223B4620F0B2FD002851D16A48408FF2
:204000004FF6FE7181424BD0674890F84A004FF00108082806D0042804D00FF08BFFDDF8E1
:2040200038803DE0C14642200DF122018DF822901CF064FD07F12F0143201CF05FFD07F192
:204040002C0147201CF05AFD07F11C014A201CF055FD07F11A014B201CF050FD07F1240198
:2040600028461CF04BFD07F1160153201CF046FD07F12D0154201CF041FD07F11801E120B7
:204080001CF03CFD484890F83200000938BFDDF8389052200DF122018DF822901CF02EFDF3
:2040A0000E9D17E0DAF804100E9AA80000EBC5000C23401881460090294601201DF04AFAB9
:2040C00030B999F80000FF2804BF099889F800006D1CADB23248BAF800104078A942E1DCD6
:2040E00030F0010001D10EF085FF9448001D006800B180471DF0A4FAB8F1000F1BD020F014
:2041000023FF0A99888318B9307800F0F800307023484078022818BF012104D1224A0998A6
:20412000032182F84A000A98393741703946143021F089F801E04FF0090B7F4D0999184F76
:20414000A81C0180787818B91CF026F938464078BBF1000FA94605D10E9904E01048DFF8BE
:20416000D891407801210D910F490A9D91F83C20012707FA02F1E96085E00FF037F80FF083
:20418000D9FE094A21207421243220F08BFF02A8FF210C2216F0E8FE0E9D574610E0C0460D
:2041A00074040120B41801207400012054030120294601200C2202AB1DF052FF6D1CADB2BB
:2041C0003888A842F4DCB848407830F001000ED102A8FF21102216F0C7FE0E9D03202946A9
:2041E000102202AB1DF03CFF6D1C332DF6DB5348006800B180471EF01DFD099806220E99CB
:20420000ADF8100002A816F0AFFE142015F01EF85FEA00081BD0A34814300768A7B10327E1
:204220000225A8B202A90622404420F0B3F9AD1D7F1EF6D104A94046022220F0ABF94C2045
:204240001421424620F02EFF40461CF0D7FA182014F0FCFF071C10D00E9D1822294616F06D
:2042600083FE0620294618223B461DF0F9FE6D1C032DF6DB38461CF0C1FA16F0DBFF8A48E8
:20428000DFF8B49040780D99864D012966D1B44F2437E8B1012807D002280BD1307800F0DC
:2042A000F80040F0020004E0307800F0F80040F001003070A3481FF0C7FB002808BF099843
:2042C0000BD00A9A04210320917206E09C0A01203178022001F0F8013170DDF8288088F814
:2042E000010020F010FF0B996F4E00F07F000818643080B20E90F06B0221C8F80C00FF20E1
:204300001DF0B4FB96494FF6FE70431C48870E46F0870998A1F848301DF080FC62484078B9
:20432000012810D10C9801280AD0099902A8082216F01AFE02A804E0C8090120E8080120A7
:2043400009981CF0BBFB212074213A4620F0AAFE099802211DF08AFB53484078DDF834A09A
:2043600018B9A08940F00100A0816F6987B9122014F06CFF0646002E6E616ED04FF6FE70FE
:20438000B61F0327411C26F8060F7F1E7180FAD1BAF1000F61D1099906AB4C20022220F056
:2043A000DDFB002852D1BDF8180000284ED004284CDA182014F04AFF03274FF002084FF638
:2043C000FE7B0646099C6B691FFA88F14C2006221B1920F0C3FB78BB6869015B8B452BD04C
:2043E00056B300962018099A4188182306201DF0B1F830696A6900F2E93333611019418863
:2044000005F11802880000EBC10069691350081973694188880000EBC1008018696943601C
:20442000081941881822334606201DF019FE09993046182216F098FD7F1E04F1060408F113
:204440000608C0D116B130461CF0D8F9164B099971200822483320F081FB13484778381C70
:2044600006D120F067F820F01BFC0F48477817B120F00EFC18B10120E870099E2E713248D5
:20448000324EC9F80C00C9F810607FB137F0010003D11EF015FE2F480BE01EF011FE2E485C
:2044A00007E0C046D4E50020740401201EF008FE2A482749BAF1000F086019D0284890F8A4
:2044C0006500A8B92748407890B9DDF82480622102AA404617F0F4FB02A841461EF032FA17
:2044E000404613F0EDFA02A81022414616F03CFD0A98006950B10A9C1034076820681CF0B1
:204500007DF90A99384600280861F6D10A9A099F01200146107002F10904577285200932CF
:2045200020F0BAFD28B9852039460122234620F015FB0E981FF042FE1FF082F850460FB030
:20454000BDE8F08FA4060120D9E70000714D02007C080120A96B0100ED3E02000975010086
:2045600074000120740401202DE9F04FBE48C84CADF1340D06902569406801214FF0E0476B
:20458000C06809934FF000080170C24808921F4080F800804FF0020000EA020008BF002888
:2045A00040F0E682DFF8F092DFF8F0A21E4611464FF4803018EA060700EA010008BF00280A
:2045C00033D141464FF4003011EA060700EA020008BF00280ED137464FF48000394000EA78
:2045E000020008BF002800F0B78285F8048018F00FFEB1E285F80480EB201DF07BFC4A46D8
:20460000514682F800800878862801D11DF0F4FC20F031FEE1690A6882F804800968E16160
:2046200020F09EFF1FF09CFE96E285F804801DF0C9FC81262778A4F80C809949A770994D8C
:204640000860994B2E70FF221A702169069E087A801E81B230684A46D0F8000182F8008059
:20466000C0890B918842C0F26B82E1690831096804F1180001600426A6810B98657EA17E94
:2046800004F11902C01E80B2069EE37E0B9005EB01205178C1F301193168608101F1B80C82
:2046A000DCF80010237109780792002908BFB9F1020F00F04582B9F1020F00F3418219B1CB
:2046C00010F0070F00F03C82667800F00705AD1E022D08BF002E00F0338231B151460978AE
:2046E000862902D1002D40F02B82001300F00200022864DA35435AD1DCF81C0090F8830023
:20470000022851D0E1690C31097805A801700527A78120F0B0FD554606462878862840D1D1
:2047200006980068403001680F6837B9D0F80C05804706980068006C07689DF9140020F0F8
:20474000D4FD787706980068016C096881F81E80006C9DF914100068C177304620F000FF53
:204760002679678920F087FD51460A7807F01007862A15D1BA4D05F11E031A88521C1A8091
:2047800087220A7020F0ECFEE879B04206D11FB9404614F08BFF07E01B20FAE7E920F8E7FB
:2047A0000646304620F0DCFE1FF0DAFDCAE151460878862803D11DF01FFCA77866788FB1BE
:2047C00086B9012F00F0BC816089022F03D110F0070F40F0B581032F05D100F007010329A7
:2047E00001D0ADE16089010980F0AA81011301F00201022902DA810A80F0A281079949783E
:20480000C1F3810BBBF1010F4FEAA1110A9100F09781012900F09481B9F1020F14DA00F046
:204820000701012918BF03290ED1BBF1000F0BD10A9F002F00F0848106990968AC310968A2
:204840000F78002F00F07C81BC49B9F1020F0DD00A9E11F80B708A5DB918CFB25EB3C109D8
:2048600029D3BF1E12E0C046140100200A460A990BEB0207891809793A795218C109D7B2AD
:2048800014D20A995BEA010615D0BF1CFFB212E03C1701206C0A0120AD190120B019012004
:2048A0008C190120AB190120AD0501200A995BEA010608BF02270B9AC0F30021781A6171BE
:2048C0008242C0F23D81069E1046C01B4018316880B2D1F850122081743080B28847002813
:2048E0006678606100F02C814146742216F03CFB84F8038062891EB9C14902F020000870CD
:20490000BF4861790678C446002E30D000292ED102F00700032808D0012828D106980068B4
:20492000D0F8D40090F882600EB306984068406906781EB120F04AF8FE2815D00698006811
:20494000D0F84C02804750B906980068D0F84402804720B96289617994F803C007E004209E
:20496000E0706289617901E00420E07084466569268905F1740305F17400AB65079B686035
:2049800093F801A02E812089CAF301190029A5F85C001878AA8100F0780049EA00004CEA0E
:2049A000000028744FF0FF06AE730CBF2079404685F83AB085F849000A9885F83000A08967
:2049C000002FA0EB010086B2A68100F0B480E169E78068463A468919083113F023FCBF19E5
:2049E000B8B2A0812846017C4FEAAA0212F0030F02F003076D4601F0400B42D0B9F1020F90
:204A0000434601D1C9090BD29DF801209DF8001001EB0221A0F844100DF10205A0F8421047
:204A2000814EB0F84410B6F846208A4203D04FF6FF728A4223D1032F14D06A78297801EBFD
:204A4000022189B24186B6F84420AD1C01208A4214D04FF6FF728A4218BF181C0EE0C04604
:204A60004408012060692946323020F0ECFB60693B36314632301FF081FC08350346002BE8
:204A800056D00798407886111ED06169B9F1020F03D0087CC00903D309E05BEA070306D18A
:204AA0006A782878AD1C00EB0220A1F84200032E05D068782A7802EB00220A8504E06069F0
:204AC0002946283020F0BFFB06990968AC310A686089167886B1B9F1020F0DDA00F007029D
:204AE000012A18BF032A0BD162692FB94F4BB2F842201B8893421BD100F00702032A05D0F3
:204B0000012A18D1886A90F88200A0B1D1F89C116069884778B9079881786769407884F859
:204B20000380C1F3011100F078000843387402E018F06EFB06E00BF075F803E000700200D7
:204B40001FF000FC20F097FBE1690A6882F804800968E16120F004FD0899099E2020474615
:204B60000840374008BF002830D01FF0B3FB2DE02F4991F90000002803DD91F90000401ECB
:204B800008702C4991F90000002803DD91F90000401E0870114640461E464FF08077084077
:204BA000374008BF00280DD0234991F90000002803DD91F90000401E087020480121017059
:204BC0001FF0CCFD85F8048018F022FBDFF864C09CF90070B7B108994FF0E04702203740CF
:204BE00000EA010008BF002816D09CF90000002812DC06980068D0F84C0580470CE0C04672
:204C0000AD1901200E48069F80F800803868D0F8582441460846904706984068C06880F844
:204C200000800DB0BDE8F08F64050120AA0501206F0A01206E0A0120700A01206D0A012053
:204C40006A0A01202DE9F04F0446B54EA578F06A4FF0000BADF14C0D2946312911DC312955
:204C600000F0E280DFF8C882B24F142914D91C3900F06281491E00F01B81133900F0E980D6
:204C80007FE2323900F0BA80491E69D0491E012929D9891E17D074E2DFE811F06402A8022F
:204CA000A102500299027302730224024E010A010D02F8018F0273028902DE017302730298
:204CC000C901B801760240B1C06830B1E01C20F065F9F16AC968884700E003208DF838005A
:204CE00036210EAB61E201270028A8468DF839702ED0406A60B3204602A91EF0D7FE342DE5
:204D0000044618BF584602D120F048F9A41C2578E0B902A81FF05DFF641C01280DD1BDF869
:204D20000C00294622461EF0CFF8BDF80C00012803D1E22021461BF0E1FEF06A466A02ABF3
:204D400093E803002A462346B04702E0042000E003208DF8390041460DF139033D46A5E075
:204D6000002840D0C06900283DD0204602A91EF09DFE054602A81FF02CFF012818BF584616
:204D800003D1BDF80C001FF02BFE0446284620F005F9AD788046F82DA8BFF725A81C5FFAD0
:204DA00080F9484614F052FA071C1AD0A4B9F06ABE1C02ABC469009693E8030042462B4617
:204DC000A047041C08D1584638704A4633213B467D7061201CF0C0F938461BF00FFD1CB9AB
:204DE00010E2102400E0032408A85946022216F0BBF88DF82040332108ABFFE168B1806A8B
:204E000058B104A920461EF051FEF06A826A04AF97E803009047014600E0594602A81FF048
:204E2000ADFB32210422D8E160B1806950B1204602A91EF03BFEF06A826902AF97E80300CD
:204E4000904700E003208DF83A0031210DF13A03ABE101258DF83B5010B3006900B3204625
:204E600002A91EF023FE04211FF05EF85FEA000814D014F0EBF9F46A071C14D05946424625
:204E800016F072F8246902A803C842463B46A0478DF83B0038461BF0B1FC04E0052000E0D1
:204EA00003208DF83B0030210DF13B032A46A6E1E41C8DF83CB0204620F070F8A846092D18
:204EC000064609D0A01C20F069F80746201D20F065F8A41D054602E0A778E578241D242E8C
:204EE00003D12088352606AC069030461DF068FF7919884216DB27B93046294622461DF022
:204F0000E3FF30462946224620F0CCF830B9012E0BD1E22021461BF0F1FD04E00A2002E048
:204F2000DCD8002002208DF83C0041460FAB3CE1A3190120387002002646F61C304620F0D1
:204F40002DF8A9468046B8F1240F46D01FF048FD0446082D08BFB67803D0B01C20F01EF8F8
:204F6000064640461DF02CFF86422BDA5CBB801B85B2F82DA8BFF725A81C5FFA80FA50469C
:204F800014F064F9071C1BD0B81C59462A4615F0EBFFBB1C404631462A461FF0DFFD48B9A0
:204FA00058463870524649463B467D7061201CF0D3F800E00A2438461BF020FC1CB921E134
:204FC000102400E002240AA85946022215F0CCFF8DF8284049460AAB10E135205946042216
:204FE00007AB1FF0BBFD38B9BDF81C20584602210425ADF8262002E00120594602258DF833
:2050000024008DF8251009AB08214FE7E01C1FF0C5FF242802D01DF0D3FE00E058468DF8D1
:205020002C00001213210BAB8DF82D00E6E0E01C1FF0B4FF0546601D1FF0B0FF0146242DF4
:2050400003D0284620F091F800E058468DF83F0012210DF13F03A8E0E078211D70B1401E24
:205060000AD10878012805D020B1522010A91EF067F908E0522002E0022002E0E0201BF022
:205080003DFD8DF840000F2110AB8EE041460125087814F8031F8DF842500429A8BF022090
:2050A00003DA37F8111018F091FD8DF842000B210DF14203FAE6E41C20780428A8BF0220CA
:2050C0000ADA601C1FF06AFF267841460246087837F8161020F093F88DF843000A210DF12A
:2050E000430362E0E01C1FF059FF0646601D1FF055FFE779E51C0146242E19D0B94205F1C5
:20510000050510DD30465A461FF0C6FF8DF844009DF8440009280ED16FB1304639462A4677
:205120001FF0C0FF07E030462A461FF0B5FF00E058468DF84400072111AB36E00127E41CA8
:20514000E2208DF8457021461BF0D8FC30B93846082122461FF0A6FF8DF8450003210DF135
:205160004503FBE5E078294C30B1401E4AD11FF0F7FE01202060FEE71FF0F2FE01202060B6
:20518000FEE74FF0020B3DE094F90300204F8DF83D003868D0F830240DF13D01E020904731
:2051A00014210DF13E038DF83E00012227E08DF841B00E210DF14103F7E71FF0A4FF8DF892
:2051C00030000C210CAB00128DF8310016E0E22002A91EF0B5F80421082202AB0FE00D4954
:2051E00058460A220C4B0870022108E05920062701218DF834000DAB8DF835700222612003
:205200001BF0AAFF584613B0BDE8F08F7C05204314010020D4E50020EC6F0200D249D14AD0
:2052200003462DE9F04301F108009D78177800680024ADF1440D2A46402A2ADC402A00F089
:20524000EC81202A14DC202A00F01E820A2A45D9103A00F04082521E00F03382D21E00F08A
:205260002782521E00F01D82501E00F0128272E1B2F1210000F00282401E00F0F981401EE3
:2052800000F0EC81401E00F0E281401E00F0D78161E14A2A11DC4A2A00F09C81413A00F0CB
:2052A000B181D21E00F0AA81521E30D0D21E00F09981521E00F092814DE1B2F14B0000F0C8
:2052C0007681801E00F06F81163800F05D81401E00F04C817C3800F040813CE1121E00F080
:2052E000DD80521E7FD0521E00F03882521E00F02382521E00F01082521E00F00082521E2F
:2053000050D0D21E00F0EC81521E1DD023E1184606A9C01C1FF04EF8A8468DF81E0048B9EF
:205320009DF81800BDF818708DF81F0038128DF8200005E00DF11F00FF21022215F014FE93
:2053400003220DF11E032BE0DB1C5F78A8460D4638B968461FF034FC012069460DF018F834
:20536000A860EE6846B968461FF02AFC204669460DF00EF8E860A86837B1052F04D02C70F1
:2053800064211CF0C5FB06E0012129701BF0A8FEE8681BF0A5FE8DF836400DF13603012217
:2053A0004546EEE118468DF83740C61C30461FF0F5FDB778A846C0F304213FB9052903D0F2
:2053C0004FF6FF7181420BD1204607E0052903D04FF6FF71814203D14FF0FF30D5490860EB
:2053E0000DF13703DBE7202013F030FF061C00F0CC81FF21202215F0B7FD731C01202146B0
:2054000008221FF0ABFB751C071C18BF01272146042205AB84201FF0A1FB083560B99DF883
:20542000170028709DF8160068709DF81500A8709DF81400E87001E047F00207832021464C
:20544000022207AB1FF08AFB2D1D38B99DF81C002870BDF81C000012687001E047F0040780
:20546000ED1C6120214601226B1E1FF077FB08B147F008072146102262202B461FF06EFB0B
:2054800008B147F01007012120223346672037701BF062FE30461BF0B1F976E1264637F07A
:2054A00001008DF83C600AD10FA817F0B3FF9DF83C1080460E2000EB4100C7B201E0A0463E
:2054C0000E27384613F0C2FE5FEA00093DD0054621460822012005F8016B2B461FF03EFBD8
:2054E0001FF032FD0835072305F8010B001205F8010BA84A05F8013B1078A74905F8010B37
:205500004B7833F0010316D19DF83C0028709DF83C308BB141466D1C20469DF83C208242E9
:205520000ADD0A782A7031F8022B401CC0B212126A70AD1CF1E72E70672021463A464B4608
:205540001BF00AFE48461BF059F9B8F1000F00F01C8146469EE7022417E122464720E02109
:20556000134610E175040120D4E500201846C11C4A7A087A00EB02208A7A8DF82E400EF0EB
:2055800025F80DF12E03FBE018468DF82F400822C01C014668461EF0FDFF684619F0B6F828
:2055A0000DF12F03ECE018460EF09AFEEDE0D91C684608221EF0EEFF8DF80840CDF80CD0F8
:2055C00002208DF8090002A815F016F90CAB8DF83000D5E018461BF0DDFDD6E018461DF0D8
:2055E000AEFFD2E0DE1C307871781DF0B9FD0222307000127070294630466FE0184612F0B4
:205600006FF9C2E0D81C1FF0C9FCADF80200684615F0E4FC01AE0822EDE7D91C01A8082209
:205620001EF0B8FF684617F0B7FBBDF802000DF122038DF8220000128DF8230016E0F520F8
:205640008DF827400DF126038DF826000EE0F52011460DF131038DF831003AE0F520FF27F5
:205660008DF82A000DF12A038DF82B70022288E0F5200DF132038DF8320081E0F5200DF131
:2056800033038DF833007BE0F5200DAB8DF8340076E068462146092215F066FC16210922DC
:2056A0000DE068462146062215F05EFC152105E068462146062215F057FC142106226E46A0
:2056C0009AE7D8781BF0C0FD11210DF135038DF83500012256E01A78D81C1021034651E085
:2056E0001FF042FF05461FF00BFC2C496843B0FBF1F168461EF042FF09210422DFE7DE1C3F
:2057000062201DF05DFB0146324662201FF0CAFC0EAB8DF8380033E0DE1C61201DF050FB30
:205720000146324661201FF0BDFC0DF139038DF8390025E0480A0120D81C04211EF0F4FBDB
:20574000049084201DF03CFB014604AA84201FF0A9FC0DF13A038DF83A0011E0D81C1FF092
:205760001DFCADF81A0083201DF02AFB01460DF11A0283201FF096FC0DF13B038DF83B00DB
:205780000122294667201BF0E7FC204611B0BDE8F083C046540301207404012040420F001B
:2057A0002DE9F04FCF48D04CDFF840830F46390CADF1240D80F06582790927D300230370F5
:2057C000D749437018461FF013FCD64901201FF00FFCD54906201FF00BFCD44907201FF073
:2057E00007FCD84908201FF003FC0522D6498DF80C300DF10D001EF0CDFE4120802106223A
:2058000003AB1BF0A9FC87F0100044E2B80828BF87F0020080F03F822068390931D217F454
:20582000706F08BF002000F03682380B04D300201FF0E0F887F40067F80A04D301201FF0EE
:20584000D9F887F48067B80A04D302201FF0D2F887F40077780A04D303201FF0CBF887F4C6
:205860008077384617E22168884205D0016829601AF0C4FF286804E0016821601AF0BEFFAE
:20588000206808BB606858B1C27EC17E521E491ED6B2C17626B960681AF0B0FF0020606097
:2058A0002668002E08BF00280BD04446207808214FF47A721FF0A3FC18B12078082118F0A8
:2058C0001BFC87F00800E6E1017B491E0173C9B20029C8D005460068D3E70546D9F80460EB
:2058E00028781A280EDC1A2854D0401E00F06C81401E00F02B81801E00F0B581801E00F0EF
:205900001781BBE1243800F0A881AD3800F09E81801E03D02A3800F08B81AFE1A87C09302E
:20592000C0B2804613F092FC061C00F0A781A97800F8011B6988091200F8011B99F80C1062
:2059400000F8011B99F80E1000F8011BB9F80E10091200F8011B99F8101000F8011B99F81C
:20596000111000F8011B99F8141000F8011BB9F81410091200F8011BAA7CA9691EF00AFED7
:205980004520FF21424633461BF0E6FB30461AF035FF73E1B5F824A0E97B0AF114001FFA90
:2059A00080F81FF0C4FB002640B9A87B032805D0B8F1F00FD8BF4FF0810B16DD08F10A005F
:2059C0004FF0820B1FFA80F8B8F1FA0F0DDD0AF1100013F03BFC061C00F0508106F110009F
:2059E000A8EB0A0470601FFA84F8404613F02EFC079020B9002E00F041813046A0E004465E
:205A0000A87804F8010B6888001204F8010B287904F8010BA888BBF1820F4FEA202004F8C9
:205A2000010B1AD1A87B04F8010BA87B032805D0A8792070E8880012607004E0A91D20460E
:205A400008221EF0A7FDE87B083404F8010B287C04F8010B288A001207E0A87904F8010B43
:205A6000E888001204F8010BE87B04F8010B287D04F8010B687D04F8010BA87D04F8010B6A
:205A8000687E04F8010BE96920461EF077FD241DBBF1820F04D0002004F8010B504606E0E8
:205AA000002004F8010B04F801AB4FEA2A2004F8010B0E480078DEB10B4909680A4B316083
:205AC0004FF47A721E6008210F2333731FF097FB20B106480078082118F00EFBE869B06045
:205AE000706807E018040120BC0A0120A319012020465444A96A52461EF04CFD95F82C002D
:205B000004F8010BA88D5FFA88F85946001204F8010B95F82E00079E2070442032E7C04643
:205B200079D4010063210200BD060200ED220200A878401DC0B213F089FB002800F09E800F
:205B4000064623E7CD150200EC6F020029790B2000EB4100C0B21DF033FF002800F08E80DE
:205B6000A9782E798DF80010EC788DF802608DF801400DF10301FEB1AA792C79EE880A704E
:205B8000022C4FEA26218DF804100DF1050113DB2A7A2C792E890A70032C4FEA26218DF81E
:205BA00006100DF1070107D1AA7A6E890A7031128DF808100DF109012A7BAE890A703212DA
:205BC0004A701DF0F3FF59E0002E57D070788DF81500B0788DF816003078FA2819DC9DF8E5
:205BE000150000F01E00162811DA2C499DF815000D4600F01F00820050194068091D30B13E
:205C00008958304688478DF8140028B9BEE6012000E004208DF814009DF8150020F01F00A9
:205C200020287FF4B3AE60200021032205ABABE66878AE78EC788DF8180006AB8DF819608B
:205C400003228DF81A404420802103E06B1C4520C02101221BF080FA10E0F0783346401DB5
:205C6000C2B26920F0E7F078401DC4B2A11E701CC9B21EF0D3FDA41904F8010C48461DF010
:205C800095FF0748007818F009FA5FEA00097FF424AE87F4004009B0BDE8F08F1804012032
:205CA000A31901202DE9FC47D44C0F460646F80B80F00C826078B90F80F0AC81B90880F07E
:205CC0009F81DFF84C83F90A80F00281390B80F0CC80380907D2F80FC0F02E8227F08047A9
:205CE00016F0D6FD28E21FF0C6FA81461DF09EFF002800F0B48008201FF06EF9002840F03F
:205D0000AE8080201FF068F9002840F0A880684612F0BCFB012803D10098002800F09F8092
:205D200094F84102002840F09A8000250126E8B21EF0BAFE48B1837A3BB1867290F909000A
:205D400006FA00F0C0B21BF0EBFF6D1C032DEED3032084F8240004F5CE701FF088FA484659
:205D60001FF0FEFBC34800252A460168056050F8081CD44940F8085C04F160001DF075FEB3
:205D800040460068006B8047A168401A010BE06AC1F1FF3282422CBF08444FF0FF30E0629C
:205DA00094F8300020B12069E16AB1EBC02F25D91DF04CFF294600B13146081C1BD0C248F1
:205DC00040F6090101804580417B06F00F0221F00F010A434273017B05F00F0321F00F01B3
:205DE00043EA01020273294641601EF0A9FF418811F4406FFBD084F83060E56219F0F0FEA6
:205E0000D1482946056002201DF062FC02201CF0E5FA112010F00EFA207818B96068503011
:205E20001FF03DFAC948007810B90E2010F002FA94F8310020B184F8315005201CF0CEFA1C
:205E4000C348A06284F82450B4F9B400B4F9B610884214BF0220072014F0F8F902E0484626
:205E60001FF07EFB27F008073AE720B104201CF0B5FA0020607065681BF038FC38B1284650
:205E80002D6A6FF4807100224FF00073A847E06858B140460068006B8047E2686168801A36
:205EA000C860000BC8600026E660AA4904F1600000221DF0DAFD0221D4F8A00084F824108E
:205EC00018B104F1E0001FF0F2F927F4006707E71FF0D1F906461DF0A9FED4F89810002845
:205EE000894600F08480002900F081809A49042504F16000002284F824501DF0B6FD30461C
:205F00001FF02EFB04F5CE701FF0B1F940460068006B8047E0604FF0010884F80180284646
:205F20001CF074FAD9F810006060D9F81000816AC90803D3436A294600229847404617F029
:205F400075FE606880F81980606810F093FA6568D5F808A040F60A02D01F564600F1010C93
:205F600000E01E46736833B119888A4203D0884218BF8C45F5D100217160727B08F00F03BD
:205F800022F00F0213437373D9F80C201288904224D06046904221D02B8F03B3E96305F12A
:205FA0003802518095F8440001F00F0320F00F00034385F8443095F8450008F00F0320F0C0
:205FC0000F00034385F845307260707B01F00F0520F00F0045EA0001717300E0E1605046CE
:205FE0001EF0AEFE514640461DF072FB02E030461FF0B6FA27F480679EE0C04670EF002034
:2060000009F012FCD4F8A00008B927F0020793E08C010010514A116841F08001116020B114
:2060200004201CF0DBF9002060701FF024F980464B480068016804208847216A81421BD1E9
:20604000357ECDB1A568BDB1D4F8A8506DB1E968098840F60300884204D0E9680988401CBB
:20606000884202D106F1140001E006F110001AF025FC06E01410044040F6C41131617161A8
:20608000206240461FF06CFA1BF030FB80B1356A30466FF4807100224FF00073A847D4F824
:2060A0009800002808BF47F0020701D016F0F0FBF569002130464FF080630A46A84727F0EA
:2060C000005739E055E10100C81801201FF0D3F8D4F8B06066B306F1280106C90A234FF0EE
:2060E000E0450B40154008BF002B21D106F1280191E8000306F1280595E8060006F1280392
:2061000022EA090221EA080183E806001FF028FAB16879B1B9F1000F08BFB8F1000F09D05E
:206120003069B6F93010B5684B464246A84701E01FF016FA27F4804727B104F1E0003946A4
:206140001FF0B5F8BDE8FC8700000460BE6F0200793B0100F12D01000D3C0200CC21084074
:20616000E00100102DE9F04FADF17C0D1B91C0491C923CC9064610A83CC00EC980E80E00FD
:2061800000248DF84240327F8DF84340B08D8DF84D40D6F828C0ADF844401746ADF85A0091
:2061A000F0898DF854706146ADF84A00087800F00303022B8DF8400000F3FD8123461D9395
:2061C000491C1E9343083CD200F00C0EBEF10C0F0CD043093CBF11F8013B8DF84230BEF16E
:2061E000080F04BF01238DF84C3001D08DF84C40BEF10C0F0AD0737903F00303012B0CD12C
:2062000040F00C0073898DF8400004E04D780B78891C03EB0523ADF84430430911D24D788D
:206220000B78891C03EB0523ADF846300B784D78891C03EB0523ADF8483011F8013B8DF81B
:20624000433011F8013B30F07F058DF855301ED00B7833F003058DF8413040F0A88103F0FA
:20626000030EBEF1030F00F0A28113F0030F01F101010ED011F8013B00F00305022D8DF861
:20628000573004BF11F8013B8DF8583001E08DF841401491A1EB0C017F1AFFB2BA42C0F245
:2062A0008681D21B8DF85470D1B28DF84D100F4300F08181C10907D370891AF03FFA0028F0
:2062C00040F079819DF8400000F00C012746091F08BF0127820932D301221E9279B3B28974
:2062E0001EF032FE904202D1F08D000A0DD21EF02BFE904221D0F18D080A38BF101C07D3CE
:206300009DF8400000F003032DE07089ADF85A2080461EF019FEBDF85A10884205D040465E
:2063200018F05AFC002800F04681A448026810A940469047002840F03E819DF84000F18D4A
:2063400000F003030A0A0ED2C2090CD39DF8412012F0030F07D100F00C020C2A03D0082A8E
:206360001CBF01221D92DFF86082022B00F00081012B00F0CE8010F0030F40F01C819048F8
:2063800090F82F00012803D1B579002D00F013819DF8540002221A900B0A9DF84240BDF8D2
:2063A00046B0BDF848A09DF855E09DF857C0DDF850908DF86420B0899DF84350ADF85C00B4
:2063C00075D2454605F11C021468002F52D11D9F17B110A912F027FC7A484178022936D1FA
:2063E0000078012833D1B07C002830D070891AF0A5F9022801D0707948B37449B2893C20D0
:206400008B1F33F8064F944204D19C78F77CBC4200F0D180401EF4D16878891F3C234FF692
:20642000FE7731F8064FA74202D05B1EF9D1C2E00A80F27C8A700C228A8004211AF0BEF9B9
:2064400028B9687804214FF4FA721EF0D8FEF07C1E9F00901C9D0197594C0295B07C1B9B9B
:206460000390B4F8482017A910A810F0ABFEA2E0DC6D0200307C002C8DF8560000F09B80C9
:206480001EF062FDBDF85C20904240F0948030791E9F00901C9D01971B9A02951D9B039169
:2064A00096F8300010A9049017A8A04783E08DF820208DF822508DF82340ADF83010708946
:2064C000ADF818008DF835E0ADF826B0ADF828A0CDF82C901A9B8DF836C0327CADF82A301F
:2064E00035798DF83220B47C8DF8335096F832108DF83440324F8DF83810B7F84800ADF82C
:20650000240096F830708DF8377006A805F0ECFB51E01D9FB58937B1080A04D2284610A951
:2065200012F081FBB5899DF85400B6791030C0B21DF046FA071C3ED07D81022038703E73DE
:206540007C709DF854203A7207F110057D609DF84000800928BF01247C72149978681EF0BD
:2065600019F845466D1C2878394619F08FF822E09DF84100B189454624352B6810F0030FAC
:2065800010D110A807901248ADF8181006A91CF0A5F880B1062141730068407B214619F0AD
:2065A000F3FC08E03BB110A82246984703E08DF84D408DF854401FB0BDE8F08F7808012077
:2065C000740001207404012070060120B8C40020C3F401002DE9F04F4FF0FF084146ADF1E2
:2065E0004C0D0E910F914FF0000910914E46089609960A96AD4C0B9604F1300B0C96E068F5
:206600000D96494611919EE0E068710306AA04231EF074FD119903AA30461DF027FD02AA6C
:20662000304601211DF022FD3046022101AA1DF01DFD069800F0FF0028709DF81900069FB3
:206640006870C7F30140E8709DF80E30AB702878FF2834D0BDF80C70FE2830D04FF6FF704B
:20666000B8422AD107A81AF0D1FDE06871034FF088524FF400531EF041FDBA484FF400574B
:2066800050F8041D3F1FBFB2B1F1FF3F07F1885201D1032FF4D810684FF0010A514600F0F7
:2066A000FF03FF2B18BF8A46491C000A0529F6DB106007981DF056FF5744EF8001E010200D
:2066C000E8809DF80A00BDF8087028719DF806302F81BDF804206B7129786A81E068FF29C1
:2066E0002AD0FE2922D07E291AD07C2912D078290BD0702904D00D99491CC9B20D9120E062
:206700000C99491CC9B20C911BE00B99491CC9B20B9116E00A990F96491CC9B20A9110E093
:2067200009990E96491CC9B209910AE00899B046491CC9B2089104E009F1010710965FFABA
:2067400087F9761CF6B2E578B54200F323810D9F002F38D10898022835DA0C98022832DAFD
:20676000099802282FDA4D452BD00C98C0B90898A0B90B980A99084325D01CF069FD8542E3
:2067800019DCB9F1000F14D094F83200FE211BF0DDFDE5780120DDF8408015E0012013E089
:2067A000089860B9B9F1000F07D11CF051FD854201DC062008E0032006E00220EBE7022064
:2067C00002E0119800E004200028A07000F0CC80401E49D0401E00F0AA80401E06D0401E35
:2067E00000F09880801E00F094800EE11CF030FD05460C2084F83C5015FB00B0817E84F80D
:206800003D10C07E84F83E000DF00AFCE2782D1895FBF2F050432D1AE8B284F83200401CA1
:2068200090FBF2F15143401A84F831007C201AF041FFFF2810D17E201AF03CFFFF280BD17B
:20684000FF201AF037FFFF2806D178201AF032FFFF2808BF94F8310084F833000C2110FB76
:2068600001B0808BE0868FE00F9F08F1010090FBF5F184F832806943FF2FA0EB0100C1B267
:2068800084F8311014D10E98FF2804D10C200E9111FB00B004E00146880000EBC100584432
:2068A00084F83310808BE086AFE0C0467C0201203A46D0B2910084F8330001EBC2015944E6
:2068C000898B1729E18640F2A080C91F01AA89B211F0D4FA9DF80F00C0083FD3119F009749
:2068E000BDF81220E18E94F833000323891AC91F01AA89B208F0EEFE002840F08680BDF8F5
:206900001010002900F081809DF8140018F098FE7BE0FEE7119EB54226DD30460FF02AFC72
:206920006178E578761CF6B201436170F3E708F1010084F8328090FBF5F16943401A84F8DD
