:10000000003001201D90020009AE020009AE02007E
:1000100009AE020009AE020009AE020009AE0200FC
:1000200009AE020009AE020009AE020009AE0200EC
:0C00300009AE020009AE0200091D01002B
:10003C002DE9F047A8B004460078A0F1A0015C2996
:10004C0000F26780DFE811F0500238025D005D00BD
:10005C000B02CA0186025D00C9026D01D2020F03B8
:10006C009D01AB020F01F80092017D02BE02C4019A
:10007C00D80005022601E1001B01850360039703EC
:10008C007302B900B900B900C500A203B900B900E8
:10009C008901B900B900B900B900B900B900B900BB
:1000AC00B9009103BC00B900B900B900B900B9009E
:1000BC00B900B900B900CF000601B900B900B90008
:1000CC00B900B900B900B900B9007003B900B900A2
:1000DC003E03B900AD03B900B900B900B900540131
:1000EC00B900B900B900B900B900B900B900B9003C
:1000FC00B900B900B900B900B90077035D015D0022
:10010C00B90060681221002808BF0221617001F05B
:10011C0068BA4D2800F25180A678DFE810F0D404BC
:10012C004E00E40405065F044E004E00E40686040F
:10013C0033074E004E004E004E004E004E003B0763
:10014C000C0794034E00EE045E0780074E00A107D7
:10015C00F6054E00FE03AF074E003A047D078603FA
:10016C00F507B4034E004E004E004E004E007703D0
:10017C004E0019084508F3064E004E004E004E0086
:10018C004E004E004E004E004E004E004E004E00F3
:10019C004E002A0844076D084E004E004E004E00DB
:1001AC004C034E006C074E0019044E004E004E00DE
:1001BC004E008A07560863088708122001F010BA0F
:1001CC006068002801F00B82006827F07FFE01F0C8
:1001DC0007BA6068002801F002824168007824F0B8
:1001EC001BF901F0FDB96068002801F0F881006886
:1001FC0005F070FF01F0F4B9A068002801F0EF8160
:10020C00002060702DF016FEE4E1A068002801F0DB
:10021C00E681DFF8BC1ED1F80D20C0F80D2091E866
:10022C002C0085600D7BC0E900230573B1F811101B
:10023C00A0F8111001F0D1B9A068002801F0CF810D
:10024C000020607024F0F8FE002801F00580A16801
:10025C0000F003BF6068002801F0C18100680EF057
:10026C0077FE01F0BDB96068002801F0B88100216B
:10027C0061708178008822F037F901F0B2B9A0687A
:10028C00002801F0AC8100216170411C25F06EFC4E
:10029C0001F0A7B96068002801F0A181002161700C
:1002AC00017D19B1C17CDFF8282E5174817D19B103
:1002BC00417DDFF81C2E9174017C19B1C189DFF8E6
:1002CC00102E1181017B19B18168DFF8042E516069
:1002DC00817C19B1417CDFF8F82D5173017900292B
:1002EC0001F07F810068DFF8E81D086001F079B942
:1002FC0060680078002800F0A48727F097FC01F0D4
:10030C0070B96068002801F06A81DFF8C81D0978AF
:10031C0001293FF652AF4168008821F019FD01F028
:10032C005FB96068002801F05A814188008829F083
:10033C0025FB68B9606801224188008824F00EFA18
:10034C0060684188008829F019FB002801F09A8127
:10035C0061680979417001F040B9A068002801F08A
:10036C003E81002060702BF059FD33E1606800285D
:10037C0001F035810021617000780AF07BFC01F0FE
:10038C0030B96068002801F02A8101884088ADF8F6
:10039C001C00ADF82C100BA9532025F0C5FB07A9A8
:1003AC00502025F0C1FB0DF11B01E1202AF00EFCC1
:1003BC0060689DF81B100079814201F00E818DF868
:1003CC001B000DF11B01E12025F0AEFB01F005B97E
:1003DC000020607027F05EFD01F003B96068002812
:1003EC0001F0FD800178002900F03887DFF8E80C77
:1003FC000DF12C0A00250DF11C0800260AF1080944
:10040C00CDE90955CDE907550788B74201F01181AF
:10041C00B1B2042000221423CDF800A029F09CFFD7
:10042C006070A0B960684946082204302BF0A4FF24
:10043C00002801F0FC8055B9606841460822043060
:10044C002BF09AFF00284FF0000508BF3546013607
:10045C00DBE70020607027F055FD01F0C2B8616841
:10046C00002901F0BC80A068002801F0B88011F8C8
:10047C00012B00F8012B2DF07FFE6068017800291C
:10048C0001F07E80DFF8500C0BAE002506F1080859
:10049C000788AF4201F0A180A9B2042000221423E6
:1004AC00009629F059FF607020B92DF079FB0028D7
:1004BC0001F0EF800135ECE76168002901F08F80D5
:1004CC0008784A783A258B7800288DF82C2008BFBC
:1004DC003B250BA80130002B00F0DA8603311022EB
:1004EC002DF018F900F0D6BE6068002801F0778076
:1004FC00A168002901F0738001783A20002908BF17
:10050C003B200BAD002111222B462CF023FF0028A1
:10051C00607041F06680D4E901109DF82C20427087
:10052C00097800F8021B691C102200F0CDBD606830
:10053C00002801F0548000F1120125F07AFD01F041
:10054C004FB86068002801F04A80007825F030FB35
:10055C0001F046B86068002801F04180017800295C
:10056C0000F09E86DFF8700B0DF12C09002709F1C5
:10057C0008080588BD4201F03480BEB20420002278
:10058C001423CDF80090314629F0E6FE607020B9B6
:10059C002DF006FB002801F05E800137EAE7616868
:1005AC00002901F01C80DFF8340B2DF0E5FD6068AC
:1005BC00DFF82C2B0189807A1180DFF8281B08705A
:1005CC0001F00BB8A068002801F0098000206070D1
:1005DC002DF04CFBA16800F041BDDFF80C0B4FF483
:1005EC008071007820F0EEFC00F0F7BF6168002904
:1005FC0000F02A86DFF8F45A087885F8260095F87A
:10060C0072204888E882087A287648896883486886
:10061C00A8628889A884887B85F83800C87B6871B3
:10062C00087CE8704869286388696863087F82429F
:10063C0002D025F0E1F8616805F139001D312DF08B
:10064C00EFFD95F82600082840F00386DFF89C2A79
:10065C00212074212DF0ACFB00200221002526F076
:10066C00B3FF00F0F7BD6068002800F0EF8500785C
:10067C0025F0C2F86168DFF8745A287E4978884200
:10068C0012D029760BA9E1202AF0A0FA60684178F3
:10069C009DF82C00884207D08DF82C100BA9E12076
:1006AC0025F042FA60684078012101FA00F0A86256
:1006BC002BF024FB00260120A5F870601FF09CFA9B
:1006CC0000F0C5BD6168002900F08B870820ADF8EB
:1006DC002C000888ADF82E00081D0BAC90E86800C3
:1006EC00221D68C2087CD1E905231C31CDE91023F9
:1006FC008DF83C0004F11C0010222DF00BF8204664
:10070C0029F06CFE00F06DBF6568002D00F0678766
:10071C00EB88AA88698828782E890A35CDE9006586
:10072C0016F0E4FE00F05CBF0020DFF8C419607026
:10073C00E07800F093BC6068002800F05087DFF888
:10074C009419097801293FF638AD2CF031FD00F0F1
:10075C0047BF6068002800F042870021617023F0D9
:10076C009DFDA168088000F03CBF0020607022F065
:10077C00EFFB00F036BF6068002800F030878288FD
:10078C004188007807F022FF00F02ABF606800283B
:10079C0000F0258700216170007828F047F900F0FF
:1007AC0020BF6068002800F01C87817A008825F043
:1007BC0043FD00F016BF6068002800F0108702218E
:1007CC004FF6FC728DF8341001888A1A032A11D85E
:1007DC00022A0FD02DF09CF9ADF82C006068002196
:1007EC00837AC27A0091811C0BA826F0FFFB607003
:1007FC0060680188ADF82C10837AC27A00210091D0
:10080C00811C0BA826F0F2FB00F0EABE6168022006
:10081C00002900F0E5860A888DF834004988ADF887
:10082C002C200BA8022200F0CCBC6568002D00F037
:10083C00D6862F7838462CF04BFA002800F03485F9
:10084C00D02000F0CDBE6068002800F0C8860BAD4B
:10085C00011D082228462CF05DFF03202BF03EFAE8
:10086C006068C07B28F092FEDFF8880883786068A7
:10087C00418886890278807BCDE90060284615F096
:10088C00B5F900F0ADBE6668002E00F0A886357D87
:10089C0028462CF01DFA002800F0A186307F10218C
:1008AC0041EA4007717F002908BF4700B07F00284C
:1008BC0018BF47F00807F07F002818BF47F0200743
:1008CC0096F82000002818BF47F0400796F8210042
:1008DC000028284618BF67F07F07D6F818802CF040
:1008EC0091FF002800F07B8605466068827A0178CB
:1008FC008DF8352082898DF83410ADF836204A1EDB
:10090C00022A05D3032900F076870F2940F0788757
:10091C004188ADF82C1000F073BF6068002800F01F
:10092C005E86A168002900F05A860021617000786B
:10093C002BF03AFEA168087040002DF0D0FC014667
:10094C00D4E90102516000782AF09EFD00F049BE06
:10095C006168002900F04386CA7A887A0B7B4D7B4C
:10096C00002A18BF40F00200002B18BF40F0040012
:10097C00002D18BF40F008008A7B002A18BF40F0F9
:10098C0040000023C2B20888023126F011FB00F0AF
:10099C0027BE6068002800F022860021CDF83A10AE
:1009AC00CDF83610CDF83210CDF82E1002794188E2
:1009BC00ADF82C105AB1816849B10F2A28BF0F220B
:1009CC008DF82E200BA803302CF0A4FE6068007864
:1009DC000BA901221FF0E4FF00F002BE60680028A2
:1009EC0000F0FD8500216170017841B14078DFF89D
:1009FC0008270121107063202DF0DAF96068017965
:100A0C0041B14079DFF8F426012110706D202DF0F2
:100A1C00CFF960688179002900F06784C1794FF4BF
:100A2C0000500DF087F900F074BC6068002800F0ED
:100A3C00D685002161702A212DF046FBDFF8AC56DB
:100A4C006068DFF8BC660822E98A0180A98C818184
:100A5C00698BC182DFF8AC160978817205F1390116
:100A6C000E30B04767682CF021FB0146B81C0822F9
:100A7C00B047606805F11C0108221830B047606867
:100A8C00297E012280F82310DFF8681680F82120D7
:100A9C008978CB0718BF80F824208A0744BF01222D
:100AAC0080F825204A0744BF012280F826200A0737
:100ABC0044BF012280F82720490644BF012180F859
:100ACC00281000F08EBD6068002800F08885407802
:100ADC0018B1FF20032126F077FD2DF0B4FA9048D1
:100AEC0001210160FEE76068002800F07885032191
:100AFC0001718C49016000F070BD6768002F00F037
:100B0C006E852DF002FA0546002800F0098538782C
:100B1C0028B1E988787821F001010843E880B87899
:100B2C0030B1E988F87821F0020141EA4000E88010
:100B3C00387930B1E988787921F0040141EA8000F4
:100B4C00E880B87930B1E988F87921F0080141EAF8
:100B5C00C000E880387A30B1E988787A21F0100149
:100B6C0041EA0010E880B87A30B1E988F87A21F0CF
:100B7C00200141EA4010E880387B30B1E988787B6D
:100B8C0021F0400141EA8010E880B87B28B1A968C7
:100B9C00F87B21F001010843A860387C38B1A968C2
:100BAC00787C21F00201002818BF0231A960B87CC2
:100BBC0038B1A968F87C21F00401002818BF043171
:100BCC00A960B87D38B1A968F87D21F01001002822
:100BDC0018BF1031A960387E38B1A968787E21F031
:100BEC002001002818BF2031A960B87E38B1A9684F
:100BFC00F87E21F04001002818BF4031A96097F819
:100C0C00220048B1A96897F8230021F480610028DC
:100C1C0018BF01F58061A96097F8260048B1A96852
:100C2C0097F8270021F40051002818BF01F5005156
:100C3C00A96097F8280048B1A96897F8290021F411
:100C4C008041002818BF01F58041A96097F82A005F
:100C5C0048B1A96897F82B0021F40041002818BF6F
:100C6C0001F50041A96097F8340048B1A96897F8DC
:100C7C00350021F48011002818BF01F58011A960FE
:100C8C0097F8380048B1A96897F8390021F4800129
:100C9C00002818BF01F58001A96097F83C0048B105
:100CAC00A96897F83D0021F08071002818BF01F168
:100CBC008071A96097F83E0048B1A96897F83F0089
:100CCC0021F00071002818BF01F10071A96097F89C
:100CDC00400048B1A96897F8410021F00061002854
:100CEC0018BF01F10061A96097F84200002800F0DC
:100CFC00788497F84310A86800290CBF20F0805026
:100D0C0040F08050A86000F06CBC6068002800F0D7
:100D1C00668400216170007827F04CF800F061BC0B
:100D2C007C052043010102066268002A00F057840A
:100D3C00A168002900F0538400206070107840B145
:100D4C0001200870DFF8680C0078002818BF01201B
:100D5C004870907840B101200871DFF8580C007889
:100D6C00002818BF01204871D07848B100202CF021
:100D7C00DDFAD4E90121C0F34030C871012088713B
:100D8C00107950B30120087201F10C002CF0CEFA4E
:100D9C00A1680882DFF8640C007802281DD1DFF806
:100DAC00580C0078C8B9DFF8585C0120A847A16836
:100DBC0048610220A847A16888610420A847A1685F
:100DCC00C8610820A847A16808621020A847A1683C
:100DDC0048622020A847A16888626068427932B1D5
:100DEC00012281F82C20DFF8D42B1288CA85827955
:100DFC0032B1012281F83020DFF8C42B12884A86E8
:100E0C00C27932B1012281F83420DFF8B82B128874
:100E1C00CA86027A3AB1012281F83820DFF8A82B71
:100E2C00127881F83920427A3AB1012281F83A20BD
:100E3C00DFF8982B127881F83B20827A3AB10122A4
:100E4C0081F83C20DFF8882B127881F83D20C27A9B
:100E5C003AB1012281F83E20DFF8782B127881F824
:100E6C003F20027B3AB1012281F84020DFF8682B49
:100E7C00127881F84120427B3AB1012281F842205C
:100E8C00DFF8582B127881F84320827B3AB101228B
:100E9C0081F84420DFF8482B127881F84520C27B7A
:100EAC00002A00F0018401201122002681F846005E
:100EBC000BAD812000212B462CF04CFA9DF82C0018
:100ECC00A168002881F8470000F0D1832DF007FAC3
:100EDC00A1680028886400F0E2839DF82C20691C2E
:100EEC002CF018FCDFE36068002800F0788390F9A0
:100EFC00005028462BF020FBA068002800F06D83E2
:100F0C0005706AE365680220002D00F069838DF896
:100F1C0034002E7B00272888AB79AA886988ADF825
:100F2C002C00A8682D69CDE90006CDE902570BA865
:100F3C0017F078FD54E36068002800F050833046C9
:100F4C002BF0BAFE0546002800F0FB82E888DFF89B
:100F5C00B41A40F00C00E88002202CF015F9DFF8F0
:100F6C00A81A03202CF010F940F20110ADF8310052
:100F7C006068016800790B918DF830000BA821F0A6
:100F8C0077F82DE36068002800F0298300782CF0B6
:100F9C001BFF22E36068002800F0218300880021F9
:100FAC0010F046FA1DE36168002900F01883022056
:100FBC008DF83400887B0D88421E8DF82400022A9F
:100FCC00ADF82C5005D3032800F0F4820F2840F024
:100FDC00F682088AADF81C00F1E26068002800F087
:100FEC00FE828178002900F0C182C2780321002A98
:100FFC0008BF0121BBE262680220002A00F0F082E7
:10100C008DF83400002310889178D278ADF82C003C
:10101C000BA821F0B9F9E3E22BF012FEE0E26168D3
:10102C00002900F0DC8208888A7801211DF0DAF8AA
:10103C00D6E26068002800F0D282A168002900F096
:10104C00CE8200780BA92AF0EEFB0020BDF82C20F4
:10105C006070D4E90101A1F8012000780870C0E2A9
:10106C00022060706068002800F0BB824188007824
:10107C0025F0E2FA002840F0B082B2E26068002865
:10108C0000F0AD82A068002800F0A9820026C0E91B
:10109C00006660684188007829F0ACFD002800F0FB
:1010AC00878266700546A16800880880A8780028A9
:1010BC00887000F096822DF012F9A1680028486023
:1010CC0000F08F828A78E91C2CF024FB89E200BFA7
:1010DC00C8210020642600207E0103005C2600202D
:1010EC005A260020582600202D7B0020F86B00206B
:1010FC0007280020B4790020462800205C7B0020C3
:10110C0021D702004C2400206068002800F0678280
:10111C0000782BF0DDFD002800F061820546007B95
:10112C0027F036FC0028607040F05B82DFF878080E
:10113C004168002900F0558200220C462346002C01
:10114C0000F09782AB4200F094821C681A46F5E7D7
:10115C0061680220002900F043828DF834000023DE
:10116C0008880A794988ADF82C000BA82AF056F9A2
:10117C0036E265680220002D00F032828DF83400D2
:10118C00EE682F7C4FF0000C2888EB8869882A7950
:10119C00ADF82C00287A6D698DE8C100CDE9035CAF
:1011AC000BA817F0E7FB1BE261680220002900F096
:1011BC0017828DF83400052208884988ADF82C0078
:1011CC000BA800232BF09CF90AE26068002800F0C1
:1011DC000682B0F80110ADF82C1000780BA92BF09A
:1011EC00B9F9FDE16068002800F0F981017A427AD2
:1011FC0000231FF0A3FBF3E16068002800F0EF81EF
:10120C0002218DF834100188ADF82C10817B4A1E18
:10121C008DF82410022A05D3032900F0F3810F293D
:10122C0040F0F681018AADF81C10F1E160680028ED
:10123C0000F0D5818178C2780088002328F01EFA4E
:10124C00CEE12AF0DFFACCE1022503E0022666703B
:10125C00C7E100256570C4E10120C1E100F10C017A
:10126C000BA810222CF056FA6068D0E90712043053
:10127C00CDE90F1207A92AF0E3F80028607000F0FE
:10128C0003826168488804310BAA22F0E6FCA7E1CE
:10129C0028F024FA0BAA284611212CF089FD9FE195
:1012AC0001302BF045FE9BE12BF01EFDDFF8F8160C
:1012BC000978884280F058812CF027FE20B18146B5
:1012CC00007B002800F0D6821C202DF008F80028A6
:1012DC0000F087811C2181462CF0F6FE89F8046011
:1012EC004FF0010865682F78C6E2017A89B1C168B0
:1012FC00008A420701D064290BD315F097FD00201A
:10130C0001210CF017FDDFF8B026352028212CF038
:10131C004FFD6068817C41B1808ADFF8A0260221F4
:10132C00108044202CF044FD6068817D41B1008B1D
:10133C00DFF88C260221108046202CF039FD6068E5
:10134C00817E41B1808BDFF87C26022110808320C6
:10135C002CF02EFD6068817F41B1C07FDFF86826DC
:10136C000121107029202CF023FD606890F82010CA
:10137C0049B190F82100DFF85426012110702B2080
:10138C002CF016FD606890F8221049B190F82300FB
:10139C00DFF83C260121107043202CF009FD606819
:1013AC0090F8241049B190F82500DFF82826012187
:1013BC0010702E202CF0FCFC606890F8261049B1BF
:1013CC0090F82700DFF81026012110702F202CF048
:1013DC00EFFC606890F8281049B190F82900DFF80C
:1013EC00FC250121107030202CF0E2FC606890F894
:1013FC002A1049B190F82B00DFF8E4250121107078
:10140C002C202CF0D5FC606890F82C1089B190F849
:10141C002D20102A28BF1022016B8DF82C200BAD2B
:10142C00681C2CF077F9812011212A462CF0C0FC85
:10143C00606890F8341049B190F83510102928BF25
:10144C001021826B62202CF0B3FC606890F83C1089
:10145C0041B1006CDFF88C250421106084202CF045
:10146C00A7FC606890F8441049B190F84500DFF88B
:10147C007825012110704B202CF09AFC606890F8B4
:10148C00461069B1DFF8645500F14701082228467F
:10149C002CF040F9472008212A462CF089FC606882
:1014AC0090F84F1031B100F15002012008212CF0BE
:1014BC007FFC606890F8581041B190F859008DF895
:1014CC002C000BA9522024F02FFB606890F85E10C2
:1014DC0049B190F85F00DFF8182501211070332016
:1014EC002CF066FC606890F85C1059B190F85D00C7
:1014FC00DFF800250121107032202CF059FC22F06D
:10150C00E9FD606890F8601000296AD090F86100DD
:10151C00DFF894144870DFF88C1481F8680060E0F0
:10152C001C202CF0DCFE00285BD01C2105462CF086
:10153C00CBFD28462E7127F0C7FA90B16768FFF7EC
:10154C00E6BA1C202CF0CBFE00284AD01C21054604
:10155C002CF0BAFD28462E7127F0B6FA00287FF43D
:10156C00F5AC28462CF0B9FED12039E000210379E6
:10157C004279002B18BF403100880FF031FE2FE06C
:10158C00013007A929F05CFF607050BB079800215F
:10159C00182240880BAB2BF0DDFE607008BBA068F6
:1015AC00DDE90F12C0E9071209300BA9FEF7BCBF29
:1015BC00B12015E0103107A82CF0DEFD6168DFF8D2
:1015CC00E403C08A854210D1887A0A7E0C3101234B
:1015DC00009107A90BF01AF808B1002000E00220D6
:1015EC006070012028B0BDE8F08788890A7E8B7A6C
:1015FC0007AE0025CDE90006CDE902258A1C0BA912
:10160C00212011E000F1100107A82CF0B5FD606855
:10161C008189027E837A07AE0025CDE90225CDE9CA
:10162C000016821C0BA922201EF07AFAD8E7374646
:10163C003546012DD5DB60680822011D48462CF08B
:10164C0069F860681422D0E90701CDE90B01B9B241
:10165C000BAB042008E00BAD142128462CF034FD14
:10166C000420314614222B4628F08CFEB8E78E64F9
:10167C0019E0AB42B5D1A94208BF021D2868106021
:10168C002846E3E0C820ABE70798182140880BAA4E
:10169C0003E6A068DDE90B12C0E90712A1E7002000
:1016AC00886481F847006068007C70B110202CF0D1
:1016BC0016FE0346A06803653BB10121102280F899
:1016CC004C10622000212BF045FE6068417C31B14A
:1016DC00A168012281F85420C24A12688A65817C73
:1016EC0039B1A168012281F85C20BF4A127881F8D7
:1016FC005D20C17C51B1A0680121082280F85E10E8
:10170C00A8495F3039312CF005F86068017D59B17A
:10171C00A568012085F867002BF0C8FC014605F18F
:10172C0068002CF029FD6068417D79B10BA952202D
:10173C0029F04CFAA068012180F870109DF82C104B
:10174C00002918BF012180F871106068817D19B1E2
:10175C00A1680122A1F87220C17D51B1A1680122BA
:10176C0081F87420A34A1278002A18BF012281F84C
:10177C007520017E39B1A168012281F876209C4A3E
:10178C00127881F87720417E51B1A168012281F84D
:10179C007820854A5278002A18BF012281F87920D6
:1017AC00807E00283FF41DAFA168012081F87A00EB
:1017BC007C4991F82610082918BF042903D1A16887
:1017CC0081F87B000DE7A1B921202CF08DFC742849
:1017DC000FD10BAB2120002174222BF0BBFD9DF807
:1017EC005210043901F0FB010843B0FA80F04009B3
:1017FC00E5E70020E3E7811C0BA82CF0BDFC60683A
:10180C00817B31B348002CF06AFD88B361680646D1
:10181C000022887B904206D00B6933F8123026F8F0
:10182C0012300132F6E78B8CCA8AD1F828C091F8B5
:10183C002210FFB2CDE90406CDE90271CDE900C852
:10184C000BA8294623F0E9FE607030462CF045FDCC
:10185C00C7E6838CC28A816A90F82200FEB2CDE979
:10186C000018CDE902600BA8294608F06FFEB7E618
:10187C001020B5E64FF000084E4606F80C7F287A8B
:10188C0030734A48706014202CF029FD0028B06099
:10189C0045D014212CF018FC6268D9F81400526859
:1018AC008179927901F0F00102F00F0211448171FB
:1018BC006168D9F8140049680A780270D1F80220DE
:1018CC00C0F80220CA79C271097B017350002CF058
:1018DC0006FDD9F81410886060B1CA7900239A42C9
:1018EC0008D065686D68AD6835F8135020F8135052
:1018FC000133F4E7087B40002CF0F1FCD9F814100C
:10190C00086160B1097B0022914208D063685B6872
:10191C001B6933F8123020F812300132F4E73046EC
:10192C0029F0A0FDB82802D00746022806D130784D
:10193C0027F02EF8304629F095FD074637B1B8F15F
:10194C00000F0FD048462CF0C8FC23E0B8F1000F74
:10195C003FF447AE484627F0B7F800287FF441AE75
:10196C00484673E7D9F8140078B1816821B108466C
:10197C002CF0B3FCD9F81400016921B108462CF005
:10198C00ACFCD9F814002CF0A8FC0020C6E900002F
:10199C00C6E90200B82F3EF453AF022F3EF450AF0D
:1019AC001FE600BFF86B0020C0260020F963002062
:1019BC00462800205C7B0020C0750020EE2700200C
:1019CC00EA270020F22700203C280020392800209C
:1019DC002E2800203A280020452800202F280020FF
:1019EC0048280020D42700202B280020F82600208F
:1019FC0033280020342800204B28002064260020A7
:101A0C00ADEA010099750200D9D302002DE9F04F1F
:101A1C0099B080466FF007000DF11C0B063098F85A
:101A2C0008105A46ADF85200D8F8040011F018FF0F
:101A3C00002800F0B5809DF81E609DF81F409DF8B1
:101A4C002070BDF826502CF05DF8844240F0A88040
:101A5C0025F003004FF6F87480B2A04200F0A0808D
:101A6C00012F00F29D80022E80F09A80B8F8280099
:101A7C00ADF84800B8F83200ADF82A009DF8220005
:101A8C00D0B1D8F804109DF81D209DF838300120F5
:101A9C002AF0E2FC08B1CF2083E0DFF85807C078C9
:101AAC00012809D1B8F828002CF0C5FA20B14179E9
:101ABC0001F0E701083141719DF8210068B1BDF8D2
:101ACC002610FF2029F096F89DF82110D8B141F08E
:101ADC0001012C268DF8211016E09DF83900002804
:101AEC0064D09DF83D10FF2902D0002940F0ED8014
:101AFC00DFF80407BDF82620C18A8A4240F0EE8048
:101B0C000120222607E0082601F00300012808BF67
:101B1C0046F011060120B1073746DFF8DC9658BFB6
:101B2C0067F07F07002808BF37469DF8220030B9C0
:101B3C0099F80B0018B107F02200222813D117F0E6
:101B4C00400A58D0119899F80E200178920718D4B1
:101B5C000C291BD8012241F290438A401A4245D1EC
:101B6C00032940D012E0F8B200F0420042287FF482
:101B7C0092AF1198007800F0FE0006287FF48BAF2E
:101B8C00DDE7A1F10C0212F10C0F2AD8B9F81600FE
:101B9C00BDF82620824203D1BDF8280027F0D6FBE1
:101BAC00D32017F0F8FA19B0BDE8F08FBDF8260075
:101BBC0025F0D0FE0238DFF84016B0FA80F0CA8A61
:101BCC004109BDF82600904208BF0231002900F0FF
:101BDC008C809DF81E20002A00F03A8101F140070C
:101BEC0038E1032902D140780D2804D007A825F04C
:101BFC0095F80128D7D0B9F82400B8F844108142E0
:101C0C000AD198F84620B8F84210B8F828000023FA
:101C1C000093002310F0DAFB9DF82200E0B1B8F835
:101C2C004210B8F8280027F0A9FEB8B30646D8F839
:101C3C0004009DF81D10F2780844417B8A421EBFB7
:101C4C0000227260F1700130042128F08DFC716863
:101C5C008842A8D30130706099F80E008007A2D595
:101C6C009DF84D0058B1BDF828002AF0B1FE0028AF
:101C7C006FD0D8F80400417801F0DF0141709DF875
:101C8C002E00A0B3D8F804008179013981718DF848
:101C9C002E1007F07F0009062CD12AE09DF84D008C
:101CAC00002841D0042029F0ABFA00283FF47BAF88
:101CBC0001464FF4B2700880B8F828004880DFF86D
:101CCC003C05007820F084FA6DE7109A9DF83C00F2
:101CDC0023F080FE30B1012000261CE790F826008E
:101CEC000428F8D10026002015E70027B2E007F001
:101CFC007F000746390702D44FF0000A49E0F9B2D9
:101D0C004A0737D4C9069DF821103DD5C1F382028C
:101D1C0012B1072A18BF013A002A08BF074601F082
:101D2C00E30040EA82012DE099F86C0001287FF471
:101D3C0093AF11980078062803D1BAF1000F7FF405
:101D4C008BAFE01DBDF82A1080B281423FF42BAF5F
:101D5C0044E1D32017F01FFADFF8A4040078002820
:101D6C0000F0AD80DFF89C1451F82000C0EB00109F
:101D7C008100A6E09DF8210000F0E00100F0E300F6
:101D8C0040EAD1018DF82110D8F804004FF4805AA4
:101D9C00017299F82600092801D0042829D1B9F834
:101DAC001610BDF8260088420AD025F0D3FD022873
:101DBC0006D09DF8210000F0030001287FF4F3AE5B
:101DCC009DF81E0000285BD011989DF83810007803
:101DDC00042808BF02296DD0072808BF042900F089
:101DEC00838003287FF4DFAE07A8002112F05EFF8A
:101DFC00D9E6FEB217F0610F49D0F00708D0B8F859
:101E0C00281007A817F0B8FC002871D007F09F071E
:101E1C000025FEB2B80605D52BF053F807A815A976
:101E2C0006F0ECFC700640F13981B8F8281007A8D0
:101E3C000DF152022B4611F08FFD002800F081802D
:101E4C00054611980078012808BF4AF0100A25E1D0
:101E5C0001F1200725F07EFD0138B0FA80F0400931
:101E6C0047EA00069DF81E0000283FF453AE119877
:101E7C0000782AF0E9FD012818BF07F07E0649E634
:101E8C002BF01FF807A815A906F0B8FC8BE69DF8F7
:101E9C001E00012864D111980078032853D005281E
:101EAC005ED1B8F8281007A80DF15202002311F0EA
:101EBC0053FD78E607A9002012F0F4FA73E6D14836
:101ECC000168D1480268BDF82800904701287FF4CA
:101EDC006AAECE480168BDF828008847CC48016836
:101EEC00BDF8280088475EE607A81AF0BBF85AE64A
:101EFC0029F0A4FD9DF82E100546BDF8280021B947
:101F0C00B8F8281088423FF484AFB9F81610814213
:101F1C0004D1B848807800283FF47BAFB8F828107B
:101F2C0007A82A460BF008FC002800F09E8030071A
:101F3C004AF0040ABDF8260048BFE01DADF8520077
:101F4C0067E70025AAE0BDF826002AF041FD38B16C
:101F5C00B8F8281007A80DF15202002311F0FCFC70
:101F6C009DF82E0088B326F04FFF00287FF41BAE9F
:101F7C009DF83900B8B3109A9DF83C009DF83D10BF
:101F8C0023F028FD002873D09DF83D00002878D060
:101F9C0010992BF0DDFF9DF82430ADF85200112084
:101FAC009DF823209DF821104AF0400A002B08BF11
:101FBC000920002A18BF0830002918BF0130D8F8B2
:101FCC0004100A5C013A0A5465E09DF81E000128D1
:101FDC0004D11198007803283FF4E5AD07A84146D9
:101FEC0020F0E2FBDFE59DF82010BDF8260000296B
:101FFC00ADF8520000F0CF804020BDF826100BF158
:10200C001D0200EAC7099DF820004B461BF070F832
:10201C0038B1D8F804004AF0200A017801F03F01E9
:10202C0001709DF8390048B1BDF826100BF1200065
:10203C0024F056FE4AF0400AADF852009DF81E00FE
:10204C00012806D0BDF82810BDF82600002216F095
:10205C004BFFBDF82810BDF826004A4614F06CF969
:10206C00002818BF4AF0200A15E007F0DF07CFE67A
:10207C00BDF82610BDF828000B2200231CF0BEFD75
:10208C0091E5BDF82600ADF852002BF0D4FF0028E6
:10209C0008BF4AF0400A29F0D1FC0546A01DBDF846
:1020AC00521080B20E1A5B4818BF2E4600780128D9
:1020BC0005D1E01DB8F8321080B281422ED178B231
:1020CC00B0F1FF3F3FF76FAD002E3FF46CADB8F8A9
:1020DC0008002CF004F900283FF465ADB8F808208E
:1020EC00D8F8041005462BF015FB9DF81E100020A7
:1020FC0098F80830B8F8282016908DF85410BDF8D0
:10210C00521015ACCDE9006ACDE90204284614F052
:10211C0051FF68B328462CF0E0F844E5B8F82810D5
:10212C008142CCD0601CBDF8262080B28242C6D23F
:10213C00BDF828008142C2D02BF07DFF0028BED014
:10214C00017901390129BAD8408801218DF8541040
:10215C00ADF8600015AD284621F0EAF90028AED0A4
:10216C00281D1FF0A9FE0028A9D028F0CBFCA6E75B
:10217C002048407800283FF416AD00208DF81860F8
:10218C00ADF81900DDF826004FEA3040059005A89F
:10219C002BF0D6F807E531073FF52EAF9DF81E1052
:1021AC0001293FF429AF00211AF062FF20B14079D8
:1021BC0001380228FFF420AFB8F84410BDF85200E3
:1021CC0027F0DCFB30B1807829F0D8FE01380728E5
:1021DC00FFF412AFBDF828002AF0FAFB18B1042066
:1021EC008DF8200008E7BDF82610BDF82800022263
:1021FC0043E700BF40260020F86B00202D7B002019
:10220C003D280020F8FA0200942300209C23002093
:10221C0098230020492800202DE9F04F8FB00C4660
:10222C0048071DD4200400F17680E00400F1D08131
:10223C00200600F1EE81A00700F10582200500F1D7
:10224C003B82600600F13B82A00400F16C826004CA
:10225C0051BF00244FF6C600844314F039F927E22D
:10226C00DFF8D0050178062900F21482DFE811F0BE
:10227C000700C001120212020C021202C501DFF8A3
:10228C00B86596F837104A0700F1C9818A0700F142
:10229C00F181090740F1FE810621017096F83A00A0
:1022AC00002800F0C38222F0C7FE002800F0BE8296
:1022BC000546F06840684078800740F192822878A3
:1022CC0004AB0321002224F073FC002800F0778279
:1022DC0006980188B42916D8B4214FF47A7201807B
:1022EC00DFF858054FF4005100782BF054FFDFF85D
:1022FC005405016839B1DFF850050078FF2814BF88
:10230C002878FF208847F06840684078C00740F084
:10231C005F82092059E2DFF83805DFF82075DFF815
:10232C0014A5DFF8405548F2040848F202094FF6AC
:10233C00FE7B0088029038781FF01EFF002800F00A
:10234C00448106460078D3280DD1F089404563D0EE
:10235C00484535D048F20101884240F01C81304696
:10236C0018F0FEFC17E19AF80010884219D10128E8
:10237C0056D0032840F00F81DFF8C40400780138F0
:10238C00012800F20881B078012877D0002840F0AD
:10239C0002817078002800F0BE80002021F008FA3D
:1023AC00F9E00A2840F0F780DFF88C1491F8370038
:1023BC003071096A002900F0EE80B01C8847EAE011
:1023CC00DFF894040078002800F0E5809AF800000B
:1023DC00012840F0E0802BF0F5F8002840F0DB807D
:1023EC007088002840F0D7800AAD122128462BF0C7
:1023FC006BFE2BF03FFD304629461BF021FCBDF84F
:10240C003400B0F5285FC0F099800120022122F041
:10241C0029F8DFF85054BEE030461CF059FEBAE003
:10242C00DFF81C0400780138012800F2B4807078C1
:10243C00DFF8042460B192F83C0092F83D100130B2
:10244C0082F83C00C0B2884202D901200021A0E0F1
:10245C009AF80100032845D0022832D0012840F018
:10246C009A80DFF8F4030078002800F08C802BF0C1
:10247C00A9F8002800F09380012085E070780028EE
:10248C0051D02BF045FB5845DFF8D0B34FF6FE7119
:10249C0003D1BBF81600884207D0ABF81610ADF884
:1024AC001010532004A923F03FFB22F07DF929F0F2
:1024BC00E5FA00208BF8260020F04AFD4FF6FE7B53
:1024CC0069E0012050714FF48060ADF8100004A851
:1024DC001CF067F82BF0CEFCDFF878034FF480513A
:1024EC00026827E0AB4604ADAB2000212A461FF062
:1024FC00B7FC04200A955D464FF6FE7B8DF82C0048
:10250C000AA812F02BF92BF0B5FC38784FF4805157
:10251C0041F288320FE013F0A1FCC748406AD0BBEF
:10252C0020F016FD37E002204FF4805140F6B8320F
:10253C008AF8020038782BF02EFE2CE0C8480DF1FA
:10254C000F01006804AA19F0F1FF01460298C54D6D
:10255C00814213D29DF8200010B1FD208DF820008F
:10256C000420142204AB8B4627F00CFF0BEB4B0022
:10257C004FF6FE7B012105EB80004172AE48002135
:10258C0080F83B1003E00020AB4981F83B000120B0
:10259C00012102F0EDFF304629F0BEFDCBE6A64945
:1025AC0091F83E0020B1886A0028F4D08047F2E709
:1025BC000020002102220023ADF8100002208DF82B
:1025CC00180004A829F09CFF9DE748F204006EE077
:1025DC009B4800780138012867D896480178032970
:1025EC005BD0012961D14178002021F03BFF5CE0F8
:1025FC000120012121F036FF4CE000213222017034
:10260C008D4880F836108D48042100782BF0C3FDDE
:10261C0040E049F28400844315F0F6F948E00521C6
:10262C00017096F83810890721D596F83A10F1B94F
:10263C00052101600120B070002021F0C7FE0220AE
:10264C0028F0ECFA26E07E480078013801280BD8F7
:10265C000020CDE9040004A816F0F2FD20B1774863
:10266C00022100781EF0AEFC49F286001FE0052026
:10267C0000210DE00421017096F83810C90709D02B
:10268C0096F83A10002941D029F0B8FB042001211A
:10269C0002F06EFF24F004040AE08178022904D1D0
:1026AC0001218170002022F0A3FC49F20400844334
:1026BC0020460FB0BDE8F08F49F68600F7E722F010
:1026CC00BBFCD0B15C4F0546387801383870000639
:1026DC0016D05A4E4FF48041307824F0D3FB30B9E9
:1026EC0038692BF0A7F810B928781FF0D1FE307894
:1026FC00402143F698222BF04EFD4F48007810B93C
:10270C000B202BF08FF849F6C600D0E74C4909781E
:10271C0001390129BED8032101600120B07021F0DC
:10272C0055FE01208CE7444EDFF81091DFF814A120
:10273C0000250DF11008002006F1080702903F68F3
:10274C0057B3D7F804B09BF800000028F7D0F02856
:10275C00F5D803210022434624F02AFA0028EED0B3
:10276C0006980188A1B94FF4407086F836502BF0CA
:10277C00D1FB99F800000AA92BF091FCDAF80010B3
:10278C0086F836500029DAD09BF800008847D6E747
:10279C00013901800120D1E7029999F80000C9079D
:1027AC0006D04FF400514FF47A722BF0F4FC03E096
:1027BC004FF4005120F07CFA4BF6C60077E7F06836
:1027CC0040684078C0070CD10E202BF02BF808E0A5
:1027DC0040F209302BF09EFB184800780AA92BF028
:1027EC005EFCF06840684078C1073FF453AF17496E
:1027FC000968C1B128781FF04BFE10B10E202BF0E8
:10280C0011F80E4D0C20402143F698223070287898
:10281C002BF0C1FC40F20A302BF07CFB28780AA983
:10282C002BF03DFC36E780073FF534AF0E202AF045
:10283C00F9FF2FE7887A00209C210020347B0020B0
:10284C0064260020B827002000280020F023002058
:10285C007E010300C42700201D280020F86B0020F7
:10286C00FC630020104000202DE9F04F9FB004467F
:10287C00DFF83C05406818B18047002800F07782EB
:10288C00DFF83005DFF830B50F940DF1400A4FF04A
:10289C00F80800780BF11807411E002C0C9118BF9A
:1028AC0001219BF80290002400258BF80F109BF857
:1028BC0001100E9184421FD2A14517D0E6B200211F
:1028CC005246042330462AF0E5FE109810F4403F9F
:1028DC0040F00400C0B218BF01357C2806D1304648
:1028EC000621F82229F03AFD87F80080DFF8C404AD
:1028FC000C3701340078DDE7E9B201380022884258
:10290C0004D19BF80500002800F04E82DDF83C80D5
:10291C00CDF834900DF15C09C8F50050B8F1000FFA
:10292C000190404608BF10200125C0F500500490CE
:10293C00002003900E9E0C9F0024380400F0F181BF
:10294C009BF80F0008B98BF80F50F0B2002110AAB9
:10295C0004232AF09FFE1098B8F1000F19D010F440
:10296C00403F19D04FF40050DFF848140134013FB8
:10297C00ABF810009BF80F00097801388BF80F00AA
:10298C0055FA86F0B0FBF1F202FB11068BF80D60E4
:10299C00D3E70021069102E00E960C970694C0B284
:1029AC000E9F0024702803D0F8B2702125F084FE0D
:1029BC000D98002110AA04235FFA80FA50462AF0E1
:1029CC0069FE9DF84000FE2803D05046FE2125F0FC
:1029DC0073FE50460621FE2229F0C0FC4FF4005035
:1029EC000D9B0BF116015A468BF80D70ABF8144089
:1029FC00ABF81000FF20D67B8BF80E00F8B28BF8EA
:102A0C000C30400050FA87F001EB8000B0F806B0B3
:102A1C00DFF89C0304704FEA4A00A2F812B050FA97
:102A2C0083F001EB8001FE200D4605F8020F31F812
:102A3C00060F0890DF480591047816A824F0FAFFD9
:102A4C0056FA87F0CDF82CA0013890FBF4F101FB7D
:102A5C0014000290169809900E97FFB2574500F09B
:102A6C005A81A7EB0A00B0FA80F040090A900020C6
:102A7C0007904FF0010AC00740F09E801FFA8BF4BC
:102A8C00162C72D9CA480078002840F06A81ABF144
:102A9C000706384611AAB1B21AF06AFDBDF8528089
:102AAC0008F11000A0420FD89DF84E0096280BD1CB
:102ABC00A6EB08049DF84D2041463B461FFA84FACC
:102ACC0050461EF04FFA18B3ABF1010B4FF0010A50
:102ADC005C46A0B2172865D33628A4F116063846F2
:102AEC004A4688BF2026A41BB3B2A1B22AF0D2FD5D
:102AFC003004EED019FA86F010F8010C962801D0AB
:102B0C00013EF5E7DDF83C8006EB040B0020B2E754
:102B1C009DF84F00C10701D1800704D40020A346C3
:102B2C00DDF83C80A5E708F1070083B2089813FA9A
:102B3C0080F6B6F5005F01D90120F1E780B2A1491A
:102B4C0018440A1A384651462AF0A4FD0798013059
:102B5C00B6F5005F079004D101204FF400510891A5
:102B6C00DDE70020A3460896DAE7079810B19249F2
:102B7C002AF0F6FE0298C0B2874200F0D0808D4950
:102B8C000E9809785AFA80F0DDF82CA0B0FBF1F21F
:102B9C0002FB1107884907EB470001EB8000B0F8F6
:102BAC001CB059E7854809990068426884489047E9
:102BBC000020DDF83C8005E0079810B17E492AF032
:102BCC00CFFE00200A900E980D90794800780028CE
:102BDC0040F0C780089C1021A4F11000C4F50052ED
:102BEC0083B20B98C1F2001224F040FF704A1178A6
:102BFC000843099910707148006842687048904702
:102C0C000A9888B16B4800783918013991FBF0F2B9
:102C1C0002FB1011C8B20D91400050FA81F06649C8
:102C2C0001EB8000B0F81CB063480123A0F814B08D
:102C3C00834604820D98BBF912209BF80D108BF87B
:102C4C000E00059804800B9C204627F0F1F8BBF988
:102C5C0014209BF80E102046022327F0E9F8BBF84D
:102C6C001000B8F1000F0AD00199DDF80CA0069EF7
:102C7C008142A2BF4FF0010A0121039102E0069E9E
:102C8C004FF0000A049981424FF07C01B8BF7821C3
:102C9C000B9C204625F010FD10F0E8F907469BF838
:102CAC000F000621FC22C01B8BF80F00204629F0D8
:102CBC0055FBFC209BF802109BF80E30287017FA7D
:102CCC0086F001443B480E930078B1FBF0F202FB16
:102CDC0010118BF802100D910131CAB2B2FBF0F257
:102CEC0002FB10118BF8011003EB43010BEB81017C
:102CFC00898B102906D10E990131B1FBF0F202FB40
:102D0C0010100E900C980125C01B0C905FEACA7035
:102D1C003FF410AE05E0012057460A9055E70298A3
:102D2C0052E77C2025F0E2FC0446FF2825D17E20CA
:102D3C0025F0DCFC0446FF281FD19BF8014004EB76
:102D4C0044000BEB8000807DFF2812D019489BF8C3
:102D5C00021000780144013991FBF0F202FB1014CF
:102D6C000BE0164809990068426815489047002204
:102D7C001AE020467E2125F09FFCE0B2FE218BF864
:102D8C000340400050FA84F00BEB8000808BABF8D2
:102D9C0006009BF8020025F08FFC00208BF8050044
:102DAC00BBF81000C0F5005210B21FB0BDE8F08F98
:102DBC00502300202C7B002038730020D8010010F9
:102DCC0000400340002000112DE9F04F89B025F0A0
:102DDC00B1F9DFF810158122DFF81485DFF814A59E
:102DEC00DFF82045DFF814E50A70DFF8FC14086002
:102DFC00DFF8F804FF2101700020DFF80415A8F8B3
:102E0C0000008AF80000DFF8F0040968007891F8F7
:102E1C0008B04FF6FE718EF8000059448AB2A168D2
:102E2C00D1F80031DB899A4200F267810422DFF885
:102E3C00DC54A8F80020DFF8D02412689668330E12
:102E4C00CEF80C60C6F301592B706FF0FF0303EA48
:102E5C001627B3B2D1F8B86047EA1327AEF804705E
:102E6C0036781EB9B9F1020F00F04781B9F1030FA2
:102E7C0000F043811B0A03F0070316B1002B00F08E
:102E8C003C81DFF88CC4042B9CF800C008BFBCF15B
:102E9C00000F00F032813EB1DFF878643678862E70
:102EAC0002D1022B40F02981BB0416D4BBB203F033
:102EBC000703022B08BFBCF1000F20D0DFF854141D
:102ECC000978862909D10020764625F087F9DFF8A4
:102EDC004004B64690F800C0307800284ED0BCF1C3
:102EEC00000F4BD1012800F0088103283FD00228A5
:102EFC0044D1BEF80400400740F0FF803EE0D1F81A
:102F0C00D40090F88300022800F08080274605202A
:102F1C00147BF246A946A8F800002AF0D5FD054618
:102F2C00DFF8F003007886286DD1B868016C096869
:102F3C0011B9D0F84C05804760B2002100262BF067
:102F4C0017FAB9680A6C12685077086C00688677B3
:102F5C00086C0068C47728462BF0EDF8BAF804101A
:102F6C0099F8000001F0100120F0EEF84EE0BEF8E8
:102F7C00040000F00700032840F0BF80BEF80400F6
:102F8C00010700F1BA80810402D4810500F1B580FB
:102F9C009EF80E20C2F38107012F00F0AE80960937
:102FAC00012E00F0AA80B9F1010F11D840F00201F6
:102FBC0001F0070103290BD117B93F2A40F29D807C
:102FCC0037B9A168D1F8AC100978002900F09580C8
:102FDC004FF6FB71B9F1020F0BEB010C19D1CF4B72
:102FEC00D95D9B5D03EB01090023402AB7FA87F2F8
:102FFC0038BF012352091A40430616D4002A08BFD1
:10300C0009F1020915E028462BF095F829F090FB00
:10301C0075E0C14B402AD95D9B5D03EB010908D3D8
:10302C00420648BFA9F1020903E0002A18BF4FF07D
:10303C000209C0F300205FFA89F11FFA8CF30A1A17
:10304C008EF801009A4258DC60440391B346401A52
:10305C00A168AEF806007430D1F8501280B28847DF
:10306C00A6490028886048D07421CDE901972BF03F
:10307C002BF8A24F0020B870A548007820B93879F9
:10308C0000F020008AF8000078789AF80010DFF839
:10309C0078C24FF000092E4600299A493DD00028ED
:1030AC004FF000003AD1B88800F00700032807D091
:1030BC00012832D18868D0F8D40090F8820060B32F
:1030CC00C8684069007818B129F0E6FFFE280DD0D9
:1030DC008C488068D0F84C02804738B989488068A1
:1030EC00D0F844028047002800F0F780834F01207D
:1030FC00B870DFF814C22E4610E029F03DFE2AF01D
:10310C00E3FC814900240A6813681C7112680A6088
:10311C002BF011F809B0BDE8F08F0020BC6804F169
:10312C00740184F830B06160A1657978BB88FA8845
:10313C000029A381029B228184F83A30337808BF9E
:10314C00994697F80EB084F84990019DA4F85C203C
:10315C00FF22B8F80030A273CBF301195E1A797B09
:10316C00A8F8006001F0780160F3820101EB09001E
:10317C002074280600F0AE80DCF8000004AF039A3F
:10318C0010FA86F000F1080138462BF0CFF856FA09
:10319C0085F0CBF38105A8F80000207C00F04008F6
:1031AC00CDB3B9F1020F06D1B8F1000F03D0B4F8CA
:1031BC00440004AF06E0BDF810000237A4F8440048
:1031CC00A4F84200564EF189884203D04FF6FF71A5
:1031DC0088425ED1032D11D104F1320039462BF017
:1031EC001FF8464CF11CA068323028F071FB4549A1
:1031FC0000284ED094F80EB008370EE037F8020BCA
:10320C00B1898842608606D04FF6FF713B4C8842EC
:10321C003C493ED101E03B49384CBBF1400F20D337
:10322C00B9F1020F06D16DB9B8F1000F0AD13348CC
:10323C00806803E0A068017C490603D43988023712
:10324C00A0F84210BBF1C00F06D32C4C3946A06835
:10325C0028302AF0E5FF03E0284C3888A16808855F
:10326C0028498968A088D1F8AC201278B2B1B9F19C
:10327C00020F13D200F00700012802D003282FD12F
:10328C001E4C6DB9264AA368D289B3F842309342DA
:10329C0006D01BF0C0F91BF0FBFF30E700F0070075
:1032AC00032806D0012815D1D1F8D40090F882005B
:1032BC0080B1A068D1F848128847104A50B9002054
:1032CC00D17B9070907BC1F3011100F07800084421
:1032DC009168087408F0E6FA11E7084FB87808E727
:1032EC00064CDDE7457B0020D47A00204A7B002089
:1032FC001C7B0020487B0020477B002050250020B1
:10330C00087B00200C010020607A0020577B0020F5
:10331C00567B00204D7B0020200103001C01030084
:10332C00847900202DE9F04F97B0DFF8DC64054676
:10333C00DFF8D87430780328387040F03C810020D6
:10334C00307038700DAC20462AF076FF20460021F4
:10335C0029F0F4FADFF8B894B8603A2148462AF01C
:10336C00B3FE4FF0FF30A9F81400C9F81000C9F8EB
:10337C000C0026F073FD0020294621F01DFC07F1FE
:10338C001001F8602AF0E9FED7E90502DFF884B4F1
:10339C00B0FBF2F1C9B2032928BF0321B2F5005FDB
:1033AC0089F800108BF8001040F00381B0EB413F1E
:1033BC00C0F0FF80F868002800F0FB804FF400504C
:1033CC00FF224FF0000845F201174FF08855A9F87D
:1033DC000600FF2089F8032089F80580059000205D
:1033EC00CDE90800CDE90600CDE90A000C90FF20DC
:1033FC000490CDE90200CCB2A04580F0DF805FFAEA
:10340C0088F6002116AA042330462AF043F9DFF887
:10341C000C443046002115AAA0473046012114AABD
:10342C00A0473046022113AAA04716996FF06F00EF
:10343C0050FA81F2C8B20E2A04D8012303FA02F220
:10344C003A4203D1A0F1FE02022A04D242F2835284
:10345C00B2EB914F1ED0304617F04AF9DFF8AC139F
:10346C000028087040F0CB803046002116AA0423B7
:10347C002AF010F9DFF8A4433046002115AAA04722
:10348C003046012114AAA0473046022113AAA047B6
:10349C001699C8B208EB4802CA4609EB8204C1F37C
:1034AC000142090AE1759DF8561004F11609FD2830
:1034BC00627689F80000217601D9102135E0BDF83B
:1034CC0054104FF6FF7291422FD10EA824F0B2FA8D
:1034DC00304600214FF088524FF400534FF4005700
:1034EC002AF0D8F86FF0030313FA87F7B8B24159F2
:1034FC004A1C01D10328F7D801220126D3B2042B90
:10350C0006D8CBB2FF2B18BF16460132090AF5E7D5
:10351C004151C3480E9900684268C248904799F8D7
:10352C00000057FA86F145F20117A1839DF852105D
:10353C007028A176BDF85010E1839DF84E10E1760D
:10354C00BDF84C1021842BD07828D14624D07C286F
:10355C000BD07E2815D0FE280DD0FF2818D1089846
:10356C00CDF80C80013008901EE00798CDF8108043
:10357C000130079018E00B98CDF8148001300B90B7
:10358C0012E00998013009901FFA88F002900BE0C4
:10359C000C9801300C9007E006980130069003E07F
:1035AC000A98D14601300A909BF8001008F10108E6
:1035BC0021E70120307017B0BDE8F08F0C98934EC6
:1035CC0000060BD10B98C0B2012807D80A98C0B2DC
:1035DC00012803D80998C0B2012812D98E480422B8
:1035EC0000240270CAB2E0B2904211D217F080F8F7
:1035FC003178013408439BF800103070F2E7834EA9
:10360C0018E0089AD0B2A04216D18348002202706A
:10361C00002089F8030089F80100481E7E2189F8F2
:10362C000200B9F81C00A9F80600002025F044F8A7
:10363C002AF052FC3078BEE70A98000624D00B988A
:10364C00059B000603D1039B100600F08580724891
:10365C000222DDB289F802300270581C82B2B2FB31
:10366C00F4F202FB110089F80100284617F040F82B
:10367C0030702846FE2125F01FF8012089F805003E
:10368C000020FFF7F1F8D5E70B98000605981DD040
:10369C0003466148012289F802300270C8B2591CF5
:1036AC0089B2B1FBF0F202FB1010049A91B289F8C6
:1036BC000100FF291ED10299FF2940F0978081B2A9
:1036CC0089F80300490011FA80F093E0DDE9062047
:1036DC00104300063FF482AF26F094FBA0423FD388
:1036EC000898000600F08C802AF0F6FB9BF800107E
:1036FC00039BCEE7480089F8032010FA82F009EB0F
:10370C008000818B1829A9F8061093D30739D0B201
:10371C000EAA89B219F02CFF9DF843004007AFD5D3
:10372C00B9F80610BDF84620002399F80300009361
:10373C000323891A0EAA073989B209F033F8002835
:10374C007FF478AFBDF8441000293FF473AF9DF8B7
:10375C00480020F0DBFB6DE726F054FBA0424FD273
:10376C002D480321017026F04DFB044689F80C000E
:10377C0000EB400009EB8000408BA9F80D000FF026
:10378C0075FC9BF800102044B0FBF1F202FB110019
:10379C0089F802000130C2B2B2FBF1F202FB110057
:1037AC0089F801007C2024F0A1FFFF2812D17E2093
:1037BC0024F09CFFFF280DD1FF2024F097FFFF2859
:1037CC0008D1782024F092FF014699F80100FF29D6
:1037DC0018BF0846C1B289F80300490051FA80F0BD
:1037EC0009EB8000808BA9F8060021E701EB410072
:1037FC0089F8031009EB8000808BA9F8060019E703
:10380C00054806210170FEE7FB270020502300200D
:10381C00387300202C7B00203B7B002041DB020016
:10382C00D8010010004003402DE9F84305460C4632
:10383C00480413D4A00024D4A0075CD460057ED423
:10384C00200500F10681200700F13B81600040F16A
:10385C00F6801CF079FF24F08044F0E02AF034F973
:10386C00DFF81C140F6D3FB1D7E90A1202F0E042E9
:10387C0001F00A01891849D02AF05DFC24F4804437
:10388C00DDE0BB48DFF8FC73016841F080010160AA
:10389C00B878012804D1042024F0AAFF0020B870C5
:1038AC002AF012F9064604202AF098F9DFF8D8130A
:1038BC000A68904219D12A7EBAB1FA68AAB1DFF827
:1038CC00C003806C002800F09780C16840F60302AA
:1038DC000988914206D0C06840F6040100888842ED
:1038EC0040F08A8005F1140088E040F6C4120860AC
:1038FC00C5E9042284E00BF077FEDFF88403006C4A
:10390C00002840F09D8024F0020498E0D7E90A6575
:10391C00D7E90A12AA43B143C7E90A122AF00BFCF1
:10392C00B8680028AAD056EA0500A7D0D7F808C076
:10393C003869B7F9301032462B46E0479EE72AF03B
:10394C00C3F8054627F0FEFC002800F0B780CC48F1
:10395C00876B002F00F0B280DFF828830420CB495E
:10396C00002288F81800C64829F08AFA2AF00DFCC3
:10397C00C7482AF0DAFBC7480068006B8047C8F8D4
:10398C0010000125042088F8025025F057FD3869F5
:10399C0090F82810C8F80400490703D5436A04219D
:1039AC000022984701201EF03FFCD8F80400457611
:1039BC0015F090FED8F8040081680B461A465B6837
:1039CC004BB11E88A6F60306072EF7D805FA06F6A5
:1039DC0016F0830FF2D0537B03F0F00301335373D3
:1039EC000023FD6853602D88A5F60305012D00F218
:1039FC008A80C8F810309FE005F1100021F0C8FF54
:103A0C0030462AF098FB25F031FD78B12E6A284615
:103A1C006FF4807100224FF00073B0479848806BB0
:103A2C0010B11CF091FE01E044F00204EE6928464E
:103A3C00002100224FF08063B04724F0005434B1D1
:103A4C00974821462830BDE8F8432AF05CBCBDE815
:103A5C00F8838C4EB078012804D1042024F0C8FEE1
:103A6C000020B07025F002FD38B170686FF48071E1
:103A7C0000224FF00073056AA847306950B18548A1
:103A8C000068006B804732697168801A000BC8604F
:103A9C00002030617A4D81490022284629F0F0F946
:103AAC0002203076286C20B17D48022128302AF083
:103ABC002AFC1CF049FE24F40064C0E72AF065FBE4
:103ACC0041E02AF001F8054627F03CFCA0B1DFF8F4
:103ADC00B48198F8000000070ED498F90000002873
:103AEC000AD4684616F0D6F808B1009820B1DFF871
:103AFC00B49199F8610048B32AF047FB1CF024FEFE
:103B0C0024F008049BE7034633F8385FA5B190F81E
:103B1C00445090F8456005F0F00580F8445006F0EC
:103B2C00F005013580F8455000255360C563458785
:103B3C00507B00F0F000507357480022C2610160C6
:103B4C00012028F07BF824F4806478E70026012714
:103B5C00602E0FD009EB0600817A31B18772407A62
:103B6C0007FA00F0C0B224F05DFE2036F0E700BF8B
:103B7C00CC210840032088F8180045482AF0D5FAD3
:103B8C002AF003FB444F3E4D0022786900207861F7
:103B9C00F968F8602846444929F072F93D480068F4
:103BAC00006B8047D8F80C10D8F82020411A02EB93
:103BBC001130B0EB113F38BF4FF0FF3098F82410A4
:103BCC00C8F8200021B1D8F80810B0EBC12F20D9CB
:103BDC0028F044F8B8B140F60900414621F83C0FF2
:103BEC00002048804A7B02F0F00201324A730A7BC3
:103BFC0002F0F0020A734860F8613960B8F83E00D0
:103C0C0010F4406FFAD00020C8F82000012088F88A
:103C1C00240020F0ADFF2548002101600220002186
:103C2C0028F00CF8022024F0E3FD102015F0B0F879
:103C3C0098F8010020B9D8F8040050302AF05FFB46
:103C4C001B48807810B90D2015F0A2F898F82500C3
:103C5C0028B1002088F82500052024F0C9FD00209B
:103C6C0088F818001348C8F81C000220B5F8561044
:103C7C00B5F85420914208BF07201BF0AFFE3DE77A
:103C8C00A0200020A41E0020102700202DB302002D
:103C9C00E87000208C010010001004407D340100FD
:103CAC00E01F0020706C0020B907020000000460C7
:103CBC0068000300612D01002DE9F04FAFB0044600
:103CCC000020ADF8280094F82400012809D1DFF871
:103CDC00100494F82810807831B1002800F0E981A4
:103CEC0002E0DFF8FC03807848B9207D00F0FE008C
:103CFC00022804D12FB0BDE8F04F1BF047BFDFF80E
:103D0C00E0733878012806D1DFF8D8033979007EC2
:103D1C00814240F0CD80DFF8D8534FF4FA60E06078
:103D2C00286829F047FE18B1E1680844E06007E014
:103D3C00E16828682AF0C3F9DFF8B8032AF0EDFA35
:103D4C0094F825008DF86C0048B1022809D11BA805
:103D5C0004F118010822043029F0ACFD01E0E06AFE
:103D6C001C900DF12B051BA80AAA294619F070FE10
:103D7C000646D0B99DF8381094F8260001F00301DE
:103D8C0081420DD105F10E0004F13401042229F019
:103D9C0091FDBDF82810022041222B461FF0FAFAA3
:103DAC009DF86A0008B1D4490870B878B0B30128FE
:103DBC0040F07F8194F83800E3280DD1B86818B131
:103DCC008047002800F07581F86818B180470028FA
:103DDC0000F06F8194F83800E22804D194F82800A0
:103DEC00002840F066810020002E18BF05460021F7
:103DFC0028226F7B1EAE304629F0AAFB01A80021B9
:103E0C00032229F0A5FB94F83800E32840F0C08089
:103E1C009DF8040040F00801E320DFE0207D042839
:103E2C0000F24781012101FA00F010F0130F00F0AD
:103E3C00408101A8002124224FF0000829F088FBC2
:103E4C001EAF04F1180B04F12C090026BD1C07F160
:103E5C00060AB8F1040F45D85FFA88F0394625F008
:103E6C000AF906460D2820D00A2E00F08C8094F812
:103E7C0025009DF878104140490701D0022614E036
:103E8C0048B948465146042228F016FD002840F057
:103E9C001F8194F82500022807D15846294608228C
:103EAC0028F00AFD002840F0078108F10108D0E74E
:103EBC0094F83800E32840F0FC808B482AF02BFA69
:103ECC0000283FF428AF884C20462AF028FA87486F
:103EDC00C82100682AF0F3F820462FB0BDE8F04F57
:103EEC002AF01BBA002E4ED10020616B9DF8855034
:103EFC009DF878209DF87930069194F83810C5F328
:103F0C0082068DF81C1094F82910002918BF083669
:103F1C0006F15001182606EAD202104403F0010201
:103F2C0040EA4210BDF8042040EA8510C0B21043AC
:103F3C0040EA0120ADF8040094F8400058B18DF827
:103F4C001D002AF03BFA089028B194F8402004F1A7
:103F5C00410129F0AFFC6348C08AADF8240094F904
:103F6C00150010F16D0F0146D8BF6FF06C0129F0F0
:103F7C00F0FCC8BF3B21A07D002818BF012041EAFE
:103F8C00C0108DF82600E17D01A801F043FF90E000
:103F9C0094F8251011F0070112D0022914D106F162
:103FAC00080004F11801082229F084FC94F8380068
:103FBC0094F83010E3288DF888100AD10A212BE7E9
:103FCC00E16A1F91002105E09DF8041021F0080121
:103FDC0000E0022194F8292041EAC2019DF8052055
:103FEC00022301F00F0163F3051294F82630022B23
:103FFC0011D394F82760012E12D0AEB9C7F3820604
:10400C00042E69D80127B74017F0160F64D022F0A0
:10401C001702324408E0002B08BF22F0170203E01D
:10402C0042F0040222F0130263F30511237D032BEB
:10403C0003D1E36B42F0080227938DF89000606B7C
:10404C00C2F3C0035B02239002F0070043EA801026
:10405C00C2F30013C2F3401240EA832040EAC220AC
:10406C000844ADF8780094F8400020B18DF8910028
:10407C0004F1410025901B482B46C08AADF89800EE
:10408C0094F9150010F16D0F0146D8BF6FF06C015B
:10409C0029F05FFCC8BF3B21A07D002818BF012080
:1040AC0041EAC010E17D8DF89A001EA81BAA0AF007
:1040BC00F5FB2FB0BDE8F08F01A859460822083057
:1040CC0029F0F8FB94F830008DF8140002200CE76E
:1040DC00D9F80000029007E702F0E802A4E700BF5D
:1040EC0088240020F86B0020F8710020BC7A002096
:1040FC00B87A0020B47100204D2600202DE9FE4F27
:10410C008846080426D45FEAC87004BF0020BDE8C6
:10411C00FE8FE54805682AF0B0F804462AF0ABF8A3
:10412C0060434FF47A714FF6FF72B0FBF1F14FF62A
:10413C00FF70002D00F01A812B886C88CB1A9BB273
:10414C009C4240F21C81E31A94B2A342B8BF1A46B7
:10415C00ED68EEE7DFF840A3CDF804809AF8000094
:10416C001EF00AF8002800F0FC80064600780128B2
:10417C0040F0EC80DAF8041096F83390D6F814B0CE
:10418C0096F8138021B148468847002840F0DE801D
:10419C00718896F83100022226F04CFB0546002867
:1041AC0042D0287A297CA0F10108FF2900F0BB80BD
:1041BC00707F4F46C00718BF0027E97C287D01445B
:1041CC00B94204D8E974FF2101FA00F06874A969B6
:1041DC00A87C96F83020896A10FB0710F16A29F048
:1041EC0099FA287D697CB7FBF0F202FB1070012272
:1041FC008240D2B20A436A74C8457CD196F830101A
:10420C00AB7C13FB0713A9698B844FF4FF7303FA80
:10421C0000F0C0B21043FF2868746CD1287C1DF0EC
:10422C00D7FFFF2028747FE0707FC00700F08E80DE
:10423C00B07F29F0E7FA002800F0888004461C20A3
:10424C002AF04DF8002800F081801C21054629F049
:10425C003BFFB07F02A927F0E6FA9DF80900022186
:10426C002875284627F08AFB708896F8312096F836
:10427C00301096F83330A880287DEA71FF2202FABC
:10428C0000F0687460680078A9742874302013FBFF
:10429C00010080B226F0B4FF0028A8615DD004466E
:1042AC001A20B11C2060708CA080A01D28F060F931
:1042BC00F27F04F13000B17F96F82830C4F81CB0BE
:1042CC0084F81980A062307CE273744A217563759E
:1042DC000121A075928C2282F28EA285F28C6282D0
:1042EC00B6F81100A4F817009AF8000085F80890A9
:1042FC001CF068FE55E729F0C0FF044629F0BBFF0F
:10430C0060434FF47A71B0FBF1F065492880634843
:10431C00097800794843642148436249097800FBD5
:10432C000100688000E04F46E87C297D6A7C0144EE
:10433C000139B94218BFFF2A0CD186F833007088B6
:10434C0006F11C0186F834201AF0F0F8304627F0FC
:10435C00E3FE03E7C845F9D1EFE7284627F01EFB3B
:10436C00F4E7019880F40040BDE8FE8F92B28242DF
:10437C004BD049480121007829F00DFF45E0A87980
:10438C00022806D1287CFF2837D0A86927F0C4FE64
:10439C0033E029F072FF044629F06DFF60434FF4BF
:1043AC007A71B0FBF1F03F49288095F83800097814
:1043BC0088421BD295F83620FF2A06D195F8372073
:1043CC00013085F8380085F8362095F8351095F8C9
:1043DC00394082F0FF0300200126C7B2A7421DD24C
:1043EC0006FA07F71F4214D10130F6E7EA8BA87ED4
:1043FC0095F82A10E92322F053FE284627F0CEFA2E
:10440C002548012100781CF0DDFD88F00100BDE895
:10441C00FE8FFBB201441A4385F83620AB8F95F81A
:10442C003440C8B204FB10339EB2A64203D2FF2222
:10443C0085F8362002E0FF2A08D12346184A174E89
:10444C001278367972436426724302E095F83A206A
:10445C0023466A802A8D0E0606D022F020024443A1
:10446C002A852A6C224404E042F020012A6C29851A
:10447C00297A85F82E10E9796A6285F82D10D9B25F
:10448C0069840549496811B188470028B8D105F1FC
:10449C00100005F08BFEB3E780260020F86B00209F
:1044AC00282800202E280020C45A00202DE9F04F87
:1044BC00C3B00DF1450B884601469146584629F08C
:1044CC00A9FE00250DF1040A4FEA0876042D3AD80E
:1044DC00ECB25146204624F0CEFD0D2803D0074601
:1044EC000A2802D17EE1002E2FD4204659461DF019
:1044FC0066F801350028E9D0002E51D40BF13701B4
:10450C000DF18600022229F0D5F9BDF886009DF840
:10451C003A10ADF8C800C80700F083800AF13707DD
:10452C0032A90222384628F0C7F99DF83A10012822
:10453C0077D101F0FE00FF2104228DF83A003846B5
:10454C0029F006F86FE001274CE1022021464122B8
:10455C005B461EF01FFF0746B3480BF10B0129F019
:10456C002BFB68B90BF13701204629F0F9FD38B95E
:10457C000BF13B01204629F0F3FD002800F03281BD
:10458C000C2029F01BFF002800F0198129F0C7FC32
:10459C00B9F1000F18BF4FF0010984F80A9005E13A
:1045AC009DF84500400661D49DF84600C00700F018
:1045BC00A48032AF0DF14501384629F02BFE0DF1E8
:1045CC00860901A9484629F025FE9DF8BC00810703
:1045DC0000F1288110F001054FF03B0007F1370185
:1045EC0008BF37200422484429F064F90220002D2A
:1045FC0008BF01209DF8BC10084349468DF8BC004B
:10460C0001A829F007FE08F060009DF8051040385D
:10461C00B0FA80F001F0FE01400908448DF8050065
:10462C006BE0880733D44FF0FF300BF1220629F0F2
:10463C0061F83846314628F03FF90AF12C05E0B311
:10464C00384629460A2229F035F932AE28460A2284
:10465C00314629F02FF93046394629F090FD0028D3
:10466C0000F0B98001A828F04FFFB4E04FF0FF3004
:10467C0029F040F832A8394628F01EF90BF122092E
:10468C0030B3384649460A2229F014F927E00AF1DA
:10469C003B0632A90222304628F00EF99DF83A105A
:1046AC00012840F08E8001F0FD00FF2104228DF8DE
:1046BC003A00304628F04CFF8DE02846314629F070
:1046CC005EFD002800F0928032A928460A2280E084
:1046DC003846494629F053FD002800F0958008F033
:1046EC0060019DF804006039B1FA81F100F0BF005F
:1046FC00490940EA81108DF804009DF846008106B6
:10470C0008D50AF10B000BF10B01022229F0D2F8AB
:10471C009DF84600400613D59DF805000BF10D01E0
:10472C00012240F040008DF805000AF10D0029F03F
:10473C00C1F80AF112000BF11201102229F0BAF89B
:10474C009DF84500800605D59DF8040040F020003A
:10475C008DF804000AF10E000BF10E01042229F071
:10476C00A9F8BDF88400214641225346ADF8430018
:10477C0002201EF00FFE07462B480AF10B0129F010
:10478C001BFA58B90AF13701204629F0E9FC28B97F
:10479C000AF13B01204629F0E3FC18B30C2029F068
:1047AC000DFE60B129F0BBFB0120A0721F48214611
:1047BC00007829F01DFC204629F09EFC12E0102701
:1047CC0010E041F00100314604228DF83A000AF164
:1047DC00370029F06FF801AB0220214641221EF070
:1047EC00D9FD0746384643B0BDE8F08F32A83946AC
:1047FC0029F0C5FC0128EED132A8294629F0BFFCCE
:10480C0001283FF42FAFE6E70AF12C0732A80A2261
:10481C00394628F051F800287FF433AF3846494622
:10482C0029F0ADFC0C27DDE7F86B00203C7B002069
:10483C002DE9F04F8FB00C46080430D4A00448D4B6
:10484C00A00652D4E00600F10D81600600F11C8137
:10485C00200600F11E81E00500F12081200500F109
:10486C002281E00400F13581600400F13C81A00755
:10487C0000F15081A00500F15E81200700F16881F4
:10488C00600500F16B81E0034FF0000540F1F8800A
:10489C001EF076FEBA48C57084F48035F0E0B64858
:1048AC0000781DF069FC88B10178B44A05460020F7
:1048BC00582808D0135C08308B42F9D1104450F8BA
:1048CC00041C28468847284627F026FC84F400451B
:1048DC00D6E020F0ADFC28B10546FDF797F8284648
:1048EC0027F01AFC84F40055CAE0A34F2021387835
:1048FC0022F0C8FADFF888824FF00109D8F80810C6
:10490C00084317D029F0B9FC054629F0B4FC6843DC
:10491C004FF47A71B0FBF1F0D8F80810401A4FEA56
:10492C00500938BF6FF000490025002964D0B9F157
:10493C00000F61D000200421002226F00FFA064659
:10494C004FF0060A4FF0FF0B4FF6FF7802AD002E2A
:10495C004ED0304604210022374626F0FFF9064699
:10496C003889B0EB090038BF002038810004EED143
:10497C00B87BD0B301280AD17889400707D43868AE
:10498C0087F80DA0B721407B20F00AFCDFE73968DF
:10499C002A468DF806B0ADF80480086AC97F0EF07F
:1049AC005FFF01281BD1B87BB97A8DF83800090755
:1049BC00788A40F08002ADF8362006D540F4C070FD
:1049CC00ADF83600387B8DF83A00786910B1007B71
:1049DC00ADF81800284601A9002203F00FFF387B20
:1049EC0087F80DA018F044FCB1E701207873AEE70E
:1049FC00DFF88C81604F4D4626F027FB002001210B
:104A0C00002226F0ABF918B1387820211CF0DAFA24
:104A1C00002004210022002626F0A0F960B30689AC
:104A2C000421002226F09AF928B1B1B20689B142CC
:104A3C0038BF0E46F4E7A8B2B1B2814217D9D6FA04
:104A4C0055F0202180B24200387829F0A4FB29F0DF
:104A5C0014FC054629F00FFC68434FF47A71B0FB47
:104A6C00F1F609E00AF0CAF984F0100508E038788C
:104A7C0020211CF0A7FA0026C8F8086084F0200555
:104A8C0028460FB0BDE8F08F0EF0E8F984F0400531
:104A9C00F6E727F0E5FF84F08005F1E725F07EFFCF
:104AAC0084F48075ECE71EF057F93748007801283C
:104ABC000CD13448007848B14FF47A7100FB01F204
:104ACC002D484FF40061007829F062FB84F40065F6
:104ADC00D6E72B48017819B1002101701EF03CF982
:104AEC0084F48055CCE72A48006880B127490978BE
:104AFC0001290CD180472748006800B180471E4827
:104B0C004FF480414FF47A72007829F041FB84F421
:104B1C008045B5E72048007890B102AD284629F0D1
:104B2C008EFA28F0E3FF1D490B781D490A782946B7
:104B3C001DF0CAFA09E018F011F884F400759FE72B
:104B4C001848418B012029F0C0FB84F0020597E73F
:104B5C000B48012184F00805817091E71248007818
:104B6C00022808BF16F0ABFE0E480121808C29F0FC
:104B7C009EFB84F4806583E72D7B002024F90200E2
:104B8C004026002033280020342800203228002022
:104B9C00842300209023002009280020372800209F
:104BAC0038280020F86B00206426002070B586B0F1
:104BBC000C46080403D4600432D400203DE0C648FF
:104BCC0000781DF0D9FAB0B305460078A0F1D001F9
:104BDC0006292AD9A0F13101062965D31A2844D017
:104BEC00FD286FD0FE2840F08780162026F008FBA9
:104BFC00002859D006460230142129F065FA93207A
:104C0C0030802A796878A978EB88012A3381307151
:104C1C00317418BF0222B271E978A878317566E058
:104C2C0023F07EFD24F4404007E00120884010F082
:104C3C00750F04D038E024F4004006B070BD012993
:104C4C0027D1A64E6878B17881422DD006F8020F94
:104C5C00A34B4FF000700021324624F0EFFE16F803
:104C6C00010CA04981F868001EE0302026F0C8FA3B
:104C7C00D0B13021064629F027FA9220A91D3070B8
:104C8C00A87B032830716AD1B01D082228F042FDA0
:104C9C0067E0E889A0F50041062937D8DFE801F084
:104CAC0008C7D204A4E0BC00284627F035FAC2E7B6
:104CBC0028461CF0E7F90028F6D06988944B064684
:104CCC000120D7E00A2026F09BFA0028ECD00646FB
:104CDC000020C6F80600C6F8020091203080A878A3
:104CEC006978EA7870713171B271A988318127F0D5
:104CFC00EFFF00286CD173E02846FBF799F90028E8
:104D0C00D2D0A87829461DF063FA94E748F2360110
:104D1C00884200F0BE8048F22001884200F0D18029
:104D2C0048F22101884200F0AC8048F2220188420E
:104D3C0000F0B78048F23401884200F0BA801328A2
:104D4C00B2D100206E460290CDE9000028463146D3
:104D5C0027F0BAFB69886F4B4FF080707EE00888B3
:104D6C00F080D5F80200C6F81200E88AA6F81B00FD
:104D7C00E87BB073288A3082688AF082287D30768E
:104D8C00687D002818BF01207076687E002818BF47
:104D9C000120B076287E7077E869306295F82000A3
:104DAC0086F82400A88DF08495F82E0086F828004B
:104DBC00A88C708529F093FA0028F0623FF474AF48
:104DCC00AA8CA96A28F0A6FC287D27F081FF20B1C7
:104DDC00007931461DF0FCF966E7F06A29F07DFA9E
:104DEC00304627F099F95FE76E461821304629F0D6
:104DFC006BF92846314627F0E7FE6988414B1020B5
:104E0C00324624F01BFE039818B129F066FA0020F4
:104E1C000390059890BB47E7284625F0CFFB002868
:104E2C003FF442AF6988354B0646402022E02846C5
:104E3C001CF028F900283FF437AF6988334B06463D
:104E4C00022017E06E461221304629F03DF9284623
:104E5C00314618F0F5FE69882B4B0420324637E0BA
:104E6C00284625F0ABFB00283FF41EAF6988244B85
:104E7C0006462020324624F0E1FD304629F02DFA7A
:104E8C0012E7A86969881C4B29F00DF84FF4005003
:104E9C001EE0A8696988144B29F005F84FF48000CE
:104EAC0016E0A8696988124B28F0FDFF4FF400400A
:104EBC000EE0A86969880D4B28F0F5FF4FF48010BF
:104ECC0006E0A86969880B4B28F0EDFF4FF4804091
:104EDC0024F0B4FDE8E600BFF9630020C0260020F2
:104EEC0021B90200F86B002043A7020019A70200A9
:104EFC006DA70200EFA60200C5A6020065280200FD
:104F0C000D28020051B001002D7701002916020076
:104F1C0087160200114A020098B0BE4E01214FF0D4
:104F2C000109306028F08CFF05200DF10B040121E4
:104F3C008DF80B001020224628F034FF10200021A1
:104F4C00012223464FF0000828F004FA9DF90B00CB
:104F5C0027F0F2FA03AF384629F068F8AE4D00217D
:104F6C003A468DF80C8005F11404204627F050FCCD
:104F7C006C6028F053FF05F1080A2146524623F0D5
:104F8C0003FC2870A548A0F80880A0F8008006AFA4
:104F9C00384628F01FFB002039460FF051FCE86022
:104FAC00012039460FF04CFC28614068007828F04D
:104FBC0055F810B9287829F00CF8994FE86839465B
:104FCC0029F0ADF82869394629F0A9F8082006F827
:104FDC00040F94483146B060287817F085FE06F12E
:104FEC001001082020F044FA25F094FF8E488F4AD7
:104FFC000178082023F07EF98D4908201EF0A0F9D5
:10500C0028781FF07BFA8B488DF82A908DF8249025
:10501C008DF81C900DF11809494608908648CDF87A
:10502C0026004FF4006006908448CDF82B002878B9
:10503C0028F0D4FF06AF4421384629F045F840F259
:10504C0001103946ADF85600287828F0A9FF7C48A5
:10505C007C4A0178082023F0C1FF28784FF4806146
:10506C004FF400724FF48073CDE900215146224673
:10507C0016F09CFE8DF81880287806AE314628F084
:10508C00B2FF06F1060A714E4FF00A0B20464FF0A4
:10509C00FF310FF047FC0028F8D028781DF06CF891
:1050AC00002875D001780746922921D0E52907F10F
:1050BC0004003CD0CA2933D0CB290FD0E22914D01C
:1050CC00E3290FD0C5295CD13879002859D128782B
:1050DC0049468DF818B028F086FF52E0287828F061
:1050EC0069FF4EE023F0C6F94BE017F053F948E0A6
:1050FC00D7F81200B97BCDF81A0038798DF8271043
:10510C00398AADF82810411E8DF82600022903D3E8
:10511C0003280FD00F2812D1F888ADF81E000EE02E
:10512C00287849468DF8188028F03FFF29E028F0B0
:10513C00D3FF26E0B91D5046082228F0EBFAD7F829
:10514C001600CDF82A00F87E8DF82E00B88BADF83D
:10515C002F00B87E8DF83100386A0D9097F8240036
:10516C008DF83800F88CADF8440097F828008DF8CD
:10517C004600788DADF83C00F86A1090484602F075
:10518C00EBF9384614F0C6FE10B9384626F0C4FFC9
:10519C00A868810723D4C1050BD53078012802D12A
:1051AC001CF050F901E014F0EFFFA86820F48070B7
:1051BC00A860810505D51AF0E9FCA86820F40070F8
:1051CC00A860410505D51EF043FBA86820F480605B
:1051DC00A860010744BF20F00800A86056E7002033
:1051EC00CDE9060006A814F02BF829F044F84FF48A
:1051FC007A71B1FBF0F04FF4FA61484315F0B6FF49
:10520C00FF20032122F0E0F928F01DFF0E480121B8
:10521C000160FEE720230020BC220020007A002041
:10522C0065B70200EC240020AC01030028F5020055
:10523C00B984020000F8FF07FFFF0104030100011D
:10524C00AA010300700103007C0520438A2400207E
:10525C0092B0DFF8D092D9F8000010B1002180F89C
:10526C004510483024F0CAFA28F02EFC804607205E
:10527C0013F020FA1AF0E8FB10B1AB4828F0D4FD7B
:10528C001DF02AF801AD284628F0A4FA04270020C6
:10529C0029468DF8047028F0A5FAA44C206027F05C
:1052AC00B5FE0AAD284628F065F9002029468DF890
:1052BC00287028F067F99E4E306027F0B1FE06ADDD
:1052CC00284628F067F9002029468DF8187028F038
:1052DC0069F93168974D286019B9974828F0A4FDF1
:1052EC00286810B9954828F09FFD206810B994489B
:1052FC0028F09AFD1FF0C8FDD9F800004FF0FF34DC
:10530C0038B1CDE9104410A9082227F035F801284E
:10531C001BD1CDE91044082028F0E1FF002846D02D
:10532C0005460026052E04D828F008FEA8530236A0
:10533C00F8E74FF6200029460822E880814828F03B
:10534C00E9F9284628F0C9FF09E0D9F80010CDE9A1
:10535C0010440029DFD07B48082228F0DBF910AA82
:10536C000120082128F01EFD092800D0D8B925F00D
:10537C004BFA800712D4CDE91044CDE90E440EABA4
:10538C0001200021082227F0E5FF60B90EA810A922
:10539C00082226F0F1FF002800F0BD80694A0120A8
:1053AC00082128F005FD6749E22020F0BDFB14F030
:1053BC0039FF242028F093FF634E002830604DD035
:1053CC00624F634C07F10C0528F051FE6149896866
:1053DC00D1F84C1388473068056007F1100528F0A8
:1053EC0046FE21F0A9FA3068456007F1140528F053
:1053FC003EFE24F0A9FE3068856007F1180528F000
:10540C0036FE1DF083FB3068C56007F11C0528F0E3
:10541C002EFE23F09BF83068056107F1200528F07B
:10542C0026FE22F0E7FB3068456107F1240528F0E1
:10543C001EFE20F035FB3068856107F1280528F049
:10544C0016FE1CF0F9FF3068C56107F12C0528F039
:10545C000EFE387011F0CEFE306805621BF068FB52
:10546C003D483E494FF00009CDF8409001603C4862
:10547C000321119010A823F0B1FF28F0B0FA404698
:10548C0028F059FE19F0CCFE28F07BFD012021F00C
:10549C00B3F81CF091FA34480078022808D131484E
:1054AC000078012804D14FF40040012108F042FC9F
:1054BC00264F4FF48041387828F084FBDFF8AC801D
:1054CC0078684FF0FF310FF02DFA3068002550F856
:1054DC002510096821B9691C082D0D46F7D3EFE793
:1054EC0028F027FD316851F825100C68C1F80090A0
:1054FC0028F05AFE58F825200020214690470446F3
:10550C0028F017FD316851F825100A6822430A600B
:10551C0028F04AFED4E70B480EA9082228F0FAF826
:10552C0041E700BFAC27002004FD0200747A002084
:10553C00787A00207C7A0020F7FE0200E4FE02005C
:10554C002EFF0200387A0020007B0020F82000207B
:10555C00958702000C0100209C230020A5F8010077
:10556C00008D15004B2800206426002060FC0200F2
:10557C007FB50138062800F2E0800C46DFE800F029
:10558C0004703B54288E9B00B648007801380128E3
:10559C0000F2D380002C00F036810020032100247F
:1055AC0022F012F8AC4DAD4E0420042132222870AA
:1055BC00307828F0F0FD0820002108F0BBFB307893
:1055CC006C704FF4805104B0BDE870401DF070BB9E
:1055DC0002208DF80E009F48002C7DD00021A34A9C
:1055EC0080F83610A04828F0CFFA0020032121F0D3
:1055FC00EBFF072087E09B4800780138012800F278
:10560C009C80964804213222007828F0C4FD002C9E
:10561C0000F0D6808F4C904801210170E069002881
:10562C0048D022F053FCF9E701208DF80E0054B15C
:10563C00884800218D4A80F836108B4828F0A4FA4F
:10564C00072026F04BFB844800213222017083484E
:10565C0028F011FD7F4890F8371001F0FD016AE049
:10566C000020002528F0EEF87D480121017004206F
:10567C008DF80E0024B17748C586072026F02EFB46
:10568C0075480421322205707448007828F083FD97
:10569C00704890F8371001F0FE014CE06D4C03207F
:1056AC008DF80E0094F8360008B90120A07120780E
:1056BC00002855D07FBD00258DF80E5094B313F003
:1056CC0001F965480D21C8220570624880F8361032
:1056DC00624828F0D0FC29E0082180F83610614996
:1056EC000978012911D890F83A0070B900200DF111
:1056FC000B018DF80B00522020F016FA27F094FDC8
:10570C0023F00CFE002026F0E9FA53480021322247
:10571C000170524828F0AFFC4E4890F8371001F059
:10572C00FB0108E04B48022180F83610494890F8FC
:10573C00371001F0EF0180F837104648016A002954
:10574C00B8D090F836000DF10D01002203238DF82E
:10575C000D004248007800910A2121F00AFA7FBD21
:10576C00206928F067F80028A4D13C4D4FF4804103
:10577C00287821F087FB00289CD1002604F110002A
:10578C00C4E9056625F092FE28784FF480411DF09F
:10579C008FFAA079012806D194F836000B2804BFA3
:1057AC00002084F836002C48A6710178062944D1D3
:1057BC000021322201702878042128F0ECFC41E011
:1057CC00244C022000218DF80C1084F8360022485D
:1057DC00017094F8370000F0FD0084F837000120C8
:1057EC008DF80E0003A9522020F09EF927F01CFD25
:1057FC0023F094FD002026F071FAE06900289CD07B
:10580C0022F064FBF9E7134C0720144D4FF4805140
:10581C0084F8360001208DF80E0028781DF048FA27
:10582C000020002625F00EFA2878022141F2883259
:10583C0084F8376028F0AFFC7FE7C178062904BFF5
:10584C000021C17094F8370000F0F70084F837009D
:10585C0073E700BF9C210020887A0020347B002055
:10586C002628002064260020F86B0020F227002058
:10587C002DE9F04F89B08A4608040DD45FEACA704E
:10588C0040F01E815FEA8A7000F12C815FEA0A7099
:10589C0000F13481002045E1A44F38781CF06CFCF9
:1058AC00DFF89092A74DA24C06464FF0000B48F241
:1058BC001508002E00F001813078312852D03228A2
:1058CC0038D0D32840F0B480F089404574D03828C3
:1058DC0040F0AE80CDF820B0CDE906BB304606A92D
:1058EC0023F09CFE9DF81C10052969D8307B0028FC
:1058FC0040F09E809DF81D00002800F0998005283E
:10590C0000F29680069827F0D1FA002840F090809B
:10591C00707C8949AC467870708808809DF81D00B1
:10592C00214601388DF81D0006A890E82C002CC1EA
:10593C0065467DE06079FF2827D000201AF05CF9DD
:10594C000246B9F8701078783346CDF800B014F0F0
:10595C00B3FF607900286BD038780821322228F008
:10596C001AFC65E0B878032862D899F82E102846FE
:10597C0027F09CFA00285BD1FF2071496071708878
:10598C000880B0886D49088052E099F8181070684A
:10599C0020FA01F2D2071ABF3144097A0021002201
:1059AC001B2A43D020FA02F3DB0703D0B3181B7A6F
:1059BC0099421ED80132F3E7304625F0B7F837E0AC
:1059CC00FF293DD0FE2956D199F872109DF81E0082
:1059DC00884202D860BBFF292AD11FF00DFF06991F
:1059EC0000201B2859D021FA00F2D20756D10130E1
:1059FC00F7E7B9F86E005049334608804F480288E3
:105A0C004F48018810200090002014F055FF012011
:105A1C00F870B87840B93C2002214EF66022B8806C
:105A2C00387828F0B8FBB8780130B87084F805B035
:105A3C00304626F071FB38781CF09EFB064638E7A2
:105A4C0099F872109DF81E00884203D80028EFD1F7
:105A5C00FF29EDD11FF0D0FE069838B1D9F82810E7
:105A6C00814203D0C9F8280026F048F9BDF820007F
:105A7C0027F092F8DCE7307B0028D9D170882E49CA
:105A8C00802200230880707CCDE900BBCDE902BBED
:105A9C00CDE904BB13F028FCCAE71B2099F81820A9
:105AAC00C1B28A42C4D02849087099F80700642111
:105ABC0000FB01F23878012151E72AF4004031E073
:105ACC0021491C4C08782076E12020F02DF826F096
