:20000000003A0120B10F020039FB021039FB021039FB021039FB021039FB021039FB02101F
:1C00200039FB021039FB021039FB021039FB021039FB021039FB021011FB021002
:200040002DE9F04FBB4CBC4E05460120ADF1540DAF7894F83EC031780E902878452835DCB9
:20006000452800F09E86092816DC092801F01B83002801F09383801E01F07D83401E01F00F
:20008000E983401E01F0E283C01E01F06983401E01F0128301F092BBDFF8A0C2DFF8A08231
:2000A000DFF8A0E210381C283AD92A3800F0D686401E01F0BB83401E01F0B483401F00F038
:2000C000A286801E00F08E8601F078BBE42816DCE42801F07583A038212840D92D3801F0AF
:2000E0007983401E00F0BE83093800F02982401E00F0F280093801F0678301F05FBBE63894
:2001000000F0CE80401F00F0A080AB4A0E3800F08280401E4CD0401E45D0401E01F04EBBC0
:20012000DFE810F0B70A7C0A610A4C0B8F0B490A3A0A4C0B180AF8094C0BC2098F094C0B33
:200140008B0B880BC6089B08C3074C0BAB0799079007850775074C0B65075F07FC06DFE801
:2001600010F05D0B590B550B1A06510B4D0B490B1606430BFA05BC058D0563055105440568
:2001800037052D0525051D053E0B1205F604CE04950470046304ED03E103D6032D0B2D0BE8
:2001A0002D0BA9038B036868002800F02D8546E06868002800F028851146097831F001017D
:2001C0003DD10488466802208DF820003146ADF8224009A828F0FBF808A814F0F9FD012803
:2001E00015D14FF6FE70A0420BD0304626F073FF28B9002120460A4624F068FC08E0002073
:2002000006E0002130460A4620F05AF800E00E980F95139059E16968A1B11046007830F097
:2002200001000CD1084600218DF820100990022108A88DF821101CF05BFC01F0D2B9122089
:2002400000F0FEBE0F9500F0DFBC6868007878B9002026F0E5F925F083FB0E980DA98DF8C2
:200260003400522023F07EFE26F0E6FD01F0F6BA4FF6FF7026F0D4F930784FF4807120F02C
:20028000BBFD30784FF480711FF07EFB00200DF135018DF83500522023F064FE01F0DEBAC4
:2002A0006868002801F0DA82A44C01886180807A60B928F0EEF940F28A21B0FBF1F220788A
:2002C0000821521D28F046FA01F0C8BA708F0E9927F037FA01F0C2BA68680F95002800F0D4
:2002E000938400681090807E26F072FA061C00F0B4821098C76900252C464FF003093878AD
:20030000A04200F303810F2410FB04F0401CC0B240191BF0F1FA5FEA000800F09C8222F0C4
:20032000AFFE002840F0F0800025139588F8005053E0C046F83900208834002010380020DD
:20034000943F0020543D00201099032315FB03F6BA1991F81AA0B1F80C9052880F2015FBAD
:2003600000845046494624F065F8BA195288834608AB504622F096F8641CBBF1FF0F1DD0DD
:20038000E0B1A6489DF827300168D80838BF8C2015D39DF826001623207103FB0B10C18837
:2003A00000F10E02A4F805100189C4F80B201398A4F8071003E0C046C53800208620207080
:2003C000B8194078BB1960705888608098F800006D1CEDB2401C88F800003878A842B3DC73
:2003E0001098817E474600F10E064FF00F0985893A78109190F80AA01196139912950C468E
:200400008A4264DC204628F03EFA061C58D0139D02463EE015FB09F0391838184078491CF3
:2004200002F8010B487802F8010B887802F8010B4888001202F8010B0B7843BB4B78F3B912
:20044000087902F8010B487902F8010BB1F80500001202F8010BC87902F8010BB1F8070091
:20046000001202F8010B0879834627F0EEF970B1D1F80B10584616F0CBF9024607E0487ABE
:2004800002F8010BB1F80900001202F8010B6D1CEDB23878A842BDDC139900910E980190BD
:2004A00002900391CDF810A00594129A069610980791119909230EF0E3FF304628F02BF918
:2004C000384623F031F827F00BF81398C6E111FB09F3F818FB185E78241DA4B2401C86B9C3
:2004E000467866B90079834627F0AFF9641DA4B238B158461BF02FFC001984B201E0A41C9A
:20050000A4B2491CC9B27BE74046A2E114FB0972109930785288898908AB21F0C3FF50B1EC
:200520009DF82600014627F090F920B108461BF012FC2D18EDB2641CE4B2E0E6F03D0020D4
:2005400068680F95002800F05F8300681090807E26F03EF9002800F080811098D0F81C80B5
:2005600098F80000002800F078818000401C1BF0C3F90028119000F06E8127F0A9FE22F0BF
:200580007FFD002840F0648100261396129698F80000B04200F3E4801398012840F08C8042
:2005A000C34DA878EA68162111FB00F081B2562028F032F805F10C0640B9A87832681621A9
:2005C00011FB00F081B2562028F02CF86078802120F012FC2F78B8001BF08EF9B8465FEA6B
:2005E000000B69D02E78B8F1000F0CD005F11800594642784A70428810F8144B4A807F1EC4
:2006000001F8044BF5D1002E3CD037464FF000094FF0140AA6B305F1180411E03847002075
:20062000002808BF4E4607D041680668216122F07BFF207B401E2073304622F075FF2E780D
:2006400020690028ECD1761EF6B216FB0AF2A0184188618041786170C188E1808188A18023
:2006600001890C30218109C804F10C0181E80900105D2070A318C3F8109083F80C902E7005
:200680007F1EC7D10EF02CFEB8F1000F11D018355C4647466078618824F032FAFF2804D0EC
:2006A0002678810001EB00116E547F1E04F10404F0D1584622F038FF12981199087018B97D
:2006C000002048700E9F0F70109890F81AA00C4600F10E098689857A2078042110FB01F00B
:2006E000804628F0D0F8071C1ED0014600202278824222DC012A03D164780CB9DDF8388053
:20070000002000900E9901910291039004953246CDF81480072306974946079050460EF0DF
:20072000AFFE384627F0F7FF119822F0FDFE26F0D7FE24F07BFE002090E08200A3185B78B3
:200740000B70A3189B784B70A318DB78A2188B70B2F80320401CC0B21212CA70091DC6E706
:20076000109B9F890E2016FB00856D1C93F81AA0B5F80190394650464A4623F05BFE8346FC
:2007800008AB504621F08EFEBBF1FF0F48D0002846D02F78002F58D19DF82600E97888427E
:2007A0003CD19DF82700C00836D3B7480168A8884FF6FF72824201D1EF88B7B1162202FBA7
:2007C0000B17F880E8883881E87827F03EF800B30E370021042238461CF002FFE8781BF074
:2007E000BAFAD5F80A10024610E0162000FB0B156889E880A889042205F10E070021288150
:2008000038461CF0EDFE042205F11201384627F07DF80E98139018E08C2002E08D2000E0CE
:200820008720129BDDF844C099000CEB0102507028780CEB01075B1CB8700CEB0102DFB26F
:200840001297B5F80110A2F80310761CF6B29EE6119822F069FE102000E002200F9D2C4654
:2008600000F0F6BC6868002800F0CE816868006824F060F900F0B5BE6868002800F0C4816A
:20088000002069686870097851B984F84200607F401E60770E98014624F0E0FD00F0DEBFC7
:2008A00027F084FE0E98014607F072FF00F0D6BF2C4700206868002800F0A68106784768F6
:2008C0000021082208A81CF08BFEE7B1CC4800210170AEB1761E0ED0761E0AD0761E03D0A4
:2008E000761E10D10E990170384608A918F0EEF80AE00E990170384608A922F015FF03E014
:2009000021F088FA00E002202C4606467DE06868002800F07981686800F1120122F004FF5C
:2009200000F05FBE6868002800F06E816A6810785188928816F08AF900F053BE2C466068C2
:20094000002800F0618190F8009045888188B0F806B0B0F808A00A301090C74807790F91F8
:20096000002F5ED0C3490F68002F57D080467868007881454FD126F093FE00284BD0037CD4
:20098000002B48D04669002E45D000200C22834244DD10FB02F1715A8D4239D10E201AF014
:2009A000ABFF071C3DD0002607F10A0004235B1E00F8016BFBD1BE80FF2038704FF6FF73A9
:2009C0007B803E81FE8087F800900F9A7D801099BA8007F10A00A7F806B00422A7F808A083
:2009E00026F094FF08201AF087FFD8F8141018B9384622F099FD14E007604160C8F81400DB
:200A000098F81000401C88F81000304600F020BC401CC0B2BBE73F68002FA8D1022000F037
:200A200017BC0E9800F014BC6868002800F0EC800020687068681DF023FFA968088000F0A9
:200A40000DBFA868002800F0DF8000216970AD68267860786F1C002E08BF29700ED0402166
:200A600022F042FD4FF47A710F2300F2E730B0FBF1F116FB03100F3828702678002F00F06F
:200A8000ED86304687E0C04638470020AF68208F94F83B1094F83A2094F83C30666B94F889
:200AA0003DE094F83F8094F8409094F841A094F842B0002F00F0A88000276F70AF6838816A
:200AC000A868C172A8688272A8680373A86880F80EC0A8684660A86880F80DE0206BA9682C
:200AE0000860A86880F80F80A86880F81090A86880F811A0A86880F812B000F0AFBE6F6898
:200B0000002F00F08180002068706868077D17B1C07C84F841006868877D17B1417D84F8D2
:200B20004210077C17B1C08920876868077B17B1806860636868877C1FB1407C84F83D004B
:200B4000686807790FB10068206300F087BE0021BCF1000F69700ED094F83B0080090AD2A5
:200B600008A808221CF03CFD27F0EFFA08A81BF0ADF800F073BE27F0E8FA4FF4FA7026F019
:200B80004BF900F06BBEA86800283DD00020687027F060FDAF68387000F060BEAE48A96873
:200BA0000078002930D000216970F3E7686858B36868007821F046FB00F013BD686818B3F0
:200BC000002068706868007806F03CFB00F046BEA868C8B10020687021F05EFE002808BFD7
:200BE0000E9800F02D820078D4E7686860B10020687069680888897820F0E2FD00F02EBE77
:200C00006C380020686808B9022019E2C24C6968082204F10C0026F079FE68680189618090
:200C2000807A207000200BE26868002800F090800188ADF830104088ADF832000CA95320F0
:200C400023F090F950200DF1320123F08BF9E1200DF1360125F05AFB68689DF836100079FC
:200C6000884273D08DF836000DF13601E12023F079F96BE0A03F00202C470020686800281C
:200C800066D0007823F052FE686896F83C104078884213D086F83C000DF13701E12025F02E
:200CA00035FB68689DF837104078884206D08DF837000DF13701E12023F054F968680E9F30
:200CC000407807FA00F0F06426F0A8FB0024A6F89440384620F0F0F93BE06F68C7B37C88E1
:200CE0007487387886F84A007B6886F83C303989F187F3647889A6F84800387B86F85C00AF
:200D0000787B86F82900B87B86F827003A697265786996F89640B065387EA04201D023F011
:200D200005FE696806F15D00193127F034FD96F84A0006F12404082808D1212074212246BB
:200D400027F070FC0020022123F018FD002400E002242046A7E169680029F9D00888498869
:200D600024F006F870B9696808880E9A498822F053FA69680888498823F0FAFF002808BFD2
:200D8000C824E6D069680979417000208BE168680028DDD003E06868002800F0838112207B
:200DA00081E16868002800F07D810A300778002F0CBF00220E9A47780FB142F002028778BA
:200DC0000FB142F00402C7780FB142F00802007908B142F04002696808880023891C23F0FE
:200DE000D5FAFEE36868002800F05C8102206F688DF828003988ADF82010FA78B97808A8EF
:200E000020F0AAF8EDE36868002800F04B8102218DF8281001884FF6FF70884205D0821E40
:200E20008A4202D0C01E88420BD127F04DFBADF820006868C27A837A811C08A822F0DCF830
:200E4000687068680188ADF82010C27A837A811C08A822F0D1F8C4E3143D00206C68002C13
:200E600000F0208102208DF828002188ADF8201063462279B4F80680267AD4F80CB0277C53
:200E8000D4F814A061880F921A1D14680346F21912FB03F00F305FFA80F9B9F14E0F00F336
:200EA0009E8027F011FB884233D121700812607026F0F0FCA41C0146204627F06CFC044670
:200EC0000F98207084F801804FEA2823A370E670241D66B15846A41E017804F8021F30F87B
:200EE000021B761E4FEA21216170F5D1A41C27705FB1641E5046017804F8021F30F8021BD5
:200F00007F1E4FEA21216170F5D1C64820224B4661E01846C7E0C046643900206C68002C38
:200F200000F0C08002218DF828102088E146ADF820006288A388A679D4F80880277BD4F817
:200F400010E0D9F80400F41914FB01F1891D5FFA81FCBCF14E0F42DC9DF828100F2918BF3E
:200F6000022908D1BDF820404FF6FF71A14204BF891EADF820104FF6FF71914208BF8A1E8A
:200F800000F8012B111200F8011B00F8013B1C1200F8014B00F8016B66B14146801E0A782E
:200FA00000F8022F31F8022B761E4FEA22224270F5D1801C07705FB1401E71460A7800F877
:200FC000022F31F8022B7F1E4FEA22224270F5D148460622634608A91EF0D6FA63E0102097
:200FE00061E0686800285DD00220052214E06868002857D002206F688DF828003988ADF823
:2010000020103A79798808A825F036FF18E06868002847D0022002468DF82800686801887B
:20102000ADF82010418808A826F022FAD9E26868002837D06A6810889178D27823F046FD63
:20104000044686E6686800282CD06868017A427A1FF036F9C5E2686820B341788DF82010E9
:2010600081788DF82110007826F01EFAD0B10C3008A9022226F04AFC87E6696891B1A8689D
:2010800080B1087808A925F072FD6868A968007808709DF82000A96848709DF82100A96854
:2010A000887072E602202C46D5E02C466368002B00F0D080187D26F04BFA002800F0CA809D
:2010C0009D691C331F78002F0CBF002002205F780FB140F010009F780FB140F00800DF78AB
:2010E0000FB140F020001F790FB140F040005F790FB140F0800083466068007D27F0E0F8D3
:201100005FEA000800F0A6806168887A8DF829008889ADF82A00087802288DF828000CD0DC
:2011200001280AD00F2808D0032809D1891C08A8082226F0EBFB616802E04888ADF82000DD
:201140008F7B002F76D078001AF0D6FB061C08BF102000F0808000216068877B8F4263DCB9
:20116000C18A838CCDF83C80826A13950C2F109190F822901193BDF8208012924CDA4046A1
:201180001FF060FB0C2816D14FF6FE701FF05AFB0C2810D1DFF808C30E999CF82C31002044
:2011A0000CF59A7C1CF8082B9342C4BF131C081C491C0C29F6DBBB4D4FF6FE7305EBC00548
:2011C00068686B8018B122F0AFF90020686077B14FEA470A50461AF08FFB6860002808BF56
:2011E00010201AD068683146524626F08FFBA5F80280C7486F70129B0078139F28700F9932
:201200000093109A019708A8CDF808B0119BCDF80C900CF04DFB00E002206070304622F021
:2012200083F91BE31038002000694A00105A491CB05291E7886A00900195CDF808B091F8B2
:2012400022000390CA8A8B8C08A841460CF030FB254628E702202546C3E16868002800F07D
:20126000AB82007826F074F9071C00F0A582387B20F0C2FF0028687040F0F08240464568B3
:20128000002D00F0EB822E46002116B9B74202D0E4E2B74209D1BD4219BF3868086039687C
:2012A0004160384627F02FFAD8E231463668ECE7686800283FF4F6AE007826F049F9002866
:2012C00040F0BD8026F0D6FB052880F2C281002638466E7026F02EF9041C01D0207B68B174
:2012E0001C201AF009FB041C00F0B88231461C221CF076F9DDF83890277100E0B14668684E
:20130000007820736868007A47462076B81C206114201AF0F1FA0028606141D03146142230
:201320001CF05EF96968626949689079897900F0F00001F00F010143917168684068616989
:20134000808888806868406861690078087068684068616940884880686840686169C079FE
:20136000C871686840686169007B08736069C07940001AF0C1FA616988606769B86818B18A
:201380003046F979814250DC387B40001AF0B4FA386161690F691FB130460A7B82423ADC4B
:2013A00004F10C00804616F07DFA0746022F18BFB82F06D1207B20F01FFF404616F072FA15
:2013C00007463FB9B9F1010F20D1204623F04EF8C8B11BE0B9F1010F15D0606968B183687E
:2013E0001BB1184622F0A0F8606903691BB1184622F09AF8606922F097F84046314610227D
:201400001CF0EEF802E0204627F07DF9022F16D0B82F14D022E26B685B6842001B69096951
:20142000D35A53526169401CB7E76A68526841009268BB688A5ACA526769401CA1E7D02088
:2014400031E66868002800F0B781A868002800F0B381002108221CF0C3F8696808784988C5
:2014600024F09CFB071C19D00020A968687038880880A968B8788870AC68A078002800F0E7
:20148000ED811AF039FA6060AA685068002800F0E5819278F91C26F039FADFE1B120A0E020
:2014A000200100204C0200206F68002F2ED0AF6867B30024764668686C703768017820463E
:2014C0003FB13A79914204BF401CC0B23F68002FF7D1A9680870A868007840001AF00CFA06
:2014E000A968376848606868A96800784968002F00F0B4813A79904204D1FA88661C21F8BF
:201500001420F4B23F68002FF4D1A7E154E1C046DE3800206F68E7B16868002774466F705E
:201520000678206890B101798E420BD1002F04BF0568256002D001683960056821F0F4FF15
:20154000284601E0074600680028ECD122F0CCF884E131E102206F686870002F00F07E8166
:20156000744639787A882068002800F0778100270379994202D1C3889A4204D00746006865
:201580000028F5D16AE107B977460168396021F0CBFF22F0A9F88DE06868002800F00C8123
:2015A000807800280CBF00220E9A68680E9900881DF0ACFD15E06968002900F0FD80887865
:2015C00028B1C87800280CBF0E99032100E000216A68107908B141F040011088527912F048
:2015E000AFF968703AE16868002800F0E580696808A80822091D26F089F9032026F00AFA5D
:201600006868C07B23F048FA6868817B009102788389418808A814F081FDE2E768680028CB
:2016200000F0CA80384625F085FF041C13D11C201AF062F9041C00F0118100211C221BF0A8
:20164000CFFF2771204622F011FF20B9204621F06BFFD120C5E7E088824940F00800E0807A
:2016600040F00400E080022026F088FF7E49032026F084FF68680168089100798DF82400A0
:201680000E9F8DF825708DF8267008A81EF058FDA7E76868002800F08F8068680088002157
:2016A00003F04CFCDAE06868002800F08580686800787070002094E76C486F680478002F4F
:2016C0007AD0686800212A2269701BF089FF708F696808806868B6F84870847269688F81B2
:2016E000F08F6968C8826868082206F1240707F139010E3026F00AF926F0CCF801466868BA
:201700000822801C26F002F96868082207F11C01183026F0FBF896F83C10686880F823103D
:201720000E986968524C81F8210021784A0824BF6A6882F824008A0824BF6A6882F82500D6
:20174000CA0824BF6A6882F826000A0924BF6A6882F82700C90924BF696881F828007DE075
:20176000686848B390F90000044625F08FFEA86800B104709EE76868F0B100200E9F687059
:2017800069680F7069684F7068680226867068680624C470696803230B715FE0686858B1C2
:2017A000407818B1FF20032122F0E8FF26F098FE0E9830490860FEE7022012E7122010E710
:2017C00029461CF027F948E000202B496870EF780F7043E0002068701BF08EFB3EE0002007
:2017E000687024F0F1F939E008464FF480711EF0CDFF5FE729461DF0CBFF2EE0294612F093
:20180000DFFA2AE0294617F02DFD26E0294626F077FD22E0294620F04BFB1EE0294620F002
:2018200077F81AE029461DF079F916E0294618F0E9FC12E026F012F9D3E629461FF044F978
:201840000BE03846294606F033FB06E0294606F0ABFC02E0294606F023FE0E900E9815B029
:20186000BDE8F08FA13202008D800200F0360020EA4C00207C052043A83300202DE9F04F90
:2018800004464FF6FE70ADF15C0D217AADF85400606808AA13F088F8002800F056849DF82C
:2018A00022000228B4BF012700279DF824000228A8BF0027BDF82A104FF000084FF6FE70C0
:2018C000801F88420ED04FF6FE70401F884209D04FF6FE70001F884204D04FF6FE70C01E0B
:2018E000884200D1474626F0E9FD9DF82310884240F02B84002F00F02884208D9DF82660C0
:20190000678EADF84C00ADF82E7056B161689DF821209DF83C30012026F04CF8002840F024
:2019200014849DF82570DFF8C4B2DFF8C4924546002F4BD19DF83D00474658BBBDF82A0044
:20194000034621F091FD4646022808BF0126002E9DF8226018BF012759460988994208BFE5
:2019600047F0020727B1002E14BF402120210F43184621F079FD012808BF47F00107002E18
:201980003DD01298007826F0BCFB012818BF27F0010734E09DF8411041B1FF2906D09DF8AD
:2019A0004000119A23F05EF850B128E0B9F83A00BDF82A10884205D099F84A0004281ED15B
:2019C00001251CE09DF82660222720E0BDF82A10FF2024F0E3F8002804BF3E1C082708D038
:2019E0009DF8250047F001062C2740F001008DF8250006F00306012E08BF47F011079DF8E8
:201A0000266007F00200284308BF47F0800796B999F82F0078B107F0220022280BD007F0EA
:201A20004200422840F0918312980078062818BF072840F08A83F8094FEAA71555D399F874
:201A400032001299BDF82A2080080AD20878C01E01282CD9001F2AD0C01E28D0801E26D037
:201A600003E00878401E0A2821D9B8F1000F1ED1B9F83A00904240F068830D780520BDF89B
:201A80002C408DF8110004A825F0F6F8002800F05C830269032313271370511C0F704C70A8
:201AA00022128A70CD70448009F0A8F94DE368081BD30878032802D148780D2815D09DF8E2
:201AC000280038B1BDF82C000E990DF073FE012800F037839DF8270038B1BDF82A000D9902
:201AE0000DF068FE012800F02983B9F84800B4F84410884209D1CDF80080208DB4F8421031
:201B000094F84620434612F0D5FF9DF82600002847D0208DB4F8421023F02AF99DF851A013
:201B2000061C26D1BAF1000F12D199F89000012839D112980078062801D1680833D2BDF84F
:201B40002E104FF6FE70401C884240F0BA80FCE2042024F0EAFF011C00F0F7826420087083
:201B600001274F70208D488099F8000020F060FAEBE29DF821306068F57819184A7BAA4244
:201B800003D0F270404670606068C0180421401C25F0B0FA7168814200F2D782401C7060C7
:201BA00001E09DF851A099F832008008C0F0CD82BAF1000F23D0BDF82C0025F05FFEC8B9F3
:201BC000A249A34CBDF82C000B6822699901A1EB83019047012840F0B8826169BDF82C008D
:201BE0008847A168BDF82C008847AEE2C2340020883400206168487800F0DF0048709DF836
:201C0000320038B161688879401E8871C0B28DF8320008B907F07F07380924D39DF825002F
:201C2000F9084FF4805814D279091AD3811011F0070F01F0070604D0072E1CBF761EF6B26D
:201C40000EB907F07F0700F0E30040EA8600C0B205E020F01C00C11021F0030108438DF884
:201C600025006168087299F84A00042800F0F281092800F0EF8117F0610F40F0EB809DF85A
:201C80002200012811D112980078052800F0D68003280AD1BDF82A0025F0F0FD28B1218D14
:201CA00008A815AA002300F0A1FE9DF8320068B99DF82200012804D112980078032800F029
:201CC000448208A821461FF023FA3EE225F08AFA002840F03A829DF83D0000286DD19DF861
:201CE0002400BDF82A10FD100028ADF854102ED13A0930D29DF82220012A28D008460021E6
:201D00001CF048F9002620B14079012816D0022814D0BDF85400B4F8441023F029F828B193
:201D2000807824F035FF08B1082807DBBDF82C0025F0A4FD18B104208DF824000126BDF88F
:201D40002A10002E08BF022272D09DF824006A0838BF002300D340230DF13D021CF054F9DD
:201D600030B16168087848F0200800F03F0008709DF83D0040B1BDF82A1010A821F054FB68
:201D800048F04008ADF854009DF82200012806D0BDF82A00BDF82C10002218F0E1FD6808CC
:201DA0002CBF40220022BDF82C10BDF82A0015F00FFB08B148F0200833E09DF840009DF83F
:201DC0004110119A22F04EFE00282ED09DF8410038B9BDF82A00ADF8540026F080FC00BB97
:201DE0001DE011999DF8286001EB400030F8020C002EADF854000CBF082010209DF8276057
:201E00000EB10830C0B29DF82560002106B1012140186168401CC2B2505C401E505448F06E
:201E2000400824F045FC169099E0BDF82A100B22BDF82C0000231BF065FE86E1218D08A893
:201E400015AA002300F0D2FD7FE1C04644A20200A43500200020169078085BD3B4F828A0B2
:201E60009DF833C0BA4D09211698EA79944506D1BDF82C302A88934201D1AE782EB9491E0A
:201E800005F1080500F10100EFD1092821D0AE79E6B1B9F84810504623F05CFF08B1761E53
:201EA000AE71AC4833210279FF2A02D00288924504D0491E00F12400F5D102E0A879401E6D
:201EC000A871A8795228A4BF1698A87127F0600720E024F0EDFB16909DF8320020B9208DB7
:201EE000BDF82C10884215D0218D169A08A811F0B1F958B1380932BFBDF82A004FF6FE70BC
:201F0000401C48F00408ADF8540003E0002027F020071690B8094FEAA71510D394F84600D6
:201F200094F8476094F948308DF81000E26B8DF8116004A98DF8123008A804F057FA6808B8
:201F40000DD3218D169B08A815AA00F04FFD169028B112980078012808BF48F01008BDF801
:201F600054104FF6FE70884204BF002116917A491B310978012927D1628E411C914223D030
:201F8000228D914220D0BDF82A10401F88421BDDBDF82C00904217D026F0A1FBA0B10179A8
:201FA000012918BF02290FD101218DF810104088ADF81C0004A81FF0D5FC28B105A81FF0A4
:201FC000AFFA08B124F066F937F07F0000F0BD801698002800F0B980208919F08DFC071CFC
:201FE00000F0B3806168228925F090FC002605969DF822008DF810001699009104ADCDF8E6
:202000000480B046CDF80880BDF854100395228D237A384616F0CEFAC0B999F8010000287D
:2020200000F09380BDF82A00ADF81A0045468DF81E508DF81D50BDF82C70ADF81870169E5D
:202040008DF81C6006A825F0B1FD7EE0384621F06BFA7AE05946BDF82A000988814209D0B7
:2020600021F002FA022805D09DF8250000F0030001286AD19DF8220000284DD01298017824
:20208000042903D19DF83C10022940D00178072905D19DF83C2099F80000042A06D00329F2
:2020A00053D108A8002114F019F94EE04FF480611EF0A2FE092089F84A00274841780229CE
:2020C00004BF0021817725F0E5FB01460D9825F0CBFA012839D1102024F027FD07460E99DA
:2020E0001298401C8FB302223A704378027802EB03227A80807878704A2021F033FF9DF867
:20210000260010B915490520087039462CE5002008A90CF0FFFA18E094F8460094F8477072
:2021200094F948608DF81000E26B8DF8117004A98DF8126008A804F059F906E0BDF82A0023
:2021400001E0BDF82C001FF0C5FD17B0BDE8F08FB401002014090020C4380020F03600208D
:20216000694A2DE9F04FADF14C0D10780F91090C80F00D840F999346890B80F0DE830F9994
:20218000890980F013830F99490980F095820F98DFF88091C00980F01E820F98000A06D334
:2021A00020F0CAF90F9880F0800000F00FBC0F98DFF858A1DFF85881400A80F0AD800F9845
:2021C000000B80F08B800F999BF80300490B7BD254460F99606AC90B60D20F9920788908B7
:2021E0002ED20F98E188800A0DD20F98C00A08D3BBF84800012120F0DDFE0F9880F4806017
:20220000E4E30020E2E3BBF84850ABF848105020A11D21F0A7FEE6881E27444660898542FB
:2022200005D0864204D0204625F0F3FA00E066817F1E04F11C04F1D10F9880F40070C5E357
:2022400040B301A826F04FFA26F02CF949460546032091F8228091F823608DF80D0003A8D7
:2022600024F00AFD071C15D038690B2100F8011B00F8018B06700126BE7725F00BFB78620F
:202280007D807E7701A838620023BE763846237008F0B4FD0F9880F0020097E380B14946A5
:2022A0001431097801290BD18047A06A00B180479BF800004FF480414FF47A7226F047FAEC
:2022C0000F9880F4804081E320B100208BF8030020F02CFE0F9880F4805077E320F026FE95
:2022E0004946087A01280BD1497A49B19BF800004FF47A7212FB01F24FF4006126F027FA6E
:202300000F9880F4006061E388340020A4350020CC050020C438002026F0D6F84FF6FE7184
:20232000814200F054819BF832008008C0F04F8100252C46284623F021FF071C19D0387953
:20234000012816D0022814D0F879411CF9719BF88B1081420DDABC727C72388822F0BEFFA5
:20236000388801A924F0EAF801A81FF0D9F823F091FF6D1C332DDDDBA8F11C061E274FF6EB
:20238000FE75119436F81C0F85420CD0307B9BF88B40411C8442317305DA1198B0747074C9
:2023A000308822F09BFF7F1EECD15446032104F1380010F8047F0FB17F1E0770491EF8D1E5
:2023C000BC4C332605F1010934F8240F81451FD001208DF804006788ADF8107001A81FF012
:2023E000C1FAA8B1A8F11C051E2735F81C0F2188814208D0BDF80610814204D002A8A91C5D
:2024000025F032F910B1284625F003FA7F1EECD1761ED9D1119D2C46284623F0AFFE48B15C
:20242000017931F0040105D1807A24F0B1FB08B1641CE4B26D1C332DEEDB24F0A1FA119E8D
:202440005FEA00080ED03546284623F099FC28B1807C24F09DFB08B1761CF6B26D1CEDB220
:20246000A845F1DCA019C7B2002F41D0B80019F043FA1090002808BF119F3BD0BA00FF210E
:202480001BF0AEF8119E3546B44218DD284623F075FE031C10D0187930F004000CD1987ADF
:2024A00024F076FB011C07D0009718885A7A109B19F081FF761CF6B26D1C332DE4DBB8F1D9
:2024C000000F17D0119C204623F05AFC061C0AD0B07C24F05DFB011C05D00097109B30880A
:2024E000727C19F068FF641CE4B2A045EBDC01E0119810909BF83000002808BF4FF0620837
:2025000005D025F04BFAC0F154005FFA80F80320B8F1600F98FBF0FAA8BF4FF01F0ADDF85A
:2025200040904FF6FE7BABF1020BB8F1000F0EBF119D2025DDF84480BA45A6BF3C1C45F062
:2025400040055446032014FB00F0801C8DF8050001A824F091FB4E46031C26D018690821B8
:2025600004F01F02017045EA02014170801CA4B12246C01E361F16F8041F00F8031F318862
:2025800009124170B17801F0070CF178521E01F0070141EA0C118170EDD1A3F802B001200B
:2025A0009876184608F02AFC00E00120E90906D2641EE4B20CB109EB84093F1BFFB205F070
:2025C00040052843B1D0109808B120F0ADFF0F9880F48070FAE1B44C0925002106264FF00D
:2025E0000408A778002F3FD07F1EFBB26079A37025F002F8071C36D05BB9787B022808BF0C
:202600007E7330D07E733868407BF02120F01CFA29E0A3791BB9787B032812D023E02379AE
:202620000BB3E078401EC3B2E370E3B99BF82500E0702079401EC3B22371787B032812D1B9
:2026400023B92046394620F0CFFF0CE087F80D8026F01FF800F00F00401C38819BF800000F
:2026600020211EF093F801216D1E04F10804B8D19BF8000001290FD040211EF0BDFB4946F7
:2026800091F82900012811D1002081F8290017F0C9FC23F0FFFD09E0402120F025FF28B981
:2026A0009BF800004021642226F051F80F9880F040008BE1F0080020102120F015FF30B928
:2026C0009BF8000010214FF47A7226F040F8C148DFF80483417808F5C674491ECFB217BBA8
:2026E000012141700020052124F086FC071C1BD006253846052124F07FFC0646388978B189
:20270000401E80B2388158B97889C00802D3387B22F0CCFD7D733868407BF02120F094F93A
:20272000371CE6D100E0477064274FF6FE7600252079A0B1FF2812D0401E2071C0B270B912
:202740006079032805D16088218802221DF080F96079012803D0268066806571A5717F1E7A
:2027600004F10804E4D108F1DC040827207A401E2072C0B230B99948214622F0FFFE90B916
:20278000668025707F1E04F10A04EFD1944A0C2112F8080F08B1401E1070491EF8D10F98C4
:2027A00080F0100012E11FF00BFEE4E7202120F09BFE28B9DBF81000002808BF012616D019
:2027C00026F082F9044625F061FE4FF47A716043B0FBF1F1DBF81000002808BF002004D086
:2027E00088428CBF4FF0FF30081A460867D00020042124F001FC071C61D0FF254FF0FF3A69
:2028000006244FF001093846042124F0F5FB10903889864204D8801B83B23B8113B14BE01E
:2028200000203881BB7B012B02D17889C0083DD3002B36D08DF804508DF805508DF806A0A2
:202840003968086AC97F02AA12F0AEF84FF00008012808BFC8465FEA08001DD0788A40F014
:202860008000ADF83600B87B8DF838007889000908D3BDF8360040F48070ADF83600387B8B
:202880008DF83A007B6913B1187BADF8180001A9002202A803F0AAFD7C73387B1AF0ECFBDE
:2028A0000AE087F80D9007E0B40100207C733868407BB72120F0C8F8109F002FA3D10EF014
:2028C000B1FA9BF800300020012124F095FB18B1184620211DF05AFF0020042124F08CFBF6
:2028E000B3B278B15A460789147824F085FBF8B9BB42AEBF0027FF1ABFB2204627B92021A7
:202900001DF044FF00200DE07A00202125F022FF26F0DAF8044625F0B9FD4FF47A7160439B
:20292000B0FBF1F0CBF810000F9880F020004DE00289BA42D8BF171CD7E725F042FF294CFA
:202940000546201D0068074698B157F80C1C9BF8000021B94FF400511DF016F803E04FF438
:2029600000511DF013FF204639460022001D22F0CDFA284626F0A4F82FB13846FEF77EFFFA
:20298000384624F0B9F90F9880F400501EE01DF0CFFE071C17D0144920310A78FF2A0FD06E
:2029A0003C780B460020944207D0401CC0B2C200D1189A5CFF2AF6D102E049683846884706
:2029C000384624F099F90F9880F4004013B0BDE8F08FC04694430020200100203D2C0200E8
:2029E00044020020B43F0020B89E02002DE9F04F064693460020ADF13C0DABF80000B06AC8
:202A0000099303460078884625F07BFB48B17089044620F029FD022804BFABF80040B36AA1
:202A200001D0002009901878C84DDFF82493401E0A2800F20B84DFE810F02F03B3020C040A
:202A40009F028D0151010904BE00880066000B00BD4C207D012840F0F9835B1CB06913F81B
:202A6000015B1F7825F067FE002800F0F7830379002B00F0F383032B80F2F0830E2D1CDC04
:202A8000DFB9D04907752DB901EB85010A6BC261096B0AE001EB85010B6B9A01A2EB830226
:202AA000C2610A6B9101A1EB82018161012180F8201023F0EFFB002500E001250320B689A7
:202AC000A47F8DF8190006A824F0D6F8071C00F0C58338690C2100F8011B00F8015B0470A0
:202AE0000124BC7724F0D6FE786204A9304623F025FD10B17C7704A838627E80BC763846BC
:202B000008F07CF9AAE35C1C207820F01F0700F01F00012840F09A83641C04A8214625F048
:202B20003AFE284604A95D3024F09EFD002800F08D83002F40F08A830834A27861782078AB
:202B400001EB022121F03AFD88E3688F7189884240F07C835C1C14F8016B04A8214625F0B1
:202B60001AFE284604A95D3024F07EFD06F01F0726F01F06002800F07183002E40F06E8354
:202B8000780018F0B9FE011C00F0688367B184460834384663782278401E04F1020402EBAF
:202BA00003222CF8022BF5D100910CF046F8084620F0BAFC52E35C789A1C34F07F0704F09D
:202BC0001F0E40F04B83377F03201EFB00F0801CC1B2B94240F04283002714F01F0F04BFCD
:202BE0004FF6FE7C614618D0D9789B7870464D4603EB012C5378117812F802EF01EB032160
:202C00003EF0770340F02A832B888B4208BF0EF00707521C401EEDD1BFB960464FF6FE727F
:202C2000824212D004F06002602A0ED04D462A88A30907D2E30902D2904203DD0EE3904231
:202C400003DD0BE39142C0F20983B08925F047FD002836D1B0894FF6FF7123F07BF8041C40
:202C600014D122F06BF8041C00F0F88200211C221AF0B6FCB0894D460E3520802888608115
:202C8000AA23A3740222227401216174207C032805DB0220072F2074BCBF7F1CFFB267746A
:202CA00000202073A01C24F016FA002840F0D682307A002800F0D282B169A01C25F06BFD68
:202CC000CCE20021C171017A032905DB0221072F0172BCBF7F1CFFB24772BFE248467189F7
:202CE0000088884240F0B282307F022840F0AE82AA4C201D00884FF6FE71814240F0AE8253
:202D0000162023F012FF071C00F0A88201213970B07900280CBF081C02207870B06A407835
:202D2000B872000902D2B08921F00CFAB169B81C25F031FD0020F874287839461FF078F9E0
:202D4000B089A0808AE2C046C438002088340020C2340020708920F087FB002840F07682BF
:202D60005F78B94987B10C2F03F1020380F276828C463D465A7818786D1E03F1020300EB7E
:202D800002202CF8020BF5D1484675890488DFF8D892AC4200F0B180B37C002B00F05E8288
:202DA0003B1C0A974FF0000811D0A74A38464146921E32F8023F9C4206D0401E01F10101DC
:202DC000F7D104E0F0A102000A914FF00108284600211BF0DFF800280B907DD0407901286E
:202DE0007AD10B98807910F0180F75D00B984188384624F00FFC10B9B8F1010F6CD109F2BD
:202E0000AC404FF6FE754FF000080C97B6F80CB008904FF0010A0D95C14611E0B8F1010F85
:202E200008BF4FF0010908D025F033FCC0B290FBF8F101FB08F1A0EB01094FF00008C246A7
:202E4000089D1E271C3D35F81C4F4FF6FE70A04213D0A34511D00C98214624F0DBFB60B948
:202E60006B7C53B1072B08DA08F10100BAF1000F5FFA80F801D1C14521DD7F1EE3D1B44DA6
:202E8000332735F8244F0D98A0421AD0A34518D00C98214624F0BEFB98B96B7A8BB1072B7B
:202EA0000FDA287901280CD002280AD008F10100BAF1000F5FFA80F803D1C14501DC0D94A2
:202EC00007E07F1EDDD1B8F1000F02D0B9F1000FA4D00D980B994880B37C5B4C581EB07488
:202EE000F77C00970A9D0195029401220392B189B269708916F0F4FFB0E1B4890C2F80F27B
:202F0000AD818846ADF81040BD488DF812700168CDF8148009B104A8884720461DF092FCBC
:202F20000C2803D14FF6FE701DF08CFC0C2880F2958109EBC00505F59675686808B120F02E
:202F4000F3FA2FB1780018F0D7FC686010B985E1002068606C80C3486F70007828706878AC
:202F6000002800F07B816868002800F077817A00414624F0CBFC71E1307F022840F066813F
:202F8000099828B94D4671892888884240F06681099831460BF0BEFB5FE1C046A435002086
:202FA000B5F84810404621F0E3FEA846074608202FB17D781DB90221397007257D70B16A86
:202FC0000A79CC788B794D7891F802A0CF7904EB02244A7902EB03296A0928BF1020AA09C0
:202FE00024BF0830C0B235F0700340F03781327F904240F0338105F07005680938BF00206B
:2030000006D306A8083125F0C6FB25F010050820A90907D3B16A091804A8083125F0BBFB50
:2030200025F020052046514622F0DCFC08280DDA8D4B410001EBC001C9188879B84240F383
:203040000D818F71002002E03E0100200420B8F83A10A14219D048B9B189484601222B463A
:203060000FF02AFF28B1F9E020010020042840F0F58006A804AE009049463A465346019635
:203080002046029512F0F2FEE8E0B189484601222B460FF011FFE1E0B5F84810404621F0B1
:2030A00067FE4FF00609041C03D06078002800F0CD80B06A817847780891C378017900F11C
:2030C000050A03EB0120099040461EF0FDFF9AF8001009185FFA81FAB80928BF4FF00E0914
:2030E00037F0780040F0B28007F01800182800F0AD80307F814540F0A9804FF00009CDF888
:2031000000900899B089524643461AF0B7FF032800F09C80002807F078074DD117F0180F43
:2031200018D195F8310028B1B089414601223B460FF0C2FE09984FF6FE714A463B460FF087
:20314000BBFE002838D14FF6FF70ABF8000039E0F008002047F00107780928BF47F0020716
:20316000B08939461AF016FF90B1817911F0180F0ED0417901290BD154B14088B5F84810A5
:2031800021F0F6FD20B1437813B1607898425DDCB089414601223B460FF08EFE60B94FF6A3
:2031A000FF70347AABF80000002C0CBF4946B169B089524624F04EF9BBF800104FF6FF700C
:2031C000884243D1012000900899B089524643461AF054FF0998394620F04CFE698F8142D3
:2031E0002ED1099825F07BFA60B10079012818BF022807D1099804A923F0A0F908E0C04631
:203200003037002024F046FB014604A825F0C3FA307A012803D1B16906A825F0BCFA06A825
:20322000009004AF0197B06A407840F0300002900999089BB0894A4612F018FE48460CE04F
:20324000B06A80F805A023F033FA06E04FF00009F4E70999304613F041F8099009980FB0A1
:20326000BDE8F08FDE380020FC0100202DE9F04F944C04F128000768ADF14C0D17B1002037
:2032800087F84500DFF838824FF0000A17F148060BD0BF6DD14D6E612FB940460068D0F8A8
:2032A0004C0580476E697068686025F08AFA1290082015F0F7FA1BF0ABFA454610B1B0A0DA
:2032C00025F0FAFB1DF01CFE684624F035FE042069468DF80000504624F0E2FFE06324F08E
:2032E00095FD09A824F044FF042009A98DF82400504624F045FF606324F092FD0DA824F098
:2033000047FF04200DA98DF83400504624F048FF616BA06319B9A2A025F0CEFBA06B10B94E
:20332000A4A025F0C9FBE06B10B9A7A025F0C4FB2868D0F8E00380472868D0F81802804706
:203340002868D0F8F00280474046006856460725A0300168775827B1384680474046006893
:20336000A0306D1E06F10406F3D1D0F8B8028047EB2025F0AFF8A06A574670B105A8FF2188
:2033800008221AF02DF9A06A05A9082223F0A4FC04F12805012818BF2F68914A0CCA05A827
:2033A000391C80E80C001ED1082018F0A5FA061C54D0B51E032725F06CF905F8020F7F1E1E
:2033C0004FEA20206870F6D12020F82705F8020F3146082204F14400F77124F097FA30460B
:2033E00020F0A2F804E004F14400082224F08EFA0120082105AA25F00FF904F144050028C4
:2034000018BF092826D123F0E5F880081DD205A8FF2108221AF0E4F807AEFF2108223046F4
:203420001AF0DEF8012051460822334624F0F2FD80B9304605A9082223F04EFC28B928461B
:203440003146082224F062FA04E0012008212A4625F0E8F8E220294620F084FD23F0BAF801
:20346000400834BF55460125CD4E5520012106F13E0225F0D1F818B915B1504622F0BAFB95
:20348000C84EE22006F1440122F040FF28461EF015FA05A8514610221AF0A2F830464078B4
:2034A00030F0010013D1C04E05A91022304623F013FC48B905A83146102224F027FA06E00F
:2034C000140100204010002005A821F07FFF6220102105AA25F0A0F828B925B16220102192
:2034E00005AA25F09FF805A8514610221AF078F8284613F02FFE284620F0F8FC284614F0FF
:203500009FF81DB15046012121F038F9242018F0F3F90028206400F0A981E06A216B221D39
:203520001BF0FAFE41460968D1F84C138847216C201D0860E06A216B04F108021BF0ECFE9D
:203540000FF020FF216C04F108004860E06A216B04F10C021BF0E0FE04F12C0704F1300804
:20356000D54E256C3070D8F80010D7F800C0D348534605F1080E554600F1100936E0C04607
:2035800052616E646F6D5F736565644175746F6D617469632829206661696C656400C04647
:2035A00041455343434D206F70656E206661696C656400C0414553454342206F70656E20B3
:2035C0006661696C656400C054524E47206F70656E206661696C656400C046C03C3A0020D8
:2035E000D8A4020049F823505B1CDBB2002BF9D04561CEF80020604604F110021BF08CFED3
:20360000CE4E684AB070D08DB080CA4886F800A011463C3125F0BFF804F11002216C614832
:20362000604BCA6090F82500D8F80010707003F14C00F060386804F114021BF06DFE04F1A2
:20364000180BBF49C04B0870BE4A7362206CB26004F11403BD4AD8F8001003613868B26236
:203660005A461BF059FEDFF8E89289F80700022289F824204FF6FE70A9F81C0024F00AF9FF
:20368000AC49B4480560AC4825F085F8B248FF21382219F0A5FFB148B24B8360B24AC26036
:2036A000AF49416080F800A0B04B0361B04A4261B2493161AF4B8361AF4AC261B04B736107
:2036C000B04AB261B248B04BB04AF361B2491061B04ED16009F13000966014F0E3F8964822
:2036E00009262C30761E40F8045BFBD14E46F07948F201011FF01CF8F0794FF400411FF0F0
:2037000017F8F07921211FF013F8F07922211FF00FF8206CD8F80010C0F814B0386804F196
:203720001C021BF0F9FD9D4E48F2150130701EF0FFFF307838211EF0FBFF9A4B9A4AF3605E
:2037400097483261216C706102234FF6FE72386886F8283004F11C038B61D8F800103284B3
:2037600004F120021BF0D8FD904AA2F806A0D56082F802A05561012682F810A0814682F89F
:2037800000A00748167148F2020180F8019048461EF0CEFF48F2010148461EF0C9FF05E07F
:2037A000F8390020C438002000A20200484648F204011EF0BDFFDFF8F8917E483E497E4BEB
:2037C000C9F810007D4A4B60084604F120038260D8F80010226C3868D36104F124021BF0F6
:2037E0009BFD774B207077499870504624F0C6FE7549304624F0C2FE7449042024F0BEFEF0
:203800007349062024F0BAFE7249072024F0B6FE7149082024F0B2FE98784FF6FE71491C81
:203820001EF086FF6D487C496E4D6D4F48626E4B7D606E4ABB6008460D466D4F82622B463F
:203840006C4A85F842606C48C9F808206B4EDF626B4D0660184F6B4BFD603A463846256CD5
:20386000136104F124072F62674E466115F051FD13F07EFE129825F023F910F061FD23F0A9
:2038800013F866480068D0F8D40090F8430023F01DF862480068D0F8582451460120904793
:2038A00024F086FB59485D4F80F800A07868C068007860B904E0C046F03D0020A833002043
:2038C00038460068D0F8582450460146904718F0A7FC4F484F4A0721534622F09FFC18F0B9
:2038E000ADFD20F021FB10200DF146018DF846005A2020F037FB4FF4FA7011A9ADF84400A6
:20390000552020F02FFB03200DF147018DF84700592020F027FB142023F0B8FD40484078DC
:20392000022804D14FF40040012116F035FA13B0BDE8F08FF03A002004370020BC3A00200C
:20394000503F0020D9350100659A0100B1810200F03600206C3900207C010020343D00203C
:20396000F19C0000196F0200B9F40100DB4E02008D660200C5480200196C0200997C0100B6
:203980007D650100456602002DB00000883E0020D95801006DCA0100E14F0100F83A0020E7
:2039A00055430200C15A0200BD6202002C470020743E00209D7F02000BC70000292302008C
:2039C000943F0020DD800200A1800200B5800200C98002002D7D0200457D02004D1F020012
:2039E000143D002069330200B5190200953C0200C92C0200E532020094340020D92A020018
:203A000029720100BD050200B12B0200F14D0020703C00204B880200F839002014010020E3
:203A2000C43800202DE9F04FCC4CCD4DDFF840A3DFF840B3DFF840930F46380CADF11C0D55
:203A400080F05E82DFF81C83780880F00482DFF81CA3B80880F0C581B80980F0AD81DFF8E8
:203A60000893F80B80F04E81BB480668780980F02981380928BF87F0080080F05583780AEC
:203A800080F0BA80F80880F0AD802069F90980F09080380A63D2B80A5CD2C64C380B2BD21B
:203AA000F80A27D3142017F027FF061C1FD00025A846207A012813D100960420294642462D
:203AC000142320F05DFB58B92068306060682946142233467060042021F064F984F80880D2
:203AE0006D1C0C34032DE4DB30461FF01DFD87F4806019E3002017E3182017F0FDFE061CA2
:203B000025D000252434A846207A012813D10096062029464246182320F032FB58B92068DA
:203B2000306160682946182233467061062021F039F984F808806D1C0C34032DE4DB30469E
:203B40004146182219F04CFD30461FF0EDFC87F40060E9E218F0BCFD87F40070E4E21BF0C1
:203B600043FC2078052818D1E07904211DF044F9E07904211BF008FF062023F04BFF2878DD
:203B800000F00700022801D024F052FB22F082FB18F09EFD21F07EFF01E022F07BFB012088
:203BA00022F028F80320012104F0F2FD87F08000BAE2A0B117F0ACFA2069066820691FF08B
:203BC000B3FC26615EB1F28802E0F088801AF0803668002EF9D1E079402124F0BBFD87F02F
:203BE0004000A1E2FF20032120F0C8FD24F078FCC54901200860FEE7424692F84A0008285A
:203C000018BF04285BD124322120742124F00AFDBE4E70683188002435461AE0A30003EB67
:203C2000C403C25C32F07F0C11D012F07F02C254034405D101A8FF210C2219F0D1FC01ABE2
:203C4000012021460C2221F0ADF870682988641CA4B2A142E2DCBC4C4FF0FF084D460026F1
:203C6000E06995F8211080291FD169798DF809102A798DF808206B88ADF806302888ADF8B1
:203C8000040085F82180297D8DF80C10EA798DF80B20AB798DF80A30A86904903146102277
:203CA00001AB032021F07EF8E069761C2435332ED7DB00B180470020022120F05FFD87F4C5
:203CC000807031E24EB17168087818B1486800781AF06AFB3668002EF5D124F0F5FB1C3443
:203CE000208023F0D7FD584608300078012806D1444620784FF40061642224F02BFD87F0F0
:203D0000100011E20120022122F024FAC4B2002C34D0E00017F0F0FD5FEA000830D0834698
:203D20004FF0010A4D4633262879012818BF02280DD18DF804A06888ADF8100001A81DF020
:203D400011FE20B102A9584624F025FD8346761E05F12405E8D113E0A03F0020F036002097
:203D6000E84C00208834002014090020D8380020E44C0020C4380020F83900204FF00008A2
:203D8000B8F1000F12D074B10F204FF6FC768DF80C001F25ADF8046001A922464346AF480E
:203DA000009515F0A7F840461FF0BEFB87F48040BAE1C0467C380020207A58B9207806285B
:203DC00002D1072023F026FE50460078012801D123F032F8E07910211CF0D8FC87F020006B
:203DE000A2E1207A10BB2178E07908291CD123F027FA092023F00EFE4E461C363078052894
:203E000006D0072809D10720012104F0C1FC04E0012022F0CBFA1BF0E7FA504600780128CA
:203E200016D123F009F813E010210FE024F040FBEF2803DB002022F0B9FA09E024F038FB1B
:203E40001030C0B224F046FBE07901211CF09EFC87F0020068E1012023F0DCFD55466678F2
:203E6000287900F007011220012918BF02293DD1E6B1032E1AD0012E38D1012936D10A20F8
:203E800023F0C8FD444620784FF480611CF0B4FF502005A922F03AFABDF81400A4F8480034
:203EA000BDF8140000211FF085F826E024F088F9002818BF032E15D1022023F0ABFD9C4919
:203EC000E06809781DF0C6FDA97909090ED270B9984A5178491CC9B20429517004BF9649F1
:203EE000E16003E024F0D5FB12F088F928B1E07901214FF47A7224F02DFC87F0010013E10B
:203F00004FF0000B07E1C0467C052043AC3F002041468D4823780E784278701E00F0D8806D
:203F2000401E13D0183800F0F080B93800F0E9802A3840F0E28081480168002900F0E8809F
:203F400040468847E4E0C046343D0020012A18BF022A40F0DD8099F81C004E46072818BFAF
:203F6000082805D1227A1AB9012104F011FC2378032B75D00A2B11D0042B14D00D2B12D058
:203F80000E2B10D00C2B0ED0002B00F0C18021F081FDE07910211CF0F9FBB9E0287800F055
:203FA000070001285CD0237A607833BB84F80BB0584630711EF0DCFFB8B1062023F02AFD1A
:203FC0009AF806000AF10406000904D34FF40040012115F0E1FE307800F00700022801D041
:203FE00024F026F921F056FD92E0052023F012FD42F2107022F010FF8AE0012819D1E07AC5
:20400000401CC0B20428E07204DB4D48007801280DD00EE04B4800884FF6FF71814206D00B
:2040200003206070012666710423A37201E084F801B021F0BBFA20F05FFC0AF1060000789B
:20404000000903D34048007D012861D1607803285ED10820012115F09FFE59E01038002062
:20406000237A002B32D1E07910211CF08FFB1EF07FFF20B320780A2808D1297801F00701B9
:20408000022903D02F490822891C0A7003280BD121F000FD307F022806D1012021F0AAFDC3
:2040A0000220012104F074FB062023F0B3FC287800F0070002282BD024F0BAF828E00520C2
:2040C00023F0A8FC01201FF04FFB21E05846FAE7022B1DD1012A18BF022A19D124F060FA8E
:2040E00010B115F0C3F998B124F090FA00280CBF584601201FF054FF0AE040461AF08CFE3F
:2041000006E0404615F05AFC02E040460FF076FF404622F0F1FDE0791CF00AFB5FEA0008BB
:204120007FF4F6AE87F4004007B0BDE8F08FC046353A00206439002000F8FF07043B002023
:20414000BD3A0020D0340020C43800202DE9F04FC14CDFF808C3277F88465FEAD800ADF1D1
:20416000140D80F08A825FEA184006D3DFF8F8B24FF6FF7AAAF1010A51E1604600785FEAAA
:204180005831A0F1020080F03081B64DA91D09885FEA182280F0E9805FEA980180F0D0808A
:2041A0005FEA183028BF88F4006080F045835FEAD81080F0A180A7685FEA98305CD260699A
:2041C0005FEAD83138BF0020C0F03683A44928C96A4628C209881180276938B9384623F061
:2041E000E9FD6061C0B997B90B2011E0017BFF2906D031F07F000FD101F07C0104290BDBB8
:20420000A06940B9384623F0D5FD606120B9002024F066F82DE0606160784FF4804141F230
:20422000883224F097FA217F6069082919D00188ADF80010017A8DF80810017B491CC9B2EA
:2042400031F07F07017306D10188427A684622F013FE606909E0008800210A4620F036FC69
:20426000F7E7017B41F040010173406923F0A2FDA06188F48040DFE2DFF8B4B200264FF003
:20428000030AB14687B96078012E04D04FF400511CF0B2FD05E04FF400514FF47A7224F0F4
:2042A00059FA88F40050C7E27D68287810B3F02820DC51464A466B461EF0F4F8D0B10298ED
:2042C00003889BB984F83A908DF80DA08DF80C9003AB0A20494652461EF0F4FEDBF8001084
:2042E00084F83A9031B12878884703E001880126491E01803F68C5E71EF0CEFA074620789E
:20430000BFB1401EC0B22070A0B160784FF480411FF0EAF830B9206923F04CFD10B9387868
:204320001BF0FEFF6078402143F6982224F012FA207810B90B2023F0D3FF88F040007BE2A3
:20434000B0F1FF3F18BF00280CD168460021082219F046F9684617F0B9FC18B16078022133
:204360001CF014FA88F0020066E2084600211EF04BFA28460678FF24C6B14FF6FF75001D43
:2043800000212B4610F8142F52080BD3C7884FB1BB4207D055B10289BF1ABAB29542C4BFB5
:2043A0000C1C151C761E01F10101EBD1FF2C19D02C49A00000EB0410401818300189C088C6
:2043C000401A80B250B927484470FF2008F098FEFF2120460A461EF097FE00202149C8802D
:2043E00022F07AFD88F0800026E2B0F1FF3F18BF002811D13846401E0AD0801E0CD1A07F24
:20440000022809D10120A07700201FF0ADF903E0617F002021F022F888F480500CE260786B
:204420001CF086F9051C08BF88F4004000F004822F78D32F00F00981207FB84216D00A2FFC
:2044400040F0178194F83B002871616A002900F01081A81C88470CE1F8390020C5380020D1
:20446000889C02002C47002088340020B64840787F1E00F09480BF1E40F0FB80012818BFC8
:20448000022840F0F680AF7877B37F1E40F0F1806F7860781FB324F017F84FF6FE72002133
:2044A000824218BF0121081C04D15846408F1146814209D010465F46ADF8100004A9A7F8EA
:2044C0003AA053201FF04EFD21F070F820F014FA5946002081F84A0018F00EFDC9E002213D
:2044E00040F6B832A177A5E06878002853D124F08DF800210E4603460BF1080023621F468E
:204500000160002F43D1002B37D0002E1F4634D0B146C54822F04DFB01280BD08A48008E6C
:204520004FF6FF7181420BD03988884208D01AE0183D0020BC4807F10C0123F095F890B16C
:20454000BBF83E003989884201D1824501D1FB784BB19BF836007979884209D17A48B979B1
:20456000807B884204D0384620F0E4FA761EF6B2BF69B9F10109CCD1236AE26A002AABD003
:20458000184631469047E06A002872D1A4E7BF69761CF6B2B5E700201FF002FD69E0012891
:2045A00018BF022865D16F7894F841003FB194F84010491CC9B2884284F8401042DB607FD2
:2045C000401E04D0401E3AD0401E1ED051E023F0F7FD98B994F8420020B1A06A002848D083
:2045E000804746E0002102200F468DF808000246ADF80070684622F03BFF13E0012023F02B
:20460000D5FF014604F0C4F833E0AB2000216A461DF076FCCDF808D004208DF80C0002A8A5
:2046200011F0C4FA60784FF480511CF0E5FB607841F288324FF4805124F08CF819E020F069
:2046400093FA16E001200021DCE7E88948F20101401A0BD0401E05D0801E0AD1284618F0CE
:20466000FDF806E0284615F0F3FA02E0284616F0DFFF284622F040FBD1E660784FB17F1EE4
:2046800000F0D480FF1E00F0C780BF1E00F0BB80D0E094F83B00C10880F09B80810878D2DC
:2046A0000009C0F0C7800620207723F079FF00286BD01EF0F1F8E568071C66D0686840782A
:2046C000800837D33878032100226B461DF0EAFE28B968684078410830D20E201BE0029835
:2046E0000188B52912DAB421018060784FF47A724FF4005124F02EF85148416829B10078A8
:20470000FF2814BF3878FF208847E56868684078400803D2092023F0E3FD0AE009200322BB
:204720008DF80C0003AB00218DF80D200A201EF0C9FCE5686868407841087BD341490E68FE
:2047400026B9800821D375E0C438002038781BF0E7FD002600B101260325301C02D00E207C
:2047600023F0BEFD0C2020706078402143F6982223F0F0FF0A208DF80D5003AB00212A4636
:204780008DF80C001EF09EFC54E00E2023F0A8FD50E0042294F83C00227740084AD394F81E
:2047A0003E70002F38D160460078012818BF022840D1012504F11C000021E57018F010FFF6
:2047C0000320207728461EF043F8284622F0EDFF30E004F11C00052594F83C1005708908D3
:2047E0000ED394F83E1059B90121E1700422002118F0F6FE257700201EF02AF80220E5E75C
:20480000284600210CE0002184F83A1021773222042123F09FFF0DE022F054FE04200121DD
:2048200003F0B6FF06E0C046043700200120014620F014FE88F0040005B0BDE8F08FC046A4
:20484000143D0020383D00202DE9F04FDFF814B3C34C01214FF0E047ADF12C0DDBF804001A
:204860002569C06808931F400170C84807924FF0000101704FF0020000EA020008BF0028A1
:2048800040F0F482DFF80893DFF8088311464FF480301E4600270840374008BF002832D118
:2048A00000204FF4003110EA060701EA020108BF00290ED137464FF48001384001EA0201F9
:2048C00008BF002900F0C682002028711AF0C4FEC0E22871EB2020F0AFF94A4600204146F6
:2048E00010700878862801D120F00EFA23F069FFE1690A68002313710968E16124F0E0F8A3
:2049000022F0A4FEA6E20020DBF80070287107F1B8000168DFF880A20F782FB951460F78C0
:2049200017B1D0F89404804720F0D4F9812756469A4937709A4D0860FF232B702778A7701B
:204940000021A1812069DBF80050007A4A460E46801E81B2D5F800011670C0890A91884237
:20496000C0F26C82E1690831096804F1180001600426A6810A98DBF80060657EA17EE37EAC
:2049800004F11902C01E80B206F1B80C0A9005EB012051786081C1F30119DCF800102371A1
:2049A00009780692002908BFB9F1020F00F04682B9F1020F00F3428219B110F0070F00F039
:2049C0003D82667800F00705AD1E022D08BF002E00F0348231B141460978862902D1002D10
:2049E00040F02C82001300F00200022864DA35435AD1DCF81C0090F88300022851D0E16939
:204A00000C31097805A801700527A78123F0D9FE454606462878862840D1DBF80000403003
:204A200001680F6837B9D0F80C058047DBF80000006C07689DF9140023F003FF7877DBF8D7
:204A40000000016C096800228A77006C9DF914100068C177304624F033F82679678923F038
:204A6000B0FE41460A7807F01007862A15D1BB4D05F11E031A88521C1A8087220A7024F0DB
:204A80001FF8E879B04206D11FB9002019F0A0FF07E01B20FAE7E920F8E70646304624F074
:204AA0000FF822F0D3FDCBE141460878862803D120F02AF9A77866788FB186B9012F00F009
:204AC000BD816089022F03D110F0070F40F0B681032F05D100F00701032901D0AEE16089B8
:204AE000010980F0AB81011301F00201022902DA810A80F0A38106994978C1F38108B8F19C
:204B0000010F4FEAA111099100F09881012900F09581B9F1020F14DA00F00701012918BF25
:204B200003290ED1B8F1000F0BD1099F002F00F0858159460968AC3109680F78002F00F005
:204B40007D81BD49B9F1020F0ED0099E11F808708A5DB918CFB256B3C10928D3BF1E13E0B9
:204B6000544B0020140100200A46099908EB0207891809793A795218C109D7B212D209993A
:204B800058EA010613D0BF1CFFB210E0843F0020F24D0020F54D0020F04D0020D44D00202B
:204BA0009D290020099958EA010608BF02270A9AC0F30020391A60718A42C0F23F81DBF888
:204BC00000601146C91B091888B2D6F850122081743080B2884700286678606100F02E8103
:204BE0000021742218F0FCFC0020E07062891EB9C14902F020000870BF48617906784FF09A
:204C0000000C002E30D000292ED102F00700032808D0012828D1DBF80000D0F8D40090F81D
:204C200082600EB3DBF80400406906781EB123F00BF9FE2815D0DBF80000D0F84C02804732
:204C400050B9DBF80000D0F84402804720B96289617994F803C007E00420E0706289617996
:204C600001E00420E07084466569268905F1740305F17400AB65069B686093F801902E817D
:204C80002089C9F3011A0029A5F85C001878AA8100F078004AEA00004CEA000028744FF00A
:204CA000FF06AE730CBF2079002085F83A8085F84900099885F83000A089002FA0EB01001B
:204CC00086B2A68100F0B580E169E78068463A468919083115F05AFDBF19B8B2A081284669
:204CE000017C4FEAA90212F0030F02F003076D4601F0400843D0BAF1020F4FF0000301D174
:204D0000C9090BD29DF801209DF8001001EB0221A0F844100DF10205A0F84210804EB0F829
:204D20004410B6F842208A4203D04FF6FF728A4223D1032F14D06A78297801EB022189B217
:204D40004186B6F84020AD1C01208A4214D04FF6FF728A4218BF181C0EE0C046843C002083
:204D600060692946323023F016FD606937363146323022F079FC08350346002B56D0069868
:204D8000407886111ED06169BAF1020F03D0087CC00903D309E058EA070306D16A782878CC
:204DA000AD1C00EB0220A1F84200032E05D068782A7802EB00220A8504E0606929462830A8
:204DC00023F0E9FC59460968AC310A686089167886B1BAF1020F0DDA00F00702012A18BF30
:204DE000032A0BD162692FB94E4BB2F842201B8893421BD100F00702032A05D0012A18D1DF
:204E0000886A90F88200A0B1D1F89C116069884778B90020069FE070B97866697878C1F34D
:204E2000011100F078000843307402E01AF014FC06E00CF079FF03E010A9020022F0F8FB10
:204E400023F0BFFCE1690A68002313710968E16123F036FE079A089F2021002011403840B5
:204E600008BF002930D022F0ABFB2DE02E4991F90000002803DD91F90000401E08702B49A0
:204E800091F90000002803DD91F90000401E0870114600201E464FF080770840374008BF89
:204EA00000280DD0224991F90000002803DD91F90000401E08701F480121017022F00AFE7C
:204EC000002028711AF0C8FB184A92F90000A8B1079B089F02214FF0E0401940384008BFA3
:204EE000002914D092F90000002810DCDBF80000D0F84C0580470AE0F24D0020DBF80070C7
:204F00000D480021D7F85824017008469047DBF80400C06800210BB00170BDE8F08FC046C4
:204F20003C3A00207E3A0020873F0020863F0020883F0020853F0020823F00202DE9F04F37
:204F40000023ADF13C0D01220A91934909900024CB71081D0B7250250270A023CC72804664
:204F60008B72DFF838B28B7340224A712046C8730B6888894D728E2240F430508A716FF3B3
:204F80000F0388812046C24C08744CF210101843086000200C909BF8000084F8322058B9B7
:204FA0000C981CF08BFC94F83200000910D30C9808A98DF8200008E094F83200000907D38D
:204FC00001200DF121018DF8210052201EF0CAFF14F09FF922F02AFDDFF8E0A20B900028B0
:204FE00040F0C78010F058FE00280B9040F0B6800C9804F1240674210D903246212023F0FA
:205000000BFB002857D10D9921207422334623F001F800284FD1608F4FF6FE7181424AD070
:2050200001200D9094F84A00082806D0042804D010F0CCFC0C980D903DE0DDF834904220B5
:205040000DF122018DF822901EF08CFF06F12F0143201EF087FF06F12C0147201EF082FF27
:2050600006F11C014A201EF07DFF06F11A014B201EF078FF06F1240128461EF073FF06F125
:20508000160153201EF06EFF06F12D0154201EF069FF06F11801E1201EF064FF94F83200BC
:2050A000000938BFDDF8309052200DF122018DF822901EF057FF0C9D18E00B9151E00C9A19
:2050C000A80000EBC50029460C23814609EB0700009001201FF054F830B917F80900FF28E4
:2050E00004BF002007F809006D1CADB2BAF80000DAF80470A842E2DC10F0FCF88948001D5B
:20510000006800B180471FF08BFB0D98F0B123F0DBF9ABF81C0028B998F8000000F0F800D5
:2051200088F80000C448401C0078022818BF012003D1002184F84A1003208BF8010039360C
:205140000BF11400314623F026FB01E009200B900B9F73480021002F4180AED0012770481B
:205160000B9794F83C10814601208840CBF80C0079E010F091FD10F029FC04F124022120CE
:20518000742123F04FFA02A8FF210C2218F028FA0C9D56460CE0C046E44C0020F03600202F
:2051A000294601200C2202AB1FF0FCFD6D1CADB23088A842F4DC02A8FF21102218F010FA14
:2051C0000C9D03202946102202AB1FF0EBFD6D1C332DF6DB5348006800B1804721F0AAF8D6
:2051E000002006220C99ADF8100002A818F0F8F9142016F081FB061C1BD0B0480C30076804
:20520000A7B103270225A8B202A90622801922F07DFBAD1D7F1EF6D104A93046022222F00E
:2052200075FB4C201421324623F0FCF930461EF07BF9182016F060FB071C10D00C9D182266
:20524000294618F0CDF90620294618223B461FF0A9FD6D1C032DF6DB38461EF065F91DF08B
:205260008BFA2F4881460B98944D012868D1724E737804F124071BB3012B0BD0022B11D1D6
:2052800098F8000000F0F80040F0020008E0C0468834002098F8000000F0F80040F00100F1
:2052A00088F80000864821F084FC002808BF00200DD0042103208BF80A1008E0AC3F00204B
:2052C00098F8001001F0F80188F8001002208BF8010023F0DEF90999B36B00F07F000818D5
:2052E000CBF80C306430022180B20C90FF201FF045FA012019F0FCFA4FF6FE706087461CA1
:20530000E0870020A4F848601FF010FB0A9801280AD002A80021082218F062F902A804E01D
:205320009C3E0020483D002000201EF0BDF9212074213A4623F076F9002002211FF01EFAA8
:20534000E8680B9C80B9122016F0D6FA0646002EEE606DD04FF6FE70B61F0327411C26F8E3
:20536000060F7F1E7180FAD1002C61D106AB4C200021022222F04EFE002852D1BDF8180089
:2053800000284ED004284CDA182016F0B5FA03274FF0020800244FF6FE7A0646EB681FFA7C
:2053A00088F14C2006221B1922F034FE78BBE868015B8A452BD056B30096201841880022FD
:2053C000182306201EF0DCFE3069EA6800F2E93333611019418805F13402880000EBC100A5
:2053E000E9681350081973694188880000EBC1008018E968436008194188182233460620B0
:205400001FF0D0FC30460021182218F0E9F87F1E04F1060408F10608C0D116B130461EF078
:2054200083F8054B7120002108224C3322F0F2FD22F0C6FE30B101E0C43800200120A87058
:205440000027EF701F48C9F80C001F48C9F8100020F044FE1E481D490860DBF8100050B1F0
:205460000BF11004076820681EF05EF838460028CBF81000F6D109984FF6FF71814217D081
:20548000012000278BF800000BF1090201468BF80970852023F0C0F80BF1090428B98520F8
:2054A00039460122234622F0B5FD0C9821F0A8FF21F010F90B980FB0BDE8F08F6C3800205D
:2054C000F03A00205D0B010081820200BC3C0020E58C01002DE9F04F0746C44C97F8240025
:2054E0000026ADF1840D0128ADF83C6006D197F828102078012902D148B9B2E2207830B9A4
:20550000387D022800F0AD82032800F0AA826078CB4D01280ED1C94821790078884209D088
:2055200097F83800E32840F09C8222F067FA012800F08D824FF4FA60F860E86922F078FFE1
:2055400040B9E869F96823F0DAF805F1980023F056F902E0F9680818F86097F82500022832
:205560008DF8300003D008B9F86A0D9005E00DA807F11801082222F0CDFB0CA80DF13E0143
:205580000FAA19F0EDF958B913A807F13401042222F0C0FBBDF83C000DF13E011CF012FC2F
:2055A0002078012800F0BB80002840F05A82397D31F0010018BF042940F0538268463146C5
:2055C000242223F062F9384669460AF049FB97F81780BDF8000010F0070F06D000F00700EE
:2055E00002280CBF14270B2700E00F279DF81900C01987B2384623F046F95FEA000900F061
:20560000308204466946022222F084FBBDF80000A41C10F0070F18D000F00700022823D1A2
:2056200002200DF1080A8DF82400082251460AA822F070FB20460822514622F06BFB9DF86B
:205640001000083404F8010B0EE00DF1040A8DF824600AA80422514622F05CFB204604228F
:20566000514622F057FB241D05A92046042222F051FB9DF81800241D04F8010B9DF81900B2
:2056800004F8010B9DF8190068B10799002900F0E8810246204622F03DFB9DF81900241837
:2056A000079823F038F808A92046022222F032FB9DF8220004F8020FB14CE068FFB248B9D3
:2056C0000C2023F0E0F8E06000B186604770C0F8049015E0E4680834206820B100F1080406
:2056E00020680028FAD10C2023F0CDF8206038B183680BB1866020684770C0F80490206822
:20570000011C00F0AE8181F8008009A807F0ECFEA869322122F0F3FF05F174009FE197F8E1
:205720003800E32805D1206918B18047002800F0988197F83800E2280DD0E3280BD0E0286A
:2057400009D0E12807D097F82800012803D0387D032840F08681BDF83C0000280CBFB046EC
:205760000DF13E0831462822684623F08EF80AA83146032223F089F897F838C0DFF8E8B203
:20578000BCF1E30F23D097F8250010F0070F16D000F0070002281AD102A807F118010822D6
:2057A00022F0B8FA97F830009DF8283097F838C08DF8100003F0F80040F0020005E0F86AF9
:2057C0009DF82830019003F0F8008DF82800BCF1E30F0DD097F829109DF82800C90000F0F9
:2057E000F70001F00801014306E0C046743E00209DF8281041F008018DF8281097F826300D
:205800009DF829209DF82800190102F0EF0200F0CF0001F03001022B42F0200241EA000162
:205820008DF829209DF82A208DF8281002F0F8008DF82A0006DA8BB116E0C046C434002035
:20584000A833002097F8273043B1012B0CD19DF8290000F0FC0040F0040003E09DF82900EB
:2058600000F0F8008DF82900387D032807D1FB6B9DF82900099340F008008DF829009DF89F
:2058800029009DF8282097F84030800100F4006100F4F860084302F030019DF82820014352
:2058A00002F008009DF82820084302F007017A6B8DF818C0084305923043ADF8000023B1BC
:2058C0008DF8193007F141000790BBF83A00ADF8200097F91500082805DC10F16D0FB8BFCE
:2058E0006FF06C0000E00820BB7D6E3040B2002B4FEA60000CBF311C022197F8179040EAAE
:2059000081108DF82200BDF8000010F0070F06D000F0070102290CBF14270B2700E00F273D
:20592000800A06D29DF81800E22808BF8DF8196001E03F1DBFB29DF819003F18BFB23846E7
:2059400022F0A1FF5FEA000A00F08B8006466946022222F0DFF9BDF80000B61C10F0070FA1
:2059600010D000F00700022812D102A93046082222F0D0F99DF81000083606F8010B07E049
:20598000C43E002001A93046042222F0C3F9361D05A93046042222F0BDF99DF81800361D6C
:2059A00006F8010B9DF8190006F8010B9DF8190060B10799002954D00246304622F0AAF906
:2059C0009DF819003618079822F0A5FE08A93046022222F09FF99DF8220006F8020FBDF807
:2059E0000000800A04D3701C09A9042222F092F985F85B70F220BBF84870E378C5F85CA06C
:205A0000A9F10C0685F85500E188A5F85670002B85F85A6006BF0F204FF6FD71022085F894
:205A20005400B8F1000FA5F84C100AD098F80100800906D305F1580008F10B0121F096FD9D
:205A400066E60CA818F002FCA5F8580060E622F08FFD286AC82122F052FE05F1BC0022F0C6
:205A6000CEFE21B0BDE8F08F883400202DE9F04FC548C74A0178C5481170C64D4170C6493C
:205A80005C306861ADF12C0D086003F057FDC749C248C44EDFF810B3091D0A91C0498246D3
:205AA0008946E7E0480AC0F09980C1489BF800400078012868D022F085FD011C00F08A80D5
:205AC0008A7B96F8248086F82420778F8A7B08698BF800208A898B7B7287012200920022C5
:205AE00001920122029200220392049342780592406800232122069001200790F22009F056
:205B0000BFFC8BF80040C04986F824801E200870DAF80800778750B3A4490C681434276813
:205B200057B102693969914205D007F114042768002FF7D100E097B9DAF80C707FB1786884
:205B400022F0E9FD0021DAF80C000A9F4160386822F0E1FD0020CAF80C00DAF8080022F09A
:205B6000DAFD0020CAF808002068CAF80800D9F8181022F027FD68B30846322122F0BFFD59
:205B8000C14822F03CFE25E0B9F85810778F7187C04999F85A008BF8000096F8248086F86D
:205BA0002400012300930022019202930392049099F85B000590D9F85C00042321220690E9
:205BC00001200790F22009F05BFC8BF8004086F824807787296921F480712961D9F80C00C9
:205BE0008A0A3AD3071C34D0C468F968A1421FD839468F6800B3D0F80880814210D0024612
:205C0000434601E01A469368B3B1AAB19942F9D198689060184622F07EFDD9F80C000BE0B8
:205C2000AC48006822F077FD4046C9F80C0003E0F968091BF960BF68002FD5D14CB1D9F8A4
:205C40001C1030B10846214622F059FDBA4822F0D6FD296921F400712961C80A05D31CF0DB
:205C60003DFB296921F480612961080924BF21F008012961E8684FF0FF3122F019FF002831
:205C8000F8D028781AF054FD041C00F02F8121782878923900F08E8038396BD0491E65D037
:205CA000173904D0491E5DD0891E56D085E094F84000443080B222F0E6FD071C7DD004F12E
:205CC0000408381D0C22414622F024F820693861207D387594F915007875A07DB875E07DDE
:205CE0000A2208F11401F87507F1180022F012F8608C788494F8240087F8250094F82500E4
:205D000087F8260094F8260087F8270094F8270087F8280094F8280087F82900E06AF8622C
:205D200094F8300087F83000606B786394F8380087F83800E06BF86394F8402004F141010E
:205D400007F1410087F8402021F0E4FF3846FFF7C1FB384622F0DFFC2FE0A188A01D11F0A6
:205D600007FE2AE0201D1EF033FF26E0CD210022032305E0002108AA08238DF82010C121E1
:205D800019F092FF19E0C04640100020341D0020F84D002014360020B4370020C43E00208D
:205DA000A833002088340020BC3A0020CC3E0020743E0020201D14F041F820784FF00108A0
:205DC000712823DC71284FD065280FDC652866D0801F75D042387FD018386ED0401E69D066
:205DE000401E012878D9801E5CD06FE0663853D0801E4BD0801E03286ED9001F40D0401E9B
:205E00003AD0401E34D061E0D43D002091280FDC912861D0723802285ED9C01E20D0401EDF
:205E20001AD0401E58D0C01E56D0801E54D04DE092380DD0C01E01284ED9303806284BD970
:205E40001B3849D0801E012846D9093844D03DE0E76A002F40D035E0A768002F3CD031E07E
:205E60006769002F38D02DE0E768002F34D029E0E768002F30D025E0E768002F2CD021E085
:205E8000E768002F28D01DE01C340020E768002F22D017E0F4330020E768EFB112E0E76841
:205EA000D7B10FE02746786908B11DF03DFBFF6997B107E067697FB104E0676967B101E0DB
:205EC000A7684FB138461DF02FFB05E04FF0000805E0C046B4330020204620F00DFFB8F1B5
:205EE000010F03D014B1204620F006FF29698808FFF4D8AD08A80021082217F071FB08A8C7
:205F000015F0E4FE22F0C2FA4FF4FA674FF47A71B1FBF0F081B207FB01F022F0C5FDFF2055
:205F200003211EF02BFC22F0DBFA024901200860FEE7C0467C052043403400202DE9FC4791
:205F4000D44C0F460546F80B80F006826078DFF85883B90F80F0AA81B90880F09D81F90A47
:205F600080F00281390B80F0CC80380907D2F80FC0F0288227F0804718F018FF22E222F0A0
:205F800020FC814620F008FF002800F0B480082022F0E2FA002840F0AE80802022F0DCFA97
:205FA000002840F0A880684614F00CFE012803D10098002800F09F8094F84102002840F0B2
:205FC0009A8000250126E8B221F0A2FF48B1837A3BB1867290F9090006FA00F0C0B21EF033
:205FE0000DFD6D1C032DEED3032084F8200004F5CC7022F0E0FB484622F062FDD3480025FD
:206000002A460168056050F8081CD14940F8085C04F15C0020F010FE40460068006B804791
:20602000A168401A010BA06AC1F1FF3282422CBF08444FF0FF30A06294F82C0020B1206987
:20604000A16AB1EBC02F25D920F0B6FE294600B13146081C1BD0BF4840F6090101804580B5
:20606000417B06F00F0221F00F010A434273017B05F00F0321F00F0143EA01020273294682
:20608000416022F0E5F8418811F4406FFBD084F82C60A5621CF074FACE4829460560022093
:2060A00020F060FB02201FF0D1F8112012F062F9207818B96068483022F097FBC64800781A
:2060C00010B90E2012F056F994F82D0020B184F82D5005201FF0BAF8C048606284F8205059
:2060E000B4F9B000B4F9B210884214BF0220072016F06AFA02E0484622F0E2FC27F00807FE
:206100003AE720B104201FF0A1F80020607065681EF004F938B12846ED696FF480710022D6
:206120004FF00073A847E06858B140460068006B8047E2686168801AC860000BC86000261F
:20614000E660A74904F15C00002220F075FD0221D4F89C0084F8201018B104F1DC0022F031
:206160004CFB27F4006707E722F02BFB064620F013FED4F894100028894600F0848000293F
:2061800000F081809749042504F15C00002284F8205020F051FD304622F092FC04F5CC70FD
:2061A00022F009FB40460068006B8047E0604FF0010884F8018028461FF060F8D9F810006E
:2061C0006060D9F81000416AC90803D3036A29460022984740461AF013F8606880F815807F
:2061E000606812F045FA6568D5F808A040F60A02D01F564600F1010C00E01E46736833B186
:2062000019888A4203D0884218BF8C45F5D100217160727B08F00F0322F00F0213437373BE
:20622000D9F80C201288904224D06046904221D02B8E03B3696305F13002518095F83C009B
:2062400001F00F0320F00F00034385F83C3095F83D0008F00F0320F00F00034385F83D30CA
:206260007260707B01F00F0520F00F0045EA0001717300E0E160504621F0EAFF514640465B
:2062800020F070FA02E0304622F01AFC27F4806798E0C046A02900200BF09CFCD4F89C00A0
:2062A00008B927F002078DE08C0100104E4A116841F08001116020B104201EF0C7FF0020D6
:2062C000607022F07EFA8246D8F85400016804208847D0B1287DC0B1A068B0B18146D8F885
:2062E00000002E69006B8047A0EB09002861000B2861B04202D280194008286140F6C411E9
:2063000081422CBFB0F5967F2961504622F0D8FB1EF004F880B1EE6928466FF4807100229A
:206320004FF00073B047D4F89400002808BF47F0020701D018F03AFD2846AD6900214FF031
:2063400080630A46A84727F000573BE014100440E9070200F84C002022F033FAD4F8AC60BD
:2063600066B306F1280106C90A234FF0E0450B40154008BF002B21D106F1280191E8000364
:2063800006F1280595E8060006F1280322EA090221EA080183E8060022F092FBB16879B1B6
:2063A000B9F1000F08BFB8F1000F09D03069B6F93010B5684B464246A84701E022F080FBB1
:2063C00027F4804727B104F1DC00394622F015FABDE8FC8700000460AEA80200BD5A010096
:2063E000F1510100796D0200CC2108402DE9F04FADF1840D1B91CB491C923CC9064610A842
:206400003CC00EC980E80E0000248DF84240317F8DF84340B28D8DF84D40D6F828C0ADF8A4
:2064200044400F46ADF85A20F2898DF854706046ADF84A20027802F00303022B8DF8402067
:2064400000F3C38123461D93401C1F9353083CD202F00C0EBEF10C0F0CD053093CBF10F864
:20646000013B8DF84230BEF1080F04BF01238DF84C3001D08DF84C40BEF10C0F0AD07379C9
:2064800003F00303012B0CD142F00C0273898DF8402004E045780378801C03EB0523ADF866
:2064A0004430530911D245780378801C03EB0523ADF8463003784578801C03EB0523ADF895
:2064C000483010F8013B8DF8433010F8013B32F07F058DF855301ED0037833F003058DF8FB
:2064E000413040F06E8103F0030EBEF1030F00F0688113F0030F00F101000ED010F8013B45
:2065000002F00305022D8DF8573004BF10F8013B8DF8583001E08DF841401490A0EB0C0010
:206520003F1AFFB2B942C0F24C81C91B8DF85470C8B28DF84D00074300F04781D00907D3A9
:2065400070891CF091FF002840F03F819DF8402002F00C002146001F08BF01211E919109E3
:2065600033D301211F9180B3B28921F0ADFF904202D1F08D000A0ED221F0A6FF904222D092
:20658000F08D01460B0A38BF101C07D39DF8402002F0030C2EE07089ADF85A20804621F032
:2065A00093FFBDF85A10884205D040461AF0E2FE002800F00A818648026810A9404690472A
:2065C000002840F002819DF84020F08D02F0030C01460B0A0ED2D3090CD39DF8413013F06D
:2065E000030F07D102F00C030C2B03D0082B1CBF01231D93DFF8E081BCF1020F00F0C2809C
:20660000BCF1010F00F0908012F0030F40F0DD80704A92F82F20012A03D1B779002F00F03B
:20662000D4809DF8542002231A92040A9DF84250BDF846B0BDF848A09DF855E09DF857C039
:20664000DDF850908DF86430B2899DF84370ADF85C2034D21E9F40461A30046897B91D9FBD
:206660001FB1104610A914F07AFE1F9800901C9F0197B07C1B9A0290F37C17A910A812F0C9
:20668000D9FAA2E0307C002C8DF8560000F09D8021F01AFFBDF85C20904240F096803079C9
:2066A0001F9F00901C9D01971B9A02951D9B039196F8300010A9049017A8A04785E0ADF8E8
:2066C00030008DF820308DF8227034798DF833407189ADF818108DF835E08DF82350ADF8FB
:2066E00026B0ADF828A0CDF82C90307C8DF836C0B27C8DF8320096F830308DF83420354C82
:206700008DF83730B4F8481096F83270ADF824101A998DF8387006A8ADF82A1006F0FAF92A
:2067200053E0C04678A602001D9FB58937B1000A04D2284610A914F012FEB5899DF85400DC
:20674000B6791030C0B220F0F0F9071C3DD07D81022038703E737C709DF854203A7207F11D
:2067600010057D609DF84000800928BF01247C721499786821F0CAF84046007839461BF0E7
:2067800057FC22E09DF8417040462230B189036817F0030F10D110A807901048ADF8181073
:2067A00006A91EF0EBFE80B1062141730068407B21461CF049F908E03BB110A8224698477C
:2067C00003E08DF84D408DF8544021B0BDE8F08FB83C002088340020BE3A0020631E02002B
:2067E0002DE9F04FD24CDFF84C93DFF84C83080CADF1140D019180F0D4810846400838BF13
:206800000020C0F0D881676822F05EF9054621F03DFE4FF47A764FF6FF726843B0FBF6F05B
:2068200081B267B13B887888CB1A9BB2984210DDC01A8242C8BF82B2FF68002FF2D14FF65A
:20684000FF70904200F095802078012121F082FF8FE0B87902287FD022F036F9054621F0F0
:2068600015FE97F838204946684301F10A03B0FBF6F038801878904266DD97F83600FF280B
:2068800008D197F83800401C87F8380097F8370087F8360097F8356097F83930002001216C
:2068A00001E0401CC0B283420FDD97F8365001FA00F285F0FF052A42F3D03618814097F830
:2068C0003600F6B2014387F8361097F83400B98F10FB06F2891A89B28842C7BFFF2087F8F7
:2068E0003600011C97F8360099F82420FF2818BF97F83A0006D140460078642510FB02F287
:2069000012FB05F0788046B9388D3E7A40F020003885386C87F82E600BE03A8D4FF6DF70FD
:20692000104038853D6C87F82E6097F8342012FB06507862F879CEB287F82D0007F11000CF
