:10000000602002209D7D02003D9B02003D9B02007E
:100010003D9B02003D9B02003D9B02003D9B020078
:100020003D9B02003D9B02003D9B02003D9B020068
:0C0030003D9B02003D9B020001170100F7
:10003C002DE9F047A8B004460078A0F1A0015C2996
:10004C0000F26780DFE811F0BC00DF005D005D00AE
:10005C00F70024015F015D0084018D01A901E60117
:10006C0015023C024F025B02690274027D02860299
:10007C008C0295029B02C902E002EB02F702070315
:10008C001203B900B900B9001C032603B900B9006A
:10009C003103B900B900B900B900B900B900B90011
:1000AC00B9003C034203B900B900B900B900B9006A
:1000BC00B900B900B9004B035403B900B900B90039
:1000CC00B900B900B900B900B9005D03B900B900B5
:1000DC006403B9008603B900B900B900B9009003F4
:1000EC00B900B900B900B900B900B900B900B9003C
:1000FC00B900B900B900B900B9009903A7035D00B4
:10010C00B90060681221002808BF0221617001F05B
:10011C0083BA4D2800F25180A678DFE810F04C032A
:10012C004E005C03660346044E004E006F048004D0
:10013C00CE044E004E004E004E004E004E00D70432
:10014C00E10409054E002D05350643064E004E060A
:10015C005D064E00680682064E00AB06CF06D20640
:10016C00DF0603074E004E004E004E004E004D07BA
:10017C004E005B076C077D074E004E004E004E0094
:10018C004E004E004E004E004E004E004E004E00F3
:10019C004E009607B107CB074E004E004E004E00A6
:1001AC00E5074E0047084E0058084E004E004E0022
:1001BC004E0078088F089C08A608122001F02BBA74
:1001CC006068002801F02682A168002901F02282D3
:1001DC0001783A20002908BF3B200BAD00211122E9
:1001EC002B462BF0F3FE0028607041F01582D4E909
:1001FC0001109DF82C204270097800F8021B691C34
:10020C00102200F034BE6168002901F003820878E6
:10021C004A783A258B7800288DF82C2008BF3B258E
:10022C000BA80130002B01F03680033110222CF08A
:10023C00A3F801F032B86168002901F0EB81A068E5
:10024C00002801F0E78111F8012B00F8012B2CF0AC
:10025C00A8FD60680178002901F0AD81DFF8DC0EA3
:10026C000BAE002506F108080788AF4201F0D081DB
:10027C00A9B2042000221423009628F02DFF6070F0
:10028C0020B92CF0BDFA002801F023820135ECE7EF
:10029C006068002801F0BE810178002901F003801C
:1002AC00DFF8980E0DF12C0A00250DF11C08002624
:1002BC000AF10809CDE90955CDE907550788B74278
:1002CC0001F0D781B1B2042000221423CDF800A094
:1002DC0028F002FF6070A0B960684946082204301B
:1002EC002AF0B4FE002801F0C28155B9606841467D
:1002FC00082204302AF0AAFE00284FF0000508BF9F
:10030C0035460136DBE76068002801F0838101780F
:10031C00002900F0E287DFF8240E0DF12C090027EC
:10032C0009F108080588BD4201F07681BEB20420AF
:10033C0000221423CDF80090314628F0CDFE6070D9
:10034C0020B92CF05DFA002801F0A5810137EAE70D
:10035C00DFF8EC0D4FF48071007820F065F801F0B7
:10036C0057B96068002801F055814188008828F051
:10037C00ADF968B9606801224188008823F074FBEC
:10038C0060684188008828F0A1F9002801F09A8162
:10039C0061680979417001F03BB96168002900F08E
:1003AC006F87DFF8A05D087885F8260095F8722035
:1003BC004888E882087A2876488968834868A86261
:1003CC008889A884887B85F83800C87B6871087C8C
:1003DC00E8704869286388696863087F824202D0A4
:1003EC0024F0DEFA616805F139001D312CF024FD92
:1003FC0095F82600082840F04B87DFF8482D21207F
:10040C0074212CF0FFFA00200221002526F090F830
:10041C0000F03FBF6068002800F03487007824F0BB
:10042C00BFFA6168DFF81C5D287E4978884212D0DB
:10043C0029760BA9E12028F055FC606841789DF8DD
:10044C002C00884207D08DF82C100BA9E12024F049
:10045C001DFC60684078012101FA00F0A8622AF0C6
:10046C00C7FA00260120A5F870601EF063FE00F0AC
:10047C000ABF6068002801F0CD8001884088ADF883
:10048C001C00ADF82C100BA9532024F0FFFB07A97E
:10049C00502024F0FBFB0DF11B01E12028F022FC85
:1004AC0060689DF81B100079814201F0B1808DF8D5
:1004BC001B000DF11B01E12024F0E8FB01F0A8B8B2
:1004CC006168002901F0A680DFF87C0C2CF069FC37
:1004DC006068DFF8782C0189807A1180DFF8701C55
:1004EC00087001F095B86068002801F09380002135
:1004FC0061708178008821F05BFA01F08DB8A068FA
:10050C00002801F087800020607023F01DFF002878
:10051C0000F0E786A16800F08EBE6068002801F04C
:10052C00798000216170007809F0C4FF01F074B883
:10053C006068002801F06E80007824F0EBFB01F07D
:10054C006AB8A068002801F06580002060702CF06B
:10055C00B7F9B2E00020607026F0FCFB01F05CB84B
:10056C00A068002801F05680002060702CF086FAFC
:10057C00A3E00020607026F025FC01F04DB8606807
:10058C00002801F0478000216170017D19B1C17C08
:10059C00DFF8C02B5174817D19B1417DDFF8B42B8C
:1005AC009174017C19B1C189DFF8A82B1181017BF1
:1005BC0019B18168DFF89C2B5160817C19B1417CA9
:1005CC00DFF8902B51730179002901F02580006828
:1005DC00DFF8801B086001F01FB8A068002801F04C
:1005EC001980DFF8701BD1F80D20C0F80D2091E8B0
:1005FC002C0085600D7BC0E900230573B1F8111048
:10060C00A0F8111001F004B8A068002801F00280D5
:10061C0000216170411C24F05BFB00F0FDBF6068A1
:10062C00002800F0F7870021617022F071FFA168AB
:10063C00088000F0F1BF6568002D00F0EB87EB88B7
:10064C00AA88698828782E890A35CDE9006516F0C4
:10065C0097FD00F0E0BF6068002800F0DB8782881F
:10066C004188007806F028FD00F0D5BF60680028AE
:10067C0000F0D08700F1120125F04CFA00F0CBBF4E
:10068C006068002800F0C6874168007822F0FEFF01
:10069C0000F0C1BF6068002800F0BC8700216170C9
:1006AC00007827F0B7F800F0B7BFA068002800F07A
:1006BC00B187002060702AF00BFAA16800F0BCBD75
:1006CC000020607021F0FAFD00F0A6BF60680028E1
:1006DC0000F0A087006826F059FB00F09CBF606812
:1006EC00002800F09787006805F0B6FB00F093BF78
:1006FC006068002800F08E8700680EF075FC00F032
:10070C008ABF0020DFF8501A6070E07800F094BDCA
:10071C006168002900F080870820ADF82C0008885B
:10072C00ADF82E00081D0BAC90E86800221D68C2C5
:10073C00087CD1E905231C31CDE910238DF83C0050
:10074C0004F11C0010222BF017FE204628F006FDA9
:10075C0000F062BF6068002800F05E87817A008834
:10076C0024F0FAFD00F058BF60680078002800F013
:10077C008C8526F083F900F04FBF6068002800F0EC
:10078C004987DFF8D819097801293FF616AD2BF007
:10079C005FFB00F040BF6068002800F03B87DFF88B
:1007AC00BC19097801293FF608AD4168008821F091
:1007BC007BF800F030BF6068002800F02B87407891
:1007CC0018B1FF20032125F0B3FE2BF0D7FFE8482A
:1007DC0001210160FEE76068002800F01B870321FF
:1007EC000171E449016000F013BF6268002A00F057
:1007FC001187A168002900F00D8700206070107827
:10080C0040B101200870DFF858090078002818BFA3
:10081C0001204870907840B101200871DFF844093C
:10082C000078002818BF01204871D07848B100200A
:10083C002BF0B8FBD4E90121C0F34030C871012082
:10084C008871107950B30120087201F10C002BF063
:10085C00A9FBA1680882DFF80409007802281DD1E1
:10086C00DFF804090078C8B9DFF800590120A8475F
:10087C00A16848610220A847A16888610420A847A4
:10088C00A168C8610820A847A16808621020A84781
:10089C00A16848622020A847A168886260684279F4
:1008AC0032B1012281F82C20DFF8C4281288CA85C5
:1008BC00827932B1012281F83020DFF8B828128811
:1008CC004A86C27932B1012281F83420DFF8A82897
:1008DC001288CA86027A3AB1012281F83820DFF8F0
:1008EC009C28127881F83920427A3AB1012281F899
:1008FC003A20DFF88C28127881F83B20827A3AB1C2
:10090C00012281F83C20DFF87C28127881F83D2008
:10091C00C27A3AB1012281F83E20DFF86C281278B5
:10092C0081F83F20027B3AB1012281F84020DFF8A8
:10093C005C28127881F84120427B3AB1012281F87F
:10094C004220DFF84C28127881F84320827B3AB1A0
:10095C00012281F84420DFF83C28127881F84520E8
:10096C00C27B002A00F0C08601201122002681F8EB
:10097C0046000BAD812000212B462BF027FB9DF868
:10098C002C00A168002881F8470000F090862CF01C
:10099C00B2FAA1680028886400F0A1869DF82C208A
:1009AC00691C2BF0E9FC00F09EBE254655F8040F9F
:1009BC00002800F02F8600216170017841B1407849
:1009CC00DFF89C270121107063202CF01BF828689D
:1009DC00017941B14079DFF88C27012110706D202D
:1009EC002CF010F828688179002900F07C84C179FA
:1009FC004FF400500DF014F800F089BC606800282A
:100A0C0000F0088690F9005028462AF0FFFBA068F9
:100A1C00002800F0FD85E9B2017000F0F9BD6068B6
:100A2C00002800F0F785002161702A212CF064F970
:100A3C00DFF810576068DFF860670822E98A0180E8
:100A4C00A98C8181698BC182DFF85017097881727A
:100A5C0005F139010E30B04767682BF081F901467A
:100A6C00B81C0822B047606805F11C010822183038
:100A7C00B0476068297E012280F82310DFF8201728
:100A8C0080F821208978CB0718BF80F824208A07AA
:100A9C0044BF012280F825204A0744BF012280F878
:100AAC0026200A0744BF012280F82720490644BFAC
:100ABC00012180F8281000F0AFBD6068002800F01C
:100ACC00A98500782BF0AAFF00F0A2BD6068002871
:100ADC0000F0A0850088002110F0CAFA00F09CBD3F
:100AEC006068002800F0968530462AF01BFF05460A
:100AFC00002800F01485E888DFF8A81640F00C00F8
:100B0C00E88002202BF090F9DFF89C1603202BF0E4
:100B1C008BF940F20110ADF8310060680168007982
:100B2C000B918DF830000BA820F006FD00F073BD82
:100B3C006068002800F06E850BAD011D0822284668
:100B4C002BF01AFC032029F043FF6068C07B27F0D0
:100B5C00DDFBDFF84C068378606841888689027873
:100B6C00807BCDE90060284614F09CFE00F053BD5C
:100B7C007C052043010102066768002F00F04A85BE
:100B8C002BF0E2FF0546002800F0DA84387828B113
:100B9C00E988787821F001010843E880B87830B111
:100BAC00E988F87821F0020141EA4000E8803879C0
:100BBC0030B1E988787921F0040141EA8000E880BD
:100BCC00B87930B1E988F87921F0080141EAC00020
:100BDC00E880387A30B1E988787A21F0100141EA5E
:100BEC000010E880B87A30B1E988F87A21F0200159
:100BFC0041EA4010E880387B30B1E988787B21F0FD
:100C0C00400141EA8010E880B87B28B1A968F87BE4
:100C1C0021F001010843A860387C38B1A968787CC0
:100C2C0021F00201002818BF0231A960B87C38B14C
:100C3C00A968F87C21F00401002818BF0431A960D0
:100C4C00B87D38B1A968F87D21F01001002818BFD3
:100C5C001031A960387E38B1A968787E21F0200166
:100C6C00002818BF2031A960B87E38B1A968F87E79
:100C7C0021F04001002818BF4031A96097F82200EC
:100C8C0048B1A96897F8230021F48061002818BFA7
:100C9C0001F58061A96097F8260048B1A96897F81A
:100CAC00270021F40051002818BF01F50051A9605C
:100CBC0097F8280048B1A96897F8290021F48041D9
:100CCC00002818BF01F58041A96097F82A0048B1A7
:100CDC00A96897F82B0021F40041002818BF01F5F2
:100CEC000041A96097F8340048B1A96897F835001D
:100CFC0021F48011002818BF01F58011A96097F824
:100D0C00380048B1A96897F8390021F4800100280F
:100D1C0018BF01F58001A96097F83C0048B1A9689B
:100D2C0097F83D0021F08071002818BF01F1807107
:100D3C00A96097F83E0048B1A96897F83F0021F0E8
:100D4C000071002818BF01F10071A96097F84000EC
:100D5C0048B1A96897F8410021F00061002818BF3C
:100D6C0001F10061A96097F84200002800F054845A
:100D7C0097F84310A86800290CBF20F0805040F071
:100D8C008050A86000F048BC6068002800F04284E5
:100D9C008178002900F0E783C2780321002A08BF7C
:100DAC000121E1E36168002900F0348408888A7825
:100DBC0001211CF07BFC00F02EBC022060706068EE
:100DCC00002800F029844188007825F059F9002882
:100DDC0040F01E8400F020BC6068002800F01A84EB
:100DEC0000216170007825F045FF00F015BC6068AB
:100DFC00002800F00F84A168002900F00B8400216A
:100E0C00617000782AF03AFAA168087040002CF062
:100E1C0072F80146D4E901025160007829F0D0F94A
:100E2C00FAE36068002800F0F583A068002800F061
:100E3C00F1830026C0E9006660684188007828F0DC
:100E4C0087FD002800F0CF8366700546A1680088F6
:100E5C000880A8780028887000F0DE832CF04BF80E
:100E6C00A1680028486000F0D7838A78E91C2BF031
:100E7C0083FAD1E36068002800F0CC830021CDF820
:100E8C003A10CDF83610CDF83210CDF82E1002797C
:100E9C004188ADF82C105AB1816849B10F2A28BF8E
:100EAC000F228DF82E200BA803302BF065FA60680A
:100EBC0000780BA901221EF00FFFACE32AF0F0FF23
:100ECC00A9E36568002D00F0A5832F7838462AF039
:100EDC0035FD002800F05183D0209CE36068002889
:100EEC0000F0988300782AF029FD002800F0928306
:100EFC000546007B26F040FC0028607040F08C8397
:100F0C00DFF8E00A4168002900F0868300220C46D5
:100F1C002346002C00F0CD83AB4200F0CA831C6842
:100F2C001A46F5E76668002E00F07483357D284676
:100F3C002AF004FD002800F06D83307F102141EA77
:100F4C004007717F002908BF4700B07F002818BFF9
:100F5C0047F00807F07F002818BF47F0200796F8E5
:100F6C002000002818BF47F0400796F82100002801
:100F7C00284618BF67F07F07D6F818802BF06CFA5C
:100F8C00002800F0478305466068827A01788DF866
:100F9C00352082898DF83410ADF836204A1E022A8D
:100FAC0005D3032900F046840F2940F0488441887A
:100FBC00ADF82C1000F043BC61680220002900F051
:100FCC002A830A888DF834004988ADF82C200BA8A8
:100FDC0002221DE061680220002900F01C838DF8BC
:100FEC003400002308880A794988ADF82C000BA836
:100FFC0029F09EF80FE361680220002900F00B83B2
:10100C008DF83400052208884988ADF82C000BA80F
:10101C0000232AF0DFF8FEE265680220002D00F0C4
:10102C00FA828DF834002E7B00272888AB79AA88A9
:10103C006988ADF82C00A8682D69CDE90006CDE9CA
:10104C0002570BA817F0D2F9E5E265680220002DD3
:10105C0000F0E1828DF83400EE682F7C4FF0000C2C
:10106C002888EB8869882A79ADF82C00287A6D6974
:10107C008DE8C100CDE9035C0BA817F05FF9CAE25B
:10108C006168002900F0C68202208DF83400887B4C
:10109C000D88421E8DF82400022AADF82C5005D381
:1010AC00032800F0A2820F2840F0A482088AADF831
:1010BC001C009FE26068002800F0AC8202218DF8D1
:1010CC0034100188ADF82C10817B4A1E8DF8241049
:1010DC00022A05D3032900F0B0820F2940F0B38215
:1010EC00018AADF81C10AEE26068002800F0928214
:1010FC0002214FF6FC728DF8341001888A1A032AEB
:10110C0011D8022A0FD02BF02DFBADF82C00606803
:10111C000021837AC27A0091811C0BA824F038FF3D
:10112C00607060680188ADF82C10837AC27A002157
:10113C000091811C0BA824F02BFF6CE22AEC02001E
:10114C00CB72002078630020982600209626002081
:10115C0094260020082200204C280020AC260020D9
:10116C0088280020FA7200208D28002075FE0100CE
:10117C0036280020322800203A2800207E28002023
:10118C007B280020702800207C2800208728002045
:10119C00712800208A28002085C3020048270020DF
:1011AC0048710020016502003DC002006268022007
:1011BC00002A00F030828DF83400002310889178DA
:1011CC00D278ADF82C000BA820F042FB23E261682A
:1011DC00002900F01F82CA7A887A0B7B4D7B002A8B
:1011EC0018BF40F00200002B18BF40F00400002D87
:1011FC0018BF40F008008A7B002A18BF40F040005E
:10120C000023C2B20888023125F0C4FC03E26068F6
:10121C00002800F0FF81A168002900F0FB81007814
:10122C000BA929F08BF90020BDF82C206070D4E9B3
:10123C000101A1F8012000780870EDE16068002838
:10124C0000F0E881B0F80110ADF82C1000780BA973
:10125C0029F0EAFFDFE16068002800F0DB81017A09
:10126C00427A00231FF070F9D5E16068002800F085
:10127C00D1818178C2780088002327F0BFF8CAE1B9
:10128C00022506E002266670C6E129F046F9C3E1A4
:10129C0000256570C0E127F0E1F80BAA2846112162
:1012AC002BF0B0FBB7E100F10C010BA810222BF0D6
:1012BC0063F86068D0E907120430CDE90F1207A972
:1012CC0028F048FF0028607000F0FE8161684888B3
:1012DC0004310BAA21F0D4FD9DE101302AF081FCF0
:1012EC0099E1012097E1017A89B1C168008A42072E
:1012FC0001D064290BD315F0C3FA002001210CF0A6
:10130C008FFBDFF8E826352028212BF07BFB2868A3
:10131C00817C41B1808ADFF8D826022110804420DC
:10132C002BF070FB2868817D41B1008BDFF8C4265F
:10133C000221108046202BF065FB2868817E41B18C
:10134C00808BDFF8B4260221108083202BF05AFB0F
:10135C002868817F41B1C07FDFF8A0260121107081
:10136C0029202BF04FFB286890F8201049B190F8F9
:10137C002100DFF88C26012110702B202BF042FB72
:10138C00286890F8221049B190F82300DFF87426F1
:10139C000121107043202BF035FB286890F82410A5
:1013AC0049B190F82500DFF86026012110702E203D
:1013BC002BF028FB286890F8261049B190F82700EC
:1013CC00DFF84826012110702F202BF01BFB28681A
:1013DC0090F8281049B190F82900DFF83426012143
:1013EC00107030202BF00EFB286890F82A1049B1B1
:1013FC0090F82B00DFF81C26012110702C202BF00C
:10140C0001FB286890F82C1089B190F82D20102A37
:10141C0028BF1022016B8DF82C200BAC601C2AF01D
:10142C00ABFF8120112122462BF0ECFA286890F8B2
:10143C00341049B190F83510102928BF1021826B57
:10144C0062202BF0DFFA286890F83C1041B1006C58
:10145C00DFF8C4250421106084202BF0D3FA28680F
:10146C0090F8441049B190F84500DFF8B0250121FF
:10147C0010704B202BF0C6FA286890F8461069B112
:10148C00DFF89C4500F14701082220462AF074FF42
:10149C004720082122462BF0B5FA286890F84F1007
:1014AC0031B100F15002012008212BF0ABFA286871
:1014BC0090F8581041B190F859008DF82C000BA9F8
:1014CC00522023F0E3FB286890F85E1049B190F8A5
:1014DC005F00DFF850250121107033202BF092FAB9
:1014EC00286890F85C1059B190F85D00DFF8382549
:1014FC000121107032202BF085FA21F025FF28688D
:10150C0090F86010002900F0878090F86100DFF8F7
:10151C00D4144870DFF8C81481F868007CE01C20F3
:10152C002BF0E9FC002877D01C2105462BF0E4FBBE
:10153C0028462E7126F0D6F900287FF4DCAA91E01B
:10154C001C202BF0D8FC002866D01C2105462BF063
:10155C00D3FB28462E7126F0C5F9002800F08280B6
:10156C006768FFF713BB002103794279002B18BF82
:10157C00403100880FF00CFA4DE02AF0EBF9DFF85F
:10158C0064140978884270D22BF0DEFA20B18146BF
:10159C00007B002800F08D811C202BF0ACFCD8B314
:1015AC001C2181462BF0A8FB89F804604FF0010840
:1015BC0065682F787FE1013007A928F0CBFD6070BA
:1015CC0050BB07980021182240880BAB2AF0FEFC78
:1015DC00607008BBA068DDE90F12C0E90712093082
:1015EC000BA9FEF70DBEB12015E0103107A82BF0AA
:1015FC00D8FB6168DFF8E803C08A854210D1887A8D
:10160C000A7E0C310123009107A90BF01DF808B1DB
:10161C00002000E002206070012028B0BDE8F087B7
:10162C0088890A7E8B7A07AE0025CDE90006CDE9C4
:10163C0002258A1C0BA9212011E000F1100107A83A
:10164C002BF0AFFB60688189027E837A07AE0025A0
:10165C00CDE90225CDE90016821C0BA922201CF035
:10166C00BDFED8E728462BF044FCD120D3E7374603
:10167C003546012DD0DB60680822011D48462AF052
:10168C007BFE60681422D0E90710CDE90B10B9B2CB
:10169C000BAB042008E00BAD142128462BF02CFBDF
:1016AC000420314614222B4627F02CFDB3E78E6420
:1016BC0019E0AB42B0D1A94208BF021D28681060E6
:1016CC002846E2E0C820A6E70798182140880BAA14
:1016DC00E6E5A068DDE90B12C0E907129CE70020E3
:1016EC00886481F847006068007C70B110202BF092
:1016FC0002FC0346A06803653BB10121102280F86F
:10170C004C10622000212AF061FC6068417C31B1F0
:10171C00A168012281F85420BF4A12688A65817C35
:10172C0039B1A168012281F85C20BC4A127881F899
:10173C005D20C17C51B1A0680121082280F85E10A7
:10174C00A7495F3039312AF017FE6068017D59B125
:10175C00A568012085F867002AF002FB014605F117
:10176C0068002BF01EFB6068417D79B10BA95220FB
:10177C0027F0B8FAA068012180F870109DF82C10A1
:10178C00002918BF012180F871106068817D19B1A2
:10179C00A1680122A1F87220C17D51B1A16801227A
:1017AC0081F87420A04A1278002A18BF012281F80F
:1017BC007520017E39B1A168012281F87620994A01
:1017CC00127881F87720417E51B1A168012281F80D
:1017DC007820844A5278002A18BF012281F8792097
:1017EC00807E00283FF418AFA168012081F87A00B0
:1017FC007B4991F82610082918BF042916D0A1B9E5
:10180C0021202BF089FA74280FD10BAB2120002159
:10181C0074222AF0DBFB9DF85210043901F0FB0115
:10182C000843B0FA80F0400900E00020A16881F87C
:10183C007B00F1E6811C0BA82BF0B3FA6068817B6E
:10184C0031B348002BF057FB88B361680646002281
:10185C00887B904206D00B6933F8123026F8123090
:10186C000132F6E78B8CCA8AD1F828C091F8221085
:10187C00FFB2CDE90406CDE90271CDE900C80BA891
:10188C00294622F09FFF607030462BF032FBC3E6F6
:10189C00838CC28A816A90F82200FEB2CDE90018CE
:1018AC00CDE902600BA8294608F03CFCB3E61020F9
:1018BC00B1E64FF000084E4606F80C7F287A3073DC
:1018CC004948706014202BF016FB0028B06045D0FE
:1018DC0014212BF011FA6268D9F81400526881793E
:1018EC00927901F0F00102F00F02114481716168EC
:1018FC00D9F8140049680A780270D1F80220C0F8AF
:10190C000220CA79C271097B017350002BF0F3FAE3
:10191C00D9F81410886060B1CA7900239A4208D0B3
:10192C0065686D68AD6835F8135020F813500133B5
:10193C00F4E7087B40002BF0DEFAD9F814100861AC
:10194C0060B1097B0022914208D063685B681B6917
:10195C0033F8123020F812300132F4E7304628F018
:10196C001DFCB82802D00746022806D1307825F095
:10197C0003FF304628F012FC074637B1B8F1000FD0
:10198C000FD048462BF0B5FA23E0B8F1000F3FF426
:10199C0043AE484625F0A6FF00287FF43DAE4846EE
:1019AC0073E7D9F8140078B1816821B108462BF09F
:1019BC00A0FAD9F81400016921B108462BF099FA64
:1019CC00D9F814002BF095FA0020C6E90000C6E9FE
:1019DC000200B82F3FF480AA022F3FF47DAA1BE629
:1019EC007863002008270020355C00204C6D002017
:1019FC0036280020322800203A2800207E2800209B
:101A0C007B280020702800207C28002087280020BC
:101A1C00712800208A280020202800206D28002012
:101A2C004027002075280020762800202DE9F04F53
:101A3C0099B080466FF007000DF11C0B063098F83A
:101A4C0008105A46ADF85200D8F8040011F080FC8A
:101A5C00002800F0B5809DF81E609DF81F409DF891
:101A6C002070BDF826502AF077FE844240F0A88002
:101A7C0025F003004FF6F87480B2A04200F0A0806D
:101A8C00012F00F29D80022E80F09A80B8F8280079
:101A9C00ADF84800B8F83200ADF82A009DF82200E5
:101AAC00D0B1D8F804109DF81D209DF838300120D5
:101ABC0029F02EFB08B1CF2083E0DFF85807C0785F
:101ACC00012809D1B8F828002BF0D5F820B14179BC
:101ADC0001F0E701083141719DF8210068B1BDF8B2
:101AEC002610FF2027F034FF9DF82110D8B141F0CB
:101AFC0001012C268DF8211016E09DF839000028E4
:101B0C0064D09DF83D10FF2902D0002940F0ED80F3
:101B1C00DFF80407BDF82620C18A8A4240F0EE8027
:101B2C000120222607E0082601F00300012808BF47
:101B3C0046F0110601203746B107DFF8DC9658BF96
:101B4C0067F07F07002808BF37469DF8220030B9A0
:101B5C0099F80B0018B107F02200222813D117F0C6
:101B6C00400A58D0119899F80E200178920718D491
:101B7C000C291BD8012241F290438A401A4245D1CC
:101B8C00032940D012E0F8B200F0420042287FF462
:101B9C0092AF1198007800F0FE0006287FF48BAF0E
:101BAC00DDE7A1F10C0212F10C0F2AD8B9F81600DE
:101BBC00BDF82620824203D1BDF8280026F09EFAFB
:101BCC00D32017F0FCFB19B0BDE8F08FBDF8260050
:101BDC0024F03CFE0238DFF84016B0FA80F0CA8AD6
:101BEC004109BDF82600904208BF0231002900F0DF
:101BFC008C809DF81E20002A00F03A8101F14007EC
:101C0C0038E1032902D140780D2804D007A824F02C
:101C1C0093F80128D7D0B9F82400B8F844108142C1
:101C2C000AD198F84620B8F84210B8F828000023DA
:101C3C00009300230FF0ACFF9DF82200E0B1B8F840
:101C4C004210B8F8280026F041FDB8B30646D8F883
:101C5C0004009DF81D10F2780844417B8A421EBF97
:101C6C0000227260F1700130042127F051FB716881
:101C7C008842A8D30130706099F80E008007A2D575
:101C8C009DF84D0058B1BDF8280029F0EFFC002854
:101C9C006FD0D8F80400417801F0DF0141709DF855
:101CAC002E00A0B3D8F804008179013981718DF828
:101CBC002E1007F07F0009062CD12AE09DF84D006C
:101CCC00002841D0042028F025F900283FF47BAFF0
:101CDC0001464FF4B2700880B8F828004880DFF84D
:101CEC003C0500781FF0ACFC6DE7109A9DF83C00A9
:101CFC0022F022FF30B1012000261CE790F82600CC
:101D0C000428F8D10026002015E70027B2E007F0E0
:101D1C007F000746390702D44FF0000A49E0F9B2B8
:101D2C004A0737D4C9069DF821103DD5C1F382026C
:101D3C0012B1072A18BF013A002A08BF074601F062
:101D4C00E30040EA82012DE099F86C0001287FF451
:101D5C0093AF11980078062803D1BAF1000F7FF4E5
:101D6C008BAFE01DBDF82A1080B281423FF42BAF3F
:101D7C0044E1D32017F023FBDFF8A40400780028FB
:101D8C0000F0AD80DFF89C1451F82000C0EB00107F
:101D9C008100A6E09DF8210000F0E00100F0E300D6
:101DAC0040EAD1018DF82110D8F804004FF4805A84
:101DBC00017299F82600092801D0042829D1B9F814
:101DCC001610BDF8260088420AD024F03FFD0228E8
:101DDC0006D09DF8210000F0030001287FF4F3AE3B
:101DEC009DF81E0000285BD011989DF838100078E3
:101DFC00042808BF02296DD0072808BF042900F069
:101E0C00838003287FF4DFAE07A8002112F0AAFD1F
:101E1C00D9E6FEB217F0610F49D0F00708D0B8F838
:101E2C00281007A817F08EF8002871D007F09F072C
:101E3C000025FEB2B80605D529F09CFE07A815A909
:101E4C0006F0C8FA700640F13981B8F8281007A8D6
:101E5C000DF152022B4611F0F7FA002800F08180A8
:101E6C00054611980078012808BF4AF0100A25E1B0
:101E7C0001F1200724F0EAFC0138B0FA80F04009A7
:101E8C0047EA00069DF81E0000283FF453AE119857
:101E9C00007829F027FC012818BF07F07E0649E6D8
:101EAC0029F068FE07A815A906F094FA8BE69DF8B0
:101EBC001E00012864D111980078032853D00528FE
:101ECC005ED1B8F8281007A80DF15202002311F0CA
:101EDC00BBFA78E607A9002012F0B8F973E6D148EE
:101EEC000168D1480268BDF82800904701287FF4AA
:101EFC006AAECE480168BDF828008847CC48016816
:101F0C00BDF8280088475EE607A819F001FC5AE6E0
:101F1C0028F00EFC9DF82E100546BDF8280021B9BE
:101F2C00B8F8281088423FF484AFB9F816108142F3
:101F3C0004D1B848807800283FF47BAFB8F828105B
:101F4C0007A82A460AF0B6FA002800F09E8030074F
:101F5C004AF0040ABDF8260048BFE01DADF8520057
:101F6C0067E70025AAE0BDF8260029F07FFB38B111
:101F7C00B8F8281007A80DF15202002311F064FAEA
:101F8C009DF82E0088B325F04DFE00287FF41BAE83
:101F9C009DF83900B8B3109A9DF83C009DF83D109F
:101FAC0022F0CAFD002873D09DF83D00002878D09F
:101FBC0010992AF0ECFD9DF82430ADF85200112058
:101FCC009DF823209DF821104AF0400A002B08BFF1
:101FDC000920002A18BF0830002918BF0130D8F892
:101FEC0004100A5C013A0A5465E09DF81E000128B1
:101FFC0004D11198007803283FF4E5AD07A84146B9
:10200C001FF036FEDFE59DF82010BDF826000029F4
:10201C00ADF8520000F0CF804020BDF826100BF137
:10202C001D0200EAC7099DF820004B461AF0B8FBC8
:10203C0038B1D8F804004AF0200A017801F03F01C9
:10204C0001709DF8390048B1BDF826100BF1200045
:10205C0023F054FE4AF0400AADF852009DF81E00E1
:10206C00012806D0BDF82810BDF82600002216F075
:10207C00C9FBBDF82810BDF826004A4613F0E8FE4F
:10208C00002818BF4AF0200A15E007F0DF07CFE65A
:10209C00BDF82610BDF828000B2200231CF014F804
:1020AC0091E5BDF82600ADF852002AF0E4FD0028B9
:1020BC0008BF4AF0400A28F03BFB0546A01DBDF8BE
:1020CC00521080B20E1A5B4818BF2E4600780128B9
:1020DC0005D1E01DB8F8321080B281422ED178B211
:1020EC00B0F1FF3F3FF76FAD002E3FF46CADB8F889
:1020FC0008002AF000FF00283FF465ADB8F808206E
:10210C00D8F8041005462AF037F99DF81E10002067
:10211C0098F80830B8F8282016908DF85410BDF8AF
:10212C00521015ACCDE9006ACDE90204284614F032
:10213C00CDFC68B328462AF0DCFE44E5B8F828103C
:10214C008142CCD0601CBDF8262080B28242C6D21F
:10215C00BDF828008142C2D02AF08DFD0028BED0E7
:10216C00017901390129BAD8408801218DF8541020
:10217C00ADF8600015AD284620F066FB0028AED007
:10218C00281D1FF0FDF80028A9D027F069FBA6E751
:10219C002048407800283FF416AD00208DF81860D8
:1021AC00ADF81900DDF826004FEA3040059005A87F
:1021BC0029F002FF07E531073FF52EAF9DF81E1001
:1021CC0001293FF429AF00211AF0AAFA20B1407975
:1021DC0001380228FFF420AFB8F84410BDF85200C3
:1021EC0026F074FA30B1807828F032FD01380728D7
:1021FC00FFF412AFBDF8280029F038FA18B104200A
:10220C008DF8200008E7BDF82610BDF82800022242
:10221C0043E700BF7026002078630020CB720020BB
:10222C007F280020D0E50200D4230020DC230020EE
:10223C00D82300208B2800202DE9F04F8FB00C46BE
:10224C00480718D4200471D4E00400F1CC81200696
:10225C0000F1EA81A00700F10082200500F1348230
:10226C00600600F13482A00400F16682600400F183
:10227C00A882002017E2DFF8D8050178062900F2C1
:10228C001082DFE811F00700C0010E020E020802F6
:10229C000E02C501DFF8BC6596F837104A0700F14D
:1022AC00C8818A0700F1ED81090740F1FA81062106
:1022BC00017096F83A00002800F0C68222F044F82B
:1022CC00002800F0C1820546F0684068407880071D
:1022DC0040F19582287804AB0321002223F039FCCD
:1022EC00002800F07A8206980188B42916D8B42107
:1022FC004FF47A720180DFF860054FF400510078DA
:10230C002AF05EFDDFF85805016839B1DFF8540595
:10231C000078FF2814BF2878FF208847F0684068B1
:10232C004078C00740F0628209205CE2DFF83C058F
:10233C00DFF82475DFF818A5DFF8445548F20408D7
:10234C0048F202094FF6FE7B0088029038781EF0A6
:10235C0083FC002800F0448106460078D3280DD178
:10236C00F089404537D0484539D048F201018842C0
:10237C0040F01C81304618F045F817E19AF800102F
:10238C00884219D1012856D0032840F00F81DFF87C
:10239C00CC0400780138012800F20881B0780128BB
:1023AC0077D0002840F002817078002800F0BE80C1
:1023BC00002020F061FBF9E00A2840F0F780DFF8FC
:1023CC00941491F837003071096A002900F0EE80FE
:1023DC00B01C8847EAE030461CF0A8F8E6E0DFF8CD
:1023EC0094040078002800F0E1809AF8000001289D
:1023FC0040F0DC8029F010FF002840F0D780708876
:10240C00002840F0D3800AAD122128462AF074FC33
:10241C002AF054FB304629461AF0EEFEBDF8340083
:10242C00B0F5285FC0F095800120022121F054F90D
:10243C00DFF84C54BAE0DFF82404007801380128A6
:10244C0000F2B4807078DFF80C2460B192F83C0094
:10245C0092F83D10013082F83C00C0B2884202D99B
:10246C0001200021A0E09AF80100032834D00228B2
:10247C004BD0012840F09A80DFF8F8030078002850
:10248C0000F08C8029F0C8FE002800F09380012019
:10249C0085E07078002851D02AF064F95845DFF8AF
:1024AC00D8B34FF6FE7103D1BBF81600884207D0A3
:1024BC00ABF81610ADF81010532004A922F0E6FB6F
:1024CC0021F0F8FA28F054F900208BF826001FF0C0
:1024DC00F5FE4FF6FE7B69E0AB4604ADAB20002168
:1024EC002A461EF021FF04200A955D464FF6FE7B1E
:1024FC008DF82C000AA811F037FE2AF0DFFA387894
:10250C004FF4805141F2883220E0012050714FF499
:10251C008060ADF8100004A81BF0E3FA2AF0CEFAA4
:10252C00DFF84C034FF4805102680EE013F022FAEE
:10253C00C848406AD0BB1FF0C1FE37E002204FF400
:10254C00805140F6B8328AF8020038782AF038FC0C
:10255C002CE0CA480DF10F01006804AA19F080FBA9
:10256C0001460298C64D814213D29DF8200010B14D
:10257C00FD208DF820000420142204AB8B4626F09D
:10258C00C1FD0BEB4B004FF6FE7B012105EB8000F0
:10259C004172B048002180F83B1003E00020AD49A7
:1025AC0081F83B000120012102F08AFE304628F020
:1025BC003BFCCBE6A74991F83E0020B1886A002885
:1025CC00F4D08047F2E70020002102220023ADF86E
:1025DC00100002208DF8180004A828F0FBFD8CE7F1
:1025EC0084F400405FE09D4800780138012868D8E9
:1025FC009748017803295CD0012962D141780020E9
:10260C0021F06AF85DE00120012121F065F848E035
:10261C000021322201708F4880F836108E48042138
:10262C0000782AF0CDFB3CE014F0DAFF84F0800057
:10263C0039E00521017096F83810890736D596F8DF
:10264C003A1099BB052101600120B070002020F0E8
:10265C00F7FF022027F0C6FD23E080480078013800
:10266C0001280BD80020CDE9040004A816F074FB57
:10267C0020B17948022100781DF0D6FE84F00200CA
:10268C0011E00421017096F83810C90709D096F8AA
:10269C003A10002942D028F0F4FB0420012102F06A
:1026AC000FFE84F004000FB0BDE8F08F0520002170
:1026BC00F5E78178022904D101218170002021F0F5
:1026CC001FFE84F48050EEE784F40060EBE721F009
:1026DC003BFED0B15F4F05463878013838700006A4
:1026EC0016D05D4E4FF48041307823F0BBFB30B9EF
:1026FC00386929F0C9FE10B928781FF02DF9307807
:10270C00402143F698222AF05BFB5248007810B91E
:10271C000B2029F0B1FE84F04000C4E74F49097842
:10272C0001390129BDD8032101600120B0700120BD
:10273C0020F086FF01208DE7464EDFF81C91DFF874
:10274C0020A100250DF11008002006F108070290C9
:10275C003F6857B3D7F804B09BF800000028F7D0B7
:10276C00F028F5D803210022434623F0F2F9002883
:10277C00EED006980188A1B94FF4407086F8365017
:10278C002AF0E7F999F800000AA92AF0A4FADAF875
:10279C00001086F836500029DAD09BF800008847E4
:1027AC00D6E7013901800120D1E7029999F80000A0
:1027BC00C9070BD04FF400514FF47A722AF000FB8A
:1027CC0008E012F0C9FE84F480406CE74FF400512D
:1027DC001FF04EFC84F4005065E7F06840684078C8
:1027EC00C0070CD10E2029F047FE08E040F209305A
:1027FC002AF0AFF9184800780AA92AF06CFAF068A8
:10280C0040684078C1073FF44CAF17490968C1B123
:10281C0028781FF0A1F810B10E2029F02DFE0E4DD6
:10282C000C20402143F69822307028782AF0C8FA00
:10283C0040F20A302AF08DF928780AA92AF04BFACE
:10284C002FE780073FF52DAF0E2029F015FE28E766
:10285C0028720020DC210020D2720020AC2600203F
:10286C000428002047280020542400202AEC0200D1
:10287C00102800205F2800207863002000720020C0
:10288C00986D00202DE9F04F9DB00446DFF840050F
:10289C00406818B18047002800F07982DFF834A531
:1028AC00DFF834B50D940DF138099AF80000411E8B
:1028BC00002C0B910BF1180418BF01219BF802801E
:1028CC00002700258BF80F109BF801100C91C0B25B
:1028DC0087421ED2B84517D0FEB200214A460423C7
:1028EC00304629F001FD0E9810F4403F40F00400F2
:1028FC00C0B218BF01357C2806D130460621F8221B
:10290C0028F096FBF82020709AF800000C34013760
:10291C00DDE7E9B201380022884204D19BF80500BA
:10292C00002800F05182CDF82880DDF834804FF07B
:10293C000109B8F1000F404608BF1020059015ADF5
:10294C0000200190DDE90B740026380400F0F981B9
:10295C009BF80F0008B98BF80F90E0B200210EAA7B
:10296C00042329F0C1FC0E98B8F1000F18D010F414
:10297C00403F18D04FF400509AF800100136013F38
:10298C00ABF810009BF80F0001388BF80F0059FAC8
:10299C0084F0B0FBF1F202FB11048BF80D40D4E78C
:1029AC000021049102E0CDE90B740496C0B20A9E9A
:1029BC004FF00009702804D00C987021C0B224F09C
:1029CC0089FDF4B200210EAA0423204629F08CFCC8
:1029DC009DF83800FE2803D02046FE2124F07AFD15
:1029EC0020460621FE2228F023FB4FF400500C9FBA
:1029FC000BF116010022ABF814908BF80C60A14679
:102A0C00ABF81000FF208BF80E00F8B28BF80D70AD
:102A1C00400050FA87F001EB8000B0F806A0DFF818
:102A2C00B00302706000ABF812A050FA86F09BF86D
:102A3C000F6001EB8002FE20114601F8020F32F804
:102A4C00060F03910890E3480292047814A823F02F
:102A5C0019FF56FA87F0CDF82490013890FBF4F169
:102A6C0001FB140000905FFA87FB0C97CB4500F03C
:102A7C006081ABEB0900B0FA80F0400907900020B0
:102A8C00069000204FF00109C00740F09D801FFA0E
:102A9C008AF4162C71D9CE480078002840F0718148
:102AAC00AAF1070758460FAAB9B21AF0F8F8BDF800
:102ABC004A6006F11000A0420FD89DF846009628F7
:102ACC000BD1A7EB06099DF8452031465B461FFA52
:102ADC0089F840461DF078FC18B3AAF1010A4FF0B2
:102AEC0001095446A0B2172864D33628A4F116065F
:102AFC0058462A4688BF2026A41BB3B2A1B229F09F
:102B0C00F3FB3004EED015FA86F010F8010C962881
:102B1C0001D0013EF5E7DDF8348006EB040A002015
:102B2C00B2E79DF84700C10701D1800704D400200B
:102B3C00CA46DDF83480A5E7F01D83B2089813FA75
:102B4C0080F4B4F5005F01D90120F2E780B2A54909
:102B5C0018440A1A5846414629F0C6FB069801301B
:102B6C00B4F5005F069004D101204FF40051089198
:102B7C00DEE70020CA460894DBE7069810B19649B8
:102B8C0029F018FD0098C0B2834500F0D880914917
:102B9C000C98097859FA80F0DDF82490B0FBF1F22A
:102BAC0002FB11078C4907EB470001EB8000B0F8E2
:102BBC001CA058E7894814990068426888489047D7
:102BCC000020DDF8348005E0069810B1824929F028
:102BDC00F1FC002007900C980A907D4800780028A2
:102BEC0040F0CF8008981021C0F50052103883B205
:102BFC000998C1F2001223F061FE754A117808435E
:102C0C001499107075480068426875489047079889
:102C1C000A9A88B16F4800780BEB0001013991FBDF
:102C2C00F0F202FB10126C49D0B2400050FA82F064
:102C3C0001EB8000B0F81CA0DFF89CB10899029859
:102C4C00099C01238BF80E200180ABF81010BBF906
:102C5C0012209BF80D102046ABF814A025F07CFF39
:102C6C00BBF914209BF80E102046022325F074FFAC
:102C7C00BBF81000049CB8F1000FC0F5005007D051
:102C8C000599DFF850A18842A4BF0121019101E010
:102C9C00DFF840A1059988424FF07C01B8BF78213C
:102CAC00099E304624F016FC0FF042FC07469BF8B8
:102CBC000F000621FC22C01B8BF80F00304628F0B9
:102CCC00B7F90399FC209BF80E3008709BF80210A2
:102CDC0017FA84F00C9301449AF80000B1FBF0F25F
:102CEC0002FB10118BF802100A910131CAB2B2FB2F
:102CFC00F0F202FB10118BF8011003EB43010BEB0C
:102D0C008101898B102906D10C990131B1FBF0F2AC
:102D1C0002FB10100C900B98C01BB8F1000F0B901D
:102D2C003FF410AE019880F00100C0077FF40AAEAA
:102D3C0007E00120CB464FF0010907904DE70098C2
:102D4C004AE77C2024F0E0FB0446FF2825D17E20B6
:102D5C0024F0DAFB0446FF281FD19BF8014004EB5A
:102D6C0044000BEB8000807DFF2812D09AF8000005
:102D7C009BF802100144013991FBF0F202FB101494
:102D8C000BE01648149900684268154890470022D9
:102D9C001AE020467E2124F09DFBE0B2FE218BF848
:102DAC000340400050FA84F00BEB8000808BABF8B2
:102DBC0006009BF8020024F08DFB00208BF8050028
:102DCC00BBF81000C0F5005210B21DB0BDE8F08F7A
:102DDC0090230020CA72002068680020D8010010DF
:102DEC0000400340002000112DE9F04F89B024F081
:102DFC00C9F8DFF810158122DFF81485DFF814A567
:102E0C00DFF82045DFF814E50A70DFF8FC140860E1
:102E1C00DFF8F804FF2101700020DFF80415A8F892
:102E2C0000008AF80000DFF8F0040968007891F8D7
:102E3C0008B04FF6FE718EF8000059448AB2A168B2
:102E4C00D1F80031DB899A4200F267810422DFF865
:102E5C00DC54A8F80020DFF8D02412689668330EF2
:102E6C00CEF80C60C6F301592B706FF0FF0303EA28
:102E7C001627B3B2D1F8B86047EA1327AEF804703E
:102E8C0036781EB9B9F1020F00F04781B9F1030F82
:102E9C0000F043811B0A03F0070316B1002B00F06E
:102EAC003C81DFF88CC4042B9CF800C008BFBCF13B
:102EBC00000F00F032813EB1DFF878643678862E50
:102ECC0002D1022B40F02981BB0416D4BBB203F013
:102EDC000703022B08BFBCF1000F20D0DFF85414FD
:102EEC000978862909D10020764624F083F8DFF88A
:102EFC004004B64690F800C0307800284ED0BCF1A3
:102F0C00000F4BD1012800F0088103283FD0022884
:102F1C0044D1BEF80400400740F0FF803EE0D1F8F9
:102F2C00D40090F88300022800F08080274605200A
:102F3C00147BF246A946A8F8000029F0EFFB0546E1
:102F4C00DFF8F003007886286DD1B868016C096849
:102F5C0011B9D0F84C05804760B2002100262AF048
:102F6C0015F8B9680A6C12685077086C0068867797
:102F7C00086C0068C477284629F0F5FEBAF80410EE
:102F8C0099F8000001F010011FF06AFA4EE0BEF84B
:102F9C00040000F00700032840F0BF80BEF80400D6
:102FAC00010700F1BA80810402D4810500F1B580DB
:102FBC009EF80E20C2F38107012F00F0AE80960917
:102FCC00012E00F0AA80B9F1010F11D840F00201D6
:102FDC0001F0070103290BD117B93F2A40F29D805C
:102FEC0037B9A168D1F8AC100978002900F09580A8
:102FFC004FF6FB71B9F1020F0BEB010C19D1CF4B52
:10300C00D95D9B5D03EB01090023402AB7FA87F2D7
:10301C0038BF012352091A40430616D4002A08BFB0
:10302C0009F1020915E0284629F09DFE28F0DCF98B
:10303C0075E0C14B402AD95D9B5D03EB010908D3B8
:10304C00420648BFA9F1020903E0002A18BF4FF05D
:10305C000209C0F300205FFA89F11FFA8CF30A1AF7
:10306C008EF801009A4258DC60440391B346401A32
:10307C00A168AEF806007430D1F8501280B28847BF
:10308C00A6490028886048D07421CDE9019729F021
:10309C0033FEA24F0020B870A548007820B93879CB
:1030AC0000F020008AF8000078789AF80010DFF819
:1030BC0078C24FF000092E4600299A493DD00028CD
:1030CC004FF000003AD1B88800F00700032807D071
:1030DC00012832D18868D0F8D40090F8820060B30F
:1030EC00C8684069007818B128F030FEFE280DD071
:1030FC008C488068D0F84C02804738B98948806881
:10310C00D0F844028047002800F0F780834F01205C
:10311C00B870DFF814C22E4610E028F063FC29F0DA
:10312C00FDFA814900240A6813681C7112680A6050
:10313C0029F019FE09B0BDE8F08F0020BC6804F13D
:10314C00740184F830B06160A1657978BB88FA8825
:10315C000029A381029B228184F83A30337808BF7E
:10316C00994697F80EB084F84990019DA4F85C201C
:10317C00FF22B8F80030A273CBF301195E1A797BE9
:10318C00A8F8006001F0780160F3820101EB0900FE
:10319C002074280600F0AE80DCF8000004AF039A1F
:1031AC0010FA86F000F10801384629F0CDFE56FAE7
:1031BC0085F0CBF38105A8F80000207C00F04008D6
:1031CC00CDB3B9F1020F06D1B8F1000F03D0B4F8AA
:1031DC00440004AF06E0BDF810000237A4F8440028
:1031EC00A4F84200564EF189884203D04FF6FF7185
:1031FC0088425ED1032D11D104F13200394629F0F9
:10320C001BFE464CF11CA068323027F0DBF9454917
:10321C0000284ED094F80EB008370EE037F8020BA9
:10322C00B1898842608606D04FF6FF713B4C8842CC
:10323C003C493ED101E03B49384CBBF1400F20D317
:10324C00B9F1020F06D16DB9B8F1000F0AD13348AC
:10325C00806803E0A068017C490603D439880237F2
:10326C00A0F84210BBF1C00F06D32C4C3946A06815
:10327C00283029F0E1FD03E0284C3888A168088546
:10328C0028498968A088D1F8AC201278B2B1B9F17C
:10329C00020F13D200F00700012802D003282FD10F
:1032AC001E4C6DB9264AA368D289B3F842309342BA
:1032BC0006D01BF0DAFB1BF0E1F930E700F0070059
:1032CC00032806D0012815D1D1F8D40090F882003B
:1032DC0080B1A068D1F848128847104A50B9002034
:1032EC00D17B9070907BC1F3011100F07800084401
:1032FC00916808740AF0D8FA11E7084FB87808E713
:10330C00064CDDE7E372002070720020E8720020AA
:10331C00BA720020E6720020E57200209025002091
:10332C00A47200200C010020EC710020F57200202A
:10333C00F4720020EB720020D0EB0200CCEB020008
:10334C00187100202DE9F04F97B0DFF80C85054679
:10335C00DFF8086598F800000328307040F04981C8
:10336C00002088F8000030700DAC204629F070FD6C
:10337C002046002128F054F8DFF8E494B060462190
:10338C00484629F0B9FC4FF0FF30A9F81400C9F8F1
:10339C001000C9F80C0025F0F5FB0020294620F0A0
:1033AC00DBFD06F11001F06029F0ECFCD6E905021A
:1033BC00DFF8B074B0FBF2F1C9B2042928BF0421C4
:1033CC00B2F5005F89F80010397040F00F81B0EB56
:1033DC00413FC0F00B81F068002800F007814FF4EA
:1033EC000050FF224FF000084FF0885BA9F8060050
:1033FC00FF2089F8032089F80580059000200890AB
:10340C0000200B90002009900020079000200690CF
:10341C0000200A9000200C90FF200290FF200490C6
:10342C00FF200390CCB2A04580F0E6805FFA88F6CE
:10343C00002116AA0423304628F056FFDFF82C444E
:10344C003046002115AAA0473046012114AAA047F6
:10345C003046022113AAA04716996FF06F0050FA5C
:10346C0081F2C8B20E2A06D8012303FA02F245F201
:10347C0001131A4203D1A0F1FE02022A04D242F235
:10348C008352B2EB914F1ED0304616F017FDDFF889
:10349C00CC130028087040F0CF803046002116AACB
:1034AC00042328F021FFDFF8C4433046002115AA7D
:1034BC00A0473046012114AAA0473046022113AA86
:1034CC00A0471699C8B208EB48023D46CA4609EB1C
:1034DC008204C1F30142090AE1759DF8561004F10A
:1034EC001609FD28627689F80000217601D9102191
:1034FC0036E0BDF854104FF6FF72914230D10EA851
:10350C0023F0C0F9304600214FF088524FF400539D
:10351C004FF4005728F0E8FE6FF0030313FA87F717
:10352C00B8B250F80B104A1C01D10328F6D801226E
:10353C000126D3B2042B06D8CBB2FF2B18BF1646EC
:10354C000132090AF5E740F80B10C9480E990068DA
:10355C004268C848904757FA86F081B299F8000043
:10356C00A1839DF852107028A176BDF85010E1830C
:10357C009DF84E10E176BDF84C10218411D07828BE
:10358C00D14614D07C282F4616D07E281AD0FE287F
:10359C001FD0FF2823D10898CDF80C80013008905B
:1035AC0020E00A98D1462F4601300A901AE006987E
:1035BC002F460130069015E00798CDF810800130A9
:1035CC0007900FE00998013009901FFA88F00290DB
:1035DC0008E00B98CDF8148001300B9002E00C98A9
:1035EC0001300C90397808F101081BE7012088F8AC
:1035FC00000017B0BDE8F08F0C98984E00060BD168
:10360C000B98C0B2012807D80A98C0B2012803D879
:10361C000998C0B2012811D99348042200240270E1
:10362C00CAB2E0B2904210D216F048FC31780134A4
:10363C00084339783070F3E7884E1BE0089BD8B20A
:10364C00A04219D1884800220270002089F803009A
:10365C0089F80100481E7E2189F80200B9F81C0087
:10366C00A9F80600002023F035FF99F80200FE218E
:10367C0023F030FF3078BCE70A98000624D00B9872
:10368C00059A000603D1039A180600F08480764848
:10369C0002210127D5B289F80220017017FA82F0B5
:1036AC00B0FBF4F101FB140089F80100284616F078
:1036BC0005FC30702846FE2123F00CFF89F80570BC
:1036CC000020FFF7DFF8D5E70B98059A000621D00C
:1036DC006548012189F80220017011FA82F0049AE0
:1036EC00B0FBF4F101FB140091B2FF2989F8010041
:1036FC001FD10299FF2919BF89F8031001EB410072
:10370C0089F8030000EB400009EB8000808BA9F8DE
:10371C000600AFE7DDE90620104300063FF47CAF5E
:10372C0025F004FAA04280F085804F4803210170F7
:10373C003EE0480089F8032010FA82F009EB800083
:10374C00818B1829A9F8061094D30739D0B20EAA88
:10375C0089B219F0A4FA9DF843004007B0D5B9F826
:10376C000610BDF84620002399F8030000930323AC
:10377C00891A0EAA073989B208F03AFC00287FF49E
:10378C0079AFBDF8441000293FF474AF9DF84800A0
:10379C001FF0D0FC6EE725F0C9F90621A042324893
:1037AC0038BF03210329017002D0062952D061E7EA
:1037BC0025F0BCF9054689F80C0000EB400009EB3C
:1037CC008000408BA9F80D000EF0B2FE3978284429
:1037DC00B0FBF1F202FB110089F802000130C2B219
:1037EC00B2FBF1F202FB110089F801007C2023F0FE
:1037FC008BFEFF2812D17E2023F086FEFF280DD1F0
:10380C00FF2023F081FEFF2808D1782023F07CFED6
:10381C00014699F80100FF2918BF0846C1B289F882
:10382C000300490051FA80F009EB8000808BA9F865
:10383C0006001AE70898000609D099F80200FE2144
:10384C003C46374623F046FE2478039A40E7064868
:10385C0006210170FEE700BF4228002090230020C3
:10386C0068680020CA720020D972002051C502007D
:10387C00D8010010004003402DE9F84305460C46E2
:10388C00480413D4A00024D4A0075CD460057ED4D3
:10389C00200500F10681200700F13B81600040F11A
:1038AC00F6801CF0EDF824F08044F0E028F036FFB0
:1038BC00DFF81C140F6D3FB1D7E90A1202F0E04299
:1038CC0001F00A01891849D029F04DFA24F48044FA
:1038DC00DDE0BB48DFF8FC73016841F0800101605A
:1038EC00B878012804D1042023F076FE0020B870AB
:1038FC0028F014FF0646042028F09AFFDFF8D813AE
:10390C000A68904219D12A7EBAB1FA68AAB1DFF8D6
:10391C00C003806C002800F09780C16840F6030259
:10392C000988914206D0C06840F60401008888429C
:10393C0040F08A8005F1140088E040F6C41208605B
:10394C00C5E9042284E00BF09FFCDFF88403006CD3
:10395C00002840F09D8024F0020498E0D7E90A6525
:10396C00D7E90A12AA43B143C7E90A1229F0FBF9B5
:10397C00B8680028AAD056EA0500A7D0D7F808C026
:10398C003869B7F9301032462B46E0479EE728F0ED
:10399C00C5FE054626F060FB002800F0B780CC4839
:1039AC00876B002F00F0B280DFF828830420CB490E
:1039BC00002288F81800C64828F0BBF829F0FAF95C
:1039CC00C74829F0CAF9C7480068006B8047C8F897
:1039DC0010000125042088F8025024F0EFFB386910
:1039EC0090F82810C8F80400490703D5436A04214D
:1039FC000022984701201DF04FFED8F804004576B0
:103A0C0015F04EFAD8F8040081680B461A465B682C
:103A1C004BB11E88A6F60306072EF7D805FA06F654
:103A2C0016F0830FF2D0537B03F0F0030133537382
:103A3C000023FD6853602D88A5F60305012D00F2C7
:103A4C008A80C8F810309FE005F1100021F052F880
:103A5C00304629F088F924F0C9FB78B12E6A284643
:103A6C006FF4807100224FF00073B0479848806B60
:103A7C0010B11CF005F801E044F00204EE69284690
:103A8C00002100224FF08063B04724F0005434B181
:103A9C00974821462830BDE8F84329F040BABDE8E4
:103AAC00F8838C4EB078012804D1042023F094FDC7
:103ABC000020B07024F09AFB38B170686FF48071FC
:103ACC0000224FF00073056AA847306950B1854851
:103ADC000068006B804732697168801A000BC860FF
:103AEC00002030617A4D81490022284628F021F8C7
:103AFC0002203076286C20B17D480221283029F034
:103B0C000EFA1BF0BDFF24F40064C0E729F052F953
:103B1C0041E028F003FE054626F09EFAA0B1DFF83E
:103B2C00B48198F8000000070ED498F90000002822
:103B3C000AD4684615F094FC08B1009820B1DFF85F
:103B4C00B49199F8610048B329F034F91BF098FF4F
:103B5C0024F008049BE7034633F8385FA5B190F8CE
:103B6C00445090F8456005F0F00580F8445006F09C
:103B7C00F005013580F8455000255360C563458735
:103B8C00507B00F0F000507357480022C261016076
:103B9C00012026F0CDFE24F4806478E7002601276E
:103BAC00602E0FD009EB0600817A31B18772407A12
:103BBC0007FA00F0C0B223F029FD2036F0E700BF71
:103BCC00CC210840032088F81800454829F0C5F896
:103BDC0029F0F0F8444F3E4D0022786900207861BE
:103BEC00F968F8602846444927F0A3FF3D4800686F
:103BFC00006B8047D8F80C10D8F82020411A02EB43
:103C0C001130B0EB113F38BF4FF0FF3098F8241053
:103C1C00C8F8200021B1D8F80810B0EBC12F20D97A
:103C2C0026F096FEB8B140F60900414621F83C0F4B
:103C3C00002048804A7B02F0F00201324A730A7B72
:103C4C0002F0F0020A734860F8613960B8F83E007F
:103C5C0010F4406FFAD00020C8F82000012088F83A
:103C6C00240020F055F92548002101600220002194
:103C7C0026F05EFE022023F0AFFC102013F08AFF2A
:103C8C0098F8010020B9D8F80400503029F043F915
:103C9C001B48807810B90D2013F07CFF98F8250094
:103CAC0028B1002088F82500052023F095FC002081
:103CBC0088F818001348C8F81C000220B5F85610F4
:103CCC00B5F85420914208BF07201BF0EFF83DE7F0
:103CDC0030210020D01E00205C27002041A00200D3
:103CEC00B06800208C010010001004406D2F010002
:103CFC0070200020F0630020F1FA01000000046045
:103D0C0020EB02004D2701002DE9F04FAFB0044627
:103D1C000020ADF8280094F82400012809D1DFF820
:103D2C00300494F82810807831B1002800F0FA8122
:103D3C0002E0DFF81C04807848B9207D00F0FE001A
:103D4C00022804D12FB0BDE8F04F1BF087B9DFF883
:103D5C0000743878012806D1DFF8F8033979007E31
:103D6C00814240F0CE80DFF8F8534FF4FA60E06007
:103D7C00286828F049FC18B1E1680844E06007E0C5
:103D8C00E168286828F0B3FFDFF8D80329F0D1F8F0
:103D9C0094F825008DF86C0048B1022809D11BA8B5
:103DAC0004F118010822043028F0AEFB01E0E06AAF
:103DBC001C900DF12B051BA80AAA294619F02AFD07
:103DCC000646D0B99DF8381094F8260001F003018E
:103DDC0081420DD105F10E0004F13401042228F0CA
:103DEC0093FBBDF82810022041222B461EF05EFCEE
:103DFC009DF86A0008B1DC490870B878B8B301289E
:103E0C0040F0908194F83800E3280DD1B86818B1CF
:103E1C008047002800F08681F86818B18047002898
:103E2C0000F0808194F83800E22804D194F828003E
:103E3C00002840F077810020002E18BF0546002195
:103E4C00282295F80D801EAE304628F0AAF901A85C
:103E5C000021032228F0A5F994F83800E32840F05B
:103E6C00C0809DF8041041F00802E320E9E0207DB9
:103E7C00042800F25781012101FA00F010F0130F11
:103E8C0000F0508101A8002124224FF0000828F0F6
:103E9C0088F91EAF04F1180B04F12C090026BD1C87
:103EAC0007F1060AB8F1040F45D85FFA88F03946D5
:103EBC0023F0A1FF06460D2820D00A2E00F08C809E
:103ECC0094F825009DF878104140490701D002264E
:103EDC0014E048B948465146042227F03BFB002821
:103EEC0040F02F8194F82500022807D15846294626
:103EFC00082227F02FFB002840F0178108F1010859
:103F0C00D0E794F83800E32840F00C81924829F06F
:103F1C000EF800283FF427AF8F4C204629F00BF801
:103F2C008E48C821006828F0E2FE20462FB0BDE87C
:103F3C00F04F28F0FEBF002E4ED10020616B9DF893
:103F4C0085509DF878209DF87930069194F83810BA
:103F5C00C5F382068DF81C1094F82910002918BF9F
:103F6C00083606F15001182606EAD202104403F076
:103F7C00010240EA4210BDF8042040EA8510C0B2AC
:103F8C00104340EA0120ADF8040094F8400058B109
:103F9C008DF81D0029F024F8089028B194F84020E1
:103FAC0004F1410128F0B0FA6A48C08AADF8240047
:103FBC0094F9150010F16D0F0146D8BF6FF06C012C
:103FCC0028F0F1FAC8BF3B21A07D002818BF0120C2
:103FDC0041EAC0108DF82600E17D01A802F0A0F89E
:103FEC00A0E094F8251011F0070119D0022920D176
:103FFC0006F1080004F11801082228F085FA94F85B
:10400C00301094F8380002228DF888109DF80410B6
:10401C00E32862F302018DF804103FF424AF0AE0A8
:10402C00E16A1F919DF8041021F007018DF804102E
:10403C0001E09DF8041094F8292021F0080141EAD0
:10404C00C2029DF80510022302F00F0263F3051162
:10405C0094F82630022B16D394F82760012E17D033
:10406C00D6B94FEA980606F00706042E6DD801273C
:10407C0007FA06F616F0160F67D0C8F3820621F081
:10408C001701314408E0002B08BF21F0170103E0B1
:10409C0041F0040121F0130163F30512237D032B7E
:1040AC0003D1E36B41F0080127938DF89000606B0E
:1040BC00239001F00700C9B242EA8010C1F3C0029C
:1040CC0040EA4220C1F30012C1F3401140EA8220C1
:1040DC0040EAC120ADF8780094F8400020B18DF88A
:1040EC00910004F1410025901A482B46C08AADF886
:1040FC00980094F9150010F16D0F0146D8BF6FF0C0
:10410C006C0128F050FAC8BF3B21A07D002818BFD5
:10411C00012041EAC010E17D8DF89A001EA81BAA6F
:10412C000AF0C2FA2FB0BDE8F08F01A85946082258
:10413C00083028F0E9F994F830008DF814000220CA
:10414C00FCE6D9F800000290F7E601F0E801A3E7DD
:10415C00EC24002078630020C069002058720020F5
:10416C00547200207C690020892600202DE9FE4F26
:10417C008846080426D45FEAC87004BF0020BDE856
:10418C00FE8FE548056828F084FE044628F07FFE83
:10419C0060434FF47A714FF6FF72B0FBF1F14FF6BA
:1041AC00FF70002D00F01A812B886C88CB1A9BB203
:1041BC009C4240F21C81E31A94B2A342B8BF1A4647
:1041CC00ED68EEE7DFF840A3CDF804809AF8000024
:1041DC001CF042FD002800F0FC8006460078012807
:1041EC0040F0EC80DAF8041096F83390D6F814B05E
:1041FC0096F8138021B148468847002840F0DE80AD
:10420C00718896F83100022225F012FA0546002832
:10421C0042D0287A297CA0F10108FF2900F0BB804C
:10422C00707F4F46C00718BF0027E97C287D0144EA
:10423C00B94204D8E974FF2101FA00F06874A96945
:10424C00A87C96F83020896A10FB0710F16A28F0D8
:10425C0093F8287D697CB7FBF0F202FB1070012209
:10426C008240D2B20A436A74C8457CD196F83010A9
:10427C00AB7C13FB0713A9698B844FF4FF7303FA10
:10428C0000F0C0B21043FF2868746CD1287C1DF07C
:10429C00D7F9FF2028747FE0707FC00700F08E8074
:1042AC00B07F28F0D9F8002800F0888004461C2044
:1042BC0028F021FE002800F081801C21054628F002
:1042CC001BFDB07F02A926F039F99DF809000221E7
:1042DC002875284626F0CCF9708896F8312096F887
:1042EC00301096F83330A880287DEA71FF2202FA4C
:1042FC0000F0687460680078A9742874302013FB8F
:10430C00010080B225F006FE0028A8615DD00446AD
:10431C001A20B11C2060708CA080A01D26F092FF8A
:10432C00F27F04F13000B17F96F82830C4F81CB04D
:10433C0084F81980A062307CE273744A217563752D
:10434C000121A075928C2282F28EA285F28C62825F
:10435C00B6F81100A4F817009AF8000085F8089038
:10436C001CF062F855E728F094FD044628F08FFD08
:10437C0060434FF47A71B0FBF1F0654928806348D3
:10438C00097800794843642148436249097800FB65
:10439C000100688000E04F46E87C297D6A7C01447E
:1043AC000139B94218BFFF2A0CD186F83300708846
:1043BC0006F11C0186F8342019F058FB304626F023
:1043CC0033FD03E7C845F9D1EFE7284626F060F93D
:1043DC00F4E7019880F40040BDE8FE8F92B282426F
:1043EC004BD049480121007828F0EAFC45E0A87937
:1043FC00022806D1287CFF2837D0A86926F014FDA6
:10440C0033E028F046FD044628F041FD60434FF4AC
:10441C007A71B0FBF1F03F49288095F838000978A3
:10442C0088421BD295F83620FF2A06D195F8372002
:10443C00013085F8380085F8362095F8351095F858
:10444C00394082F0FF0300200126C7B2A7421DD2DB
:10445C0006FA07F71F4214D10130F6E7EA8BA87E63
:10446C0095F82A10E92321F0CFFD284626F010F903
:10447C002548012100781BF0D7FF88F00100BDE82A
:10448C00FE8FFBB201441A4385F83620AB8F95F8AA
:10449C003440C8B204FB10339EB2A64203D2FF22B2
:1044AC0085F8362002E0FF2A08D12346184A174E19
:1044BC001278367972436426724302E095F83A20FA
:1044CC0023466A802A8D0E0606D022F02002444331
:1044DC002A852A6C224404E042F020012A6C2985AA
:1044EC00297A85F82E10E9796A6285F82D10D9B2EF
:1044FC0069840549496811B188470028B8D105F18C
:10450C00100005F059FBB3E7C826002078630020A3
:10451C006A28002070280020C45400202DE9F04F98
:10452C00C3B00DF1450B884601469146584628F01C
:10453C007DFC08F0080500260DF1040A042E39D87C
:10454C00F4B25146204623F056FC0D2803D0074602
:10455C000A2801D17DE17DBB204659461CF0BEFCEA
:10456C0001360028EAD0002D51D10BF137010DF1A5
:10457C008600022227F0C8FFBDF886009DF83A108D
:10458C00ADF8C800C80700F083800AF1370732A9DC
:10459C000222384626F0DEFF9DF83A10012877D12A
:1045AC0001F0FE00FF2104228DF83A00384627F076
:1045BC00F8FD6FE001274CE10220214641225B46C9
:1045CC001EF074F80746B4480BF10B0128F01EF9E5
:1045DC0068B90BF13701204628F0D7FB38B90BF13D
:1045EC003B01204628F0D1FB002800F032810C2042
:1045FC0028F0F6FC002800F0198128F0B4FAB9F183
:10460C00000F18BF4FF0010984F80A9005E19DF8DE
:10461C004500400661D49DF84600C00700F0A48018
:10462C0032AF0DF14501384628F000FC0DF186093A
:10463C0001A9484628F0FAFB9DF8BC00810700F15F
:10464C00288110F001054FF03B0007F1370108BF3E
:10465C0037200422484427F057FF0220002D08BFC2
:10466C0001209DF8BC10084349468DF8BC0001A8F8
:10467C0028F0DCFB08F060009DF805104038B0FA1B
:10468C0080F001F0FE01400908448DF805006BE054
:10469C00880733D44FF0FF300BF1220627F064FE6D
:1046AC003846314626F056FF0AF12C05E0B3384661
:1046BC0029460A2227F028FF32AE28460A22314624
:1046CC0027F022FF3046394628F06EFB002800F018
:1046DC00B98001A827F041FDB4E04FF0FF3027F07E
:1046EC0043FE32A8394626F035FF0BF1220930B3D0
:1046FC00384649460A2227F007FF27E00AF13B0615
:10470C0032A90222304626F025FF9DF83A100128E6
:10471C0040F08E8001F0FD00FF2104228DF83A005C
:10472C00304627F03EFD8DE02846314628F03CFB14
:10473C00002800F0928032A928460A2280E03846F0
:10474C00494628F031FB002800F0958008F0600104
:10475C009DF804006039B1FA81F100F0BF004909FD
:10476C0040EA81108DF804009DF84600810608D5BA
:10477C000AF10B000BF10B01022227F0C5FE9DF88C
:10478C004600400613D59DF805000BF10D010122E2
:10479C0040F040008DF805000AF10D0027F0B4FE42
:1047AC000AF112000BF11201102227F0ADFE9DF858
:1047BC004500800605D59DF8040040F020008DF8DA
:1047CC0004000AF10E000BF10E01042227F09CFEEE
:1047DC00BDF88400214641225346ADF84300022027
:1047EC001DF064FF07462C480AF10B0128F00EF867
:1047FC0058B90AF13701204628F0C7FA28B90AF14E
:10480C003B01204628F0C1FA18B30C2028F0E8FB35
:10481C0060B128F0A8F90120A07220482146007848
:10482C0028F005FA204628F07FFA12E0102710E055
:10483C0041F00100314604228DF83A000AF13700AC
:10484C0027F062FE01AB0220214641221DF02EFF13
:10485C000746384643B0BDE8F08F32A8394628F0F9
:10486C00A3FA0128EED132A8294628F09DFA012896
:10487C003FF42FAFE6E70AF12C0732A80A2239469B
:10488C0026F068FE00287FF433AF3846494628F0FE
:10489C008BFA0C27DDE700BF78630020DA7200206A
:1048AC002DE9F04F8FB00C46080430D4A00448D446
:1048BC00A00652D4E00600F10B81600600F11A81CB
:1048CC00200600F11E81E00500F12081200500F199
:1048DC002281E00400F13581600400F13C81A007E5
:1048EC0000F15081A00500F15E81200700F1688184
:1048FC00600500F16B81E0034FF0000540F1F6809C
:10490C001DF0CAFFBA48C57084F48035EEE0B64895
:10491C0000781CF0A1F988B10178B44A0546002052
:10492C00582808D0135C08308B42F9D1104450F849
:10493C00041C28468847284626F076FA84F400455D
:10494C00D4E01FF0B5FD28B10546FDF76FF82846F9
:10495C0026F06AFA84F40055C8E0A34F2021387879
:10496C0021F080FADFF888820125D8F80810084376
:10497C0017D028F08EFA054628F089FA68434FF4D0
:10498C007A71B0FBF1F0D8F80810401A4FEA5005D4
:10499C0038BF6FF00045002908BF0D46002D00F010
:1049AC00AE8000200421002225F072F806464FF05C
:1049BC00060A4FF0FF094FF6FF780DF1080B002E99
:1049CC004DD0304604210022374625F061F80646CA
:1049DC003889401B38BF002038810004EFD1B87BE8
:1049EC00D0B301280AD17889400707D4386887F8F2
:1049FC000DA0B721407B1FF013FDE0E739685A4644
:104A0C008DF80690ADF80480086AC97F0EF0A0FC02
:104A1C0001281BD1B87BB97A8DF838000907788A40
:104A2C0040F08002ADF8362006D540F4C070ADF8E9
:104A3C003600387B8DF83A00786910B1007BADF800
:104A4C001800584601A9002203F0C4FC387B87F8F3
:104A5C000DA017F0A5FFB2E701207873AFE7DFF8E0
:104A6C009081614F25F0B1F900200121002225F041
:104A7C000FF818B1387820211BF0D6FC0020042147
:104A8C000022002625F004F860B3068904210022D8
:104A9C0024F0FEFF28B10289B1B2914228BF16461C
:104AAC00F4E7A8B2B1B2814217D9D6FA55F0202159
:104ABC0080B24200387828F083F928F0EAF90546EC
:104ACC0028F0E5F968434FF47A71B0FBF1F609E090
:104ADC0009F096FE84F0100508E0387820211BF0D0
:104AEC00A3FC0026C8F8086084F0200528460FB007
:104AFC00BDE8F08F0DF0A8FE84F04005F6E7002528
:104B0C00B0E726F0FBFD84F08005EFE724F030FEE3
:104B1C0084F48075EAE71DF0FFFA37480078012825
:104B2C000CD13448007848B14FF47A7100FB01F293
:104B3C002D484FF40061007828F03FF984F40065AB
:104B4C00D4E72B48017819B1002101701DF0E4FA6B
:104B5C0084F48055CAE72A48006880B1274909784F
:104B6C0001290CD180472748006800B180471E48B6
:104B7C004FF480414FF47A72007828F01EF984F4D7
:104B8C008045B3E72048007890B102AD284628F064
:104B9C0076F827F0D5FD1D490B781D490A78294672
:104BAC001CF0F6FC09E017F031FB84F400759DE76E
:104BBC001848418B012028F094F984F0020595E700
:104BCC000B48012184F0080581708FE712480078AA
:104BDC00022808BF16F00FFA0E480121808C28F02D
:104BEC0072F984F4806581E7CB720020FCE302004B
:104BFC0070260020752800207628002074280020BC
:104C0C00C4230020D02300204E2800207928002027
:104C1C007A28002078630020AC26002070B586B07E
:104C2C000C46080403D4600433D400203EE0C6488C
:104C3C0000781CF011F8B8B305460078A0F1D0014B
:104C4C0006292BD9A0F131010629C0F08A801A2837
:104C5C0044D0FD2857D0FE286FD1162025F05AF9E4
:104C6C00002800F07E8006460230142128F044F81B
:104C7C00932030802A796878A978EB88012A3381CF
:104C8C003071317418BF0222B271E978A87831758D
:104C9C004DE022F053FC84F4804007E00120884072
:104CAC0010F0750F04D05CE084F4004006B070BDC9
:104CBC0001294BD1A54E6878B178814251D006F8C4
:104CCC00020FA34B4FF000700021324623F05EFD23
:104CDC0016F8010C9F4981F8680042E0302025F05D
:104CEC0019F900283DD03021064628F005F892200D
:104CFC00A91D3070A87B0328307169D1B01D082222
:104D0C0027F03AFB66E00A2025F004F948B3064682
:104D1C000020C6F80600C6F8020091203080A87862
:104D2C006978EA7870713171B271A988318126F095
:104D3C0005FE002840F084808AE02846FBF778F9CD
:104D4C0078B1A87829461CF07BFCADE7E889A0F582
:104D5C000041062913D8DFE801F0087F8A0498B0D7
:104D6C00BB00284626F060F89EE728461BF0BCFBEB
:104D7C000028F6D06988824B06460120B2E048F242
:104D8C003601884200F0B58048F22001884200F0DC
:104D9C00B88048F22101884200F0BB8048F2220121
:104DAC00884200F0BE8048F23401884200F0C18095
:104DBC001328D6D100206E460290CDE9000028467B
:104DCC00314626F0DDF969886E4B4FF080705AE061
:104DDC000888F080D5F80200C6F81200E88AA6F818
:104DEC001B00E87BB073288A3082688AF082287DA9
:104DFC003076687D002818BF01207076687E002808
:104E0C0018BF0120B076287E7077E869306295F87B
:104E1C00200086F82400A88DF08495F82E0086F8E2
:104E2C002800A88C708528F066F80028F06298D0CD
:104E3C00AA8CA96A27F0A0FA287D26F07FFD20B164
:104E4C00007931461CF0FCFB8BE7F06A28F051F836
:104E5C00304625F0E9FF84E728461BF045FB002887
:104E6C003FF47FAF6988454B064602203AE06E4618
:104E7C001221304627F040FF2846314618F0BCF985
:104E8C0069883D4B042032465AE06E461821304664
:104E9C0027F032FF2846314626F0E4FC6988354B72
:104EAC001020324623F072FC039818B128F021F838
:104EBC00002003900598C8B953E7284624F067FAF8
:104ECC0000283FF44EAF6988294B0646202009E0A4
:104EDC00284624F05CFA00283FF443AF6988234B42
:104EEC0006464020324623F051FC304628F001F8AB
:104EFC0037E7A8696988184B27F0FEFD4FF480004E
:104F0C001EE0A8696988174B27F0F6FD4FF4804026
:104F1C0016E0A8696988144B27F0EEFD4FF4005099
:104F2C000EE0A86969880E4B27F0E6FD4FF40040AF
:104F3C0006E0A8696988094B27F0DEFD4FF4801064
:104F4C0023F024FC0DE700BF355C0020082700206F
:104F5C0015A60200786300203F950200159502000B
:104F6C0069950200EB940200C19402007F120200CA
:104F7C0025120200F5A60100C1730100950702007D
:104F8C00F5070200693D020098B0BE4E01214FF0BA
:104F9C000109306027F078FD14200DF10B0401217C
:104FAC008DF80B001020224627F026FD1020002142
:104FBC00012223464FF0000827F008F89DF90B005A
:104FCC0026F024F903AF384627F050FEAE4D0021F1
:104FDC003A468DF80C8005F11404204626F066FA4A
:104FEC006C6027F03FFD05F1080A2146524622F07D
:104FFC00BFFA2870A548A0F80880A0F8008006AF7A
:10500C00384627F011F9002039460FF06BFEE860A6
:10501C00012039460FF066FE28614068007826F0C2
:10502C0077FE10B9287827F0F3FD994FE8683946D8
:10503C0027F08DFE2869394627F089FE082006F8EE
:10504C00040F94483146B060287817F0A5F906F1A2
:10505C00100108201FF004FB24F0F6FD8E488F4A47
:10506C000178082022F06EF88D4908201DF0F4FA22
:10507C0028781EF0A3FB8B488DF82A908DF824908D
:10508C008DF81C900DF11809CDF818804946089040
:10509C008548CDF826008548CDF82B00287827F0D8
:1050AC00BCFD06AF4421384627F026FE40F2011025
:1050BC003946ADF85600287827F091FD7C487D4A9A
:1050CC000178082022F04AFE28784FF480614FF4D2
:1050DC0000724FF48073CDE900215146224616F040
:1050EC00BBF98DF81880287806AE314627F09AFD6A
:1050FC0006F1060A714E4FF00A0B20464FF0FF31B5
:10510C000FF06CFA0028F8D028781BF0A5FD0028C9
:10511C0076D007460078922815D0E5282BD0CA28DF
:10512C002DD0CB2832D0E22834D0E32836D0C52875
:10513C005FD1387900285CD1287849468DF818B0B1
:10514C0027F070FD55E0D7F81200B97BCDF81A00A6
:10515C0038798DF82710398AADF82810411E8DF852
:10516C002600022903D303281CD00F281FD1F8884E
:10517C00ADF81E001BE0381D27F0C6FD39E028787D
:10518C0049468DF8188027F02FFD32E0287827F05B
:10519C0030FD2EE0381D16F0DBFC2AE0381D22F025
:1051AC0091F826E0B91D5046082227F0E5F8D7F80B
:1051BC001600CDF82A00F87E8DF82E00B88BADF8CD
:1051CC002F00B87E8DF83100386A0D9097F82400C6
:1051DC008DF83800F88CADF8440097F828008DF85D
:1051EC004600788DADF83C00F86A1090484602F005
:1051FC003DFC384614F074FA10B9384625F014FE0C
:10520C00A868810723D4C1050BD53078012802D1B9
:10521C001BF0DAFB01E014F09DFBA86820F4807011
:10522C00A860810505D519F019FFA86820F4007055
:10523C00A860410505D51DF047FCA86820F48060E6
:10524C00A860010744BF20F00800A86055E70020C3
:10525C00CDE9060006A813F07FFD27F018FE4FF4E9
:10526C007A71B1FBF0F04FF4FA61484315F0D0FAC3
:10527C00FF20032121F05CF927F080FA0E48012170
:10528C000160FEE760230020FC22002094710020C6
:10529C009DA402003C25002057EC020070E00200A7
:1052AC000973020000F8FF07FFFF0104030100016E
:1052BC0055EC02001CEC02007C052043EE2400207F
:1052CC007FB50138062800F2DE800C46DFE800F0DE
:1052DC000428465E7A8C9900B5480078013801287C
:1052EC0000F2D180002C00F010810020032100245A
:1052FC0021F01EF9AB4DAC4E042004213222287053
:10530C00307827F05DFD0820002108F089FB30780B
:10531C006C704FF4805104B0BDE870401CF0A8BE16
:10532C000020002527F0B8F8A048012101700420C6
:10533C008DF80D0024B19A48C586072025F048FB4E
:10534C0098480421322205709748007827F038FDE0
:10535C00934890F8371001F0FE0192E094480078E1
:10536C000138012800F28F808F4804213222007806
:10537C0027F026FD002C00F0E280894C89480121A1
:10538C000170E069E0B321F001FDFAE701208DF82E
:10539C000D0054B182480021874A80F836108548A8
:1053AC0027F022FA072025F013FB7E480021322239
:1053BC0001707D4827F077FC794890F8371001F0A0
:1053CC00FD015EE002208DF80D00754854B30021FC
:1053DC00794A80F83610774827F006FA0020032126
:1053EC0021F0A6F8072034E06D4C03208DF80D0059
:1053FC0094F8360008B90120A0712078002854D008
:10540C007FBD00258DF80D5094B312F01DFC65483E
:10541C000D21C8220570624880F83610624827F0CA
:10542C0042FC29E0082180F83610614909780129ED
:10543C0011D890F83A0070B900200DF10A018DF8DE
:10544C000A0052201FF022FC26F03EFD22F03EFE08
:10545C00002025F0BDFA5348002132220170524839
:10546C0027F021FC4E4890F8371001F0FB0108E0C2
:10547C004B48022180F83610494890F8371001F05B
:10548C00EF0180F837104648016A0029B8D090F82F
:10549C003600002203238DF80C004348007803A942
:1054AC0000910A2120F017FB7FBD206926F0ECFF4C
:1054BC000028A5D13C4D4FF48041287820F0D2FC37
:1054CC0000289DD1002604F11000C4E9056624F0E3
:1054DC009BFE28784FF480411CF0CAFDA07901286E
:1054EC0006D194F836000B2804BF002084F836004F
:1054FC002C48A6710178062946D100213222017070
:10550C002878042127F05CFC43E0254C0720264D2D
:10551C004FF4805184F8360001208DF80D00287866
:10552C001CF0A6FD0020002624F026FA2878022183
:10553C0041F2883284F8376027F042FCA3E7184C1C
:10554C00022000218DF80B1084F8360015480170EC
:10555C0094F837000DF10B0100F0FD0084F83700D2
:10556C0001208DF80D0052201FF090FB26F0ACFCB2
:10557C0022F0ACFD002025F02BFAE06900283FF466
:10558C0082AF21F003FCF8E7C178062904BF0021A3
:10559C00C17094F8370000F0F70084F8370072E718
:1055AC00DC21002028720020D27200206828002004
:1055BC00AC260020786300203A28002092B0DFF857
:1055CC00B892D9F8000010B1002180F8451048308D
:1055DC0022F0D4FF27F0A2F88046072012F0FEFD3F
:1055EC0019F09AFC10B1A54827F042FA1CF0ACF85F
:1055FC0001AD284626F018FF0427002029468DF817
:10560C00047026F019FF9E4C206026F059FB0AAD61
:10561C00284626F0D9FD002029468DF8287026F062
:10562C00DBFD984E306026F055FB06AD284626F083
:10563C00DBFD002029468DF8187026F0DDFD316861
:10564C00914D286019B9914827F012FA286810B9C1
:10565C008F4827F00DFA206810B98E4827F008FA09
:10566C001EF09AFDD9F800004FF0FF3438B1CDE9A7
:10567C00104410A9082225F0E9FC01281BD1CDE922
:10568C001044082027F037FC002846D00546002699
:10569C00052E04D827F071FAA8530236F8E74FF616
:1056AC00200029460822E8807B4826F065FE284623
:1056BC0027F01FFC09E0D9F80010CDE910440029AF
:1056CC00DFD07548082226F057FE10AA01200821C9
:1056DC0027F092F9092800D0D8B923F093FF80075E
:1056EC0012D4CDE91044CDE90E440EAB01200021BB
:1056FC00082226F06BFC60B90EA810A9082225F030
:10570C00A5FC002800F0B280634A0120082127F094
:10571C0079F96149E2201FF0B9FA14F069F92420F3
:10572C0027F0E9FB5D4E002830604DD05C4F5D4C9E
:10573C0007F10C0527F0B3FA5B498968D1F84C13D3
:10574C0088473068056007F1100527F0A8FA20F0AB
:10575C0003F93068456007F1140527F0A0FA23F02F
:10576C0071FB3068856007F1180527F098FA1CF07A
:10577C00ADFB3068C56007F11C0527F090FA21F0ED
:10578C000DFE3068056107F1200527F088FA21F03D
:10579C0059F93068456107F1240527F080FA1FF0AC
:1057AC0031FA3068856107F1280527F078FA1CF08A
:1057BC00A7F83068C56107F12C0527F070FA38702E
:1057CC0011F0A4FA306805621AF080FB26F031FF64
:1057DC00404627F0C8FA19F077FC27F0F1F90120C0
:1057EC001FF05AFF1BF0F0FA31480078022808D15C
:1057FC002E480078012804D14FF40040012108F014
:10580C000FF9274D4FF48041287827F005F8DFF881
:10581C00A4904FF0000868684FF0FF310EF0DEFEE8
:10582C003068002750F82710096821B9791C082F17
:10583C000F46F7D3EFE727F09BF9316851F82710A3
:10584C000C68C1F8008027F0C4FA59F82720002012
:10585C0021469047044627F08BF9316851F8271000
:10586C000A6822430A6027F0B4FAD4E70A480EA962
:10587C00082226F081FD4CE7F8270020FCE7020007
:10588C0014720020187200201C720020ACE9020077
:10589C00BFE90200F6E90200C47100209C720020EE
:1058AC00882100207D7502000C0100208D2800202D
:1058BC00AC26002038E702002DE9F04F89B08A466B
:1058CC0008040DD45FEACA7040F01F815FEA8A7049
:1058DC0000F12D815FEA0A7000F13581002044E16E
:1058EC00A34F38781BF0B8F9DFF88C92A64DA14C79
:1058FC0006464FF0000B48F21508002E00F002810E
:10590C00307831283AD032284BD0D32840F0B480AC
:10591C00F089404574D0382840F0AE80CDF820B0E6
:10592C00CDE906BB304606A922F038FD9DF81C10C7
:10593C00052969D8307B002840F09E809DF81D0019
:10594C00002800F09980052800F29680069826F031
:10595C0006F9002840F09080707C8849AC4678703D
:10596C00708808809DF81D00214601388DF81D00B7
:10597C0006A890E82C002CC165467DE0B878032879
:10598C007AD899F82E10284626F0E9F8002873D119
:10599C00FF207C49607170880880B0887849088045
:1059AC006AE06079FF2814D0002019F0C3FB02468E
:1059BC00B9F8701078783346CDF800B014F062FB6B
:1059CC006079002858D038780821322227F0F8F96D
:1059DC0052E099F81810706820FA01F2D2071ABF39
:1059EC003144097A002100221B2A43D020FA02F309
:1059FC00DB0703D0B3181B7A99421ED80132F3E7A8
:105A0C00304623F041FF37E0FF293DD0FE2956D127
:105A1C0099F872109DF81E00884202D860BBFF29CD
:105A2C002AD11EF0BDFF069900201B2859D021FA5F
:105A3C0000F2D20757D10130F7E7B9F86E004F49A1
:105A4C00334608804E4802884E480188102000904A
:105A5C00002014F017FB0120F870B87840B93C20F6
:105A6C0002214EF66022B880387827F0A9F9B87870
:105A7C000130B87084F805B0304625F0D5F9387887
:105A8C001BF0EAF8064638E799F872109DF81E00EC
:105A9C00884203D80028EFD1FF29EDD11EF080FFFA
:105AAC00069838B1D9F82810814203D0C9F82800DB
:105ABC0024F09EFFBDF8200025F0BCFEDCE7307B17
:105ACC000028D9D170882D49802200230880707C51
