:020000040000FA
:100000000C9462000C948A000C948A000C948A0070
:100010000C948A000C948A000C948A000C948A0038
:100020000C948A000C948A000C948A000C948A0028
:100030000C948A000C948A000C948A000C948A0018
:100040000C941B070C948A000C948B070C94650786
:100050000C948A000C948A000C948A000C948A00F8
:100060000C948A000C948A000000000024002700F1
:100070002A0000000000250028002B0000000000DE
:1000800023002600290004040404040404040202DA
:100090000202020203030303030301020408102007
:1000A0004080010204081020010204081020000012
:1000B0000008000201000003040700000000000027
:1000C0000000620811241FBECFEFD8E0DEBFCDBF15
:1000D00011E0A0E0B1E0EEE2F1E102C005900D9286
:1000E000A232B107D9F721E0A2E2B1E001C01D922E
:1000F000A83CB207E1F710E0C2E6D0E004C02197C7
:10010000FE010E948F08C136D107C9F70E94BD07C2
:100110000C9495080C940000833081F028F4813011
:1001200099F08230A9F008958730A9F08830C9F09D
:100130008430B1F4809180008F7D03C08091800075
:100140008F7780938000089584B58F7784BD08955C
:1001500084B58F7DFBCF8091B0008F778093B00006
:1001600008958091B0008F7DF9CFCF93DF93282F32
:1001700030E0F901E255FF4F8491F901E656FF4F57
:10018000D491F901EA57FF4FC491CC23A1F081111A
:100190000E948C00EC2FF0E0EE0FFF1FE458FF4FA1
:1001A000A591B491EC91ED2381E090E009F480E019
:1001B000DF91CF91089580E090E0FACF1F93CF9325
:1001C000DF93282F30E0F901E255FF4F8491F901C8
:1001D000E656FF4FD491F901EA57FF4FC491CC2363
:1001E000A9F0162F81110E948C00EC2FF0E0EE0F89
:1001F000FF1FEE58FF4FA591B4918FB7F894EC9183
:10020000111108C0D095DE23DC938FBFDF91CF9111
:100210001F910895DE2BF8CFCF93DF9390E0FC0180
:10022000E656FF4F24918A579F4FFC018491882303
:10023000D1F090E0880F991FFC01E859FF4FA5917C
:10024000B491FC01EE58FF4FC591D49161110EC0DD
:100250009FB7F8948C91E22FE0958E238C932881A0
:10026000E223E8839FBFDF91CF9108958FB7F89481
:10027000EC91E22BEC938FBFF6CF3FB7F8948091CF
:10028000270190912801A0912901B0912A0126B55A
:10029000A89B05C02F3F19F00196A11DB11D3FBFBE
:1002A000BA2FA92F982F8827BC01CD01620F711D8D
:1002B000811D911D42E0660F771F881F991F4A9587
:1002C000D1F708958F929F92AF92BF92CF92DF9213
:1002D000EF92FF924B015C010E943D016B017C019A
:1002E0000E943D016C197D098E099F09683E73408B
:1002F00081059105A8F321E0821A9108A108B108AF
:1003000088EEC80E83E0D81EE11CF11C8114910414
:10031000A104B10429F7FF90EF90DF90CF90BF9038
:10032000AF909F908F900895AF92BF92CF92DF923F
:10033000EF92FF920F931F93CF93DF936C017B019A
:100340008B01040F151FEB015E01AE18BF08C0172B
:10035000D10759F06991D601ED91FC910190F0819E
:10036000E02DC6010995892B79F7C501DF91CF9161
:100370001F910F91FF90EF90DF90CF90BF90AF90C3
:100380000895FC01538D448D252F30E0842F90E09B
:10039000821B930B541710F0CF9608950197089580
:1003A000FC01918D828D981761F0A28DAE0FBF2F49
:1003B000B11D5D968C91928D9F5F9F73928F90E09F
:1003C00008958FEF9FEF0895FC01918D828D98170E
:1003D00031F0828DE80FF11D858D90E008958FEF4B
:1003E0009FEF0895FC01918D228D892F90E0805C14
:1003F0009F4F821B91098F73992708958BE291E09B
:100400000E94F20121E0892B09F420E0822F089557
:1004100080E090E0892B29F00E94FE0181110C946C
:1004200000000895FC01A48DA80FB92FB11DA35A97
:10043000BF4F2C91848D90E001968F739927848F04
:10044000A689B7892C93A089B1898C918370806427
:100450008C93938D848D981306C00288F389E02DC8
:1004600080818F7D80830895EF92FF920F931F9379
:10047000CF93DF93EC0181E0888F9B8D8C8D981357
:100480001AC0E889F989808185FF15C09FB7F89463
:10049000EE89FF896083E889F989808183708064AF
:1004A00080839FBF81E090E0DF91CF911F910F91FA
:1004B000FF90EF900895F62E0B8D10E00F5F1F4F09
:1004C0000F731127E02E8C8D8E110CC00FB607FC18
:1004D000FACFE889F989808185FFF5CFCE010E94A6
:1004E0001202F1CFEB8DEC0FFD2FF11DE35AFF4F00
:1004F000F0829FB7F8940B8FEA89FB898081806234
:10050000CFCF682F8BE291E00C943402CF93DF932E
:10051000EC01888D8823B9F0AA89BB89E889F9891B
:100520008C9185FD03C0808186FD0DC00FB607FC50
:10053000F7CF8C9185FFF2CF808185FFEDCFCE0183
:100540000E941202E9CFDF91CF91089560E086E02A
:100550000E94DE0060E085E00E94DE0060E084E052
:100560000E94DE006AE070E080E090E00E9462019C
:1005700061E084E00E94DE006AE070E080E090E0EC
:100580000C94620160E086E00E94DE0060E085E09D
:100590000E94DE0060E084E00E94DE006AE070E01D
:1005A00080E090E00E94620161E085E00E94DE0050
:1005B0006AE070E080E090E00E94620160E085E027
:1005C0000E94DE006AE070E080E090E00E9462013C
:1005D00061E085E00E94DE006AE070E080E090E08B
:1005E0000E94620160E085E00E94DE006AE070E047
:1005F00080E090E00E94620161E084E00E94DE0001
:100600006AE070E080E090E00C946201CF93DF93A9
:10061000D8E0C0E061E085E00E94DE00CC0F86E01B
:100620000E94B500019709F4C16060E085E00E9476
:10063000DE00D15079F78C2FDF91CF910895CF93C1
:10064000DF93D0E0C0E086E00E94B500019739F466
:10065000C031D10521F00E9406032196F4CF81E03C
:10066000609709F480E0DF91CF910895CF93DF93F5
:10067000D82FC8E061E085E00E94DE0061E0D7FF8E
:1006800060E086E00E94DE00DD0F60E085E00E9411
:10069000DE00C15079F7DF91CF910895EF92FF927C
:1006A0000F931F93CF93DF93C82F7B018A0161E0E3
:1006B00086E00E940C018C2F0E943603E7010E0D8C
:1006C0001F1DC017D10721F089910E943603F9CF71
:1006D00060E086E00E940C0161E086E00E94DE009E
:1006E0000E941F030E940603C82F61E086E00E945B
:1006F0000C018C2FDF91CF911F910F91FF90EF9004
:100700000895CF93DF9300D01F92CDB7DEB720E9D5
:1007100029839A838B8343E050E0BE016F5F7F4F54
:1007200087E50E944E0380EE898341E050E0BE01E0
:100730006F5F7F4F85E50E944E030F900F900F90E3
:10074000DF91CF9108951F93CF93DF9300D01F9235
:10075000CDB7DEB7162F20E929839A838B8343E038
:1007600050E0BE016F5F7F4F87E50E944E0384E734
:1007700089831A8342E050E0BE016F5F7F4F86E5B8
:100780000E944E0380EF898341E050E0BE016F5F1D
:100790007F4F85E50E944E030F900F900F90DF91E1
:1007A000CF911F910895CF92DF92EF92FF920F9316
:1007B0001F93CF93DF9300D01F92CDB7DEB78B018D
:1007C0007A01682F87EC90E70E94A30380E9898370
:1007D00010581A831B8243E050E0BE016F5F7F4FC9
:1007E00087E50E944E0387018EEFF81A80EEC82E2F
:1007F00093EAD92EC98241E050E0BE016F5F7F4F7E
:1008000085E50E944E03F80181938F01D98241E072
:1008100050E0BE016F5F7F4F85E50E944E030E15CD
:100820001F0541F70F900F900F90DF91CF911F910F
:100830000F91FF90EF90DF90CF900895BF92CF92ED
:10084000DF92EF92FF920F931F93CF93DF9300D02D
:100850001F92CDB7DEB76B017A0190E9998392E0E0
:100860009A838B8343E050E0BE016F5F7F4F87E543
:100870000E944E038601EC0CFD1C84E7B82E90EF1D
:10088000C92E23EAD22EB982F80181918F018A8381
:1008900042E050E0BE016F5F7F4F86E50E944E034D
:1008A000C98241E050E0BE016F5F7F4F85E50E9445
:1008B0004E03D98241E050E0BE016F5F7F4F85E576
:1008C0000E944E03E016F106F1F60F900F900F9084
:1008D000DF91CF911F910F91FF90EF90DF90CF901C
:1008E000BF900895CF93DF931F92CDB7DEB750E04E
:1008F00040E070E060E080E10E944E0350E040E0A4
:1009000070E060E080E30E944E038983898187FD67
:10091000F5CF0F90DF91CF9108952F923F924F9294
:100920005F926F927F928F929F92AF92BF92CF927F
:10093000DF92EF92FF920F931F93CF93DF93CDB788
:10094000DEB7C450D4400FB6F894DEBF0FBECDBFA3
:100950008E010D5F1B4FD8011C92712C612C312C24
:10096000212CCC5FDB4F1882C450D4408BE291E045
:100970000E94F20105970CF491C08BE291E00E9475
:10098000D001482EB1E08B1366C08BE291E00E944B
:10099000D001CC5FDB4F8883C450D440552453949E
:1009A0008BE291E00E94F201181619062CF48BE2FA
:1009B00091E00E94D001F4CF5520C1F20E94C20202
:1009C00061E086E00E940C0161E070E080E090E070
:1009D0000E94620188E60E94360360E086E00E9481
:1009E0000C0161E086E00E94DE0061E070E080E0E2
:1009F00090E00E9462010E941F03E12CF12C8130E3
:100A000031F40E940603F82E0E940603E82E61E0EE
:100A100086E00E940C01F11048C085E090E00E9441
:100A20008102CC5FDB4F0FB6F894DEBF0FBECDBFA7
:100A3000DF91CF911F910F91FF90EF90DF90CF90BA
:100A4000BF90AF909F908F907F906F905F904F90EE
:100A50003F902F900895E1E18E1709F49FCFF2E1C6
:100A6000512C8F139DCF8BE291E00E94D001B82EC4
:100A70008BE291E00E94D001DB2CC12C1601282AC8
:100A80008BE291E00E94D001B82E8BE291E00E94AF
:100A9000D001FB2CE12C3701682A80CF61E070E0A7
:100AA00080E090E00E94620161CF81E190E00E94CD
:100AB00081026F2D8BE291E00E9434026E2D8BE259
:100AC00091E00E94340250E040E070E060E080E39A
:100AD0000E944E0382E2D8018C9341E050E0B801BD
:100AE00089E10E944E03FE0131966F014F01ACE097
:100AF000AA2EA8E7BA2E7F01C5010E948103D40166
:100B00008D934D01BFEFAB1ABB0AE4E1AE16E8E7E7
:100B1000BE0691F75601F8E0AF0EB11CD6016D91FB
:100B20006D018BE291E00E943402AC14BD04B1F778
:100B30008BE291E00E94860262E370E080E090E048
:100B40000E9462010E94A602B1E14B1609F469CF2E
:100B50000E94C202E1E04E1206C00E9472040E948E
:100B6000A6020E94C20260E886EC90E70E94A303FE
:100B70008EE990E70E9481038038D1F782E2D801A4
:100B80008C9341E050E0B80189E10E944E03B2E14C
:100B90004B124FC07694762C662477946794B12CD0
:100BA000A12C4E01EFEF8E1AEDEF9E0AB3017F717B
:100BB000660F771F660F771FA701C301892F99273B
:100BC0008295869587700E94D30361E08DE00E9434
:100BD000DE0083E190E00E948102670110E000E006
:100BE000D6016D916D018BE291E00E943402F60115
:100BF00031978081080F111DC814D90489F7612F1E
:100C00008BE291E00E943402602F8BE291E00E941F
:100C10003402B0E86B0E711CEFEFAE1ABE0AA214DC
:100C2000B30420F260E08DE00E94DE000E94A60284
:100C3000F8CE83E090E00E94810261E08DE00E94A6
:100C4000DE00D12CC12CB12CA12C912C412C1E01E9
:100C5000FFEF2F1AFDEF3F0A8BE291E00E94F201B5
:100C6000892B19F44420C1F3DDCF8BE291E00E947F
:100C7000D00191E0991641F0952C823069F38430CF
:100C800009F4452C912CE8CFF701EA0DFB1D808378
:100C9000AFEFAA1ABA0AB2E0AB16BB06E9F6370103
:100CA000570130E020E0F50181915F01280F311DEF
:100CB000E215F305C1F7808191819827892798274C
:100CC0002817390739F085E090E00E9481020E94E0
:100CD0007204A7CE48E050E068E071E080E092E066
:100CE0000E941E0448E050E060E071E088E092E07D
:100CF0000E941E04F2E0CD5FDD4FF883C350D24066
:100D0000CC5FDD4F1882C450D24042E050E0BE01BB
:100D10006D5F7D4F84E092E00E941E0442E050E04F
:100D2000BE016D5F7D4F8CE092E00E941E0462E088
:100D300085ED90E70E94A30360E084ED90E70E94B8
:100D4000A30362E083ED90E70E94A30368E082EDD5
:100D500090E70E94A3036D2D82E792E60E94A30311
:100D60006C2D81E792E60E94A30361E086ED90E797
:100D70000E94A30361E086E00E940C0182E80E94C9
:100D8000360380E00E9436034701D4018D914D0166
:100D90000E943603A814B904C1F760E086E00E94FF
:100DA0000C0161E086E00E94DE000E941F030E94A9
:100DB000060361E086E00E940C0162E086ED90E7A8
:100DC0000E94A3036AE080E792E60E94A30380E703
:100DD00092E60E94810387FDFACFCC5FDB4FB8819A
:100DE000C450D440BB23E9F0B6017F71660F771F72
:100DF000660F771FAE014D5F5D4FC601892F9927A2
:100E00008295869587700E94D303FE01ED5FFD4FAA
:100E10009191D3018D913D01981355CF0E171F0766
:100E2000B9F7B0E8CB0ED11C83E090E00E948102BC
:100E3000B12CA12C27CF1F920F920FB60F92112425
:100E40002F933F938F939F93AF93BF9380912301F1
:100E500090912401A0912501B091260130912201A9
:100E600023E0230F2D3758F50196A11DB11D2093C6
:100E700022018093230190932401A0932501B09334
:100E800026018091270190912801A0912901B0911C
:100E90002A010196A11DB11D80932701909328017D
:100EA000A0932901B0932A01BF91AF919F918F9197
:100EB0003F912F910F900FBE0F901F90189526E82D
:100EC000230F0296A11DB11DD2CF1F920F920FB614
:100ED0000F9211242F933F934F935F936F937F93C0
:100EE0008F939F93AF93BF93EF93FF938BE291E028
:100EF0000E941202FF91EF91BF91AF919F918F914C
:100F00007F916F915F914F913F912F910F900FBE05
:100F10000F901F9018951F920F920FB60F921124E9
:100F20002F938F939F93EF93FF93E0913B01F09169
:100F30003C018081E0914101F091420182FD1BC0A2
:100F40009081809144018F5F8F73209145018217BA
:100F500041F0E0914401F0E0E55DFE4F958F809314
:100F60004401FF91EF919F918F912F910F900FBEB0
:100F70000F901F9018958081F4CF789484B582608B
:100F800084BD84B5816084BD85B5826085BD85B52D
:100F9000816085BD80916E00816080936E001092AB
:100FA0008100809181008260809381008091810026
:100FB00081608093810080918000816080938000B7
:100FC0008091B10084608093B1008091B000816015
:100FD0008093B00080917A00846080937A00809141
:100FE0007A00826080937A0080917A008160809399
:100FF0007A0080917A00806880937A001092C10014
:1010000061E086E00E940C0161E085E00E940C0135
:1010100061E084E00E940C0161E08DE00E940C011F
:1010200060E086E00E94DE0060E085E00E94DE0075
:1010300061E084E00E94DE0060E08DE00E94DE005E
:10104000E0913B01F0913C0182E08083E091370127
:10105000F09138011082E0913901F0913A0180E17C
:10106000808310924301E0913F01F091400186E0BE
:101070008083E0913D01F0913E0180818061808319
:10108000E0913D01F0913E01808188608083E09194
:101090003D01F0913E01808180688083E0913D01B7
:1010A000F0913E0180818F7D8083C0E0D0E00E947E
:1010B0008D042097E1F30E94FE018823C1F30E9472
:1010C0000000F5CFEBE2F1E01382128288EE93E0AC
:1010D000A0E0B0E084839583A683B78384E191E0A8
:1010E0009183808385EC90E09587848784EC90E001
:1010F0009787868780EC90E0918B808B81EC90E0E5
:10110000938B828B82EC90E0958B848B86EC90E0C5
:10111000978B868B118E128E138E148E0895EE0F80
:10112000FF1F0590F491E02D0994F894FFCF000083
:101130006273000012426260000000001F11000094
:10114000000034029401C1018602F201D001E401E1
:107800000C94343C0C94513C0C94513C0C94513CE1
:107810000C94513C0C94513C0C94513C0C94513CB4
:107820000C94513C0C94513C0C94513C0C94513CA4
:107830000C94513C0C94513C0C94513C0C94513C94
:107840000C94513C0C94513C0C94513C0C94513C84
:107850000C94513C0C94513C0C94513C0C94513C74
:107860000C94513C0C94513C11241FBECFEFD8E036
:10787000DEBFCDBF11E0A0E0B1E0ECE9FFE702C060
:1078800005900D92A230B107D9F712E0A2E0B1E065
:1078900001C01D92AD30B107E1F70E942D3D0C945F
:1078A000CC3F0C94003C982F959595959595959582
:1078B000905D8F708A307CF0282F295A8091C0000B
:1078C00085FFFCCF9093C6008091C00085FFFCCF60
:1078D0002093C6000895282F205DF0CF982F809127
:1078E000C00085FFFCCF9093C6000895EF92FF92F1
:1078F0000F931F93EE24FF2487018091C00087FD22
:1079000017C00894E11CF11C011D111D81E4E8164B
:1079100082E4F8068FE0080780E0180770F3E09132
:107920000401F091050109958091C00087FFE9CF1E
:107930008091C6001F910F91FF90EF9008950E94D3
:10794000763C982F8091C00085FFFCCF9093C600B5
:1079500091362CF490330CF09053892F089597555D
:10796000892F08951F930E949F3C182F0E949F3CCF
:107970001295107F810F1F9108951F93182F882350
:1079800021F00E94763C1150E1F71F9108951F935A
:10799000182F0E94763C803249F0809103018F5F5E
:1079A000809303018530C1F01F9108958091C0003C
:1079B00085FFFCCF84E18093C6008091C00085FFE5
:1079C000FCCF1093C6008091C00085FFFCCF80E102
:1079D0008093C6001F910895E0910401F091050184
:1079E00009951F9108950E94763C803241F0809164
:1079F00003018F5F80930301853081F008958091AA
:107A0000C00085FFFCCF84E18093C6008091C00058
:107A100085FFFCCF80E18093C6000895E0910401CA
:107A2000F09105010995089540E951E08823A1F0FE
:107A30002D9A28EE33E0FA013197F1F721503040CA
:107A4000D1F72D9828EE33E0FA013197F1F7215064
:107A50003040D1F7815061F708953F924F925F9285
:107A60006F927F928F929F92AF92BF92CF92DF924E
:107A7000EF92FF920F931F93CF93DF93000080E16B
:107A80008093C4001092C50088E18093C10086E015
:107A90008093C2005098589A259A81E00E94143D24
:107AA00024E1F22E9EE1E92E85E9D82E0FE0C02ECA
:107AB00010E1B12EAA24A394B1E49B2EA6E58A2E50
:107AC000F2E57F2EE0E26E2E79E4572E63E5462E36
:107AD00050E5352E0E94763C8033B1F18133B9F107
:107AE000803409F46FC0813409F476C0823409F41B
:107AF00085C0853409F488C0803531F1823521F1A3
:107B0000813511F1853509F485C0863509F48DC0BC
:107B1000843609F496C0843709F403C1853709F423
:107B200072C1863709F466C0809103018F5F80932C
:107B30000301853079F6E0910401F0910501099582
:107B40000E94763C803351F60E94F33CC3CF0E94E2
:107B5000763C803249F78091C00085FFFCCFF092DF
:107B6000C6008091C00085FFFCCF9092C600809136
:107B7000C00085FFFCCF8092C6008091C00085FFC9
:107B8000FCCF7092C6008091C00085FFFCCF609250
:107B9000C6008091C00085FFFCCF5092C600809146
:107BA000C00085FFFCCF4092C6008091C00085FFD9
:107BB000FCCF3092C6008091C00085FFFCCFB09210
:107BC000C60088CF0E94763C863808F4BDCF0E945C
:107BD000763C0E94F33C7ECF0E94763C803809F4CC
:107BE0009CC0813809F40BC1823809F43CC1883942
:107BF00009F48FC080E00E94C73C6CCF84E10E94F2
:107C0000BD3C0E94F33C66CF85E00E94BD3C0E94D3
:107C1000F33C60CF0E94763C809306010E94763C44
:107C2000809307010E94F33C55CF0E94763C80333D
:107C300009F41DC183E00E94BD3C80E00E94C73C66
:107C400049CF0E94763C809309020E94763C809343
:107C5000080280910C028E7F80930C020E94763C79
:107C6000853409F415C18091080290910902892B8D
:107C700089F000E010E00E94763CF801E85FFE4FDA
:107C800080830F5F1F4F80910802909109020817AF
:107C9000190788F30E94763C803209F045CF809125
:107CA0000C0280FF01C16091060170910701660F0F
:107CB000771F7093070160930601A0910802B091AD
:107CC00009021097C9F0E8E0F1E09B01AD014E0F09
:107CD0005F1FF999FECF32BD21BD819180BDFA9A17
:107CE000F99A2F5F3F4FE417F50799F76A0F7B1F4B
:107CF00070930701609306018091C00085FFFCCF5F
:107D0000F092C6008091C00085FFFCCFB092C60003
:107D1000E1CE83E00E94C73CDDCE82E00E94C73CFA
:107D2000D9CE0E94763C809309020E94763C8093D3
:107D300008028091060190910701880F991F909386
:107D40000701809306010E94763C853409F4A6C0A1
:107D500080910C028E7F80930C020E94763C8032D0
:107D600009F0B8CE8091C00085FFFCCFF092C6002C
:107D7000609108027091090261157105B9F140E046
:107D800050E080910C02A82FA170B82FB27011C0E2
:107D9000BB2309F45CC0E0910601F0910701319624
:107DA000F0930701E09306014F5F5F4F46175707B7
:107DB000E8F4AA2369F3F999FECF209106013091E6
:107DC000070132BD21BDF89A90B58091C00085FFB2
:107DD000FCCF9093C6002F5F3F4F30930701209355
:107DE00006014F5F5F4F4617570718F38091C00099
:107DF00085FDE5CE8091C00085FFF8CFE0CE81E023
:107E00000E94C73C67CE0E94763C803209F08CCE3F
:107E10008091C00085FFFCCFF092C6008091C00029
:107E200085FFFCCFE092C6008091C00085FFFCCFAB
:107E3000D092C6008091C00085FFFCCFC092C600E2
:107E40008091C00085FFFCCFB092C60043CEE09188
:107E50000601F091070194918091C00085FFFCCF4D
:107E60009093C6009CCF80E10E94C73C33CE0E9415
:107E7000763C0E94763C182F0E94763C112309F430
:107E800083C0113009F484C08FE00E94C73C22CE29
:107E900080910C02816080930C02E5CE80910C02EF
:107EA000816080930C0259CF809107018823880F4D
:107EB000880B8A2180930B02809106019091070123
:107EC000880F991F90930701809306018091080203
:107ED00080FF09C080910802909109020196909359
:107EE000090280930802F894F999FECF1127E091D6
:107EF0000601F0910701C8E0D1E08091080290915D
:107F00000902103091F40091570001700130D9F34B
:107F100003E000935700E89500915700017001308D
:107F2000D9F301E100935700E89509901990009169
:107F3000570001700130D9F301E000935700E89534
:107F40001395103498F011270091570001700130FB
:107F5000D9F305E000935700E895009157000170B0
:107F60000130D9F301E100935700E895329602976A
:107F700009F0C7CF103011F00296E5CF112480919F
:107F8000C00085FFB9CEBCCE8EE10E94C73CA2CD19
:0E7F900085E90E94C73C9ECDF894FFCF80008B
:00000001FF
