:10000000802A0120D9680000E9680000EB68000040
:10001000EF680000ED680000EF680000EF68000086
:10002000EF680000EF680000EF68000041950000F5
:10003000EF680000EF68000091950000E196000075
:10004000EF680000EF680000EF680000EF68000054
:10005000EF680000EF680000EF680000EF68000044
:10006000EF680000EF680000EF680000EF68000034
:10007000EF680000EF680000EF680000EF68000024
:10008000EF680000EF680000EF680000EF68000014
:10009000EF680000EF680000EF680000EF68000004
:1000A000EF680000EF680000EF680000EF680000F4
:1000B000EF680000EF680000EF680000EF680000E4
:1000C000EF680000EF680000EF680000EF680000D4
:0800D000EF680000EF6800007A
:1000E00053B94AB9002908BF00281CBF4FF0FF319F
:1000F0004FF0FF3000F06EB9ADF1080C6DE904CEA1
:1001000000F006F8DDF804E0DDE9022304B07047F2
:100110002DE9F047089D04468C46002B40F0838073
:100120008A42174647D9B2FA82F242B1C2F12000A0
:1001300024FA00F09140974040EA010C94404FEAC5
:100140001748230CBCFBF8F61FFA87FE08FB16C104
:1001500043EA014306FB0EF1994209D9FB1806F167
:10016000FF3080F01981994240F21681023E3B44F3
:100170005B1AA4B2B3FBF8F008FB103344EA034463
:1001800000FB0EFEA64509D93C1900F1FF3380F0B3
:100190000581A64540F2028102383C4440EA06400F
:1001A000A4EB0E0400261DB1D4400023C5E9004392
:1001B0003146BDE8F08702B9FFDEB2FA82F2002ACA
:1001C00050D1CB1B4FEA174E1FFA87F80126B3FB1D
:1001D000FEFC210C0EFB1C3341EA034108FB0CF32F
:1001E0008B4207D979180CF1FF3002D28B4200F212
:1001F000E9808446C91AA3B2B1FBFEF00EFB1011D0
:1002000043EA014408FB00F8A04507D93C1900F176
:10021000FF3302D2A04500F2D9801846A4EB0804AF
:1002200040EA0C40BFE78B4209D9002D00F0B180B5
:100230000026C5E9000130463146BDE8F087B3FA33
:1002400083F6002E4AD18B4202D3824200F2B8805C
:10025000841A61EB030101208C46002DA8D0C5E96A
:10026000004CA5E7C2F1200320FA03F6974001FAFB
:1002700002F04FEA174ED9403043030CB1FBFEF6B3
:100280001FFA87F80EFB161143EA014306FB08F13B
:10029000994204FA02F409D9FB1806F1FF3C80F0F8
:1002A0008D80994240F28A80023E3B445B1A81B2C3
:1002B000B3FBFEF00EFB103341EA034100FB08F3F1
:1002C0008B4207D9791800F1FF3C73D28B4271D968
:1002D00002383944CB1A40EA064678E7C6F1200CCA
:1002E00003FA06F422FA0CF31C4320FA0CF701FA85
:1002F00006F34FEA144E21FA0CF11F433B0CB1FBFD
:10030000FEF91FFA84F80EFB191143EA014109FBBB
:1003100008FA8A4502FA06F200FA06F308D96118CB
:1003200009F1FF3048D28A4546D9A9F10209214492
:10033000A1EB0A01BFB2B1FBFEF00EFB101147EAC0
:10034000014700FB08F8B84507D9E71900F1FF316C
:100350002ED2B8452CD90238274440EA0940A7EBF1
:100360000807A0FB02894F45C64649461AD317D055
:100370005DB1B3EB0E0267EB010707FA0CFCF2402C
:100380004CEA0202F740C5E9002700263146BDE8E5
:10039000F0872E4628460BE70646E9E61846FDE6B6
:1003A0004345E5D2B8EB020E69EB04010138DFE703
:1003B0000846D2E760468DE78146B9E7664675E7AD
:1003C00030464AE7ACF1020C394413E702383C44AA
:1003D00024E700BF704700BF10F8012B11F8013B64
:1003E000012A28BF9A42F7D0D01A7047034613F863
:1003F000012B002AFBD1181A0138704700000000B9
:1004000001F0FF01102A2BDB10F0070F08D010F8C5
:10041000013B013A8B422DD010F0070F42B3F6D1C9
:10042000F0B441EA012141EA014122F007047FF0E2
:1004300000070023F0E80256083C85EA010586EA39
:10044000010685FA47F5A3FA87F586FA47F6A5FA75
:1004500087F68EB9EED1F0BC01F0FF0102F0070281
:1004600032B110F8013B013A83EA010313B1F8D12C
:100470000020704701387047002D06BF354603380D
:10048000073815F0010F07D1013015F4807F02BF46
:10049000013015F4C03F0130F0BC0138704700BF97
:1004A00070B505460E463146284603F007FC04F0B9
:1004B00055F8044628B90B4B0B4A0C485F2110F045
:1004C00035FB00F01FF803F025FC18B1204604F0BE
:1004D00049F8E8E7204604F0FDF8204603F0B0FCB8
:1004E000F1E700BF281E0100561E0100311E010069
:1004F00010B50C4603F040FD204610BD00F02DB9AC
:1005000000F022B910B5044603F0F4FC204602497D
:10051000BDE8104000F076B8F10400000021084664
:10052000FFF7BEBF1FB501F07CFF0EF085FA0BF0A0
:10053000CFFE0EF03DFA0EF045FA0EF0CBF90EF0BC
:100540004BFA0EF0A3FC094B0293094B01930223D3
:1005500000930849084800234FF4006207F0F2FFB7
:1005600000B9FEE708F03AF8FEE700BFD0F500203A
:1005700060FA00205F1E01001D05000070B50446F2
:10058000154600F095F904F68213C4F87859C4F8BA
:100590007C3904F58C504FF4006304F58C55A4F8B5
:1005A000803904F67C110C35043010F0CCF9284663
:1005B00010F02AFA04F58D520023138041F2A412A0
:1005C000A118881DA0504FF400728A8041F2AC320D
:1005D000094EA35441F2B032A018A6504360074A16
:1005E0002346284610F017FA201D054922460FF031
:1005F00063FC204670BD00BF2107000035080000E5
:100600003D06000010B5064C0A4601462046FFF79D
:10061000B5FF00F0D5F9844200D0FEE710BD00BF61
:10062000281B0020D0F87C2900F682139A4204D1BE
:1006300000F59D50103004F071B87047FFF7F2BF1D
:100640002DE9F04100F58D570446051D013704F5ED
:100650008D5628460FF04EFD337880B1022B4DD0D9
:10066000D4F87C5904F682102D1AA9B2002955D06D
:10067000D4F878399847ADB285424FD0FEE7012BC8
:1006800022D0022B3AD0002BE3D1204600F09EF975
:1006900008B101F0FBFF204600F0A2F90028DFD1ED
:1006A00004F58C50043010F052F90028D8D12846B7
:1006B0000FF06BFD0123337028460FF07BFD60B90E
:1006C00028460FF080FD387004F58C5039780430DE
:1006D00010F046F90028EFD0C2E794F89880284639
:1006E0000FF052FEB8F1000F06D094F898301BB905
:1006F00041F2AC330122E2540223337004F58C50F2
:10070000043010F05BF90028AAD141F2AC33E218B2
:10071000E35C3070002B9CD0107098E7BDE8F0814E
:1007200008B500F04DF9BDE80840FFF789BF00F6B5
:100730008213C0F87C394FF40063A0F8803900F5CB
:100740009D50103003F0EABF08B500F039F918B138
:10075000BDE80840FFF7EBBF08BD13B504460191A3
:1007600000F02EF948B1019A00F58C5021460C306A
:1007700002B0BDE8104010F053B902B010BD000047
:10078000F0B50C46A1B015461E4600F033F92346DD
:10079000194A1A4F8021684610F094FD6846FFF709
:1007A00025FE69460246002001F0F8F80024A64222
:1007B000A0B20ED0292C0BD0A4EB840104EB440092
:1007C0002B5D3A468031684410F07CFD0134EEE741
:1007D000204600EB4000C0F18001094A684410F057
:1007E00071FD6846FFF702FE0DF10101421E002077
:1007F00001F0D4F821B0F0BD631E0100771E0100A6
:100800007D1E010041F2A412F8B583588718BE1D61
:100810009B1B05469BB2144641B91A46314600F06F
:10082000E9FE4FF400732E51BB80F8BD3246FFF74E
:10083000A7FFF6E7FFF7E6BF0020704701B1FEE72C
:10084000006870471C282ED8DFE800F0300F111325
:100850002D1517192D2D2D2D1B1D1F212D2D2D274C
:100860002D2D2D25232D2D292B00012070470E2005
:1008700070470B2070470C207047092070470320F9
:1008800070470220704704207047112070471220E3
:1008900070471320704714207047162070471720A8
:1008A00070471820704700F580407047002070475F
:1008B000F8B50646044646F8041B4FF4006200F102
:1008C000D10130460FF0EBFA0025266504F1540300
:1008D00004F17402C3E9005508339A42FAD1C4E91D
:1008E0001E55A4F8745004F180000FF0A1FD2F4AAA
:1008F00084F898500421C82384F8C8102C49C4F8FF
:100900009C50C4E928232B4B0968C4F8CC10002262
:10091000C4E92B354FF6FF77002304F51761C4E9CE
:100920002E23C4E93023A4F8A870C4F8B45084F886
:10093000D050A4F8D258A4F84C5984F84F59C4F8B0
:100940005059C4F85859C4F85C59C4F86059C4F8EF
:10095000645984F86859C4F86C59C1E900232368C4
:1009600003B9FEE7144B15491C60224630460FF0D0
:10097000A6FA7822002104F6D40010F043F9772279
:10098000002104F1B80084F8545984F8565984F8C9
:10099000557984F84E5984F8D15801F033FC04F1AC
:1009A000AC0003F0BBFE2046F8BD00BF00F8FF0717
:1009B0003C340100790D0000E02E0020DF0D000026
:1009C000014B1868704700BFE02E002090F8C83037
:1009D000042B1ABF90F8980080F0010000207047A7
:1009E00090F8C830012B06BF90F8980080F0010005
:1009F00000207047D0F858390133C0F85839704793
:100A00002DE9F843994690F850390D1E04461646D4
:100A100008BF702513B10D20BDE8F88300F1B807B9
:100A20002946384601F06CFC0028F4D194F8D2280D
:100A300094F8D3389A420AD00B220021384601F0AC
:100A4000E1FB04F1AC0003F069FE0320E4E704F1EC
:100A500050082B460622802140460FF0F0FE48B990
:100A6000206D1FFA89F231460FF063FC10B9404641
:100A70000FF0C8FE0328CFD1DEE7000001380428BC
:100A80009ABF024B185C0020704700BF801E010017
:100A90002DE9F84311F00F0601F00F0709D1022AE2
:100AA00004D11A463146B83001F0ACFB3046BDE8FF
:100AB000F88390F8D35890F8D288A5EB08040E2C50
:100AC00006DD0E220021B83001F09CFB0326EDE785
:100AD000C1F3011C6146441894F8D148B4421CD0BB
:100AE00045451AD944460E2C02D90F3CE4B2FAE728
:100AF00004F58D7400EBC40494F804E01EF0400F7C
:100B000011D00EF0030949450DD1CEF38309B1454B
:100B100009D16FF3861E84F804E029460E2907D90F
:100B20000F39C9B2FAE708F101085FFA88F8D7E788
:100B300001F58D7100EBC1014CF0400402F003029D
:100B400044EA870444EA02248A8822F45F7222F08D
:100B5000030214438A688C8063F3170201358A60AC
:100B6000002680F8D358A1E713460222FFF790BF72
:100B700038B511F0300F00F1500408BFC0F89C20C8
:100B800015460023062220460FF059FE48B9294693
:100B900020460FF09CFD20B92046BDE838400FF0FC
:100BA00031BE38BD2DE9F74304460D46684611466F
:100BB00091461E4600F026FFDDE900782FB918F0B7
:100BC000010F02D1E6B932461BE004F150064B4654
:100BD0000622294630460FF032FEC8B94FEA6803B4
:100BE00018F0010F18BFE35804EB680018BFDF5975
:100BF000B84768B9304603B0BDE8F0430FF002BE15
:100C00000D222946204603B0BDE8F043FFF7B0BFF0
:100C100003B0BDE8F08370B50446002694F8D258BE
:100C200094F8D338AB423ED005F58D7504EBC50280
:100C30001379590616D404EBC5052B796FF3861387
:100C40002B7194F8D2380133DBB20F2B84F8D238F1
:100C5000E4D194F8D33884F8D2680E2B20D90F3B16
:100C6000DBB2FAE7C3F30100C3F38301537992685F
:100C700041EA001103F0030361F07F01022BC9B2C6
:100C8000C2F3170205D12046FFF772FF0028D2D029
:100C900070BDB3FA83F35B092046FFF783FFF5E7E6
:100CA00084F8D338BAE70020F2E700002DE9F74FC7
:100CB000D0E92E23134304464BD0B83001F0A0FAFC
:100CC0002C4F804600254FF0010AEBB2434540D23D
:100CD000D4E92E30C5F12001A5F12002EB4000FA45
:100CE00001F10B4320FA02F2134313F0010FC5F197
:100CF0002009A5F1200602D10C370135E5E73A6855
:100D00006ABBD7F804B0BBF1770F06D1206801F0B9
:100D1000ADFC082898BF00F1700B5A468021204690
:100D2000FFF726FFA8B9D4E92E120AFA06F62AFA26
:100D300009F90AFA05F321EA030346EA09060093D2
:100D400022EA06030193DDE90023C4E92E231343BD
:100D5000D2D1012384F8683903B0BDE8F08F94F84C
:100D60006839002BDFD0012380212046FFF71AFFCE
:100D7000D8E700BF00220100014B1868FFF796BFBB
:100D8000E02E002090F8983010B5044633B1D0F82A
:100D9000CC308B4204BF002380F898302046FFF708
:100DA0003AFFD8B994F8D01099B101230C2220460B
:100DB000FFF7F8FE90B994F8C83084F8D000042BFF
:100DC00007D0201D0FF094F90123C4F8CC0084F85B
:100DD00098302046BDE81040FFF768BF10BDFFF710
:100DE000D1BFF8B500F1500504462846069EBDF86F
:100DF0001C700FF024FD50B9206D3A4631460FF0BB
:100E000098FA20B92846BDE8F8400FF0FBBCF8BDC1
:100E10002DE9F04F042B87B004460D46174602D04B
:100E2000052B18D0FEE7114604A800F003FEDDE90B
:100E300004864FF0070906F0010BB8F1000F13D13B
:100E4000BBF1000F10D10D2229462046FFF78CFE82
:100E500007B0BDE8F08F114604A800F0F7FD4FF091
:100E60000809DDE90486E6E704F1800A50460FF040
:100E7000BEFB0DF10A0203A950460FF098FB504645
:100E80000FF0BCFB002384F8503904EB66007310AC
:100E9000BBF1000F02D0E35853F80880C04701238C
:100EA00084F85039064618B1FFF7CCFC0246CBE770
:100EB000BDF80A300193039B00934A463B462946FE
:100EC0002046FFF78EFF0028C2D03246BCE708B5A7
:100ED0000022FFF749FE08BD37B50223B0F888208D
:100EE0008DF80730B0F886309A42044622D1206847
:100EF00003F03CFB94F8532922440023FF2182F89D
:100F0000551982F84E3982F8543982F8563904F16D
:100F10005000C4F85839C4F85C39C4F86039C4F8D2
:100F200064390FF0BCFC702280212046FFF720FEC0
:100F300088B1FEE70DF1070180300FF091FA054608
:100F400000B1FEE79DF807302068022BCFD003F0F8
:100F50000BFB024B1D60002003B030BDE02E0020D3
:100F600010B50446006803F00AFB0146206DBDE899
:100F700010400FF0CBB910B50446006803F08BFBAE
:100F80000146206DBDE810400FF0C0B937B5002311
:100F9000054601A9803001930FF0E4FA0446A0B998
:100FA0009DF80410286803F078FB044668B92868A7
:100FB00003F0E5FA48B195F853392B4493F84E39CC
:100FC0001BB1286803F002FB0446204603B030BD85
:100FD00010B50446006803F0DDFA002818BF0221AE
:100FE000206D08BF0021BDE810400FF08FB913B588
:100FF000002304460DF1070180308DF807300FF013
:101000002FFA58B99DF8073023B1013B012B07D9BE
:10101000072003E00146206803F0C2FA02B010BDC9
:101020000121F8E713B504460DF1070180300FF0F8
:1010300027FA20B99DF80710206803F03FFB02B0A3
:1010400010BD10B5044654F8500B03F029FB0146BF
:101050002046BDE810400FF0DEBA13B504460DF18E
:10106000060180300FF02AFA20B9BDF8061020687A
:1010700003F018FB02B010BD10B50446006803F081
:1010800014FB08220146206DBDE810400FF051B955
:1010900013B50822044601A980300FF07AFA18B976
:1010A0000199206803F003FB02B010BD10B504469F
:1010B00054F8500B03F0FEFA01462046BDE81040FC
:1010C0000FF0A9BA90F853390344006D93F84E1904
:1010D0000FF01CB937B5002305460DF1070180302C
:1010E0008DF807300FF0CCF9044688B9286803F072
:1010F00046FA30B19DF80730286863B103F066FA0C
:10110000044695F853099DF80730054485F84E3993
:10111000204603B030BD03F04FFAF1E72DE9FF415F
:1011200000F18007064602A938460FF0F3F920BB0C
:1011300001A938460FF0D6F9F8B90DF10301384688
:101140000FF08EF9C8B9306802F012FB07468846E6
:10115000DDE90201884508BF874211D2C41B61EB5B
:101160000805002D08BFB4F1FF3F09D2019B9DF88F
:1011700003103068224602F00DF804B0BDE8F0819B
:101180000720FAE710B50446006802F081FB01462B
:10119000206DBDE810400FF0B9B810B504460068E6
:1011A00002F078FB0146206DBDE810400FF0AEB8AC
:1011B000F8B505460E460024012707FA04F333422A
:1011C000E1B204D10134202CF7D1002004E0286DD5
:1011D0000FF09CF80028F5D0F8BD0023F7B50546C0
:1011E0000C460B6000F180070126B5F88620B5F8A3
:1011F00088309A420FD00DF1070138460FF030F9D0
:1012000050B99DF807301F2B08D8226806FA03F35F
:1012100013432360E9E7002003B0F0BD0720FBE79C
:10122000D0F8A010FFF7C4BF13B5002301A90446EE
:101230000193FFF7D2FF10B9019BC4F8A03002B0B0
:1012400010BDB0F8A41050300FF0E5B900F1A401C2
:1012500080300FF033B910B50446006803F08FF901
:10126000014640B194F85339234493F95539013379
:101270000CBF00210221206DBDE810400FF046B8E0
:1012800037B5002305460DF1070180308DF8073092
:101290000FF0E6F8044620BB9DF807300BB3022B95
:1012A00022D1286803F06BF9D8B195F85309284486
:1012B00090F95539013319D1D5F8A030C3B15A1E70
:1012C0001A4015D15B08D1B2144602F10102F9D1DE
:1012D00080F85549074BB5F8A420286803F081F938
:1012E0000446204603B030BD0C24FAE70D24F8E78D
:1012F0000724F6E7651D000013B5044601A98030F8
:101300000FF030F928B90199012204F1B80000F07A
:10131000AFFF02B010BD13B5044601A980300FF035
:1013200021F928B90246019904F1B80000F0A0FFA4
:1013300002B010BDD0F89C1050300FF0C8B910B5F5
:1013400000F15004042120460FF0C1F928B92046CD
:101350000321BDE810400FF0BAB910BD0321503091
:101360000FF0B5B9002150300FF0B1B910B500F150
:101370005004052120460FF0AAF9F8B90C212046A7
:101380000FF0A5F9D0B9182120460FF0A0F9A8B99F
:10139000222120460FF09BF980B940F2012120461E
:1013A0000FF095F950B9402120460FF090F928B977
:1013B00020464121BDE810400FF089B910BD10B59D
:1013C000044603F0D5F8014604F15000BDE8104092
:1013D0000FF0BAB9006D01210EF098BF006D002129
:1013E0000EF094BF006D04210EF090BF0C207047EA
:1013F00013B504466946006803F05EF9206D0822C3
:1014000069460EF096FF02B010BD022150300FF079
:1014100034BA90F8C810006D0EF078BF73B504466A
:101420000E4680300DF107010FF01AF880BB9DF8D1
:101430000730022B23D002D9DA1E012A21D884F8E2
:10144000C830002384F8D0300C22012331462046D6
:10145000FFF7A8FB94F8C830042B054608D090B9D4
:10146000201D0EF045FEC4F8CC00012384F898300E
:1014700015B184F8D0600025284602B070BD012364
:10148000DDE70323DBE7074B1B68C4F8CC30ECE750
:10149000FFF7D8F9314602462046FFF769FB0546BB
:1014A000EAE700BF3C3401000C2A10B51C4603D00B
:1014B000712A06D0002010BDFFF7B0FF2070012078
:1014C000F9E700F0DBFDF9E7F0B585B004460D461D
:1014D00002A81146002716468DF8077000F09EFA04
:1014E000DDE9023000F0010273B96AB90DF10703BA
:1014F000324629462046FFF7D7FFF8B90D22294684
:101500002046FFF731FB17E0411084F8507904EBD7
:1015100060000AB16258D358984701228DF807003D
:1015200084F8502918B1FFF78DF90246E7E73346F2
:1015300029462046FFF7ACFA8DF807009DF8070012
:1015400005B0F0BD73B5002304460D46803001A9F7
:10155000164601930FF006F8024640B1FFF772F904
:10156000294602462046FFF7FFFA024604E0032E12
:1015700015D004D8022E0CD0104602B070BD331F17
:10158000012BF9D8019A334629462046FFF740FC43
:10159000EBE7019B29462046FFF77AFAE5E7019A37
:1015A00029462046FFF790FFDFE737B504460D4692
:1015B000803001A90EF0D6FF80B9019A012A0FD020
:1015C00008D9931E032B10D9052229462046FFF780
:1015D000CBFA03E029462046FFF779FC03B030BD83
:1015E00029462046FFF778FCF8E729462046FFF712
:1015F000A9FFF3E730B5012385B080F850390446E0
:101600000025803001908DF80F500EF01EFF04234E
:10161000019884F8C83084F898500DF10F010EF04D
:101620001FFF98B99DF90F309DF80F10AB420DDAEE
:10163000D4F85C390133C4F85C39C1F3011384F880
:10164000533943B106222046FFF792FA002384F86B
:10165000503905B030BD2368002BF3D02046FFF78A
:10166000A4FF38B19DF80F10FFF7ECF802462046B2
:10167000FFF77AFA94F8D32894F8D2389A4202D035
:101680002046FFF7C8FA94F853299DF80F302244FA
:1016900003F00F0392F8D11831B199421EBFD4F86C
:1016A00060190131C4F860190F2B14BF01330123F5
:1016B00082F8D138CAE710B50446006801F0B6FEDA
:1016C000C1B2206DBDE810400EF020BE10B504463A
:1016D000006801F083FBC1B2206DBDE810400EF040
:1016E00015BE000010B50446006802F0D4FF0146A4
:1016F000B0B10A280CD84FF4FA60414301F55C21DF
:1017000001F5346104F15000BDE810400EF092BFC5
:10171000192807D8044841F2883303FB0101F1E797
:101720000249EFE70021EDE7B0DB2300CC3F0D00DD
:1017300013B504460DF10701006801F083FC30B9D0
:101740009DF80710206D0EF0E1FD02B010BDFFF70F
:1017500079F8014604F150000FF08FF8F5E713B562
:10176000002304460DF1070180308DF807300EF09C
:1017700099FE20B99DF90710206801F065FC02B0C0
:1017800010BD13B504460DF10701006801F0EEFC31
:1017900030B99DF80710206D0EF0B8FD02B010BDF5
:1017A000FFF750F8014604F150000FF066F8F5E736
:1017B00013B5002304460DF1070180308DF8073082
:1017C0000EF070FE20B99DF90710206801F0C6FCEC
:1017D00002B010BD13B504460DF10701006804F016
:1017E000F7FC30B99DF80710206D0EF08FFD02B0A8
:1017F00010BDFFF727F8014604F150000FF03DF847
:10180000F5E713B5002304460DF1070180308DF88C
:1018100007300EF047FE20B99DF90710206804F04C
:10182000D9FC02B010BD37B500F1800504460DF1BA
:10183000060128460EF014FE60B90DF10701284696
:101840000EF030FE30B99DF907209DF80610206893
:1018500004F0C2FC03B030BD13B504460DF106011F
:1018600054F8500B04F0BCFC30B9BDF8061020460B
:101870000EF0D1FE02B010BDFEF7E4FF0146204697
:101880000EF0FBFFF6E713B504460DF106018030BC
:101890000EF014FE20B9BDF80610206804F09EFC7E
:1018A00002B010BDFEE7FEE710B5044602F010FFDF
:1018B000FFF7E4F80146206DBDE810400EF026BDAC
:1018C000F7B5002300220546CDE9002300F060FEB5
:1018D0006946044605F180000EF01CFE70B9DDE992
:1018E000006723460024A74208BF9E4208D3F21A8D
:1018F00067EB0403C5F87029C5F8743903B0F0BD6F
:101900000720FBE700F51763D3E9002350300EF002
:10191000ACBE10B50446006804F048FC0146204601
:10192000BDE81040FFF744BC10B50446006804F061
:1019300041FC01462046BDE81040FFF739BC37B5F1
:1019400000230C4680300DF1070115468DF8073055
:101950000EF086FDD8B99DF80730DA0704D5C5B179
:10196000227842F001022270990742BF227842F0A9
:10197000020222705A0742BF227842F0040222700B
:1019800013F0080307D0237843F00803237003B053
:1019900030BD0720FBE71846F9E700001346074A69
:1019A00010B4146834B10A46014620465DF8044B71
:1019B000FFF726B80D205DF8044B7047E02E00209D
:1019C000F0B5013A044600260C20B2420AD9951916
:1019D0006D0800FB05F7CF599F4201D26E1CF4E75A
:1019E0002A46F2E700FB06F288188A5893420BBF9A
:1019F000D0E901010023C4E90001C4E90033204615
:101A0000F0BD000010B50B46044603492A22FFF73B
:101A1000D7FF204610BD00BF881E010010B50B4641
:101A2000044603491A22FFF7CBFF204610BD00BF32
:101A30008020010010B50B46044603490322FFF73E
:101A4000BFFF204610BD00BFB821010010B50B46F6
:101A5000044603490322FFF7B3FF204610BD00BF31
:101A6000DC2101000B2150300EF031BE042150303A
:101A70000EF02DBEF8B50646174600F150050C468F
:101A800049B142B98A88096828460EF04BFE002801
:101A900075D00120F8BD002128460EF0BCFD0028BD
:101AA000F7D1002C6BD12146306DC9B20EF02EFC5F
:101AB0000028EED1306D80210EF028FC0028E8D1FE
:101AC000002C5FD0E37D13F0010F0CBF002110212B
:101AD0009B0701D541F0200128460EF09CFD00280F
:101AE000D7D128460EF04AFE01460028D1D104B1D4
:101AF000A179306D0EF00AFC01460028C9D104B16D
:101B0000A17D306D0EF002FC0028C2D1002C3BD02C
:101B1000D4E9022328460EF0A8FD0028B9D12846B2
:101B20000EF04BFE0028B4D128460EF027FE002808
:101B3000AFD1394628460EF0CAFD0028A9D1284663
:101B40000EF03BFE0028A4D128460EF017FE0146F9
:101B500000289ED104B1217D306D0EF0D7FB002806
:101B600097D1A4B1216928460EF064FD002890D1D8
:101B700028460EF022FE003818BF01208AE794F9AB
:101B8000151091E72146A7E700220023C2E721466E
:101B9000E9E70901F8B561F07F0100F1500704465B
:101BA00015461E460622712301F0F00138460EF05C
:101BB00046FE50B9324629462046FFF75BFF20B962
:101BC0003846BDE8F8400EF01DBEF8BD37B50192AD
:101BD000074A15680C4601462846FEF72DFE019B74
:101BE00001462246284603B0BDE83040FFF7D1BF8A
:101BF000E02E00202DE9F34704469DF828A0154665
:101C00001E4601B1FEE790F8541900293BD041F07F
:101C100080017BB31B6893F80090C9F3001995F815
:101C20001C80002304F1500784F8543906223846FA
:101C300008F001080EF003FE28BB5046FEF702FE36
:101C4000014638460EF043FDE8B9206D49460EF0D6
:101C50005DFBC0B9206D41460EF058FB98B9BAF152
:101C6000000F09D02B681B781B070FD438460EF0E5
:101C7000C9FD08E09946D2E7524631462046FFF7B3
:101C8000F9FE0028EED002B0BDE8F087B8F1000FF1
:101C9000ECD00DF10301284603F08AFA0028F2D1B6
:101CA00001A9284603F05BFA0028ECD19DF8031047
:101CB000206D0EF02BFB0028E5D1019938460EF07F
:101CC000B9FC0028D2D0DEE7F7B51E46084B1F68E6
:101CD0000C46014638461546FEF7AEFD0096014615
:101CE0002B4622463846FFF785FF03B0F0BD00BF04
:101CF000E02E0020F8B50446164601B1FEE7FF23AA
:101D000090F9557980F85539FEF798FD04F15005A2
:101D100002F05CFC39230622802128460EF08FFD5C
:101D2000F0B9206DF9B20EF0F1FAC8B9206DF1B238
:101D30000EF0ECFAA0B928460EF064FD80B98021BF
:101D40003023062228460EF07AFD014640B9206D68
:101D50000EF0DCFA20B92846BDE8F8400EF052BD7E
:101D6000F8BD000013B5074B01911C6801462046E1
:101D7000FEF762FD019A0146204602B0BDE8104020
:101D8000FFF7B8BFE02E002010B5044654F8500B02
:101D900002F024FC01462046BDE810400EF097BC3E
:101DA00090F853390344006D93F856190EF0AEBA0B
:101DB00010B5044654F8500B02F06BFC02460B467B
:101DC0002046BDE810400EF050BC10B590F85319F5
:101DD00001F656110446014480300EF051FB48B91B
:101DE00094F8533920682344BDE8104093F85619FD
:101DF00002F0FABB10BD73B50446006802F026FC81
:101E00000546B8B904F18006B4F88830B4F88620E5
:101E10009B1A9BB2012B0DD90DF1060130460EF035
:101E20004DFB30B9BDF80610206802F0E9FB002830
:101E3000EAD00546284602B070BD73B50446006876
:101E400002F010FC0546B0B904F18006B4F8883001
:101E5000B4F886209B1A9BB2072B0CD9082201A943
:101E600030460EF096FB28B90199206802F0D2FBAB
:101E70000028EBD00546284602B070BD13B50446D5
:101E80000DF1060180300EF019FB20B9BDF80610E7
:101E9000206802F0C7FB02B010BD13B5082204464B
:101EA00001A980300EF075FB18B90199206802F085
:101EB000C3FB02B010BD13B504460DF1060180301E
:101EC0000EF0FCFA20B9BDF80610206802F098FB6D
:101ED00002B010BD13B500230446082201A98030CA
:101EE00001930EF056FB18B90199206802F092FB9D
:101EF00002B010BD13B500230DF107010446803078
:101F00008DF807300EF0BCFA014630B99DF8073065
:101F100020682BB902F030FB0146084602B010BD24
:101F20000049F7E7CD1B000013B504460DF106018B
:101F300080300EF0C3FA20B9BDF80610206802F018
:101F400023FB02B010BD13B504460DF1060180302D
:101F50000EF0B4FA20B9BDF80610206802F017FBA5
:101F600002B010BDF0B500F1800585B00C460DF152
:101F70000A0203A928460EF025FB0646002877D161
:101F8000BDF80A207F2A76D82646039956F8060B14
:101F9000A2800EF00FFE314628460EF061FA06468A
:101FA000002865D1A379A37640F6047323837F23A9
:101FB000E376237F23F0170343F00403C4E904000E
:101FC000237704F1180128460EF04AFA00284FD171
:101FD00004F1190128460EF043FA002848D10DF10A
:101FE000060128460EF04CFA002841D1237F9DF8C7
:101FF000062062F38203237702A928460EF040FAF6
:10200000B0BB237F9DF8082062F3000323770DF116
:10201000070128460EF034FA50BB237F9DF80720B5
:1020200062F3410323770DF1090128460EF028FAE7
:10203000F0B9237F9DF8092062F30413237704F19C
:10204000140128460EF04EFA90B904F1100128460A
:102050000EF048FA60B904F11A0128460EF000FAB1
:10206000074628B904F11B0128460EF01BFA3E462C
:10207000304605B0F0BD0626FAE7000011F0300F3B
:1020800038B504460D4600D0FEE7006802F077FA46
:10209000A0B1206802F09DFA0146D0B12046FFF7BA
:1020A00061FF034658B90C49206802F094FA0346D0
:1020B00028B905F00F0584F8545938BD0D2318468A
:1020C000FEF7C0FB294602462046BDE83840FEF731
:1020D0004FBD0323F3E700BFC91C000030B500F17A
:1020E000800487B0054602A920460EF0B9F920B950
:1020F0009DF80830082B02D0072007B030BD0DF145
:10210000090120460EF0ACF90028F6D10DF10A02C3
:1021100003A920460EF056FA0028EED1BDF80A3089
:10212000102BE9D10DF10A0204A920460EF04AFA5B
:102130000028E2D1BDF80A30102BDDD10DF10A02E2
:1021400005A920460EF03EFA0028D6D1BDF80A3087
:10215000102BD1D1059B0193049B00939DF809207E
:10216000039B9DF80810286802F088FAC5E737B588
:1021700000F180050446002301A928468DF80330AC
:102180000EF0B0F9A0B9B4F88620B4F888309A42BD
:1021900007D19DF80330206801995BB902F071FA0C
:1021A00006E00DF1030128460EF06AF90028F0D090
:1021B00003B030BD02F069FAFAE737B500F18005E7
:1021C000044600230DF1020128468DF800300EF080
:1021D00075F998B9082201A928460EF0DAF968B90C
:1021E000012269462046FFF7AAFB38B9019BBDF8DA
:1021F00002209DF80010206801F04EFB03B030BDB6
:102200002120704730B5194C002325688D4225D117
:102210006568954222D1D0E90225C3F1200405FA70
:1022200004F4A3F12001DA40224325FA01F10A4324
:1022300012F0010FC3F12004A3F120020DD10121FE
:1022400001FA02F221FA04F4224301FA03F3D0E97D
:1022500000140B432243C0E9003230BD0133DBB22E
:10226000212B04F10C04D0D1F7E700BF00220100BC
:102270002DE9F04F0023214C93461F46012694F888
:1022800014C05D1CBCF1000F26D0E2688A4223D145
:102290001F3BC5F1200E26FA0EFE06FA03F343EAB1
:1022A0000E0306FA05FAD0E902796FEA0A086FEA26
:1022B000030EBBF1000F18D04AEA070743EA0903EF
:1022C000C0E90273D0E9003703EA080307EA0E0702
:1022D000C0E9003731B96746202D2B4604F10C04C4
:1022E000CDD14FB10020BDE8F08F08EA07070EEA14
:1022F0000903C0E90273EDE70720F4E700220100BB
:1023000030B5104B00220132D2B2212A03F10C0366
:1023100001D1002015E01C7A002CF4D01C688C42FE
:10232000F1D1D0E90235C2F12004A2F1200123FA53
:1023300002F005FA04F4204325FA01F1084300F005
:10234000010030BD0022010038B5002105461420EF
:1023500009F0B4FF072400210A2009F0AFFF45FA75
:1023600004F101F00101092009F0A8FF01210A2070
:1023700009F0A4FF08200DF07FFA013CEBD2002108
:102380000A2009F09BFF1420012109F097FFBDE806
:1023900038404FF42F700DF06FBA000008B50A49AD
:1023A000142009F00FFF0021142009F087FF0120FD
:1023B0000DF062FA1420012109F080FFBDE8084009
:1023C0004FF40C700DF058BA0164002008B5FFF707
:1023D000E5FF1049142009F0F5FE0F490A2009F025
:1023E000F1FE0D49092009F0EDFE0C49082009F025
:1023F000E9FEB920FFF7A8FF142009F0B9FE0A2072
:1024000009F0B6FE092009F0B3FEBDE80840082037
:1024100009F0AEBE0164002000640020022000200C
:10242000704708B50AF05EFB0CF006FBFFF7CEFF25
:10243000FFF7F6FF08BD01F08DBC000038B9064A71
:10244000136801331360054B01221A70704701288D
:10245000FCD1024B0022F8E710300020AC1800201D
:1024600010B5044604F030FC3CB14FF47A735C4381
:10247000844234BF0124B4FBF0F4204610BD38B5CB
:1024800004460D4604F020FC54EA050203460ED033
:10249000A0FB040103FB0511002908BFB0F57A7FFA
:1024A00007D34FF47A720023FDF71AFE0446204644
:1024B00038BD0124FBE700007FB5214E35783DBBD8
:1024C00001A804F075FA01238DF804304FF0FF33B2
:1024D000029304F0FBFBC243B2F5002F98BF194BE7
:1024E000194998BF1D70A2F500244FF0000398BF52
:1024F00004F1FF340393154801AB04F0A7FB012559
:1025000011491348039501AB224604F09FFB357037
:1025100004F05AFC064604F0D9FBB0F5002F0D4B31
:1025200005460BD2074A1C6812783AB90134304686
:1025300004F086FC2846214604B070BD1C68F6E70E
:10254000C82F0020AC1800203D240000CC2F002014
:10255000842F002010300020084B10B5184604F0DE
:1025600027FA0024054B064906481C70224604F051
:102570006DFB054B1860054B1C7010BD242F00200F
:1025800037240000302F0020742F0020782F0020E7
:1025900008B5FFF791FFBDE80840FFF770BF0000E6
:1025A00038B515460C46FFF7F3FF0E4B1C600E4B7B
:1025B0001D600E4B01221A70031BAB4203D3BDE812
:1025C000384001F0C7BB2C44201AFFF749FF084CE4
:1025D0000146206804F061FB2068BDE8384004F043
:1025E000FBBA00BF802F00207C2F0020782F002016
:1025F000742F002008B5044B186804F04BFB034B04
:1026000000221A7008BD00BF742F0020782F002010
:1026100038B50E4D2B780446BBB1FFF7B9FF0C4B14
:102620001A680C4B1B680146801A834206D80023A7
:102630002B702046BDE8384002F024B91A442046E9
:10264000521ABDE83840FFF7ABBF38BD782F0020E5
:10265000802F00207C2F002008B50DF001F9024BDF
:1026600001221A60FEE700BF7C05204308B5054B38
:102670001B681B689847082896BF034B0720185C07
:1026800008BD00BFE80100106C2401007047FEE7A0
:10269000044B1A680021134619711B689A42FBD13A
:1026A000704700BF3C350020002209F0C9B9000086
:1026B00010B40024204603F08071014334D103F0AC
:1026C000E04150EA010307D01A4B0B221A70012097
:1026D0005DF8044B01F096BB02F00A00214650EA77
:1026E000010323D0144A53889BB203B15388134B80
:1026F0005B889BB2B3F5105F0E4B13D1104A518823
:1027000089B269B1518842F2034089B2814207D04F
:10271000528842F2044192B28A4201D00E22D5E799
:102720000022D3E70F22D1E78020D1E75DF8044BE8
:10273000704700BFEE350020E4300020D435002083
:10274000D8320020022001F05DBB000008B50E4B1E
:102750009B7BFF2B014603D1431CA8BF4FF0FF31E9
:102760000A4809F055FB0A4BC0F315029A4201468C
:1027700007D0084B186809F0E2FA833818BF012027
:1027800008BD0720FCE700BF80310020CC180020E6
:10279000FFFF3F00C431002030B4104C00252560FD
:1027A00042F20305258083B1A37843F00103A370AF
:1027B000A37843F00203A370A37862F38203A370AB
:1027C000E17030BC054909F0B7BAA57863F300059C
:1027D000A570A57863F34105A570EDE740310020B1
:1027E000D0E9042052EA000310B519D101F008FE27
:1027F0000C4B0D4A1B681268A0246343B2FBF3F133
:1028000003FB11211944B0FBF3F203FB12028A1AF5
:10281000B2FBF3F003FB1023B3FBF4F080B210BD66
:102820001044E5E7DC300020E03000202DE9F047DF
:102830000F78063FCE1904460D46D6F803A001F0E6
:10284000DFFD8046894608F0B5F8A0EB0A00800855
:10285000B8EB000869F10009C4E902896B7803F05C
:102860007F03A380AB1C2360274B9B7BA371EB579B
:1028700063756FF013029342A8BF13466FF04F02C7
:102880009342B8BF13465033C3EB03233C22B3FB40
:10289000F2F3A375B378FF2B31D05909012203F06D
:1028A0001F0302FA03F3EA7812F0400F4FEA8102A5
:1028B00014BF164916490A4452681A4214BF01232C
:1028C0000023E27D63F30002E275204601F0CAFCBA
:1028D00048B1E37D43F00203E3750E4B1B682361AF
:1028E0000D4B1B78237596F90130002B09DA28224D
:1028F000002120460EF086F91120BDE8F087002364
:10290000DFE70020F9E700BF8031002048350020D4
:10291000A0350020403000205830002030B5104D48
:10292000B5F90030002B8BB0044617DA02A808F086
:1029300017FE0C4B0C491B788DF824300B4B0C4ABE
:102940001B788DF8253000234B800023CDE9002330
:102950002046084B02AA08F00FFE28800BB030BDBD
:10296000AE1800206431002080310020C1310020E9
:102970002200D000FD3A0000F7B5044601F098FCB3
:1029800018B90026304603B0F0BD204601F095FC92
:102990000028F6D0267F16F01006F2D1204601F06E
:1029A00031FC00283AD0204601F098FC054600286A
:1029B00037D01E4B1B785A1E904226D11C4BA36069
:1029C000237F9B0713D4204601F01CFC194F20B134
:1029D000194B3A681D70194B1A602946204601F0C0
:1029E0008AFC396820464B1C3B6001F086FC6A4635
:1029F00013480823114610F8015902F8015B013B06
:102A0000F9D1204601F02CFCBCE7984201D10D4BD6
:102A1000D5E70133984206D10B4BD0E7034B1D7825
:102A2000F5E70126AEE70826ACE700BF303100200D
:102A30005431002034310020583000204030002034
:102A4000AF31002004310020443100202DE9F0474F
:102A5000744D8CB0074604A80E46904608F080FDE1
:102A60000FCDDFF8E4C1DFF8CCE164460FC495E890
:102A70000F0084E80F006C4C0FCC75460FC594E82E
:102A800003006A4C85E803000FCC694D0FC5AA46C8
:102A900023684AF810393379023BDBB28EF80F30E5
:102AA0003368CEF810309EF80D30012161F3030336
:102AB0008EF80D3073697446002B72D035691D4451
:102AC000B8F1000F66D101F09BFC804607F072FF61
:102AD000B8EB0508A0F5A070A0EB8800A060237BF0
:102AE000544D022262F303032373237B43F08003DC
:102AF0002373A368049301238DF814304FF0FF3340
:102B00000693304601F086FB60B3C4F804A0637BF3
:102B1000022262F303030DF10F013046637301F0EB
:102B200090FB9AF80C3043F080038AF80C309DF843
:102B30000F308AF80E309AF80F30072262F3030341
:102B40008AF80F309AF80D30012262F30303304601
:102B50008AF80D3001F086FB00285FD04FF48E43D9
:102B6000CAF81030344B1B788DF82C30334B1B785F
:102B70008DF82D30324B00221A7008220023CDE947
:102B8000002329462F4B04AA384608F0F5FC0CB068
:102B9000BDE8F08705F18043503B9B00CEF808303C
:102BA0009DE7CCF808309CF80C20049363F30302F3
:102BB0008CF80C209CF80C208DF8143042F0800228
:102BC0008CF80C209CF80D20022060F303028CF896
:102BD0000D20CCF804E08CF810308CF814308CF810
:102BE00011108CF813308CF815309CF8122061F31A
:102BF00004028CF81220CEF808309EF80C2063F303
:102C000003028EF80C209EF80C204FF0FF3342F0A8
:102C100080028EF80C200693654672E74FF420631D
:102C20009EE700BFC82601006C270100582701005D
:102C3000D8320020D435002064310020C13100207A
:102C4000EE350020B1260000E43000202DE9F04FE1
:102C5000414BDFF818B1D3F800A0404FDFF81091D6
:102C60008FB00546884654462379032B04D0042BA5
:102C700021D1002323711EE02822002104A80DF099
:102C8000C1FF04F1080104A8FFF7D0FD0646C0B15A
:102C9000002323713B78032B08D1314BB3F900108B
:102CA000304B1868FFF700FD02233B70324604A941
:102CB000284603F059FA2468A245D5D10FB0BDE8E3
:102CC000F08F04A801F09EFA48B33B78052BD0D1D1
:102CD000484601F09FFA0028CBD00DF10E0104A860
:102CE00001F0AFFA0028C4D10DF10F01484601F000
:102CF000A8FA0028BDD19DF80E209DF80F309A4209
:102D0000B7D102233B70184B1A69002AB1D0186161
:102D100004AA03464946284603F034FAA9E704A862
:102D200001F078FA024670B118F0080FC3D004A879
:102D300001F098FA08B19BF80060324604A92846D1
:102D400003F012FA95E7019004A9284603F00CFA63
:102D5000019A2271AFE700BF3C350020D03500203A
:102D6000D2350020C4310020D4350020EE350020BB
:102D7000F035002030B40B490B4C0B781BB922699D
:102D8000127892060BD400220A70084902250D70B1
:102D9000216921B12261064930BC03F0F3B930BC8E
:102DA000704700BFEE350020D4350020D03500201C
:102DB000F035002070B5074D074E0FCD34460FC4D7
:102DC00095E8030084E80300337B43F0800333730A
:102DD00070BD00BF0027010068310020014B187F43
:102DE00040B27047803100202DE9F8435A4C5B4FC8
:102DF0005B4E5C4DDFF8A49190220021201D0DF068
:102E000001FF90220021381D0DF0FCFE90220021D0
:102E1000301D0DF0F7FE00219022281D0DF0F2FE6E
:102E20004FF001084FF000034FF0000268F38303F6
:102E300068F3830263717A718C234FF00002E380A0
:102E4000FB80F380EB8068F38302474B27603E6092
:102E5000727100274FF000021F7068F38302434B2A
:102E60006A71434A1A60434ADA609F80424B356078
:102E7000424A434E2C601A60424AC9F800409F8083
:102E8000DA60C9F80470FFF795FF0FCE3E4C254677
:102E90000FC50FCE0FC50FCE0FC596E80F0085E802
:102EA0000F003A4BC4F81090394A63610A23E37764
:102EB0006262A377374B23620B23A373A623237786
:102EC000237B43F080032373637B68F30303637303
:102ED000E37B43EA0803E373E37B43F00203E3731A
:102EE000E37B43F00403E373E37B43F02003E373EA
:102EF000E37B43F01003E373E37B43F04003E373AE
:102F0000E37B43F08003E373238B43EA08032383CB
:102F1000238B43F002032383238B67F382032383F2
:102F2000238B67F3CF332383E37E43EA0803E376FF
:102F3000E37E43F00203E376E37E43F00403E376AB
:102F4000E37E43F01003E376E37E68F34613E37613
:102F5000114B1F70BDE8F883EC3200208033002055
:102F600014340020A834002028360020F03500203A
:102F70002C36002018360020183000205C3000204D
:102F8000182701004830002080310020C83200207E
:102F9000A035002048350020D03500203C350020E9
:102FA00030B5124D2B78012B89B01BD02B7803F054
:102FB000FF04CBB9684608F051FD0D4B03930D4B50
:102FC00007930D4A0D490E486B4608F053FD0D4B13
:102FD0001860012320B92C701C46204609B030BD72
:102FE0002B70FAE70024F8E70524F6E7D035002037
:102FF0008F260000ADFE008068310020B018002050
:10300000C8310020C4310020024B1878003818BFA6
:1030100001207047D035002010B5084C237803F00C
:10302000FF0043B12378012B06D1054B186808F047
:1030300025FC0020207010BD0520FCE7D0350020C5
:10304000C43100200C2070470C2070472DE9F04F50
:103050003A4F3B78012B90468BB08B46DAB20AD0C0
:10306000022A66D104233B70354BB3F90010354B6F
:103070001868FFF719FB334B334ED3F800A0334CDD
:103080004FF0040902A887F8009008F069FA304B65
:103090001B788DF824302F4B1B788DF825300FCE00
:1030A00025460FC596E8030085E80300A62384F8AB
:1030B0000EB02374237B43F080032373637B0125CD
:1030C00065F303036373E37B2B43E373E37B43F019
:1030D0000203E373E37B43EA0903E373E37B43F017
:1030E0000803E373E37B6FF30413E373E37B43F0C1
:1030F0006003E373E37C69F30303E374E37C4FF45D
:103100007A6243F0800302FB08F2E37462610023F9
:103110000222CDE9002321460F4B02AA504608F0B7
:103120002BFA002807DA284601233B700BB0BDE8D4
:10313000F08F0520F8E70020F8E700BFD035002029
:10314000AE180020C4310020E8260100183100200C
:1031500064310020C131002045270000024B0846A1
:103160001970FFF7F3BA00BFC031002010B50C464C
:1031700051B1064B186808F0F3FD0146044808F009
:1031800027FE2070002010BD0720FCE7C43100207E
:10319000CC1800202DE9F0474F4E1F463378052B01
:1031A0008846154608D1022333704C4BB3F9001002
:1031B0004B4B1868FFF778FA3378012B36D1494B1F
:1031C00049481B780BB980F80E80037BF5B9791C50
:1031D0001CD165F30303037390F83730012262F3C7
:1031E000030380F8373085608563404B93F9000016
:1031F000FFF7ACFA3A4B1868FFF790FB3C4BB3F97A
:103200000030002B62DA0120BDE8F087022262F371
:103210000303037390F83730042262F30303AD0015
:10322000BF0080F8373085608763DEE73378022B94
:1032300002D03378032B4DD12B4CA37B434547D091
:10324000284B1B78002B43D13378DFF89490032B65
:1032500006D1284BD9F80000B3F90010FFF724FA83
:10326000DFF88CA0D9F80000BAF90010FFF71CFABB
:1032700084F80E80237BCDB97A1C17D165F3030344
:10328000237394F83730012262F3030384F8373054
:10329000A560A563154B93F90000FFF757FAD9F81D
:1032A0000000FFF73BFBBAF90030AAE7022262F305
:1032B0000303237394F83730042262F30303AD0051
:1032C000BF0084F83730A560A763E3E702233370BB
:1032D000002099E7052097E7D0350020EC35002045
:1032E000C43100201431002080310020C031002082
:1032F000AE180020D235002008B500224FF0FF3371
:10330000FFF748FF08BD000010B50B4C2378012BD8
:103310000ED02378022B0DD1084BB3F90010084BC7
:103320001868FFF7C1F901231020237000F06AFD2F
:10333000002010BD0520FCE7D0350020AE1800208D
:10334000C431002000487047F035002038B5094BE3
:103350001D680C4665B10B7FDB0709D40846FFF7F3
:103360003FFAA9B202462046BDE8384000F09EBFB1
:1033700038BD00BFDC300020F0B5264B1A78032A98
:103380008BB007460E461ED1DFF89CC09CF800505B
:10339000CDB90FCE6C460FC40FCE0FC496E8030014
:1033A00001236F4684E803008CF800300FCF1A4EDB
:1033B0000FC60FCF0FC694E8030086E803002C4623
:1033C00020460BB0F0BD1A78022A4FF00504F7D161
:1033D000314638461C70FFF7B9FF3046FFF7CCFA8C
:1033E000044608B10124EBE70C4B384693F9001072
:1033F000FFF7B4FE0A4B224618683146FFF726FB5A
:10340000084B00281880EDDB3146384602F0B3FE49
:10341000D6E700BFD0350020F0350020C0310020B5
:10342000C4310020EC35002028360020014B987A6A
:1034300040B27047C83200206320704738B50D464F
:103440000C490D4C42F202030B80238B9BB24B8044
:10345000A37EDBB20B714B8865F304134B80074BE3
:10346000186808F069FC81281EBF238B65F30413DC
:10347000238338BD3831002080310020C431002042
:103480001B4870B5002304469A1CDDB230F8222098
:1034900092B2914218D001330A2BF5D100230122B8
:1034A000206802FA03F60642DDB204D001330A2B8B
:1034B000F6D1032070BD02330E4A24F82310528E39
:1034C00004EB830392B25A800B4801230068002268
:1034D0002946FFF761F9812808D06268012303FAC1
:1034E00005F10A4362602368194321600020E1E787
:1034F000A035002080310020C431002038B5124DA5
:103500000B460024A21CE1B235F8222092B293426D
:1035100004D001340A2CF5D1204638BD0B480023D5
:1035200000681A46FFF738F981280AD06B68012035
:1035300000FA04F423EA04036B60286820EA040418
:103540002C600020E9E700BFA0350020C431002036
:103550001B4AD1E90001F8B500231446DDB201335E
:1035600002EBC306D6E90067B94208BFB04213D0E8
:103570000A2BF3D100230122266802FA03F737420F
:10358000DDB203F1010303D00A2BF5D10320F8BD0E
:1035900004EBC303C3E900010A48012300681A468B
:1035A0002946FFF7F9F8812807D063680121A9406F
:1035B0000B4363602368194321600020E7E700BFE5
:1035C00048350020C43100202DE9F843D1E90067D7
:1035D000164900230C46DAB2013301EBC300D0E9EF
:1035E00000894F4508BF464502D00A2BF3D1FF2280
:1035F000FF2A14BF0125002515D00D4800230068BF
:1036000001222946FFF7C8F881280AD06268012301
:1036100003FA05F122EA01026260236823EA01014C
:103620002160002000E00A20BDE8F8834835002032
:10363000C431002038B50E4B1A78022A02D01B780C
:10364000052B0DD10B4D0024002328681A46E1B24A
:10365000FFF7A2F8012802D101340A2CF4D138BDB9
:10366000BDE838400448302200210DF0CBBA00BF3D
:10367000D0350020C4310020A035002038B50E4BD5
:103680001A78022A02D01B78052B0DD10B4D00248D
:10369000286800230122E1B2FFF77EF8012802D159
:1036A00001340A2CF4D138BDBDE838400448582212
:1036B00000210DF0A7BA00BFD0350020C431002092
:1036C00048350020034B188B00F0010080F001000A
:1036D000704700BF8031002038B581F001050D49E9
:1036E0000D4C42F202030B80238B9BB24B80A37ED6
:1036F000DBB20B714B8865F300034B80074B1868F6
:1037000008F01AFB81281EBF238B65F30003238377
:1037100038BD00BF3831002080310020C431002086
:1037200070B59DF81810DDE9045491B98BB185B1DD
:103730007CB10849084E0A700FCB86E80F0095E867
:103740000F00064E064D86E80F0094E80F0085E84E
:103750000F0070BD303100205431002004310020B2
:1037600044310020014B1960704700BF3431002004
:1037700000F046BE0A4B0B4A1878FF280DD10133E2
:103780009342F9D1084B03F10802013912F8010DF7
:1037900001F8010F9A42F9D17047014BF3E700BFDE
:1037A000C84F0050D04F0050F012005070B50B4B76
:1037B0000B4E1A78012A0C4601D01B780BB974867F
:1037C00070BD084D084B2868B3F90010FEF76CFF78
:1037D00028687486BDE87040FFF7A0B8D035002097
:1037E00080310020C4310020AE18002070B50E4B8F
:1037F0000E4E1A78012A0C4601D01B7823B9D4E961
:103800000023C6E90A2370BD094D0A4B2868B3F9A5
:103810000010FEF749FFD4E900232868C6E90A230F
:10382000BDE87040FFF77AB8D03500208031002025
:10383000C4310020AE18002070B50B4B0B4E1A7827
:10384000012A0C4601D01B780BB9348670BD084D97
:10385000084B2868B3F90010FEF726FF2868348665
:10386000BDE87040FFF75AB8D03500208031002005
:10387000C4310020AE180020014B1960704700BF12
:10388000E0300020014B002019607047DC30002040
:103890000A2070475020704710460A46194600F02B
:1038A000D7BB000030B54A4B1A6893B01446237951
:1038B000013B012B00F286802822002108A80DF090
:1038C000A1F90A3414F8013C0894424C03F07F0338
:1038D000ADF8243008A8A37B8DF8263000F09AFCC0
:1038E00000285FD008A800F0BDFC002861D0089B2C
:1038F0001A8801A9002312F0400F08A8CDE901336E
:10390000ADF80C3014BF0324052400F088FC0546F4
:10391000002847D19DF80C30012B45D0022B46D012
:10392000002B3FD108A800F0C3FC08B10A34E4B270
:10393000294B1B6801A8002B4FF0000318BF062578
:10394000CDE90433CDE90633ADF8003000F038FCA2
:1039500020B10246694604A800F0F0FCA31CEC1854
:1039600050FA84F01D4C9DF82630A371C2B200219C
:103970002068A2800DF046F9194B1B689B08236153
:10398000BDF824300C335B016361164B01221868CB
:103990002146FFF75BF8144B1880144BB3F9003045
:1039A000002B0BDC13B030BD0234E4B2BAE70834AC
:1039B000FBE7238B43F004032383F3E70C4B032241
:1039C0001A70EFE72468A2427FF471AFEAE700BF04
:1039D0003C35002080310020DC30002018300020F1
:1039E00078010021C4310020D2350020EC350020C0
:1039F000D035002070B528229EB000210DEB0200CA
:103A00000DF000F9384B394E1C6825462B79032BF5
:103A100013D12822002114A80DF0F4F86B7A03F0DA
:103A20007F03ADF8543005F10A03149314A8B37B57
:103A30008DF8563000F0EEFB18B92D68A542E5D19F
:103A40004DE005F108010AA8FEF7F0FE0446002843
:103A500045D10AA800F006FC002840D0244B1B7872
:103A6000032B3ED1338B234D64F3820333832A68C7
:103A70001AB106A800F044FC0446002303A90AA8D2
:103A8000CDE90333ADF8143000F0C9FBD0B99DF98E
:103A90003D209DF83E1002AB03A800F053FB024608
:103AA00028B102A906A800F049FC2044C4B29DF840
:103AB0003F10114B009306AA234601F001010AA80A
:103AC00000F0DAFB2C683CB10B48FEF789FEA1B28E
:103AD0000246094800F0EAFB0748FEF74DFF1EB01A
:103AE00070BD2C71FBE700BF3C3500208031002009
:103AF000D0350020DC3000201830002038B51D46BD
:103B00000023194602F480000143194602F4801094
:103B100014BF20241C4650EA01034FF0000319464D
:103B200002F0200018BF44F40074014302F40000C6
:103B3000194618BF44F0080450EA010316D0FFF7F5
:103B400059FF44F00404002205F08073134307D0AA
:103B50000E4B4FF6FE721A800D4B1868FEF7DEFE14
:103B600094B12046BDE8384000F04CB902F00200A4
:103B700005F0E04150EA01031FBF044B4FF6FE720F
:103B80001A8044F04004DEE738BD00BFAE180020C4
:103B9000C431002070B5434E3378013B05460C46D6
:103BA000042B54D8DFE803F0036D39591200CB061B
:103BB00005D5FEF76DFD3C4B186807F0FFFE14F0CD
:103BC0000C0F44D0BDE87040FEF762BD0E0606D56E
:103BD000364B0B221A70BDE87040FFF7CBB8C80710
:103BE00002D52846FFF7C6F814F00C0F03D0214683
:103BF0002846FFF72BF8A10607D5FEF749FD2B4B0A
:103C00000B2228461A70FFF7B5F863061FD5264B1E
:103C1000BDE870401868FEF781BECA0718D541F0AC
:103C20000804022321463370FFF710F8204B1A785E
:103C30002AB100221F491A702846FFF79DFB64062F
:103C400005D5194B1868FEF769FE0223337070BD65
:103C50004B07F4D5FEF7FAFFF1E7880711D50223E9
:103C60003370114B1868FEF759FE134A53889BB204
:103C7000B3F5105F0ABF917C7F2149B2284602F05C
:103C80008DFAA10502D52846FFF70CFE14F00C0FA3
:103C900003D021462846FEF7D9FFA206B5D5FEF788
:103CA000F7FCB2E7D0350020C4310020EE3500200B
:103CB00028360020F03500201831002030B5124D94
:103CC00085B0002410220823CDE9012344F201210C
:103CD0006B46224628460394009403F099FC0B4B54
:103CE0002246214618602346284603F091FC084BE3
:103CF0001860FEF731FC00F067FB00F0EBFBFFF70C
:103D000073F805B030BD00BF97240100AC36002029
:103D1000B03600200020704707B50A4802238DF80E
:103D20000030006800230822694603F067FD28B1CF
:103D3000054B064A064892210CF0F8FE03B05DF8E8
:103D400004FB00BFAC36002075240100A52401004F
:103D50007E24010007B50948002300688DF8003073
:103D60000822694603F04AFD28B1054B054A06487A
:103D70009D210CF0DBFE03B05DF804FBAC360020A7
:103D800075240100BD2401007E24010007B50A4806
:103D900004238DF80030006800230822694603F0F0
:103DA0002DFD28B1054B064A0648A8210CF0BEFEA1
:103DB00003B05DF804FB00BFAC36002075240100A1
:103DC000D12401007E24010007B501900948032396
:103DD0008DF80030006800230822694603F00EFDCC
:103DE00028B1054B054A0648B4210CF09FFE03B0EC
:103DF0005DF804FBAC36002075240100EA240100C4
:103E00007E24010007B50190094801238DF8003098
:103E1000006800230822694603F0F0FC28B1054B36
:103E2000054A0648CB210CF081FE03B05DF804FB87
:103E3000AC36002075240100FD2401007E24010021
:103E400037B5184D0446204600F04FFC034638BBFA
:103E500028680822694603F0A9FC0828F3D19DF8D8
:103E60000030052BEFD8DFE803F003070C1014181F
:103E70002046FEF7CDFBE6E701992046FFF78AFED4
:103E8000E1E7204600F026FCDDE7019800F084F829
:103E9000D9E7204600F0FAFAD5E700F053FBD2E765
:103EA00003B030BDB036002030B50F4DC3B0294649
:103EB00001A814460CF07EFE0C488DF8044101A9BF
:103EC000002340F20112006803F098FC0220FFF783
:103ED0007BFF074800234FF480722946006809F0F1
:103EE000D9FC43B030BD00BFB4360020B837002045
:103EF000B437002010B58EB005A809F091FB194B1E
:103F000006932022012309924FF4E12200248DF828
:103F100028300B92ADF814300322062040F2011332
:103F2000CDE90203ADF8302001AB224644F2022174
:103F30000D488DF8324007940494019403F068FB17
:103F40000A4B05A91860204609F0C0FE084B094934
:103F500018604FF48072234609F09CFC20460EB096
:103F600010BD00BFA93E000011250100B837002098
:103F7000B4370020B436002008B50A46014605488B
:103F80000023006809F0FAFD0120FFF71DFF002063
:103F900008BD00BFB437002010B5C207C2B0044648
:103FA00001D5FCF7ADFAA3070CD5074801A90068B5
:103FB000002340F2011203F0F9FB9DF8041101A85F
:103FC000FCF79CFA42B010BDB837002038B5094D57
:103FD0002B78BFF35B8F13F0010408D128460CF057
:103FE00095FD20B1044B28461C600CF09BFD024857
:103FF00038BD00BFC03700206C38002070B51248B3
:104000000478BFF35B8F14F001041BD10CF07EFD2C
:10401000C0B10E4D2C600D4E301D204410220021E9
:1040200010340CF0EFFDA02CF5D10A23324629689C
:1040300042F8041F013B2A6006F11006F6D102483F
:104040000CF070FD014870BDBC370020C83700205F
:104050002DE9F041074615468846002939D0E80782
:1040600012D4A90710D46A070ED42B07C5F3C006D3
:104070000AD4FFF7ABFF026814466CB3E188B9427B
:104080002CD026462468F8E7FFF7A0FF0468002C30
:104090002FD0E388BB4212D02468F8E7326812B30D
:1040A000126832601FE0236803601022002120465E
:1040B0000CF0A8FDFFF78AFF0368236004602571F8
:1040C000E780D8F80030A360D8F80430E36000201F
:1040D00000E00720BDE8F0811720FBE7002EDDD1CE
:1040E0000AB113680360FFF789FF03682360046067
:1040F000EDE7FFF783FF0468002CD4D10320E9E744
:1041000038B50546D0B1037A012B09D1FFF75EFF20
:1041100004689CB1E2882B889A4210D02468F8E7A2
:10412000022B0BD1FFF752FF04683CB1082229464D
:10413000A0180CF031FD10B12468F6E700242046E9
:1041400038BD00002DE9F041884615461E46FFF7B0
:10415000D7FF074660B36EB30379990748BF86F867
:104160000080C3F34004037948BF01245A0710D5E7
:10417000124B294693F9000002F035F8012C02B2E7
:10418000C2EB02224FF08200B2FBF0F2325513D0A4
:1041900001243B791B0708D5631C8235C5EB052537
:1041A0008221B5FBF1F53555DCB22046BDE8F08142
:1041B0000446FAE73446F8E70224F6E7C43700205D
:1041C00008B5FFF79DFF48B10379C3F34000C3F37F
:1041D00080021044C3F3C0031844C0B208BD037A80
:1041E000012B0A4604D0022B06D053B90B7270473C
:1041F0000B7203880B8070470B72034603CB106071
:10420000516070470368187800F00700831E584219
:104210005841704703681878C0F34010704730B5B4
:1042200085B000230D4601A98DF80C3000F0E4FDA7
:10423000044618B9294601A8FFF7D1FF204605B06A
:1042400030BD38B503685B781B0213F480740D46EB
:1042500004D100F023FD2870204638BD0620FCE77D
:1042600001F09CB803685878000200F44050A0F5B3
:10427000005358425841704710B5029C00B12CB908
:10428000074B084A0848C6210CF050FC029313461D
:104290000A4601462046BDE8104001F0E3B800BFE1
:1042A00021250100D12501009325010001F06DB801
:1042B00003681878C0F3C000704707B50DF1070117
:1042C00000F03DFF40B99DF80700A0F108035842F7
:1042D000584103B05DF804FB0020FAE707B500235E
:1042E0000DF107018DF8073000F062FF9DF807001F
:1042F00003B05DF804FB00F06FBF00F040BF0000AA
:1043000008B530B90A4B0B4A0B4840F209110CF0C2
:104310000DFC038823F4FF4343F4506303800378C8
:1043200023F07F0343F004030370062008BD00BFA1
:1043300035260100462601009325010070B5151DA4
:104340001446EDB230B9104B104A114840F2171123
:104350000CF0ECFB038823F4FF430380037805F0A3
:104360007F0523F07F032B4303709B238370B823C7
:10437000C370EA2303710023437111B106300CF0BE
:1043800019FCA01DC0B270BD3526010078260100C1
:1043900093250100FFF7FABC10B5044602F094FC27
:1043A00024B1844234BF0124B4FBF0F4204610BD94
:1043B00010B5044602F088FC1CB14443012C38BF00
:1043C0000124204610BD0000084B10B5184602F02D
:1043D000EFFA0024054B064906481C70224602F0FD
:1043E00035FC054B1860054B1C7010BD7038002063
:1043F000954300007C380020C0380020C4380020DD
:1044000008B502F063FCFFF7D3FF002108BD08B533
:1044100002F05CFCBDE80840FFF7CABF38B515469E
:104420000C46FFF7F4FF0E4B1C600E4B1D600E4B4D
:1044300001221A70031BAB4203D3BDE83840FFF7DB
:10444000A5BC2C44201AFFF7A7FF084C01462068A2
:1044500002F023FC2068BDE8384002F0BDBB00BF7D
:10446000CC380020C8380020C4380020C0380020D4
:1044700008B5044B186802F00DFC034B00221A70BB
:1044800008BD00BFC0380020C438002038B50E4D2C
:104490002B780446BBB1FFF7BAFF0C4B1A680C4BE4
:1044A0001B680146801A834206D800232B702046E1
:1044B000BDE8384000F01EBA1A442046521ABDE842
:1044C0003840FFF7ABBF38BDC4380020CC380020DF
:1044D000C83800207FB50AF095FE01A809F08CF8D5
:1044E00004230DEB030100208DF8043009F090F84F
:1044F000054B186028B9054B054A06487A210CF08F
:1045000015FB07B05DF804FBF420012084270100AF
:10451000B52701009B2701001FB50A46014668B177
:10452000684607F01FFE064B694618680AF006FF4A
:10453000003818BF012005B05DF804FB0720FAE73A
:10454000F4200120034B1B6813B1034A106818477D
:10455000704700BFD4380020D038002000F0F0B9F8
:104560000120704700F009BA00F0FAB900F0FAB97A
:1045700000487047C8270100143000F02FBA806946
:10458000003818BF01207047143000F053BA1430BF
:1045900000F05ABA0148FFF795B800BFD83800209C
:1045A00008B5836923B10348FFF796F8002008BDDA
:1045B0000D20FCE7D8380020836913B10248FEF7CC
:1045C000A3BE0D20704700BFD8380020143000F083
:1045D00045BAC06B7047143000F056BA243001F071
:1045E000B7B8143000F06ABA08B5836923B103483C
:1045F000FEF724FF002008BD0D20FCE7D83800207E
:10460000836913B10248FEF73BBF0D20704700BF1E
:10461000D8380020836913B1113001F091BD0D200D
:1046200070470000836913B10248FEF767BF0D2091
:10463000704700BFD8380020836913B10248FEF7E5
:10464000C3BF0D20704700BFD838002008B583696C
:1046500023B10348FEF7EEFF002008BD0D20FCE764
:10466000D838002008B5836923B10348FFF706F85E
:10467000002008BD0D20FCE7D8380020143000F0E1
:1046800039BA0022143000F06EBA0122143000F062
:104690006ABAFFF7B5BE007D7047143000F0B9B9B3
:1046A000C08A7047143000F0A7B92E30704714301C
:1046B00000F0B6B9408D7047FFF75CB808B5836964
:1046C00023B1243001F06AF8002008BD0D20FCE77A
:1046D0000120704710B50446FFF742FF20B1201DAE
:1046E000BDE8104000F024B810BD10B50446FFF737
:1046F00037FF18B16068003818BF012010BD0000F6
:10470000036823B9016004484960FFF705BB5A6894
:104710004A60596001607047D838002043680146FC
:1047200013B90248FFF7ECBF704700BFDC38002028
:1047300038B500250468056054B1606884421CBF28
:10474000436863600368456008BF00249847F3E747
:1047500038BD4368496810B59C1A8A1AD20FB2EB6B
:10476000D47F08BF5B1A4FEAD47008BFD80F10BDC2
:1047700070B505680C4625B9BDE870404B6808481F
:1047800018478B6898476A68831A002B014623688C
:10479000B8BF121ABDE870400148A8BF00221847F0
:1047A000D838002038B50C461146A268944203461A
:1047B00006D00568AC4204D10260FFF7D9FFA460BF
:1047C00038BD2A460021002AF9D0944208D011466B
:1047D0009268F8E78B68002BF1D09B688B60EEE75E
:1047E0000029F7D1002DEAD0AA681A60E7E72DE981
:1047F000F047936805460C46164698473246814670
:1048000021462846FFF7CEFFD5F800A04FF000085C
:10481000574647B14A4639462046FFF79AFF10B936
:10482000B846BF68F5E7B8F1000F08D1C4F808A092
:1048300031462C602846BDE8F047FFF799BFD8F80D
:104840000830A360C8F80840BDE8F08770B5066876
:1048500004460D467EB18B6898477368C01A0028DD
:1048600009DB20462A463146FFF79CFF3368304675
:10487000BDE87040184729462046BDE87040FFF764
:1048800077BF000010B50446FFF76AFE30B104F1AF
:1048900008000349BDE81040FFF7D8BF10BD00BFB6
:1048A0001C2801004160024A01460248FFF79FBFF1
:1048B00010280100E4380020002A00DAFEE7114445
:1048C000FFF7F0BF13B504460191FFF7A0FD019A71
:1048D0000146204602B0BDE81040FFF7EDBF0000E2
:1048E0000146024A0248FFF75DBF00BF10280100E1
:1048F000E438002010B50446FFF732FE30B104F171
:104900000C000349BDE81040FFF7A0BF10BD00BF79
:104910001028010038B500250446C0E90155C560DE
:10492000103001F0D7FC214604F1140000F043F8E8
:1049300084F8B05001F0FCFCC4F8B400204638BD47
:1049400010B5064C94F8B0302BB92046FFF7E2FFC3
:10495000012384F8B030014810BD00BFD8380020D2
:10496000FDF77ABE10B50446113001F087FB04F163
:104970001400BDE8104000F012B890F8B03010B547
:1049800004465BB1002380F8B030243000F02AFFE9
:1049900004F11000BDE8104001F088BC10BD0023F8
:1049A000C0E9023343600B2303704FF6FF7343806B
:1049B000103000F05BBE10B50B2303704FF6FF7391
:1049C00043800023C0E901330446C360103000F087
:1049D0007DFE2046FFF7E3FF204610BD38B50446B4
:1049E0000D46103019B100F0E7FE10B138BD00F0EF
:1049F000F9FE65600020F9E738B5436804460D46C6
:104A00002BB1103000F0A8FE6580002038BD0D20CD
:104A1000FCE7436813B10170002070470D20704718
:104A200008B5436823B1103000F0ACFE002008BD8B
:104A30000D20FCE708B5436823B1103000F092FE6A
:104A4000002008BD0D20FCE708B5436823B11030F5
:104A500000F08EFE002008BD0D20FCE743681BB16E
:104A600010F8101B00F0D6BE0D20704710B444683B
:104A70002CB122B9234603485DF8044B18475DF872
:104A8000044B7047D838002038B5436804460D46BB
:104A90002BB1103001F0D1F800B9A56038BD0D2060
:104AA000FCE7000038B5856804461DB10248A847F8
:104AB0000023A36038BD00BFD838002038B51D469C
:104AC000436804462BB1103000F08CFF00B9E5605C
:104AD00038BD0D20FCE70000436810B504462BB13B
:104AE000C3681BB1024898470023E36010BD00BFB4
:104AF000D83800202DE9F0438FB004460D46164605
:104B00000021102202A806AF99460DF128080CF0EA
:104B100079F81022002138460CF074F81022002198
:104B200040460CF06FF86368DBB10022494602A8EA
:104B300000F083FD16990022384600F07EFD17999B
:104B40000022404600F079FD04F11000CDE9007824
:104B500002AB3246294600F0CBFF00200FB0BDE883
:104B6000F0830D20FAE708B5436823B1103001F057
:104B700071F9002008BD0D20FCE703685878000299
:104B800000F44050A0F50053584258417047036864
:104B90001878C0F3C000704703681970090A59708B
:104BA000704710B402685478137843EA04231BB2A8
:104BB00031B143F010035DF8044B99B2FFF7ECBF3D
:104BC00023F01003F7E710B402685478137843EA2F
:104BD00004231BB231B143F400735DF8044B99B266
:104BE000FFF7DABF23F40073F7E703685B7813F08D
:104BF000010F14BF02200320704700F44053B3F5A7
:104C0000005F1ED120F44E5323F03F0348F24002D0
:104C100093421CD00CD8B3F5446F18D005D8B3B16B
:104C2000B3F5046018BF01207047B3F50040F9E701
:104C30004CF6404293420AD000F44C40B0F540405C
:104C4000F0E710F4406F14BF0120002070470020EF
:104C50007047036858781B7843EA0020FFF7CDBF00
:104C600010B50446FFF7F5FF20B12046BDE810401F
:104C7000FFF7BBBFFF2010BD38B50C460546FFF758
:104C8000EFFFFF281BBF2A681318062059781FBFA3
:104C9000135C43EA01232380002038BD03685A785F
:104CA000D20700D5FEE79878704703685A78D20794
:104CB00000D5FEE79970704710B50246FFF795FFE3
:104CC00004461046FFF7C5FF002814BF022000204D
:104CD0002044C0B210BD38B505460C46FFF7ECFFC6
:104CE000FF281BD029684B78C3F38103022B04D023
:104CF000032B0CD00020207208E00B185A780B5CB4
:104D000043EA0223238001232372002038BD01449B
:104D10000122204600F076FC0223F5E70620F5E7A5
:104D200000F44053B3F5005F04D100F44C43B3F5F5
:104D30004C4F07D010F4404304D080F04000C0F343
:104D4000801070470020704710B5036859781C78B0
:104D500044EA012402462046FFF7E2FFB0B11046C4
:104D6000FFF743FF01462046FFF747FF08B1023136
:104D7000C9B2C4F38124022C03D0032C04D008460A
:104D800010BD0231C9B2FAE70831FBE7FF21F6E7AF
:104D900038B50C460546FFF7D7FFFF281BBF2A682A
:104DA0001318062059781FBF135C43EA01232380A0
:104DB000002038BD10B503685A781C7844EA0224F4
:104DC000FFF713FF01462046FFF717FF08B1023136
:104DD000C9B2C4F38123022B09D0032B0AD0204689
:104DE000FFF79EFF08B10231C9B2084610BD02317B
:104DF000C9B2F4E70831FBE738B505460C46FFF7C2
:104E0000D9FF29684A780B78FF2843EA022305D0A6
:104E10009B0B022B04D0032B0CD043B1062008E0DF
:104E20000B185A780B5C43EA022323800123237278
:104E3000002038BD01440122204600F0E3FB02239C
:104E4000F5E700F01800102804D0182814BF00203F
:104E5000082070470420704700F00700013806283A
:104E60000BD8DFE800F00406080A04060800042056
:104E70007047082070471020704700207047037A61
:104E8000012B06D0022B14BF00200320884080B2E3
:104E900070470220FAE7420708B5034608D0FFF73B
:104EA000D0FF13F0180F0CBF05300630C0B208BD9C
:104EB000FF20FCE72DE9F743071D0446B0F80090FA
:104EC000B0F802800E4638460E21FFF7D8FF49EAB7
:104ED0000805284304F10E0582B20A212846FFF78F
:104EE000CEFFA37D104380B25BB1012B04D1E189D9
:104EF0004FF6FF72914204D0B9F1020F18BF40F093
:104F00002000A27F002A14BF08220022B8F5805F8B
:104F100040EA020094F8212005D0B8F5005F0ED0D9
:104F2000B8F1000F16D1217B31B12BB1218B638BEE
:104F3000994208BF40F04000D3070FD5FEE7217B20
:104F4000002B40F09480637F002940F08880002B84
:104F500040F09980D10748BF40F4807012F0020FF2
:104F600014BF4FF400784FF0000848EA0008316899
:104F70007F22684601F042F94146684601F061F936
:104F800018F4807F03D10121684601F084F940467E
:104F9000FFF733FE18B1618B684601F052F92946DC
:104FA000684601F059F94046FFF7BAFE18B1218B67
:104FB000684601F046F93946684601F04DF9A57F8B
:104FC000BDF80430B3808DB1E07F054329466846C3
:104FD00001F02CF92846FFF75EFF013881B26846E0
:104FE00001F059F92846FFF737FF054694F82130BC
:104FF0009A070FD50221684601F04DF904221A21C3
:1050000000F0F4FA0421684601F045F9337F43F0DB
:105010000803337718F4007F0ED02388032B03D0C6
:1050200094F821305B070FD40221684601F033F970
:1050300000227F2100F0DAFA2388032B04D194F8B0
:105040002010684601F0F2F8A91C89B2684601F008
:1050500022F9BDF80430B38003B0BDE8F083002B23
:105060007FF478AF237F002B7FF474AF0BE009B996
:10507000637FF8E7022901D1022BF9D0218B638BE2
:1050800099427FF467AF40F0400063E710B580F4C9
:1050900080720446C2F30021FFF7AFFD50B98A1CAD
:1050A000C4F38123022B07D0032B16D033B1FF2288
:1050B000104610BD0A1DF3E70232D2B22046FFF7B8
:1050C0002FFE08B10232D2B2A40B022C07D0032C5F
:1050D00008D0002C18BFFF22EAE70832EDE70232C1
:1050E000D2B2E5E70832FBE78388032B06D90368D1
:1050F00058781B7843EA0020FFF7C8BFFF207047AD
:105100008388022B10B5044607D9FFF740FD20B174
:105110002046BDE81040FFF7E7BFFF2010BD38B5BF
:1051200005460C46FFF7ECFFFF281FBF2B681B5CF2
:1051300003F00703237014BF0020062038BD38B5E4
:1051400005460C46FFF7DCFFFF281FBF2B681B5CE2
:1051500003F01803237014BF0020062038BD38B5B3
:1051600005460C46FFF7CCFFFF281FBF431C2A68EB
:10517000DBB200201ABFD3582360062038BD38B5F3
:1051800005460C46FFF7BCFFFF2800D1FEE72A6862
:10519000431CD9B252FA83F35454220A5A70220C97
:1051A000240E9A70DC702B7F43F001032B7738BDFF
:1051B00038B505460C46FFF7A3FFFF28024609D085
:1051C0002B68185CFFF73DFE1344034400205B7915
:1051D000237038BD0620FCE738B505460C46FFF7BE
:1051E0008FFFFF28024600D1FEE72B68185CFFF70F
:1051F00028FE134403445C7138BD10B50446FFF724
:105200007FFFFF2806D02368185CFFF725FE0230D9
:10521000C0B210BD0220FCE738B50546FFF764FFB9
:10522000FF28044611D02846FFF7B1FC68B1A988D1
:105230008C420CDA2B68185DFFF72DFEFF2808D092
:105240002044C4B2A142B8BFFF24204638BDFF2489
:10525000FBE70446F9E7F8B50646FFF7DDFF84B241
:10526000FF2C2DD037687B783D7845EA0325AB05C8
:105270001CD53046FFF7C1FFB188A21C93B210FACB
:1052800082F28A4207EB040C1CDC3A5D02F07F02DA
:1052900013449CB210FA83F3994213DBBCF800204C
:1052A000C2F3C7127F2A01D09942E6D13046FFF7F8
:1052B00064FC28B905F00705032D01D10134A4B21F
:1052C000E0B2F8BDFF24FBE710B50446FFF7C3FFCB
:1052D000FF2816BF23680020C01810BD10B5044673
:1052E000FFF7F2FF2368C01AC0B210BD38B50546FB
:1052F000FFF7F4FF04462846FFF77FFF0444A88821
:10530000001B80B238BD10B50446FFF776FFA388B6
:10531000181A2368184410BD03685B789B0701D5F1
:10532000FFF77ABFFF20704770B506460D46FFF7BE
:10533000F3FF04463046FFF78EFFFF2C024613D0E2
:10534000FF2811D0ADB294420ED83368195BC1F377
:10535000C7118D4203EB040007D01B5D03F07F03F0
:1053600002331C44E4B2EEE7002070BD08B51A21F8
:10537000FFF7DAFF003818BF012008BD08B51A2171
:10538000FFF7D2FF00B1023008BD38B50D46144614
:10539000FFF7F4FF08B14580048038BDF0B5B3B025
:1053A000044600230AA80D46059301F087F920461C
:1053B000FFF7EDFB00284FD00DF113012046FFF75A
:1053C000AEFE002848D105A92046FFF7C8FE0646D4
:1053D000002841D106AF9DF8132005993B46284689
:1053E00001F05EF9A1680AA800F0BCFF2046FFF7B3
:1053F00004FF05462046FFF771FF03902046FFF7A4
:1054000075FF023D0D2302460399CDE900730AA8FA
:10541000EBB200F0B3FF2046FFF760FF21680246C1
:105420000AA801F04FF82046FFF74EFF03902046F0
:10543000FFF75CFF039A0096034611460AA801F0A5
:1054400085F82046FFF75FFF01460AA801F00BF937
:10545000237F43F0100323770AA801F048F933B003
:10546000F0BD00002DE9F0438FB00C460646914692
:105470000021222205A898469DF858700BF0C2FB27
:10548000002320468DF810308DF803308DF804305D
:10549000FFF773FB20B9062528460FB0BDE8F0835F
:1054A00023681B789B06F6D502A92046FFF713FC5C
:1054B00005460028F0D19DF81030002BEBD0012BD1
:1054C00005D1BDF808204FF6FF739A42E3D00DF1E5
:1054D00022012046FFF790FC05460028DCD19DF80C
:1054E0002A30002BD7D02046FFF751FB00284ED1A1
:1054F000236858781B7843EA0020FFF711FC002846
:1055000058D00DF106012046FFF742FC00284FD18C
:10551000BDF806100BA800F088F8A379B37120221B
:10552000002106F108000BF06DFB2F4B05939DF851
:1055300003308DF8323031469DF804308DF8333029
:1055400005A8FFF7B7FC30464946FFF72AFB391E8E
:1055500018BF0121FFF737FB2046FFF79FFB0146ED
:105560003046FFF7A2FB2046FFF711FB50B10DF1CB
:1055700005012046FFF71CFED0B99DF80510304606
:10558000FFF72AFE77B3B8F1000F1ED1FEE70DF149
:1055900003012046FFF7C3FD50B99DF80330052BEA
:1055A0007FF479AF01A92046FFF7C9FD00289FD0FD
:1055B000054671E72046FFF74CFB0028ADD00DF102
:1055C00006012046FFF758FBA0E73046FFF7A4FE90
:1055D00033683A46184441460BF0ECFAB3881F444E
:1055E000B78059E73D4657E702000020C90101F4A2
:1055F000FF410180037802F07F0223F07F03134311
:105600000370704712B1012A05D070470B68036020
:105610004B684360704701F10803013813F8012D0E
:1056200000F8012F8B42F9D170470123418043716B
:105630007047102200210BF0E5BA30B50B46024648
:1056400001F1100518685968144603C40833AB42C9
:105650002246F7D130BD102308608B8070470000D0
:1056600001460148FDF748BED838002038B54FF64E
:10567000FE73C3800381438A03F0FC0343F4FE43BB
:10568000002543F001030446438245800571C0F8BC
:105690000A50C0F80E5080F85D5045612830FFF781
:1056A000C8FF04F13800FFF7C4FF04F14800FFF71A
:1056B000C0FF04F16000A56584F85C50FFF710F9A5
:1056C0002046BDE8384000F0F2BB000037B51D4D64
:1056D000019104462846FDF7AFFE20802846FDF7DD
:1056E00031FE0199A06104F11C0000F0C9FB00210A
:1056F000C4E90811102204F128000BF083FA1022EB
:10570000002104F138000BF07DFA0021102204F191
:1057100048000BF077FA23460B4A43F8602FA36644
:1057200023460A4A43F8802FC4F88830FF232046D6
:1057300084F87C3084F87D30FFF798FF204603B072
:1057400030BD00BFD8380020495E00005560000021
:10575000008840F07C0070470148FEF727B800BF82
:10576000D8380020C180014800F0E4BCE9380020AE
:1057700002898A4203D00181014800F016BD7047BA
:10578000D83800200A68C0F80A204A68C0F80E20FD
:10579000014800F065BC00BFE9380020837C61F35C
:1057A000000383740388DB0502D5024800F01ABDAC
:1057B000704700BFD8380020837810B5044663B91D
:1057C0000748FDF7EDFB50B90548FDF79DFD30B9E1
:1057D000A378012B01D00123A370002010BDFEE7A8
:1057E000D838002010B504468030FFF779F804F16E
:1057F0006000FFF775F80648FDF786FD30B90448EC
:10580000FDF70AFC10B9A37803B1A07010BD00BF6A
:10581000D838002010B504460846A37C9B0709D55C
:105820000648FDF771FD20B9A378022B1CBF0223A7
:10583000A37010BDFFF714FFF5E700BFD8380020B4
:1058400038B50123044603FA01F1002000F07CFD85
:105850004FF4A07303FB00F5A37CDB070AD5A36913
:105860009879FFF7FDFE294604F16000BDE8384055
:10587000FFF728B80148FDF747FDF4E7D8380020C6
:10588000837803F0FB03032B10B504461ED1038875
:10589000DB0605D483699879FFF7E2FE00B1FEE7E5
:1058A000A378A1690A48042B1CBF0423A37000F04D
:1058B00055FC0D2808D1A1694B6933B10023C1E91A
:1058C0000433034800F04AFC00B1FEE710BD00BFFE
:1058D000E9380020837C9B0702D40248FDF7A6BD6F
:1058E0007F207047D83800208378022B1CBF02230A
:1058F00083701C3000F0D4BA03889B0710B50446AF
:1059000000D5FEE7FFF7E6FF7F2806D094F91330B5
:105910007F2B01D0834200DAE074FCF739FE636923
:10592000C01A002807DA616E04F160008022BDE829
:105930001040FEF7C1BF94F913102046BDE8104097
:10594000FFF7D2BF008880F02000C0F340107047FE
:105950008269127F0346C2F38000520741BF188854
:1059600000F00C00B0FA80F0400970470378DB07C4
:105970005FBF044B9869B0FA80F0400948BF00202F
:10598000704700BFD838002038B5036A04460D467A
:105990001BB1426A0121284698472046FFF7E6FFDF
:1059A00058B12B681B789B0607D504F160004FF4B3
:1059B0007A51BDE83840FEF785BF38BD008880F0D9
:1059C0000400C0F38000704703889B075FBF044B4F
:1059D0009869B0FA80F0400948BF0020704700BFC6
:1059E000D8380020F8B58378054616469BB3033BAC
:1059F000042B30D9837CC3F340049B0705D57F215A
:105A0000FFF772FF00242046F8BD03889B0708D5E6
:105A10001348FDF71BFBAB78052BF4D00523AB70C7
:105A2000F1E7FFF7D1FFC0B10846FFF719FE0446C2
:105A300000B1FEE7AB78052B1CBF0523AB707F23BD
:105A4000EB74FCF7A5FD30446861002105F16000AE
:105A5000FEF738FFD7E70D24D5E70C24D3E700BFC6
:105A6000D8380020008880F04000C0F380107047D4
:105A700038B5836982785969044609B91969F9B159
:105A8000072A1CBF0722A2702046FFF7EBFF90B148
:105A900016481D69FDF76CFEA3695B692B44A3F5ED
:105AA000A473C21A002A06DA191A04F16000BDE8CC
:105AB0003840FEF707BF2046BDE83840FFF7E0BE9C
:105AC000032A1B7EC1781CBF03228270002BF2D0F8
:105AD000FFF73EFF0028EED00331C9B2052920466A
